{
  "contractName": "Factory",
  "abi": [
    {
      "inputs": [],
      "stateMutability": "nonpayable",
      "type": "constructor"
    },
    {
      "inputs": [
        {
          "internalType": "address",
          "name": "_securityToken",
          "type": "address"
        }
      ],
      "name": "addSecurityToken",
      "outputs": [],
      "stateMutability": "nonpayable",
      "type": "function"
    },
    {
      "inputs": [
        {
          "internalType": "uint256",
          "name": "limit",
          "type": "uint256"
        }
      ],
      "name": "listSecurityTokens",
      "outputs": [
        {
          "internalType": "address[]",
          "name": "",
          "type": "address[]"
        }
      ],
      "stateMutability": "view",
      "type": "function"
    },
    {
      "inputs": [],
      "name": "getCountSecurityToken",
      "outputs": [
        {
          "internalType": "uint256",
          "name": "",
          "type": "uint256"
        }
      ],
      "stateMutability": "view",
      "type": "function"
    }
  ],
  "bytecode": "0x60a060405234801561001057600080fd5b5033608052608051610333610030600039600061016801526103336000f3fe608060405234801561001057600080fd5b50600436106100415760003560e01c80630fe78ee41461004657806341aad1511461005c578063598862af1461007c575b600080fd5b6001546040519081526020015b60405180910390f35b61006f61006a366004610212565b610091565b604051610053919061022b565b61008f61008a366004610278565b610166565b005b606060006001548311806100a3575082155b6100ad57826100b1565b6001545b905060008167ffffffffffffffff8111156100ce576100ce6102a8565b6040519080825280602002602001820160405280156100f7578160200160208202803683370190505b50905060005b8281101561015e5760008181526020819052604090205482516001600160a01b0390911690839083908110610134576101346102be565b6001600160a01b039092166020928302919091019091015280610156816102d4565b9150506100fd565b509392505050565b7f00000000000000000000000000000000000000000000000000000000000000006001600160a01b031633146101d25760405162461bcd60e51b815260206004820152600d60248201526c2737ba102a34329027bbb732b960991b604482015260640160405180910390fd5b60018054600090815260208190526040812080546001600160a01b0319166001600160a01b0385161790558154919061020a836102d4565b919050555050565b60006020828403121561022457600080fd5b5035919050565b6020808252825182820181905260009190848201906040850190845b8181101561026c5783516001600160a01b031683529284019291840191600101610247565b50909695505050505050565b60006020828403121561028a57600080fd5b81356001600160a01b03811681146102a157600080fd5b9392505050565b634e487b7160e01b600052604160045260246000fd5b634e487b7160e01b600052603260045260246000fd5b60006000198214156102f657634e487b7160e01b600052601160045260246000fd5b506001019056fea26469706673582212205d492c6973231e828d675f94d99ec79e8e34907ab830882e55f09b32f5a88b4a64736f6c634300080b0033",
  "immutableReferences": {
    "1146": [
      {
        "length": 32,
        "start": 360
      }
    ]
  },
  "source": "// SPDX-License-Identifier: MIT\n\npragma solidity ^0.8.0;\n\n\ncontract Factory {\n\n    mapping(uint256 => address) securityToken;\n    uint256 internal countSecurityToken;\n    address immutable OWNER;\n\n    constructor() {\n        OWNER = msg.sender;\n    }\n\n    function addSecurityToken(address _securityToken) external {\n        require(OWNER == msg.sender,\"Not The Owner\");\n        securityToken[countSecurityToken] = _securityToken;\n        countSecurityToken++;\n    }\n\n    function listSecurityTokens(uint256 limit) external view returns(address[] memory){\n        uint256 count = limit > countSecurityToken || limit == 0 ? countSecurityToken : limit;\n        address[] memory result = new address[](count);\n        for (uint256 i = 0; i < count; i++) {\n            result[i] = securityToken[i];\n        }\n        return result;\n    }\n\n    function getCountSecurityToken() external view returns(uint256){\n        return countSecurityToken;\n    }\n}",
  "sourcePath": "/home/solid-solution/Bureau/HOMEWORK/Smart-Starter/smart-contract/contracts/factory/Factory.sol",
  "compiler": {
    "name": "solc",
    "version": "0.8.11+commit.d7f03943.Emscripten.clang"
  },
  "schemaVersion": "3.4.10",
  "updatedAt": "2023-02-23T21:16:08.009Z",
  "devdoc": {
    "kind": "dev",
    "methods": {},
    "version": 1
  },
  "userdoc": {
    "kind": "user",
    "methods": {},
    "version": 1
  }
}