{
  "contractName": "factory",
  "abi": [
    {
      "inputs": [],
      "stateMutability": "nonpayable",
      "type": "constructor"
    },
    {
      "inputs": [
        {
          "internalType": "address",
          "name": "_securityToken",
          "type": "address"
        }
      ],
      "name": "addSecurityToken",
      "outputs": [],
      "stateMutability": "nonpayable",
      "type": "function"
    },
    {
      "inputs": [
        {
          "internalType": "uint256",
          "name": "limit",
          "type": "uint256"
        }
      ],
      "name": "listSecurityTokens",
      "outputs": [
        {
          "internalType": "address[]",
          "name": "",
          "type": "address[]"
        }
      ],
      "stateMutability": "view",
      "type": "function"
    },
    {
      "inputs": [],
      "name": "getCountSecurityToken",
      "outputs": [
        {
          "internalType": "uint256",
          "name": "",
          "type": "uint256"
        }
      ],
      "stateMutability": "view",
      "type": "function"
    }
  ],
  "bytecode": "0x60a060405234801561001057600080fd5b503360805260805161032a610030600039600061015f015261032a6000f3fe608060405234801561001057600080fd5b50600436106100415760003560e01c80630fe78ee41461004657806341aad1511461005c578063598862af1461007c575b600080fd5b6001546040519081526020015b60405180910390f35b61006f61006a366004610209565b610091565b6040516100539190610222565b61008f61008a36600461026f565b61015d565b005b6060600060015483116100a457826100a8565b6001545b905060008167ffffffffffffffff8111156100c5576100c561029f565b6040519080825280602002602001820160405280156100ee578160200160208202803683370190505b50905060005b828110156101555760008181526020819052604090205482516001600160a01b039091169083908390811061012b5761012b6102b5565b6001600160a01b03909216602092830291909101909101528061014d816102cb565b9150506100f4565b509392505050565b7f00000000000000000000000000000000000000000000000000000000000000006001600160a01b031633146101c95760405162461bcd60e51b815260206004820152600d60248201526c2737ba102a34329027bbb732b960991b604482015260640160405180910390fd5b60018054600090815260208190526040812080546001600160a01b0319166001600160a01b03851617905581549190610201836102cb565b919050555050565b60006020828403121561021b57600080fd5b5035919050565b6020808252825182820181905260009190848201906040850190845b818110156102635783516001600160a01b03168352928401929184019160010161023e565b50909695505050505050565b60006020828403121561028157600080fd5b81356001600160a01b038116811461029857600080fd5b9392505050565b634e487b7160e01b600052604160045260246000fd5b634e487b7160e01b600052603260045260246000fd5b60006000198214156102ed57634e487b7160e01b600052601160045260246000fd5b506001019056fea2646970667358221220317f920a30ca67b57e596be108f50fa0042763c4b920dcf65509a7482707381064736f6c634300080b0033",
  "immutableReferences": {
    "1146": [
      {
        "length": 32,
        "start": 351
      }
    ]
  },
  "source": "// SPDX-License-Identifier: MIT\n\npragma solidity ^0.8.0;\n\n\ncontract factory {\n\n    mapping(uint256 => address) securityToken;\n    uint256 internal countSecurityToken;\n    address immutable OWNER;\n\n    constructor() {\n        OWNER = msg.sender;\n    }\n\n    function addSecurityToken(address _securityToken) external {\n        require(OWNER == msg.sender,\"Not The Owner\");\n        securityToken[countSecurityToken] = _securityToken;\n        countSecurityToken++;\n    }\n\n    function listSecurityTokens(uint256 limit) external view returns(address[] memory){\n        uint256 count = limit > countSecurityToken ? countSecurityToken : limit;\n        address[] memory result = new address[](count);\n        for (uint256 i = 0; i < count; i++) {\n            result[i] = securityToken[i];\n        }\n        return result;\n    }\n\n    function getCountSecurityToken() external view returns(uint256){\n        return countSecurityToken;\n    }\n}",
  "sourcePath": "/home/solid-solution/Bureau/HOMEWORK/Smart-Starter/contracts/factory/factory.sol",
  "compiler": {
    "name": "solc",
    "version": "0.8.11+commit.d7f03943.Emscripten.clang"
  },
  "schemaVersion": "3.4.10",
  "updatedAt": "2023-02-16T14:57:27.396Z",
  "devdoc": {
    "kind": "dev",
    "methods": {},
    "version": 1
  },
  "userdoc": {
    "kind": "user",
    "methods": {},
    "version": 1
  }
}