{
  "contractName": "ProxySecurityToken",
  "abi": [
    {
      "inputs": [
        {
          "internalType": "uint256",
          "name": "_pricePerToken",
          "type": "uint256"
        }
      ],
      "stateMutability": "nonpayable",
      "type": "constructor"
    },
    {
      "inputs": [
        {
          "internalType": "address",
          "name": "account",
          "type": "address"
        },
        {
          "internalType": "uint256",
          "name": "accountBalance",
          "type": "uint256"
        },
        {
          "internalType": "uint256",
          "name": "amount",
          "type": "uint256"
        }
      ],
      "name": "BurnAmountExceedsBalance",
      "type": "error"
    },
    {
      "inputs": [
        {
          "internalType": "address",
          "name": "account",
          "type": "address"
        }
      ],
      "name": "BurnFromZeroAddress",
      "type": "error"
    },
    {
      "inputs": [
        {
          "internalType": "address",
          "name": "account",
          "type": "address"
        },
        {
          "internalType": "uint256",
          "name": "previousBalance",
          "type": "uint256"
        },
        {
          "internalType": "uint256",
          "name": "currentBalance",
          "type": "uint256"
        },
        {
          "internalType": "uint256",
          "name": "amount",
          "type": "uint256"
        }
      ],
      "name": "MintDoesNotWork",
      "type": "error"
    },
    {
      "inputs": [
        {
          "internalType": "address",
          "name": "account",
          "type": "address"
        }
      ],
      "name": "MintFromZeroAddress",
      "type": "error"
    },
    {
      "inputs": [
        {
          "internalType": "address",
          "name": "sender",
          "type": "address"
        }
      ],
      "name": "NotAgent",
      "type": "error"
    },
    {
      "inputs": [
        {
          "internalType": "address",
          "name": "sender",
          "type": "address"
        }
      ],
      "name": "NotReader",
      "type": "error"
    },
    {
      "inputs": [
        {
          "internalType": "address",
          "name": "sender",
          "type": "address"
        },
        {
          "internalType": "bytes32",
          "name": "role",
          "type": "bytes32"
        }
      ],
      "name": "NotTheOwner",
      "type": "error"
    },
    {
      "inputs": [
        {
          "internalType": "uint256",
          "name": "fromBalance",
          "type": "uint256"
        },
        {
          "internalType": "address",
          "name": "from",
          "type": "address"
        },
        {
          "internalType": "uint256",
          "name": "amount",
          "type": "uint256"
        }
      ],
      "name": "TransferAmountExceedsBalance",
      "type": "error"
    },
    {
      "inputs": [
        {
          "internalType": "address",
          "name": "from",
          "type": "address"
        }
      ],
      "name": "TransferFromZeroAddress",
      "type": "error"
    },
    {
      "inputs": [
        {
          "internalType": "address",
          "name": "to",
          "type": "address"
        }
      ],
      "name": "TransferToZeroAddress",
      "type": "error"
    },
    {
      "anonymous": false,
      "inputs": [
        {
          "indexed": true,
          "internalType": "address",
          "name": "userAddress",
          "type": "address"
        },
        {
          "indexed": true,
          "internalType": "bool",
          "name": "freeze",
          "type": "bool"
        },
        {
          "indexed": true,
          "internalType": "address",
          "name": "sender",
          "type": "address"
        }
      ],
      "name": "AddressFrozen",
      "type": "event"
    },
    {
      "anonymous": false,
      "inputs": [
        {
          "indexed": true,
          "internalType": "address",
          "name": "_agent",
          "type": "address"
        }
      ],
      "name": "AgentAdded",
      "type": "event"
    },
    {
      "anonymous": false,
      "inputs": [
        {
          "indexed": true,
          "internalType": "address",
          "name": "_agent",
          "type": "address"
        }
      ],
      "name": "AgentRemoved",
      "type": "event"
    },
    {
      "anonymous": false,
      "inputs": [
        {
          "indexed": true,
          "internalType": "address",
          "name": "previousOwner",
          "type": "address"
        },
        {
          "indexed": true,
          "internalType": "address",
          "name": "newOwner",
          "type": "address"
        }
      ],
      "name": "OwnershipTransferred",
      "type": "event"
    },
    {
      "anonymous": false,
      "inputs": [
        {
          "indexed": true,
          "internalType": "address",
          "name": "sender",
          "type": "address"
        },
        {
          "indexed": true,
          "internalType": "uint256",
          "name": "paused",
          "type": "uint256"
        }
      ],
      "name": "Paused",
      "type": "event"
    },
    {
      "anonymous": false,
      "inputs": [
        {
          "indexed": true,
          "internalType": "address",
          "name": "_reader",
          "type": "address"
        }
      ],
      "name": "ReaderAdded",
      "type": "event"
    },
    {
      "anonymous": false,
      "inputs": [
        {
          "indexed": true,
          "internalType": "address",
          "name": "_reader",
          "type": "address"
        }
      ],
      "name": "ReaderRemoved",
      "type": "event"
    },
    {
      "anonymous": false,
      "inputs": [
        {
          "indexed": true,
          "internalType": "address",
          "name": "userAddress",
          "type": "address"
        },
        {
          "indexed": true,
          "internalType": "uint256",
          "name": "amount",
          "type": "uint256"
        }
      ],
      "name": "TokensFrozen",
      "type": "event"
    },
    {
      "anonymous": false,
      "inputs": [
        {
          "indexed": true,
          "internalType": "address",
          "name": "userAddress",
          "type": "address"
        },
        {
          "indexed": true,
          "internalType": "uint256",
          "name": "startTime",
          "type": "uint256"
        },
        {
          "indexed": true,
          "internalType": "uint256",
          "name": "endTime",
          "type": "uint256"
        },
        {
          "indexed": false,
          "internalType": "uint256",
          "name": "amount",
          "type": "uint256"
        },
        {
          "indexed": false,
          "internalType": "address",
          "name": "signer",
          "type": "address"
        }
      ],
      "name": "TokensFrozenPeriod",
      "type": "event"
    },
    {
      "anonymous": false,
      "inputs": [
        {
          "indexed": true,
          "internalType": "address",
          "name": "userAddress",
          "type": "address"
        },
        {
          "indexed": true,
          "internalType": "uint256",
          "name": "amount",
          "type": "uint256"
        }
      ],
      "name": "TokensUnfrozen",
      "type": "event"
    },
    {
      "anonymous": false,
      "inputs": [
        {
          "indexed": true,
          "internalType": "address",
          "name": "userAddress",
          "type": "address"
        },
        {
          "indexed": true,
          "internalType": "uint256",
          "name": "amount",
          "type": "uint256"
        }
      ],
      "name": "TokensUnfrozenPeriod",
      "type": "event"
    },
    {
      "anonymous": false,
      "inputs": [
        {
          "indexed": false,
          "internalType": "string",
          "name": "eventType",
          "type": "string"
        },
        {
          "indexed": true,
          "internalType": "address",
          "name": "from",
          "type": "address"
        },
        {
          "indexed": true,
          "internalType": "address",
          "name": "to",
          "type": "address"
        },
        {
          "indexed": false,
          "internalType": "uint256",
          "name": "value",
          "type": "uint256"
        }
      ],
      "name": "Transfer",
      "type": "event"
    },
    {
      "anonymous": false,
      "inputs": [
        {
          "indexed": true,
          "internalType": "address",
          "name": "oldAccount",
          "type": "address"
        },
        {
          "indexed": true,
          "internalType": "address",
          "name": "newAccount",
          "type": "address"
        }
      ],
      "name": "TransferOwnership",
      "type": "event"
    },
    {
      "inputs": [],
      "name": "TokenContract",
      "outputs": [
        {
          "internalType": "contract ISecurityTokenImmutable",
          "name": "",
          "type": "address"
        }
      ],
      "stateMutability": "view",
      "type": "function"
    },
    {
      "inputs": [],
      "name": "_now",
      "outputs": [
        {
          "internalType": "uint256",
          "name": "",
          "type": "uint256"
        }
      ],
      "stateMutability": "view",
      "type": "function"
    },
    {
      "inputs": [
        {
          "internalType": "address",
          "name": "_agent",
          "type": "address"
        }
      ],
      "name": "addAgent",
      "outputs": [],
      "stateMutability": "nonpayable",
      "type": "function"
    },
    {
      "inputs": [
        {
          "internalType": "address",
          "name": "_reader",
          "type": "address"
        }
      ],
      "name": "addReader",
      "outputs": [],
      "stateMutability": "nonpayable",
      "type": "function"
    },
    {
      "inputs": [
        {
          "internalType": "address",
          "name": "_agent",
          "type": "address"
        }
      ],
      "name": "isAgent",
      "outputs": [
        {
          "internalType": "bool",
          "name": "",
          "type": "bool"
        }
      ],
      "stateMutability": "view",
      "type": "function"
    },
    {
      "inputs": [
        {
          "internalType": "address",
          "name": "_reader",
          "type": "address"
        }
      ],
      "name": "isReader",
      "outputs": [
        {
          "internalType": "bool",
          "name": "",
          "type": "bool"
        }
      ],
      "stateMutability": "view",
      "type": "function"
    },
    {
      "inputs": [
        {
          "internalType": "address",
          "name": "_agent",
          "type": "address"
        }
      ],
      "name": "removeAgent",
      "outputs": [],
      "stateMutability": "nonpayable",
      "type": "function"
    },
    {
      "inputs": [
        {
          "internalType": "address",
          "name": "_reader",
          "type": "address"
        }
      ],
      "name": "removeReader",
      "outputs": [],
      "stateMutability": "nonpayable",
      "type": "function"
    },
    {
      "inputs": [],
      "name": "renounceOwnership",
      "outputs": [],
      "stateMutability": "nonpayable",
      "type": "function"
    },
    {
      "inputs": [
        {
          "internalType": "address",
          "name": "_securityTokenImmutableAddress",
          "type": "address"
        }
      ],
      "name": "setSecurityTokenImmutable",
      "outputs": [],
      "stateMutability": "nonpayable",
      "type": "function"
    },
    {
      "inputs": [],
      "name": "version",
      "outputs": [
        {
          "internalType": "string",
          "name": "",
          "type": "string"
        }
      ],
      "stateMutability": "pure",
      "type": "function"
    },
    {
      "inputs": [],
      "name": "owner",
      "outputs": [
        {
          "internalType": "address",
          "name": "",
          "type": "address"
        }
      ],
      "stateMutability": "view",
      "type": "function"
    },
    {
      "inputs": [
        {
          "internalType": "address",
          "name": "account",
          "type": "address"
        }
      ],
      "name": "transferOwnership",
      "outputs": [],
      "stateMutability": "nonpayable",
      "type": "function"
    },
    {
      "inputs": [
        {
          "internalType": "address",
          "name": "account",
          "type": "address"
        }
      ],
      "name": "eligibleBalanceOf",
      "outputs": [
        {
          "internalType": "uint256",
          "name": "",
          "type": "uint256"
        }
      ],
      "stateMutability": "view",
      "type": "function"
    },
    {
      "inputs": [
        {
          "internalType": "address",
          "name": "to",
          "type": "address"
        },
        {
          "internalType": "uint256",
          "name": "amount",
          "type": "uint256"
        }
      ],
      "name": "mint",
      "outputs": [
        {
          "internalType": "bool",
          "name": "",
          "type": "bool"
        }
      ],
      "stateMutability": "payable",
      "type": "function"
    },
    {
      "inputs": [
        {
          "internalType": "address",
          "name": "account",
          "type": "address"
        },
        {
          "internalType": "uint256",
          "name": "amount",
          "type": "uint256"
        }
      ],
      "name": "burn",
      "outputs": [
        {
          "internalType": "bool",
          "name": "",
          "type": "bool"
        }
      ],
      "stateMutability": "nonpayable",
      "type": "function"
    },
    {
      "inputs": [
        {
          "internalType": "uint256",
          "name": "amount",
          "type": "uint256"
        }
      ],
      "name": "refoundable",
      "outputs": [
        {
          "internalType": "uint256",
          "name": "",
          "type": "uint256"
        }
      ],
      "stateMutability": "view",
      "type": "function"
    },
    {
      "inputs": [
        {
          "internalType": "address",
          "name": "to",
          "type": "address"
        },
        {
          "internalType": "uint256",
          "name": "amount",
          "type": "uint256"
        }
      ],
      "name": "transfer",
      "outputs": [
        {
          "internalType": "bool",
          "name": "",
          "type": "bool"
        }
      ],
      "stateMutability": "nonpayable",
      "type": "function"
    },
    {
      "inputs": [
        {
          "internalType": "address",
          "name": "from",
          "type": "address"
        },
        {
          "internalType": "address",
          "name": "to",
          "type": "address"
        },
        {
          "internalType": "uint256",
          "name": "amount",
          "type": "uint256"
        }
      ],
      "name": "transferFrom",
      "outputs": [
        {
          "internalType": "bool",
          "name": "",
          "type": "bool"
        }
      ],
      "stateMutability": "nonpayable",
      "type": "function"
    },
    {
      "inputs": [
        {
          "internalType": "address",
          "name": "operator",
          "type": "address"
        },
        {
          "internalType": "address",
          "name": "from",
          "type": "address"
        },
        {
          "internalType": "address",
          "name": "to",
          "type": "address"
        },
        {
          "internalType": "uint256",
          "name": "value",
          "type": "uint256"
        }
      ],
      "name": "canTransfer",
      "outputs": [
        {
          "internalType": "bytes1",
          "name": "",
          "type": "bytes1"
        }
      ],
      "stateMutability": "view",
      "type": "function"
    },
    {
      "inputs": [
        {
          "internalType": "address",
          "name": "from",
          "type": "address"
        },
        {
          "internalType": "address",
          "name": "to",
          "type": "address"
        },
        {
          "internalType": "uint256",
          "name": "amount",
          "type": "uint256"
        }
      ],
      "name": "forceTransfer",
      "outputs": [
        {
          "internalType": "bool",
          "name": "",
          "type": "bool"
        }
      ],
      "stateMutability": "nonpayable",
      "type": "function"
    },
    {
      "inputs": [
        {
          "internalType": "address",
          "name": "userAddress",
          "type": "address"
        }
      ],
      "name": "isFrozen",
      "outputs": [
        {
          "internalType": "bool",
          "name": "",
          "type": "bool"
        }
      ],
      "stateMutability": "view",
      "type": "function"
    },
    {
      "inputs": [
        {
          "internalType": "address",
          "name": "userAddress",
          "type": "address"
        }
      ],
      "name": "getFrozenTokens",
      "outputs": [
        {
          "internalType": "uint256",
          "name": "",
          "type": "uint256"
        }
      ],
      "stateMutability": "view",
      "type": "function"
    },
    {
      "inputs": [
        {
          "internalType": "address",
          "name": "userAddress",
          "type": "address"
        },
        {
          "internalType": "bool",
          "name": "freeze",
          "type": "bool"
        }
      ],
      "name": "setAddressFrozen",
      "outputs": [],
      "stateMutability": "nonpayable",
      "type": "function"
    },
    {
      "inputs": [
        {
          "internalType": "address[]",
          "name": "userAddresses",
          "type": "address[]"
        },
        {
          "internalType": "bool[]",
          "name": "freeze",
          "type": "bool[]"
        }
      ],
      "name": "batchSetAddressFrozen",
      "outputs": [],
      "stateMutability": "nonpayable",
      "type": "function"
    },
    {
      "inputs": [
        {
          "internalType": "address",
          "name": "userAddress",
          "type": "address"
        },
        {
          "internalType": "uint256",
          "name": "amount",
          "type": "uint256"
        }
      ],
      "name": "freezePartialTokens",
      "outputs": [],
      "stateMutability": "nonpayable",
      "type": "function"
    },
    {
      "inputs": [
        {
          "internalType": "address[]",
          "name": "userAddresses",
          "type": "address[]"
        },
        {
          "internalType": "uint256[]",
          "name": "amounts",
          "type": "uint256[]"
        }
      ],
      "name": "batchFreezePartialTokens",
      "outputs": [],
      "stateMutability": "nonpayable",
      "type": "function"
    },
    {
      "inputs": [
        {
          "internalType": "address",
          "name": "userAddress",
          "type": "address"
        },
        {
          "internalType": "uint256",
          "name": "amount",
          "type": "uint256"
        }
      ],
      "name": "unfreezePartialTokens",
      "outputs": [],
      "stateMutability": "nonpayable",
      "type": "function"
    },
    {
      "inputs": [
        {
          "internalType": "address[]",
          "name": "userAddresses",
          "type": "address[]"
        },
        {
          "internalType": "uint256[]",
          "name": "amounts",
          "type": "uint256[]"
        }
      ],
      "name": "batchUnfreezePartialTokens",
      "outputs": [],
      "stateMutability": "nonpayable",
      "type": "function"
    },
    {
      "inputs": [
        {
          "internalType": "uint256",
          "name": "startTime",
          "type": "uint256"
        },
        {
          "internalType": "uint256",
          "name": "endTime",
          "type": "uint256"
        },
        {
          "internalType": "uint256",
          "name": "amountFreezed",
          "type": "uint256"
        },
        {
          "internalType": "address",
          "name": "userAddress",
          "type": "address"
        }
      ],
      "name": "setFreezedTokensPeriod",
      "outputs": [],
      "stateMutability": "nonpayable",
      "type": "function"
    },
    {
      "inputs": [],
      "name": "myFreezedTokensPeriod",
      "outputs": [
        {
          "components": [
            {
              "internalType": "uint256",
              "name": "startTime",
              "type": "uint256"
            },
            {
              "internalType": "uint256",
              "name": "endTime",
              "type": "uint256"
            },
            {
              "internalType": "uint256",
              "name": "amountFreezed",
              "type": "uint256"
            }
          ],
          "internalType": "struct TokenLibrary.FreezePeriod",
          "name": "",
          "type": "tuple"
        }
      ],
      "stateMutability": "view",
      "type": "function"
    },
    {
      "inputs": [
        {
          "internalType": "address",
          "name": "userAddress",
          "type": "address"
        }
      ],
      "name": "getFreezedTokensPeriod",
      "outputs": [
        {
          "components": [
            {
              "internalType": "uint256",
              "name": "startTime",
              "type": "uint256"
            },
            {
              "internalType": "uint256",
              "name": "endTime",
              "type": "uint256"
            },
            {
              "internalType": "uint256",
              "name": "amountFreezed",
              "type": "uint256"
            }
          ],
          "internalType": "struct TokenLibrary.FreezePeriod",
          "name": "",
          "type": "tuple"
        }
      ],
      "stateMutability": "view",
      "type": "function"
    },
    {
      "inputs": [],
      "name": "unlockableTokensPeriod",
      "outputs": [
        {
          "internalType": "uint256",
          "name": "",
          "type": "uint256"
        }
      ],
      "stateMutability": "view",
      "type": "function"
    },
    {
      "inputs": [],
      "name": "redeemFreezedTokens",
      "outputs": [
        {
          "internalType": "bool",
          "name": "",
          "type": "bool"
        }
      ],
      "stateMutability": "nonpayable",
      "type": "function"
    },
    {
      "inputs": [
        {
          "internalType": "uint256",
          "name": "amount",
          "type": "uint256"
        },
        {
          "internalType": "address",
          "name": "receiver",
          "type": "address"
        }
      ],
      "name": "withdraw",
      "outputs": [],
      "stateMutability": "nonpayable",
      "type": "function"
    },
    {
      "inputs": [
        {
          "internalType": "uint256",
          "name": "amount",
          "type": "uint256"
        }
      ],
      "name": "withdrawable",
      "outputs": [
        {
          "internalType": "uint256",
          "name": "weiWithdrawable",
          "type": "uint256"
        }
      ],
      "stateMutability": "view",
      "type": "function"
    }
  ],
  "bytecode": "0x60a06040523480156200001157600080fd5b50604051620035b7380380620035b78339810160408190526200003491620000b0565b80620000403362000060565b608052600580546001600160a01b031916331790554260045550620000ca565b600080546001600160a01b038381166001600160a01b0319831681178455604051919092169283917f8be0079c531659141344cd1fd0a4f28419497f9722a3daafe3b4186f6b6457e09190a35050565b600060208284031215620000c357600080fd5b5051919050565b6080516134d1620000e6600039600061160b01526134d16000f3fe60806040526004361061020e5760003560e01c806385269dcb11610118578063afde442a116100a0578063c7b0d8b71161006f578063c7b0d8b71461065b578063e583983614610670578063f11988e014610690578063f2fde38b146106b0578063fc7e5fa8146106d057600080fd5b8063afde442a146105f3578063b3bb8cd414610613578063c69c09cf14610626578063c7464bf11461064657600080fd5b806397a6278e116100e757806397a6278e1461055e5780639d200d1f1461057e5780639dc29fac14610593578063a9059cbb146105b3578063afd8b1d1146105d357600080fd5b806385269dcb146104c5578063881bd973146104e55780638da5cb5b146105055780639688738b1461053757600080fd5b806340c10f191161019b57806369a7ddf71161016a57806369a7ddf7146103f55780636d62a4fe146104155780636df686301461044e578063715018a61461049057806384e79842146104a557600080fd5b806340c10f191461036e5780634710362d1461038157806354fd4d50146103a1578063586abfbd146103d557600080fd5b80631fe56f7d116101e25780631fe56f7d146102be5780631ffbb064146102de57806323b872dd1461030e57806333bebb771461032e57806338d65d111461034e57600080fd5b8062f714ce14610213578063125c4a3314610235578063158b1a57146102555780631a7af3791461029e575b600080fd5b34801561021f57600080fd5b5061023361022e366004612f6d565b6106f0565b005b34801561024157600080fd5b50610233610250366004612f99565b61088e565b34801561026157600080fd5b5061028b610270366004612fc3565b6001600160a01b03166000908152600e602052604090205490565b6040519081526020015b60405180910390f35b3480156102aa57600080fd5b506102336102b936600461302a565b610b00565b3480156102ca57600080fd5b506102336102d9366004612f99565b610b75565b3480156102ea57600080fd5b506102fe6102f9366004612fc3565b610d2f565b6040519015158152602001610295565b34801561031a57600080fd5b506102fe610329366004613096565b610d42565b34801561033a57600080fd5b506102fe610349366004613096565b610e2b565b34801561035a57600080fd5b50610233610369366004612fc3565b611382565b6102fe61037c366004612f99565b6113cc565b34801561038d57600080fd5b5061023361039c36600461302a565b611773565b3480156103ad57600080fd5b506040805180820182526005815264302e302e3160d81b6020820152905161029591906130d2565b3480156103e157600080fd5b5061028b6103f0366004613127565b6117d8565b34801561040157600080fd5b506102fe610410366004612fc3565b6118b7565b34801561042157600080fd5b50610435610430366004613140565b6118c4565b6040516001600160f81b03199091168152602001610295565b34801561045a57600080fd5b5061046e610469366004612fc3565b611c42565b6040805182518152602080840151908201529181015190820152606001610295565b34801561049c57600080fd5b50610233611cd4565b3480156104b157600080fd5b506102336104c0366004612fc3565b611ce8565b3480156104d157600080fd5b506102336104e036600461318b565b611d32565b3480156104f157600080fd5b50610233610500366004612fc3565b611fd1565b34801561051157600080fd5b506005546001600160a01b03165b6040516001600160a01b039091168152602001610295565b34801561054357600080fd5b5060105461051f90600160201b90046001600160a01b031681565b34801561056a57600080fd5b50610233610579366004612fc3565b612006565b34801561058a57600080fd5b5061028b612050565b34801561059f57600080fd5b506102fe6105ae366004612f99565b612177565b3480156105bf57600080fd5b506102fe6105ce366004612f99565b612607565b3480156105df57600080fd5b506102336105ee366004612fc3565b6126fa565b3480156105ff57600080fd5b5061028b61060e366004612fc3565b612744565b34801561061f57600080fd5b504261028b565b34801561063257600080fd5b506102336106413660046131db565b612823565b34801561065257600080fd5b5061046e61296e565b34801561066757600080fd5b506102fe6129cc565b34801561067c57600080fd5b506102fe61068b366004612fc3565b612a50565b34801561069c57600080fd5b5061028b6106ab366004613127565b612ab2565b3480156106bc57600080fd5b506102336106cb366004612fc3565b612c43565b3480156106dc57600080fd5b506102336106eb36600461302a565b612ca7565b6106f8612d0c565b61070182612ab2565b506000601060049054906101000a90046001600160a01b03166001600160a01b03166345e2984a6040518163ffffffff1660e01b815260040161016060405180830381865afa158015610758573d6000803e3d6000fd5b505050506040513d601f19601f8201168201806040525081019061077c9190613255565b90508060e001516000146107c5576107ae836107a88360e0015162015180612d6690919063ffffffff16565b90612d66565b600460008282546107bf919061332b565b90915550505b601054604051627b8a6760e11b8152600481018590526001600160a01b038481166024830152600092600160201b9004169062f714ce906044016020604051808303816000875af115801561081e573d6000803e3d6000fd5b505050506040513d601f19601f820116820180604052508101906108429190613343565b9050806108885760405162461bcd60e51b815260206004820152600f60248201526e15da5d1a191c985dc819985a5b1959608a1b60448201526064015b60405180910390fd5b50505050565b61089733610d2f565b1580156108af57506005546001600160a01b03163314155b156108db57335b6040516352f49c9560e01b81526001600160a01b03909116600482015260240161087f565b601054600160201b90046001600160a01b031661090a5760405162461bcd60e51b815260040161087f90613360565b601060049054906101000a90046001600160a01b03166001600160a01b03166345e2984a6040518163ffffffff1660e01b815260040161016060405180830381865afa15801561095e573d6000803e3d6000fd5b505050506040513d601f19601f820116820180604052508101906109829190613255565b6020015115156001146109a75760405162461bcd60e51b815260040161087f90613397565b6010546040516370a0823160e01b81526001600160a01b038481166004830152600092600160201b900416906370a0823190602401602060405180830381865afa1580156109f9573d6000803e3d6000fd5b505050506040513d601f19601f82011682018060405250810190610a1d91906133dc565b6001600160a01b0384166000908152600e6020526040902054909150610a4490839061332b565b811015610a935760405162461bcd60e51b815260206004820181905260248201527f416d6f756e74206578636565647320617661696c61626c652062616c616e6365604482015260640161087f565b6001600160a01b0383166000908152600e6020526040902054610ab790839061332b565b6001600160a01b0384166000818152600e602052604080822093909355915184927fa065e63c631c86f1b9f66a4a2f63f2093bf1c2168d23290259dbd969e0222a4591a3505050565b60005b83811015610b6e57610b5c858583818110610b2057610b206133f5565b9050602002016020810190610b359190612fc3565b848484818110610b4757610b476133f5565b9050602002016020810190610641919061340b565b80610b6681613428565b915050610b03565b5050505050565b610b7e33610d2f565b158015610b9657506005546001600160a01b03163314155b15610ba157336108b6565b601060049054906101000a90046001600160a01b03166001600160a01b03166345e2984a6040518163ffffffff1660e01b815260040161016060405180830381865afa158015610bf5573d6000803e3d6000fd5b505050506040513d601f19601f82011682018060405250810190610c199190613255565b602001511515600114610c3e5760405162461bcd60e51b815260040161087f90613397565b6001600160a01b0382166000908152600e6020526040902054811115610cc35760405162461bcd60e51b815260206004820152603460248201527f416d6f756e742073686f756c64206265206c657373207468616e206f7220657160448201527375616c20746f2066726f7a656e20746f6b656e7360601b606482015260840161087f565b6001600160a01b0382166000908152600e6020526040902054610ce7908290613443565b6001600160a01b0383166000818152600e602052604080822093909355915183927f9bed35cb62ad0dba04f9d5bfee4b5bc91443e77da8a65c4c84834c51bb08b0d691a35050565b6000610d3c600183612d79565b92915050565b601054600090600160201b90046001600160a01b0316610d745760405162461bcd60e51b815260040161087f90613360565b605160f81b610d85338686866118c4565b6001600160f81b03191614610d9957600080fd5b6010546040516323b872dd60e01b81526001600160a01b038681166004830152858116602483015260448201859052600160201b909204909116906323b872dd906064016020604051808303816000875af1158015610dfc573d6000803e3d6000fd5b505050506040513d601f19601f82011682018060405250810190610e209190613343565b506001949350505050565b6000610e3633610d2f565b158015610e4e57506005546001600160a01b03163314155b15610e5957336108b6565b601054600160201b90046001600160a01b0316610e885760405162461bcd60e51b815260040161087f90613360565b601060049054906101000a90046001600160a01b03166001600160a01b03166345e2984a6040518163ffffffff1660e01b815260040161016060405180830381865afa158015610edc573d6000803e3d6000fd5b505050506040513d601f19601f82011682018060405250810190610f009190613255565b608001511515600114610f6e5760405162461bcd60e51b815260206004820152603060248201527f666f7263655472616e73666572206973206e6f7420617574686f72697a65642060448201526f1bdb881d1a1a5cc818dbdb9d1c9858dd60821b606482015260840161087f565b6000610f7985612744565b9050808311156112ef576001600160a01b038581166000818152600e60205260408082205460105491516370a0823160e01b8152600481019490945291939192600160201b909104909116906370a0823190602401602060405180830381865afa158015610feb573d6000803e3d6000fd5b505050506040513d601f19601f8201168201806040525081019061100f91906133dc565b6110199190613443565b6110239085613443565b6001600160a01b038781166000818152600e6020526040908190205460105491516370a0823160e01b81526004810193909352939450600160201b9004909116906370a0823190602401602060405180830381865afa15801561108a573d6000803e3d6000fd5b505050506040513d601f19601f820116820180604052508101906110ae91906133dc565b6110b89190613443565b841115611128576001600160a01b0386166000908152600e60205260409020546110e3908290613443565b6001600160a01b0387166000818152600e602052604080822093909355915183927f9bed35cb62ad0dba04f9d5bfee4b5bc91443e77da8a65c4c84834c51bb08b0d691a35b6001600160a01b038681166000818152600c6020526040908190206002015460105491516370a0823160e01b8152600481019390935292600160201b90910416906370a0823190602401602060405180830381865afa15801561118f573d6000803e3d6000fd5b505050506040513d601f19601f820116820180604052508101906111b391906133dc565b6111bd9190613443565b6111c78286613443565b11156112ed576001600160a01b038681166000818152600c60205260408082206002015460105491516370a0823160e01b8152600481019490945291939192600160201b909104909116906370a0823190602401602060405180830381865afa158015611238573d6000803e3d6000fd5b505050506040513d601f19601f8201168201806040525081019061125c91906133dc565b6112669190613443565b6112708387613443565b61127a9190613443565b6001600160a01b0388166000908152600c60205260409020600201549091506112a4908290613443565b6001600160a01b0388166000818152600c602052604080822060020193909355915184927f86fc01e32674e4237a61b84eece63ddaf61eb7a3034e3cc7f8ca90558431f68e91a3505b505b6010546040516323b872dd60e01b81526001600160a01b038781166004830152868116602483015260448201869052600160201b909204909116906323b872dd906064016020604051808303816000875af1158015611352573d6000803e3d6000fd5b505050506040513d601f19601f820116820180604052508101906113769190613343565b50600195945050505050565b61138a612d0c565b611395600282612dfc565b6040516001600160a01b038216907fe933431644458f1217f9e93d3e000e03c9bbbe55761046d0985c2e4d157bcbaa90600090a250565b6000816000601060049054906101000a90046001600160a01b03166001600160a01b03166345e2984a6040518163ffffffff1660e01b815260040161016060405180830381865afa158015611425573d6000803e3d6000fd5b505050506040513d601f19601f820116820180604052508101906114499190613255565b90508061010001516114584290565b10156114a65760405162461bcd60e51b815260206004820152601760248201527f46756e6472616973696e67206e6f742073746172746564000000000000000000604482015260640161087f565b610120810151421115806114bd5750610120810151155b6114fd5760405162461bcd60e51b8152602060048201526011602482015270119d5b991c985a5cda5b99c8195b991959607a1b604482015260640161087f565b80610140015182601060049054906101000a90046001600160a01b03166001600160a01b03166318160ddd6040518163ffffffff1660e01b8152600401602060405180830381865afa158015611557573d6000803e3d6000fd5b505050506040513d601f19601f8201168201806040525081019061157b91906133dc565b611585919061332b565b1115806115955750610140810151155b6115d65760405162461bcd60e51b815260206004820152601260248201527113585e081cdd5c1c1b1e481c995858da195960721b604482015260640161087f565b601054600160201b90046001600160a01b03166116055760405162461bcd60e51b815260040161087f90613360565b61162f847f000000000000000000000000000000000000000000000000000000000000000061345a565b34101561166f5760405162461bcd60e51b815260206004820152600e60248201526d09cdee840cadcdeeaced040cae8d60931b604482015260640161087f565b6010546040516340c10f1960e01b81526001600160a01b03878116600483015260248201879052600160201b909204909116906340c10f19906044016020604051808303816000875af11580156116ca573d6000803e3d6000fd5b505050506040513d601f19601f820116820180604052508101906116ee9190613343565b50601054600160201b90046001600160a01b03166341bb26d334336040516001600160e01b031960e085901b1681526001600160a01b03909116600482015260240160206040518083038185885af115801561174e573d6000803e3d6000fd5b50505050506040513d601f19601f820116820180604052508101906113769190613343565b60005b83811015610b6e576117c6858583818110611793576117936133f5565b90506020020160208101906117a89190612fc3565b8484848181106117ba576117ba6133f5565b90506020020135610b75565b806117d081613428565b915050611776565b601054600090600160201b90046001600160a01b031661180a5760405162461bcd60e51b815260040161087f90613360565b610d3c826107a861188d6064601060049054906101000a90046001600160a01b03166001600160a01b03166318160ddd6040518163ffffffff1660e01b8152600401602060405180830381865afa158015611869573d6000803e3d6000fd5b505050506040513d601f19601f820116820180604052508101906107a891906133dc565b6010546118ac90600160201b90046001600160a01b0316316064612d66565b90612e7e565b919050565b6000610d3c600283612d79565b601054600090600160201b90046001600160a01b03166118f65760405162461bcd60e51b815260040161087f90613360565b6010546040516370a0823160e01b81526001600160a01b0386811660048301528492600160201b900416906370a0823190602401602060405180830381865afa158015611947573d6000803e3d6000fd5b505050506040513d601f19601f8201168201806040525081019061196b91906133dc565b101561197c5750602960f91b611c3a565b601060049054906101000a90046001600160a01b03166001600160a01b031663b187bd266040518163ffffffff1660e01b8152600401602060405180830381865afa1580156119cf573d6000803e3d6000fd5b505050506040513d601f19601f820116820180604052508101906119f391906133dc565b421015611a055750601560fa1b611c3a565b6001600160a01b038481166000818152600c6020908152604080832060020154600e909252918290205460105492516370a0823160e01b81526004810194909452869491939092600160201b9004909116906370a0823190602401602060405180830381865afa158015611a7d573d6000803e3d6000fd5b505050506040513d601f19601f82011682018060405250810190611aa191906133dc565b611aab9190613443565b611ab59190613443565b1015611ac65750605560f81b611c3a565b6001600160a01b038416611adf5750602b60f91b611c3a565b6001600160a01b038316611af85750605760f81b611c3a565b611b0185610d2f565b158015611b1c57506005546001600160a01b03868116911614155b8015611b3a5750846001600160a01b0316846001600160a01b031614155b15611b4a5750600b60fb1b611c3a565b6001600160a01b0384166000908152600f602052604090205460ff1615611b765750602d60f91b611c3a565b6001600160a01b0383166000908152600f602052604090205460ff1615611ba25750605b60f81b611c3a565b601060049054906101000a90046001600160a01b03166001600160a01b03166345e2984a6040518163ffffffff1660e01b815260040161016060405180830381865afa158015611bf6573d6000803e3d6000fd5b505050506040513d601f19601f82011682018060405250810190611c1a9190613255565b60c00151151560011415611c335750601760fa1b611c3a565b50605160f81b5b949350505050565b611c6660405180606001604052806000815260200160008152602001600081525090565b611c6f33610d2f565b158015611c8757506005546001600160a01b03163314155b15611c9257336108b6565b506001600160a01b03166000908152600c6020908152604091829020825160608101845281548152600182015492810192909252600201549181019190915290565b611cdc612d0c565b611ce66000612e8a565b565b611cf0612d0c565b611cfb600182612eda565b6040516001600160a01b038216907ff68e73cec97f2d70aa641fb26e87a4383686e2efacb648f2165aeb02ac562ec590600090a250565b611d3b33610d2f565b158015611d5357506005546001600160a01b03163314155b15611d5e57336108b6565b601054600160201b90046001600160a01b0316611d8d5760405162461bcd60e51b815260040161087f90613360565b601060049054906101000a90046001600160a01b03166001600160a01b03166345e2984a6040518163ffffffff1660e01b815260040161016060405180830381865afa158015611de1573d6000803e3d6000fd5b505050506040513d601f19601f82011682018060405250810190611e059190613255565b604001511515600114611e6f5760405162461bcd60e51b815260206004820152602c60248201527f467265657a65207061727469616c20706572696f64206164647265737320697360448201526b081b9bdd08185b1b1bddd95960a21b606482015260840161087f565b6010546040516370a0823160e01b81526001600160a01b038381166004830152600160201b909204909116906370a0823190602401602060405180830381865afa158015611ec1573d6000803e3d6000fd5b505050506040513d601f19601f82011682018060405250810190611ee591906133dc565b821115611f405760405162461bcd60e51b8152602060048201526024808201527f416d6f756e74206973207570706572207468616e2062616c616e6365206f66206044820152633ab9b2b960e11b606482015260840161087f565b6040805160608101825285815260208082018681528284018681526001600160a01b0386166000818152600c909452949092209251835551600183015551600290910155839085907fe73f01da0d1ab22feed9447b4801c099a6ebe22122e907da28300e12381a67068533604080519283526001600160a01b0390911660208301520160405180910390a450505050565b611fd9612d0c565b601080546001600160a01b03909216600160201b02640100000000600160c01b0319909216919091179055565b61200e612d0c565b612019600182612dfc565b6040516001600160a01b038216907fed9c8ad8d5a0a66898ea49d2956929c93ae2e8bd50281b2ed897c5d1a6737e0b90600090a250565b336000908152600c60209081526040808320815160608101835281548152600182015493810193909352600201549082018190526120c75760405162461bcd60e51b81526020600482015260146024820152734e6f20746f6b656e20746f20756e667265657a6560601b604482015260640161087f565b8051601e906120d69042613443565b116121235760405162461bcd60e51b815260206004820152601c60248201527f54696d6520666f722072656465656d20697320746f6f2073686f727400000000604482015260640161087f565b8051602082015160009161213691613443565b82519091506000906121489042613443565b905061216f60646118ac85604001516107a8866118ac606488612d6690919063ffffffff16565b935050505090565b601054600090600160201b90046001600160a01b03166121a95760405162461bcd60e51b815260040161087f90613360565b60006121b484612744565b90508083111561252a576001600160a01b038481166000818152600e60205260408082205460105491516370a0823160e01b8152600481019490945291939192600160201b909104909116906370a0823190602401602060405180830381865afa158015612226573d6000803e3d6000fd5b505050506040513d601f19601f8201168201806040525081019061224a91906133dc565b6122549190613443565b61225e9085613443565b6001600160a01b038681166000818152600e6020526040908190205460105491516370a0823160e01b81526004810193909352939450600160201b9004909116906370a0823190602401602060405180830381865afa1580156122c5573d6000803e3d6000fd5b505050506040513d601f19601f820116820180604052508101906122e991906133dc565b6122f39190613443565b841115612363576001600160a01b0385166000908152600e602052604090205461231e908290613443565b6001600160a01b0386166000818152600e602052604080822093909355915183927f9bed35cb62ad0dba04f9d5bfee4b5bc91443e77da8a65c4c84834c51bb08b0d691a35b6001600160a01b038581166000818152600c6020526040908190206002015460105491516370a0823160e01b8152600481019390935292600160201b90910416906370a0823190602401602060405180830381865afa1580156123ca573d6000803e3d6000fd5b505050506040513d601f19601f820116820180604052508101906123ee91906133dc565b6123f89190613443565b6124028286613443565b1115612528576001600160a01b038581166000818152600c60205260408082206002015460105491516370a0823160e01b8152600481019490945291939192600160201b909104909116906370a0823190602401602060405180830381865afa158015612473573d6000803e3d6000fd5b505050506040513d601f19601f8201168201806040525081019061249791906133dc565b6124a19190613443565b6124ab8387613443565b6124b59190613443565b6001600160a01b0387166000908152600c60205260409020600201549091506124df908290613443565b6001600160a01b0387166000818152600c602052604080822060020193909355915184927f86fc01e32674e4237a61b84eece63ddaf61eb7a3034e3cc7f8ca90558431f68e91a3505b505b6000612535846117d8565b601054604051637a94c56560e11b81526001600160a01b0388811660048301526024820188905260448201849052929350600092600160201b9092049091169063f5298aca906064016020604051808303816000875af115801561259d573d6000803e3d6000fd5b505050506040513d601f19601f820116820180604052508101906125c19190613343565b9050806113765760405162461bcd60e51b81526020600482015260146024820152732330b4b632b2103a379039b2b7321022ba3432b960611b604482015260640161087f565b601054600090600160201b90046001600160a01b03166126395760405162461bcd60e51b815260040161087f90613360565b605160f81b61264a333386866118c4565b6001600160f81b0319161461265e57600080fd5b601054600160201b90046001600160a01b03166323b872dd336040516001600160e01b031960e084901b1681526001600160a01b0391821660048201529086166024820152604481018590526064016020604051808303816000875af11580156126cc573d6000803e3d6000fd5b505050506040513d601f19601f820116820180604052508101906126f09190613343565b5060019392505050565b612702612d0c565b61270d600282612eda565b6040516001600160a01b038216907fb7724d890d2888af5a3fc456edb667e2c82c4441449ebcac301c618759e4f86d90600090a250565b601054600090600160201b90046001600160a01b03166127765760405162461bcd60e51b815260040161087f90613360565b6001600160a01b038281166000818152600c6020908152604080832060020154600e909252918290205460105492516370a0823160e01b8152600481019490945290939092600160201b90920416906370a0823190602401602060405180830381865afa1580156127eb573d6000803e3d6000fd5b505050506040513d601f19601f8201168201806040525081019061280f91906133dc565b6128199190613443565b610d3c9190613443565b61282c33610d2f565b15801561284457506005546001600160a01b03163314155b1561284f57336108b6565b601060049054906101000a90046001600160a01b03166001600160a01b03166345e2984a6040518163ffffffff1660e01b815260040161016060405180830381865afa1580156128a3573d6000803e3d6000fd5b505050506040513d601f19601f820116820180604052508101906128c79190613255565b5115156001146129195760405162461bcd60e51b815260206004820152601d60248201527f467265657a652061646472657373206973206e6f7420616c6c6f776564000000604482015260640161087f565b6001600160a01b0382166000818152600f6020526040808220805460ff19168515159081179091559051339391927f7fa523c84ab8d7fc5b72f08b9e46dbbf10c39e119a075b3e317002d14bc9f43691a45050565b61299260405180606001604052806000815260200160008152602001600081525090565b50336000908152600c6020908152604091829020825160608101845281548152600182015492810192909252600201549181019190915290565b6000806129d7612050565b9050600081116129e957600091505090565b336000908152600c6020526040902042815560020154612a0a908290613443565b336000818152600c602052604080822060020193909355915183927f86fc01e32674e4237a61b84eece63ddaf61eb7a3034e3cc7f8ca90558431f68e91a3600191505090565b6000612a5b336118b7565b158015612a7357506005546001600160a01b03163314155b15612a93576040516325bfed0960e11b815233600482015260240161087f565b506001600160a01b03166000908152600f602052604090205460ff1690565b600080601060049054906101000a90046001600160a01b03166001600160a01b03166345e2984a6040518163ffffffff1660e01b815260040161016060405180830381865afa158015612b09573d6000803e3d6000fd5b505050506040513d601f19601f82011682018060405250810190612b2d9190613255565b90508060e00151600014612b6857612b65612b588260e0015162015180612d6690919063ffffffff16565b6004546118ac9042613443565b91505b8282101580612b79575060e0810151155b612bc55760405162461bcd60e51b815260206004820152601c60248201527f4e6f7420656e6f7567682066756e647320746f20776974686472617700000000604482015260640161087f565b42612be4846107a88460e0015162015180612d6690919063ffffffff16565b600454612bf1919061332b565b111580612c00575060e0810151155b612c3d5760405162461bcd60e51b815260206004820152600e60248201526d151a5b59481a5b98dbdc9c9958dd60921b604482015260640161087f565b50919050565b612c4b612d0c565b6005546040516001600160a01b038084169216907f5c486528ec3e3f0ea91181cff8116f02bfa350e03b8b6f12e00765adbb5af85c90600090a3600580546001600160a01b0319166001600160a01b0392909216919091179055565b60005b83811015610b6e57612cfa858583818110612cc757612cc76133f5565b9050602002016020810190612cdc9190612fc3565b848484818110612cee57612cee6133f5565b9050602002013561088e565b80612d0481613428565b915050612caa565b6005546001600160a01b03163314611ce65760405162461bcd60e51b815260206004820181905260248201527f4f776e61626c653a2063616c6c6572206973206e6f7420746865206f776e6572604482015260640161087f565b6000612d72828461345a565b9392505050565b60006001600160a01b038216612ddc5760405162461bcd60e51b815260206004820152602260248201527f526f6c65733a206163636f756e7420697320746865207a65726f206164647265604482015261737360f01b606482015260840161087f565b506001600160a01b03166000908152602091909152604090205460ff1690565b612e068282612d79565b612e5c5760405162461bcd60e51b815260206004820152602160248201527f526f6c65733a206163636f756e7420646f6573206e6f74206861766520726f6c6044820152606560f81b606482015260840161087f565b6001600160a01b0316600090815260209190915260409020805460ff19169055565b6000612d728284613479565b600080546001600160a01b038381166001600160a01b0319831681178455604051919092169283917f8be0079c531659141344cd1fd0a4f28419497f9722a3daafe3b4186f6b6457e09190a35050565b612ee48282612d79565b15612f315760405162461bcd60e51b815260206004820152601f60248201527f526f6c65733a206163636f756e7420616c72656164792068617320726f6c6500604482015260640161087f565b6001600160a01b0316600090815260209190915260409020805460ff19166001179055565b80356001600160a01b03811681146118b257600080fd5b60008060408385031215612f8057600080fd5b82359150612f9060208401612f56565b90509250929050565b60008060408385031215612fac57600080fd5b612fb583612f56565b946020939093013593505050565b600060208284031215612fd557600080fd5b612d7282612f56565b60008083601f840112612ff057600080fd5b50813567ffffffffffffffff81111561300857600080fd5b6020830191508360208260051b850101111561302357600080fd5b9250929050565b6000806000806040858703121561304057600080fd5b843567ffffffffffffffff8082111561305857600080fd5b61306488838901612fde565b9096509450602087013591508082111561307d57600080fd5b5061308a87828801612fde565b95989497509550505050565b6000806000606084860312156130ab57600080fd5b6130b484612f56565b92506130c260208501612f56565b9150604084013590509250925092565b600060208083528351808285015260005b818110156130ff578581018301518582016040015282016130e3565b81811115613111576000604083870101525b50601f01601f1916929092016040019392505050565b60006020828403121561313957600080fd5b5035919050565b6000806000806080858703121561315657600080fd5b61315f85612f56565b935061316d60208601612f56565b925061317b60408601612f56565b9396929550929360600135925050565b600080600080608085870312156131a157600080fd5b8435935060208501359250604085013591506131bf60608601612f56565b905092959194509250565b80151581146131d857600080fd5b50565b600080604083850312156131ee57600080fd5b6131f783612f56565b91506020830135613207816131ca565b809150509250929050565b604051610160810167ffffffffffffffff8111828210171561324457634e487b7160e01b600052604160045260246000fd5b60405290565b80516118b2816131ca565b6000610160828403121561326857600080fd5b613270613212565b6132798361324a565b81526132876020840161324a565b60208201526132986040840161324a565b60408201526132a96060840161324a565b60608201526132ba6080840161324a565b60808201526132cb60a0840161324a565b60a08201526132dc60c0840161324a565b60c082015260e0838101519082015261010080840151908201526101208084015190820152610140928301519281019290925250919050565b634e487b7160e01b600052601160045260246000fd5b6000821982111561333e5761333e613315565b500190565b60006020828403121561335557600080fd5b8151612d72816131ca565b6020808252601b908201527f546f6b656e20636f6e7472616374206973206e6f742076616c69640000000000604082015260600190565b60208082526025908201527f467265657a65207061727469616c2061646472657373206973206e6f7420616c6040820152641b1bddd95960da1b606082015260800190565b6000602082840312156133ee57600080fd5b5051919050565b634e487b7160e01b600052603260045260246000fd5b60006020828403121561341d57600080fd5b8135612d72816131ca565b600060001982141561343c5761343c613315565b5060010190565b60008282101561345557613455613315565b500390565b600081600019048311821515161561347457613474613315565b500290565b60008261349657634e487b7160e01b600052601260045260246000fd5b50049056fea264697066735822122077440a32b75eb31409733d049a7e201eaf2f2a3ff59df96372c6730273c31ebf64736f6c634300080b0033",
  "immutableReferences": {
    "1988": [
      {
        "length": 32,
        "start": 5643
      }
    ]
  },
  "source": "// SPDX-License-Identifier: MIT\n\npragma solidity ^0.8.0;\n\n\nimport \"../immutable/StorageToken.sol\";\nimport \"../library/TokenLibrary.sol\";\nimport \"../interfaces/ISecurityTokenImmutable.sol\";\nimport \"../interfaces/IProxySecurityToken.sol\";\nimport \"../roles/AgentRole.sol\";\nimport \"../roles/ReaderRole.sol\";\nimport \"@openzeppelin/contracts/access/Ownable.sol\";\nimport \"@openzeppelin/contracts/token/ERC20/ERC20.sol\";\nimport \"@openzeppelin/contracts/utils/math/SafeMath.sol\";\n\ncontract ProxySecurityToken is AgentRole, ReaderRole, StorageToken, IProxySecurityToken {\n    using SafeMath for uint;\n\n    ISecurityTokenImmutable public TokenContract;\n\n    /**\n     */\n    constructor(uint256 _pricePerToken) StorageToken(_pricePerToken) {\n        OWNER = _msgSender();\n        lastWithdraw = _now();\n    }\n\n    /**\n     * @notice set the contract address of security token immutable\n     * @param _securityTokenImmutableAddress {address} address of security token immutable contract\n     */\n    function setSecurityTokenImmutable(address _securityTokenImmutableAddress) external onlyOwner {\n        TokenContract = ISecurityTokenImmutable(_securityTokenImmutableAddress);\n    }\n\n    /// @dev Modifier to check if fundraising is open and max supply not reached.\n    modifier fundraisable(uint256 amount) {\n        TokenLibrary.Rules memory _rules = TokenContract.getRules();\n        require(_now() >= _rules.startFundraising, \"Fundraising not started\");\n        require(_now() <= _rules.endFundraising || _rules.endFundraising == 0, \"Fundraising ended\");\n        require(TokenContract.totalSupply() + amount <= _rules.maxSupply || _rules.maxSupply == 0, \"Max supply reached\");\n        _;\n    }\n\n    /// @dev Check if contract immutable is valid\n    modifier contractValid() {\n        require(address(TokenContract) != address(0), \"Token contract is not valid\");\n        _;\n    }\n\n    /**\n     * @notice Returns the version of the token contract\n     * @return TOKEN_VERSION {string} version of the smart contract\n     */\n    function version() external pure returns (string memory) {\n        return TOKEN_VERSION;\n    }\n\n    /**\n     * @notice Returns the address wallet of the smart contract owner.\n     * @return owner {address} wallet addres from owner\n     */\n    function owner() public view override(Ownable, IProxySecurityToken) returns (address) {\n        return OWNER;\n    }\n\n    /**\n     * @notice Transfer ownership of the smart contract\n     * @param account {address} address of the new owner\n     */\n    function transferOwnership(address account) public virtual override(Ownable, IProxySecurityToken) onlyOwner {\n        emit TransferOwnership(OWNER, account);\n        OWNER = account;\n    }\n\n    /**\n     * @notice Return not freezed tokens from an address wallet\n     * @param account {address} wallet address of account you want to get not freezed balance\n     * @return balance {uint256} balance of wallet address totaly open\n     */\n    function eligibleBalanceOf(address account) public view contractValid returns(uint256) {\n        return TokenContract.balanceOf(account) - frozenTokens[account] - (freezedPeriod[account].amountFreezed);\n    }\n\n    /**\n     * @notice Mint and send `amount` tokens to `to`\n     *\n     * Returns a boolean value indicating whether the operation succeeded.\n     *\n     * Emits a {Transfer} event.\n     * @param to {address} wallet to send the token\n     * @param amount {uint256} amount to mint\n     * @return result {boolean} success or failure\n     */\n    function mint(address to, uint256 amount) external payable fundraisable(amount) contractValid returns (bool) {\n        require(msg.value >= pricePerToken * amount, \"Not enough eth\");\n        TokenContract.mint(to, amount);\n        TokenContract.handlePayment{value: msg.value}(_msgSender());\n        return true;\n    }\n\n    /**\n     * @notice Remove `amount` tokens from `account`\n     *\n     * Returns a boolean value indicating whether the operation succeeded.\n     *\n     * Emits a {Transfer} event.\n     * @param account {address} wallet to burn the token\n     * @param amount {uint256} amount to burn\n     */\n    function burn(address account, uint256 amount)\n        external\n        contractValid\n        returns (bool)\n    {\n        uint256 freeBalance = eligibleBalanceOf(account);\n        if (amount > freeBalance) {\n            uint256 tokensToUnfreeze = amount - (TokenContract.balanceOf(account) - frozenTokens[account]);\n            if (amount > TokenContract.balanceOf(account) - frozenTokens[account]) {\n                frozenTokens[account] = frozenTokens[account] - (tokensToUnfreeze);\n                emit TokensUnfrozen(account, tokensToUnfreeze);\n            }\n            if (amount - tokensToUnfreeze > TokenContract.balanceOf(account) - (freezedPeriod[account].amountFreezed)) {\n                uint256 tokensToUnfreezePeriod =\n                amount - tokensToUnfreeze - (TokenContract.balanceOf(account) - freezedPeriod[account].amountFreezed);\n                freezedPeriod[account].amountFreezed = freezedPeriod[account].amountFreezed - (tokensToUnfreezePeriod);\n                emit TokensUnfrozenPeriod(account, tokensToUnfreeze);\n            }\n        }\n\n        uint256 _refoundable = refoundable(amount);\n\n        bool success = TokenContract.burn(account, amount, _refoundable);\n        require(success, \"Failed to send Ether\");\n\n        return true;\n    }\n\n    /**\n     * @notice Return amount of refoundable for amount of tokens burned\n     * @param amount {uint256} amout of tokens burn\n     * @return wei {uint256} amount of wei refoundable\n     */\n    function refoundable(uint256 amount) public view contractValid returns(uint256){\n        return (address(TokenContract).balance.mul(100).div(TokenContract.totalSupply().mul(100))).mul(amount);\n    }\n\n    /**\n     * @dev Transfer and send `amount` tokens from `_msgSender()` to `to`\n     *\n     * Returns a boolean value indicating whether the operation succeeded.\n     *\n     * Emits a {Transfer} event.\n     * @param to {address} wallet to transfer the token\n     * @param amount {uint256[]} amount to transfer\n     */\n    function transfer(address to, uint256 amount) external contractValid returns (bool) {\n        require(canTransfer(_msgSender(), _msgSender(), to, amount) == (hex\"51\"));\n        TokenContract.transferFrom(_msgSender(), to, amount);\n        return true;\n    }\n\n    /**\n     * @dev Transfer and send `amount` tokens from `from` to `to`\n     *\n     * Returns a boolean value indicating whether the operation succeeded.\n     *\n     * Emits a {Transfer} event.\n     * @param from {address} wallet from transfer the token\n     * @param to {address} wallet to transfer the token\n     * @param amount {uint256[]} amount to transfer\n     */\n    function transferFrom(address from, address to, uint256 amount) external contractValid returns (bool) {\n        require(canTransfer(_msgSender(), from, to, amount) == (hex\"51\"));\n        TokenContract.transferFrom(from, to, amount);\n        return true;\n    }\n\n    /**\n     * @notice Interface of transfer method, return hex code error message\n     * @param operator {address} operator of transaction (sender)\n     * @param from {address} the origin of the token transfer\n     * @param to {address} the recipient of the token transfer\n     * @param value {uint256} the number of tokens transferred\n     * @return hex {bytes1} code error message\n     */\n    function canTransfer(\n        address operator,\n        address from,\n        address to,\n        uint256 value\n    ) public view contractValid returns (bytes1) {\n        if (TokenContract.balanceOf(from) < value) return(hex\"52\");\n        if(_now() < TokenContract.isPaused()) return(hex\"54\");\n        if(TokenContract.balanceOf(from) - frozenTokens[from] - (freezedPeriod[from].amountFreezed) < value) return(hex\"55\");\n        if(from == address(0)) return(hex\"56\");\n        if(to == address(0)) return(hex\"57\");\n        if(!isAgent(operator) && OWNER != operator && from != operator ) return(hex\"58\");\n        if(frozen[from]) return(hex\"5a\");\n        if(frozen[to]) return(hex\"5b\");\n        if(TokenContract.getRules().soulBoundSecurityToken == true) return(hex\"5c\");\n        return (hex\"51\");\n    }\n\n    /**\n     *  @notice Force an address wallet to transfer by agent\n     *  @param from {address} from wallet to transfer\n     *  @param to {address} to wallet to transfer\n     *  @param amount {uint256} amounts of tokens to be transfered\n     */\n    function forceTransfer(\n        address from,\n        address to,\n        uint256 amount\n    ) external onlyAgent contractValid returns (bool) {\n        require(TokenContract.getRules().forcableTransfer == true, \"forceTransfer is not authorized on this contract\");\n        uint256 freeBalance = eligibleBalanceOf(from);\n\n        if (amount > freeBalance) {\n            uint256 tokensToUnfreeze = amount - (TokenContract.balanceOf(from) - frozenTokens[from]);\n            if (amount > TokenContract.balanceOf(from) - frozenTokens[from]) {\n                frozenTokens[from] = frozenTokens[from] - (tokensToUnfreeze);\n                emit TokensUnfrozen(from, tokensToUnfreeze);\n            }\n            if (amount - tokensToUnfreeze > TokenContract.balanceOf(from) - (freezedPeriod[from].amountFreezed)) {\n                uint256 tokensToUnfreezePeriod = \n                amount - tokensToUnfreeze - (TokenContract.balanceOf(from) - freezedPeriod[from].amountFreezed);\n                freezedPeriod[from].amountFreezed = freezedPeriod[from].amountFreezed - (tokensToUnfreezePeriod);\n                emit TokensUnfrozenPeriod(from, tokensToUnfreeze);\n            }\n        }\n\n        TokenContract.transferFrom(from, to, amount);\n        return true;\n    }\n\n    /**\n     *  @notice Return freezed or not wallet address tokens\n     *  @param userAddress {address} of the user\n     *  @return frozen {bool} represents freezed wallet address\n     */\n    function isFrozen(address userAddress) external view onlyReader returns (bool) {\n        return frozen[userAddress];\n    }\n\n    /**\n     *  @notice Return freezed tokens amount of wallet address\n     *  @param userAddress {address} of the user\n     *  @return frozenTokens {uint256} amount of freezed tokens\n     */\n    function getFrozenTokens(address userAddress) external view returns (uint256) {\n        return frozenTokens[userAddress];\n    }\n\n    /**\n     *  @notice Freeze totality tokens of single wallet address\n     *  @param userAddress {address} of the user\n     *  @param freeze {boolean} representing freezing\n     */\n    function setAddressFrozen(address userAddress, bool freeze) public onlyAgent {\n        require(TokenContract.getRules().freezableAddress == true, \"Freeze address is not allowed\");\n        frozen[userAddress] = freeze;\n        emit AddressFrozen(userAddress, freeze, _msgSender());\n    }\n\n    /**\n     *  @notice Freeze totality tokens of multiples wallet addresses\n     *  @param userAddresses {address[]} of user addresses\n     *  @param freeze {bool[]} representing freezing\n     */\n    function batchSetAddressFrozen(address[] calldata userAddresses, bool[] calldata freeze) external {\n        for (uint256 i = 0; i < userAddresses.length; i++) {\n            setAddressFrozen(userAddresses[i], freeze[i]);\n        }\n    }\n\n    /**\n     *  @notice Freeze patial tokens of single wallet\n     *  @param userAddress {address} of the user\n     *  @param amount {uint256} of token to be unfreezed\n     */\n    function freezePartialTokens(address userAddress, uint256 amount) public onlyAgent contractValid {\n        require(TokenContract.getRules().freezablePartial == true, \"Freeze partial address is not allowed\");\n        uint256 balance = TokenContract.balanceOf(userAddress);\n        require(balance >= frozenTokens[userAddress] + amount, \"Amount exceeds available balance\");\n        frozenTokens[userAddress] = frozenTokens[userAddress] + (amount);\n        emit TokensFrozen(userAddress, amount);\n    }\n\n    /**\n     *  @notice Freeze patial tokens of multiples wallets\n     *  @param userAddresses {address[]} of user addresses\n     *  @param amounts {uint256[]} of amounts of token to be unfreezed\n     */\n    function batchFreezePartialTokens(address[] calldata userAddresses, uint256[] calldata amounts) external {\n        for (uint256 i = 0; i < userAddresses.length; i++) {\n            freezePartialTokens(userAddresses[i], amounts[i]);\n        }\n    }\n\n    /**\n     *  @notice Unfreeze patial tokens of single wallet\n     *  @param userAddress {address} of the user\n     *  @param amount {uint256} of token to be unfreezed\n     */\n    function unfreezePartialTokens(address userAddress, uint256 amount) public onlyAgent {\n        require(TokenContract.getRules().freezablePartial == true, \"Freeze partial address is not allowed\");\n        require(frozenTokens[userAddress] >= amount, \"Amount should be less than or equal to frozen tokens\");\n        frozenTokens[userAddress] = frozenTokens[userAddress] - (amount);\n        emit TokensUnfrozen(userAddress, amount);\n    }\n\n    /**\n     *  @notice Unfreeze patial tokens of multiples wallets\n     *  @param userAddresses {address[]} of user addresses\n     *  @param amounts {uint256[]} of amounts of token to be unfreezed\n     */\n    function batchUnfreezePartialTokens(address[] calldata userAddresses, uint256[] calldata amounts) external {\n        for (uint256 i = 0; i < userAddresses.length; i++) {\n            unfreezePartialTokens(userAddresses[i], amounts[i]);\n        }\n    }\n\n    /**\n     * @notice Freeze token of one address wallet periodically\n     * @param startTime {uint256} Start time of freezing partial token\n     * @param endTime {uint256} End time of freezing partial token\n     * @param amountFreezed {uint256} Amount of frozen token\n     * @param userAddress {address} Address wallet of the user frozen token\n     */\n    function setFreezedTokensPeriod(\n        uint256 startTime,\n        uint256 endTime,\n        uint256 amountFreezed,\n        address userAddress\n    ) external onlyAgent contractValid {\n        require(TokenContract.getRules().freezablePartialTime == true, \"Freeze partial period address is not allowed\");\n        require(amountFreezed <= TokenContract.balanceOf(userAddress), \"Amount is upper than balance of user\");\n        freezedPeriod[userAddress] = TokenLibrary.FreezePeriod(\n            startTime,\n            endTime,\n            amountFreezed\n        );\n        emit TokensFrozenPeriod(userAddress, startTime, endTime, amountFreezed, _msgSender());\n    }\n\n    /**\n     * @notice Retrieve struct of freezed tokens in period of msg.sender\n     * @return freezedPeriod {TokenLibrary.FreezePeriod} struct of freezed tokens in period\n     */\n    function myFreezedTokensPeriod() external view returns (TokenLibrary.FreezePeriod memory) {\n        return freezedPeriod[_msgSender()];\n    }\n\n    /**\n     * @notice Retrieve struct of freezed tokens in period of one wallet address by agent\n     * @param userAddress {address} of the user freezed tokens\n     * @return freezedPeriod {TokenLibrary.FreezePeriod} struct of freezed tokens in period\n     */\n    function getFreezedTokensPeriod(address userAddress) external view onlyAgent returns (TokenLibrary.FreezePeriod memory) {\n        return freezedPeriod[userAddress];\n    }\n\n    /**\n     * @notice Get unlockable tokens freezed in period for msg.sender\n     * @return unlockable {uint256} of unlockable tokens freezed in period\n     */\n    function unlockableTokensPeriod() public view returns (uint256) {\n        TokenLibrary.FreezePeriod memory freezedPeriodTemp = freezedPeriod[_msgSender()];\n\n        require(freezedPeriodTemp.amountFreezed > 0, \"No token to unfreeze\");\n        require(_now() - freezedPeriodTemp.startTime > 30, \"Time for redeem is too short\");\n\n        uint256 diff = freezedPeriodTemp.endTime - freezedPeriodTemp.startTime;\n        uint256 timeBehind = _now() - freezedPeriodTemp.startTime;\n\n        return timeBehind.mul(100).div(diff).mul(freezedPeriodTemp.amountFreezed).div(100);\n    }\n\n    /**\n     * @notice Redeem unlockable freezed tokens periodically\n     * @return success {bool} success of redeeming tokens\n     */\n    function redeemFreezedTokens() external returns (bool) {\n        uint256 unlockable = unlockableTokensPeriod();\n        if(unlockable <= 0) return false;\n\n        freezedPeriod[_msgSender()].startTime = _now();\n        freezedPeriod[_msgSender()].amountFreezed = freezedPeriod[_msgSender()].amountFreezed - unlockable;\n\n        emit TokensUnfrozenPeriod(_msgSender(), unlockable);\n\n        return true;\n    }\n\n    /**\n     * @notice Withdraw tokens amount of contract balance\n     * @param amount {uint256} the number of tokens transferred\n     * @param receiver {address} the recipient of the token transfer\n     */\n    function withdraw(uint256 amount, address receiver) external onlyOwner {\n        withdrawable(amount);\n        TokenLibrary.Rules memory _rules = TokenContract.getRules();\n        if(_rules.dayToWithdraw != 0)\n            lastWithdraw += oneDay.mul(_rules.dayToWithdraw).mul(amount);\n        bool success = TokenContract.withdraw(amount, receiver);\n        require(success,\"Withdraw failed\");\n    }\n\n    /**\n     * @notice Check amount of withdrawable \n     * @param amount {uint256} the number of tokens withdraw\n     * @return weiWithdrawable {uint256} the number of wei transferrable\n     */\n    function withdrawable(uint256 amount) public view returns(uint256 weiWithdrawable){\n        TokenLibrary.Rules memory _rules = TokenContract.getRules();\n        if(_rules.dayToWithdraw != 0)\n            weiWithdrawable = ((_now() - lastWithdraw).div(oneDay.mul(_rules.dayToWithdraw)));\n        require(weiWithdrawable >= amount || _rules.dayToWithdraw == 0, \"Not enough funds to withdraw\");\n        require(lastWithdraw + oneDay.mul(_rules.dayToWithdraw).mul(amount) <= _now() || _rules.dayToWithdraw == 0, \"Time incorrect\");\n    }\n}",
  "sourcePath": "/home/solid-solution/Bureau/HOMEWORK/Smart-Starter/smart-contract/contracts/proxy/ProxySecurityToken.sol",
  "compiler": {
    "name": "solc",
    "version": "0.8.11+commit.d7f03943.Emscripten.clang"
  },
  "schemaVersion": "3.4.10",
  "updatedAt": "2023-02-22T12:34:32.999Z",
  "devdoc": {
    "kind": "dev",
    "methods": {
      "batchFreezePartialTokens(address[],uint256[])": {
        "params": {
          "amounts": "{uint256[]} of amounts of token to be unfreezed",
          "userAddresses": "{address[]} of user addresses"
        }
      },
      "batchSetAddressFrozen(address[],bool[])": {
        "params": {
          "freeze": "{bool[]} representing freezing",
          "userAddresses": "{address[]} of user addresses"
        }
      },
      "batchUnfreezePartialTokens(address[],uint256[])": {
        "params": {
          "amounts": "{uint256[]} of amounts of token to be unfreezed",
          "userAddresses": "{address[]} of user addresses"
        }
      },
      "burn(address,uint256)": {
        "params": {
          "account": "{address} wallet to burn the token",
          "amount": "{uint256} amount to burn"
        }
      },
      "canTransfer(address,address,address,uint256)": {
        "params": {
          "from": "{address} the origin of the token transfer",
          "operator": "{address} operator of transaction (sender)",
          "to": "{address} the recipient of the token transfer",
          "value": "{uint256} the number of tokens transferred"
        },
        "returns": {
          "_0": "hex {bytes1} code error message"
        }
      },
      "eligibleBalanceOf(address)": {
        "params": {
          "account": "{address} wallet address of account you want to get not freezed balance"
        },
        "returns": {
          "_0": "balance {uint256} balance of wallet address totaly open"
        }
      },
      "forceTransfer(address,address,uint256)": {
        "params": {
          "amount": "{uint256} amounts of tokens to be transfered",
          "from": "{address} from wallet to transfer",
          "to": "{address} to wallet to transfer"
        }
      },
      "freezePartialTokens(address,uint256)": {
        "params": {
          "amount": "{uint256} of token to be unfreezed",
          "userAddress": "{address} of the user"
        }
      },
      "getFreezedTokensPeriod(address)": {
        "params": {
          "userAddress": "{address} of the user freezed tokens"
        },
        "returns": {
          "_0": "freezedPeriod {TokenLibrary.FreezePeriod} struct of freezed tokens in period"
        }
      },
      "getFrozenTokens(address)": {
        "params": {
          "userAddress": "{address} of the user"
        },
        "returns": {
          "_0": "frozenTokens {uint256} amount of freezed tokens"
        }
      },
      "isFrozen(address)": {
        "params": {
          "userAddress": "{address} of the user"
        },
        "returns": {
          "_0": "frozen {bool} represents freezed wallet address"
        }
      },
      "mint(address,uint256)": {
        "params": {
          "amount": "{uint256} amount to mint",
          "to": "{address} wallet to send the token"
        },
        "returns": {
          "_0": "result {boolean} success or failure"
        }
      },
      "myFreezedTokensPeriod()": {
        "returns": {
          "_0": "freezedPeriod {TokenLibrary.FreezePeriod} struct of freezed tokens in period"
        }
      },
      "owner()": {
        "returns": {
          "_0": "owner {address} wallet addres from owner"
        }
      },
      "redeemFreezedTokens()": {
        "returns": {
          "_0": "success {bool} success of redeeming tokens"
        }
      },
      "refoundable(uint256)": {
        "params": {
          "amount": "{uint256} amout of tokens burn"
        },
        "returns": {
          "_0": "wei {uint256} amount of wei refoundable"
        }
      },
      "renounceOwnership()": {
        "details": "Leaves the contract without owner. It will not be possible to call `onlyOwner` functions anymore. Can only be called by the current owner. NOTE: Renouncing ownership will leave the contract without an owner, thereby removing any functionality that is only available to the owner."
      },
      "setAddressFrozen(address,bool)": {
        "params": {
          "freeze": "{boolean} representing freezing",
          "userAddress": "{address} of the user"
        }
      },
      "setFreezedTokensPeriod(uint256,uint256,uint256,address)": {
        "params": {
          "amountFreezed": "{uint256} Amount of frozen token",
          "endTime": "{uint256} End time of freezing partial token",
          "startTime": "{uint256} Start time of freezing partial token",
          "userAddress": "{address} Address wallet of the user frozen token"
        }
      },
      "setSecurityTokenImmutable(address)": {
        "params": {
          "_securityTokenImmutableAddress": "{address} address of security token immutable contract"
        }
      },
      "transfer(address,uint256)": {
        "details": "Transfer and send `amount` tokens from `_msgSender()` to `to` Returns a boolean value indicating whether the operation succeeded. Emits a {Transfer} event.",
        "params": {
          "amount": "{uint256[]} amount to transfer",
          "to": "{address} wallet to transfer the token"
        }
      },
      "transferFrom(address,address,uint256)": {
        "details": "Transfer and send `amount` tokens from `from` to `to` Returns a boolean value indicating whether the operation succeeded. Emits a {Transfer} event.",
        "params": {
          "amount": "{uint256[]} amount to transfer",
          "from": "{address} wallet from transfer the token",
          "to": "{address} wallet to transfer the token"
        }
      },
      "transferOwnership(address)": {
        "params": {
          "account": "{address} address of the new owner"
        }
      },
      "unfreezePartialTokens(address,uint256)": {
        "params": {
          "amount": "{uint256} of token to be unfreezed",
          "userAddress": "{address} of the user"
        }
      },
      "unlockableTokensPeriod()": {
        "returns": {
          "_0": "unlockable {uint256} of unlockable tokens freezed in period"
        }
      },
      "version()": {
        "returns": {
          "_0": "TOKEN_VERSION {string} version of the smart contract"
        }
      },
      "withdraw(uint256,address)": {
        "params": {
          "amount": "{uint256} the number of tokens transferred",
          "receiver": "{address} the recipient of the token transfer"
        }
      },
      "withdrawable(uint256)": {
        "params": {
          "amount": "{uint256} the number of tokens withdraw"
        },
        "returns": {
          "weiWithdrawable": "{uint256} the number of wei transferrable"
        }
      }
    },
    "version": 1
  },
  "userdoc": {
    "kind": "user",
    "methods": {
      "batchFreezePartialTokens(address[],uint256[])": {
        "notice": "Freeze patial tokens of multiples wallets"
      },
      "batchSetAddressFrozen(address[],bool[])": {
        "notice": "Freeze totality tokens of multiples wallet addresses"
      },
      "batchUnfreezePartialTokens(address[],uint256[])": {
        "notice": "Unfreeze patial tokens of multiples wallets"
      },
      "burn(address,uint256)": {
        "notice": "Remove `amount` tokens from `account` Returns a boolean value indicating whether the operation succeeded. Emits a {Transfer} event."
      },
      "canTransfer(address,address,address,uint256)": {
        "notice": "Interface of transfer method, return hex code error message"
      },
      "eligibleBalanceOf(address)": {
        "notice": "Return not freezed tokens from an address wallet"
      },
      "forceTransfer(address,address,uint256)": {
        "notice": "Force an address wallet to transfer by agent"
      },
      "freezePartialTokens(address,uint256)": {
        "notice": "Freeze patial tokens of single wallet"
      },
      "getFreezedTokensPeriod(address)": {
        "notice": "Retrieve struct of freezed tokens in period of one wallet address by agent"
      },
      "getFrozenTokens(address)": {
        "notice": "Return freezed tokens amount of wallet address"
      },
      "isFrozen(address)": {
        "notice": "Return freezed or not wallet address tokens"
      },
      "mint(address,uint256)": {
        "notice": "Mint and send `amount` tokens to `to` Returns a boolean value indicating whether the operation succeeded. Emits a {Transfer} event."
      },
      "myFreezedTokensPeriod()": {
        "notice": "Retrieve struct of freezed tokens in period of msg.sender"
      },
      "owner()": {
        "notice": "Returns the address wallet of the smart contract owner."
      },
      "redeemFreezedTokens()": {
        "notice": "Redeem unlockable freezed tokens periodically"
      },
      "refoundable(uint256)": {
        "notice": "Return amount of refoundable for amount of tokens burned"
      },
      "setAddressFrozen(address,bool)": {
        "notice": "Freeze totality tokens of single wallet address"
      },
      "setFreezedTokensPeriod(uint256,uint256,uint256,address)": {
        "notice": "Freeze token of one address wallet periodically"
      },
      "setSecurityTokenImmutable(address)": {
        "notice": "set the contract address of security token immutable"
      },
      "transferOwnership(address)": {
        "notice": "Transfer ownership of the smart contract"
      },
      "unfreezePartialTokens(address,uint256)": {
        "notice": "Unfreeze patial tokens of single wallet"
      },
      "unlockableTokensPeriod()": {
        "notice": "Get unlockable tokens freezed in period for msg.sender"
      },
      "version()": {
        "notice": "Returns the version of the token contract"
      },
      "withdraw(uint256,address)": {
        "notice": "Withdraw tokens amount of contract balance"
      },
      "withdrawable(uint256)": {
        "notice": "Check amount of withdrawable "
      }
    },
    "version": 1
  }
}