{
  "contractName": "ProxySecurityToken",
  "abi": [
    {
      "inputs": [
        {
          "internalType": "uint256",
          "name": "_pricePerToken",
          "type": "uint256"
        }
      ],
      "stateMutability": "nonpayable",
      "type": "constructor"
    },
    {
      "inputs": [
        {
          "internalType": "address",
          "name": "account",
          "type": "address"
        },
        {
          "internalType": "uint256",
          "name": "accountBalance",
          "type": "uint256"
        },
        {
          "internalType": "uint256",
          "name": "amount",
          "type": "uint256"
        }
      ],
      "name": "BurnAmountExceedsBalance",
      "type": "error"
    },
    {
      "inputs": [
        {
          "internalType": "address",
          "name": "account",
          "type": "address"
        }
      ],
      "name": "BurnFromZeroAddress",
      "type": "error"
    },
    {
      "inputs": [
        {
          "internalType": "address",
          "name": "account",
          "type": "address"
        },
        {
          "internalType": "uint256",
          "name": "previousBalance",
          "type": "uint256"
        },
        {
          "internalType": "uint256",
          "name": "currentBalance",
          "type": "uint256"
        },
        {
          "internalType": "uint256",
          "name": "amount",
          "type": "uint256"
        }
      ],
      "name": "MintDoesNotWork",
      "type": "error"
    },
    {
      "inputs": [
        {
          "internalType": "address",
          "name": "account",
          "type": "address"
        }
      ],
      "name": "MintFromZeroAddress",
      "type": "error"
    },
    {
      "inputs": [
        {
          "internalType": "address",
          "name": "sender",
          "type": "address"
        }
      ],
      "name": "NotAgent",
      "type": "error"
    },
    {
      "inputs": [
        {
          "internalType": "address",
          "name": "sender",
          "type": "address"
        }
      ],
      "name": "NotReader",
      "type": "error"
    },
    {
      "inputs": [
        {
          "internalType": "address",
          "name": "sender",
          "type": "address"
        },
        {
          "internalType": "bytes32",
          "name": "role",
          "type": "bytes32"
        }
      ],
      "name": "NotTheOwner",
      "type": "error"
    },
    {
      "inputs": [
        {
          "internalType": "uint256",
          "name": "fromBalance",
          "type": "uint256"
        },
        {
          "internalType": "address",
          "name": "from",
          "type": "address"
        },
        {
          "internalType": "uint256",
          "name": "amount",
          "type": "uint256"
        }
      ],
      "name": "TransferAmountExceedsBalance",
      "type": "error"
    },
    {
      "inputs": [
        {
          "internalType": "address",
          "name": "from",
          "type": "address"
        }
      ],
      "name": "TransferFromZeroAddress",
      "type": "error"
    },
    {
      "inputs": [
        {
          "internalType": "address",
          "name": "to",
          "type": "address"
        }
      ],
      "name": "TransferToZeroAddress",
      "type": "error"
    },
    {
      "anonymous": false,
      "inputs": [
        {
          "indexed": true,
          "internalType": "address",
          "name": "userAddress",
          "type": "address"
        },
        {
          "indexed": true,
          "internalType": "bool",
          "name": "freeze",
          "type": "bool"
        },
        {
          "indexed": true,
          "internalType": "address",
          "name": "sender",
          "type": "address"
        }
      ],
      "name": "AddressFrozen",
      "type": "event"
    },
    {
      "anonymous": false,
      "inputs": [
        {
          "indexed": true,
          "internalType": "address",
          "name": "_agent",
          "type": "address"
        }
      ],
      "name": "AgentAdded",
      "type": "event"
    },
    {
      "anonymous": false,
      "inputs": [
        {
          "indexed": true,
          "internalType": "address",
          "name": "_agent",
          "type": "address"
        }
      ],
      "name": "AgentRemoved",
      "type": "event"
    },
    {
      "anonymous": false,
      "inputs": [
        {
          "indexed": true,
          "internalType": "address",
          "name": "previousOwner",
          "type": "address"
        },
        {
          "indexed": true,
          "internalType": "address",
          "name": "newOwner",
          "type": "address"
        }
      ],
      "name": "OwnershipTransferred",
      "type": "event"
    },
    {
      "anonymous": false,
      "inputs": [
        {
          "indexed": true,
          "internalType": "address",
          "name": "sender",
          "type": "address"
        },
        {
          "indexed": true,
          "internalType": "uint256",
          "name": "paused",
          "type": "uint256"
        }
      ],
      "name": "Paused",
      "type": "event"
    },
    {
      "anonymous": false,
      "inputs": [
        {
          "indexed": true,
          "internalType": "address",
          "name": "_reader",
          "type": "address"
        }
      ],
      "name": "ReaderAdded",
      "type": "event"
    },
    {
      "anonymous": false,
      "inputs": [
        {
          "indexed": true,
          "internalType": "address",
          "name": "_reader",
          "type": "address"
        }
      ],
      "name": "ReaderRemoved",
      "type": "event"
    },
    {
      "anonymous": false,
      "inputs": [
        {
          "indexed": true,
          "internalType": "address",
          "name": "userAddress",
          "type": "address"
        },
        {
          "indexed": true,
          "internalType": "uint256",
          "name": "amount",
          "type": "uint256"
        }
      ],
      "name": "TokensFrozen",
      "type": "event"
    },
    {
      "anonymous": false,
      "inputs": [
        {
          "indexed": true,
          "internalType": "address",
          "name": "userAddress",
          "type": "address"
        },
        {
          "indexed": true,
          "internalType": "uint256",
          "name": "startTime",
          "type": "uint256"
        },
        {
          "indexed": true,
          "internalType": "uint256",
          "name": "endTime",
          "type": "uint256"
        },
        {
          "indexed": false,
          "internalType": "uint256",
          "name": "amount",
          "type": "uint256"
        },
        {
          "indexed": false,
          "internalType": "address",
          "name": "signer",
          "type": "address"
        }
      ],
      "name": "TokensFrozenPeriod",
      "type": "event"
    },
    {
      "anonymous": false,
      "inputs": [
        {
          "indexed": true,
          "internalType": "address",
          "name": "userAddress",
          "type": "address"
        },
        {
          "indexed": true,
          "internalType": "uint256",
          "name": "amount",
          "type": "uint256"
        }
      ],
      "name": "TokensUnfrozen",
      "type": "event"
    },
    {
      "anonymous": false,
      "inputs": [
        {
          "indexed": true,
          "internalType": "address",
          "name": "userAddress",
          "type": "address"
        },
        {
          "indexed": true,
          "internalType": "uint256",
          "name": "amount",
          "type": "uint256"
        }
      ],
      "name": "TokensUnfrozenPeriod",
      "type": "event"
    },
    {
      "anonymous": false,
      "inputs": [
        {
          "indexed": false,
          "internalType": "string",
          "name": "eventType",
          "type": "string"
        },
        {
          "indexed": true,
          "internalType": "address",
          "name": "from",
          "type": "address"
        },
        {
          "indexed": true,
          "internalType": "address",
          "name": "to",
          "type": "address"
        },
        {
          "indexed": false,
          "internalType": "uint256",
          "name": "value",
          "type": "uint256"
        }
      ],
      "name": "Transfer",
      "type": "event"
    },
    {
      "anonymous": false,
      "inputs": [
        {
          "indexed": true,
          "internalType": "address",
          "name": "oldAccount",
          "type": "address"
        },
        {
          "indexed": true,
          "internalType": "address",
          "name": "newAccount",
          "type": "address"
        }
      ],
      "name": "TransferOwnership",
      "type": "event"
    },
    {
      "inputs": [],
      "name": "TokenContract",
      "outputs": [
        {
          "internalType": "contract ISecurityTokenImmutable",
          "name": "",
          "type": "address"
        }
      ],
      "stateMutability": "view",
      "type": "function"
    },
    {
      "inputs": [],
      "name": "_now",
      "outputs": [
        {
          "internalType": "uint256",
          "name": "",
          "type": "uint256"
        }
      ],
      "stateMutability": "view",
      "type": "function"
    },
    {
      "inputs": [
        {
          "internalType": "address",
          "name": "_agent",
          "type": "address"
        }
      ],
      "name": "addAgent",
      "outputs": [],
      "stateMutability": "nonpayable",
      "type": "function"
    },
    {
      "inputs": [
        {
          "internalType": "address",
          "name": "_reader",
          "type": "address"
        }
      ],
      "name": "addReader",
      "outputs": [],
      "stateMutability": "nonpayable",
      "type": "function"
    },
    {
      "inputs": [
        {
          "internalType": "string",
          "name": "str1",
          "type": "string"
        },
        {
          "internalType": "string",
          "name": "str2",
          "type": "string"
        }
      ],
      "name": "compare",
      "outputs": [
        {
          "internalType": "bool",
          "name": "",
          "type": "bool"
        }
      ],
      "stateMutability": "pure",
      "type": "function"
    },
    {
      "inputs": [
        {
          "internalType": "address",
          "name": "_agent",
          "type": "address"
        }
      ],
      "name": "isAgent",
      "outputs": [
        {
          "internalType": "bool",
          "name": "",
          "type": "bool"
        }
      ],
      "stateMutability": "view",
      "type": "function"
    },
    {
      "inputs": [
        {
          "internalType": "address",
          "name": "_reader",
          "type": "address"
        }
      ],
      "name": "isReader",
      "outputs": [
        {
          "internalType": "bool",
          "name": "",
          "type": "bool"
        }
      ],
      "stateMutability": "view",
      "type": "function"
    },
    {
      "inputs": [
        {
          "internalType": "address",
          "name": "_agent",
          "type": "address"
        }
      ],
      "name": "removeAgent",
      "outputs": [],
      "stateMutability": "nonpayable",
      "type": "function"
    },
    {
      "inputs": [
        {
          "internalType": "address",
          "name": "_reader",
          "type": "address"
        }
      ],
      "name": "removeReader",
      "outputs": [],
      "stateMutability": "nonpayable",
      "type": "function"
    },
    {
      "inputs": [],
      "name": "renounceOwnership",
      "outputs": [],
      "stateMutability": "nonpayable",
      "type": "function"
    },
    {
      "inputs": [
        {
          "internalType": "address",
          "name": "_securityTokenImmutableAddress",
          "type": "address"
        }
      ],
      "name": "setSecurityTokenImmutable",
      "outputs": [],
      "stateMutability": "nonpayable",
      "type": "function"
    },
    {
      "inputs": [],
      "name": "version",
      "outputs": [
        {
          "internalType": "string",
          "name": "",
          "type": "string"
        }
      ],
      "stateMutability": "pure",
      "type": "function"
    },
    {
      "inputs": [],
      "name": "owner",
      "outputs": [
        {
          "internalType": "address",
          "name": "",
          "type": "address"
        }
      ],
      "stateMutability": "view",
      "type": "function"
    },
    {
      "inputs": [
        {
          "internalType": "address",
          "name": "account",
          "type": "address"
        }
      ],
      "name": "transferOwnership",
      "outputs": [],
      "stateMutability": "nonpayable",
      "type": "function"
    },
    {
      "inputs": [
        {
          "internalType": "address",
          "name": "account",
          "type": "address"
        }
      ],
      "name": "eligibleBalanceOf",
      "outputs": [
        {
          "internalType": "uint256",
          "name": "",
          "type": "uint256"
        }
      ],
      "stateMutability": "view",
      "type": "function"
    },
    {
      "inputs": [
        {
          "internalType": "address",
          "name": "to",
          "type": "address"
        },
        {
          "internalType": "uint256",
          "name": "amount",
          "type": "uint256"
        }
      ],
      "name": "mint",
      "outputs": [
        {
          "internalType": "bool",
          "name": "",
          "type": "bool"
        }
      ],
      "stateMutability": "payable",
      "type": "function"
    },
    {
      "inputs": [
        {
          "internalType": "address",
          "name": "account",
          "type": "address"
        },
        {
          "internalType": "uint256",
          "name": "amount",
          "type": "uint256"
        }
      ],
      "name": "burn",
      "outputs": [
        {
          "internalType": "bool",
          "name": "",
          "type": "bool"
        }
      ],
      "stateMutability": "nonpayable",
      "type": "function"
    },
    {
      "inputs": [
        {
          "internalType": "uint256",
          "name": "amount",
          "type": "uint256"
        }
      ],
      "name": "refoundable",
      "outputs": [
        {
          "internalType": "uint256",
          "name": "",
          "type": "uint256"
        }
      ],
      "stateMutability": "view",
      "type": "function"
    },
    {
      "inputs": [
        {
          "internalType": "address",
          "name": "to",
          "type": "address"
        },
        {
          "internalType": "uint256",
          "name": "amount",
          "type": "uint256"
        }
      ],
      "name": "transfer",
      "outputs": [
        {
          "internalType": "bool",
          "name": "",
          "type": "bool"
        }
      ],
      "stateMutability": "nonpayable",
      "type": "function"
    },
    {
      "inputs": [
        {
          "internalType": "address",
          "name": "from",
          "type": "address"
        },
        {
          "internalType": "address",
          "name": "to",
          "type": "address"
        },
        {
          "internalType": "uint256",
          "name": "amount",
          "type": "uint256"
        }
      ],
      "name": "transferFrom",
      "outputs": [
        {
          "internalType": "bool",
          "name": "",
          "type": "bool"
        }
      ],
      "stateMutability": "nonpayable",
      "type": "function"
    },
    {
      "inputs": [
        {
          "internalType": "address",
          "name": "operator",
          "type": "address"
        },
        {
          "internalType": "address",
          "name": "from",
          "type": "address"
        },
        {
          "internalType": "address",
          "name": "to",
          "type": "address"
        },
        {
          "internalType": "uint256",
          "name": "value",
          "type": "uint256"
        }
      ],
      "name": "canTransfer",
      "outputs": [
        {
          "internalType": "bytes1",
          "name": "",
          "type": "bytes1"
        }
      ],
      "stateMutability": "view",
      "type": "function"
    },
    {
      "inputs": [
        {
          "internalType": "address",
          "name": "from",
          "type": "address"
        },
        {
          "internalType": "address",
          "name": "to",
          "type": "address"
        },
        {
          "internalType": "uint256",
          "name": "amount",
          "type": "uint256"
        }
      ],
      "name": "forceTransfer",
      "outputs": [
        {
          "internalType": "bool",
          "name": "",
          "type": "bool"
        }
      ],
      "stateMutability": "nonpayable",
      "type": "function"
    },
    {
      "inputs": [
        {
          "internalType": "address",
          "name": "userAddress",
          "type": "address"
        }
      ],
      "name": "isFrozen",
      "outputs": [
        {
          "internalType": "bool",
          "name": "",
          "type": "bool"
        }
      ],
      "stateMutability": "view",
      "type": "function"
    },
    {
      "inputs": [
        {
          "internalType": "address",
          "name": "userAddress",
          "type": "address"
        }
      ],
      "name": "getFrozenTokens",
      "outputs": [
        {
          "internalType": "uint256",
          "name": "",
          "type": "uint256"
        }
      ],
      "stateMutability": "view",
      "type": "function"
    },
    {
      "inputs": [
        {
          "internalType": "address",
          "name": "userAddress",
          "type": "address"
        },
        {
          "internalType": "bool",
          "name": "freeze",
          "type": "bool"
        }
      ],
      "name": "setAddressFrozen",
      "outputs": [],
      "stateMutability": "nonpayable",
      "type": "function"
    },
    {
      "inputs": [
        {
          "internalType": "address[]",
          "name": "userAddresses",
          "type": "address[]"
        },
        {
          "internalType": "bool[]",
          "name": "freeze",
          "type": "bool[]"
        }
      ],
      "name": "batchSetAddressFrozen",
      "outputs": [],
      "stateMutability": "nonpayable",
      "type": "function"
    },
    {
      "inputs": [
        {
          "internalType": "address",
          "name": "userAddress",
          "type": "address"
        },
        {
          "internalType": "uint256",
          "name": "amount",
          "type": "uint256"
        }
      ],
      "name": "freezePartialTokens",
      "outputs": [],
      "stateMutability": "nonpayable",
      "type": "function"
    },
    {
      "inputs": [
        {
          "internalType": "address[]",
          "name": "userAddresses",
          "type": "address[]"
        },
        {
          "internalType": "uint256[]",
          "name": "amounts",
          "type": "uint256[]"
        }
      ],
      "name": "batchFreezePartialTokens",
      "outputs": [],
      "stateMutability": "nonpayable",
      "type": "function"
    },
    {
      "inputs": [
        {
          "internalType": "address",
          "name": "userAddress",
          "type": "address"
        },
        {
          "internalType": "uint256",
          "name": "amount",
          "type": "uint256"
        }
      ],
      "name": "unfreezePartialTokens",
      "outputs": [],
      "stateMutability": "nonpayable",
      "type": "function"
    },
    {
      "inputs": [
        {
          "internalType": "address[]",
          "name": "userAddresses",
          "type": "address[]"
        },
        {
          "internalType": "uint256[]",
          "name": "amounts",
          "type": "uint256[]"
        }
      ],
      "name": "batchUnfreezePartialTokens",
      "outputs": [],
      "stateMutability": "nonpayable",
      "type": "function"
    },
    {
      "inputs": [
        {
          "internalType": "uint256",
          "name": "startTime",
          "type": "uint256"
        },
        {
          "internalType": "uint256",
          "name": "endTime",
          "type": "uint256"
        },
        {
          "internalType": "uint256",
          "name": "amountFreezed",
          "type": "uint256"
        },
        {
          "internalType": "address",
          "name": "userAddress",
          "type": "address"
        }
      ],
      "name": "setFreezedTokensPeriod",
      "outputs": [],
      "stateMutability": "nonpayable",
      "type": "function"
    },
    {
      "inputs": [],
      "name": "myFreezedTokensPeriod",
      "outputs": [
        {
          "components": [
            {
              "internalType": "uint256",
              "name": "startTime",
              "type": "uint256"
            },
            {
              "internalType": "uint256",
              "name": "endTime",
              "type": "uint256"
            },
            {
              "internalType": "uint256",
              "name": "amountFreezed",
              "type": "uint256"
            }
          ],
          "internalType": "struct TokenLibrary.FreezePeriod",
          "name": "",
          "type": "tuple"
        }
      ],
      "stateMutability": "view",
      "type": "function"
    },
    {
      "inputs": [
        {
          "internalType": "address",
          "name": "userAddress",
          "type": "address"
        }
      ],
      "name": "getFreezedTokensPeriod",
      "outputs": [
        {
          "components": [
            {
              "internalType": "uint256",
              "name": "startTime",
              "type": "uint256"
            },
            {
              "internalType": "uint256",
              "name": "endTime",
              "type": "uint256"
            },
            {
              "internalType": "uint256",
              "name": "amountFreezed",
              "type": "uint256"
            }
          ],
          "internalType": "struct TokenLibrary.FreezePeriod",
          "name": "",
          "type": "tuple"
        }
      ],
      "stateMutability": "view",
      "type": "function"
    },
    {
      "inputs": [],
      "name": "unlockableTokensPeriod",
      "outputs": [
        {
          "internalType": "uint256",
          "name": "",
          "type": "uint256"
        }
      ],
      "stateMutability": "view",
      "type": "function"
    },
    {
      "inputs": [],
      "name": "redeemFreezedTokens",
      "outputs": [
        {
          "internalType": "bool",
          "name": "",
          "type": "bool"
        }
      ],
      "stateMutability": "nonpayable",
      "type": "function"
    },
    {
      "inputs": [
        {
          "internalType": "string",
          "name": "_messageRequest",
          "type": "string"
        },
        {
          "internalType": "uint256",
          "name": "_amountRequest",
          "type": "uint256"
        }
      ],
      "name": "setRequest",
      "outputs": [],
      "stateMutability": "nonpayable",
      "type": "function"
    },
    {
      "inputs": [],
      "name": "getRequest",
      "outputs": [
        {
          "internalType": "string",
          "name": "",
          "type": "string"
        },
        {
          "internalType": "uint256",
          "name": "",
          "type": "uint256"
        },
        {
          "internalType": "uint256",
          "name": "",
          "type": "uint256"
        },
        {
          "internalType": "uint256",
          "name": "",
          "type": "uint256"
        }
      ],
      "stateMutability": "view",
      "type": "function"
    },
    {
      "inputs": [
        {
          "internalType": "bool",
          "name": "vote",
          "type": "bool"
        },
        {
          "internalType": "uint256",
          "name": "amount",
          "type": "uint256"
        }
      ],
      "name": "voteToRequest",
      "outputs": [],
      "stateMutability": "nonpayable",
      "type": "function"
    },
    {
      "inputs": [
        {
          "internalType": "uint256",
          "name": "amount",
          "type": "uint256"
        },
        {
          "internalType": "address",
          "name": "receiver",
          "type": "address"
        }
      ],
      "name": "withdraw",
      "outputs": [],
      "stateMutability": "nonpayable",
      "type": "function"
    },
    {
      "inputs": [
        {
          "internalType": "uint256",
          "name": "amount",
          "type": "uint256"
        }
      ],
      "name": "withdrawable",
      "outputs": [
        {
          "internalType": "uint256",
          "name": "weiWithdrawable",
          "type": "uint256"
        }
      ],
      "stateMutability": "view",
      "type": "function"
    }
  ],
  "bytecode": "0x60a06040523480156200001157600080fd5b5060405162003eb538038062003eb58339810160408190526200003491620000b0565b80620000403362000060565b608052600880546001600160a01b031916331790554260045550620000ca565b600080546001600160a01b038381166001600160a01b0319831681178455604051919092169283917f8be0079c531659141344cd1fd0a4f28419497f9722a3daafe3b4186f6b6457e09190a35050565b600060208284031215620000c357600080fd5b5051919050565b608051613dcf620000e660003960006117190152613dcf6000f3fe60806040526004361061023a5760003560e01c806385269dcb1161012e578063b1ffa3d1116100ab578063c7b0d8b71161006f578063c7b0d8b714610705578063e58398361461071a578063f11988e01461073a578063f2fde38b1461075a578063fc7e5fa81461077a57600080fd5b8063b1ffa3d114610678578063b3bb8cd414610698578063c2bb515f146106ab578063c69c09cf146106d0578063c7464bf1146106f057600080fd5b80639d200d1f116100f25780639d200d1f146105e35780639dc29fac146105f8578063a9059cbb14610618578063afd8b1d114610638578063afde442a1461065857600080fd5b806385269dcb14610531578063881bd973146105515780638da5cb5b146105715780639688738b146105a357806397a6278e146105c357600080fd5b806340c10f19116101bc57806369a7ddf71161018057806369a7ddf7146104615780636d62a4fe146104815780636df68630146104ba578063715018a6146104fc57806384e798421461051157600080fd5b806340c10f19146103ba5780634710362d146103cd57806354fd4d50146103ed578063586abfbd1461042157806364e07f1f1461044157600080fd5b80631ffbb064116102035780631ffbb0641461030a57806323b872dd1461033a57806333bebb771461035a57806338d65d111461037a5780633a96fdd71461039a57600080fd5b8062f714ce1461023f578063125c4a3314610261578063158b1a57146102815780631a7af379146102ca5780631fe56f7d146102ea575b600080fd5b34801561024b57600080fd5b5061025f61025a366004613667565b61079a565b005b34801561026d57600080fd5b5061025f61027c366004613693565b610969565b34801561028d57600080fd5b506102b761029c3660046136bd565b6001600160a01b031660009081526010602052604090205490565b6040519081526020015b60405180910390f35b3480156102d657600080fd5b5061025f6102e5366004613724565b610bcd565b3480156102f657600080fd5b5061025f610305366004613693565b610c42565b34801561031657600080fd5b5061032a6103253660046136bd565b610e24565b60405190151581526020016102c1565b34801561034657600080fd5b5061032a610355366004613790565b610e37565b34801561036657600080fd5b5061032a610375366004613790565b610f11565b34801561038657600080fd5b5061025f6103953660046136bd565b611438565b3480156103a657600080fd5b5061032a6103b5366004613899565b611482565b61032a6103c8366004613693565b6114ec565b3480156103d957600080fd5b5061025f6103e8366004613724565b611872565b3480156103f957600080fd5b506040805180820182526005815264302e302e3160d81b602082015290516102c19190613955565b34801561042d57600080fd5b506102b761043c366004613968565b6118d7565b34801561044d57600080fd5b5061025f61045c366004613992565b6119a8565b34801561046d57600080fd5b5061032a61047c3660046136bd565b611ca4565b34801561048d57600080fd5b506104a161049c3660046139b0565b611cb1565b6040516001600160f81b031990911681526020016102c1565b3480156104c657600080fd5b506104da6104d53660046136bd565b61201a565b60408051825181526020808401519082015291810151908201526060016102c1565b34801561050857600080fd5b5061025f6120ac565b34801561051d57600080fd5b5061025f61052c3660046136bd565b6120c0565b34801561053d57600080fd5b5061025f61054c3660046139fb565b61210a565b34801561055d57600080fd5b5061025f61056c3660046136bd565b61239a565b34801561057d57600080fd5b506008546001600160a01b03165b6040516001600160a01b0390911681526020016102c1565b3480156105af57600080fd5b5060155461058b906001600160a01b031681565b3480156105cf57600080fd5b5061025f6105de3660046136bd565b6123c4565b3480156105ef57600080fd5b506102b761240e565b34801561060457600080fd5b5061032a610613366004613693565b612535565b34801561062457600080fd5b5061032a610633366004613693565b612995565b34801561064457600080fd5b5061025f6106533660046136bd565b612a7a565b34801561066457600080fd5b506102b76106733660046136bd565b612ac4565b34801561068457600080fd5b5061025f610693366004613a3a565b612b95565b3480156106a457600080fd5b50426102b7565b3480156106b757600080fd5b506106c0612cb1565b6040516102c19493929190613a7f565b3480156106dc57600080fd5b5061025f6106eb366004613aae565b612d5d565b3480156106fc57600080fd5b506104da612ed0565b34801561071157600080fd5b5061032a612f2e565b34801561072657600080fd5b5061032a6107353660046136bd565b612fb2565b34801561074657600080fd5b506102b7610755366004613968565b613014565b34801561076657600080fd5b5061025f6107753660046136bd565b613229565b34801561078657600080fd5b5061025f610795366004613724565b61328d565b6107a26132f2565b6015546001600160a01b03166107d35760405162461bcd60e51b81526004016107ca90613ae5565b60405180910390fd5b6107dc82613014565b50601554604080516322f14c2560e11b815290516000926001600160a01b0316916345e2984a916004808301926101809291908290030181865afa158015610828573d6000803e3d6000fd5b505050506040513d601f19601f8201168201806040525081019061084c9190613b27565b9050806101000151600014610897576108808361087a8361010001516201518061334c90919063ffffffff16565b9061334c565b600460008282546108919190613c0f565b90915550505b60e08101511515600114156108ac5760006005555b601554604051627b8a6760e11b8152600481018590526001600160a01b038481166024830152600092169062f714ce906044016020604051808303816000875af11580156108fe573d6000803e3d6000fd5b505050506040513d601f19601f820116820180604052508101906109229190613c27565b9050806109635760405162461bcd60e51b815260206004820152600f60248201526e15da5d1a191c985dc819985a5b1959608a1b60448201526064016107ca565b50505050565b61097233610e24565b15801561098a57506008546001600160a01b03163314155b156109b657335b6040516352f49c9560e01b81526001600160a01b0390911660048201526024016107ca565b6015546001600160a01b03166109de5760405162461bcd60e51b81526004016107ca90613ae5565b601560009054906101000a90046001600160a01b03166001600160a01b03166345e2984a6040518163ffffffff1660e01b815260040161018060405180830381865afa158015610a32573d6000803e3d6000fd5b505050506040513d601f19601f82011682018060405250810190610a569190613b27565b602001511515600114610a7b5760405162461bcd60e51b81526004016107ca90613c44565b6015546040516370a0823160e01b81526001600160a01b03848116600483015260009216906370a0823190602401602060405180830381865afa158015610ac6573d6000803e3d6000fd5b505050506040513d601f19601f82011682018060405250810190610aea9190613c89565b6001600160a01b038416600090815260106020526040902054909150610b11908390613c0f565b811015610b605760405162461bcd60e51b815260206004820181905260248201527f416d6f756e74206578636565647320617661696c61626c652062616c616e636560448201526064016107ca565b6001600160a01b038316600090815260106020526040902054610b84908390613c0f565b6001600160a01b03841660008181526010602052604080822093909355915184927fa065e63c631c86f1b9f66a4a2f63f2093bf1c2168d23290259dbd969e0222a4591a3505050565b60005b83811015610c3b57610c29858583818110610bed57610bed613ca2565b9050602002016020810190610c0291906136bd565b848484818110610c1457610c14613ca2565b90506020020160208101906106eb9190613cb8565b80610c3381613cd5565b915050610bd0565b5050505050565b610c4b33610e24565b158015610c6357506008546001600160a01b03163314155b15610c6e5733610991565b6015546001600160a01b0316610c965760405162461bcd60e51b81526004016107ca90613ae5565b601560009054906101000a90046001600160a01b03166001600160a01b03166345e2984a6040518163ffffffff1660e01b815260040161018060405180830381865afa158015610cea573d6000803e3d6000fd5b505050506040513d601f19601f82011682018060405250810190610d0e9190613b27565b602001511515600114610d335760405162461bcd60e51b81526004016107ca90613c44565b6001600160a01b038216600090815260106020526040902054811115610db85760405162461bcd60e51b815260206004820152603460248201527f416d6f756e742073686f756c64206265206c657373207468616e206f7220657160448201527375616c20746f2066726f7a656e20746f6b656e7360601b60648201526084016107ca565b6001600160a01b038216600090815260106020526040902054610ddc908290613cf0565b6001600160a01b03831660008181526010602052604080822093909355915183927f9bed35cb62ad0dba04f9d5bfee4b5bc91443e77da8a65c4c84834c51bb08b0d691a35050565b6000610e3160018361335f565b92915050565b6015546000906001600160a01b0316610e625760405162461bcd60e51b81526004016107ca90613ae5565b605160f81b610e7333868686611cb1565b6001600160f81b03191614610e8757600080fd5b6015546040516323b872dd60e01b81526001600160a01b038681166004830152858116602483015260448201859052909116906323b872dd906064016020604051808303816000875af1158015610ee2573d6000803e3d6000fd5b505050506040513d601f19601f82011682018060405250810190610f069190613c27565b506001949350505050565b6000610f1c33610e24565b158015610f3457506008546001600160a01b03163314155b15610f3f5733610991565b6015546001600160a01b0316610f675760405162461bcd60e51b81526004016107ca90613ae5565b601560009054906101000a90046001600160a01b03166001600160a01b03166345e2984a6040518163ffffffff1660e01b815260040161018060405180830381865afa158015610fbb573d6000803e3d6000fd5b505050506040513d601f19601f82011682018060405250810190610fdf9190613b27565b60800151151560011461104d5760405162461bcd60e51b815260206004820152603060248201527f666f7263655472616e73666572206973206e6f7420617574686f72697a65642060448201526f1bdb881d1a1a5cc818dbdb9d1c9858dd60821b60648201526084016107ca565b600061105885612ac4565b9050808311156113ad576001600160a01b038581166000818152601060205260408082205460155491516370a0823160e01b81526004810194909452919391929116906370a0823190602401602060405180830381865afa1580156110c1573d6000803e3d6000fd5b505050506040513d601f19601f820116820180604052508101906110e59190613c89565b6110ef9190613cf0565b6110f99085613cf0565b6001600160a01b03878116600081815260106020526040908190205460155491516370a0823160e01b81526004810193909352939450909116906370a0823190602401602060405180830381865afa158015611159573d6000803e3d6000fd5b505050506040513d601f19601f8201168201806040525081019061117d9190613c89565b6111879190613cf0565b8411156111f7576001600160a01b0386166000908152601060205260409020546111b2908290613cf0565b6001600160a01b03871660008181526010602052604080822093909355915183927f9bed35cb62ad0dba04f9d5bfee4b5bc91443e77da8a65c4c84834c51bb08b0d691a35b6001600160a01b038681166000818152600f6020526040908190206002015460155491516370a0823160e01b815260048101939093529216906370a0823190602401602060405180830381865afa158015611256573d6000803e3d6000fd5b505050506040513d601f19601f8201168201806040525081019061127a9190613c89565b6112849190613cf0565b61128e8286613cf0565b11156113ab576001600160a01b038681166000818152600f60205260408082206002015460155491516370a0823160e01b81526004810194909452919391929116906370a0823190602401602060405180830381865afa1580156112f6573d6000803e3d6000fd5b505050506040513d601f19601f8201168201806040525081019061131a9190613c89565b6113249190613cf0565b61132e8387613cf0565b6113389190613cf0565b6001600160a01b0388166000908152600f6020526040902060020154909150611362908290613cf0565b6001600160a01b0388166000818152600f602052604080822060020193909355915184927f86fc01e32674e4237a61b84eece63ddaf61eb7a3034e3cc7f8ca90558431f68e91a3505b505b6015546040516323b872dd60e01b81526001600160a01b038781166004830152868116602483015260448201869052909116906323b872dd906064016020604051808303816000875af1158015611408573d6000803e3d6000fd5b505050506040513d601f19601f8201168201806040525081019061142c9190613c27565b50600195945050505050565b6114406132f2565b61144b6002826133e2565b6040516001600160a01b038216907fe933431644458f1217f9e93d3e000e03c9bbbe55761046d0985c2e4d157bcbaa90600090a250565b6000815183511461149557506000610e31565b816040516020016114a69190613d07565b60405160208183030381529060405280519060200120836040516020016114cd9190613d07565b6040516020818303038152906040528051906020012014905092915050565b6000816000601560009054906101000a90046001600160a01b03166001600160a01b03166345e2984a6040518163ffffffff1660e01b815260040161018060405180830381865afa158015611545573d6000803e3d6000fd5b505050506040513d601f19601f820116820180604052508101906115699190613b27565b90508061012001516115784290565b10156115c65760405162461bcd60e51b815260206004820152601760248201527f46756e6472616973696e67206e6f74207374617274656400000000000000000060448201526064016107ca565b610140810151421115806115dd5750610140810151155b61161d5760405162461bcd60e51b8152602060048201526011602482015270119d5b991c985a5cda5b99c8195b991959607a1b60448201526064016107ca565b610160810151601554604080516318160ddd60e01b8152905185926001600160a01b0316916318160ddd9160048083019260209291908290030181865afa15801561166c573d6000803e3d6000fd5b505050506040513d601f19601f820116820180604052508101906116909190613c89565b61169a9190613c0f565b1115806116aa5750610160810151155b6116eb5760405162461bcd60e51b815260206004820152601260248201527113585e081cdd5c1c1b1e481c995858da195960721b60448201526064016107ca565b6015546001600160a01b03166117135760405162461bcd60e51b81526004016107ca90613ae5565b61173d847f0000000000000000000000000000000000000000000000000000000000000000613d23565b34101561177d5760405162461bcd60e51b815260206004820152600e60248201526d09cdee840cadcdeeaced040cae8d60931b60448201526064016107ca565b6015546040516340c10f1960e01b81526001600160a01b03878116600483015260248201879052909116906340c10f19906044016020604051808303816000875af11580156117d0573d6000803e3d6000fd5b505050506040513d601f19601f820116820180604052508101906117f49190613c27565b506015546001600160a01b03166341bb26d334336040516001600160e01b031960e085901b1681526001600160a01b03909116600482015260240160206040518083038185885af115801561184d573d6000803e3d6000fd5b50505050506040513d601f19601f8201168201806040525081019061142c9190613c27565b60005b83811015610c3b576118c585858381811061189257611892613ca2565b90506020020160208101906118a791906136bd565b8484848181106118b9576118b9613ca2565b90506020020135610c42565b806118cf81613cd5565b915050611875565b6015546000906001600160a01b03166119025760405162461bcd60e51b81526004016107ca90613ae5565b610e318261087a6119856064601560009054906101000a90046001600160a01b03166001600160a01b03166318160ddd6040518163ffffffff1660e01b8152600401602060405180830381865afa158015611961573d6000803e3d6000fd5b505050506040513d601f19601f8201168201806040525081019061087a9190613c89565b60155461199d906001600160a01b031631606461334c565b90613464565b919050565b6015546001600160a01b03166119d05760405162461bcd60e51b81526004016107ca90613ae5565b60155481906001600160a01b03166370a08231336040516001600160e01b031960e084901b1681526001600160a01b039091166004820152602401602060405180830381865afa158015611a28573d6000803e3d6000fd5b505050506040513d601f19601f82011682018060405250810190611a4c9190613c89565b1015611aad5760405162461bcd60e51b815260206004820152602a60248201527f42616c616e6365206f662073656e646572206973206c6f776572207468616e206044820152691d1a1948185b5bdd5b9d60b21b60648201526084016107ca565b3360009081526011602052604090208054611bda9190611acc90613d42565b80601f0160208091040260200160405190810160405280929190818152602001828054611af890613d42565b8015611b455780601f10611b1a57610100808354040283529160200191611b45565b820191906000526020600020905b815481529060010190602001808311611b2857829003601f168201915b505050505060148054611b5790613d42565b80601f0160208091040260200160405190810160405280929190818152602001828054611b8390613d42565b8015611bd05780601f10611ba557610100808354040283529160200191611bd0565b820191906000526020600020905b815481529060010190602001808311611bb357829003601f168201915b5050505050611482565b15611c385760405162461bcd60e51b815260206004820152602860248201527f53656e6465722068617320616c726561647920766f74656420746f2074686973604482015267081c995c5d595cdd60c21b60648201526084016107ca565b33600090815260116020526040902060148054611c5490613d42565b611c5f92919061353c565b5060018215151415611c83578060066000828254611c7d9190613c0f565b90915550505b81611ca0578060076000828254611c9a9190613c0f565b90915550505b5050565b6000610e3160028361335f565b6015546000906001600160a01b0316611cdc5760405162461bcd60e51b81526004016107ca90613ae5565b6015546040516370a0823160e01b81526001600160a01b038681166004830152849216906370a0823190602401602060405180830381865afa158015611d26573d6000803e3d6000fd5b505050506040513d601f19601f82011682018060405250810190611d4a9190613c89565b1015611d5b5750602960f91b612012565b601560009054906101000a90046001600160a01b03166001600160a01b031663b187bd266040518163ffffffff1660e01b8152600401602060405180830381865afa158015611dae573d6000803e3d6000fd5b505050506040513d601f19601f82011682018060405250810190611dd29190613c89565b421015611de45750601560fa1b612012565b6001600160a01b038481166000818152600f60209081526040808320600201546010909252918290205460155492516370a0823160e01b81526004810194909452869491939092909116906370a0823190602401602060405180830381865afa158015611e55573d6000803e3d6000fd5b505050506040513d601f19601f82011682018060405250810190611e799190613c89565b611e839190613cf0565b611e8d9190613cf0565b1015611e9e5750605560f81b612012565b6001600160a01b038416611eb75750602b60f91b612012565b6001600160a01b038316611ed05750605760f81b612012565b611ed985610e24565b158015611ef457506008546001600160a01b03868116911614155b8015611f125750846001600160a01b0316846001600160a01b031614155b15611f225750600b60fb1b612012565b6001600160a01b03841660009081526012602052604090205460ff1615611f4e5750602d60f91b612012565b6001600160a01b03831660009081526012602052604090205460ff1615611f7a5750605b60f81b612012565b601560009054906101000a90046001600160a01b03166001600160a01b03166345e2984a6040518163ffffffff1660e01b815260040161018060405180830381865afa158015611fce573d6000803e3d6000fd5b505050506040513d601f19601f82011682018060405250810190611ff29190613b27565b60c0015115156001141561200b5750601760fa1b612012565b50605160f81b5b949350505050565b61203e60405180606001604052806000815260200160008152602001600081525090565b61204733610e24565b15801561205f57506008546001600160a01b03163314155b1561206a5733610991565b506001600160a01b03166000908152600f6020908152604091829020825160608101845281548152600182015492810192909252600201549181019190915290565b6120b46132f2565b6120be6000613470565b565b6120c86132f2565b6120d36001826134c0565b6040516001600160a01b038216907ff68e73cec97f2d70aa641fb26e87a4383686e2efacb648f2165aeb02ac562ec590600090a250565b61211333610e24565b15801561212b57506008546001600160a01b03163314155b156121365733610991565b6015546001600160a01b031661215e5760405162461bcd60e51b81526004016107ca90613ae5565b601560009054906101000a90046001600160a01b03166001600160a01b03166345e2984a6040518163ffffffff1660e01b815260040161018060405180830381865afa1580156121b2573d6000803e3d6000fd5b505050506040513d601f19601f820116820180604052508101906121d69190613b27565b6040015115156001146122405760405162461bcd60e51b815260206004820152602c60248201527f467265657a65207061727469616c20706572696f64206164647265737320697360448201526b081b9bdd08185b1b1bddd95960a21b60648201526084016107ca565b6015546040516370a0823160e01b81526001600160a01b038381166004830152909116906370a0823190602401602060405180830381865afa15801561228a573d6000803e3d6000fd5b505050506040513d601f19601f820116820180604052508101906122ae9190613c89565b8211156123095760405162461bcd60e51b8152602060048201526024808201527f416d6f756e74206973207570706572207468616e2062616c616e6365206f66206044820152633ab9b2b960e11b60648201526084016107ca565b6040805160608101825285815260208082018681528284018681526001600160a01b0386166000818152600f909452949092209251835551600183015551600290910155839085907fe73f01da0d1ab22feed9447b4801c099a6ebe22122e907da28300e12381a67068533604080519283526001600160a01b0390911660208301520160405180910390a450505050565b6123a26132f2565b601580546001600160a01b0319166001600160a01b0392909216919091179055565b6123cc6132f2565b6123d76001826133e2565b6040516001600160a01b038216907fed9c8ad8d5a0a66898ea49d2956929c93ae2e8bd50281b2ed897c5d1a6737e0b90600090a250565b336000908152600f60209081526040808320815160608101835281548152600182015493810193909352600201549082018190526124855760405162461bcd60e51b81526020600482015260146024820152734e6f20746f6b656e20746f20756e667265657a6560601b60448201526064016107ca565b8051601e906124949042613cf0565b116124e15760405162461bcd60e51b815260206004820152601c60248201527f54696d6520666f722072656465656d20697320746f6f2073686f72740000000060448201526064016107ca565b805160208201516000916124f491613cf0565b82519091506000906125069042613cf0565b905061252d606461199d856040015161087a8661199d60648861334c90919063ffffffff16565b935050505090565b6015546000906001600160a01b03166125605760405162461bcd60e51b81526004016107ca90613ae5565b600061256b84612ac4565b9050808311156128c0576001600160a01b038481166000818152601060205260408082205460155491516370a0823160e01b81526004810194909452919391929116906370a0823190602401602060405180830381865afa1580156125d4573d6000803e3d6000fd5b505050506040513d601f19601f820116820180604052508101906125f89190613c89565b6126029190613cf0565b61260c9085613cf0565b6001600160a01b03868116600081815260106020526040908190205460155491516370a0823160e01b81526004810193909352939450909116906370a0823190602401602060405180830381865afa15801561266c573d6000803e3d6000fd5b505050506040513d601f19601f820116820180604052508101906126909190613c89565b61269a9190613cf0565b84111561270a576001600160a01b0385166000908152601060205260409020546126c5908290613cf0565b6001600160a01b03861660008181526010602052604080822093909355915183927f9bed35cb62ad0dba04f9d5bfee4b5bc91443e77da8a65c4c84834c51bb08b0d691a35b6001600160a01b038581166000818152600f6020526040908190206002015460155491516370a0823160e01b815260048101939093529216906370a0823190602401602060405180830381865afa158015612769573d6000803e3d6000fd5b505050506040513d601f19601f8201168201806040525081019061278d9190613c89565b6127979190613cf0565b6127a18286613cf0565b11156128be576001600160a01b038581166000818152600f60205260408082206002015460155491516370a0823160e01b81526004810194909452919391929116906370a0823190602401602060405180830381865afa158015612809573d6000803e3d6000fd5b505050506040513d601f19601f8201168201806040525081019061282d9190613c89565b6128379190613cf0565b6128418387613cf0565b61284b9190613cf0565b6001600160a01b0387166000908152600f6020526040902060020154909150612875908290613cf0565b6001600160a01b0387166000818152600f602052604080822060020193909355915184927f86fc01e32674e4237a61b84eece63ddaf61eb7a3034e3cc7f8ca90558431f68e91a3505b505b60006128cb846118d7565b601554604051637a94c56560e11b81526001600160a01b03888116600483015260248201889052604482018490529293506000929091169063f5298aca906064016020604051808303816000875af115801561292b573d6000803e3d6000fd5b505050506040513d601f19601f8201168201806040525081019061294f9190613c27565b90508061142c5760405162461bcd60e51b81526020600482015260146024820152732330b4b632b2103a379039b2b7321022ba3432b960611b60448201526064016107ca565b6015546000906001600160a01b03166129c05760405162461bcd60e51b81526004016107ca90613ae5565b605160f81b6129d133338686611cb1565b6001600160f81b031916146129e557600080fd5b6015546001600160a01b03166323b872dd336040516001600160e01b031960e084901b1681526001600160a01b0391821660048201529086166024820152604481018590526064016020604051808303816000875af1158015612a4c573d6000803e3d6000fd5b505050506040513d601f19601f82011682018060405250810190612a709190613c27565b5060019392505050565b612a826132f2565b612a8d6002826134c0565b6040516001600160a01b038216907fb7724d890d2888af5a3fc456edb667e2c82c4441449ebcac301c618759e4f86d90600090a250565b6015546000906001600160a01b0316612aef5760405162461bcd60e51b81526004016107ca90613ae5565b6001600160a01b038281166000818152600f60209081526040808320600201546010909252918290205460155492516370a0823160e01b81526004810194909452909390929116906370a0823190602401602060405180830381865afa158015612b5d573d6000803e3d6000fd5b505050506040513d601f19601f82011682018060405250810190612b819190613c89565b612b8b9190613cf0565b610e319190613cf0565b612b9d6132f2565b612c3160148054612bad90613d42565b80601f0160208091040260200160405190810160405280929190818152602001828054612bd990613d42565b8015612c265780601f10612bfb57610100808354040283529160200191612c26565b820191906000526020600020905b815481529060010190602001808311612c0957829003601f168201915b505050505083611482565b15612c8d5760405162461bcd60e51b815260206004820152602660248201527f526571756573742063616e277420626520657175616c20746f206c6173742072604482015265195c5d595cdd60d21b60648201526084016107ca565b8151612ca09060149060208501906135c7565b506005555060006006819055600755565b606060008060006014600554600654600754838054612ccf90613d42565b80601f0160208091040260200160405190810160405280929190818152602001828054612cfb90613d42565b8015612d485780601f10612d1d57610100808354040283529160200191612d48565b820191906000526020600020905b815481529060010190602001808311612d2b57829003601f168201915b50505050509350935093509350935090919293565b612d6633610e24565b158015612d7e57506008546001600160a01b03163314155b15612d895733610991565b6015546001600160a01b0316612db15760405162461bcd60e51b81526004016107ca90613ae5565b601560009054906101000a90046001600160a01b03166001600160a01b03166345e2984a6040518163ffffffff1660e01b815260040161018060405180830381865afa158015612e05573d6000803e3d6000fd5b505050506040513d601f19601f82011682018060405250810190612e299190613b27565b511515600114612e7b5760405162461bcd60e51b815260206004820152601d60248201527f467265657a652061646472657373206973206e6f7420616c6c6f77656400000060448201526064016107ca565b6001600160a01b038216600081815260126020526040808220805460ff19168515159081179091559051339391927f7fa523c84ab8d7fc5b72f08b9e46dbbf10c39e119a075b3e317002d14bc9f43691a45050565b612ef460405180606001604052806000815260200160008152602001600081525090565b50336000908152600f6020908152604091829020825160608101845281548152600182015492810192909252600201549181019190915290565b600080612f3961240e565b905060008111612f4b57600091505090565b336000908152600f6020526040902042815560020154612f6c908290613cf0565b336000818152600f602052604080822060020193909355915183927f86fc01e32674e4237a61b84eece63ddaf61eb7a3034e3cc7f8ca90558431f68e91a3600191505090565b6000612fbd33611ca4565b158015612fd557506008546001600160a01b03163314155b15612ff5576040516325bfed0960e11b81523360048201526024016107ca565b506001600160a01b031660009081526012602052604090205460ff1690565b6015546000906001600160a01b031661303f5760405162461bcd60e51b81526004016107ca90613ae5565b601554604080516322f14c2560e11b815290516000926001600160a01b0316916345e2984a916004808301926101809291908290030181865afa15801561308a573d6000803e3d6000fd5b505050506040513d601f19601f820116820180604052508101906130ae9190613b27565b90508061010001516000146130eb576130e86130db8261010001516201518061334c90919063ffffffff16565b60045461199d9042613cf0565b91505b60e0810151158061310c575060075460065411801561310c57506005548311155b61314b5760405162461bcd60e51b815260206004820152601060248201526f139bc81d9bdd19481858d8d95c1d195960821b60448201526064016107ca565b828210158061315d5750610100810151155b6131a95760405162461bcd60e51b815260206004820152601c60248201527f4e6f7420656e6f7567682066756e647320746f2077697468647261770000000060448201526064016107ca565b426131c98461087a8461010001516201518061334c90919063ffffffff16565b6004546131d69190613c0f565b1115806131e65750610100810151155b6132235760405162461bcd60e51b815260206004820152600e60248201526d151a5b59481a5b98dbdc9c9958dd60921b60448201526064016107ca565b50919050565b6132316132f2565b6008546040516001600160a01b038084169216907f5c486528ec3e3f0ea91181cff8116f02bfa350e03b8b6f12e00765adbb5af85c90600090a3600880546001600160a01b0319166001600160a01b0392909216919091179055565b60005b83811015610c3b576132e08585838181106132ad576132ad613ca2565b90506020020160208101906132c291906136bd565b8484848181106132d4576132d4613ca2565b90506020020135610969565b806132ea81613cd5565b915050613290565b6008546001600160a01b031633146120be5760405162461bcd60e51b815260206004820181905260248201527f4f776e61626c653a2063616c6c6572206973206e6f7420746865206f776e657260448201526064016107ca565b60006133588284613d23565b9392505050565b60006001600160a01b0382166133c25760405162461bcd60e51b815260206004820152602260248201527f526f6c65733a206163636f756e7420697320746865207a65726f206164647265604482015261737360f01b60648201526084016107ca565b506001600160a01b03166000908152602091909152604090205460ff1690565b6133ec828261335f565b6134425760405162461bcd60e51b815260206004820152602160248201527f526f6c65733a206163636f756e7420646f6573206e6f74206861766520726f6c6044820152606560f81b60648201526084016107ca565b6001600160a01b0316600090815260209190915260409020805460ff19169055565b60006133588284613d77565b600080546001600160a01b038381166001600160a01b0319831681178455604051919092169283917f8be0079c531659141344cd1fd0a4f28419497f9722a3daafe3b4186f6b6457e09190a35050565b6134ca828261335f565b156135175760405162461bcd60e51b815260206004820152601f60248201527f526f6c65733a206163636f756e7420616c72656164792068617320726f6c650060448201526064016107ca565b6001600160a01b0316600090815260209190915260409020805460ff19166001179055565b82805461354890613d42565b90600052602060002090601f01602090048101928261356a57600085556135b7565b82601f1061357b57805485556135b7565b828001600101855582156135b757600052602060002091601f016020900482015b828111156135b757825482559160010191906001019061359c565b506135c392915061363b565b5090565b8280546135d390613d42565b90600052602060002090601f0160209004810192826135f557600085556135b7565b82601f1061360e57805160ff19168380011785556135b7565b828001600101855582156135b7579182015b828111156135b7578251825591602001919060010190613620565b5b808211156135c3576000815560010161363c565b80356001600160a01b03811681146119a357600080fd5b6000806040838503121561367a57600080fd5b8235915061368a60208401613650565b90509250929050565b600080604083850312156136a657600080fd5b6136af83613650565b946020939093013593505050565b6000602082840312156136cf57600080fd5b61335882613650565b60008083601f8401126136ea57600080fd5b50813567ffffffffffffffff81111561370257600080fd5b6020830191508360208260051b850101111561371d57600080fd5b9250929050565b6000806000806040858703121561373a57600080fd5b843567ffffffffffffffff8082111561375257600080fd5b61375e888389016136d8565b9096509450602087013591508082111561377757600080fd5b50613784878288016136d8565b95989497509550505050565b6000806000606084860312156137a557600080fd5b6137ae84613650565b92506137bc60208501613650565b9150604084013590509250925092565b634e487b7160e01b600052604160045260246000fd5b604051610180810167ffffffffffffffff81118282101715613806576138066137cc565b60405290565b600082601f83011261381d57600080fd5b813567ffffffffffffffff80821115613838576138386137cc565b604051601f8301601f19908116603f01168101908282118183101715613860576138606137cc565b8160405283815286602085880101111561387957600080fd5b836020870160208301376000602085830101528094505050505092915050565b600080604083850312156138ac57600080fd5b823567ffffffffffffffff808211156138c457600080fd5b6138d08683870161380c565b935060208501359150808211156138e657600080fd5b506138f38582860161380c565b9150509250929050565b60005b83811015613918578181015183820152602001613900565b838111156109635750506000910152565b600081518084526139418160208601602086016138fd565b601f01601f19169290920160200192915050565b6020815260006133586020830184613929565b60006020828403121561397a57600080fd5b5035919050565b801515811461398f57600080fd5b50565b600080604083850312156139a557600080fd5b82356136af81613981565b600080600080608085870312156139c657600080fd5b6139cf85613650565b93506139dd60208601613650565b92506139eb60408601613650565b9396929550929360600135925050565b60008060008060808587031215613a1157600080fd5b843593506020850135925060408501359150613a2f60608601613650565b905092959194509250565b60008060408385031215613a4d57600080fd5b823567ffffffffffffffff811115613a6457600080fd5b613a708582860161380c565b95602094909401359450505050565b608081526000613a926080830187613929565b6020830195909552506040810192909252606090910152919050565b60008060408385031215613ac157600080fd5b613aca83613650565b91506020830135613ada81613981565b809150509250929050565b6020808252601b908201527f546f6b656e20636f6e7472616374206973206e6f742076616c69640000000000604082015260600190565b80516119a381613981565b60006101808284031215613b3a57600080fd5b613b426137e2565b613b4b83613b1c565b8152613b5960208401613b1c565b6020820152613b6a60408401613b1c565b6040820152613b7b60608401613b1c565b6060820152613b8c60808401613b1c565b6080820152613b9d60a08401613b1c565b60a0820152613bae60c08401613b1c565b60c0820152613bbf60e08401613b1c565b60e0820152610100838101519082015261012080840151908201526101408084015190820152610160928301519281019290925250919050565b634e487b7160e01b600052601160045260246000fd5b60008219821115613c2257613c22613bf9565b500190565b600060208284031215613c3957600080fd5b815161335881613981565b60208082526025908201527f467265657a65207061727469616c2061646472657373206973206e6f7420616c6040820152641b1bddd95960da1b606082015260800190565b600060208284031215613c9b57600080fd5b5051919050565b634e487b7160e01b600052603260045260246000fd5b600060208284031215613cca57600080fd5b813561335881613981565b6000600019821415613ce957613ce9613bf9565b5060010190565b600082821015613d0257613d02613bf9565b500390565b60008251613d198184602087016138fd565b9190910192915050565b6000816000190483118215151615613d3d57613d3d613bf9565b500290565b600181811c90821680613d5657607f821691505b6020821081141561322357634e487b7160e01b600052602260045260246000fd5b600082613d9457634e487b7160e01b600052601260045260246000fd5b50049056fea26469706673582212200f2e94d793ffe40ce1a95a374d670349f4da6a91f69a1ef8a91d664b24ac309264736f6c634300080b0033",
  "immutableReferences": {
    "1999": [
      {
        "length": 32,
        "start": 5913
      }
    ]
  },
  "source": "// SPDX-License-Identifier: MIT\n\npragma solidity ^0.8.0;\n\n\nimport \"../immutable/StorageToken.sol\";\nimport \"../library/TokenLibrary.sol\";\nimport \"../interfaces/ISecurityTokenImmutable.sol\";\nimport \"../interfaces/IProxySecurityToken.sol\";\nimport \"../roles/AgentRole.sol\";\nimport \"../roles/ReaderRole.sol\";\nimport \"@openzeppelin/contracts/access/Ownable.sol\";\nimport \"@openzeppelin/contracts/token/ERC20/ERC20.sol\";\nimport \"@openzeppelin/contracts/utils/math/SafeMath.sol\";\n\ncontract ProxySecurityToken is AgentRole, ReaderRole, StorageToken, IProxySecurityToken {\n    using SafeMath for uint;\n\n    ISecurityTokenImmutable public TokenContract;\n\n    /**\n     */\n    constructor(uint256 _pricePerToken) StorageToken(_pricePerToken) {\n        OWNER = _msgSender();\n        lastWithdraw = _now();\n    }\n\n    /**\n     * @notice set the contract address of security token immutable\n     * @param _securityTokenImmutableAddress {address} address of security token immutable contract\n     */\n    function setSecurityTokenImmutable(address _securityTokenImmutableAddress) external onlyOwner {\n        TokenContract = ISecurityTokenImmutable(_securityTokenImmutableAddress);\n    }\n\n    /// @dev Modifier to check if fundraising is open and max supply not reached.\n    modifier fundraisable(uint256 amount) {\n        TokenLibrary.Rules memory _rules = TokenContract.getRules();\n        require(_now() >= _rules.startFundraising, \"Fundraising not started\");\n        require(_now() <= _rules.endFundraising || _rules.endFundraising == 0, \"Fundraising ended\");\n        require(TokenContract.totalSupply() + amount <= _rules.maxSupply || _rules.maxSupply == 0, \"Max supply reached\");\n        _;\n    }\n\n    /// @dev Check if contract immutable is valid\n    modifier contractValid() {\n        require(address(TokenContract) != address(0), \"Token contract is not valid\");\n        _;\n    }\n\n    /**\n     * @notice Returns the version of the token contract\n     * @return TOKEN_VERSION {string} version of the smart contract\n     */\n    function version() external pure returns (string memory) {\n        return TOKEN_VERSION;\n    }\n\n    /**\n     * @notice Returns the address wallet of the smart contract owner.\n     * @return owner {address} wallet addres from owner\n     */\n    function owner() public view override(Ownable, IProxySecurityToken) returns (address) {\n        return OWNER;\n    }\n\n    /**\n     * @notice Transfer ownership of the smart contract\n     * @param account {address} address of the new owner\n     */\n    function transferOwnership(address account) public virtual override(Ownable, IProxySecurityToken) onlyOwner {\n        emit TransferOwnership(OWNER, account);\n        OWNER = account;\n    }\n\n    /**\n     * @notice Return not freezed tokens from an address wallet\n     * @param account {address} wallet address of account you want to get not freezed balance\n     * @return balance {uint256} balance of wallet address totaly open\n     */\n    function eligibleBalanceOf(address account) public view contractValid returns(uint256) {\n        return TokenContract.balanceOf(account) - frozenTokens[account] - (freezedPeriod[account].amountFreezed);\n    }\n\n    /**\n     * @notice Mint and send `amount` tokens to `to`\n     *\n     * Returns a boolean value indicating whether the operation succeeded.\n     *\n     * Emits a {Transfer} event.\n     * @param to {address} wallet to send the token\n     * @param amount {uint256} amount to mint\n     * @return result {boolean} success or failure\n     */\n    function mint(address to, uint256 amount) external payable fundraisable(amount) contractValid returns (bool) {\n        require(msg.value >= pricePerToken * amount, \"Not enough eth\");\n        TokenContract.mint(to, amount);\n        TokenContract.handlePayment{value: msg.value}(_msgSender());\n        return true;\n    }\n\n    /**\n     * @notice Remove `amount` tokens from `account`\n     *\n     * Returns a boolean value indicating whether the operation succeeded.\n     *\n     * Emits a {Transfer} event.\n     * @param account {address} wallet to burn the token\n     * @param amount {uint256} amount to burn\n     */\n    function burn(address account, uint256 amount)\n        external\n        contractValid\n        returns (bool)\n    {\n        uint256 freeBalance = eligibleBalanceOf(account);\n        if (amount > freeBalance) {\n            uint256 tokensToUnfreeze = amount - (TokenContract.balanceOf(account) - frozenTokens[account]);\n            if (amount > TokenContract.balanceOf(account) - frozenTokens[account]) {\n                frozenTokens[account] = frozenTokens[account] - (tokensToUnfreeze);\n                emit TokensUnfrozen(account, tokensToUnfreeze);\n            }\n            if (amount - tokensToUnfreeze > TokenContract.balanceOf(account) - (freezedPeriod[account].amountFreezed)) {\n                uint256 tokensToUnfreezePeriod =\n                amount - tokensToUnfreeze - (TokenContract.balanceOf(account) - freezedPeriod[account].amountFreezed);\n                freezedPeriod[account].amountFreezed = freezedPeriod[account].amountFreezed - (tokensToUnfreezePeriod);\n                emit TokensUnfrozenPeriod(account, tokensToUnfreeze);\n            }\n        }\n\n        uint256 _refoundable = refoundable(amount);\n\n        bool success = TokenContract.burn(account, amount, _refoundable);\n        require(success, \"Failed to send Ether\");\n\n        return true;\n    }\n\n    /**\n     * @notice Return amount of refoundable for amount of tokens burned\n     * @param amount {uint256} amout of tokens burn\n     * @return wei {uint256} amount of wei refoundable\n     */\n    function refoundable(uint256 amount) public view contractValid returns(uint256){\n        return (address(TokenContract).balance.mul(100).div(TokenContract.totalSupply().mul(100))).mul(amount);\n    }\n\n    /**\n     * @dev Transfer and send `amount` tokens from `_msgSender()` to `to`\n     *\n     * Returns a boolean value indicating whether the operation succeeded.\n     *\n     * Emits a {Transfer} event.\n     * @param to {address} wallet to transfer the token\n     * @param amount {uint256[]} amount to transfer\n     */\n    function transfer(address to, uint256 amount) external contractValid returns (bool) {\n        require(canTransfer(_msgSender(), _msgSender(), to, amount) == (hex\"51\"));\n        TokenContract.transferFrom(_msgSender(), to, amount);\n        return true;\n    }\n\n    /**\n     * @dev Transfer and send `amount` tokens from `from` to `to`\n     *\n     * Returns a boolean value indicating whether the operation succeeded.\n     *\n     * Emits a {Transfer} event.\n     * @param from {address} wallet from transfer the token\n     * @param to {address} wallet to transfer the token\n     * @param amount {uint256[]} amount to transfer\n     */\n    function transferFrom(address from, address to, uint256 amount) external contractValid returns (bool) {\n        require(canTransfer(_msgSender(), from, to, amount) == (hex\"51\"));\n        TokenContract.transferFrom(from, to, amount);\n        return true;\n    }\n\n    /**\n     * @notice Interface of transfer method, return hex code error message\n     * @param operator {address} operator of transaction (sender)\n     * @param from {address} the origin of the token transfer\n     * @param to {address} the recipient of the token transfer\n     * @param value {uint256} the number of tokens transferred\n     * @return hex {bytes1} code error message\n     */\n    function canTransfer(\n        address operator,\n        address from,\n        address to,\n        uint256 value\n    ) public view contractValid returns (bytes1) {\n        if (TokenContract.balanceOf(from) < value) return(hex\"52\");\n        if(_now() < TokenContract.isPaused()) return(hex\"54\");\n        if(TokenContract.balanceOf(from) - frozenTokens[from] - (freezedPeriod[from].amountFreezed) < value) return(hex\"55\");\n        if(from == address(0)) return(hex\"56\");\n        if(to == address(0)) return(hex\"57\");\n        if(!isAgent(operator) && OWNER != operator && from != operator ) return(hex\"58\");\n        if(frozen[from]) return(hex\"5a\");\n        if(frozen[to]) return(hex\"5b\");\n        if(TokenContract.getRules().soulBoundSecurityToken == true) return(hex\"5c\");\n        return (hex\"51\");\n    }\n\n    /**\n     *  @notice Force an address wallet to transfer by agent\n     *  @param from {address} from wallet to transfer\n     *  @param to {address} to wallet to transfer\n     *  @param amount {uint256} amounts of tokens to be transfered\n     */\n    function forceTransfer(\n        address from,\n        address to,\n        uint256 amount\n    ) external onlyAgent contractValid returns (bool) {\n        require(TokenContract.getRules().forcableTransfer == true, \"forceTransfer is not authorized on this contract\");\n        uint256 freeBalance = eligibleBalanceOf(from);\n\n        if (amount > freeBalance) {\n            uint256 tokensToUnfreeze = amount - (TokenContract.balanceOf(from) - frozenTokens[from]);\n            if (amount > TokenContract.balanceOf(from) - frozenTokens[from]) {\n                frozenTokens[from] = frozenTokens[from] - (tokensToUnfreeze);\n                emit TokensUnfrozen(from, tokensToUnfreeze);\n            }\n            if (amount - tokensToUnfreeze > TokenContract.balanceOf(from) - (freezedPeriod[from].amountFreezed)) {\n                uint256 tokensToUnfreezePeriod = \n                amount - tokensToUnfreeze - (TokenContract.balanceOf(from) - freezedPeriod[from].amountFreezed);\n                freezedPeriod[from].amountFreezed = freezedPeriod[from].amountFreezed - (tokensToUnfreezePeriod);\n                emit TokensUnfrozenPeriod(from, tokensToUnfreeze);\n            }\n        }\n\n        TokenContract.transferFrom(from, to, amount);\n        return true;\n    }\n\n    /**\n     *  @notice Return freezed or not wallet address tokens\n     *  @param userAddress {address} of the user\n     *  @return frozen {bool} represents freezed wallet address\n     */\n    function isFrozen(address userAddress) external view onlyReader returns (bool) {\n        return frozen[userAddress];\n    }\n\n    /**\n     *  @notice Return freezed tokens amount of wallet address\n     *  @param userAddress {address} of the user\n     *  @return frozenTokens {uint256} amount of freezed tokens\n     */\n    function getFrozenTokens(address userAddress) external view returns (uint256) {\n        return frozenTokens[userAddress];\n    }\n\n    /**\n     *  @notice Freeze totality tokens of single wallet address\n     *  @param userAddress {address} of the user\n     *  @param freeze {boolean} representing freezing\n     */\n    function setAddressFrozen(address userAddress, bool freeze) public onlyAgent contractValid {\n        require(TokenContract.getRules().freezableAddress == true, \"Freeze address is not allowed\");\n        frozen[userAddress] = freeze;\n        emit AddressFrozen(userAddress, freeze, _msgSender());\n    }\n\n    /**\n     *  @notice Freeze totality tokens of multiples wallet addresses\n     *  @param userAddresses {address[]} of user addresses\n     *  @param freeze {bool[]} representing freezing\n     */\n    function batchSetAddressFrozen(address[] calldata userAddresses, bool[] calldata freeze) external {\n        for (uint256 i = 0; i < userAddresses.length; i++) {\n            setAddressFrozen(userAddresses[i], freeze[i]);\n        }\n    }\n\n    /**\n     *  @notice Freeze patial tokens of single wallet\n     *  @param userAddress {address} of the user\n     *  @param amount {uint256} of token to be unfreezed\n     */\n    function freezePartialTokens(address userAddress, uint256 amount) public onlyAgent contractValid {\n        require(TokenContract.getRules().freezablePartial == true, \"Freeze partial address is not allowed\");\n        uint256 balance = TokenContract.balanceOf(userAddress);\n        require(balance >= frozenTokens[userAddress] + amount, \"Amount exceeds available balance\");\n        frozenTokens[userAddress] = frozenTokens[userAddress] + (amount);\n        emit TokensFrozen(userAddress, amount);\n    }\n\n    /**\n     *  @notice Freeze patial tokens of multiples wallets\n     *  @param userAddresses {address[]} of user addresses\n     *  @param amounts {uint256[]} of amounts of token to be unfreezed\n     */\n    function batchFreezePartialTokens(address[] calldata userAddresses, uint256[] calldata amounts) external {\n        for (uint256 i = 0; i < userAddresses.length; i++) {\n            freezePartialTokens(userAddresses[i], amounts[i]);\n        }\n    }\n\n    /**\n     *  @notice Unfreeze patial tokens of single wallet\n     *  @param userAddress {address} of the user\n     *  @param amount {uint256} of token to be unfreezed\n     */\n    function unfreezePartialTokens(address userAddress, uint256 amount) public onlyAgent contractValid {\n        require(TokenContract.getRules().freezablePartial == true, \"Freeze partial address is not allowed\");\n        require(frozenTokens[userAddress] >= amount, \"Amount should be less than or equal to frozen tokens\");\n        frozenTokens[userAddress] = frozenTokens[userAddress] - (amount);\n        emit TokensUnfrozen(userAddress, amount);\n    }\n\n    /**\n     *  @notice Unfreeze patial tokens of multiples wallets\n     *  @param userAddresses {address[]} of user addresses\n     *  @param amounts {uint256[]} of amounts of token to be unfreezed\n     */\n    function batchUnfreezePartialTokens(address[] calldata userAddresses, uint256[] calldata amounts) external {\n        for (uint256 i = 0; i < userAddresses.length; i++) {\n            unfreezePartialTokens(userAddresses[i], amounts[i]);\n        }\n    }\n\n    /**\n     * @notice Freeze token of one address wallet periodically\n     * @param startTime {uint256} Start time of freezing partial token\n     * @param endTime {uint256} End time of freezing partial token\n     * @param amountFreezed {uint256} Amount of frozen token\n     * @param userAddress {address} Address wallet of the user frozen token\n     */\n    function setFreezedTokensPeriod(\n        uint256 startTime,\n        uint256 endTime,\n        uint256 amountFreezed,\n        address userAddress\n    ) external onlyAgent contractValid {\n        require(TokenContract.getRules().freezablePartialTime == true, \"Freeze partial period address is not allowed\");\n        require(amountFreezed <= TokenContract.balanceOf(userAddress), \"Amount is upper than balance of user\");\n        freezedPeriod[userAddress] = TokenLibrary.FreezePeriod(\n            startTime,\n            endTime,\n            amountFreezed\n        );\n        emit TokensFrozenPeriod(userAddress, startTime, endTime, amountFreezed, _msgSender());\n    }\n\n    /**\n     * @notice Retrieve struct of freezed tokens in period of msg.sender\n     * @return freezedPeriod {TokenLibrary.FreezePeriod} struct of freezed tokens in period\n     */\n    function myFreezedTokensPeriod() external view returns (TokenLibrary.FreezePeriod memory) {\n        return freezedPeriod[_msgSender()];\n    }\n\n    /**\n     * @notice Retrieve struct of freezed tokens in period of one wallet address by agent\n     * @param userAddress {address} of the user freezed tokens\n     * @return freezedPeriod {TokenLibrary.FreezePeriod} struct of freezed tokens in period\n     */\n    function getFreezedTokensPeriod(address userAddress) external view onlyAgent returns (TokenLibrary.FreezePeriod memory) {\n        return freezedPeriod[userAddress];\n    }\n\n    /**\n     * @notice Get unlockable tokens freezed in period for msg.sender\n     * @return unlockable {uint256} of unlockable tokens freezed in period\n     */\n    function unlockableTokensPeriod() public view returns (uint256) {\n        TokenLibrary.FreezePeriod memory freezedPeriodTemp = freezedPeriod[_msgSender()];\n\n        require(freezedPeriodTemp.amountFreezed > 0, \"No token to unfreeze\");\n        require(_now() - freezedPeriodTemp.startTime > 30, \"Time for redeem is too short\");\n\n        uint256 diff = freezedPeriodTemp.endTime - freezedPeriodTemp.startTime;\n        uint256 timeBehind = _now() - freezedPeriodTemp.startTime;\n\n        return timeBehind.mul(100).div(diff).mul(freezedPeriodTemp.amountFreezed).div(100);\n    }\n\n    /**\n     * @notice Redeem unlockable freezed tokens periodically\n     * @return success {bool} success of redeeming tokens\n     */\n    function redeemFreezedTokens() external returns (bool) {\n        uint256 unlockable = unlockableTokensPeriod();\n        if(unlockable <= 0) return false;\n\n        freezedPeriod[_msgSender()].startTime = _now();\n        freezedPeriod[_msgSender()].amountFreezed = freezedPeriod[_msgSender()].amountFreezed - unlockable;\n\n        emit TokensUnfrozenPeriod(_msgSender(), unlockable);\n\n        return true;\n    }\n\n    /**\n     * @notice Owner request (and request for withdraw if _rules.voteToWithdraw == true) with a comment and amount (Request can't be equal to last request and set request restart all votes)\n     * @param _messageRequest {string} message comment of request\n     * @param _amountRequest {uint256} amount of request\n     */\n    function setRequest(string memory _messageRequest, uint256 _amountRequest) external onlyOwner {\n        require(compare(messageRequest, _messageRequest) == false, \"Request can't be equal to last request\");\n        messageRequest = _messageRequest;\n        amountRequest = _amountRequest;\n        acceptedRequest = 0;\n        refusedRequest = 0;\n    }\n\n    /**\n     * @notice Get request to by owner\n     * @return request {string, uint256, uint256, uint256} (messageRequest, amountRequest, acceptedRequest, refusedRequest)\n     */\n    function getRequest() external view returns(string memory , uint256, uint256, uint256) {\n        return (\n            messageRequest,\n            amountRequest,\n            acceptedRequest,\n            refusedRequest\n        );\n    }\n\n    /**\n     * @notice Shareholder vote to the request of owner\n     * @param vote {boolean} accept (true) or reject (false) request\n     * @param amount {uint256} amount of vote request, need to be lower than balance of shareholder\n     */\n    function voteToRequest(bool vote, uint256 amount) external contractValid {\n        require(TokenContract.balanceOf(_msgSender()) >= amount, \"Balance of sender is lower than the amount\");\n        require(compare(hasVoted[_msgSender()], messageRequest) == false, \"Sender has already voted to this request\");\n        hasVoted[_msgSender()] = messageRequest;\n        if(vote == true) acceptedRequest += amount;\n        if(vote == false) refusedRequest += amount;\n    }\n\n    /**\n     * @notice Withdraw tokens amount of contract balance\n     * @param amount {uint256} the number of tokens transferred\n     * @param receiver {address} the recipient of the token transfer\n     */\n    function withdraw(uint256 amount, address receiver) external onlyOwner contractValid {\n        withdrawable(amount);\n        TokenLibrary.Rules memory _rules = TokenContract.getRules();\n        if(_rules.dayToWithdraw != 0)\n            lastWithdraw += oneDay.mul(_rules.dayToWithdraw).mul(amount);\n        if(_rules.voteToWithdraw == true) amountRequest = 0;\n        bool success = TokenContract.withdraw(amount, receiver);\n        require(success, \"Withdraw failed\");\n    }\n\n    /**\n     * @notice Check if amout is withdrawable\n     * @param amount {uint256} the number of tokens withdraw\n     * @return weiWithdrawable {uint256} the number of wei transferrable\n     */\n    function withdrawable(uint256 amount) public view contractValid returns(uint256 weiWithdrawable) {\n        TokenLibrary.Rules memory _rules = TokenContract.getRules();\n        if(_rules.dayToWithdraw != 0)\n            weiWithdrawable = ((_now() - lastWithdraw).div(oneDay.mul(_rules.dayToWithdraw)));\n        require(_rules.voteToWithdraw == false || (acceptedRequest> refusedRequest && amount <= amountRequest), \"No vote accepted\");\n        require(weiWithdrawable >= amount || _rules.dayToWithdraw == 0, \"Not enough funds to withdraw\");\n        require(lastWithdraw + oneDay.mul(_rules.dayToWithdraw).mul(amount) <= _now() || _rules.dayToWithdraw == 0, \"Time incorrect\");\n    }\n}",
  "sourcePath": "/home/solid-solution/Bureau/HOMEWORK/Smart-Starter/smart-contract/contracts/proxy/ProxySecurityToken.sol",
  "compiler": {
    "name": "solc",
    "version": "0.8.11+commit.d7f03943.Emscripten.clang"
  },
  "schemaVersion": "3.4.10",
  "updatedAt": "2023-02-22T22:44:44.434Z",
  "devdoc": {
    "kind": "dev",
    "methods": {
      "batchFreezePartialTokens(address[],uint256[])": {
        "params": {
          "amounts": "{uint256[]} of amounts of token to be unfreezed",
          "userAddresses": "{address[]} of user addresses"
        }
      },
      "batchSetAddressFrozen(address[],bool[])": {
        "params": {
          "freeze": "{bool[]} representing freezing",
          "userAddresses": "{address[]} of user addresses"
        }
      },
      "batchUnfreezePartialTokens(address[],uint256[])": {
        "params": {
          "amounts": "{uint256[]} of amounts of token to be unfreezed",
          "userAddresses": "{address[]} of user addresses"
        }
      },
      "burn(address,uint256)": {
        "params": {
          "account": "{address} wallet to burn the token",
          "amount": "{uint256} amount to burn"
        }
      },
      "canTransfer(address,address,address,uint256)": {
        "params": {
          "from": "{address} the origin of the token transfer",
          "operator": "{address} operator of transaction (sender)",
          "to": "{address} the recipient of the token transfer",
          "value": "{uint256} the number of tokens transferred"
        },
        "returns": {
          "_0": "hex {bytes1} code error message"
        }
      },
      "eligibleBalanceOf(address)": {
        "params": {
          "account": "{address} wallet address of account you want to get not freezed balance"
        },
        "returns": {
          "_0": "balance {uint256} balance of wallet address totaly open"
        }
      },
      "forceTransfer(address,address,uint256)": {
        "params": {
          "amount": "{uint256} amounts of tokens to be transfered",
          "from": "{address} from wallet to transfer",
          "to": "{address} to wallet to transfer"
        }
      },
      "freezePartialTokens(address,uint256)": {
        "params": {
          "amount": "{uint256} of token to be unfreezed",
          "userAddress": "{address} of the user"
        }
      },
      "getFreezedTokensPeriod(address)": {
        "params": {
          "userAddress": "{address} of the user freezed tokens"
        },
        "returns": {
          "_0": "freezedPeriod {TokenLibrary.FreezePeriod} struct of freezed tokens in period"
        }
      },
      "getFrozenTokens(address)": {
        "params": {
          "userAddress": "{address} of the user"
        },
        "returns": {
          "_0": "frozenTokens {uint256} amount of freezed tokens"
        }
      },
      "getRequest()": {
        "returns": {
          "_0": "request {string, uint256, uint256, uint256} (messageRequest, amountRequest, acceptedRequest, refusedRequest)"
        }
      },
      "isFrozen(address)": {
        "params": {
          "userAddress": "{address} of the user"
        },
        "returns": {
          "_0": "frozen {bool} represents freezed wallet address"
        }
      },
      "mint(address,uint256)": {
        "params": {
          "amount": "{uint256} amount to mint",
          "to": "{address} wallet to send the token"
        },
        "returns": {
          "_0": "result {boolean} success or failure"
        }
      },
      "myFreezedTokensPeriod()": {
        "returns": {
          "_0": "freezedPeriod {TokenLibrary.FreezePeriod} struct of freezed tokens in period"
        }
      },
      "owner()": {
        "returns": {
          "_0": "owner {address} wallet addres from owner"
        }
      },
      "redeemFreezedTokens()": {
        "returns": {
          "_0": "success {bool} success of redeeming tokens"
        }
      },
      "refoundable(uint256)": {
        "params": {
          "amount": "{uint256} amout of tokens burn"
        },
        "returns": {
          "_0": "wei {uint256} amount of wei refoundable"
        }
      },
      "renounceOwnership()": {
        "details": "Leaves the contract without owner. It will not be possible to call `onlyOwner` functions anymore. Can only be called by the current owner. NOTE: Renouncing ownership will leave the contract without an owner, thereby removing any functionality that is only available to the owner."
      },
      "setAddressFrozen(address,bool)": {
        "params": {
          "freeze": "{boolean} representing freezing",
          "userAddress": "{address} of the user"
        }
      },
      "setFreezedTokensPeriod(uint256,uint256,uint256,address)": {
        "params": {
          "amountFreezed": "{uint256} Amount of frozen token",
          "endTime": "{uint256} End time of freezing partial token",
          "startTime": "{uint256} Start time of freezing partial token",
          "userAddress": "{address} Address wallet of the user frozen token"
        }
      },
      "setRequest(string,uint256)": {
        "params": {
          "_amountRequest": "{uint256} amount of request",
          "_messageRequest": "{string} message comment of request"
        }
      },
      "setSecurityTokenImmutable(address)": {
        "params": {
          "_securityTokenImmutableAddress": "{address} address of security token immutable contract"
        }
      },
      "transfer(address,uint256)": {
        "details": "Transfer and send `amount` tokens from `_msgSender()` to `to` Returns a boolean value indicating whether the operation succeeded. Emits a {Transfer} event.",
        "params": {
          "amount": "{uint256[]} amount to transfer",
          "to": "{address} wallet to transfer the token"
        }
      },
      "transferFrom(address,address,uint256)": {
        "details": "Transfer and send `amount` tokens from `from` to `to` Returns a boolean value indicating whether the operation succeeded. Emits a {Transfer} event.",
        "params": {
          "amount": "{uint256[]} amount to transfer",
          "from": "{address} wallet from transfer the token",
          "to": "{address} wallet to transfer the token"
        }
      },
      "transferOwnership(address)": {
        "params": {
          "account": "{address} address of the new owner"
        }
      },
      "unfreezePartialTokens(address,uint256)": {
        "params": {
          "amount": "{uint256} of token to be unfreezed",
          "userAddress": "{address} of the user"
        }
      },
      "unlockableTokensPeriod()": {
        "returns": {
          "_0": "unlockable {uint256} of unlockable tokens freezed in period"
        }
      },
      "version()": {
        "returns": {
          "_0": "TOKEN_VERSION {string} version of the smart contract"
        }
      },
      "voteToRequest(bool,uint256)": {
        "params": {
          "amount": "{uint256} amount of vote request, need to be lower than balance of shareholder",
          "vote": "{boolean} accept (true) or reject (false) request"
        }
      },
      "withdraw(uint256,address)": {
        "params": {
          "amount": "{uint256} the number of tokens transferred",
          "receiver": "{address} the recipient of the token transfer"
        }
      },
      "withdrawable(uint256)": {
        "params": {
          "amount": "{uint256} the number of tokens withdraw"
        },
        "returns": {
          "weiWithdrawable": "{uint256} the number of wei transferrable"
        }
      }
    },
    "version": 1
  },
  "userdoc": {
    "kind": "user",
    "methods": {
      "batchFreezePartialTokens(address[],uint256[])": {
        "notice": "Freeze patial tokens of multiples wallets"
      },
      "batchSetAddressFrozen(address[],bool[])": {
        "notice": "Freeze totality tokens of multiples wallet addresses"
      },
      "batchUnfreezePartialTokens(address[],uint256[])": {
        "notice": "Unfreeze patial tokens of multiples wallets"
      },
      "burn(address,uint256)": {
        "notice": "Remove `amount` tokens from `account` Returns a boolean value indicating whether the operation succeeded. Emits a {Transfer} event."
      },
      "canTransfer(address,address,address,uint256)": {
        "notice": "Interface of transfer method, return hex code error message"
      },
      "eligibleBalanceOf(address)": {
        "notice": "Return not freezed tokens from an address wallet"
      },
      "forceTransfer(address,address,uint256)": {
        "notice": "Force an address wallet to transfer by agent"
      },
      "freezePartialTokens(address,uint256)": {
        "notice": "Freeze patial tokens of single wallet"
      },
      "getFreezedTokensPeriod(address)": {
        "notice": "Retrieve struct of freezed tokens in period of one wallet address by agent"
      },
      "getFrozenTokens(address)": {
        "notice": "Return freezed tokens amount of wallet address"
      },
      "getRequest()": {
        "notice": "Get request to by owner"
      },
      "isFrozen(address)": {
        "notice": "Return freezed or not wallet address tokens"
      },
      "mint(address,uint256)": {
        "notice": "Mint and send `amount` tokens to `to` Returns a boolean value indicating whether the operation succeeded. Emits a {Transfer} event."
      },
      "myFreezedTokensPeriod()": {
        "notice": "Retrieve struct of freezed tokens in period of msg.sender"
      },
      "owner()": {
        "notice": "Returns the address wallet of the smart contract owner."
      },
      "redeemFreezedTokens()": {
        "notice": "Redeem unlockable freezed tokens periodically"
      },
      "refoundable(uint256)": {
        "notice": "Return amount of refoundable for amount of tokens burned"
      },
      "setAddressFrozen(address,bool)": {
        "notice": "Freeze totality tokens of single wallet address"
      },
      "setFreezedTokensPeriod(uint256,uint256,uint256,address)": {
        "notice": "Freeze token of one address wallet periodically"
      },
      "setRequest(string,uint256)": {
        "notice": "Owner request (and request for withdraw if _rules.voteToWithdraw == true) with a comment and amount (Request can't be equal to last request and set request restart all votes)"
      },
      "setSecurityTokenImmutable(address)": {
        "notice": "set the contract address of security token immutable"
      },
      "transferOwnership(address)": {
        "notice": "Transfer ownership of the smart contract"
      },
      "unfreezePartialTokens(address,uint256)": {
        "notice": "Unfreeze patial tokens of single wallet"
      },
      "unlockableTokensPeriod()": {
        "notice": "Get unlockable tokens freezed in period for msg.sender"
      },
      "version()": {
        "notice": "Returns the version of the token contract"
      },
      "voteToRequest(bool,uint256)": {
        "notice": "Shareholder vote to the request of owner"
      },
      "withdraw(uint256,address)": {
        "notice": "Withdraw tokens amount of contract balance"
      },
      "withdrawable(uint256)": {
        "notice": "Check if amout is withdrawable"
      }
    },
    "version": 1
  }
}