{
  "contractName": "ProxySecurityToken",
  "abi": [
    {
      "inputs": [
        {
          "internalType": "uint256",
          "name": "_pricePerToken",
          "type": "uint256"
        }
      ],
      "stateMutability": "nonpayable",
      "type": "constructor"
    },
    {
      "inputs": [
        {
          "internalType": "address",
          "name": "account",
          "type": "address"
        },
        {
          "internalType": "uint256",
          "name": "accountBalance",
          "type": "uint256"
        },
        {
          "internalType": "uint256",
          "name": "amount",
          "type": "uint256"
        }
      ],
      "name": "BurnAmountExceedsBalance",
      "type": "error"
    },
    {
      "inputs": [
        {
          "internalType": "address",
          "name": "account",
          "type": "address"
        }
      ],
      "name": "BurnFromZeroAddress",
      "type": "error"
    },
    {
      "inputs": [
        {
          "internalType": "address",
          "name": "account",
          "type": "address"
        },
        {
          "internalType": "uint256",
          "name": "previousBalance",
          "type": "uint256"
        },
        {
          "internalType": "uint256",
          "name": "currentBalance",
          "type": "uint256"
        },
        {
          "internalType": "uint256",
          "name": "amount",
          "type": "uint256"
        }
      ],
      "name": "MintDoesNotWork",
      "type": "error"
    },
    {
      "inputs": [
        {
          "internalType": "address",
          "name": "account",
          "type": "address"
        }
      ],
      "name": "MintFromZeroAddress",
      "type": "error"
    },
    {
      "inputs": [
        {
          "internalType": "address",
          "name": "sender",
          "type": "address"
        }
      ],
      "name": "NotAgent",
      "type": "error"
    },
    {
      "inputs": [
        {
          "internalType": "address",
          "name": "sender",
          "type": "address"
        }
      ],
      "name": "NotReader",
      "type": "error"
    },
    {
      "inputs": [
        {
          "internalType": "address",
          "name": "sender",
          "type": "address"
        },
        {
          "internalType": "bytes32",
          "name": "role",
          "type": "bytes32"
        }
      ],
      "name": "NotTheOwner",
      "type": "error"
    },
    {
      "inputs": [
        {
          "internalType": "uint256",
          "name": "fromBalance",
          "type": "uint256"
        },
        {
          "internalType": "address",
          "name": "from",
          "type": "address"
        },
        {
          "internalType": "uint256",
          "name": "amount",
          "type": "uint256"
        }
      ],
      "name": "TransferAmountExceedsBalance",
      "type": "error"
    },
    {
      "inputs": [
        {
          "internalType": "address",
          "name": "from",
          "type": "address"
        }
      ],
      "name": "TransferFromZeroAddress",
      "type": "error"
    },
    {
      "inputs": [
        {
          "internalType": "address",
          "name": "to",
          "type": "address"
        }
      ],
      "name": "TransferToZeroAddress",
      "type": "error"
    },
    {
      "anonymous": false,
      "inputs": [
        {
          "indexed": true,
          "internalType": "address",
          "name": "userAddress",
          "type": "address"
        },
        {
          "indexed": true,
          "internalType": "bool",
          "name": "freeze",
          "type": "bool"
        },
        {
          "indexed": true,
          "internalType": "address",
          "name": "sender",
          "type": "address"
        }
      ],
      "name": "AddressFrozen",
      "type": "event"
    },
    {
      "anonymous": false,
      "inputs": [
        {
          "indexed": true,
          "internalType": "address",
          "name": "_agent",
          "type": "address"
        }
      ],
      "name": "AgentAdded",
      "type": "event"
    },
    {
      "anonymous": false,
      "inputs": [
        {
          "indexed": true,
          "internalType": "address",
          "name": "_agent",
          "type": "address"
        }
      ],
      "name": "AgentRemoved",
      "type": "event"
    },
    {
      "anonymous": false,
      "inputs": [
        {
          "indexed": true,
          "internalType": "address",
          "name": "previousOwner",
          "type": "address"
        },
        {
          "indexed": true,
          "internalType": "address",
          "name": "newOwner",
          "type": "address"
        }
      ],
      "name": "OwnershipTransferred",
      "type": "event"
    },
    {
      "anonymous": false,
      "inputs": [
        {
          "indexed": true,
          "internalType": "address",
          "name": "sender",
          "type": "address"
        },
        {
          "indexed": true,
          "internalType": "uint256",
          "name": "paused",
          "type": "uint256"
        }
      ],
      "name": "Paused",
      "type": "event"
    },
    {
      "anonymous": false,
      "inputs": [
        {
          "indexed": true,
          "internalType": "address",
          "name": "_reader",
          "type": "address"
        }
      ],
      "name": "ReaderAdded",
      "type": "event"
    },
    {
      "anonymous": false,
      "inputs": [
        {
          "indexed": true,
          "internalType": "address",
          "name": "_reader",
          "type": "address"
        }
      ],
      "name": "ReaderRemoved",
      "type": "event"
    },
    {
      "anonymous": false,
      "inputs": [
        {
          "indexed": true,
          "internalType": "address",
          "name": "userAddress",
          "type": "address"
        },
        {
          "indexed": true,
          "internalType": "uint256",
          "name": "amount",
          "type": "uint256"
        }
      ],
      "name": "TokensFrozen",
      "type": "event"
    },
    {
      "anonymous": false,
      "inputs": [
        {
          "indexed": true,
          "internalType": "address",
          "name": "userAddress",
          "type": "address"
        },
        {
          "indexed": true,
          "internalType": "uint256",
          "name": "startTime",
          "type": "uint256"
        },
        {
          "indexed": true,
          "internalType": "uint256",
          "name": "endTime",
          "type": "uint256"
        },
        {
          "indexed": false,
          "internalType": "uint256",
          "name": "amount",
          "type": "uint256"
        },
        {
          "indexed": false,
          "internalType": "address",
          "name": "signer",
          "type": "address"
        }
      ],
      "name": "TokensFrozenPeriod",
      "type": "event"
    },
    {
      "anonymous": false,
      "inputs": [
        {
          "indexed": true,
          "internalType": "address",
          "name": "userAddress",
          "type": "address"
        },
        {
          "indexed": true,
          "internalType": "uint256",
          "name": "amount",
          "type": "uint256"
        }
      ],
      "name": "TokensUnfrozen",
      "type": "event"
    },
    {
      "anonymous": false,
      "inputs": [
        {
          "indexed": true,
          "internalType": "address",
          "name": "userAddress",
          "type": "address"
        },
        {
          "indexed": true,
          "internalType": "uint256",
          "name": "amount",
          "type": "uint256"
        }
      ],
      "name": "TokensUnfrozenPeriod",
      "type": "event"
    },
    {
      "anonymous": false,
      "inputs": [
        {
          "indexed": false,
          "internalType": "string",
          "name": "eventType",
          "type": "string"
        },
        {
          "indexed": true,
          "internalType": "address",
          "name": "from",
          "type": "address"
        },
        {
          "indexed": true,
          "internalType": "address",
          "name": "to",
          "type": "address"
        },
        {
          "indexed": false,
          "internalType": "uint256",
          "name": "value",
          "type": "uint256"
        }
      ],
      "name": "Transfer",
      "type": "event"
    },
    {
      "anonymous": false,
      "inputs": [
        {
          "indexed": true,
          "internalType": "address",
          "name": "oldAccount",
          "type": "address"
        },
        {
          "indexed": true,
          "internalType": "address",
          "name": "newAccount",
          "type": "address"
        }
      ],
      "name": "TransferOwnership",
      "type": "event"
    },
    {
      "inputs": [],
      "name": "TokenContract",
      "outputs": [
        {
          "internalType": "contract ISecurityTokenImmutable",
          "name": "",
          "type": "address"
        }
      ],
      "stateMutability": "view",
      "type": "function"
    },
    {
      "inputs": [],
      "name": "_now",
      "outputs": [
        {
          "internalType": "uint256",
          "name": "",
          "type": "uint256"
        }
      ],
      "stateMutability": "view",
      "type": "function"
    },
    {
      "inputs": [
        {
          "internalType": "address",
          "name": "_agent",
          "type": "address"
        }
      ],
      "name": "addAgent",
      "outputs": [],
      "stateMutability": "nonpayable",
      "type": "function"
    },
    {
      "inputs": [
        {
          "internalType": "address",
          "name": "_reader",
          "type": "address"
        }
      ],
      "name": "addReader",
      "outputs": [],
      "stateMutability": "nonpayable",
      "type": "function"
    },
    {
      "inputs": [
        {
          "internalType": "string",
          "name": "str1",
          "type": "string"
        },
        {
          "internalType": "string",
          "name": "str2",
          "type": "string"
        }
      ],
      "name": "compare",
      "outputs": [
        {
          "internalType": "bool",
          "name": "",
          "type": "bool"
        }
      ],
      "stateMutability": "pure",
      "type": "function"
    },
    {
      "inputs": [
        {
          "internalType": "address",
          "name": "_agent",
          "type": "address"
        }
      ],
      "name": "isAgent",
      "outputs": [
        {
          "internalType": "bool",
          "name": "",
          "type": "bool"
        }
      ],
      "stateMutability": "view",
      "type": "function"
    },
    {
      "inputs": [
        {
          "internalType": "address",
          "name": "_reader",
          "type": "address"
        }
      ],
      "name": "isReader",
      "outputs": [
        {
          "internalType": "bool",
          "name": "",
          "type": "bool"
        }
      ],
      "stateMutability": "view",
      "type": "function"
    },
    {
      "inputs": [
        {
          "internalType": "address",
          "name": "_agent",
          "type": "address"
        }
      ],
      "name": "removeAgent",
      "outputs": [],
      "stateMutability": "nonpayable",
      "type": "function"
    },
    {
      "inputs": [
        {
          "internalType": "address",
          "name": "_reader",
          "type": "address"
        }
      ],
      "name": "removeReader",
      "outputs": [],
      "stateMutability": "nonpayable",
      "type": "function"
    },
    {
      "inputs": [],
      "name": "renounceOwnership",
      "outputs": [],
      "stateMutability": "nonpayable",
      "type": "function"
    },
    {
      "inputs": [
        {
          "internalType": "address",
          "name": "_securityTokenImmutableAddress",
          "type": "address"
        }
      ],
      "name": "setSecurityTokenImmutable",
      "outputs": [],
      "stateMutability": "nonpayable",
      "type": "function"
    },
    {
      "inputs": [],
      "name": "version",
      "outputs": [
        {
          "internalType": "string",
          "name": "",
          "type": "string"
        }
      ],
      "stateMutability": "pure",
      "type": "function"
    },
    {
      "inputs": [],
      "name": "owner",
      "outputs": [
        {
          "internalType": "address",
          "name": "",
          "type": "address"
        }
      ],
      "stateMutability": "view",
      "type": "function"
    },
    {
      "inputs": [
        {
          "internalType": "address",
          "name": "account",
          "type": "address"
        }
      ],
      "name": "transferOwnership",
      "outputs": [],
      "stateMutability": "nonpayable",
      "type": "function"
    },
    {
      "inputs": [
        {
          "internalType": "address",
          "name": "account",
          "type": "address"
        }
      ],
      "name": "eligibleBalanceOf",
      "outputs": [
        {
          "internalType": "uint256",
          "name": "",
          "type": "uint256"
        }
      ],
      "stateMutability": "view",
      "type": "function"
    },
    {
      "inputs": [
        {
          "internalType": "address",
          "name": "to",
          "type": "address"
        },
        {
          "internalType": "uint256",
          "name": "amount",
          "type": "uint256"
        }
      ],
      "name": "mint",
      "outputs": [
        {
          "internalType": "bool",
          "name": "",
          "type": "bool"
        }
      ],
      "stateMutability": "payable",
      "type": "function"
    },
    {
      "inputs": [
        {
          "internalType": "address",
          "name": "account",
          "type": "address"
        },
        {
          "internalType": "uint256",
          "name": "amount",
          "type": "uint256"
        }
      ],
      "name": "burn",
      "outputs": [
        {
          "internalType": "bool",
          "name": "",
          "type": "bool"
        }
      ],
      "stateMutability": "nonpayable",
      "type": "function"
    },
    {
      "inputs": [
        {
          "internalType": "uint256",
          "name": "amount",
          "type": "uint256"
        }
      ],
      "name": "refoundable",
      "outputs": [
        {
          "internalType": "uint256",
          "name": "",
          "type": "uint256"
        }
      ],
      "stateMutability": "view",
      "type": "function"
    },
    {
      "inputs": [
        {
          "internalType": "address",
          "name": "to",
          "type": "address"
        },
        {
          "internalType": "uint256",
          "name": "amount",
          "type": "uint256"
        }
      ],
      "name": "transfer",
      "outputs": [
        {
          "internalType": "bool",
          "name": "",
          "type": "bool"
        }
      ],
      "stateMutability": "nonpayable",
      "type": "function"
    },
    {
      "inputs": [
        {
          "internalType": "address",
          "name": "from",
          "type": "address"
        },
        {
          "internalType": "address",
          "name": "to",
          "type": "address"
        },
        {
          "internalType": "uint256",
          "name": "amount",
          "type": "uint256"
        }
      ],
      "name": "transferFrom",
      "outputs": [
        {
          "internalType": "bool",
          "name": "",
          "type": "bool"
        }
      ],
      "stateMutability": "nonpayable",
      "type": "function"
    },
    {
      "inputs": [
        {
          "internalType": "address",
          "name": "operator",
          "type": "address"
        },
        {
          "internalType": "address",
          "name": "from",
          "type": "address"
        },
        {
          "internalType": "address",
          "name": "to",
          "type": "address"
        },
        {
          "internalType": "uint256",
          "name": "value",
          "type": "uint256"
        }
      ],
      "name": "canTransfer",
      "outputs": [
        {
          "internalType": "bytes1",
          "name": "",
          "type": "bytes1"
        }
      ],
      "stateMutability": "view",
      "type": "function"
    },
    {
      "inputs": [
        {
          "internalType": "address",
          "name": "from",
          "type": "address"
        },
        {
          "internalType": "address",
          "name": "to",
          "type": "address"
        },
        {
          "internalType": "uint256",
          "name": "amount",
          "type": "uint256"
        }
      ],
      "name": "forceTransfer",
      "outputs": [
        {
          "internalType": "bool",
          "name": "",
          "type": "bool"
        }
      ],
      "stateMutability": "nonpayable",
      "type": "function"
    },
    {
      "inputs": [
        {
          "internalType": "address",
          "name": "userAddress",
          "type": "address"
        }
      ],
      "name": "isFrozen",
      "outputs": [
        {
          "internalType": "bool",
          "name": "",
          "type": "bool"
        }
      ],
      "stateMutability": "view",
      "type": "function"
    },
    {
      "inputs": [
        {
          "internalType": "address",
          "name": "userAddress",
          "type": "address"
        }
      ],
      "name": "getFrozenTokens",
      "outputs": [
        {
          "internalType": "uint256",
          "name": "",
          "type": "uint256"
        }
      ],
      "stateMutability": "view",
      "type": "function"
    },
    {
      "inputs": [
        {
          "internalType": "address",
          "name": "userAddress",
          "type": "address"
        },
        {
          "internalType": "bool",
          "name": "freeze",
          "type": "bool"
        }
      ],
      "name": "setAddressFrozen",
      "outputs": [],
      "stateMutability": "nonpayable",
      "type": "function"
    },
    {
      "inputs": [
        {
          "internalType": "address[]",
          "name": "userAddresses",
          "type": "address[]"
        },
        {
          "internalType": "bool[]",
          "name": "freeze",
          "type": "bool[]"
        }
      ],
      "name": "batchSetAddressFrozen",
      "outputs": [],
      "stateMutability": "nonpayable",
      "type": "function"
    },
    {
      "inputs": [
        {
          "internalType": "address",
          "name": "userAddress",
          "type": "address"
        },
        {
          "internalType": "uint256",
          "name": "amount",
          "type": "uint256"
        }
      ],
      "name": "freezePartialTokens",
      "outputs": [],
      "stateMutability": "nonpayable",
      "type": "function"
    },
    {
      "inputs": [
        {
          "internalType": "address[]",
          "name": "userAddresses",
          "type": "address[]"
        },
        {
          "internalType": "uint256[]",
          "name": "amounts",
          "type": "uint256[]"
        }
      ],
      "name": "batchFreezePartialTokens",
      "outputs": [],
      "stateMutability": "nonpayable",
      "type": "function"
    },
    {
      "inputs": [
        {
          "internalType": "address",
          "name": "userAddress",
          "type": "address"
        },
        {
          "internalType": "uint256",
          "name": "amount",
          "type": "uint256"
        }
      ],
      "name": "unfreezePartialTokens",
      "outputs": [],
      "stateMutability": "nonpayable",
      "type": "function"
    },
    {
      "inputs": [
        {
          "internalType": "address[]",
          "name": "userAddresses",
          "type": "address[]"
        },
        {
          "internalType": "uint256[]",
          "name": "amounts",
          "type": "uint256[]"
        }
      ],
      "name": "batchUnfreezePartialTokens",
      "outputs": [],
      "stateMutability": "nonpayable",
      "type": "function"
    },
    {
      "inputs": [
        {
          "internalType": "uint256",
          "name": "startTime",
          "type": "uint256"
        },
        {
          "internalType": "uint256",
          "name": "endTime",
          "type": "uint256"
        },
        {
          "internalType": "uint256",
          "name": "amountFreezed",
          "type": "uint256"
        },
        {
          "internalType": "address",
          "name": "userAddress",
          "type": "address"
        }
      ],
      "name": "setFreezedTokensPeriod",
      "outputs": [],
      "stateMutability": "nonpayable",
      "type": "function"
    },
    {
      "inputs": [],
      "name": "myFreezedTokensPeriod",
      "outputs": [
        {
          "components": [
            {
              "internalType": "uint256",
              "name": "startTime",
              "type": "uint256"
            },
            {
              "internalType": "uint256",
              "name": "endTime",
              "type": "uint256"
            },
            {
              "internalType": "uint256",
              "name": "amountFreezed",
              "type": "uint256"
            }
          ],
          "internalType": "struct TokenLibrary.FreezePeriod",
          "name": "",
          "type": "tuple"
        }
      ],
      "stateMutability": "view",
      "type": "function"
    },
    {
      "inputs": [
        {
          "internalType": "address",
          "name": "userAddress",
          "type": "address"
        }
      ],
      "name": "getFreezedTokensPeriod",
      "outputs": [
        {
          "components": [
            {
              "internalType": "uint256",
              "name": "startTime",
              "type": "uint256"
            },
            {
              "internalType": "uint256",
              "name": "endTime",
              "type": "uint256"
            },
            {
              "internalType": "uint256",
              "name": "amountFreezed",
              "type": "uint256"
            }
          ],
          "internalType": "struct TokenLibrary.FreezePeriod",
          "name": "",
          "type": "tuple"
        }
      ],
      "stateMutability": "view",
      "type": "function"
    },
    {
      "inputs": [],
      "name": "unlockableTokensPeriod",
      "outputs": [
        {
          "internalType": "uint256",
          "name": "",
          "type": "uint256"
        }
      ],
      "stateMutability": "view",
      "type": "function"
    },
    {
      "inputs": [],
      "name": "redeemFreezedTokens",
      "outputs": [
        {
          "internalType": "bool",
          "name": "",
          "type": "bool"
        }
      ],
      "stateMutability": "nonpayable",
      "type": "function"
    },
    {
      "inputs": [
        {
          "internalType": "uint256",
          "name": "amount",
          "type": "uint256"
        },
        {
          "internalType": "address",
          "name": "receiver",
          "type": "address"
        }
      ],
      "name": "withdraw",
      "outputs": [],
      "stateMutability": "nonpayable",
      "type": "function"
    },
    {
      "inputs": [
        {
          "internalType": "string",
          "name": "_messageRequestWithdraw",
          "type": "string"
        },
        {
          "internalType": "uint256",
          "name": "_amountRequestWithdraw",
          "type": "uint256"
        }
      ],
      "name": "setRequestWithdraw",
      "outputs": [],
      "stateMutability": "nonpayable",
      "type": "function"
    },
    {
      "inputs": [],
      "name": "getRequestWithdraw",
      "outputs": [
        {
          "internalType": "string",
          "name": "",
          "type": "string"
        },
        {
          "internalType": "uint256",
          "name": "",
          "type": "uint256"
        }
      ],
      "stateMutability": "view",
      "type": "function"
    },
    {
      "inputs": [
        {
          "internalType": "bool",
          "name": "vote",
          "type": "bool"
        },
        {
          "internalType": "uint256",
          "name": "amount",
          "type": "uint256"
        }
      ],
      "name": "voteToRequestWithdraw",
      "outputs": [],
      "stateMutability": "nonpayable",
      "type": "function"
    },
    {
      "inputs": [
        {
          "internalType": "uint256",
          "name": "amount",
          "type": "uint256"
        }
      ],
      "name": "withdrawable",
      "outputs": [
        {
          "internalType": "uint256",
          "name": "weiWithdrawable",
          "type": "uint256"
        }
      ],
      "stateMutability": "view",
      "type": "function"
    }
  ],
  "bytecode": "0x60a06040523480156200001157600080fd5b50604051620040bb380380620040bb8339810160408190526200003491620000b0565b80620000403362000060565b608052600880546001600160a01b031916331790554260045550620000ca565b600080546001600160a01b038381166001600160a01b0319831681178455604051919092169283917f8be0079c531659141344cd1fd0a4f28419497f9722a3daafe3b4186f6b6457e09190a35050565b600060208284031215620000c357600080fd5b5051919050565b608051613fd5620000e660003960006117170152613fd56000f3fe60806040526004361061023a5760003560e01c806385269dcb1161012e578063afde442a116100ab578063d65180b01161006f578063d65180b0146106f8578063e583983614610718578063f11988e014610738578063f2fde38b14610758578063fc7e5fa81461077857600080fd5b8063afde442a1461067b578063b3bb8cd41461069b578063c69c09cf146106ae578063c7464bf1146106ce578063c7b0d8b7146106e357600080fd5b80639d200d1f116100f25780639d200d1f146105e65780639dc29fac146105fb578063a9059cbb1461061b578063ac5cb96e1461063b578063afd8b1d11461065b57600080fd5b806385269dcb14610534578063881bd973146105545780638da5cb5b146105745780639688738b146105a657806397a6278e146105c657600080fd5b806340c10f19116101bc5780636d62a4fe116101805780636d62a4fe146104615780636df686301461049a578063715018a6146104dc5780637b3fc775146104f157806384e798421461051457600080fd5b806340c10f19146103ba5780634710362d146103cd57806354fd4d50146103ed578063586abfbd1461042157806369a7ddf71461044157600080fd5b80631ffbb064116102035780631ffbb0641461030a57806323b872dd1461033a57806333bebb771461035a57806338d65d111461037a5780633a96fdd71461039a57600080fd5b8062f714ce1461023f578063125c4a3314610261578063158b1a57146102815780631a7af379146102ca5780631fe56f7d146102ea575b600080fd5b34801561024b57600080fd5b5061025f61025a366004613843565b610798565b005b34801561026d57600080fd5b5061025f61027c36600461386f565b610967565b34801561028d57600080fd5b506102b761029c366004613899565b6001600160a01b031660009081526010602052604090205490565b6040519081526020015b60405180910390f35b3480156102d657600080fd5b5061025f6102e5366004613900565b610bcb565b3480156102f657600080fd5b5061025f61030536600461386f565b610c40565b34801561031657600080fd5b5061032a610325366004613899565b610e22565b60405190151581526020016102c1565b34801561034657600080fd5b5061032a61035536600461396c565b610e35565b34801561036657600080fd5b5061032a61037536600461396c565b610f0f565b34801561038657600080fd5b5061025f610395366004613899565b611436565b3480156103a657600080fd5b5061032a6103b5366004613a75565b611480565b61032a6103c836600461386f565b6114ea565b3480156103d957600080fd5b5061025f6103e8366004613900565b611870565b3480156103f957600080fd5b506040805180820182526005815264302e302e3160d81b602082015290516102c19190613b31565b34801561042d57600080fd5b506102b761043c366004613b44565b6118d5565b34801561044d57600080fd5b5061032a61045c366004613899565b6119a6565b34801561046d57600080fd5b5061048161047c366004613b5d565b6119b3565b6040516001600160f81b031990911681526020016102c1565b3480156104a657600080fd5b506104ba6104b5366004613899565b611d1c565b60408051825181526020808401519082015291810151908201526060016102c1565b3480156104e857600080fd5b5061025f611dae565b3480156104fd57600080fd5b50610506611dc2565b6040516102c1929190613ba8565b34801561052057600080fd5b5061025f61052f366004613899565b611f0a565b34801561054057600080fd5b5061025f61054f366004613bca565b611f54565b34801561056057600080fd5b5061025f61056f366004613899565b6121e4565b34801561058057600080fd5b506008546001600160a01b03165b6040516001600160a01b0390911681526020016102c1565b3480156105b257600080fd5b5060155461058e906001600160a01b031681565b3480156105d257600080fd5b5061025f6105e1366004613899565b61220e565b3480156105f257600080fd5b506102b7612258565b34801561060757600080fd5b5061032a61061636600461386f565b61237f565b34801561062757600080fd5b5061032a61063636600461386f565b6127df565b34801561064757600080fd5b5061025f610656366004613c1a565b6128c4565b34801561066757600080fd5b5061025f610676366004613899565b612c61565b34801561068757600080fd5b506102b7610696366004613899565b612cab565b3480156106a757600080fd5b50426102b7565b3480156106ba57600080fd5b5061025f6106c9366004613c38565b612d7c565b3480156106da57600080fd5b506104ba612eef565b3480156106ef57600080fd5b5061032a612f4d565b34801561070457600080fd5b5061025f610713366004613c6f565b612fd1565b34801561072457600080fd5b5061032a610733366004613899565b61318e565b34801561074457600080fd5b506102b7610753366004613b44565b6131f0565b34801561076457600080fd5b5061025f610773366004613899565b613405565b34801561078457600080fd5b5061025f610793366004613900565b613469565b6107a06134ce565b6015546001600160a01b03166107d15760405162461bcd60e51b81526004016107c890613cb4565b60405180910390fd5b6107da826131f0565b50601554604080516322f14c2560e11b815290516000926001600160a01b0316916345e2984a916004808301926101809291908290030181865afa158015610826573d6000803e3d6000fd5b505050506040513d601f19601f8201168201806040525081019061084a9190613cf6565b90508061010001516000146108955761087e836108788361010001516201518061352890919063ffffffff16565b90613528565b6004600082825461088f9190613dde565b90915550505b60e08101511515600114156108aa5760006005555b601554604051627b8a6760e11b8152600481018590526001600160a01b038481166024830152600092169062f714ce906044016020604051808303816000875af11580156108fc573d6000803e3d6000fd5b505050506040513d601f19601f820116820180604052508101906109209190613df6565b9050806109615760405162461bcd60e51b815260206004820152600f60248201526e15da5d1a191c985dc819985a5b1959608a1b60448201526064016107c8565b50505050565b61097033610e22565b15801561098857506008546001600160a01b03163314155b156109b457335b6040516352f49c9560e01b81526001600160a01b0390911660048201526024016107c8565b6015546001600160a01b03166109dc5760405162461bcd60e51b81526004016107c890613cb4565b601560009054906101000a90046001600160a01b03166001600160a01b03166345e2984a6040518163ffffffff1660e01b815260040161018060405180830381865afa158015610a30573d6000803e3d6000fd5b505050506040513d601f19601f82011682018060405250810190610a549190613cf6565b602001511515600114610a795760405162461bcd60e51b81526004016107c890613e13565b6015546040516370a0823160e01b81526001600160a01b03848116600483015260009216906370a0823190602401602060405180830381865afa158015610ac4573d6000803e3d6000fd5b505050506040513d601f19601f82011682018060405250810190610ae89190613e58565b6001600160a01b038416600090815260106020526040902054909150610b0f908390613dde565b811015610b5e5760405162461bcd60e51b815260206004820181905260248201527f416d6f756e74206578636565647320617661696c61626c652062616c616e636560448201526064016107c8565b6001600160a01b038316600090815260106020526040902054610b82908390613dde565b6001600160a01b03841660008181526010602052604080822093909355915184927fa065e63c631c86f1b9f66a4a2f63f2093bf1c2168d23290259dbd969e0222a4591a3505050565b60005b83811015610c3957610c27858583818110610beb57610beb613e71565b9050602002016020810190610c009190613899565b848484818110610c1257610c12613e71565b90506020020160208101906106c99190613e87565b80610c3181613ea4565b915050610bce565b5050505050565b610c4933610e22565b158015610c6157506008546001600160a01b03163314155b15610c6c573361098f565b6015546001600160a01b0316610c945760405162461bcd60e51b81526004016107c890613cb4565b601560009054906101000a90046001600160a01b03166001600160a01b03166345e2984a6040518163ffffffff1660e01b815260040161018060405180830381865afa158015610ce8573d6000803e3d6000fd5b505050506040513d601f19601f82011682018060405250810190610d0c9190613cf6565b602001511515600114610d315760405162461bcd60e51b81526004016107c890613e13565b6001600160a01b038216600090815260106020526040902054811115610db65760405162461bcd60e51b815260206004820152603460248201527f416d6f756e742073686f756c64206265206c657373207468616e206f7220657160448201527375616c20746f2066726f7a656e20746f6b656e7360601b60648201526084016107c8565b6001600160a01b038216600090815260106020526040902054610dda908290613ebf565b6001600160a01b03831660008181526010602052604080822093909355915183927f9bed35cb62ad0dba04f9d5bfee4b5bc91443e77da8a65c4c84834c51bb08b0d691a35050565b6000610e2f60018361353b565b92915050565b6015546000906001600160a01b0316610e605760405162461bcd60e51b81526004016107c890613cb4565b605160f81b610e71338686866119b3565b6001600160f81b03191614610e8557600080fd5b6015546040516323b872dd60e01b81526001600160a01b038681166004830152858116602483015260448201859052909116906323b872dd906064016020604051808303816000875af1158015610ee0573d6000803e3d6000fd5b505050506040513d601f19601f82011682018060405250810190610f049190613df6565b506001949350505050565b6000610f1a33610e22565b158015610f3257506008546001600160a01b03163314155b15610f3d573361098f565b6015546001600160a01b0316610f655760405162461bcd60e51b81526004016107c890613cb4565b601560009054906101000a90046001600160a01b03166001600160a01b03166345e2984a6040518163ffffffff1660e01b815260040161018060405180830381865afa158015610fb9573d6000803e3d6000fd5b505050506040513d601f19601f82011682018060405250810190610fdd9190613cf6565b60800151151560011461104b5760405162461bcd60e51b815260206004820152603060248201527f666f7263655472616e73666572206973206e6f7420617574686f72697a65642060448201526f1bdb881d1a1a5cc818dbdb9d1c9858dd60821b60648201526084016107c8565b600061105685612cab565b9050808311156113ab576001600160a01b038581166000818152601060205260408082205460155491516370a0823160e01b81526004810194909452919391929116906370a0823190602401602060405180830381865afa1580156110bf573d6000803e3d6000fd5b505050506040513d601f19601f820116820180604052508101906110e39190613e58565b6110ed9190613ebf565b6110f79085613ebf565b6001600160a01b03878116600081815260106020526040908190205460155491516370a0823160e01b81526004810193909352939450909116906370a0823190602401602060405180830381865afa158015611157573d6000803e3d6000fd5b505050506040513d601f19601f8201168201806040525081019061117b9190613e58565b6111859190613ebf565b8411156111f5576001600160a01b0386166000908152601060205260409020546111b0908290613ebf565b6001600160a01b03871660008181526010602052604080822093909355915183927f9bed35cb62ad0dba04f9d5bfee4b5bc91443e77da8a65c4c84834c51bb08b0d691a35b6001600160a01b038681166000818152600f6020526040908190206002015460155491516370a0823160e01b815260048101939093529216906370a0823190602401602060405180830381865afa158015611254573d6000803e3d6000fd5b505050506040513d601f19601f820116820180604052508101906112789190613e58565b6112829190613ebf565b61128c8286613ebf565b11156113a9576001600160a01b038681166000818152600f60205260408082206002015460155491516370a0823160e01b81526004810194909452919391929116906370a0823190602401602060405180830381865afa1580156112f4573d6000803e3d6000fd5b505050506040513d601f19601f820116820180604052508101906113189190613e58565b6113229190613ebf565b61132c8387613ebf565b6113369190613ebf565b6001600160a01b0388166000908152600f6020526040902060020154909150611360908290613ebf565b6001600160a01b0388166000818152600f602052604080822060020193909355915184927f86fc01e32674e4237a61b84eece63ddaf61eb7a3034e3cc7f8ca90558431f68e91a3505b505b6015546040516323b872dd60e01b81526001600160a01b038781166004830152868116602483015260448201869052909116906323b872dd906064016020604051808303816000875af1158015611406573d6000803e3d6000fd5b505050506040513d601f19601f8201168201806040525081019061142a9190613df6565b50600195945050505050565b61143e6134ce565b6114496002826135be565b6040516001600160a01b038216907fe933431644458f1217f9e93d3e000e03c9bbbe55761046d0985c2e4d157bcbaa90600090a250565b6000815183511461149357506000610e2f565b816040516020016114a49190613ed6565b60405160208183030381529060405280519060200120836040516020016114cb9190613ed6565b6040516020818303038152906040528051906020012014905092915050565b6000816000601560009054906101000a90046001600160a01b03166001600160a01b03166345e2984a6040518163ffffffff1660e01b815260040161018060405180830381865afa158015611543573d6000803e3d6000fd5b505050506040513d601f19601f820116820180604052508101906115679190613cf6565b90508061012001516115764290565b10156115c45760405162461bcd60e51b815260206004820152601760248201527f46756e6472616973696e67206e6f74207374617274656400000000000000000060448201526064016107c8565b610140810151421115806115db5750610140810151155b61161b5760405162461bcd60e51b8152602060048201526011602482015270119d5b991c985a5cda5b99c8195b991959607a1b60448201526064016107c8565b610160810151601554604080516318160ddd60e01b8152905185926001600160a01b0316916318160ddd9160048083019260209291908290030181865afa15801561166a573d6000803e3d6000fd5b505050506040513d601f19601f8201168201806040525081019061168e9190613e58565b6116989190613dde565b1115806116a85750610160810151155b6116e95760405162461bcd60e51b815260206004820152601260248201527113585e081cdd5c1c1b1e481c995858da195960721b60448201526064016107c8565b6015546001600160a01b03166117115760405162461bcd60e51b81526004016107c890613cb4565b61173b847f0000000000000000000000000000000000000000000000000000000000000000613ef2565b34101561177b5760405162461bcd60e51b815260206004820152600e60248201526d09cdee840cadcdeeaced040cae8d60931b60448201526064016107c8565b6015546040516340c10f1960e01b81526001600160a01b03878116600483015260248201879052909116906340c10f19906044016020604051808303816000875af11580156117ce573d6000803e3d6000fd5b505050506040513d601f19601f820116820180604052508101906117f29190613df6565b506015546001600160a01b03166341bb26d334336040516001600160e01b031960e085901b1681526001600160a01b03909116600482015260240160206040518083038185885af115801561184b573d6000803e3d6000fd5b50505050506040513d601f19601f8201168201806040525081019061142a9190613df6565b60005b83811015610c39576118c385858381811061189057611890613e71565b90506020020160208101906118a59190613899565b8484848181106118b7576118b7613e71565b90506020020135610c40565b806118cd81613ea4565b915050611873565b6015546000906001600160a01b03166119005760405162461bcd60e51b81526004016107c890613cb4565b610e2f826108786119836064601560009054906101000a90046001600160a01b03166001600160a01b03166318160ddd6040518163ffffffff1660e01b8152600401602060405180830381865afa15801561195f573d6000803e3d6000fd5b505050506040513d601f19601f820116820180604052508101906108789190613e58565b60155461199b906001600160a01b0316316064613528565b90613640565b919050565b6000610e2f60028361353b565b6015546000906001600160a01b03166119de5760405162461bcd60e51b81526004016107c890613cb4565b6015546040516370a0823160e01b81526001600160a01b038681166004830152849216906370a0823190602401602060405180830381865afa158015611a28573d6000803e3d6000fd5b505050506040513d601f19601f82011682018060405250810190611a4c9190613e58565b1015611a5d5750602960f91b611d14565b601560009054906101000a90046001600160a01b03166001600160a01b031663b187bd266040518163ffffffff1660e01b8152600401602060405180830381865afa158015611ab0573d6000803e3d6000fd5b505050506040513d601f19601f82011682018060405250810190611ad49190613e58565b421015611ae65750601560fa1b611d14565b6001600160a01b038481166000818152600f60209081526040808320600201546010909252918290205460155492516370a0823160e01b81526004810194909452869491939092909116906370a0823190602401602060405180830381865afa158015611b57573d6000803e3d6000fd5b505050506040513d601f19601f82011682018060405250810190611b7b9190613e58565b611b859190613ebf565b611b8f9190613ebf565b1015611ba05750605560f81b611d14565b6001600160a01b038416611bb95750602b60f91b611d14565b6001600160a01b038316611bd25750605760f81b611d14565b611bdb85610e22565b158015611bf657506008546001600160a01b03868116911614155b8015611c145750846001600160a01b0316846001600160a01b031614155b15611c245750600b60fb1b611d14565b6001600160a01b03841660009081526012602052604090205460ff1615611c505750602d60f91b611d14565b6001600160a01b03831660009081526012602052604090205460ff1615611c7c5750605b60f81b611d14565b601560009054906101000a90046001600160a01b03166001600160a01b03166345e2984a6040518163ffffffff1660e01b815260040161018060405180830381865afa158015611cd0573d6000803e3d6000fd5b505050506040513d601f19601f82011682018060405250810190611cf49190613cf6565b60c00151151560011415611d0d5750601760fa1b611d14565b50605160f81b5b949350505050565b611d4060405180606001604052806000815260200160008152602001600081525090565b611d4933610e22565b158015611d6157506008546001600160a01b03163314155b15611d6c573361098f565b506001600160a01b03166000908152600f6020908152604091829020825160608101845281548152600182015492810192909252600201549181019190915290565b611db66134ce565b611dc0600061364c565b565b6060600080601560009054906101000a90046001600160a01b03166001600160a01b03166345e2984a6040518163ffffffff1660e01b815260040161018060405180830381865afa158015611e1b573d6000803e3d6000fd5b505050506040513d601f19601f82011682018060405250810190611e3f9190613cf6565b600954909150600160381b900460ff161515600114611e705760405162461bcd60e51b81526004016107c890613f11565b6014600554818054611e8190613f48565b80601f0160208091040260200160405190810160405280929190818152602001828054611ead90613f48565b8015611efa5780601f10611ecf57610100808354040283529160200191611efa565b820191906000526020600020905b815481529060010190602001808311611edd57829003601f168201915b5050505050915092509250509091565b611f126134ce565b611f1d60018261369c565b6040516001600160a01b038216907ff68e73cec97f2d70aa641fb26e87a4383686e2efacb648f2165aeb02ac562ec590600090a250565b611f5d33610e22565b158015611f7557506008546001600160a01b03163314155b15611f80573361098f565b6015546001600160a01b0316611fa85760405162461bcd60e51b81526004016107c890613cb4565b601560009054906101000a90046001600160a01b03166001600160a01b03166345e2984a6040518163ffffffff1660e01b815260040161018060405180830381865afa158015611ffc573d6000803e3d6000fd5b505050506040513d601f19601f820116820180604052508101906120209190613cf6565b60400151151560011461208a5760405162461bcd60e51b815260206004820152602c60248201527f467265657a65207061727469616c20706572696f64206164647265737320697360448201526b081b9bdd08185b1b1bddd95960a21b60648201526084016107c8565b6015546040516370a0823160e01b81526001600160a01b038381166004830152909116906370a0823190602401602060405180830381865afa1580156120d4573d6000803e3d6000fd5b505050506040513d601f19601f820116820180604052508101906120f89190613e58565b8211156121535760405162461bcd60e51b8152602060048201526024808201527f416d6f756e74206973207570706572207468616e2062616c616e6365206f66206044820152633ab9b2b960e11b60648201526084016107c8565b6040805160608101825285815260208082018681528284018681526001600160a01b0386166000818152600f909452949092209251835551600183015551600290910155839085907fe73f01da0d1ab22feed9447b4801c099a6ebe22122e907da28300e12381a67068533604080519283526001600160a01b0390911660208301520160405180910390a450505050565b6121ec6134ce565b601580546001600160a01b0319166001600160a01b0392909216919091179055565b6122166134ce565b6122216001826135be565b6040516001600160a01b038216907fed9c8ad8d5a0a66898ea49d2956929c93ae2e8bd50281b2ed897c5d1a6737e0b90600090a250565b336000908152600f60209081526040808320815160608101835281548152600182015493810193909352600201549082018190526122cf5760405162461bcd60e51b81526020600482015260146024820152734e6f20746f6b656e20746f20756e667265657a6560601b60448201526064016107c8565b8051601e906122de9042613ebf565b1161232b5760405162461bcd60e51b815260206004820152601c60248201527f54696d6520666f722072656465656d20697320746f6f2073686f72740000000060448201526064016107c8565b8051602082015160009161233e91613ebf565b82519091506000906123509042613ebf565b9050612377606461199b85604001516108788661199b60648861352890919063ffffffff16565b935050505090565b6015546000906001600160a01b03166123aa5760405162461bcd60e51b81526004016107c890613cb4565b60006123b584612cab565b90508083111561270a576001600160a01b038481166000818152601060205260408082205460155491516370a0823160e01b81526004810194909452919391929116906370a0823190602401602060405180830381865afa15801561241e573d6000803e3d6000fd5b505050506040513d601f19601f820116820180604052508101906124429190613e58565b61244c9190613ebf565b6124569085613ebf565b6001600160a01b03868116600081815260106020526040908190205460155491516370a0823160e01b81526004810193909352939450909116906370a0823190602401602060405180830381865afa1580156124b6573d6000803e3d6000fd5b505050506040513d601f19601f820116820180604052508101906124da9190613e58565b6124e49190613ebf565b841115612554576001600160a01b03851660009081526010602052604090205461250f908290613ebf565b6001600160a01b03861660008181526010602052604080822093909355915183927f9bed35cb62ad0dba04f9d5bfee4b5bc91443e77da8a65c4c84834c51bb08b0d691a35b6001600160a01b038581166000818152600f6020526040908190206002015460155491516370a0823160e01b815260048101939093529216906370a0823190602401602060405180830381865afa1580156125b3573d6000803e3d6000fd5b505050506040513d601f19601f820116820180604052508101906125d79190613e58565b6125e19190613ebf565b6125eb8286613ebf565b1115612708576001600160a01b038581166000818152600f60205260408082206002015460155491516370a0823160e01b81526004810194909452919391929116906370a0823190602401602060405180830381865afa158015612653573d6000803e3d6000fd5b505050506040513d601f19601f820116820180604052508101906126779190613e58565b6126819190613ebf565b61268b8387613ebf565b6126959190613ebf565b6001600160a01b0387166000908152600f60205260409020600201549091506126bf908290613ebf565b6001600160a01b0387166000818152600f602052604080822060020193909355915184927f86fc01e32674e4237a61b84eece63ddaf61eb7a3034e3cc7f8ca90558431f68e91a3505b505b6000612715846118d5565b601554604051637a94c56560e11b81526001600160a01b03888116600483015260248201889052604482018490529293506000929091169063f5298aca906064016020604051808303816000875af1158015612775573d6000803e3d6000fd5b505050506040513d601f19601f820116820180604052508101906127999190613df6565b90508061142a5760405162461bcd60e51b81526020600482015260146024820152732330b4b632b2103a379039b2b7321022ba3432b960611b60448201526064016107c8565b6015546000906001600160a01b031661280a5760405162461bcd60e51b81526004016107c890613cb4565b605160f81b61281b333386866119b3565b6001600160f81b0319161461282f57600080fd5b6015546001600160a01b03166323b872dd336040516001600160e01b031960e084901b1681526001600160a01b0391821660048201529086166024820152604481018590526064016020604051808303816000875af1158015612896573d6000803e3d6000fd5b505050506040513d601f19601f820116820180604052508101906128ba9190613df6565b5060019392505050565b601554604080516322f14c2560e11b815290516000926001600160a01b0316916345e2984a916004808301926101809291908290030181865afa15801561290f573d6000803e3d6000fd5b505050506040513d601f19601f820116820180604052508101906129339190613cf6565b600954909150600160381b900460ff1615156001146129645760405162461bcd60e51b81526004016107c890613f11565b6015546001600160a01b031661298c5760405162461bcd60e51b81526004016107c890613cb4565b60155482906001600160a01b03166370a08231336040516001600160e01b031960e084901b1681526001600160a01b039091166004820152602401602060405180830381865afa1580156129e4573d6000803e3d6000fd5b505050506040513d601f19601f82011682018060405250810190612a089190613e58565b1015612a695760405162461bcd60e51b815260206004820152602a60248201527f42616c616e6365206f662073656e646572206973206c6f776572207468616e206044820152691d1a1948185b5bdd5b9d60b21b60648201526084016107c8565b3360009081526011602052604090208054612b969190612a8890613f48565b80601f0160208091040260200160405190810160405280929190818152602001828054612ab490613f48565b8015612b015780601f10612ad657610100808354040283529160200191612b01565b820191906000526020600020905b815481529060010190602001808311612ae457829003601f168201915b505050505060148054612b1390613f48565b80601f0160208091040260200160405190810160405280929190818152602001828054612b3f90613f48565b8015612b8c5780601f10612b6157610100808354040283529160200191612b8c565b820191906000526020600020905b815481529060010190602001808311612b6f57829003601f168201915b5050505050611480565b15612bf45760405162461bcd60e51b815260206004820152602860248201527f53656e6465722068617320616c726561647920766f74656420746f2074686973604482015267081c995c5d595cdd60c21b60648201526084016107c8565b33600090815260116020526040902060148054612c1090613f48565b612c1b929190613718565b5060018315151415612c3f578160066000828254612c399190613dde565b90915550505b82612c5c578160076000828254612c569190613dde565b90915550505b505050565b612c696134ce565b612c7460028261369c565b6040516001600160a01b038216907fb7724d890d2888af5a3fc456edb667e2c82c4441449ebcac301c618759e4f86d90600090a250565b6015546000906001600160a01b0316612cd65760405162461bcd60e51b81526004016107c890613cb4565b6001600160a01b038281166000818152600f60209081526040808320600201546010909252918290205460155492516370a0823160e01b81526004810194909452909390929116906370a0823190602401602060405180830381865afa158015612d44573d6000803e3d6000fd5b505050506040513d601f19601f82011682018060405250810190612d689190613e58565b612d729190613ebf565b610e2f9190613ebf565b612d8533610e22565b158015612d9d57506008546001600160a01b03163314155b15612da8573361098f565b6015546001600160a01b0316612dd05760405162461bcd60e51b81526004016107c890613cb4565b601560009054906101000a90046001600160a01b03166001600160a01b03166345e2984a6040518163ffffffff1660e01b815260040161018060405180830381865afa158015612e24573d6000803e3d6000fd5b505050506040513d601f19601f82011682018060405250810190612e489190613cf6565b511515600114612e9a5760405162461bcd60e51b815260206004820152601d60248201527f467265657a652061646472657373206973206e6f7420616c6c6f77656400000060448201526064016107c8565b6001600160a01b038216600081815260126020526040808220805460ff19168515159081179091559051339391927f7fa523c84ab8d7fc5b72f08b9e46dbbf10c39e119a075b3e317002d14bc9f43691a45050565b612f1360405180606001604052806000815260200160008152602001600081525090565b50336000908152600f6020908152604091829020825160608101845281548152600182015492810192909252600201549181019190915290565b600080612f58612258565b905060008111612f6a57600091505090565b336000908152600f6020526040902042815560020154612f8b908290613ebf565b336000818152600f602052604080822060020193909355915183927f86fc01e32674e4237a61b84eece63ddaf61eb7a3034e3cc7f8ca90558431f68e91a3600191505090565b601554604080516322f14c2560e11b815290516000926001600160a01b0316916345e2984a916004808301926101809291908290030181865afa15801561301c573d6000803e3d6000fd5b505050506040513d601f19601f820116820180604052508101906130409190613cf6565b600954909150600160381b900460ff1615156001146130715760405162461bcd60e51b81526004016107c890613f11565b6130796134ce565b61310d6014805461308990613f48565b80601f01602080910402602001604051908101604052809291908181526020018280546130b590613f48565b80156131025780601f106130d757610100808354040283529160200191613102565b820191906000526020600020905b8154815290600101906020018083116130e557829003601f168201915b505050505084611480565b156131695760405162461bcd60e51b815260206004820152602660248201527f526571756573742063616e277420626520657175616c20746f206c6173742072604482015265195c5d595cdd60d21b60648201526084016107c8565b825161317c9060149060208601906137a3565b50506005555060006006819055600755565b6000613199336119a6565b1580156131b157506008546001600160a01b03163314155b156131d1576040516325bfed0960e11b81523360048201526024016107c8565b506001600160a01b031660009081526012602052604090205460ff1690565b6015546000906001600160a01b031661321b5760405162461bcd60e51b81526004016107c890613cb4565b601554604080516322f14c2560e11b815290516000926001600160a01b0316916345e2984a916004808301926101809291908290030181865afa158015613266573d6000803e3d6000fd5b505050506040513d601f19601f8201168201806040525081019061328a9190613cf6565b90508061010001516000146132c7576132c46132b78261010001516201518061352890919063ffffffff16565b60045461199b9042613ebf565b91505b60e081015115806132e857506007546006541180156132e857506005548311155b6133275760405162461bcd60e51b815260206004820152601060248201526f139bc81d9bdd19481858d8d95c1d195960821b60448201526064016107c8565b82821015806133395750610100810151155b6133855760405162461bcd60e51b815260206004820152601c60248201527f4e6f7420656e6f7567682066756e647320746f2077697468647261770000000060448201526064016107c8565b426133a5846108788461010001516201518061352890919063ffffffff16565b6004546133b29190613dde565b1115806133c25750610100810151155b6133ff5760405162461bcd60e51b815260206004820152600e60248201526d151a5b59481a5b98dbdc9c9958dd60921b60448201526064016107c8565b50919050565b61340d6134ce565b6008546040516001600160a01b038084169216907f5c486528ec3e3f0ea91181cff8116f02bfa350e03b8b6f12e00765adbb5af85c90600090a3600880546001600160a01b0319166001600160a01b0392909216919091179055565b60005b83811015610c39576134bc85858381811061348957613489613e71565b905060200201602081019061349e9190613899565b8484848181106134b0576134b0613e71565b90506020020135610967565b806134c681613ea4565b91505061346c565b6008546001600160a01b03163314611dc05760405162461bcd60e51b815260206004820181905260248201527f4f776e61626c653a2063616c6c6572206973206e6f7420746865206f776e657260448201526064016107c8565b60006135348284613ef2565b9392505050565b60006001600160a01b03821661359e5760405162461bcd60e51b815260206004820152602260248201527f526f6c65733a206163636f756e7420697320746865207a65726f206164647265604482015261737360f01b60648201526084016107c8565b506001600160a01b03166000908152602091909152604090205460ff1690565b6135c8828261353b565b61361e5760405162461bcd60e51b815260206004820152602160248201527f526f6c65733a206163636f756e7420646f6573206e6f74206861766520726f6c6044820152606560f81b60648201526084016107c8565b6001600160a01b0316600090815260209190915260409020805460ff19169055565b60006135348284613f7d565b600080546001600160a01b038381166001600160a01b0319831681178455604051919092169283917f8be0079c531659141344cd1fd0a4f28419497f9722a3daafe3b4186f6b6457e09190a35050565b6136a6828261353b565b156136f35760405162461bcd60e51b815260206004820152601f60248201527f526f6c65733a206163636f756e7420616c72656164792068617320726f6c650060448201526064016107c8565b6001600160a01b0316600090815260209190915260409020805460ff19166001179055565b82805461372490613f48565b90600052602060002090601f0160209004810192826137465760008555613793565b82601f106137575780548555613793565b8280016001018555821561379357600052602060002091601f016020900482015b82811115613793578254825591600101919060010190613778565b5061379f929150613817565b5090565b8280546137af90613f48565b90600052602060002090601f0160209004810192826137d15760008555613793565b82601f106137ea57805160ff1916838001178555613793565b82800160010185558215613793579182015b828111156137935782518255916020019190600101906137fc565b5b8082111561379f5760008155600101613818565b80356001600160a01b03811681146119a157600080fd5b6000806040838503121561385657600080fd5b823591506138666020840161382c565b90509250929050565b6000806040838503121561388257600080fd5b61388b8361382c565b946020939093013593505050565b6000602082840312156138ab57600080fd5b6135348261382c565b60008083601f8401126138c657600080fd5b50813567ffffffffffffffff8111156138de57600080fd5b6020830191508360208260051b85010111156138f957600080fd5b9250929050565b6000806000806040858703121561391657600080fd5b843567ffffffffffffffff8082111561392e57600080fd5b61393a888389016138b4565b9096509450602087013591508082111561395357600080fd5b50613960878288016138b4565b95989497509550505050565b60008060006060848603121561398157600080fd5b61398a8461382c565b92506139986020850161382c565b9150604084013590509250925092565b634e487b7160e01b600052604160045260246000fd5b604051610180810167ffffffffffffffff811182821017156139e2576139e26139a8565b60405290565b600082601f8301126139f957600080fd5b813567ffffffffffffffff80821115613a1457613a146139a8565b604051601f8301601f19908116603f01168101908282118183101715613a3c57613a3c6139a8565b81604052838152866020858801011115613a5557600080fd5b836020870160208301376000602085830101528094505050505092915050565b60008060408385031215613a8857600080fd5b823567ffffffffffffffff80821115613aa057600080fd5b613aac868387016139e8565b93506020850135915080821115613ac257600080fd5b50613acf858286016139e8565b9150509250929050565b60005b83811015613af4578181015183820152602001613adc565b838111156109615750506000910152565b60008151808452613b1d816020860160208601613ad9565b601f01601f19169290920160200192915050565b6020815260006135346020830184613b05565b600060208284031215613b5657600080fd5b5035919050565b60008060008060808587031215613b7357600080fd5b613b7c8561382c565b9350613b8a6020860161382c565b9250613b986040860161382c565b9396929550929360600135925050565b604081526000613bbb6040830185613b05565b90508260208301529392505050565b60008060008060808587031215613be057600080fd5b843593506020850135925060408501359150613bfe6060860161382c565b905092959194509250565b8015158114613c1757600080fd5b50565b60008060408385031215613c2d57600080fd5b823561388b81613c09565b60008060408385031215613c4b57600080fd5b613c548361382c565b91506020830135613c6481613c09565b809150509250929050565b60008060408385031215613c8257600080fd5b823567ffffffffffffffff811115613c9957600080fd5b613ca5858286016139e8565b95602094909401359450505050565b6020808252601b908201527f546f6b656e20636f6e7472616374206973206e6f742076616c69640000000000604082015260600190565b80516119a181613c09565b60006101808284031215613d0957600080fd5b613d116139be565b613d1a83613ceb565b8152613d2860208401613ceb565b6020820152613d3960408401613ceb565b6040820152613d4a60608401613ceb565b6060820152613d5b60808401613ceb565b6080820152613d6c60a08401613ceb565b60a0820152613d7d60c08401613ceb565b60c0820152613d8e60e08401613ceb565b60e0820152610100838101519082015261012080840151908201526101408084015190820152610160928301519281019290925250919050565b634e487b7160e01b600052601160045260246000fd5b60008219821115613df157613df1613dc8565b500190565b600060208284031215613e0857600080fd5b815161353481613c09565b60208082526025908201527f467265657a65207061727469616c2061646472657373206973206e6f7420616c6040820152641b1bddd95960da1b606082015260800190565b600060208284031215613e6a57600080fd5b5051919050565b634e487b7160e01b600052603260045260246000fd5b600060208284031215613e9957600080fd5b813561353481613c09565b6000600019821415613eb857613eb8613dc8565b5060010190565b600082821015613ed157613ed1613dc8565b500390565b60008251613ee8818460208701613ad9565b9190910192915050565b6000816000190483118215151615613f0c57613f0c613dc8565b500290565b6020808252601c908201527f4e6f20766f746520726571756972656420746f20776974686472617700000000604082015260600190565b600181811c90821680613f5c57607f821691505b602082108114156133ff57634e487b7160e01b600052602260045260246000fd5b600082613f9a57634e487b7160e01b600052601260045260246000fd5b50049056fea2646970667358221220b92ba92534afd55b04836509be47b08845f6ec86f5ea716b495cf021361573cc64736f6c634300080b0033",
  "immutableReferences": {
    "1999": [
      {
        "length": 32,
        "start": 5911
      }
    ]
  },
  "source": "// SPDX-License-Identifier: MIT\n\npragma solidity ^0.8.0;\n\n\nimport \"../immutable/StorageToken.sol\";\nimport \"../library/TokenLibrary.sol\";\nimport \"../interfaces/ISecurityTokenImmutable.sol\";\nimport \"../interfaces/IProxySecurityToken.sol\";\nimport \"../roles/AgentRole.sol\";\nimport \"../roles/ReaderRole.sol\";\nimport \"@openzeppelin/contracts/access/Ownable.sol\";\nimport \"@openzeppelin/contracts/token/ERC20/ERC20.sol\";\nimport \"@openzeppelin/contracts/utils/math/SafeMath.sol\";\n\ncontract ProxySecurityToken is AgentRole, ReaderRole, StorageToken, IProxySecurityToken {\n    using SafeMath for uint;\n\n    ISecurityTokenImmutable public TokenContract;\n\n    /**\n     */\n    constructor(uint256 _pricePerToken) StorageToken(_pricePerToken) {\n        OWNER = _msgSender();\n        lastWithdraw = _now();\n    }\n\n    /**\n     * @notice set the contract address of security token immutable\n     * @param _securityTokenImmutableAddress {address} address of security token immutable contract\n     */\n    function setSecurityTokenImmutable(address _securityTokenImmutableAddress) external onlyOwner {\n        TokenContract = ISecurityTokenImmutable(_securityTokenImmutableAddress);\n    }\n\n    /// @dev Modifier to check if fundraising is open and max supply not reached.\n    modifier fundraisable(uint256 amount) {\n        TokenLibrary.Rules memory _rules = TokenContract.getRules();\n        require(_now() >= _rules.startFundraising, \"Fundraising not started\");\n        require(_now() <= _rules.endFundraising || _rules.endFundraising == 0, \"Fundraising ended\");\n        require(TokenContract.totalSupply() + amount <= _rules.maxSupply || _rules.maxSupply == 0, \"Max supply reached\");\n        _;\n    }\n\n    /// @dev Check if contract immutable is valid\n    modifier contractValid() {\n        require(address(TokenContract) != address(0), \"Token contract is not valid\");\n        _;\n    }\n\n    modifier withdrawVotable() {\n        TokenLibrary.Rules memory _rules = TokenContract.getRules();\n        require(rules.voteToWithdraw == true, \"No vote required to withdraw\");\n        _;\n    }\n\n    /**\n     * @notice Returns the version of the token contract\n     * @return TOKEN_VERSION {string} version of the smart contract\n     */\n    function version() external pure returns (string memory) {\n        return TOKEN_VERSION;\n    }\n\n    /**\n     * @notice Returns the address wallet of the smart contract owner.\n     * @return owner {address} wallet addres from owner\n     */\n    function owner() public view override(Ownable, IProxySecurityToken) returns (address) {\n        return OWNER;\n    }\n\n    /**\n     * @notice Transfer ownership of the smart contract\n     * @param account {address} address of the new owner\n     */\n    function transferOwnership(address account) public virtual override(Ownable, IProxySecurityToken) onlyOwner {\n        emit TransferOwnership(OWNER, account);\n        OWNER = account;\n    }\n\n    /**\n     * @notice Return not freezed tokens from an address wallet\n     * @param account {address} wallet address of account you want to get not freezed balance\n     * @return balance {uint256} balance of wallet address totaly open\n     */\n    function eligibleBalanceOf(address account) public view contractValid returns(uint256) {\n        return TokenContract.balanceOf(account) - frozenTokens[account] - (freezedPeriod[account].amountFreezed);\n    }\n\n    /**\n     * @notice Mint and send `amount` tokens to `to`\n     *\n     * Returns a boolean value indicating whether the operation succeeded.\n     *\n     * Emits a {Transfer} event.\n     * @param to {address} wallet to send the token\n     * @param amount {uint256} amount to mint\n     * @return result {boolean} success or failure\n     */\n    function mint(address to, uint256 amount) external payable fundraisable(amount) contractValid returns (bool) {\n        require(msg.value >= pricePerToken * amount, \"Not enough eth\");\n        TokenContract.mint(to, amount);\n        TokenContract.handlePayment{value: msg.value}(_msgSender());\n        return true;\n    }\n\n    /**\n     * @notice Remove `amount` tokens from `account`\n     *\n     * Returns a boolean value indicating whether the operation succeeded.\n     *\n     * Emits a {Transfer} event.\n     * @param account {address} wallet to burn the token\n     * @param amount {uint256} amount to burn\n     */\n    function burn(address account, uint256 amount)\n        external\n        contractValid\n        returns (bool)\n    {\n        uint256 freeBalance = eligibleBalanceOf(account);\n        if (amount > freeBalance) {\n            uint256 tokensToUnfreeze = amount - (TokenContract.balanceOf(account) - frozenTokens[account]);\n            if (amount > TokenContract.balanceOf(account) - frozenTokens[account]) {\n                frozenTokens[account] = frozenTokens[account] - (tokensToUnfreeze);\n                emit TokensUnfrozen(account, tokensToUnfreeze);\n            }\n            if (amount - tokensToUnfreeze > TokenContract.balanceOf(account) - (freezedPeriod[account].amountFreezed)) {\n                uint256 tokensToUnfreezePeriod =\n                amount - tokensToUnfreeze - (TokenContract.balanceOf(account) - freezedPeriod[account].amountFreezed);\n                freezedPeriod[account].amountFreezed = freezedPeriod[account].amountFreezed - (tokensToUnfreezePeriod);\n                emit TokensUnfrozenPeriod(account, tokensToUnfreeze);\n            }\n        }\n\n        uint256 _refoundable = refoundable(amount);\n\n        bool success = TokenContract.burn(account, amount, _refoundable);\n        require(success, \"Failed to send Ether\");\n\n        return true;\n    }\n\n    /**\n     * @notice Return amount of refoundable for amount of tokens burned\n     * @param amount {uint256} amout of tokens burn\n     * @return wei {uint256} amount of wei refoundable\n     */\n    function refoundable(uint256 amount) public view contractValid returns(uint256){\n        return (address(TokenContract).balance.mul(100).div(TokenContract.totalSupply().mul(100))).mul(amount);\n    }\n\n    /**\n     * @dev Transfer and send `amount` tokens from `_msgSender()` to `to`\n     *\n     * Returns a boolean value indicating whether the operation succeeded.\n     *\n     * Emits a {Transfer} event.\n     * @param to {address} wallet to transfer the token\n     * @param amount {uint256[]} amount to transfer\n     */\n    function transfer(address to, uint256 amount) external contractValid returns (bool) {\n        require(canTransfer(_msgSender(), _msgSender(), to, amount) == (hex\"51\"));\n        TokenContract.transferFrom(_msgSender(), to, amount);\n        return true;\n    }\n\n    /**\n     * @dev Transfer and send `amount` tokens from `from` to `to`\n     *\n     * Returns a boolean value indicating whether the operation succeeded.\n     *\n     * Emits a {Transfer} event.\n     * @param from {address} wallet from transfer the token\n     * @param to {address} wallet to transfer the token\n     * @param amount {uint256[]} amount to transfer\n     */\n    function transferFrom(address from, address to, uint256 amount) external contractValid returns (bool) {\n        require(canTransfer(_msgSender(), from, to, amount) == (hex\"51\"));\n        TokenContract.transferFrom(from, to, amount);\n        return true;\n    }\n\n    /**\n     * @notice Interface of transfer method, return hex code error message\n     * @param operator {address} operator of transaction (sender)\n     * @param from {address} the origin of the token transfer\n     * @param to {address} the recipient of the token transfer\n     * @param value {uint256} the number of tokens transferred\n     * @return hex {bytes1} code error message\n     */\n    function canTransfer(\n        address operator,\n        address from,\n        address to,\n        uint256 value\n    ) public view contractValid returns (bytes1) {\n        if (TokenContract.balanceOf(from) < value) return(hex\"52\");\n        if(_now() < TokenContract.isPaused()) return(hex\"54\");\n        if(TokenContract.balanceOf(from) - frozenTokens[from] - (freezedPeriod[from].amountFreezed) < value) return(hex\"55\");\n        if(from == address(0)) return(hex\"56\");\n        if(to == address(0)) return(hex\"57\");\n        if(!isAgent(operator) && OWNER != operator && from != operator ) return(hex\"58\");\n        if(frozen[from]) return(hex\"5a\");\n        if(frozen[to]) return(hex\"5b\");\n        if(TokenContract.getRules().soulBoundSecurityToken == true) return(hex\"5c\");\n        return (hex\"51\");\n    }\n\n    /**\n     *  @notice Force an address wallet to transfer by agent\n     *  @param from {address} from wallet to transfer\n     *  @param to {address} to wallet to transfer\n     *  @param amount {uint256} amounts of tokens to be transfered\n     */\n    function forceTransfer(\n        address from,\n        address to,\n        uint256 amount\n    ) external onlyAgent contractValid returns (bool) {\n        require(TokenContract.getRules().forcableTransfer == true, \"forceTransfer is not authorized on this contract\");\n        uint256 freeBalance = eligibleBalanceOf(from);\n\n        if (amount > freeBalance) {\n            uint256 tokensToUnfreeze = amount - (TokenContract.balanceOf(from) - frozenTokens[from]);\n            if (amount > TokenContract.balanceOf(from) - frozenTokens[from]) {\n                frozenTokens[from] = frozenTokens[from] - (tokensToUnfreeze);\n                emit TokensUnfrozen(from, tokensToUnfreeze);\n            }\n            if (amount - tokensToUnfreeze > TokenContract.balanceOf(from) - (freezedPeriod[from].amountFreezed)) {\n                uint256 tokensToUnfreezePeriod = \n                amount - tokensToUnfreeze - (TokenContract.balanceOf(from) - freezedPeriod[from].amountFreezed);\n                freezedPeriod[from].amountFreezed = freezedPeriod[from].amountFreezed - (tokensToUnfreezePeriod);\n                emit TokensUnfrozenPeriod(from, tokensToUnfreeze);\n            }\n        }\n\n        TokenContract.transferFrom(from, to, amount);\n        return true;\n    }\n\n    /**\n     *  @notice Return freezed or not wallet address tokens\n     *  @param userAddress {address} of the user\n     *  @return frozen {bool} represents freezed wallet address\n     */\n    function isFrozen(address userAddress) external view onlyReader returns (bool) {\n        return frozen[userAddress];\n    }\n\n    /**\n     *  @notice Return freezed tokens amount of wallet address\n     *  @param userAddress {address} of the user\n     *  @return frozenTokens {uint256} amount of freezed tokens\n     */\n    function getFrozenTokens(address userAddress) external view returns (uint256) {\n        return frozenTokens[userAddress];\n    }\n\n    /**\n     *  @notice Freeze totality tokens of single wallet address\n     *  @param userAddress {address} of the user\n     *  @param freeze {boolean} representing freezing\n     */\n    function setAddressFrozen(address userAddress, bool freeze) public onlyAgent contractValid {\n        require(TokenContract.getRules().freezableAddress == true, \"Freeze address is not allowed\");\n        frozen[userAddress] = freeze;\n        emit AddressFrozen(userAddress, freeze, _msgSender());\n    }\n\n    /**\n     *  @notice Freeze totality tokens of multiples wallet addresses\n     *  @param userAddresses {address[]} of user addresses\n     *  @param freeze {bool[]} representing freezing\n     */\n    function batchSetAddressFrozen(address[] calldata userAddresses, bool[] calldata freeze) external {\n        for (uint256 i = 0; i < userAddresses.length; i++) {\n            setAddressFrozen(userAddresses[i], freeze[i]);\n        }\n    }\n\n    /**\n     *  @notice Freeze patial tokens of single wallet\n     *  @param userAddress {address} of the user\n     *  @param amount {uint256} of token to be unfreezed\n     */\n    function freezePartialTokens(address userAddress, uint256 amount) public onlyAgent contractValid {\n        require(TokenContract.getRules().freezablePartial == true, \"Freeze partial address is not allowed\");\n        uint256 balance = TokenContract.balanceOf(userAddress);\n        require(balance >= frozenTokens[userAddress] + amount, \"Amount exceeds available balance\");\n        frozenTokens[userAddress] = frozenTokens[userAddress] + (amount);\n        emit TokensFrozen(userAddress, amount);\n    }\n\n    /**\n     *  @notice Freeze patial tokens of multiples wallets\n     *  @param userAddresses {address[]} of user addresses\n     *  @param amounts {uint256[]} of amounts of token to be unfreezed\n     */\n    function batchFreezePartialTokens(address[] calldata userAddresses, uint256[] calldata amounts) external {\n        for (uint256 i = 0; i < userAddresses.length; i++) {\n            freezePartialTokens(userAddresses[i], amounts[i]);\n        }\n    }\n\n    /**\n     *  @notice Unfreeze patial tokens of single wallet\n     *  @param userAddress {address} of the user\n     *  @param amount {uint256} of token to be unfreezed\n     */\n    function unfreezePartialTokens(address userAddress, uint256 amount) public onlyAgent contractValid {\n        require(TokenContract.getRules().freezablePartial == true, \"Freeze partial address is not allowed\");\n        require(frozenTokens[userAddress] >= amount, \"Amount should be less than or equal to frozen tokens\");\n        frozenTokens[userAddress] = frozenTokens[userAddress] - (amount);\n        emit TokensUnfrozen(userAddress, amount);\n    }\n\n    /**\n     *  @notice Unfreeze patial tokens of multiples wallets\n     *  @param userAddresses {address[]} of user addresses\n     *  @param amounts {uint256[]} of amounts of token to be unfreezed\n     */\n    function batchUnfreezePartialTokens(address[] calldata userAddresses, uint256[] calldata amounts) external {\n        for (uint256 i = 0; i < userAddresses.length; i++) {\n            unfreezePartialTokens(userAddresses[i], amounts[i]);\n        }\n    }\n\n    /**\n     * @notice Freeze token of one address wallet periodically\n     * @param startTime {uint256} Start time of freezing partial token\n     * @param endTime {uint256} End time of freezing partial token\n     * @param amountFreezed {uint256} Amount of frozen token\n     * @param userAddress {address} Address wallet of the user frozen token\n     */\n    function setFreezedTokensPeriod(\n        uint256 startTime,\n        uint256 endTime,\n        uint256 amountFreezed,\n        address userAddress\n    ) external onlyAgent contractValid {\n        require(TokenContract.getRules().freezablePartialTime == true, \"Freeze partial period address is not allowed\");\n        require(amountFreezed <= TokenContract.balanceOf(userAddress), \"Amount is upper than balance of user\");\n        freezedPeriod[userAddress] = TokenLibrary.FreezePeriod(\n            startTime,\n            endTime,\n            amountFreezed\n        );\n        emit TokensFrozenPeriod(userAddress, startTime, endTime, amountFreezed, _msgSender());\n    }\n\n    /**\n     * @notice Retrieve struct of freezed tokens in period of msg.sender\n     * @return freezedPeriod {TokenLibrary.FreezePeriod} struct of freezed tokens in period\n     */\n    function myFreezedTokensPeriod() external view returns (TokenLibrary.FreezePeriod memory) {\n        return freezedPeriod[_msgSender()];\n    }\n\n    /**\n     * @notice Retrieve struct of freezed tokens in period of one wallet address by agent\n     * @param userAddress {address} of the user freezed tokens\n     * @return freezedPeriod {TokenLibrary.FreezePeriod} struct of freezed tokens in period\n     */\n    function getFreezedTokensPeriod(address userAddress) external view onlyAgent returns (TokenLibrary.FreezePeriod memory) {\n        return freezedPeriod[userAddress];\n    }\n\n    /**\n     * @notice Get unlockable tokens freezed in period for msg.sender\n     * @return unlockable {uint256} of unlockable tokens freezed in period\n     */\n    function unlockableTokensPeriod() public view returns (uint256) {\n        TokenLibrary.FreezePeriod memory freezedPeriodTemp = freezedPeriod[_msgSender()];\n\n        require(freezedPeriodTemp.amountFreezed > 0, \"No token to unfreeze\");\n        require(_now() - freezedPeriodTemp.startTime > 30, \"Time for redeem is too short\");\n\n        uint256 diff = freezedPeriodTemp.endTime - freezedPeriodTemp.startTime;\n        uint256 timeBehind = _now() - freezedPeriodTemp.startTime;\n\n        return timeBehind.mul(100).div(diff).mul(freezedPeriodTemp.amountFreezed).div(100);\n    }\n\n    /**\n     * @notice Redeem unlockable freezed tokens periodically\n     * @return success {bool} success of redeeming tokens\n     */\n    function redeemFreezedTokens() external returns (bool) {\n        uint256 unlockable = unlockableTokensPeriod();\n        if(unlockable <= 0) return false;\n\n        freezedPeriod[_msgSender()].startTime = _now();\n        freezedPeriod[_msgSender()].amountFreezed = freezedPeriod[_msgSender()].amountFreezed - unlockable;\n\n        emit TokensUnfrozenPeriod(_msgSender(), unlockable);\n\n        return true;\n    }\n\n    /**\n     * @notice Withdraw tokens amount of contract balance\n     * @param amount {uint256} the number of tokens transferred\n     * @param receiver {address} the recipient of the token transfer\n     */\n    function withdraw(uint256 amount, address receiver) external onlyOwner contractValid {\n        withdrawable(amount);\n        TokenLibrary.Rules memory _rules = TokenContract.getRules();\n        if(_rules.dayToWithdraw != 0)\n            lastWithdraw += oneDay.mul(_rules.dayToWithdraw).mul(amount);\n        if(_rules.voteToWithdraw == true) amountRequestWithdraw = 0;\n        bool success = TokenContract.withdraw(amount, receiver);\n        require(success, \"Withdraw failed\");\n    }\n\n    /**\n     * @notice Owner request a withdraw with a comment and amount (Request can't be equal to last request and set request restart all votes)\n     * @param _messageRequestWithdraw {string} message comment of request to withdraw\n     * @param _amountRequestWithdraw {uint256} amount of request to withdraw\n     */\n    function setRequestWithdraw(string memory _messageRequestWithdraw, uint256 _amountRequestWithdraw) external withdrawVotable onlyOwner {\n        require(compare(messageRequestWithdraw, _messageRequestWithdraw) == false, \"Request can't be equal to last request\");\n        messageRequestWithdraw = _messageRequestWithdraw;\n        amountRequestWithdraw = _amountRequestWithdraw;\n        acceptedRequestWithdraw = 0;\n        refusedRequestWithdraw = 0;\n    }\n\n    /**\n     * @notice Get request to withdraw by owner\n     * @return request {string, uint256} (messageRequestWithdraw, amountRequestWithdraw)\n     */\n    function getRequestWithdraw() external withdrawVotable view returns(string memory , uint256) {\n        return (messageRequestWithdraw, amountRequestWithdraw);\n    }\n\n    /**\n     * @notice Shareholder vote to the request of owner to withdraw\n     * @param vote {boolean} accept (true) or reject (false) request of withdraw\n     * @param amount {uint256} amount of vote request, need to be lower than balance of shareholder\n     */\n    function voteToRequestWithdraw(bool vote, uint256 amount) external withdrawVotable contractValid {\n        require(TokenContract.balanceOf(_msgSender()) >= amount, \"Balance of sender is lower than the amount\");\n        require(compare(hasVoted[_msgSender()], messageRequestWithdraw) == false, \"Sender has already voted to this request\");\n        hasVoted[_msgSender()] = messageRequestWithdraw;\n        if(vote == true) acceptedRequestWithdraw += amount;\n        if(vote == false) refusedRequestWithdraw += amount;\n    }\n\n    /**\n     * @notice Check if amout is withdrawable\n     * @param amount {uint256} the number of tokens withdraw\n     * @return weiWithdrawable {uint256} the number of wei transferrable\n     */\n    function withdrawable(uint256 amount) public view contractValid returns(uint256 weiWithdrawable) {\n        TokenLibrary.Rules memory _rules = TokenContract.getRules();\n        if(_rules.dayToWithdraw != 0)\n            weiWithdrawable = ((_now() - lastWithdraw).div(oneDay.mul(_rules.dayToWithdraw)));\n        require(_rules.voteToWithdraw == false || (acceptedRequestWithdraw > refusedRequestWithdraw && amount <= amountRequestWithdraw), \"No vote accepted\");\n        require(weiWithdrawable >= amount || _rules.dayToWithdraw == 0, \"Not enough funds to withdraw\");\n        require(lastWithdraw + oneDay.mul(_rules.dayToWithdraw).mul(amount) <= _now() || _rules.dayToWithdraw == 0, \"Time incorrect\");\n    }\n}",
  "sourcePath": "/home/solid-solution/Bureau/HOMEWORK/Smart-Starter/smart-contract/contracts/proxy/ProxySecurityToken.sol",
  "compiler": {
    "name": "solc",
    "version": "0.8.11+commit.d7f03943.Emscripten.clang"
  },
  "schemaVersion": "3.4.10",
  "updatedAt": "2023-02-22T22:27:26.002Z",
  "devdoc": {
    "kind": "dev",
    "methods": {
      "batchFreezePartialTokens(address[],uint256[])": {
        "params": {
          "amounts": "{uint256[]} of amounts of token to be unfreezed",
          "userAddresses": "{address[]} of user addresses"
        }
      },
      "batchSetAddressFrozen(address[],bool[])": {
        "params": {
          "freeze": "{bool[]} representing freezing",
          "userAddresses": "{address[]} of user addresses"
        }
      },
      "batchUnfreezePartialTokens(address[],uint256[])": {
        "params": {
          "amounts": "{uint256[]} of amounts of token to be unfreezed",
          "userAddresses": "{address[]} of user addresses"
        }
      },
      "burn(address,uint256)": {
        "params": {
          "account": "{address} wallet to burn the token",
          "amount": "{uint256} amount to burn"
        }
      },
      "canTransfer(address,address,address,uint256)": {
        "params": {
          "from": "{address} the origin of the token transfer",
          "operator": "{address} operator of transaction (sender)",
          "to": "{address} the recipient of the token transfer",
          "value": "{uint256} the number of tokens transferred"
        },
        "returns": {
          "_0": "hex {bytes1} code error message"
        }
      },
      "eligibleBalanceOf(address)": {
        "params": {
          "account": "{address} wallet address of account you want to get not freezed balance"
        },
        "returns": {
          "_0": "balance {uint256} balance of wallet address totaly open"
        }
      },
      "forceTransfer(address,address,uint256)": {
        "params": {
          "amount": "{uint256} amounts of tokens to be transfered",
          "from": "{address} from wallet to transfer",
          "to": "{address} to wallet to transfer"
        }
      },
      "freezePartialTokens(address,uint256)": {
        "params": {
          "amount": "{uint256} of token to be unfreezed",
          "userAddress": "{address} of the user"
        }
      },
      "getFreezedTokensPeriod(address)": {
        "params": {
          "userAddress": "{address} of the user freezed tokens"
        },
        "returns": {
          "_0": "freezedPeriod {TokenLibrary.FreezePeriod} struct of freezed tokens in period"
        }
      },
      "getFrozenTokens(address)": {
        "params": {
          "userAddress": "{address} of the user"
        },
        "returns": {
          "_0": "frozenTokens {uint256} amount of freezed tokens"
        }
      },
      "getRequestWithdraw()": {
        "returns": {
          "_0": "request {string, uint256} (messageRequestWithdraw, amountRequestWithdraw)"
        }
      },
      "isFrozen(address)": {
        "params": {
          "userAddress": "{address} of the user"
        },
        "returns": {
          "_0": "frozen {bool} represents freezed wallet address"
        }
      },
      "mint(address,uint256)": {
        "params": {
          "amount": "{uint256} amount to mint",
          "to": "{address} wallet to send the token"
        },
        "returns": {
          "_0": "result {boolean} success or failure"
        }
      },
      "myFreezedTokensPeriod()": {
        "returns": {
          "_0": "freezedPeriod {TokenLibrary.FreezePeriod} struct of freezed tokens in period"
        }
      },
      "owner()": {
        "returns": {
          "_0": "owner {address} wallet addres from owner"
        }
      },
      "redeemFreezedTokens()": {
        "returns": {
          "_0": "success {bool} success of redeeming tokens"
        }
      },
      "refoundable(uint256)": {
        "params": {
          "amount": "{uint256} amout of tokens burn"
        },
        "returns": {
          "_0": "wei {uint256} amount of wei refoundable"
        }
      },
      "renounceOwnership()": {
        "details": "Leaves the contract without owner. It will not be possible to call `onlyOwner` functions anymore. Can only be called by the current owner. NOTE: Renouncing ownership will leave the contract without an owner, thereby removing any functionality that is only available to the owner."
      },
      "setAddressFrozen(address,bool)": {
        "params": {
          "freeze": "{boolean} representing freezing",
          "userAddress": "{address} of the user"
        }
      },
      "setFreezedTokensPeriod(uint256,uint256,uint256,address)": {
        "params": {
          "amountFreezed": "{uint256} Amount of frozen token",
          "endTime": "{uint256} End time of freezing partial token",
          "startTime": "{uint256} Start time of freezing partial token",
          "userAddress": "{address} Address wallet of the user frozen token"
        }
      },
      "setRequestWithdraw(string,uint256)": {
        "params": {
          "_amountRequestWithdraw": "{uint256} amount of request to withdraw",
          "_messageRequestWithdraw": "{string} message comment of request to withdraw"
        }
      },
      "setSecurityTokenImmutable(address)": {
        "params": {
          "_securityTokenImmutableAddress": "{address} address of security token immutable contract"
        }
      },
      "transfer(address,uint256)": {
        "details": "Transfer and send `amount` tokens from `_msgSender()` to `to` Returns a boolean value indicating whether the operation succeeded. Emits a {Transfer} event.",
        "params": {
          "amount": "{uint256[]} amount to transfer",
          "to": "{address} wallet to transfer the token"
        }
      },
      "transferFrom(address,address,uint256)": {
        "details": "Transfer and send `amount` tokens from `from` to `to` Returns a boolean value indicating whether the operation succeeded. Emits a {Transfer} event.",
        "params": {
          "amount": "{uint256[]} amount to transfer",
          "from": "{address} wallet from transfer the token",
          "to": "{address} wallet to transfer the token"
        }
      },
      "transferOwnership(address)": {
        "params": {
          "account": "{address} address of the new owner"
        }
      },
      "unfreezePartialTokens(address,uint256)": {
        "params": {
          "amount": "{uint256} of token to be unfreezed",
          "userAddress": "{address} of the user"
        }
      },
      "unlockableTokensPeriod()": {
        "returns": {
          "_0": "unlockable {uint256} of unlockable tokens freezed in period"
        }
      },
      "version()": {
        "returns": {
          "_0": "TOKEN_VERSION {string} version of the smart contract"
        }
      },
      "voteToRequestWithdraw(bool,uint256)": {
        "params": {
          "amount": "{uint256} amount of vote request, need to be lower than balance of shareholder",
          "vote": "{boolean} accept (true) or reject (false) request of withdraw"
        }
      },
      "withdraw(uint256,address)": {
        "params": {
          "amount": "{uint256} the number of tokens transferred",
          "receiver": "{address} the recipient of the token transfer"
        }
      },
      "withdrawable(uint256)": {
        "params": {
          "amount": "{uint256} the number of tokens withdraw"
        },
        "returns": {
          "weiWithdrawable": "{uint256} the number of wei transferrable"
        }
      }
    },
    "version": 1
  },
  "userdoc": {
    "kind": "user",
    "methods": {
      "batchFreezePartialTokens(address[],uint256[])": {
        "notice": "Freeze patial tokens of multiples wallets"
      },
      "batchSetAddressFrozen(address[],bool[])": {
        "notice": "Freeze totality tokens of multiples wallet addresses"
      },
      "batchUnfreezePartialTokens(address[],uint256[])": {
        "notice": "Unfreeze patial tokens of multiples wallets"
      },
      "burn(address,uint256)": {
        "notice": "Remove `amount` tokens from `account` Returns a boolean value indicating whether the operation succeeded. Emits a {Transfer} event."
      },
      "canTransfer(address,address,address,uint256)": {
        "notice": "Interface of transfer method, return hex code error message"
      },
      "eligibleBalanceOf(address)": {
        "notice": "Return not freezed tokens from an address wallet"
      },
      "forceTransfer(address,address,uint256)": {
        "notice": "Force an address wallet to transfer by agent"
      },
      "freezePartialTokens(address,uint256)": {
        "notice": "Freeze patial tokens of single wallet"
      },
      "getFreezedTokensPeriod(address)": {
        "notice": "Retrieve struct of freezed tokens in period of one wallet address by agent"
      },
      "getFrozenTokens(address)": {
        "notice": "Return freezed tokens amount of wallet address"
      },
      "getRequestWithdraw()": {
        "notice": "Get request to withdraw by owner"
      },
      "isFrozen(address)": {
        "notice": "Return freezed or not wallet address tokens"
      },
      "mint(address,uint256)": {
        "notice": "Mint and send `amount` tokens to `to` Returns a boolean value indicating whether the operation succeeded. Emits a {Transfer} event."
      },
      "myFreezedTokensPeriod()": {
        "notice": "Retrieve struct of freezed tokens in period of msg.sender"
      },
      "owner()": {
        "notice": "Returns the address wallet of the smart contract owner."
      },
      "redeemFreezedTokens()": {
        "notice": "Redeem unlockable freezed tokens periodically"
      },
      "refoundable(uint256)": {
        "notice": "Return amount of refoundable for amount of tokens burned"
      },
      "setAddressFrozen(address,bool)": {
        "notice": "Freeze totality tokens of single wallet address"
      },
      "setFreezedTokensPeriod(uint256,uint256,uint256,address)": {
        "notice": "Freeze token of one address wallet periodically"
      },
      "setRequestWithdraw(string,uint256)": {
        "notice": "Owner request a withdraw with a comment and amount (Request can't be equal to last request and set request restart all votes)"
      },
      "setSecurityTokenImmutable(address)": {
        "notice": "set the contract address of security token immutable"
      },
      "transferOwnership(address)": {
        "notice": "Transfer ownership of the smart contract"
      },
      "unfreezePartialTokens(address,uint256)": {
        "notice": "Unfreeze patial tokens of single wallet"
      },
      "unlockableTokensPeriod()": {
        "notice": "Get unlockable tokens freezed in period for msg.sender"
      },
      "version()": {
        "notice": "Returns the version of the token contract"
      },
      "voteToRequestWithdraw(bool,uint256)": {
        "notice": "Shareholder vote to the request of owner to withdraw"
      },
      "withdraw(uint256,address)": {
        "notice": "Withdraw tokens amount of contract balance"
      },
      "withdrawable(uint256)": {
        "notice": "Check if amout is withdrawable"
      }
    },
    "version": 1
  }
}