{
  "contractName": "ProxySecurityToken",
  "abi": [
    {
      "inputs": [
        {
          "internalType": "uint256",
          "name": "_pricePerToken",
          "type": "uint256"
        },
        {
          "internalType": "address",
          "name": "_securityTokenImmutableAddress",
          "type": "address"
        }
      ],
      "stateMutability": "nonpayable",
      "type": "constructor"
    },
    {
      "inputs": [
        {
          "internalType": "address",
          "name": "account",
          "type": "address"
        },
        {
          "internalType": "uint256",
          "name": "accountBalance",
          "type": "uint256"
        },
        {
          "internalType": "uint256",
          "name": "amount",
          "type": "uint256"
        }
      ],
      "name": "BurnAmountExceedsBalance",
      "type": "error"
    },
    {
      "inputs": [
        {
          "internalType": "address",
          "name": "account",
          "type": "address"
        }
      ],
      "name": "BurnFromZeroAddress",
      "type": "error"
    },
    {
      "inputs": [
        {
          "internalType": "address",
          "name": "account",
          "type": "address"
        },
        {
          "internalType": "uint256",
          "name": "previousBalance",
          "type": "uint256"
        },
        {
          "internalType": "uint256",
          "name": "currentBalance",
          "type": "uint256"
        },
        {
          "internalType": "uint256",
          "name": "amount",
          "type": "uint256"
        }
      ],
      "name": "MintDoesNotWork",
      "type": "error"
    },
    {
      "inputs": [
        {
          "internalType": "address",
          "name": "account",
          "type": "address"
        }
      ],
      "name": "MintFromZeroAddress",
      "type": "error"
    },
    {
      "inputs": [
        {
          "internalType": "address",
          "name": "sender",
          "type": "address"
        }
      ],
      "name": "NotAgent",
      "type": "error"
    },
    {
      "inputs": [
        {
          "internalType": "address",
          "name": "sender",
          "type": "address"
        }
      ],
      "name": "NotReader",
      "type": "error"
    },
    {
      "inputs": [
        {
          "internalType": "address",
          "name": "sender",
          "type": "address"
        },
        {
          "internalType": "bytes32",
          "name": "role",
          "type": "bytes32"
        }
      ],
      "name": "NotTheOwner",
      "type": "error"
    },
    {
      "inputs": [
        {
          "internalType": "uint256",
          "name": "fromBalance",
          "type": "uint256"
        },
        {
          "internalType": "address",
          "name": "from",
          "type": "address"
        },
        {
          "internalType": "uint256",
          "name": "amount",
          "type": "uint256"
        }
      ],
      "name": "TransferAmountExceedsBalance",
      "type": "error"
    },
    {
      "inputs": [
        {
          "internalType": "address",
          "name": "from",
          "type": "address"
        }
      ],
      "name": "TransferFromZeroAddress",
      "type": "error"
    },
    {
      "inputs": [
        {
          "internalType": "address",
          "name": "to",
          "type": "address"
        }
      ],
      "name": "TransferToZeroAddress",
      "type": "error"
    },
    {
      "anonymous": false,
      "inputs": [
        {
          "indexed": true,
          "internalType": "address",
          "name": "userAddress",
          "type": "address"
        },
        {
          "indexed": true,
          "internalType": "bool",
          "name": "freeze",
          "type": "bool"
        },
        {
          "indexed": true,
          "internalType": "address",
          "name": "sender",
          "type": "address"
        }
      ],
      "name": "AddressFrozen",
      "type": "event"
    },
    {
      "anonymous": false,
      "inputs": [
        {
          "indexed": true,
          "internalType": "address",
          "name": "_agent",
          "type": "address"
        }
      ],
      "name": "AgentAdded",
      "type": "event"
    },
    {
      "anonymous": false,
      "inputs": [
        {
          "indexed": true,
          "internalType": "address",
          "name": "_agent",
          "type": "address"
        }
      ],
      "name": "AgentRemoved",
      "type": "event"
    },
    {
      "anonymous": false,
      "inputs": [
        {
          "indexed": true,
          "internalType": "address",
          "name": "previousOwner",
          "type": "address"
        },
        {
          "indexed": true,
          "internalType": "address",
          "name": "newOwner",
          "type": "address"
        }
      ],
      "name": "OwnershipTransferred",
      "type": "event"
    },
    {
      "anonymous": false,
      "inputs": [
        {
          "indexed": true,
          "internalType": "address",
          "name": "sender",
          "type": "address"
        },
        {
          "indexed": true,
          "internalType": "uint256",
          "name": "paused",
          "type": "uint256"
        }
      ],
      "name": "Paused",
      "type": "event"
    },
    {
      "anonymous": false,
      "inputs": [
        {
          "indexed": true,
          "internalType": "address",
          "name": "_reader",
          "type": "address"
        }
      ],
      "name": "ReaderAdded",
      "type": "event"
    },
    {
      "anonymous": false,
      "inputs": [
        {
          "indexed": true,
          "internalType": "address",
          "name": "_reader",
          "type": "address"
        }
      ],
      "name": "ReaderRemoved",
      "type": "event"
    },
    {
      "anonymous": false,
      "inputs": [
        {
          "indexed": true,
          "internalType": "address",
          "name": "userAddress",
          "type": "address"
        },
        {
          "indexed": true,
          "internalType": "uint256",
          "name": "amount",
          "type": "uint256"
        }
      ],
      "name": "TokensFrozen",
      "type": "event"
    },
    {
      "anonymous": false,
      "inputs": [
        {
          "indexed": true,
          "internalType": "address",
          "name": "userAddress",
          "type": "address"
        },
        {
          "indexed": true,
          "internalType": "uint256",
          "name": "startTime",
          "type": "uint256"
        },
        {
          "indexed": true,
          "internalType": "uint256",
          "name": "endTime",
          "type": "uint256"
        },
        {
          "indexed": false,
          "internalType": "uint256",
          "name": "amount",
          "type": "uint256"
        },
        {
          "indexed": false,
          "internalType": "address",
          "name": "signer",
          "type": "address"
        }
      ],
      "name": "TokensFrozenPeriod",
      "type": "event"
    },
    {
      "anonymous": false,
      "inputs": [
        {
          "indexed": true,
          "internalType": "address",
          "name": "userAddress",
          "type": "address"
        },
        {
          "indexed": true,
          "internalType": "uint256",
          "name": "amount",
          "type": "uint256"
        }
      ],
      "name": "TokensUnfrozen",
      "type": "event"
    },
    {
      "anonymous": false,
      "inputs": [
        {
          "indexed": true,
          "internalType": "address",
          "name": "userAddress",
          "type": "address"
        },
        {
          "indexed": true,
          "internalType": "uint256",
          "name": "amount",
          "type": "uint256"
        }
      ],
      "name": "TokensUnfrozenPeriod",
      "type": "event"
    },
    {
      "anonymous": false,
      "inputs": [
        {
          "indexed": false,
          "internalType": "string",
          "name": "eventType",
          "type": "string"
        },
        {
          "indexed": true,
          "internalType": "address",
          "name": "from",
          "type": "address"
        },
        {
          "indexed": true,
          "internalType": "address",
          "name": "to",
          "type": "address"
        },
        {
          "indexed": false,
          "internalType": "uint256",
          "name": "value",
          "type": "uint256"
        }
      ],
      "name": "Transfer",
      "type": "event"
    },
    {
      "anonymous": false,
      "inputs": [
        {
          "indexed": true,
          "internalType": "address",
          "name": "oldAccount",
          "type": "address"
        },
        {
          "indexed": true,
          "internalType": "address",
          "name": "newAccount",
          "type": "address"
        }
      ],
      "name": "TransferOwnership",
      "type": "event"
    },
    {
      "inputs": [],
      "name": "_now",
      "outputs": [
        {
          "internalType": "uint256",
          "name": "",
          "type": "uint256"
        }
      ],
      "stateMutability": "view",
      "type": "function"
    },
    {
      "inputs": [
        {
          "internalType": "address",
          "name": "_agent",
          "type": "address"
        }
      ],
      "name": "addAgent",
      "outputs": [],
      "stateMutability": "nonpayable",
      "type": "function"
    },
    {
      "inputs": [
        {
          "internalType": "address",
          "name": "_reader",
          "type": "address"
        }
      ],
      "name": "addReader",
      "outputs": [],
      "stateMutability": "nonpayable",
      "type": "function"
    },
    {
      "inputs": [
        {
          "internalType": "string",
          "name": "str1",
          "type": "string"
        },
        {
          "internalType": "string",
          "name": "str2",
          "type": "string"
        }
      ],
      "name": "compare",
      "outputs": [
        {
          "internalType": "bool",
          "name": "",
          "type": "bool"
        }
      ],
      "stateMutability": "pure",
      "type": "function"
    },
    {
      "inputs": [
        {
          "internalType": "address",
          "name": "_agent",
          "type": "address"
        }
      ],
      "name": "isAgent",
      "outputs": [
        {
          "internalType": "bool",
          "name": "",
          "type": "bool"
        }
      ],
      "stateMutability": "view",
      "type": "function"
    },
    {
      "inputs": [
        {
          "internalType": "address",
          "name": "_reader",
          "type": "address"
        }
      ],
      "name": "isReader",
      "outputs": [
        {
          "internalType": "bool",
          "name": "",
          "type": "bool"
        }
      ],
      "stateMutability": "view",
      "type": "function"
    },
    {
      "inputs": [
        {
          "internalType": "address",
          "name": "_agent",
          "type": "address"
        }
      ],
      "name": "removeAgent",
      "outputs": [],
      "stateMutability": "nonpayable",
      "type": "function"
    },
    {
      "inputs": [
        {
          "internalType": "address",
          "name": "_reader",
          "type": "address"
        }
      ],
      "name": "removeReader",
      "outputs": [],
      "stateMutability": "nonpayable",
      "type": "function"
    },
    {
      "inputs": [],
      "name": "renounceOwnership",
      "outputs": [],
      "stateMutability": "nonpayable",
      "type": "function"
    },
    {
      "inputs": [],
      "name": "version",
      "outputs": [
        {
          "internalType": "string",
          "name": "",
          "type": "string"
        }
      ],
      "stateMutability": "pure",
      "type": "function"
    },
    {
      "inputs": [],
      "name": "owner",
      "outputs": [
        {
          "internalType": "address",
          "name": "",
          "type": "address"
        }
      ],
      "stateMutability": "view",
      "type": "function"
    },
    {
      "inputs": [
        {
          "internalType": "address",
          "name": "account",
          "type": "address"
        }
      ],
      "name": "transferOwnership",
      "outputs": [],
      "stateMutability": "nonpayable",
      "type": "function"
    },
    {
      "inputs": [
        {
          "internalType": "address",
          "name": "account",
          "type": "address"
        }
      ],
      "name": "eligibleBalanceOf",
      "outputs": [
        {
          "internalType": "uint256",
          "name": "",
          "type": "uint256"
        }
      ],
      "stateMutability": "view",
      "type": "function"
    },
    {
      "inputs": [
        {
          "internalType": "address",
          "name": "to",
          "type": "address"
        },
        {
          "internalType": "uint256",
          "name": "amount",
          "type": "uint256"
        }
      ],
      "name": "mint",
      "outputs": [
        {
          "internalType": "bool",
          "name": "",
          "type": "bool"
        }
      ],
      "stateMutability": "payable",
      "type": "function"
    },
    {
      "inputs": [
        {
          "internalType": "address",
          "name": "account",
          "type": "address"
        },
        {
          "internalType": "uint256",
          "name": "amount",
          "type": "uint256"
        }
      ],
      "name": "burn",
      "outputs": [
        {
          "internalType": "bool",
          "name": "",
          "type": "bool"
        }
      ],
      "stateMutability": "nonpayable",
      "type": "function"
    },
    {
      "inputs": [
        {
          "internalType": "uint256",
          "name": "amount",
          "type": "uint256"
        }
      ],
      "name": "refoundable",
      "outputs": [
        {
          "internalType": "uint256",
          "name": "",
          "type": "uint256"
        }
      ],
      "stateMutability": "view",
      "type": "function"
    },
    {
      "inputs": [
        {
          "internalType": "address",
          "name": "to",
          "type": "address"
        },
        {
          "internalType": "uint256",
          "name": "amount",
          "type": "uint256"
        }
      ],
      "name": "transfer",
      "outputs": [
        {
          "internalType": "bool",
          "name": "",
          "type": "bool"
        }
      ],
      "stateMutability": "nonpayable",
      "type": "function"
    },
    {
      "inputs": [
        {
          "internalType": "address",
          "name": "from",
          "type": "address"
        },
        {
          "internalType": "address",
          "name": "to",
          "type": "address"
        },
        {
          "internalType": "uint256",
          "name": "amount",
          "type": "uint256"
        }
      ],
      "name": "transferFrom",
      "outputs": [
        {
          "internalType": "bool",
          "name": "",
          "type": "bool"
        }
      ],
      "stateMutability": "nonpayable",
      "type": "function"
    },
    {
      "inputs": [
        {
          "internalType": "address",
          "name": "operator",
          "type": "address"
        },
        {
          "internalType": "address",
          "name": "from",
          "type": "address"
        },
        {
          "internalType": "address",
          "name": "to",
          "type": "address"
        },
        {
          "internalType": "uint256",
          "name": "value",
          "type": "uint256"
        }
      ],
      "name": "canTransfer",
      "outputs": [
        {
          "internalType": "bytes1",
          "name": "",
          "type": "bytes1"
        }
      ],
      "stateMutability": "view",
      "type": "function"
    },
    {
      "inputs": [
        {
          "internalType": "address",
          "name": "from",
          "type": "address"
        },
        {
          "internalType": "address",
          "name": "to",
          "type": "address"
        },
        {
          "internalType": "uint256",
          "name": "amount",
          "type": "uint256"
        }
      ],
      "name": "forceTransfer",
      "outputs": [
        {
          "internalType": "bool",
          "name": "",
          "type": "bool"
        }
      ],
      "stateMutability": "nonpayable",
      "type": "function"
    },
    {
      "inputs": [
        {
          "internalType": "address",
          "name": "userAddress",
          "type": "address"
        }
      ],
      "name": "isFrozen",
      "outputs": [
        {
          "internalType": "bool",
          "name": "",
          "type": "bool"
        }
      ],
      "stateMutability": "view",
      "type": "function"
    },
    {
      "inputs": [
        {
          "internalType": "address",
          "name": "userAddress",
          "type": "address"
        }
      ],
      "name": "getFrozenTokens",
      "outputs": [
        {
          "internalType": "uint256",
          "name": "",
          "type": "uint256"
        }
      ],
      "stateMutability": "view",
      "type": "function"
    },
    {
      "inputs": [
        {
          "internalType": "address",
          "name": "userAddress",
          "type": "address"
        },
        {
          "internalType": "bool",
          "name": "freeze",
          "type": "bool"
        }
      ],
      "name": "setAddressFrozen",
      "outputs": [],
      "stateMutability": "nonpayable",
      "type": "function"
    },
    {
      "inputs": [
        {
          "internalType": "address[]",
          "name": "userAddresses",
          "type": "address[]"
        },
        {
          "internalType": "bool[]",
          "name": "freeze",
          "type": "bool[]"
        }
      ],
      "name": "batchSetAddressFrozen",
      "outputs": [],
      "stateMutability": "nonpayable",
      "type": "function"
    },
    {
      "inputs": [
        {
          "internalType": "address",
          "name": "userAddress",
          "type": "address"
        },
        {
          "internalType": "uint256",
          "name": "amount",
          "type": "uint256"
        }
      ],
      "name": "freezePartialTokens",
      "outputs": [],
      "stateMutability": "nonpayable",
      "type": "function"
    },
    {
      "inputs": [
        {
          "internalType": "address[]",
          "name": "userAddresses",
          "type": "address[]"
        },
        {
          "internalType": "uint256[]",
          "name": "amounts",
          "type": "uint256[]"
        }
      ],
      "name": "batchFreezePartialTokens",
      "outputs": [],
      "stateMutability": "nonpayable",
      "type": "function"
    },
    {
      "inputs": [
        {
          "internalType": "address",
          "name": "userAddress",
          "type": "address"
        },
        {
          "internalType": "uint256",
          "name": "amount",
          "type": "uint256"
        }
      ],
      "name": "unfreezePartialTokens",
      "outputs": [],
      "stateMutability": "nonpayable",
      "type": "function"
    },
    {
      "inputs": [
        {
          "internalType": "address[]",
          "name": "userAddresses",
          "type": "address[]"
        },
        {
          "internalType": "uint256[]",
          "name": "amounts",
          "type": "uint256[]"
        }
      ],
      "name": "batchUnfreezePartialTokens",
      "outputs": [],
      "stateMutability": "nonpayable",
      "type": "function"
    },
    {
      "inputs": [
        {
          "internalType": "uint256",
          "name": "startTime",
          "type": "uint256"
        },
        {
          "internalType": "uint256",
          "name": "endTime",
          "type": "uint256"
        },
        {
          "internalType": "uint256",
          "name": "amountFreezed",
          "type": "uint256"
        },
        {
          "internalType": "address",
          "name": "userAddress",
          "type": "address"
        }
      ],
      "name": "setFreezedTokensPeriod",
      "outputs": [],
      "stateMutability": "nonpayable",
      "type": "function"
    },
    {
      "inputs": [],
      "name": "myFreezedTokensPeriod",
      "outputs": [
        {
          "components": [
            {
              "internalType": "uint256",
              "name": "startTime",
              "type": "uint256"
            },
            {
              "internalType": "uint256",
              "name": "endTime",
              "type": "uint256"
            },
            {
              "internalType": "uint256",
              "name": "amountFreezed",
              "type": "uint256"
            }
          ],
          "internalType": "struct TokenLibrary.FreezePeriod",
          "name": "",
          "type": "tuple"
        }
      ],
      "stateMutability": "view",
      "type": "function"
    },
    {
      "inputs": [
        {
          "internalType": "address",
          "name": "userAddress",
          "type": "address"
        }
      ],
      "name": "getFreezedTokensPeriod",
      "outputs": [
        {
          "components": [
            {
              "internalType": "uint256",
              "name": "startTime",
              "type": "uint256"
            },
            {
              "internalType": "uint256",
              "name": "endTime",
              "type": "uint256"
            },
            {
              "internalType": "uint256",
              "name": "amountFreezed",
              "type": "uint256"
            }
          ],
          "internalType": "struct TokenLibrary.FreezePeriod",
          "name": "",
          "type": "tuple"
        }
      ],
      "stateMutability": "view",
      "type": "function"
    },
    {
      "inputs": [],
      "name": "unlockableTokensPeriod",
      "outputs": [
        {
          "internalType": "uint256",
          "name": "",
          "type": "uint256"
        }
      ],
      "stateMutability": "view",
      "type": "function"
    },
    {
      "inputs": [],
      "name": "redeemFreezedTokens",
      "outputs": [
        {
          "internalType": "bool",
          "name": "",
          "type": "bool"
        }
      ],
      "stateMutability": "nonpayable",
      "type": "function"
    },
    {
      "inputs": [
        {
          "internalType": "string",
          "name": "_messageRequest",
          "type": "string"
        },
        {
          "internalType": "uint256",
          "name": "_amountRequest",
          "type": "uint256"
        }
      ],
      "name": "setRequest",
      "outputs": [],
      "stateMutability": "nonpayable",
      "type": "function"
    },
    {
      "inputs": [],
      "name": "getRequest",
      "outputs": [
        {
          "internalType": "string",
          "name": "",
          "type": "string"
        },
        {
          "internalType": "uint256",
          "name": "",
          "type": "uint256"
        },
        {
          "internalType": "uint256",
          "name": "",
          "type": "uint256"
        },
        {
          "internalType": "uint256",
          "name": "",
          "type": "uint256"
        }
      ],
      "stateMutability": "view",
      "type": "function"
    },
    {
      "inputs": [
        {
          "internalType": "bool",
          "name": "vote",
          "type": "bool"
        },
        {
          "internalType": "uint256",
          "name": "amount",
          "type": "uint256"
        }
      ],
      "name": "voteToRequest",
      "outputs": [],
      "stateMutability": "nonpayable",
      "type": "function"
    },
    {
      "inputs": [
        {
          "internalType": "uint256",
          "name": "amount",
          "type": "uint256"
        },
        {
          "internalType": "address",
          "name": "receiver",
          "type": "address"
        }
      ],
      "name": "withdraw",
      "outputs": [],
      "stateMutability": "nonpayable",
      "type": "function"
    },
    {
      "inputs": [
        {
          "internalType": "uint256",
          "name": "amount",
          "type": "uint256"
        }
      ],
      "name": "withdrawable",
      "outputs": [
        {
          "internalType": "uint256",
          "name": "weiWithdrawable",
          "type": "uint256"
        }
      ],
      "stateMutability": "view",
      "type": "function"
    }
  ],
  "bytecode": "0x60c06040523480156200001157600080fd5b50604051620040ec380380620040ec8339810160408190526200003491620001b1565b81620000403362000144565b608052600880546001600160a01b03191633179055426004556001600160a01b03811660a081905215801590620000eb575060a0516001600160a01b0316638da5cb5b6040518163ffffffff1660e01b8152600401602060405180830381865afa158015620000b3573d6000803e3d6000fd5b505050506040513d601f19601f82011682018060405250810190620000d99190620001e0565b6008546001600160a01b039081169116145b6200013c5760405162461bcd60e51b815260206004820152601b60248201527f546f6b656e20636f6e7472616374206973206e6f742076616c69640000000000604482015260640160405180910390fd5b505062000205565b600080546001600160a01b038381166001600160a01b0319831681178455604051919092169283917f8be0079c531659141344cd1fd0a4f28419497f9722a3daafe3b4186f6b6457e09190a35050565b80516001600160a01b0381168114620001ac57600080fd5b919050565b60008060408385031215620001c557600080fd5b82519150620001d76020840162000194565b90509250929050565b600060208284031215620001f357600080fd5b620001fe8262000194565b9392505050565b60805160a051613dda6200031260003960008181610750015281816108590152818161096201528181610a2a01528181610c1d01528181610e1c01528181610ec401528181610ffd015281816110b3015281816111d00152818161128d015281816113bb015281816114ef0152818161162d015281816117980152818161181001528181611916015281816119a3015281816119dc01528181611cf301528181611d7101528181611e4701528181611fb7015281816121820152818161228c0152818161259f01528181612655015281816127720152818161282f0152818161296d01528181612a5101528181612b8701528181612dfe015261306f0152600061170e0152613dda6000f3fe6080604052600436106102245760003560e01c806384e7984211610123578063b1ffa3d1116100ab578063c7b0d8b71161006f578063c7b0d8b7146106a5578063e5839836146106ba578063f11988e0146106da578063f2fde38b146106fa578063fc7e5fa81461071a57600080fd5b8063b1ffa3d114610618578063b3bb8cd414610638578063c2bb515f1461064b578063c69c09cf14610670578063c7464bf11461069057600080fd5b80639d200d1f116100f25780639d200d1f146105835780639dc29fac14610598578063a9059cbb146105b8578063afd8b1d1146105d8578063afde442a146105f857600080fd5b806384e79842146104fb57806385269dcb1461051b5780638da5cb5b1461053b57806397a6278e1461056357600080fd5b80633a96fdd7116101b157806364e07f1f1161017557806364e07f1f1461042b57806369a7ddf71461044b5780636d62a4fe1461046b5780636df68630146104a4578063715018a6146104e657600080fd5b80633a96fdd71461038457806340c10f19146103a45780634710362d146103b757806354fd4d50146103d7578063586abfbd1461040b57600080fd5b80631fe56f7d116101f85780631fe56f7d146102d45780631ffbb064146102f457806323b872dd1461032457806333bebb771461034457806338d65d111461036457600080fd5b8062f714ce14610229578063125c4a331461024b578063158b1a571461026b5780631a7af379146102b4575b600080fd5b34801561023557600080fd5b506102496102443660046136a9565b61073a565b005b34801561025757600080fd5b506102496102663660046136d5565b610913565b34801561027757600080fd5b506102a16102863660046136ff565b6001600160a01b031660009081526010602052604090205490565b6040519081526020015b60405180910390f35b3480156102c057600080fd5b506102496102cf366004613766565b610b7a565b3480156102e057600080fd5b506102496102ef3660046136d5565b610bef565b34801561030057600080fd5b5061031461030f3660046136ff565b610db4565b60405190151581526020016102ab565b34801561033057600080fd5b5061031461033f3660046137d2565b610dc7565b34801561035057600080fd5b5061031461035f3660046137d2565b610e94565b34801561037057600080fd5b5061024961037f3660046136ff565b611434565b34801561039057600080fd5b5061031461039f3660046138db565b61147e565b6103146103b23660046136d5565b6114e8565b3480156103c357600080fd5b506102496103d2366004613766565b6118a1565b3480156103e357600080fd5b506040805180820182526005815264302e302e3160d81b602082015290516102ab9190613997565b34801561041757600080fd5b506102a16104263660046139aa565b611906565b34801561043757600080fd5b506102496104463660046139d4565b6119d1565b34801561045757600080fd5b506103146104663660046136ff565b611cc2565b34801561047757600080fd5b5061048b6104863660046139f2565b611ccf565b6040516001600160f81b031990911681526020016102ab565b3480156104b057600080fd5b506104c46104bf3660046136ff565b612060565b60408051825181526020808401519082015291810151908201526060016102ab565b3480156104f257600080fd5b506102496120f6565b34801561050757600080fd5b506102496105163660046136ff565b61210a565b34801561052757600080fd5b50610249610536366004613a3d565b612154565b34801561054757600080fd5b506008546040516001600160a01b0390911681526020016102ab565b34801561056f57600080fd5b5061024961057e3660046136ff565b6123e3565b34801561058f57600080fd5b506102a161242d565b3480156105a457600080fd5b506103146105b33660046136d5565b612554565b3480156105c457600080fd5b506103146105d33660046136d5565b612a20565b3480156105e457600080fd5b506102496105f33660046136ff565b612afa565b34801561060457600080fd5b506102a16106133660046136ff565b612b44565b34801561062457600080fd5b50610249610633366004613a7c565b612c08565b34801561064457600080fd5b50426102a1565b34801561065757600080fd5b50610660612d24565b6040516102ab9493929190613ac1565b34801561067c57600080fd5b5061024961068b366004613af0565b612dd0565b34801561069c57600080fd5b506104c4612f26565b3480156106b157600080fd5b50610314612f84565b3480156106c657600080fd5b506103146106d53660046136ff565b613008565b3480156106e657600080fd5b506102a16106f53660046139aa565b61306a565b34801561070657600080fd5b506102496107153660046136ff565b61326b565b34801561072657600080fd5b50610249610735366004613766565b6132cf565b610742613334565b61074b8261306a565b5060007f00000000000000000000000000000000000000000000000000000000000000006001600160a01b03166345e2984a6040518163ffffffff1660e01b815260040161018060405180830381865afa1580156107ad573d6000803e3d6000fd5b505050506040513d601f19601f820116820180604052508101906107d19190613b32565b905080610100015160001461081c57610805836107ff8361010001516201518061338e90919063ffffffff16565b9061338e565b600460008282546108169190613c1a565b90915550505b60e08101511515600114156108315760006005555b604051627b8a6760e11b8152600481018490526001600160a01b0383811660248301526000917f00000000000000000000000000000000000000000000000000000000000000009091169062f714ce906044016020604051808303816000875af11580156108a3573d6000803e3d6000fd5b505050506040513d601f19601f820116820180604052508101906108c79190613c32565b90508061090d5760405162461bcd60e51b815260206004820152600f60248201526e15da5d1a191c985dc819985a5b1959608a1b60448201526064015b60405180910390fd5b50505050565b61091c33610db4565b15801561093457506008546001600160a01b03163314155b1561096057335b6040516352f49c9560e01b81526001600160a01b039091166004820152602401610904565b7f00000000000000000000000000000000000000000000000000000000000000006001600160a01b03166345e2984a6040518163ffffffff1660e01b815260040161018060405180830381865afa1580156109bf573d6000803e3d6000fd5b505050506040513d601f19601f820116820180604052508101906109e39190613b32565b602001511515600114610a085760405162461bcd60e51b815260040161090490613c4f565b6040516370a0823160e01b81526001600160a01b0383811660048301526000917f0000000000000000000000000000000000000000000000000000000000000000909116906370a0823190602401602060405180830381865afa158015610a73573d6000803e3d6000fd5b505050506040513d601f19601f82011682018060405250810190610a979190613c94565b6001600160a01b038416600090815260106020526040902054909150610abe908390613c1a565b811015610b0d5760405162461bcd60e51b815260206004820181905260248201527f416d6f756e74206578636565647320617661696c61626c652062616c616e63656044820152606401610904565b6001600160a01b038316600090815260106020526040902054610b31908390613c1a565b6001600160a01b03841660008181526010602052604080822093909355915184927fa065e63c631c86f1b9f66a4a2f63f2093bf1c2168d23290259dbd969e0222a4591a3505050565b60005b83811015610be857610bd6858583818110610b9a57610b9a613cad565b9050602002016020810190610baf91906136ff565b848484818110610bc157610bc1613cad565b905060200201602081019061068b9190613cc3565b80610be081613ce0565b915050610b7d565b5050505050565b610bf833610db4565b158015610c1057506008546001600160a01b03163314155b15610c1b573361093b565b7f00000000000000000000000000000000000000000000000000000000000000006001600160a01b03166345e2984a6040518163ffffffff1660e01b815260040161018060405180830381865afa158015610c7a573d6000803e3d6000fd5b505050506040513d601f19601f82011682018060405250810190610c9e9190613b32565b602001511515600114610cc35760405162461bcd60e51b815260040161090490613c4f565b6001600160a01b038216600090815260106020526040902054811115610d485760405162461bcd60e51b815260206004820152603460248201527f416d6f756e742073686f756c64206265206c657373207468616e206f7220657160448201527375616c20746f2066726f7a656e20746f6b656e7360601b6064820152608401610904565b6001600160a01b038216600090815260106020526040902054610d6c908290613cfb565b6001600160a01b03831660008181526010602052604080822093909355915183927f9bed35cb62ad0dba04f9d5bfee4b5bc91443e77da8a65c4c84834c51bb08b0d691a35050565b6000610dc16001836133a1565b92915050565b6000605160f81b610dda33868686611ccf565b6001600160f81b03191614610dee57600080fd5b6040516323b872dd60e01b81526001600160a01b0385811660048301528481166024830152604482018490527f000000000000000000000000000000000000000000000000000000000000000016906323b872dd906064016020604051808303816000875af1158015610e65573d6000803e3d6000fd5b505050506040513d601f19601f82011682018060405250810190610e899190613c32565b506001949350505050565b6000610e9f33610db4565b158015610eb757506008546001600160a01b03163314155b15610ec2573361093b565b7f00000000000000000000000000000000000000000000000000000000000000006001600160a01b03166345e2984a6040518163ffffffff1660e01b815260040161018060405180830381865afa158015610f21573d6000803e3d6000fd5b505050506040513d601f19601f82011682018060405250810190610f459190613b32565b608001511515600114610fb35760405162461bcd60e51b815260206004820152603060248201527f666f7263655472616e73666572206973206e6f7420617574686f72697a65642060448201526f1bdb881d1a1a5cc818dbdb9d1c9858dd60821b6064820152608401610904565b6000610fbe85612b44565b90508083111561138d576001600160a01b038581166000818152601060205260408082205490516370a0823160e01b81526004810193909352909290917f0000000000000000000000000000000000000000000000000000000000000000909116906370a0823190602401602060405180830381865afa158015611046573d6000803e3d6000fd5b505050506040513d601f19601f8201168201806040525081019061106a9190613c94565b6110749190613cfb565b61107e9085613cfb565b6001600160a01b03878116600081815260106020526040908190205490516370a0823160e01b815260048101929092529293507f0000000000000000000000000000000000000000000000000000000000000000909116906370a0823190602401602060405180830381865afa1580156110fc573d6000803e3d6000fd5b505050506040513d601f19601f820116820180604052508101906111209190613c94565b61112a9190613cfb565b84111561119a576001600160a01b038616600090815260106020526040902054611155908290613cfb565b6001600160a01b03871660008181526010602052604080822093909355915183927f9bed35cb62ad0dba04f9d5bfee4b5bc91443e77da8a65c4c84834c51bb08b0d691a35b6001600160a01b038681166000818152600f6020526040908190206002015490516370a0823160e01b81526004810192909252917f000000000000000000000000000000000000000000000000000000000000000016906370a0823190602401602060405180830381865afa158015611217573d6000803e3d6000fd5b505050506040513d601f19601f8201168201806040525081019061123b9190613c94565b6112459190613cfb565b61124f8286613cfb565b111561138b576001600160a01b038681166000818152600f60205260408082206002015490516370a0823160e01b81526004810193909352909290917f0000000000000000000000000000000000000000000000000000000000000000909116906370a0823190602401602060405180830381865afa1580156112d6573d6000803e3d6000fd5b505050506040513d601f19601f820116820180604052508101906112fa9190613c94565b6113049190613cfb565b61130e8387613cfb565b6113189190613cfb565b6001600160a01b0388166000908152600f6020526040902060020154909150611342908290613cfb565b6001600160a01b0388166000818152600f602052604080822060020193909355915184927f86fc01e32674e4237a61b84eece63ddaf61eb7a3034e3cc7f8ca90558431f68e91a3505b505b6040516323b872dd60e01b81526001600160a01b0386811660048301528581166024830152604482018590527f000000000000000000000000000000000000000000000000000000000000000016906323b872dd906064016020604051808303816000875af1158015611404573d6000803e3d6000fd5b505050506040513d601f19601f820116820180604052508101906114289190613c32565b50600195945050505050565b61143c613334565b611447600282613424565b6040516001600160a01b038216907fe933431644458f1217f9e93d3e000e03c9bbbe55761046d0985c2e4d157bcbaa90600090a250565b6000815183511461149157506000610dc1565b816040516020016114a29190613d12565b60405160208183030381529060405280519060200120836040516020016114c99190613d12565b6040516020818303038152906040528051906020012014905092915050565b60008160007f00000000000000000000000000000000000000000000000000000000000000006001600160a01b03166345e2984a6040518163ffffffff1660e01b815260040161018060405180830381865afa15801561154c573d6000803e3d6000fd5b505050506040513d601f19601f820116820180604052508101906115709190613b32565b905080610120015161157f4290565b10156115cd5760405162461bcd60e51b815260206004820152601760248201527f46756e6472616973696e67206e6f7420737461727465640000000000000000006044820152606401610904565b610140810151421115806115e45750610140810151155b6116245760405162461bcd60e51b8152602060048201526011602482015270119d5b991c985a5cda5b99c8195b991959607a1b6044820152606401610904565b806101600151827f00000000000000000000000000000000000000000000000000000000000000006001600160a01b03166318160ddd6040518163ffffffff1660e01b8152600401602060405180830381865afa158015611689573d6000803e3d6000fd5b505050506040513d601f19601f820116820180604052508101906116ad9190613c94565b6116b79190613c1a565b1115806116c75750610160810151155b6117085760405162461bcd60e51b815260206004820152601260248201527113585e081cdd5c1c1b1e481c995858da195960721b6044820152606401610904565b611732847f0000000000000000000000000000000000000000000000000000000000000000613d2e565b3410156117725760405162461bcd60e51b815260206004820152600e60248201526d09cdee840cadcdeeaced040cae8d60931b6044820152606401610904565b6040516340c10f1960e01b81526001600160a01b038681166004830152602482018690527f000000000000000000000000000000000000000000000000000000000000000016906340c10f19906044016020604051808303816000875af11580156117e1573d6000803e3d6000fd5b505050506040513d601f19601f820116820180604052508101906118059190613c32565b506001600160a01b037f0000000000000000000000000000000000000000000000000000000000000000166341bb26d334336040516001600160e01b031960e085901b1681526001600160a01b03909116600482015260240160206040518083038185885af115801561187c573d6000803e3d6000fd5b50505050506040513d601f19601f820116820180604052508101906114289190613c32565b60005b83811015610be8576118f48585838181106118c1576118c1613cad565b90506020020160208101906118d691906136ff565b8484848181106118e8576118e8613cad565b90506020020135610bef565b806118fe81613ce0565b9150506118a4565b6000610dc1826107ff61199660647f00000000000000000000000000000000000000000000000000000000000000006001600160a01b03166318160ddd6040518163ffffffff1660e01b8152600401602060405180830381865afa158015611972573d6000803e3d6000fd5b505050506040513d601f19601f820116820180604052508101906107ff9190613c94565b6119cb6001600160a01b037f00000000000000000000000000000000000000000000000000000000000000001631606461338e565b906134a6565b806001600160a01b037f0000000000000000000000000000000000000000000000000000000000000000166370a08231336040516001600160e01b031960e084901b1681526001600160a01b039091166004820152602401602060405180830381865afa158015611a46573d6000803e3d6000fd5b505050506040513d601f19601f82011682018060405250810190611a6a9190613c94565b1015611acb5760405162461bcd60e51b815260206004820152602a60248201527f42616c616e6365206f662073656e646572206973206c6f776572207468616e206044820152691d1a1948185b5bdd5b9d60b21b6064820152608401610904565b3360009081526011602052604090208054611bf89190611aea90613d4d565b80601f0160208091040260200160405190810160405280929190818152602001828054611b1690613d4d565b8015611b635780601f10611b3857610100808354040283529160200191611b63565b820191906000526020600020905b815481529060010190602001808311611b4657829003601f168201915b505050505060148054611b7590613d4d565b80601f0160208091040260200160405190810160405280929190818152602001828054611ba190613d4d565b8015611bee5780601f10611bc357610100808354040283529160200191611bee565b820191906000526020600020905b815481529060010190602001808311611bd157829003601f168201915b505050505061147e565b15611c565760405162461bcd60e51b815260206004820152602860248201527f53656e6465722068617320616c726561647920766f74656420746f2074686973604482015267081c995c5d595cdd60c21b6064820152608401610904565b33600090815260116020526040902060148054611c7290613d4d565b611c7d92919061357e565b5060018215151415611ca1578060066000828254611c9b9190613c1a565b90915550505b81611cbe578060076000828254611cb89190613c1a565b90915550505b5050565b6000610dc16002836133a1565b6040516370a0823160e01b81526001600160a01b03848116600483015260009183917f000000000000000000000000000000000000000000000000000000000000000016906370a0823190602401602060405180830381865afa158015611d3a573d6000803e3d6000fd5b505050506040513d601f19601f82011682018060405250810190611d5e9190613c94565b1015611d6f5750602960f91b612058565b7f00000000000000000000000000000000000000000000000000000000000000006001600160a01b031663b187bd266040518163ffffffff1660e01b8152600401602060405180830381865afa158015611dcd573d6000803e3d6000fd5b505050506040513d601f19601f82011682018060405250810190611df19190613c94565b421015611e035750601560fa1b612058565b6001600160a01b038481166000818152600f60209081526040808320600201546010909252918290205491516370a0823160e01b81526004810193909352859390927f0000000000000000000000000000000000000000000000000000000000000000909116906370a0823190602401602060405180830381865afa158015611e90573d6000803e3d6000fd5b505050506040513d601f19601f82011682018060405250810190611eb49190613c94565b611ebe9190613cfb565b611ec89190613cfb565b1015611ed95750605560f81b612058565b6001600160a01b038416611ef25750602b60f91b612058565b6001600160a01b038316611f0b5750605760f81b612058565b611f1485610db4565b158015611f2f57506008546001600160a01b03868116911614155b8015611f4d5750846001600160a01b0316846001600160a01b031614155b15611f5d5750600b60fb1b612058565b6001600160a01b03841660009081526012602052604090205460ff1615611f895750602d60f91b612058565b6001600160a01b03831660009081526012602052604090205460ff1615611fb55750605b60f81b612058565b7f00000000000000000000000000000000000000000000000000000000000000006001600160a01b03166345e2984a6040518163ffffffff1660e01b815260040161018060405180830381865afa158015612014573d6000803e3d6000fd5b505050506040513d601f19601f820116820180604052508101906120389190613b32565b60c001511515600114156120515750601760fa1b612058565b50605160f81b5b949350505050565b61208460405180606001604052806000815260200160008152602001600081525090565b61208d33610db4565b1580156120a557506008546001600160a01b03163314155b156120b0573361093b565b506001600160a01b0381166000908152600f602090815260409182902082516060810184528154815260018201549281019290925260020154918101919091525b919050565b6120fe613334565b61210860006134b2565b565b612112613334565b61211d600182613502565b6040516001600160a01b038216907ff68e73cec97f2d70aa641fb26e87a4383686e2efacb648f2165aeb02ac562ec590600090a250565b61215d33610db4565b15801561217557506008546001600160a01b03163314155b15612180573361093b565b7f00000000000000000000000000000000000000000000000000000000000000006001600160a01b03166345e2984a6040518163ffffffff1660e01b815260040161018060405180830381865afa1580156121df573d6000803e3d6000fd5b505050506040513d601f19601f820116820180604052508101906122039190613b32565b60400151151560011461226d5760405162461bcd60e51b815260206004820152602c60248201527f467265657a65207061727469616c20706572696f64206164647265737320697360448201526b081b9bdd08185b1b1bddd95960a21b6064820152608401610904565b6040516370a0823160e01b81526001600160a01b0382811660048301527f000000000000000000000000000000000000000000000000000000000000000016906370a0823190602401602060405180830381865afa1580156122d3573d6000803e3d6000fd5b505050506040513d601f19601f820116820180604052508101906122f79190613c94565b8211156123525760405162461bcd60e51b8152602060048201526024808201527f416d6f756e74206973207570706572207468616e2062616c616e6365206f66206044820152633ab9b2b960e11b6064820152608401610904565b6040805160608101825285815260208082018681528284018681526001600160a01b0386166000818152600f909452949092209251835551600183015551600290910155839085907fe73f01da0d1ab22feed9447b4801c099a6ebe22122e907da28300e12381a67068533604080519283526001600160a01b0390911660208301520160405180910390a450505050565b6123eb613334565b6123f6600182613424565b6040516001600160a01b038216907fed9c8ad8d5a0a66898ea49d2956929c93ae2e8bd50281b2ed897c5d1a6737e0b90600090a250565b336000908152600f60209081526040808320815160608101835281548152600182015493810193909352600201549082018190526124a45760405162461bcd60e51b81526020600482015260146024820152734e6f20746f6b656e20746f20756e667265657a6560601b6044820152606401610904565b8051601e906124b39042613cfb565b116125005760405162461bcd60e51b815260206004820152601c60248201527f54696d6520666f722072656465656d20697320746f6f2073686f7274000000006044820152606401610904565b8051602082015160009161251391613cfb565b82519091506000906125259042613cfb565b905061254c60646119cb85604001516107ff866119cb60648861338e90919063ffffffff16565b935050505090565b60008061256084612b44565b90508083111561292f576001600160a01b038481166000818152601060205260408082205490516370a0823160e01b81526004810193909352909290917f0000000000000000000000000000000000000000000000000000000000000000909116906370a0823190602401602060405180830381865afa1580156125e8573d6000803e3d6000fd5b505050506040513d601f19601f8201168201806040525081019061260c9190613c94565b6126169190613cfb565b6126209085613cfb565b6001600160a01b03868116600081815260106020526040908190205490516370a0823160e01b815260048101929092529293507f0000000000000000000000000000000000000000000000000000000000000000909116906370a0823190602401602060405180830381865afa15801561269e573d6000803e3d6000fd5b505050506040513d601f19601f820116820180604052508101906126c29190613c94565b6126cc9190613cfb565b84111561273c576001600160a01b0385166000908152601060205260409020546126f7908290613cfb565b6001600160a01b03861660008181526010602052604080822093909355915183927f9bed35cb62ad0dba04f9d5bfee4b5bc91443e77da8a65c4c84834c51bb08b0d691a35b6001600160a01b038581166000818152600f6020526040908190206002015490516370a0823160e01b81526004810192909252917f000000000000000000000000000000000000000000000000000000000000000016906370a0823190602401602060405180830381865afa1580156127b9573d6000803e3d6000fd5b505050506040513d601f19601f820116820180604052508101906127dd9190613c94565b6127e79190613cfb565b6127f18286613cfb565b111561292d576001600160a01b038581166000818152600f60205260408082206002015490516370a0823160e01b81526004810193909352909290917f0000000000000000000000000000000000000000000000000000000000000000909116906370a0823190602401602060405180830381865afa158015612878573d6000803e3d6000fd5b505050506040513d601f19601f8201168201806040525081019061289c9190613c94565b6128a69190613cfb565b6128b08387613cfb565b6128ba9190613cfb565b6001600160a01b0387166000908152600f60205260409020600201549091506128e4908290613cfb565b6001600160a01b0387166000818152600f602052604080822060020193909355915184927f86fc01e32674e4237a61b84eece63ddaf61eb7a3034e3cc7f8ca90558431f68e91a3505b505b600061293a84611906565b604051637a94c56560e11b81526001600160a01b03878116600483015260248201879052604482018390529192506000917f0000000000000000000000000000000000000000000000000000000000000000169063f5298aca906064016020604051808303816000875af11580156129b6573d6000803e3d6000fd5b505050506040513d601f19601f820116820180604052508101906129da9190613c32565b9050806114285760405162461bcd60e51b81526020600482015260146024820152732330b4b632b2103a379039b2b7321022ba3432b960611b6044820152606401610904565b6000605160f81b612a3333338686611ccf565b6001600160f81b03191614612a4757600080fd5b6001600160a01b037f0000000000000000000000000000000000000000000000000000000000000000166323b872dd336040516001600160e01b031960e084901b1681526001600160a01b0391821660048201529086166024820152604481018590526064016020604051808303816000875af1158015612acc573d6000803e3d6000fd5b505050506040513d601f19601f82011682018060405250810190612af09190613c32565b5060019392505050565b612b02613334565b612b0d600282613502565b6040516001600160a01b038216907fb7724d890d2888af5a3fc456edb667e2c82c4441449ebcac301c618759e4f86d90600090a250565b6001600160a01b038181166000818152600f602090815260408083206002015460109092528083205490516370a0823160e01b81526004810194909452919390927f0000000000000000000000000000000000000000000000000000000000000000909116906370a0823190602401602060405180830381865afa158015612bd0573d6000803e3d6000fd5b505050506040513d601f19601f82011682018060405250810190612bf49190613c94565b612bfe9190613cfb565b610dc19190613cfb565b612c10613334565b612ca460148054612c2090613d4d565b80601f0160208091040260200160405190810160405280929190818152602001828054612c4c90613d4d565b8015612c995780601f10612c6e57610100808354040283529160200191612c99565b820191906000526020600020905b815481529060010190602001808311612c7c57829003601f168201915b50505050508361147e565b15612d005760405162461bcd60e51b815260206004820152602660248201527f526571756573742063616e277420626520657175616c20746f206c6173742072604482015265195c5d595cdd60d21b6064820152608401610904565b8151612d13906014906020850190613609565b506005555060006006819055600755565b606060008060006014600554600654600754838054612d4290613d4d565b80601f0160208091040260200160405190810160405280929190818152602001828054612d6e90613d4d565b8015612dbb5780601f10612d9057610100808354040283529160200191612dbb565b820191906000526020600020905b815481529060010190602001808311612d9e57829003601f168201915b50505050509350935093509350935090919293565b612dd933610db4565b158015612df157506008546001600160a01b03163314155b15612dfc573361093b565b7f00000000000000000000000000000000000000000000000000000000000000006001600160a01b03166345e2984a6040518163ffffffff1660e01b815260040161018060405180830381865afa158015612e5b573d6000803e3d6000fd5b505050506040513d601f19601f82011682018060405250810190612e7f9190613b32565b511515600114612ed15760405162461bcd60e51b815260206004820152601d60248201527f467265657a652061646472657373206973206e6f7420616c6c6f7765640000006044820152606401610904565b6001600160a01b038216600081815260126020526040808220805460ff19168515159081179091559051339391927f7fa523c84ab8d7fc5b72f08b9e46dbbf10c39e119a075b3e317002d14bc9f43691a45050565b612f4a60405180606001604052806000815260200160008152602001600081525090565b50336000908152600f6020908152604091829020825160608101845281548152600182015492810192909252600201549181019190915290565b600080612f8f61242d565b905060008111612fa157600091505090565b336000908152600f6020526040902042815560020154612fc2908290613cfb565b336000818152600f602052604080822060020193909355915183927f86fc01e32674e4237a61b84eece63ddaf61eb7a3034e3cc7f8ca90558431f68e91a3600191505090565b600061301333611cc2565b15801561302b57506008546001600160a01b03163314155b1561304b576040516325bfed0960e11b8152336004820152602401610904565b506001600160a01b031660009081526012602052604090205460ff1690565b6000807f00000000000000000000000000000000000000000000000000000000000000006001600160a01b03166345e2984a6040518163ffffffff1660e01b815260040161018060405180830381865afa1580156130cc573d6000803e3d6000fd5b505050506040513d601f19601f820116820180604052508101906130f09190613b32565b905080610100015160001461312d5761312a61311d8261010001516201518061338e90919063ffffffff16565b6004546119cb9042613cfb565b91505b60e0810151158061314e575060075460065411801561314e57506005548311155b61318d5760405162461bcd60e51b815260206004820152601060248201526f139bc81d9bdd19481858d8d95c1d195960821b6044820152606401610904565b828210158061319f5750610100810151155b6131eb5760405162461bcd60e51b815260206004820152601c60248201527f4e6f7420656e6f7567682066756e647320746f207769746864726177000000006044820152606401610904565b4261320b846107ff8461010001516201518061338e90919063ffffffff16565b6004546132189190613c1a565b1115806132285750610100810151155b6132655760405162461bcd60e51b815260206004820152600e60248201526d151a5b59481a5b98dbdc9c9958dd60921b6044820152606401610904565b50919050565b613273613334565b6008546040516001600160a01b038084169216907f5c486528ec3e3f0ea91181cff8116f02bfa350e03b8b6f12e00765adbb5af85c90600090a3600880546001600160a01b0319166001600160a01b0392909216919091179055565b60005b83811015610be8576133228585838181106132ef576132ef613cad565b905060200201602081019061330491906136ff565b84848481811061331657613316613cad565b90506020020135610913565b8061332c81613ce0565b9150506132d2565b6008546001600160a01b031633146121085760405162461bcd60e51b815260206004820181905260248201527f4f776e61626c653a2063616c6c6572206973206e6f7420746865206f776e65726044820152606401610904565b600061339a8284613d2e565b9392505050565b60006001600160a01b0382166134045760405162461bcd60e51b815260206004820152602260248201527f526f6c65733a206163636f756e7420697320746865207a65726f206164647265604482015261737360f01b6064820152608401610904565b506001600160a01b03166000908152602091909152604090205460ff1690565b61342e82826133a1565b6134845760405162461bcd60e51b815260206004820152602160248201527f526f6c65733a206163636f756e7420646f6573206e6f74206861766520726f6c6044820152606560f81b6064820152608401610904565b6001600160a01b0316600090815260209190915260409020805460ff19169055565b600061339a8284613d82565b600080546001600160a01b038381166001600160a01b0319831681178455604051919092169283917f8be0079c531659141344cd1fd0a4f28419497f9722a3daafe3b4186f6b6457e09190a35050565b61350c82826133a1565b156135595760405162461bcd60e51b815260206004820152601f60248201527f526f6c65733a206163636f756e7420616c72656164792068617320726f6c65006044820152606401610904565b6001600160a01b0316600090815260209190915260409020805460ff19166001179055565b82805461358a90613d4d565b90600052602060002090601f0160209004810192826135ac57600085556135f9565b82601f106135bd57805485556135f9565b828001600101855582156135f957600052602060002091601f016020900482015b828111156135f95782548255916001019190600101906135de565b5061360592915061367d565b5090565b82805461361590613d4d565b90600052602060002090601f01602090048101928261363757600085556135f9565b82601f1061365057805160ff19168380011785556135f9565b828001600101855582156135f9579182015b828111156135f9578251825591602001919060010190613662565b5b80821115613605576000815560010161367e565b80356001600160a01b03811681146120f157600080fd5b600080604083850312156136bc57600080fd5b823591506136cc60208401613692565b90509250929050565b600080604083850312156136e857600080fd5b6136f183613692565b946020939093013593505050565b60006020828403121561371157600080fd5b61339a82613692565b60008083601f84011261372c57600080fd5b50813567ffffffffffffffff81111561374457600080fd5b6020830191508360208260051b850101111561375f57600080fd5b9250929050565b6000806000806040858703121561377c57600080fd5b843567ffffffffffffffff8082111561379457600080fd5b6137a08883890161371a565b909650945060208701359150808211156137b957600080fd5b506137c68782880161371a565b95989497509550505050565b6000806000606084860312156137e757600080fd5b6137f084613692565b92506137fe60208501613692565b9150604084013590509250925092565b634e487b7160e01b600052604160045260246000fd5b604051610180810167ffffffffffffffff811182821017156138485761384861380e565b60405290565b600082601f83011261385f57600080fd5b813567ffffffffffffffff8082111561387a5761387a61380e565b604051601f8301601f19908116603f011681019082821181831017156138a2576138a261380e565b816040528381528660208588010111156138bb57600080fd5b836020870160208301376000602085830101528094505050505092915050565b600080604083850312156138ee57600080fd5b823567ffffffffffffffff8082111561390657600080fd5b6139128683870161384e565b9350602085013591508082111561392857600080fd5b506139358582860161384e565b9150509250929050565b60005b8381101561395a578181015183820152602001613942565b8381111561090d5750506000910152565b6000815180845261398381602086016020860161393f565b601f01601f19169290920160200192915050565b60208152600061339a602083018461396b565b6000602082840312156139bc57600080fd5b5035919050565b80151581146139d157600080fd5b50565b600080604083850312156139e757600080fd5b82356136f1816139c3565b60008060008060808587031215613a0857600080fd5b613a1185613692565b9350613a1f60208601613692565b9250613a2d60408601613692565b9396929550929360600135925050565b60008060008060808587031215613a5357600080fd5b843593506020850135925060408501359150613a7160608601613692565b905092959194509250565b60008060408385031215613a8f57600080fd5b823567ffffffffffffffff811115613aa657600080fd5b613ab28582860161384e565b95602094909401359450505050565b608081526000613ad4608083018761396b565b6020830195909552506040810192909252606090910152919050565b60008060408385031215613b0357600080fd5b613b0c83613692565b91506020830135613b1c816139c3565b809150509250929050565b80516120f1816139c3565b60006101808284031215613b4557600080fd5b613b4d613824565b613b5683613b27565b8152613b6460208401613b27565b6020820152613b7560408401613b27565b6040820152613b8660608401613b27565b6060820152613b9760808401613b27565b6080820152613ba860a08401613b27565b60a0820152613bb960c08401613b27565b60c0820152613bca60e08401613b27565b60e0820152610100838101519082015261012080840151908201526101408084015190820152610160928301519281019290925250919050565b634e487b7160e01b600052601160045260246000fd5b60008219821115613c2d57613c2d613c04565b500190565b600060208284031215613c4457600080fd5b815161339a816139c3565b60208082526025908201527f467265657a65207061727469616c2061646472657373206973206e6f7420616c6040820152641b1bddd95960da1b606082015260800190565b600060208284031215613ca657600080fd5b5051919050565b634e487b7160e01b600052603260045260246000fd5b600060208284031215613cd557600080fd5b813561339a816139c3565b6000600019821415613cf457613cf4613c04565b5060010190565b600082821015613d0d57613d0d613c04565b500390565b60008251613d2481846020870161393f565b9190910192915050565b6000816000190483118215151615613d4857613d48613c04565b500290565b600181811c90821680613d6157607f821691505b6020821081141561326557634e487b7160e01b600052602260045260246000fd5b600082613d9f57634e487b7160e01b600052601260045260246000fd5b50049056fea2646970667358221220569de3dd053e70f7eaef8999c9c84b2f9e41556cd47ec72d4a8edf7541f1531364736f6c634300080b0033",
  "immutableReferences": {
    "2097": [
      {
        "length": 32,
        "start": 5902
      }
    ],
    "2788": [
      {
        "length": 32,
        "start": 1872
      },
      {
        "length": 32,
        "start": 2137
      },
      {
        "length": 32,
        "start": 2402
      },
      {
        "length": 32,
        "start": 2602
      },
      {
        "length": 32,
        "start": 3101
      },
      {
        "length": 32,
        "start": 3612
      },
      {
        "length": 32,
        "start": 3780
      },
      {
        "length": 32,
        "start": 4093
      },
      {
        "length": 32,
        "start": 4275
      },
      {
        "length": 32,
        "start": 4560
      },
      {
        "length": 32,
        "start": 4749
      },
      {
        "length": 32,
        "start": 5051
      },
      {
        "length": 32,
        "start": 5359
      },
      {
        "length": 32,
        "start": 5677
      },
      {
        "length": 32,
        "start": 6040
      },
      {
        "length": 32,
        "start": 6160
      },
      {
        "length": 32,
        "start": 6422
      },
      {
        "length": 32,
        "start": 6563
      },
      {
        "length": 32,
        "start": 6620
      },
      {
        "length": 32,
        "start": 7411
      },
      {
        "length": 32,
        "start": 7537
      },
      {
        "length": 32,
        "start": 7751
      },
      {
        "length": 32,
        "start": 8119
      },
      {
        "length": 32,
        "start": 8578
      },
      {
        "length": 32,
        "start": 8844
      },
      {
        "length": 32,
        "start": 9631
      },
      {
        "length": 32,
        "start": 9813
      },
      {
        "length": 32,
        "start": 10098
      },
      {
        "length": 32,
        "start": 10287
      },
      {
        "length": 32,
        "start": 10605
      },
      {
        "length": 32,
        "start": 10833
      },
      {
        "length": 32,
        "start": 11143
      },
      {
        "length": 32,
        "start": 11774
      },
      {
        "length": 32,
        "start": 12399
      }
    ]
  },
  "source": "// SPDX-License-Identifier: MIT\n\npragma solidity ^0.8.0;\n\n\nimport \"../immutable/StorageToken.sol\";\nimport \"../library/TokenLibrary.sol\";\nimport \"../interfaces/ISecurityTokenImmutable.sol\";\nimport \"../interfaces/IProxySecurityToken.sol\";\nimport \"../roles/AgentRole.sol\";\nimport \"../roles/ReaderRole.sol\";\nimport \"@openzeppelin/contracts/access/Ownable.sol\";\nimport \"@openzeppelin/contracts/token/ERC20/ERC20.sol\";\nimport \"@openzeppelin/contracts/utils/math/SafeMath.sol\";\n\ncontract ProxySecurityToken is AgentRole, ReaderRole, StorageToken, IProxySecurityToken {\n    using SafeMath for uint;\n    ISecurityTokenImmutable internal immutable TokenContract;\n\n    /**\n     */\n    constructor(uint256 _pricePerToken, address _securityTokenImmutableAddress) StorageToken(_pricePerToken) {\n        OWNER = _msgSender();\n        lastWithdraw = _now();\n        TokenContract = ISecurityTokenImmutable(_securityTokenImmutableAddress);\n        require(address(TokenContract) != address(0) && OWNER == TokenContract.owner(), \"Token contract is not valid\");\n    }\n\n    /// @dev Modifier to check if fundraising is open and max supply not reached.\n    modifier fundraisable(uint256 amount) {\n        TokenLibrary.Rules memory _rules = TokenContract.getRules();\n        require(_now() >= _rules.startFundraising, \"Fundraising not started\");\n        require(_now() <= _rules.endFundraising || _rules.endFundraising == 0, \"Fundraising ended\");\n        require(TokenContract.totalSupply() + amount <= _rules.maxSupply || _rules.maxSupply == 0, \"Max supply reached\");\n        _;\n    }\n\n    /**\n     * @notice Returns the version of the token contract\n     * @return TOKEN_VERSION {string} version of the smart contract\n     */\n    function version() external pure returns (string memory) {\n        return TOKEN_VERSION;\n    }\n\n    /**\n     * @notice Returns the address wallet of the smart contract owner.\n     * @return owner {address} wallet addres from owner\n     */\n    function owner() public view override(Ownable, IProxySecurityToken) returns (address) {\n        return OWNER;\n    }\n\n    /**\n     * @notice Transfer ownership of the smart contract\n     * @param account {address} address of the new owner\n     */\n    function transferOwnership(address account) public virtual override(Ownable, IProxySecurityToken) onlyOwner {\n        emit TransferOwnership(OWNER, account);\n        OWNER = account;\n    }\n\n    /**\n     * @notice Return not freezed tokens from an address wallet\n     * @param account {address} wallet address of account you want to get not freezed balance\n     * @return balance {uint256} balance of wallet address totaly open\n     */\n    function eligibleBalanceOf(address account) public view returns(uint256) {\n        return TokenContract.balanceOf(account) - frozenTokens[account] - (freezedPeriod[account].amountFreezed);\n    }\n\n    /**\n     * @notice Mint and send `amount` tokens to `to`\n     *\n     * Returns a boolean value indicating whether the operation succeeded.\n     *\n     * Emits a {Transfer} event.\n     * @param to {address} wallet to send the token\n     * @param amount {uint256} amount to mint\n     * @return result {boolean} success or failure\n     */\n    function mint(address to, uint256 amount) external payable fundraisable(amount) returns (bool) {\n        require(msg.value >= pricePerToken * amount, \"Not enough eth\");\n        TokenContract.mint(to, amount);\n        TokenContract.handlePayment{value: msg.value}(_msgSender());\n        return true;\n    }\n\n    /**\n     * @notice Remove `amount` tokens from `account`\n     *\n     * Returns a boolean value indicating whether the operation succeeded.\n     *\n     * Emits a {Transfer} event.\n     * @param account {address} wallet to burn the token\n     * @param amount {uint256} amount to burn\n     */\n    function burn(address account, uint256 amount)\n        external\n        returns (bool)\n    {\n        uint256 freeBalance = eligibleBalanceOf(account);\n        if (amount > freeBalance) {\n            uint256 tokensToUnfreeze = amount - (TokenContract.balanceOf(account) - frozenTokens[account]);\n            if (amount > TokenContract.balanceOf(account) - frozenTokens[account]) {\n                frozenTokens[account] = frozenTokens[account] - (tokensToUnfreeze);\n                emit TokensUnfrozen(account, tokensToUnfreeze);\n            }\n            if (amount - tokensToUnfreeze > TokenContract.balanceOf(account) - (freezedPeriod[account].amountFreezed)) {\n                uint256 tokensToUnfreezePeriod =\n                amount - tokensToUnfreeze - (TokenContract.balanceOf(account) - freezedPeriod[account].amountFreezed);\n                freezedPeriod[account].amountFreezed = freezedPeriod[account].amountFreezed - (tokensToUnfreezePeriod);\n                emit TokensUnfrozenPeriod(account, tokensToUnfreeze);\n            }\n        }\n\n        uint256 _refoundable = refoundable(amount);\n\n        bool success = TokenContract.burn(account, amount, _refoundable);\n        require(success, \"Failed to send Ether\");\n\n        return true;\n    }\n\n    /**\n     * @notice Return amount of refoundable for amount of tokens burned\n     * @param amount {uint256} amout of tokens burn\n     * @return wei {uint256} amount of wei refoundable\n     */\n    function refoundable(uint256 amount) public view returns(uint256){\n        return (address(TokenContract).balance.mul(100).div(TokenContract.totalSupply().mul(100))).mul(amount);\n    }\n\n    /**\n     * @dev Transfer and send `amount` tokens from `_msgSender()` to `to`\n     *\n     * Returns a boolean value indicating whether the operation succeeded.\n     *\n     * Emits a {Transfer} event.\n     * @param to {address} wallet to transfer the token\n     * @param amount {uint256[]} amount to transfer\n     */\n    function transfer(address to, uint256 amount) external returns (bool) {\n        require(canTransfer(_msgSender(), _msgSender(), to, amount) == (hex\"51\"));\n        TokenContract.transferFrom(_msgSender(), to, amount);\n        return true;\n    }\n\n    /**\n     * @dev Transfer and send `amount` tokens from `from` to `to`\n     *\n     * Returns a boolean value indicating whether the operation succeeded.\n     *\n     * Emits a {Transfer} event.\n     * @param from {address} wallet from transfer the token\n     * @param to {address} wallet to transfer the token\n     * @param amount {uint256[]} amount to transfer\n     */\n    function transferFrom(address from, address to, uint256 amount) external returns (bool) {\n        require(canTransfer(_msgSender(), from, to, amount) == (hex\"51\"));\n        TokenContract.transferFrom(from, to, amount);\n        return true;\n    }\n\n    /**\n     * @notice Interface of transfer method, return hex code error message\n     * @param operator {address} operator of transaction (sender)\n     * @param from {address} the origin of the token transfer\n     * @param to {address} the recipient of the token transfer\n     * @param value {uint256} the number of tokens transferred\n     * @return hex {bytes1} code error message\n     */\n    function canTransfer(\n        address operator,\n        address from,\n        address to,\n        uint256 value\n    ) public view returns (bytes1) {\n        if (TokenContract.balanceOf(from) < value) return(hex\"52\");\n        if(_now() < TokenContract.isPaused()) return(hex\"54\");\n        if(TokenContract.balanceOf(from) - frozenTokens[from] - (freezedPeriod[from].amountFreezed) < value) return(hex\"55\");\n        if(from == address(0)) return(hex\"56\");\n        if(to == address(0)) return(hex\"57\");\n        if(!isAgent(operator) && OWNER != operator && from != operator ) return(hex\"58\");\n        if(frozen[from]) return(hex\"5a\");\n        if(frozen[to]) return(hex\"5b\");\n        if(TokenContract.getRules().soulBoundSecurityToken == true) return(hex\"5c\");\n        return (hex\"51\");\n    }\n\n    /**\n     *  @notice Force an address wallet to transfer by agent\n     *  @param from {address} from wallet to transfer\n     *  @param to {address} to wallet to transfer\n     *  @param amount {uint256} amounts of tokens to be transfered\n     */\n    function forceTransfer(\n        address from,\n        address to,\n        uint256 amount\n    ) external onlyAgent returns (bool) {\n        require(TokenContract.getRules().forcableTransfer == true, \"forceTransfer is not authorized on this contract\");\n        uint256 freeBalance = eligibleBalanceOf(from);\n\n        if (amount > freeBalance) {\n            uint256 tokensToUnfreeze = amount - (TokenContract.balanceOf(from) - frozenTokens[from]);\n            if (amount > TokenContract.balanceOf(from) - frozenTokens[from]) {\n                frozenTokens[from] = frozenTokens[from] - (tokensToUnfreeze);\n                emit TokensUnfrozen(from, tokensToUnfreeze);\n            }\n            if (amount - tokensToUnfreeze > TokenContract.balanceOf(from) - (freezedPeriod[from].amountFreezed)) {\n                uint256 tokensToUnfreezePeriod = \n                amount - tokensToUnfreeze - (TokenContract.balanceOf(from) - freezedPeriod[from].amountFreezed);\n                freezedPeriod[from].amountFreezed = freezedPeriod[from].amountFreezed - (tokensToUnfreezePeriod);\n                emit TokensUnfrozenPeriod(from, tokensToUnfreeze);\n            }\n        }\n\n        TokenContract.transferFrom(from, to, amount);\n        return true;\n    }\n\n    /**\n     *  @notice Return freezed or not wallet address tokens\n     *  @param userAddress {address} of the user\n     *  @return frozen {bool} represents freezed wallet address\n     */\n    function isFrozen(address userAddress) external view onlyReader returns (bool) {\n        return frozen[userAddress];\n    }\n\n    /**\n     *  @notice Return freezed tokens amount of wallet address\n     *  @param userAddress {address} of the user\n     *  @return frozenTokens {uint256} amount of freezed tokens\n     */\n    function getFrozenTokens(address userAddress) external view returns (uint256) {\n        return frozenTokens[userAddress];\n    }\n\n    /**\n     *  @notice Freeze totality tokens of single wallet address\n     *  @param userAddress {address} of the user\n     *  @param freeze {boolean} representing freezing\n     */\n    function setAddressFrozen(address userAddress, bool freeze) public onlyAgent {\n        require(TokenContract.getRules().freezableAddress == true, \"Freeze address is not allowed\");\n        frozen[userAddress] = freeze;\n        emit AddressFrozen(userAddress, freeze, _msgSender());\n    }\n\n    /**\n     *  @notice Freeze totality tokens of multiples wallet addresses\n     *  @param userAddresses {address[]} of user addresses\n     *  @param freeze {bool[]} representing freezing\n     */\n    function batchSetAddressFrozen(address[] calldata userAddresses, bool[] calldata freeze) external {\n        for (uint256 i = 0; i < userAddresses.length; i++) {\n            setAddressFrozen(userAddresses[i], freeze[i]);\n        }\n    }\n\n    /**\n     *  @notice Freeze patial tokens of single wallet\n     *  @param userAddress {address} of the user\n     *  @param amount {uint256} of token to be unfreezed\n     */\n    function freezePartialTokens(address userAddress, uint256 amount) public onlyAgent {\n        require(TokenContract.getRules().freezablePartial == true, \"Freeze partial address is not allowed\");\n        uint256 balance = TokenContract.balanceOf(userAddress);\n        require(balance >= frozenTokens[userAddress] + amount, \"Amount exceeds available balance\");\n        frozenTokens[userAddress] = frozenTokens[userAddress] + (amount);\n        emit TokensFrozen(userAddress, amount);\n    }\n\n    /**\n     *  @notice Freeze patial tokens of multiples wallets\n     *  @param userAddresses {address[]} of user addresses\n     *  @param amounts {uint256[]} of amounts of token to be unfreezed\n     */\n    function batchFreezePartialTokens(address[] calldata userAddresses, uint256[] calldata amounts) external {\n        for (uint256 i = 0; i < userAddresses.length; i++) {\n            freezePartialTokens(userAddresses[i], amounts[i]);\n        }\n    }\n\n    /**\n     *  @notice Unfreeze patial tokens of single wallet\n     *  @param userAddress {address} of the user\n     *  @param amount {uint256} of token to be unfreezed\n     */\n    function unfreezePartialTokens(address userAddress, uint256 amount) public onlyAgent {\n        require(TokenContract.getRules().freezablePartial == true, \"Freeze partial address is not allowed\");\n        require(frozenTokens[userAddress] >= amount, \"Amount should be less than or equal to frozen tokens\");\n        frozenTokens[userAddress] = frozenTokens[userAddress] - (amount);\n        emit TokensUnfrozen(userAddress, amount);\n    }\n\n    /**\n     *  @notice Unfreeze patial tokens of multiples wallets\n     *  @param userAddresses {address[]} of user addresses\n     *  @param amounts {uint256[]} of amounts of token to be unfreezed\n     */\n    function batchUnfreezePartialTokens(address[] calldata userAddresses, uint256[] calldata amounts) external {\n        for (uint256 i = 0; i < userAddresses.length; i++) {\n            unfreezePartialTokens(userAddresses[i], amounts[i]);\n        }\n    }\n\n    /**\n     * @notice Freeze token of one address wallet periodically\n     * @param startTime {uint256} Start time of freezing partial token\n     * @param endTime {uint256} End time of freezing partial token\n     * @param amountFreezed {uint256} Amount of frozen token\n     * @param userAddress {address} Address wallet of the user frozen token\n     */\n    function setFreezedTokensPeriod(\n        uint256 startTime,\n        uint256 endTime,\n        uint256 amountFreezed,\n        address userAddress\n    ) external onlyAgent {\n        require(TokenContract.getRules().freezablePartialTime == true, \"Freeze partial period address is not allowed\");\n        require(amountFreezed <= TokenContract.balanceOf(userAddress), \"Amount is upper than balance of user\");\n        freezedPeriod[userAddress] = TokenLibrary.FreezePeriod(\n            startTime,\n            endTime,\n            amountFreezed\n        );\n        emit TokensFrozenPeriod(userAddress, startTime, endTime, amountFreezed, _msgSender());\n    }\n\n    /**\n     * @notice Retrieve struct of freezed tokens in period of msg.sender\n     * @return freezedPeriod {TokenLibrary.FreezePeriod} struct of freezed tokens in period\n     */\n    function myFreezedTokensPeriod() external view returns (TokenLibrary.FreezePeriod memory) {\n        return freezedPeriod[_msgSender()];\n    }\n\n    /**\n     * @notice Retrieve struct of freezed tokens in period of one wallet address by agent\n     * @param userAddress {address} of the user freezed tokens\n     * @return freezedPeriod {TokenLibrary.FreezePeriod} struct of freezed tokens in period\n     */\n    function getFreezedTokensPeriod(address userAddress) external view onlyAgent returns (TokenLibrary.FreezePeriod memory) {\n        return freezedPeriod[userAddress];\n    }\n\n    /**\n     * @notice Get unlockable tokens freezed in period for msg.sender\n     * @return unlockable {uint256} of unlockable tokens freezed in period\n     */\n    function unlockableTokensPeriod() public view returns (uint256) {\n        TokenLibrary.FreezePeriod memory freezedPeriodTemp = freezedPeriod[_msgSender()];\n\n        require(freezedPeriodTemp.amountFreezed > 0, \"No token to unfreeze\");\n        require(_now() - freezedPeriodTemp.startTime > 30, \"Time for redeem is too short\");\n\n        uint256 diff = freezedPeriodTemp.endTime - freezedPeriodTemp.startTime;\n        uint256 timeBehind = _now() - freezedPeriodTemp.startTime;\n\n        return timeBehind.mul(100).div(diff).mul(freezedPeriodTemp.amountFreezed).div(100);\n    }\n\n    /**\n     * @notice Redeem unlockable freezed tokens periodically\n     * @return success {bool} success of redeeming tokens\n     */\n    function redeemFreezedTokens() external returns (bool) {\n        uint256 unlockable = unlockableTokensPeriod();\n        if(unlockable <= 0) return false;\n\n        freezedPeriod[_msgSender()].startTime = _now();\n        freezedPeriod[_msgSender()].amountFreezed = freezedPeriod[_msgSender()].amountFreezed - unlockable;\n\n        emit TokensUnfrozenPeriod(_msgSender(), unlockable);\n\n        return true;\n    }\n\n    /**\n     * @notice Owner request (and request for withdraw if _rules.voteToWithdraw == true) with a comment and amount (Request can't be equal to last request and set request restart all votes)\n     * @param _messageRequest {string} message comment of request\n     * @param _amountRequest {uint256} amount of request\n     */\n    function setRequest(string memory _messageRequest, uint256 _amountRequest) external onlyOwner {\n        require(compare(messageRequest, _messageRequest) == false, \"Request can't be equal to last request\");\n        messageRequest = _messageRequest;\n        amountRequest = _amountRequest;\n        acceptedRequest = 0;\n        refusedRequest = 0;\n    }\n\n    /**\n     * @notice Get request to by owner\n     * @return request {string, uint256, uint256, uint256} (messageRequest, amountRequest, acceptedRequest, refusedRequest)\n     */\n    function getRequest() external view returns(string memory , uint256, uint256, uint256) {\n        return (\n            messageRequest,\n            amountRequest,\n            acceptedRequest,\n            refusedRequest\n        );\n    }\n\n    /**\n     * @notice Shareholder vote to the request of owner\n     * @param vote {boolean} accept (true) or reject (false) request\n     * @param amount {uint256} amount of vote request, need to be lower than balance of shareholder\n     */\n    function voteToRequest(bool vote, uint256 amount) external {\n        require(TokenContract.balanceOf(_msgSender()) >= amount, \"Balance of sender is lower than the amount\");\n        require(compare(hasVoted[_msgSender()], messageRequest) == false, \"Sender has already voted to this request\");\n        hasVoted[_msgSender()] = messageRequest;\n        if(vote == true) acceptedRequest += amount;\n        if(vote == false) refusedRequest += amount;\n    }\n\n    /**\n     * @notice Withdraw tokens amount of contract balance\n     * @param amount {uint256} the number of tokens transferred\n     * @param receiver {address} the recipient of the token transfer\n     */\n    function withdraw(uint256 amount, address receiver) external onlyOwner {\n        withdrawable(amount);\n        TokenLibrary.Rules memory _rules = TokenContract.getRules();\n        if(_rules.dayToWithdraw != 0)\n            lastWithdraw += oneDay.mul(_rules.dayToWithdraw).mul(amount);\n        if(_rules.voteToWithdraw == true) amountRequest = 0;\n        bool success = TokenContract.withdraw(amount, receiver);\n        require(success, \"Withdraw failed\");\n    }\n\n    /**\n     * @notice Check if amout is withdrawable\n     * @param amount {uint256} the number of tokens withdraw\n     * @return weiWithdrawable {uint256} the number of wei transferrable\n     */\n    function withdrawable(uint256 amount) public view returns(uint256 weiWithdrawable) {\n        TokenLibrary.Rules memory _rules = TokenContract.getRules();\n        if(_rules.dayToWithdraw != 0)\n            weiWithdrawable = ((_now() - lastWithdraw).div(oneDay.mul(_rules.dayToWithdraw)));\n        require(_rules.voteToWithdraw == false || (acceptedRequest> refusedRequest && amount <= amountRequest), \"No vote accepted\");\n        require(weiWithdrawable >= amount || _rules.dayToWithdraw == 0, \"Not enough funds to withdraw\");\n        require(lastWithdraw + oneDay.mul(_rules.dayToWithdraw).mul(amount) <= _now() || _rules.dayToWithdraw == 0, \"Time incorrect\");\n    }\n}",
  "sourcePath": "/home/solid-solution/Bureau/HOMEWORK/Smart-Starter/smart-contract/contracts/proxy/ProxySecurityToken.sol",
  "compiler": {
    "name": "solc",
    "version": "0.8.11+commit.d7f03943.Emscripten.clang"
  },
  "schemaVersion": "3.4.10",
  "updatedAt": "2023-02-23T21:16:08.039Z",
  "devdoc": {
    "kind": "dev",
    "methods": {
      "batchFreezePartialTokens(address[],uint256[])": {
        "params": {
          "amounts": "{uint256[]} of amounts of token to be unfreezed",
          "userAddresses": "{address[]} of user addresses"
        }
      },
      "batchSetAddressFrozen(address[],bool[])": {
        "params": {
          "freeze": "{bool[]} representing freezing",
          "userAddresses": "{address[]} of user addresses"
        }
      },
      "batchUnfreezePartialTokens(address[],uint256[])": {
        "params": {
          "amounts": "{uint256[]} of amounts of token to be unfreezed",
          "userAddresses": "{address[]} of user addresses"
        }
      },
      "burn(address,uint256)": {
        "params": {
          "account": "{address} wallet to burn the token",
          "amount": "{uint256} amount to burn"
        }
      },
      "canTransfer(address,address,address,uint256)": {
        "params": {
          "from": "{address} the origin of the token transfer",
          "operator": "{address} operator of transaction (sender)",
          "to": "{address} the recipient of the token transfer",
          "value": "{uint256} the number of tokens transferred"
        },
        "returns": {
          "_0": "hex {bytes1} code error message"
        }
      },
      "eligibleBalanceOf(address)": {
        "params": {
          "account": "{address} wallet address of account you want to get not freezed balance"
        },
        "returns": {
          "_0": "balance {uint256} balance of wallet address totaly open"
        }
      },
      "forceTransfer(address,address,uint256)": {
        "params": {
          "amount": "{uint256} amounts of tokens to be transfered",
          "from": "{address} from wallet to transfer",
          "to": "{address} to wallet to transfer"
        }
      },
      "freezePartialTokens(address,uint256)": {
        "params": {
          "amount": "{uint256} of token to be unfreezed",
          "userAddress": "{address} of the user"
        }
      },
      "getFreezedTokensPeriod(address)": {
        "params": {
          "userAddress": "{address} of the user freezed tokens"
        },
        "returns": {
          "_0": "freezedPeriod {TokenLibrary.FreezePeriod} struct of freezed tokens in period"
        }
      },
      "getFrozenTokens(address)": {
        "params": {
          "userAddress": "{address} of the user"
        },
        "returns": {
          "_0": "frozenTokens {uint256} amount of freezed tokens"
        }
      },
      "getRequest()": {
        "returns": {
          "_0": "request {string, uint256, uint256, uint256} (messageRequest, amountRequest, acceptedRequest, refusedRequest)"
        }
      },
      "isFrozen(address)": {
        "params": {
          "userAddress": "{address} of the user"
        },
        "returns": {
          "_0": "frozen {bool} represents freezed wallet address"
        }
      },
      "mint(address,uint256)": {
        "params": {
          "amount": "{uint256} amount to mint",
          "to": "{address} wallet to send the token"
        },
        "returns": {
          "_0": "result {boolean} success or failure"
        }
      },
      "myFreezedTokensPeriod()": {
        "returns": {
          "_0": "freezedPeriod {TokenLibrary.FreezePeriod} struct of freezed tokens in period"
        }
      },
      "owner()": {
        "returns": {
          "_0": "owner {address} wallet addres from owner"
        }
      },
      "redeemFreezedTokens()": {
        "returns": {
          "_0": "success {bool} success of redeeming tokens"
        }
      },
      "refoundable(uint256)": {
        "params": {
          "amount": "{uint256} amout of tokens burn"
        },
        "returns": {
          "_0": "wei {uint256} amount of wei refoundable"
        }
      },
      "renounceOwnership()": {
        "details": "Leaves the contract without owner. It will not be possible to call `onlyOwner` functions anymore. Can only be called by the current owner. NOTE: Renouncing ownership will leave the contract without an owner, thereby removing any functionality that is only available to the owner."
      },
      "setAddressFrozen(address,bool)": {
        "params": {
          "freeze": "{boolean} representing freezing",
          "userAddress": "{address} of the user"
        }
      },
      "setFreezedTokensPeriod(uint256,uint256,uint256,address)": {
        "params": {
          "amountFreezed": "{uint256} Amount of frozen token",
          "endTime": "{uint256} End time of freezing partial token",
          "startTime": "{uint256} Start time of freezing partial token",
          "userAddress": "{address} Address wallet of the user frozen token"
        }
      },
      "setRequest(string,uint256)": {
        "params": {
          "_amountRequest": "{uint256} amount of request",
          "_messageRequest": "{string} message comment of request"
        }
      },
      "transfer(address,uint256)": {
        "details": "Transfer and send `amount` tokens from `_msgSender()` to `to` Returns a boolean value indicating whether the operation succeeded. Emits a {Transfer} event.",
        "params": {
          "amount": "{uint256[]} amount to transfer",
          "to": "{address} wallet to transfer the token"
        }
      },
      "transferFrom(address,address,uint256)": {
        "details": "Transfer and send `amount` tokens from `from` to `to` Returns a boolean value indicating whether the operation succeeded. Emits a {Transfer} event.",
        "params": {
          "amount": "{uint256[]} amount to transfer",
          "from": "{address} wallet from transfer the token",
          "to": "{address} wallet to transfer the token"
        }
      },
      "transferOwnership(address)": {
        "params": {
          "account": "{address} address of the new owner"
        }
      },
      "unfreezePartialTokens(address,uint256)": {
        "params": {
          "amount": "{uint256} of token to be unfreezed",
          "userAddress": "{address} of the user"
        }
      },
      "unlockableTokensPeriod()": {
        "returns": {
          "_0": "unlockable {uint256} of unlockable tokens freezed in period"
        }
      },
      "version()": {
        "returns": {
          "_0": "TOKEN_VERSION {string} version of the smart contract"
        }
      },
      "voteToRequest(bool,uint256)": {
        "params": {
          "amount": "{uint256} amount of vote request, need to be lower than balance of shareholder",
          "vote": "{boolean} accept (true) or reject (false) request"
        }
      },
      "withdraw(uint256,address)": {
        "params": {
          "amount": "{uint256} the number of tokens transferred",
          "receiver": "{address} the recipient of the token transfer"
        }
      },
      "withdrawable(uint256)": {
        "params": {
          "amount": "{uint256} the number of tokens withdraw"
        },
        "returns": {
          "weiWithdrawable": "{uint256} the number of wei transferrable"
        }
      }
    },
    "version": 1
  },
  "userdoc": {
    "kind": "user",
    "methods": {
      "batchFreezePartialTokens(address[],uint256[])": {
        "notice": "Freeze patial tokens of multiples wallets"
      },
      "batchSetAddressFrozen(address[],bool[])": {
        "notice": "Freeze totality tokens of multiples wallet addresses"
      },
      "batchUnfreezePartialTokens(address[],uint256[])": {
        "notice": "Unfreeze patial tokens of multiples wallets"
      },
      "burn(address,uint256)": {
        "notice": "Remove `amount` tokens from `account` Returns a boolean value indicating whether the operation succeeded. Emits a {Transfer} event."
      },
      "canTransfer(address,address,address,uint256)": {
        "notice": "Interface of transfer method, return hex code error message"
      },
      "eligibleBalanceOf(address)": {
        "notice": "Return not freezed tokens from an address wallet"
      },
      "forceTransfer(address,address,uint256)": {
        "notice": "Force an address wallet to transfer by agent"
      },
      "freezePartialTokens(address,uint256)": {
        "notice": "Freeze patial tokens of single wallet"
      },
      "getFreezedTokensPeriod(address)": {
        "notice": "Retrieve struct of freezed tokens in period of one wallet address by agent"
      },
      "getFrozenTokens(address)": {
        "notice": "Return freezed tokens amount of wallet address"
      },
      "getRequest()": {
        "notice": "Get request to by owner"
      },
      "isFrozen(address)": {
        "notice": "Return freezed or not wallet address tokens"
      },
      "mint(address,uint256)": {
        "notice": "Mint and send `amount` tokens to `to` Returns a boolean value indicating whether the operation succeeded. Emits a {Transfer} event."
      },
      "myFreezedTokensPeriod()": {
        "notice": "Retrieve struct of freezed tokens in period of msg.sender"
      },
      "owner()": {
        "notice": "Returns the address wallet of the smart contract owner."
      },
      "redeemFreezedTokens()": {
        "notice": "Redeem unlockable freezed tokens periodically"
      },
      "refoundable(uint256)": {
        "notice": "Return amount of refoundable for amount of tokens burned"
      },
      "setAddressFrozen(address,bool)": {
        "notice": "Freeze totality tokens of single wallet address"
      },
      "setFreezedTokensPeriod(uint256,uint256,uint256,address)": {
        "notice": "Freeze token of one address wallet periodically"
      },
      "setRequest(string,uint256)": {
        "notice": "Owner request (and request for withdraw if _rules.voteToWithdraw == true) with a comment and amount (Request can't be equal to last request and set request restart all votes)"
      },
      "transferOwnership(address)": {
        "notice": "Transfer ownership of the smart contract"
      },
      "unfreezePartialTokens(address,uint256)": {
        "notice": "Unfreeze patial tokens of single wallet"
      },
      "unlockableTokensPeriod()": {
        "notice": "Get unlockable tokens freezed in period for msg.sender"
      },
      "version()": {
        "notice": "Returns the version of the token contract"
      },
      "voteToRequest(bool,uint256)": {
        "notice": "Shareholder vote to the request of owner"
      },
      "withdraw(uint256,address)": {
        "notice": "Withdraw tokens amount of contract balance"
      },
      "withdrawable(uint256)": {
        "notice": "Check if amout is withdrawable"
      }
    },
    "version": 1
  }
}