{
  "contractName": "SecurityTokenImmutable",
  "abi": [
    {
      "inputs": [
        {
          "internalType": "string",
          "name": "_name",
          "type": "string"
        },
        {
          "internalType": "string",
          "name": "_code",
          "type": "string"
        },
        {
          "components": [
            {
              "internalType": "bool",
              "name": "freezableAddress",
              "type": "bool"
            },
            {
              "internalType": "bool",
              "name": "freezablePartial",
              "type": "bool"
            },
            {
              "internalType": "bool",
              "name": "freezablePartialTime",
              "type": "bool"
            },
            {
              "internalType": "bool",
              "name": "pausable",
              "type": "bool"
            },
            {
              "internalType": "bool",
              "name": "forcableTransfer",
              "type": "bool"
            },
            {
              "internalType": "bool",
              "name": "rulesModifiable",
              "type": "bool"
            },
            {
              "internalType": "bool",
              "name": "soulBoundSecurityToken",
              "type": "bool"
            },
            {
              "internalType": "bool",
              "name": "voteToWithdraw",
              "type": "bool"
            },
            {
              "internalType": "uint256",
              "name": "dayToWithdraw",
              "type": "uint256"
            },
            {
              "internalType": "uint256",
              "name": "startFundraising",
              "type": "uint256"
            },
            {
              "internalType": "uint256",
              "name": "endFundraising",
              "type": "uint256"
            },
            {
              "internalType": "uint256",
              "name": "maxSupply",
              "type": "uint256"
            }
          ],
          "internalType": "struct TokenLibrary.Rules",
          "name": "_rules",
          "type": "tuple"
        }
      ],
      "stateMutability": "nonpayable",
      "type": "constructor"
    },
    {
      "inputs": [
        {
          "internalType": "address",
          "name": "sender",
          "type": "address"
        }
      ],
      "name": "NotAgent",
      "type": "error"
    },
    {
      "inputs": [
        {
          "internalType": "address",
          "name": "sender",
          "type": "address"
        }
      ],
      "name": "NotReader",
      "type": "error"
    },
    {
      "anonymous": false,
      "inputs": [
        {
          "indexed": true,
          "internalType": "address",
          "name": "_agent",
          "type": "address"
        }
      ],
      "name": "AgentAdded",
      "type": "event"
    },
    {
      "anonymous": false,
      "inputs": [
        {
          "indexed": true,
          "internalType": "address",
          "name": "_agent",
          "type": "address"
        }
      ],
      "name": "AgentRemoved",
      "type": "event"
    },
    {
      "anonymous": false,
      "inputs": [
        {
          "indexed": true,
          "internalType": "address",
          "name": "owner",
          "type": "address"
        },
        {
          "indexed": true,
          "internalType": "address",
          "name": "spender",
          "type": "address"
        },
        {
          "indexed": false,
          "internalType": "uint256",
          "name": "value",
          "type": "uint256"
        }
      ],
      "name": "Approval",
      "type": "event"
    },
    {
      "anonymous": false,
      "inputs": [
        {
          "indexed": false,
          "internalType": "address",
          "name": "operator",
          "type": "address"
        },
        {
          "indexed": false,
          "internalType": "address",
          "name": "sender",
          "type": "address"
        },
        {
          "indexed": false,
          "internalType": "uint256",
          "name": "value",
          "type": "uint256"
        }
      ],
      "name": "HandlePaiement",
      "type": "event"
    },
    {
      "anonymous": false,
      "inputs": [
        {
          "indexed": false,
          "internalType": "address",
          "name": "operator",
          "type": "address"
        },
        {
          "indexed": false,
          "internalType": "uint256",
          "name": "value",
          "type": "uint256"
        }
      ],
      "name": "InjectCapital",
      "type": "event"
    },
    {
      "anonymous": false,
      "inputs": [
        {
          "indexed": true,
          "internalType": "address",
          "name": "previousOwner",
          "type": "address"
        },
        {
          "indexed": true,
          "internalType": "address",
          "name": "newOwner",
          "type": "address"
        }
      ],
      "name": "OwnershipTransferred",
      "type": "event"
    },
    {
      "anonymous": false,
      "inputs": [
        {
          "indexed": true,
          "internalType": "address",
          "name": "sender",
          "type": "address"
        },
        {
          "indexed": true,
          "internalType": "uint256",
          "name": "paused",
          "type": "uint256"
        }
      ],
      "name": "Paused",
      "type": "event"
    },
    {
      "anonymous": false,
      "inputs": [
        {
          "indexed": true,
          "internalType": "address",
          "name": "_reader",
          "type": "address"
        }
      ],
      "name": "ReaderAdded",
      "type": "event"
    },
    {
      "anonymous": false,
      "inputs": [
        {
          "indexed": true,
          "internalType": "address",
          "name": "_reader",
          "type": "address"
        }
      ],
      "name": "ReaderRemoved",
      "type": "event"
    },
    {
      "anonymous": false,
      "inputs": [
        {
          "indexed": false,
          "internalType": "string",
          "name": "eventType",
          "type": "string"
        },
        {
          "indexed": true,
          "internalType": "address",
          "name": "from",
          "type": "address"
        },
        {
          "indexed": true,
          "internalType": "address",
          "name": "to",
          "type": "address"
        },
        {
          "indexed": false,
          "internalType": "uint256",
          "name": "value",
          "type": "uint256"
        }
      ],
      "name": "Transfer",
      "type": "event"
    },
    {
      "anonymous": false,
      "inputs": [
        {
          "indexed": true,
          "internalType": "address",
          "name": "from",
          "type": "address"
        },
        {
          "indexed": true,
          "internalType": "address",
          "name": "to",
          "type": "address"
        },
        {
          "indexed": false,
          "internalType": "uint256",
          "name": "value",
          "type": "uint256"
        }
      ],
      "name": "Transfer",
      "type": "event"
    },
    {
      "anonymous": false,
      "inputs": [
        {
          "indexed": true,
          "internalType": "address",
          "name": "oldAccount",
          "type": "address"
        },
        {
          "indexed": true,
          "internalType": "address",
          "name": "newAccount",
          "type": "address"
        }
      ],
      "name": "TransferOwnership",
      "type": "event"
    },
    {
      "inputs": [
        {
          "internalType": "address",
          "name": "_agent",
          "type": "address"
        }
      ],
      "name": "addAgent",
      "outputs": [],
      "stateMutability": "nonpayable",
      "type": "function"
    },
    {
      "inputs": [
        {
          "internalType": "address",
          "name": "_reader",
          "type": "address"
        }
      ],
      "name": "addReader",
      "outputs": [],
      "stateMutability": "nonpayable",
      "type": "function"
    },
    {
      "inputs": [
        {
          "internalType": "address",
          "name": "owner",
          "type": "address"
        },
        {
          "internalType": "address",
          "name": "spender",
          "type": "address"
        }
      ],
      "name": "allowance",
      "outputs": [
        {
          "internalType": "uint256",
          "name": "",
          "type": "uint256"
        }
      ],
      "stateMutability": "view",
      "type": "function"
    },
    {
      "inputs": [
        {
          "internalType": "address",
          "name": "spender",
          "type": "address"
        },
        {
          "internalType": "uint256",
          "name": "amount",
          "type": "uint256"
        }
      ],
      "name": "approve",
      "outputs": [
        {
          "internalType": "bool",
          "name": "",
          "type": "bool"
        }
      ],
      "stateMutability": "nonpayable",
      "type": "function"
    },
    {
      "inputs": [],
      "name": "decimals",
      "outputs": [
        {
          "internalType": "uint8",
          "name": "",
          "type": "uint8"
        }
      ],
      "stateMutability": "view",
      "type": "function"
    },
    {
      "inputs": [
        {
          "internalType": "address",
          "name": "spender",
          "type": "address"
        },
        {
          "internalType": "uint256",
          "name": "subtractedValue",
          "type": "uint256"
        }
      ],
      "name": "decreaseAllowance",
      "outputs": [
        {
          "internalType": "bool",
          "name": "",
          "type": "bool"
        }
      ],
      "stateMutability": "nonpayable",
      "type": "function"
    },
    {
      "inputs": [
        {
          "internalType": "address",
          "name": "spender",
          "type": "address"
        },
        {
          "internalType": "uint256",
          "name": "addedValue",
          "type": "uint256"
        }
      ],
      "name": "increaseAllowance",
      "outputs": [
        {
          "internalType": "bool",
          "name": "",
          "type": "bool"
        }
      ],
      "stateMutability": "nonpayable",
      "type": "function"
    },
    {
      "inputs": [
        {
          "internalType": "address",
          "name": "_agent",
          "type": "address"
        }
      ],
      "name": "isAgent",
      "outputs": [
        {
          "internalType": "bool",
          "name": "",
          "type": "bool"
        }
      ],
      "stateMutability": "view",
      "type": "function"
    },
    {
      "inputs": [
        {
          "internalType": "address",
          "name": "_reader",
          "type": "address"
        }
      ],
      "name": "isReader",
      "outputs": [
        {
          "internalType": "bool",
          "name": "",
          "type": "bool"
        }
      ],
      "stateMutability": "view",
      "type": "function"
    },
    {
      "inputs": [],
      "name": "name",
      "outputs": [
        {
          "internalType": "string",
          "name": "",
          "type": "string"
        }
      ],
      "stateMutability": "view",
      "type": "function"
    },
    {
      "inputs": [
        {
          "internalType": "address",
          "name": "_agent",
          "type": "address"
        }
      ],
      "name": "removeAgent",
      "outputs": [],
      "stateMutability": "nonpayable",
      "type": "function"
    },
    {
      "inputs": [
        {
          "internalType": "address",
          "name": "_reader",
          "type": "address"
        }
      ],
      "name": "removeReader",
      "outputs": [],
      "stateMutability": "nonpayable",
      "type": "function"
    },
    {
      "inputs": [],
      "name": "renounceOwnership",
      "outputs": [],
      "stateMutability": "nonpayable",
      "type": "function"
    },
    {
      "inputs": [],
      "name": "symbol",
      "outputs": [
        {
          "internalType": "string",
          "name": "",
          "type": "string"
        }
      ],
      "stateMutability": "view",
      "type": "function"
    },
    {
      "inputs": [],
      "name": "_now",
      "outputs": [
        {
          "internalType": "uint256",
          "name": "",
          "type": "uint256"
        }
      ],
      "stateMutability": "view",
      "type": "function"
    },
    {
      "inputs": [
        {
          "internalType": "address",
          "name": "_addressProxy",
          "type": "address"
        }
      ],
      "name": "setAddressProxy",
      "outputs": [],
      "stateMutability": "nonpayable",
      "type": "function"
    },
    {
      "inputs": [],
      "name": "getAddressProxy",
      "outputs": [
        {
          "internalType": "address",
          "name": "",
          "type": "address"
        }
      ],
      "stateMutability": "view",
      "type": "function"
    },
    {
      "inputs": [
        {
          "internalType": "uint256",
          "name": "startFundraising",
          "type": "uint256"
        },
        {
          "internalType": "uint256",
          "name": "endFundraising",
          "type": "uint256"
        },
        {
          "internalType": "uint256",
          "name": "maxSupply",
          "type": "uint256"
        }
      ],
      "name": "setFundraising",
      "outputs": [],
      "stateMutability": "nonpayable",
      "type": "function"
    },
    {
      "inputs": [
        {
          "components": [
            {
              "internalType": "bool",
              "name": "freezableAddress",
              "type": "bool"
            },
            {
              "internalType": "bool",
              "name": "freezablePartial",
              "type": "bool"
            },
            {
              "internalType": "bool",
              "name": "freezablePartialTime",
              "type": "bool"
            },
            {
              "internalType": "bool",
              "name": "pausable",
              "type": "bool"
            },
            {
              "internalType": "bool",
              "name": "forcableTransfer",
              "type": "bool"
            },
            {
              "internalType": "bool",
              "name": "rulesModifiable",
              "type": "bool"
            },
            {
              "internalType": "bool",
              "name": "soulBoundSecurityToken",
              "type": "bool"
            },
            {
              "internalType": "bool",
              "name": "voteToWithdraw",
              "type": "bool"
            },
            {
              "internalType": "uint256",
              "name": "dayToWithdraw",
              "type": "uint256"
            },
            {
              "internalType": "uint256",
              "name": "startFundraising",
              "type": "uint256"
            },
            {
              "internalType": "uint256",
              "name": "endFundraising",
              "type": "uint256"
            },
            {
              "internalType": "uint256",
              "name": "maxSupply",
              "type": "uint256"
            }
          ],
          "internalType": "struct TokenLibrary.Rules",
          "name": "_rules",
          "type": "tuple"
        }
      ],
      "name": "setRules",
      "outputs": [],
      "stateMutability": "nonpayable",
      "type": "function"
    },
    {
      "inputs": [],
      "name": "getRules",
      "outputs": [
        {
          "components": [
            {
              "internalType": "bool",
              "name": "freezableAddress",
              "type": "bool"
            },
            {
              "internalType": "bool",
              "name": "freezablePartial",
              "type": "bool"
            },
            {
              "internalType": "bool",
              "name": "freezablePartialTime",
              "type": "bool"
            },
            {
              "internalType": "bool",
              "name": "pausable",
              "type": "bool"
            },
            {
              "internalType": "bool",
              "name": "forcableTransfer",
              "type": "bool"
            },
            {
              "internalType": "bool",
              "name": "rulesModifiable",
              "type": "bool"
            },
            {
              "internalType": "bool",
              "name": "soulBoundSecurityToken",
              "type": "bool"
            },
            {
              "internalType": "bool",
              "name": "voteToWithdraw",
              "type": "bool"
            },
            {
              "internalType": "uint256",
              "name": "dayToWithdraw",
              "type": "uint256"
            },
            {
              "internalType": "uint256",
              "name": "startFundraising",
              "type": "uint256"
            },
            {
              "internalType": "uint256",
              "name": "endFundraising",
              "type": "uint256"
            },
            {
              "internalType": "uint256",
              "name": "maxSupply",
              "type": "uint256"
            }
          ],
          "internalType": "struct TokenLibrary.Rules",
          "name": "",
          "type": "tuple"
        }
      ],
      "stateMutability": "view",
      "type": "function"
    },
    {
      "inputs": [
        {
          "internalType": "uint32",
          "name": "index",
          "type": "uint32"
        },
        {
          "components": [
            {
              "internalType": "string",
              "name": "title",
              "type": "string"
            },
            {
              "internalType": "string",
              "name": "content",
              "type": "string"
            },
            {
              "internalType": "string",
              "name": "imageUri",
              "type": "string"
            },
            {
              "internalType": "string",
              "name": "note",
              "type": "string"
            },
            {
              "internalType": "uint256",
              "name": "timestamp",
              "type": "uint256"
            }
          ],
          "internalType": "struct TokenLibrary.Article",
          "name": "_article",
          "type": "tuple"
        }
      ],
      "name": "upsertArticle",
      "outputs": [],
      "stateMutability": "nonpayable",
      "type": "function"
    },
    {
      "inputs": [
        {
          "internalType": "uint32",
          "name": "skip",
          "type": "uint32"
        },
        {
          "internalType": "uint32",
          "name": "limit",
          "type": "uint32"
        }
      ],
      "name": "getArticles",
      "outputs": [
        {
          "components": [
            {
              "internalType": "string",
              "name": "title",
              "type": "string"
            },
            {
              "internalType": "string",
              "name": "content",
              "type": "string"
            },
            {
              "internalType": "string",
              "name": "imageUri",
              "type": "string"
            },
            {
              "internalType": "string",
              "name": "note",
              "type": "string"
            },
            {
              "internalType": "uint256",
              "name": "timestamp",
              "type": "uint256"
            }
          ],
          "internalType": "struct TokenLibrary.Article[]",
          "name": "",
          "type": "tuple[]"
        }
      ],
      "stateMutability": "view",
      "type": "function"
    },
    {
      "inputs": [],
      "name": "version",
      "outputs": [
        {
          "internalType": "string",
          "name": "",
          "type": "string"
        }
      ],
      "stateMutability": "pure",
      "type": "function"
    },
    {
      "inputs": [],
      "name": "owner",
      "outputs": [
        {
          "internalType": "address",
          "name": "",
          "type": "address"
        }
      ],
      "stateMutability": "view",
      "type": "function"
    },
    {
      "inputs": [
        {
          "internalType": "uint32",
          "name": "skip",
          "type": "uint32"
        },
        {
          "internalType": "uint32",
          "name": "limit",
          "type": "uint32"
        }
      ],
      "name": "transfers",
      "outputs": [
        {
          "components": [
            {
              "internalType": "string",
              "name": "transferType",
              "type": "string"
            },
            {
              "internalType": "address",
              "name": "from",
              "type": "address"
            },
            {
              "internalType": "address",
              "name": "to",
              "type": "address"
            },
            {
              "internalType": "uint256",
              "name": "amount",
              "type": "uint256"
            },
            {
              "internalType": "uint256",
              "name": "date",
              "type": "uint256"
            }
          ],
          "internalType": "struct TokenLibrary.Transfer[]",
          "name": "",
          "type": "tuple[]"
        }
      ],
      "stateMutability": "view",
      "type": "function"
    },
    {
      "inputs": [
        {
          "internalType": "address",
          "name": "account",
          "type": "address"
        }
      ],
      "name": "transferOwnership",
      "outputs": [],
      "stateMutability": "nonpayable",
      "type": "function"
    },
    {
      "inputs": [
        {
          "internalType": "address",
          "name": "to",
          "type": "address"
        },
        {
          "internalType": "uint256",
          "name": "amount",
          "type": "uint256"
        }
      ],
      "name": "mint",
      "outputs": [
        {
          "internalType": "bool",
          "name": "",
          "type": "bool"
        }
      ],
      "stateMutability": "payable",
      "type": "function"
    },
    {
      "inputs": [
        {
          "internalType": "address",
          "name": "account",
          "type": "address"
        },
        {
          "internalType": "uint256",
          "name": "amount",
          "type": "uint256"
        },
        {
          "internalType": "uint256",
          "name": "refoundable",
          "type": "uint256"
        }
      ],
      "name": "burn",
      "outputs": [
        {
          "internalType": "bool",
          "name": "",
          "type": "bool"
        }
      ],
      "stateMutability": "nonpayable",
      "type": "function"
    },
    {
      "inputs": [
        {
          "internalType": "address",
          "name": "to",
          "type": "address"
        },
        {
          "internalType": "uint256",
          "name": "amount",
          "type": "uint256"
        }
      ],
      "name": "transfer",
      "outputs": [
        {
          "internalType": "bool",
          "name": "",
          "type": "bool"
        }
      ],
      "stateMutability": "nonpayable",
      "type": "function"
    },
    {
      "inputs": [
        {
          "internalType": "address",
          "name": "from",
          "type": "address"
        },
        {
          "internalType": "address",
          "name": "to",
          "type": "address"
        },
        {
          "internalType": "uint256",
          "name": "amount",
          "type": "uint256"
        }
      ],
      "name": "transferFrom",
      "outputs": [
        {
          "internalType": "bool",
          "name": "",
          "type": "bool"
        }
      ],
      "stateMutability": "nonpayable",
      "type": "function"
    },
    {
      "inputs": [],
      "name": "totalSupply",
      "outputs": [
        {
          "internalType": "uint256",
          "name": "",
          "type": "uint256"
        }
      ],
      "stateMutability": "view",
      "type": "function"
    },
    {
      "inputs": [
        {
          "internalType": "address",
          "name": "account",
          "type": "address"
        }
      ],
      "name": "balanceOf",
      "outputs": [
        {
          "internalType": "uint256",
          "name": "",
          "type": "uint256"
        }
      ],
      "stateMutability": "view",
      "type": "function"
    },
    {
      "inputs": [
        {
          "internalType": "uint256",
          "name": "_paused",
          "type": "uint256"
        }
      ],
      "name": "pause",
      "outputs": [],
      "stateMutability": "nonpayable",
      "type": "function"
    },
    {
      "inputs": [],
      "name": "unpause",
      "outputs": [],
      "stateMutability": "nonpayable",
      "type": "function"
    },
    {
      "inputs": [],
      "name": "isPaused",
      "outputs": [
        {
          "internalType": "uint256",
          "name": "",
          "type": "uint256"
        }
      ],
      "stateMutability": "view",
      "type": "function"
    },
    {
      "inputs": [
        {
          "internalType": "uint256",
          "name": "amount",
          "type": "uint256"
        },
        {
          "internalType": "address",
          "name": "receiver",
          "type": "address"
        }
      ],
      "name": "withdraw",
      "outputs": [
        {
          "internalType": "bool",
          "name": "",
          "type": "bool"
        }
      ],
      "stateMutability": "nonpayable",
      "type": "function"
    },
    {
      "inputs": [
        {
          "internalType": "address",
          "name": "senderAddress",
          "type": "address"
        }
      ],
      "name": "handlePayment",
      "outputs": [
        {
          "internalType": "bool",
          "name": "",
          "type": "bool"
        }
      ],
      "stateMutability": "payable",
      "type": "function"
    },
    {
      "inputs": [],
      "name": "injectCapital",
      "outputs": [
        {
          "internalType": "bool",
          "name": "",
          "type": "bool"
        }
      ],
      "stateMutability": "payable",
      "type": "function"
    }
  ],
  "bytecode": "0x60806040523480156200001157600080fd5b50604051620032c1380380620032c18339810160408190526200003491620003b9565b8251839083906200004d906003906020850190620001f3565b50805162000063906004906020840190620001f3565b505050620000806200007a6200019d60201b60201c565b620001a1565b33600980546001600160a01b0319166001600160a01b03929092169190911790558051600d8054602084015160408501516060860151608087015160a088015160c089015160e08a015161ffff1990971698151561ff0019169890981761010095151586021763ffff00001916620100009415159490940263ff0000001916939093176301000000921515929092029190911761ffff60201b19166401000000009115159190910260ff60281b19161765010000000000911515919091021761ffff60301b191666010000000000009415159490940260ff60381b19169390931767010000000000000091151591909102179055810151600e55610120810151600f55610140810151601055610160015160115550620005509050565b3390565b600580546001600160a01b038381166001600160a01b0319831681179093556040519116919082907f8be0079c531659141344cd1fd0a4f28419497f9722a3daafe3b4186f6b6457e090600090a35050565b828054620002019062000513565b90600052602060002090601f01602090048101928262000225576000855562000270565b82601f106200024057805160ff191683800117855562000270565b8280016001018555821562000270579182015b828111156200027057825182559160200191906001019062000253565b506200027e92915062000282565b5090565b5b808211156200027e576000815560010162000283565b634e487b7160e01b600052604160045260246000fd5b60405161018081016001600160401b0381118282101715620002d557620002d562000299565b60405290565b604051601f8201601f191681016001600160401b038111828210171562000306576200030662000299565b604052919050565b600082601f8301126200032057600080fd5b81516001600160401b038111156200033c576200033c62000299565b602062000352601f8301601f19168201620002db565b82815285828487010111156200036757600080fd5b60005b83811015620003875785810183015182820184015282016200036a565b83811115620003995760008385840101525b5095945050505050565b80518015158114620003b457600080fd5b919050565b60008060008385036101c0811215620003d157600080fd5b84516001600160401b0380821115620003e957600080fd5b620003f7888389016200030e565b955060208701519150808211156200040e57600080fd5b506200041d878288016200030e565b93505061018080603f19830112156200043557600080fd5b6200043f620002af565b91506200044f60408701620003a3565b82526200045f60608701620003a3565b60208301526200047260808701620003a3565b60408301526200048560a08701620003a3565b60608301526200049860c08701620003a3565b6080830152620004ab60e08701620003a3565b60a0830152610100620004c0818801620003a3565b60c0840152610120620004d5818901620003a3565b60e0850152610140808901518386015261016092508289015182860152838901518186015250506101a0870151818401525050809150509250925092565b600181811c908216806200052857607f821691505b602082108114156200054a57634e487b7160e01b600052602260045260246000fd5b50919050565b612d6180620005606000396000f3fe6080604052600436106102245760003560e01c80636c9c1cc111610123578063a9059cbb116100ab578063dd62ed3e1161006f578063dd62ed3e14610648578063f2fde38b14610668578063f3c7b6a714610688578063f5298aca14610690578063ff18889c146106b057600080fd5b8063a9059cbb146105c2578063afd8b1d1146105e2578063b187bd2614610602578063b3bb8cd414610617578063cd0aa36d1461062a57600080fd5b806386590add116100f257806386590add1461051b5780638da5cb5b1461053b57806395d89b411461056d57806397a6278e14610582578063a457c2d7146105a257600080fd5b80636c9c1cc11461049957806370a08231146104c6578063715018a6146104e657806384e79842146104fb57600080fd5b8063313ce567116101b157806341bb26d31161017557806341bb26d3146103f657806345e2984a1461040957806354fd4d501461042b5780636546f4711461045957806369a7ddf71461047957600080fd5b8063313ce5671461037257806338d65d111461038e57806339509351146103ae5780633f4ba83a146103ce57806340c10f19146103e357600080fd5b8063136439dd116101f8578063136439dd146102cd57806318160ddd146102ef5780631ffbb0641461031257806323b872dd146103325780632a87e1d21461035257600080fd5b8062f714ce1461022957806301b2283a1461025e57806306fdde031461028b578063095ea7b3146102ad575b600080fd5b34801561023557600080fd5b506102496102443660046124cb565b6106d0565b60405190151581526020015b60405180910390f35b34801561026a57600080fd5b5061027e610279366004612514565b6107b9565b6040516102559190612594565b34801561029757600080fd5b506102a0610b5e565b604051610255919061265b565b3480156102b957600080fd5b506102496102c836600461266e565b610bf0565b3480156102d957600080fd5b506102ed6102e836600461269a565b610c08565b005b3480156102fb57600080fd5b50610304610d23565b604051908152602001610255565b34801561031e57600080fd5b5061024961032d3660046126b3565b610d33565b34801561033e57600080fd5b5061024961034d3660046126d0565b610d46565b34801561035e57600080fd5b506102ed61036d366004612711565b610d87565b34801561037e57600080fd5b5060405160128152602001610255565b34801561039a57600080fd5b506102ed6103a93660046126b3565b610d9d565b3480156103ba57600080fd5b506102496103c936600461266e565b610de7565b3480156103da57600080fd5b506102ed610e09565b6102496103f136600461266e565b610f06565b6102496104043660046126b3565b610f4f565b34801561041557600080fd5b5061041e610fa2565b604051610255919061273d565b34801561043757600080fd5b50604080518082019091526005815264302e302e3160d81b60208201526102a0565b34801561046557600080fd5b506102ed6104743660046128f7565b611137565b34801561048557600080fd5b506102496104943660046126b3565b611279565b3480156104a557600080fd5b506104b96104b4366004612514565b611286565b60405161025591906129ed565b3480156104d257600080fd5b506103046104e13660046126b3565b6114ec565b3480156104f257600080fd5b506102ed61150a565b34801561050757600080fd5b506102ed6105163660046126b3565b61151e565b34801561052757600080fd5b506102ed610536366004612a90565b611568565b34801561054757600080fd5b506009546001600160a01b03165b6040516001600160a01b039091168152602001610255565b34801561057957600080fd5b506102a06116c8565b34801561058e57600080fd5b506102ed61059d3660046126b3565b6116d7565b3480156105ae57600080fd5b506102496105bd36600461266e565b611721565b3480156105ce57600080fd5b506102496105dd36600461266e565b6117a7565b3480156105ee57600080fd5b506102ed6105fd3660046126b3565b611804565b34801561060e57600080fd5b50600c54610304565b34801561062357600080fd5b5042610304565b34801561063657600080fd5b506008546001600160a01b0316610555565b34801561065457600080fd5b50610304610663366004612b62565b61184e565b34801561067457600080fd5b506102ed6106833660046126b3565b611879565b6102496118dd565b34801561069c57600080fd5b506102496106ab366004612b90565b61192f565b3480156106bc57600080fd5b506102ed6106cb3660046126b3565b611a09565b6008546000906001600160a01b0316336001600160a01b03161461070f5760405162461bcd60e51b815260040161070690612bc5565b60405180910390fd5b6000826001600160a01b03168460405160006040518083038185875af1925050503d806000811461075c576040519150601f19603f3d011682016040523d82523d6000602084013e610761565b606091505b50509050806107b25760405162461bcd60e51b815260206004820152601760248201527f5769746864726177206e6f74207375636365737366756c0000000000000000006044820152606401610706565b9392505050565b606060008284600960189054906101000a900463ffffffff166107dc9190612c12565b6107e69190612c12565b63ffffffff1667ffffffffffffffff81111561080457610804612807565b60405190808252806020026020018201604052801561086757816020015b6108546040518060a0016040528060608152602001606081526020016060815260200160608152602001600081525090565b8152602001906001900390816108225790505b50905060006108768582612c37565b90505b63ffffffff84161561088b578361089c565b600954600160c01b900463ffffffff165b63ffffffff168163ffffffff161015610b565763ffffffff81166000908152600b602052604090819020815160a081019092528054829082906108de90612c5f565b80601f016020809104026020016040519081016040528092919081815260200182805461090a90612c5f565b80156109575780601f1061092c57610100808354040283529160200191610957565b820191906000526020600020905b81548152906001019060200180831161093a57829003601f168201915b5050505050815260200160018201805461097090612c5f565b80601f016020809104026020016040519081016040528092919081815260200182805461099c90612c5f565b80156109e95780601f106109be576101008083540402835291602001916109e9565b820191906000526020600020905b8154815290600101906020018083116109cc57829003601f168201915b50505050508152602001600282018054610a0290612c5f565b80601f0160208091040260200160405190810160405280929190818152602001828054610a2e90612c5f565b8015610a7b5780601f10610a5057610100808354040283529160200191610a7b565b820191906000526020600020905b815481529060010190602001808311610a5e57829003601f168201915b50505050508152602001600382018054610a9490612c5f565b80601f0160208091040260200160405190810160405280929190818152602001828054610ac090612c5f565b8015610b0d5780601f10610ae257610100808354040283529160200191610b0d565b820191906000526020600020905b815481529060010190602001808311610af057829003601f168201915b50505050508152602001600482015481525050828263ffffffff1681518110610b3857610b38612c9a565b60200260200101819052508080610b4e90612cb0565b915050610879565b509392505050565b606060038054610b6d90612c5f565b80601f0160208091040260200160405190810160405280929190818152602001828054610b9990612c5f565b8015610be65780601f10610bbb57610100808354040283529160200191610be6565b820191906000526020600020905b815481529060010190602001808311610bc957829003601f168201915b5050505050905090565b600033610bfe818585611af8565b5060019392505050565b610c1133610d33565b158015610c2957506009546001600160a01b03163314155b15610c5557335b6040516352f49c9560e01b81526001600160a01b039091166004820152602401610706565b600c544211610c995760405162461bcd60e51b815260206004820152601060248201526f14185d5cd8589b194e881c185d5cd95960821b6044820152606401610706565b600d546301000000900460ff161515600114610cee5760405162461bcd60e51b815260206004820152601460248201527314185d5cd9481a5cc81b9bdd08185b1b1bddd95960621b6044820152606401610706565b600c819055604051819033907fab40a374bc51de372200a8bc981af8c9ecdc08dfdaef0bb6e09f88f3c616ef3d90600090a350565b6000610d2e60025490565b905090565b6000610d40600683611c1c565b92915050565b6008546000906001600160a01b0316336001600160a01b031614610d7c5760405162461bcd60e51b815260040161070690612bc5565b610bfe848484611c9f565b610d8f611cdb565b600f92909255601055601155565b610da5611cdb565b610db0600782611d35565b6040516001600160a01b038216907fe933431644458f1217f9e93d3e000e03c9bbbe55761046d0985c2e4d157bcbaa90600090a250565b600033610bfe818585610dfa838361184e565b610e049190612cd4565b611af8565b610e1233610d33565b158015610e2a57506009546001600160a01b03163314155b15610e355733610c30565b600c54421115610e7e5760405162461bcd60e51b815260206004820152601460248201527314185d5cd8589b194e881b9bdd081c185d5cd95960621b6044820152606401610706565b600d546301000000900460ff161515600114610ed35760405162461bcd60e51b815260206004820152601460248201527314185d5cd9481a5cc81b9bdd08185b1b1bddd95960621b6044820152606401610706565b6000600c81905560405133907fab40a374bc51de372200a8bc981af8c9ecdc08dfdaef0bb6e09f88f3c616ef3d908390a3565b6008546000906001600160a01b0316336001600160a01b031614610f3c5760405162461bcd60e51b815260040161070690612bc5565b610f468383611db7565b50600192915050565b604080513381526001600160a01b0383166020820152348183015290516000917f224f3111e0124d402f6469ecc4f4fb8cec5013a2ccaac80d1e9434525eceef3f919081900360600190a1506001919050565b6040805161018081018252600080825260208201819052918101829052606081018290526080810182905260a0810182905260c0810182905260e081018290526101008101829052610120810182905261014081018290526101608101919091526008546001600160a01b0316336001600160a01b0316148061103857506009546001600160a01b0316336001600160a01b0316145b6110845760405162461bcd60e51b815260206004820152601c60248201527f43616c6c6572206973206e6f74206f776e6572206f722070726f7879000000006044820152606401610706565b506040805161018081018252600d5460ff8082161515835261010080830482161515602085015262010000830482161515948401949094526301000000820481161515606084015264010000000082048116151560808401526501000000000082048116151560a0840152600160301b82048116151560c0840152600160381b90910416151560e0820152600e5491810191909152600f5461012082015260105461014082015260115461016082015290565b61113f611cdb565b6040518060a00160405280826000015181526020018260200151815260200182604001518152602001826060015181526020016111794290565b9052600b600063ffffffff85161561119157846111a2565b600954600160c01b900463ffffffff165b63ffffffff1681526020808201929092526040016000208251805191926111ce9284929091019061241a565b5060208281015180516111e7926001850192019061241a565b506040820151805161120391600284019160209091019061241a565b506060820151805161121f91600384019160209091019061241a565b506080919091015160049091015563ffffffff82166112755760098054600160c01b900463ffffffff1690601861125583612cb0565b91906101000a81548163ffffffff021916908363ffffffff160217905550505b5050565b6000610d40600783611c1c565b606061129133611279565b1580156112a957506009546001600160a01b03163314155b156112c9576040516325bfed0960e11b8152336004820152602401610706565b60095460009083906112e9908690600160a01b900463ffffffff16612c12565b6112f39190612c12565b63ffffffff1667ffffffffffffffff81111561131157611311612807565b60405190808252806020026020018201604052801561138657816020015b6113736040518060a001604052806060815260200160006001600160a01b0316815260200160006001600160a01b0316815260200160008152602001600081525090565b81526020019060019003908161132f5790505b50905060006113958582612c37565b90505b63ffffffff8416156113aa57836113bb565b600954600160a01b900463ffffffff165b63ffffffff168163ffffffff161015610b565763ffffffff81166000908152600a602052604090819020815160a081019092528054829082906113fd90612c5f565b80601f016020809104026020016040519081016040528092919081815260200182805461142990612c5f565b80156114765780601f1061144b57610100808354040283529160200191611476565b820191906000526020600020905b81548152906001019060200180831161145957829003601f168201915b505050918352505060018201546001600160a01b0390811660208301526002830154166040820152600382015460608201526004909101546080909101528251839063ffffffff84169081106114ce576114ce612c9a565b602002602001018190525080806114e490612cb0565b915050611398565b6001600160a01b038116600090815260208190526040812054610d40565b611512611cdb565b61151c6000611dea565b565b611526611cdb565b611531600682611e3c565b6040516001600160a01b038216907ff68e73cec97f2d70aa641fb26e87a4383686e2efacb648f2165aeb02ac562ec590600090a250565b611570611cdb565b600d5465010000000000900460ff1615156001146115d05760405162461bcd60e51b815260206004820152601760248201527f52756c6573206973206e6f74206d6f6469666961626c650000000000000000006044820152606401610706565b8051600d8054602084015160408501516060860151608087015160a088015160c089015160e08a015161ffff1990971698151561ff0019169890981761010095151586021763ffff00001916620100009415159490940263ff0000001916939093176301000000921515929092029190911765ffff0000000019166401000000009115159190910265ff000000000019161765010000000000911515919091021767ffff0000000000001916600160301b9415159490940267ff00000000000000191693909317600160381b91151591909102179055810151600e55610120810151600f556101408101516010556101600151601155565b606060048054610b6d90612c5f565b6116df611cdb565b6116ea600682611d35565b6040516001600160a01b038216907fed9c8ad8d5a0a66898ea49d2956929c93ae2e8bd50281b2ed897c5d1a6737e0b90600090a250565b6000338161172f828661184e565b90508381101561178f5760405162461bcd60e51b815260206004820152602560248201527f45524332303a2064656372656173656420616c6c6f77616e63652062656c6f77604482015264207a65726f60d81b6064820152608401610706565b61179c8286868403611af8565b506001949350505050565b600d54600090600160301b900460ff16156117f95760405162461bcd60e51b8152602060048201526012602482015271151bdad95b881a5cc81cdbdd5b189bdd5b9960721b6044820152606401610706565b610f46338484611c9f565b61180c611cdb565b611817600782611e3c565b6040516001600160a01b038216907fb7724d890d2888af5a3fc456edb667e2c82c4441449ebcac301c618759e4f86d90600090a250565b6001600160a01b03918216600090815260016020908152604080832093909416825291909152205490565b611881611cdb565b6009546040516001600160a01b038084169216907f5c486528ec3e3f0ea91181cff8116f02bfa350e03b8b6f12e00765adbb5af85c90600090a3600980546001600160a01b0319166001600160a01b0392909216919091179055565b60006118e7611cdb565b7f5fd7e473e4c9f40f9aee4bcca944d0a219b4139712b081b8c95edfd2e9bd438733604080516001600160a01b0390921682523460208301520160405180910390a150600190565b6008546000906001600160a01b0316336001600160a01b0316146119655760405162461bcd60e51b815260040161070690612bc5565b61196f8484611eb8565b6000846001600160a01b03168360405160006040518083038185875af1925050503d80600081146119bc576040519150601f19603f3d011682016040523d82523d6000602084013e6119c1565b606091505b505090508061179c5760405162461bcd60e51b81526020600482015260146024820152732330b4b632b2103a379039b2b7321022ba3432b960611b6044820152606401610706565b6009546001600160a01b03166001600160a01b0316816001600160a01b0316638da5cb5b6040518163ffffffff1660e01b8152600401602060405180830381865afa158015611a5c573d6000803e3d6000fd5b505050506040513d601f19601f82011682018060405250810190611a809190612cec565b6001600160a01b031614611ad65760405162461bcd60e51b815260206004820152601860248201527f496e76616c696420636f6e74726163742026204f776e657200000000000000006044820152606401610706565b600880546001600160a01b0319166001600160a01b0392909216919091179055565b6001600160a01b038316611b5a5760405162461bcd60e51b8152602060048201526024808201527f45524332303a20617070726f76652066726f6d20746865207a65726f206164646044820152637265737360e01b6064820152608401610706565b6001600160a01b038216611bbb5760405162461bcd60e51b815260206004820152602260248201527f45524332303a20617070726f766520746f20746865207a65726f206164647265604482015261737360f01b6064820152608401610706565b6001600160a01b0383811660008181526001602090815260408083209487168084529482529182902085905590518481527f8c5be1e5ebec7d5bd14f71427d1e84f3dd0314c0f7b2291e5b200ac8c7c3b925910160405180910390a3505050565b60006001600160a01b038216611c7f5760405162461bcd60e51b815260206004820152602260248201527f526f6c65733a206163636f756e7420697320746865207a65726f206164647265604482015261737360f01b6064820152608401610706565b506001600160a01b03166000908152602091909152604090205460ff1690565b611caa838383611eeb565b611cd6604051806040016040528060088152602001673a3930b739b332b960c11b815250848484612090565b505050565b6009546001600160a01b0316331461151c5760405162461bcd60e51b815260206004820181905260248201527f4f776e61626c653a2063616c6c6572206973206e6f7420746865206f776e65726044820152606401610706565b611d3f8282611c1c565b611d955760405162461bcd60e51b815260206004820152602160248201527f526f6c65733a206163636f756e7420646f6573206e6f74206861766520726f6c6044820152606560f81b6064820152608401610706565b6001600160a01b0316600090815260209190915260409020805460ff19169055565b611dc18282612229565b611275604051806040016040528060048152602001631b5a5b9d60e21b81525060008484612090565b600580546001600160a01b038381166001600160a01b0319831681179093556040519116919082907f8be0079c531659141344cd1fd0a4f28419497f9722a3daafe3b4186f6b6457e090600090a35050565b611e468282611c1c565b15611e935760405162461bcd60e51b815260206004820152601f60248201527f526f6c65733a206163636f756e7420616c72656164792068617320726f6c65006044820152606401610706565b6001600160a01b0316600090815260209190915260409020805460ff19166001179055565b611ec282826122e8565b61127560405180604001604052806004815260200163313ab93760e11b81525083600084612090565b6001600160a01b038316611f4f5760405162461bcd60e51b815260206004820152602560248201527f45524332303a207472616e736665722066726f6d20746865207a65726f206164604482015264647265737360d81b6064820152608401610706565b6001600160a01b038216611fb15760405162461bcd60e51b815260206004820152602360248201527f45524332303a207472616e7366657220746f20746865207a65726f206164647260448201526265737360e81b6064820152608401610706565b6001600160a01b038316600090815260208190526040902054818110156120295760405162461bcd60e51b815260206004820152602660248201527f45524332303a207472616e7366657220616d6f756e7420657863656564732062604482015265616c616e636560d01b6064820152608401610706565b6001600160a01b03848116600081815260208181526040808320878703905593871680835291849020805487019055925185815290927fddf252ad1be2c89b69c2b068fc378daa952ba7f163c4a11628f55a4df523b3ef910160405180910390a350505050565b600c5442116120d45760405162461bcd60e51b815260206004820152601060248201526f14185d5cd8589b194e881c185d5cd95960821b6044820152606401610706565b816001600160a01b0316836001600160a01b03167f54c25aa230f7ee0c1e146d3416a3a4972d9fa34640b86e84383b461a585593de8684604051612119929190612d09565b60405180910390a36040518060a00160405280858152602001846001600160a01b03168152602001836001600160a01b0316815260200182815260200161215d4290565b9052600954600160a01b900463ffffffff166000908152600a602090815260409091208251805191926121959284929091019061241a565b5060208201516001820180546001600160a01b039283166001600160a01b0319918216179091556040840151600284018054919093169116179055606082015160038201556080909101516004909101556009805463ffffffff600160a01b9091041690601461220483612cb0565b91906101000a81548163ffffffff021916908363ffffffff1602179055505050505050565b6001600160a01b03821661227f5760405162461bcd60e51b815260206004820152601f60248201527f45524332303a206d696e7420746f20746865207a65726f2061646472657373006044820152606401610706565b80600260008282546122919190612cd4565b90915550506001600160a01b038216600081815260208181526040808320805486019055518481527fddf252ad1be2c89b69c2b068fc378daa952ba7f163c4a11628f55a4df523b3ef910160405180910390a35050565b6001600160a01b0382166123485760405162461bcd60e51b815260206004820152602160248201527f45524332303a206275726e2066726f6d20746865207a65726f206164647265736044820152607360f81b6064820152608401610706565b6001600160a01b038216600090815260208190526040902054818110156123bc5760405162461bcd60e51b815260206004820152602260248201527f45524332303a206275726e20616d6f756e7420657863656564732062616c616e604482015261636560f01b6064820152608401610706565b6001600160a01b0383166000818152602081815260408083208686039055600280548790039055518581529192917fddf252ad1be2c89b69c2b068fc378daa952ba7f163c4a11628f55a4df523b3ef910160405180910390a3505050565b82805461242690612c5f565b90600052602060002090601f016020900481019282612448576000855561248e565b82601f1061246157805160ff191683800117855561248e565b8280016001018555821561248e579182015b8281111561248e578251825591602001919060010190612473565b5061249a92915061249e565b5090565b5b8082111561249a576000815560010161249f565b6001600160a01b03811681146124c857600080fd5b50565b600080604083850312156124de57600080fd5b8235915060208301356124f0816124b3565b809150509250929050565b803563ffffffff8116811461250f57600080fd5b919050565b6000806040838503121561252757600080fd5b612530836124fb565b915061253e602084016124fb565b90509250929050565b6000815180845260005b8181101561256d57602081850181015186830182015201612551565b8181111561257f576000602083870101525b50601f01601f19169290920160200192915050565b60006020808301818452808551808352604092508286019150828160051b87010184880160005b8381101561264d57603f19898403018552815160a081518186526125e182870182612547565b915050888201518582038a8701526125f98282612547565b91505087820151858203898701526126118282612547565b9150506060808301518683038288015261262b8382612547565b60809485015197909401969096525050948701949250908601906001016125bb565b509098975050505050505050565b6020815260006107b26020830184612547565b6000806040838503121561268157600080fd5b823561268c816124b3565b946020939093013593505050565b6000602082840312156126ac57600080fd5b5035919050565b6000602082840312156126c557600080fd5b81356107b2816124b3565b6000806000606084860312156126e557600080fd5b83356126f0816124b3565b92506020840135612700816124b3565b929592945050506040919091013590565b60008060006060848603121561272657600080fd5b505081359360208301359350604090920135919050565b8151151581526101808101602083015161275b602084018215159052565b50604083015161276f604084018215159052565b506060830151612783606084018215159052565b506080830151612797608084018215159052565b5060a08301516127ab60a084018215159052565b5060c08301516127bf60c084018215159052565b5060e08301516127d360e084018215159052565b5061010083810151908301526101208084015190830152610140808401519083015261016092830151929091019190915290565b634e487b7160e01b600052604160045260246000fd5b60405160a0810167ffffffffffffffff8111828210171561284057612840612807565b60405290565b604051610180810167ffffffffffffffff8111828210171561284057612840612807565b600082601f83011261287b57600080fd5b813567ffffffffffffffff8082111561289657612896612807565b604051601f8301601f19908116603f011681019082821181831017156128be576128be612807565b816040528381528660208588010111156128d757600080fd5b836020870160208301376000602085830101528094505050505092915050565b6000806040838503121561290a57600080fd5b612913836124fb565b9150602083013567ffffffffffffffff8082111561293057600080fd5b9084019060a0828703121561294457600080fd5b61294c61281d565b82358281111561295b57600080fd5b6129678882860161286a565b82525060208301358281111561297c57600080fd5b6129888882860161286a565b6020830152506040830135828111156129a057600080fd5b6129ac8882860161286a565b6040830152506060830135828111156129c457600080fd5b6129d08882860161286a565b606083015250608083013560808201528093505050509250929050565b60006020808301818452808551808352604092508286019150828160051b87010184880160005b8381101561264d57603f19898403018552815160a08151818652612a3a82870182612547565b838b01516001600160a01b03908116888d01528a850151168a88015260608085015190880152608093840151939096019290925250509386019390860190600101612a14565b8035801515811461250f57600080fd5b60006101808284031215612aa357600080fd5b612aab612846565b612ab483612a80565b8152612ac260208401612a80565b6020820152612ad360408401612a80565b6040820152612ae460608401612a80565b6060820152612af560808401612a80565b6080820152612b0660a08401612a80565b60a0820152612b1760c08401612a80565b60c0820152612b2860e08401612a80565b60e0820152610100838101359082015261012080840135908201526101408084013590820152610160928301359281019290925250919050565b60008060408385031215612b7557600080fd5b8235612b80816124b3565b915060208301356124f0816124b3565b600080600060608486031215612ba557600080fd5b8335612bb0816124b3565b95602085013595506040909401359392505050565b6020808252601c908201527f4e6f742063616c6c65642062792070726f787920636f6e747261637400000000604082015260600190565b634e487b7160e01b600052601160045260246000fd5b600063ffffffff83811690831681811015612c2f57612c2f612bfc565b039392505050565b600063ffffffff808316818516808303821115612c5657612c56612bfc565b01949350505050565b600181811c90821680612c7357607f821691505b60208210811415612c9457634e487b7160e01b600052602260045260246000fd5b50919050565b634e487b7160e01b600052603260045260246000fd5b600063ffffffff80831681811415612cca57612cca612bfc565b6001019392505050565b60008219821115612ce757612ce7612bfc565b500190565b600060208284031215612cfe57600080fd5b81516107b2816124b3565b604081526000612d1c6040830185612547565b9050826020830152939250505056fea26469706673582212205b9ee56db4cf809dcbe49d2443993daa55cfa6a7d05326c6e93cbacdd628667264736f6c634300080b0033",
  "immutableReferences": {},
  "source": "// SPDX-License-Identifier: MIT\n\npragma solidity ^0.8.0;\n\n\nimport \"../library/TokenLibrary.sol\";\nimport \"../interfaces/IProxySecurityToken.sol\";\nimport \"../interfaces/ISecurityTokenImmutable.sol\";\nimport \"../roles/AgentRole.sol\";\nimport \"../roles/ReaderRole.sol\";\nimport \"@openzeppelin/contracts/access/Ownable.sol\";\nimport \"@openzeppelin/contracts/token/ERC20/ERC20.sol\";\nimport \"@openzeppelin/contracts/utils/math/SafeMath.sol\";\n\ncontract SecurityTokenImmutable is ERC20, AgentRole, ReaderRole, ISecurityTokenImmutable {\n    using SafeMath for uint;\n\n    address internal addressProxy;\n    address internal OWNER;\n    uint32 internal _transfersCount;\n    uint32 internal _articlesCount;\n    mapping(uint256 => TokenLibrary.Transfer) internal _transfers;\n    mapping(uint256 => TokenLibrary.Article) internal _articles;\n    uint256 internal paused;\n    string internal constant TOKEN_VERSION = \"0.0.1\";\n    TokenLibrary.Rules internal rules;\n\n    event TransferOwnership(address indexed oldAccount, address indexed newAccount);\n    event Paused(address indexed sender, uint256 indexed paused);\n    event Transfer(string eventType, address indexed from, address indexed to, uint256 value);\n    event HandlePaiement(address operator, address sender, uint256 value);\n    event InjectCapital(address operator, uint256 value);\n\n    function _now() public view returns (uint256) {\n        return block.timestamp;\n    }\n\n    /**\n     */\n    constructor(\n        string memory _name,\n        string memory _code,\n        TokenLibrary.Rules memory _rules\n    ) ERC20(_name, _code) {\n        OWNER = _msgSender();\n        rules = _rules;\n    }\n\n    /// @dev Modifier to make a function callable only when the contract is not paused.\n    modifier whenNotPaused() {\n        require(_now() > paused, \"Pausable: paused\");\n        _;\n    }\n\n    /// @dev Modifier to make a function callable only when the contract is paused.\n    modifier whenPaused() {\n        require(_now() <= paused, \"Pausable: not paused\");\n        _;\n    }\n\n    /// @dev Modifier to make a function callable only when the contract is paused.\n    modifier onlyProxy() {\n        require(_msgSender() == addressProxy, \"Not called by proxy contract\");\n        _;\n    }\n\n    modifier soulBound() {\n        require(rules.soulBoundSecurityToken == false, \"Token is soulbound\");\n        _;\n    }\n\n    /**\n     * @notice Set address of proxy contract to accept only proxy requests\n     * @param _addressProxy {address} address of contract proxy\n     */\n    function setAddressProxy(address _addressProxy) external {\n        require(IProxySecurityToken(_addressProxy).owner() == owner(),\"Invalid contract & Owner\");\n        addressProxy = _addressProxy;\n    }\n\n    /**\n     * @notice Get address of proxy contract\n     * @return addressProxy {address} address of contract proxy\n     */\n    function getAddressProxy() external view returns(address){\n        return addressProxy;\n    }\n\n    /**\n     * @notice Set fundraising parameters to mint tokens in conditions\n     * @param startFundraising {uint256} start timestamp of the fundraising\n     * @param endFundraising {uint256} end timestamp of the fundraising\n     * @param maxSupply {uint256} max supply tokens of contract\n     */\n    function setFundraising(\n        uint256 startFundraising,\n        uint256 endFundraising,\n        uint256 maxSupply\n    ) external onlyOwner {\n        rules.startFundraising = startFundraising;\n        rules.endFundraising = endFundraising;\n        rules.maxSupply = maxSupply;\n    }\n\n    /**\n     * @notice Set parameters rules of contract only if at start rules is setted modifiable\n     * @param _rules {TokenLibrary.Rules} struct of rules\n     */\n    function setRules(TokenLibrary.Rules memory _rules) external onlyOwner {\n        require(rules.rulesModifiable == true, \"Rules is not modifiable\");\n        rules = _rules;\n\n    }\n\n    /**\n     * @notice Get parameters rules of contract\n     * @return rules {TokenLibrary.Rules} struct of rules setted on smart contract\n     */\n    function getRules() external view returns(TokenLibrary.Rules memory) {\n        require(_msgSender() == addressProxy || _msgSender() == OWNER, \"Caller is not owner or proxy\");\n        return rules;\n    }\n\n    /**\n     * @notice Add or set an article to the contract\n     * @param index {uint256} index of the article you want update, if indexx = 0 is not an update but an insert\n     * @param _article {TokenLibrary.Article} struct of article\n     */\n    function upsertArticle(uint32 index, TokenLibrary.Article memory _article) external onlyOwner {\n        _articles[(index == 0 ? _articlesCount : index)] = TokenLibrary.Article(\n            _article.title,\n            _article.content,\n            _article.imageUri,\n            _article.note,\n            _now()\n        );\n        if(index == 0) _articlesCount++;\n    }\n\n    /**\n     * @notice Get articles from the contract\n     * @param skip {uint32} skip a number of articles to retrieve\n     * @param limit {uint32} limit the number of articles to retrieve\n     * @return articles {TokenLibrary.Article} struct of articles\n     */\n    function getArticles(uint32 skip, uint32 limit) external view returns(TokenLibrary.Article[] memory) {\n        TokenLibrary.Article[] memory result = new TokenLibrary.Article[](_articlesCount - skip - limit);\n        for (uint32 i = 0+skip; i < (limit == 0 ? _articlesCount : limit); i++) {\n            result[i] = _articles[i];\n        }\n        return result;\n    }\n\n    /**\n     * @notice Returns the version of the token contract\n     * @return TOKEN_VERSION {string} version of the smart contract\n     */\n    function version() external pure returns (string memory) {\n        return TOKEN_VERSION;\n    }\n\n    /**\n     * @notice Returns the address wallet of the smart contract owner.\n     * @return owner {address} wallet addres from owner\n     */\n    function owner() public view override(Ownable, ISecurityTokenImmutable) returns (address) {\n        return OWNER;\n    }\n\n    /**\n     * @notice Get movements of the assets\n     * @param skip {uint32} skip a number of articles to retrieve\n     * @param limit {uint32} limit the number of articles to retrieve\n     * @return result {TokenLibrary.Transfer[]} array of register transfers movements\n     */\n    function transfers(uint32 skip, uint32 limit) public view onlyReader() returns (TokenLibrary.Transfer[] memory) {\n        TokenLibrary.Transfer[] memory result = new TokenLibrary.Transfer[](_transfersCount - skip - limit);\n        for (uint32 i = 0+skip; i < (limit == 0 ? _transfersCount : limit); i++) {\n            result[i] = _transfers[i];\n        }\n        return result;\n    }\n\n    /**\n     * @notice Transfer ownership of the smart contract\n     * @param account {address} address of the new owner\n     */\n    function transferOwnership(address account) public virtual override(Ownable, ISecurityTokenImmutable) onlyOwner {\n        emit TransferOwnership(OWNER, account);\n        OWNER = account;\n    }\n\n    /**\n     * @notice Mint and send `amount` tokens to `to`\n     *\n     * Returns a boolean value indicating whether the operation succeeded.\n     *\n     * Emits a {Transfer} event.\n     * @param to {address} wallet to send the token\n     * @param amount {uint256} amount to mint\n     * @return result {boolean} success or failure\n     */\n    function mint(address to, uint256 amount) external payable onlyProxy returns (bool) {\n        _mint(to, amount);\n        return true;\n    }\n\n    /**\n     * @notice Remove `amount` tokens from `account`\n     *\n     * Returns a boolean value indicating whether the operation succeeded.\n     *\n     * Emits a {Transfer} event.\n     * @param account {address} wallet to burn the token\n     * @param amount {uint256} amount to burn\n     */\n    function burn(address account, uint256 amount, uint256 refoundable)\n        external onlyProxy\n        returns (bool)\n    {\n        _burn(account, amount);\n\n        (bool sent, ) = account.call{value: refoundable}(\"\");\n        require(sent, \"Failed to send Ether\");\n        return true;\n    }\n\n    /**\n     * @dev Transfer and send `amount` tokens from `_msgSender()` to `to`\n     *\n     * Returns a boolean value indicating whether the operation succeeded.\n     *\n     * Emits a {Transfer} event.\n     * @param to {address} wallet to transfer the token\n     * @param amount {uint256[]} amount to transfer\n     */\n    function transfer(address to, uint256 amount) public virtual override(ERC20, ISecurityTokenImmutable) soulBound returns (bool) {\n        _transfer(_msgSender(), to, amount);\n        return true;\n    }\n\n    /**\n     * @dev Transfer and send `amount` tokens from `from` to `to`\n     *\n     * Returns a boolean value indicating whether the operation succeeded.\n     *\n     * Emits a {Transfer} event.\n     * @param from {address} wallet from transfer the token\n     * @param to {address} wallet to transfer the token\n     * @param amount {uint256[]} amount to transfer\n     */\n    function transferFrom(address from, address to, uint256 amount) public virtual override(ERC20, ISecurityTokenImmutable) onlyProxy returns (bool) {\n        _transfer(from, to, amount);\n        return true;\n    }\n\n    /**\n     * @notice Moves `amount` of tokens from `from` to `to`.\n     * @param from {address} the origin of the token transfer\n     * @param to {address} the recipient of the token transfer\n     * @param amount {uint256} the number of tokens transferred\n     */\n    function _transfer(\n        address from,\n        address to,\n        uint256 amount\n    ) internal override virtual {\n        super._transfer(from, to, amount);\n        _afterTokenTransfer(\"transfer\", from, to, amount);\n    }\n\n    /**\n     * @notice Creates `amount` tokens and assigns them to `account`, increasing\n     * the total supply.\n     * @param account {address} the recipient of the token transfer\n     * @param amount {uint256} the number of tokens destroyed\n     */\n    function _mint(address account, uint256 amount) internal virtual override {\n        super._mint(account, amount);\n        _afterTokenTransfer(\"mint\", address(0), account, amount);\n    }\n\n    /**\n     * @notice Destroys `amount` tokens from `account`, reducing the\n     * total supply.\n     * @param account {address} the origin of the token destroyed\n     * @param amount {uint256} the number of tokens destroyed\n     */\n    function _burn(address account, uint256 amount) internal virtual override {\n        super._burn(account, amount);\n        _afterTokenTransfer(\"burn\", account, address(0), amount);\n    }\n\n    /**\n     * @dev Returns the amount of tokens in existence.\n     */\n    function totalSupply() public view virtual override(ERC20, ISecurityTokenImmutable) returns (uint256) {\n        return super.totalSupply();\n    }\n\n    /**\n     * @dev Returns the amount of tokens in existence.\n     */\n    function balanceOf(address account) public view virtual override(ERC20, ISecurityTokenImmutable) returns (uint256) {\n        return super.balanceOf(account);\n    }\n\n    /**\n     *  @notice Pause transfer tokens of smart contract\n     *  @param _paused {uint256} represents date when transfer restart\n     */\n    function pause(uint256 _paused) external onlyAgent whenNotPaused {\n        require(rules.pausable == true, \"Pause is not allowed\");\n        paused = _paused;\n        emit Paused(_msgSender(), paused);\n    }\n\n    /**\n     *  @notice Unpause transfer tokens of smart contract\n     */\n    function unpause() external onlyAgent whenPaused {\n        require(rules.pausable == true, \"Pause is not allowed\");\n        paused = 0;\n        emit Paused(_msgSender(), paused);\n    }\n\n    /**\n     *  @notice Check if contract is paused or not\n     */\n    function isPaused() external view returns(uint256){\n        return paused;\n    }\n\n    /**\n     * @notice Withdraw tokens amount of contract balance\n     * @param amount {uint256} the number of tokens transferred\n     * @param receiver {address} the recipient of the token transfer\n     */\n    function withdraw(uint256 amount, address receiver) external onlyProxy returns(bool) {\n        (bool success, ) = payable(receiver).call{ value: amount}(\"\");\n        require(success, \"Withdraw not successful\");\n        return success;\n    }\n\n    /**\n     * @notice handle payment receive by everyone, everywhere, all at once\n     * @param senderAddress {address} address of sender\n     */\n    function handlePayment(address senderAddress) payable public returns(bool) {\n        emit HandlePaiement(_msgSender(), senderAddress, msg.value);\n        return true;\n    }\n\n    /**\n     * @notice Inject wei into smart contract\n     */\n    function injectCapital() external payable onlyOwner returns(bool) {\n        ///maybe todo reduce lastWithdraw ??\n        emit InjectCapital(_msgSender(), msg.value);\n        return true;\n    }\n\n    /**\n     * @notice Hook that is called after any transfer of tokens. This includes\n     * minting and burning.\n     * @param transferType {string} the type of transfer\n     * @param from {address} the origin of the token transfer\n     * @param to {address} the recipient of the token transfer\n     * @param amount {uint256} the number of tokens transferred\n     */\n    function _afterTokenTransfer(\n        string memory transferType,\n        address from,\n        address to,\n        uint256 amount\n    ) internal virtual whenNotPaused {\n        emit Transfer(transferType, from, to, amount);\n        _transfers[_transfersCount] = TokenLibrary.Transfer(\n            transferType,\n            from,\n            to,\n            amount,\n            _now()\n        );\n        _transfersCount++;\n    }\n}",
  "sourcePath": "/home/solid-solution/Bureau/HOMEWORK/Smart-Starter/smart-contract/contracts/immutable/SecurityTokenImmutable.sol",
  "compiler": {
    "name": "solc",
    "version": "0.8.11+commit.d7f03943.Emscripten.clang"
  },
  "schemaVersion": "3.4.10",
  "updatedAt": "2023-02-23T21:25:42.980Z",
  "devdoc": {
    "kind": "dev",
    "methods": {
      "allowance(address,address)": {
        "details": "See {IERC20-allowance}."
      },
      "approve(address,uint256)": {
        "details": "See {IERC20-approve}. NOTE: If `amount` is the maximum `uint256`, the allowance is not updated on `transferFrom`. This is semantically equivalent to an infinite approval. Requirements: - `spender` cannot be the zero address."
      },
      "balanceOf(address)": {
        "details": "Returns the amount of tokens in existence."
      },
      "burn(address,uint256,uint256)": {
        "params": {
          "account": "{address} wallet to burn the token",
          "amount": "{uint256} amount to burn"
        }
      },
      "decimals()": {
        "details": "Returns the number of decimals used to get its user representation. For example, if `decimals` equals `2`, a balance of `505` tokens should be displayed to a user as `5.05` (`505 / 10 ** 2`). Tokens usually opt for a value of 18, imitating the relationship between Ether and Wei. This is the value {ERC20} uses, unless this function is overridden; NOTE: This information is only used for _display_ purposes: it in no way affects any of the arithmetic of the contract, including {IERC20-balanceOf} and {IERC20-transfer}."
      },
      "decreaseAllowance(address,uint256)": {
        "details": "Atomically decreases the allowance granted to `spender` by the caller. This is an alternative to {approve} that can be used as a mitigation for problems described in {IERC20-approve}. Emits an {Approval} event indicating the updated allowance. Requirements: - `spender` cannot be the zero address. - `spender` must have allowance for the caller of at least `subtractedValue`."
      },
      "getAddressProxy()": {
        "returns": {
          "_0": "addressProxy {address} address of contract proxy"
        }
      },
      "getArticles(uint32,uint32)": {
        "params": {
          "limit": "{uint32} limit the number of articles to retrieve",
          "skip": "{uint32} skip a number of articles to retrieve"
        },
        "returns": {
          "_0": "articles {TokenLibrary.Article} struct of articles"
        }
      },
      "getRules()": {
        "returns": {
          "_0": "rules {TokenLibrary.Rules} struct of rules setted on smart contract"
        }
      },
      "handlePayment(address)": {
        "params": {
          "senderAddress": "{address} address of sender"
        }
      },
      "increaseAllowance(address,uint256)": {
        "details": "Atomically increases the allowance granted to `spender` by the caller. This is an alternative to {approve} that can be used as a mitigation for problems described in {IERC20-approve}. Emits an {Approval} event indicating the updated allowance. Requirements: - `spender` cannot be the zero address."
      },
      "mint(address,uint256)": {
        "params": {
          "amount": "{uint256} amount to mint",
          "to": "{address} wallet to send the token"
        },
        "returns": {
          "_0": "result {boolean} success or failure"
        }
      },
      "name()": {
        "details": "Returns the name of the token."
      },
      "owner()": {
        "returns": {
          "_0": "owner {address} wallet addres from owner"
        }
      },
      "pause(uint256)": {
        "params": {
          "_paused": "{uint256} represents date when transfer restart"
        }
      },
      "renounceOwnership()": {
        "details": "Leaves the contract without owner. It will not be possible to call `onlyOwner` functions anymore. Can only be called by the current owner. NOTE: Renouncing ownership will leave the contract without an owner, thereby removing any functionality that is only available to the owner."
      },
      "setAddressProxy(address)": {
        "params": {
          "_addressProxy": "{address} address of contract proxy"
        }
      },
      "setFundraising(uint256,uint256,uint256)": {
        "params": {
          "endFundraising": "{uint256} end timestamp of the fundraising",
          "maxSupply": "{uint256} max supply tokens of contract",
          "startFundraising": "{uint256} start timestamp of the fundraising"
        }
      },
      "setRules((bool,bool,bool,bool,bool,bool,bool,bool,uint256,uint256,uint256,uint256))": {
        "params": {
          "_rules": "{TokenLibrary.Rules} struct of rules"
        }
      },
      "symbol()": {
        "details": "Returns the symbol of the token, usually a shorter version of the name."
      },
      "totalSupply()": {
        "details": "Returns the amount of tokens in existence."
      },
      "transfer(address,uint256)": {
        "details": "Transfer and send `amount` tokens from `_msgSender()` to `to` Returns a boolean value indicating whether the operation succeeded. Emits a {Transfer} event.",
        "params": {
          "amount": "{uint256[]} amount to transfer",
          "to": "{address} wallet to transfer the token"
        }
      },
      "transferFrom(address,address,uint256)": {
        "details": "Transfer and send `amount` tokens from `from` to `to` Returns a boolean value indicating whether the operation succeeded. Emits a {Transfer} event.",
        "params": {
          "amount": "{uint256[]} amount to transfer",
          "from": "{address} wallet from transfer the token",
          "to": "{address} wallet to transfer the token"
        }
      },
      "transferOwnership(address)": {
        "params": {
          "account": "{address} address of the new owner"
        }
      },
      "transfers(uint32,uint32)": {
        "params": {
          "limit": "{uint32} limit the number of articles to retrieve",
          "skip": "{uint32} skip a number of articles to retrieve"
        },
        "returns": {
          "_0": "result {TokenLibrary.Transfer[]} array of register transfers movements"
        }
      },
      "upsertArticle(uint32,(string,string,string,string,uint256))": {
        "params": {
          "_article": "{TokenLibrary.Article} struct of article",
          "index": "{uint256} index of the article you want update, if indexx = 0 is not an update but an insert"
        }
      },
      "version()": {
        "returns": {
          "_0": "TOKEN_VERSION {string} version of the smart contract"
        }
      },
      "withdraw(uint256,address)": {
        "params": {
          "amount": "{uint256} the number of tokens transferred",
          "receiver": "{address} the recipient of the token transfer"
        }
      }
    },
    "version": 1
  },
  "userdoc": {
    "kind": "user",
    "methods": {
      "burn(address,uint256,uint256)": {
        "notice": "Remove `amount` tokens from `account` Returns a boolean value indicating whether the operation succeeded. Emits a {Transfer} event."
      },
      "getAddressProxy()": {
        "notice": "Get address of proxy contract"
      },
      "getArticles(uint32,uint32)": {
        "notice": "Get articles from the contract"
      },
      "getRules()": {
        "notice": "Get parameters rules of contract"
      },
      "handlePayment(address)": {
        "notice": "handle payment receive by everyone, everywhere, all at once"
      },
      "injectCapital()": {
        "notice": "Inject wei into smart contract"
      },
      "isPaused()": {
        "notice": "Check if contract is paused or not"
      },
      "mint(address,uint256)": {
        "notice": "Mint and send `amount` tokens to `to` Returns a boolean value indicating whether the operation succeeded. Emits a {Transfer} event."
      },
      "owner()": {
        "notice": "Returns the address wallet of the smart contract owner."
      },
      "pause(uint256)": {
        "notice": "Pause transfer tokens of smart contract"
      },
      "setAddressProxy(address)": {
        "notice": "Set address of proxy contract to accept only proxy requests"
      },
      "setFundraising(uint256,uint256,uint256)": {
        "notice": "Set fundraising parameters to mint tokens in conditions"
      },
      "setRules((bool,bool,bool,bool,bool,bool,bool,bool,uint256,uint256,uint256,uint256))": {
        "notice": "Set parameters rules of contract only if at start rules is setted modifiable"
      },
      "transferOwnership(address)": {
        "notice": "Transfer ownership of the smart contract"
      },
      "transfers(uint32,uint32)": {
        "notice": "Get movements of the assets"
      },
      "unpause()": {
        "notice": "Unpause transfer tokens of smart contract"
      },
      "upsertArticle(uint32,(string,string,string,string,uint256))": {
        "notice": "Add or set an article to the contract"
      },
      "version()": {
        "notice": "Returns the version of the token contract"
      },
      "withdraw(uint256,address)": {
        "notice": "Withdraw tokens amount of contract balance"
      }
    },
    "version": 1
  }
}