{
  "contractName": "SecurityTokenImmutable",
  "abi": [
    {
      "inputs": [
        {
          "internalType": "string",
          "name": "_name",
          "type": "string"
        },
        {
          "internalType": "string",
          "name": "_code",
          "type": "string"
        },
        {
          "components": [
            {
              "internalType": "bool",
              "name": "freezableAddress",
              "type": "bool"
            },
            {
              "internalType": "bool",
              "name": "freezablePartial",
              "type": "bool"
            },
            {
              "internalType": "bool",
              "name": "freezablePartialTime",
              "type": "bool"
            },
            {
              "internalType": "bool",
              "name": "pausable",
              "type": "bool"
            },
            {
              "internalType": "bool",
              "name": "forcableTransfer",
              "type": "bool"
            },
            {
              "internalType": "bool",
              "name": "rulesModifiable",
              "type": "bool"
            },
            {
              "internalType": "bool",
              "name": "soulBoundSecurityToken",
              "type": "bool"
            },
            {
              "internalType": "uint256",
              "name": "dayToWithdraw",
              "type": "uint256"
            },
            {
              "internalType": "uint256",
              "name": "startFundraising",
              "type": "uint256"
            },
            {
              "internalType": "uint256",
              "name": "endFundraising",
              "type": "uint256"
            },
            {
              "internalType": "uint256",
              "name": "maxSupply",
              "type": "uint256"
            }
          ],
          "internalType": "struct TokenLibrary.Rules",
          "name": "_rules",
          "type": "tuple"
        }
      ],
      "stateMutability": "nonpayable",
      "type": "constructor"
    },
    {
      "inputs": [
        {
          "internalType": "address",
          "name": "sender",
          "type": "address"
        }
      ],
      "name": "NotAgent",
      "type": "error"
    },
    {
      "inputs": [
        {
          "internalType": "address",
          "name": "sender",
          "type": "address"
        }
      ],
      "name": "NotReader",
      "type": "error"
    },
    {
      "anonymous": false,
      "inputs": [
        {
          "indexed": true,
          "internalType": "address",
          "name": "_agent",
          "type": "address"
        }
      ],
      "name": "AgentAdded",
      "type": "event"
    },
    {
      "anonymous": false,
      "inputs": [
        {
          "indexed": true,
          "internalType": "address",
          "name": "_agent",
          "type": "address"
        }
      ],
      "name": "AgentRemoved",
      "type": "event"
    },
    {
      "anonymous": false,
      "inputs": [
        {
          "indexed": true,
          "internalType": "address",
          "name": "owner",
          "type": "address"
        },
        {
          "indexed": true,
          "internalType": "address",
          "name": "spender",
          "type": "address"
        },
        {
          "indexed": false,
          "internalType": "uint256",
          "name": "value",
          "type": "uint256"
        }
      ],
      "name": "Approval",
      "type": "event"
    },
    {
      "anonymous": false,
      "inputs": [
        {
          "indexed": false,
          "internalType": "address",
          "name": "operator",
          "type": "address"
        },
        {
          "indexed": false,
          "internalType": "address",
          "name": "sender",
          "type": "address"
        },
        {
          "indexed": false,
          "internalType": "uint256",
          "name": "value",
          "type": "uint256"
        }
      ],
      "name": "HandlePaiement",
      "type": "event"
    },
    {
      "anonymous": false,
      "inputs": [
        {
          "indexed": false,
          "internalType": "address",
          "name": "operator",
          "type": "address"
        },
        {
          "indexed": false,
          "internalType": "uint256",
          "name": "value",
          "type": "uint256"
        }
      ],
      "name": "InjectCapital",
      "type": "event"
    },
    {
      "anonymous": false,
      "inputs": [
        {
          "indexed": true,
          "internalType": "address",
          "name": "previousOwner",
          "type": "address"
        },
        {
          "indexed": true,
          "internalType": "address",
          "name": "newOwner",
          "type": "address"
        }
      ],
      "name": "OwnershipTransferred",
      "type": "event"
    },
    {
      "anonymous": false,
      "inputs": [
        {
          "indexed": true,
          "internalType": "address",
          "name": "sender",
          "type": "address"
        },
        {
          "indexed": true,
          "internalType": "uint256",
          "name": "paused",
          "type": "uint256"
        }
      ],
      "name": "Paused",
      "type": "event"
    },
    {
      "anonymous": false,
      "inputs": [
        {
          "indexed": true,
          "internalType": "address",
          "name": "_reader",
          "type": "address"
        }
      ],
      "name": "ReaderAdded",
      "type": "event"
    },
    {
      "anonymous": false,
      "inputs": [
        {
          "indexed": true,
          "internalType": "address",
          "name": "_reader",
          "type": "address"
        }
      ],
      "name": "ReaderRemoved",
      "type": "event"
    },
    {
      "anonymous": false,
      "inputs": [
        {
          "indexed": false,
          "internalType": "string",
          "name": "eventType",
          "type": "string"
        },
        {
          "indexed": true,
          "internalType": "address",
          "name": "from",
          "type": "address"
        },
        {
          "indexed": true,
          "internalType": "address",
          "name": "to",
          "type": "address"
        },
        {
          "indexed": false,
          "internalType": "uint256",
          "name": "value",
          "type": "uint256"
        }
      ],
      "name": "Transfer",
      "type": "event"
    },
    {
      "anonymous": false,
      "inputs": [
        {
          "indexed": true,
          "internalType": "address",
          "name": "from",
          "type": "address"
        },
        {
          "indexed": true,
          "internalType": "address",
          "name": "to",
          "type": "address"
        },
        {
          "indexed": false,
          "internalType": "uint256",
          "name": "value",
          "type": "uint256"
        }
      ],
      "name": "Transfer",
      "type": "event"
    },
    {
      "anonymous": false,
      "inputs": [
        {
          "indexed": true,
          "internalType": "address",
          "name": "oldAccount",
          "type": "address"
        },
        {
          "indexed": true,
          "internalType": "address",
          "name": "newAccount",
          "type": "address"
        }
      ],
      "name": "TransferOwnership",
      "type": "event"
    },
    {
      "inputs": [
        {
          "internalType": "address",
          "name": "_agent",
          "type": "address"
        }
      ],
      "name": "addAgent",
      "outputs": [],
      "stateMutability": "nonpayable",
      "type": "function"
    },
    {
      "inputs": [
        {
          "internalType": "address",
          "name": "_reader",
          "type": "address"
        }
      ],
      "name": "addReader",
      "outputs": [],
      "stateMutability": "nonpayable",
      "type": "function"
    },
    {
      "inputs": [
        {
          "internalType": "address",
          "name": "owner",
          "type": "address"
        },
        {
          "internalType": "address",
          "name": "spender",
          "type": "address"
        }
      ],
      "name": "allowance",
      "outputs": [
        {
          "internalType": "uint256",
          "name": "",
          "type": "uint256"
        }
      ],
      "stateMutability": "view",
      "type": "function"
    },
    {
      "inputs": [
        {
          "internalType": "address",
          "name": "spender",
          "type": "address"
        },
        {
          "internalType": "uint256",
          "name": "amount",
          "type": "uint256"
        }
      ],
      "name": "approve",
      "outputs": [
        {
          "internalType": "bool",
          "name": "",
          "type": "bool"
        }
      ],
      "stateMutability": "nonpayable",
      "type": "function"
    },
    {
      "inputs": [],
      "name": "decimals",
      "outputs": [
        {
          "internalType": "uint8",
          "name": "",
          "type": "uint8"
        }
      ],
      "stateMutability": "view",
      "type": "function"
    },
    {
      "inputs": [
        {
          "internalType": "address",
          "name": "spender",
          "type": "address"
        },
        {
          "internalType": "uint256",
          "name": "subtractedValue",
          "type": "uint256"
        }
      ],
      "name": "decreaseAllowance",
      "outputs": [
        {
          "internalType": "bool",
          "name": "",
          "type": "bool"
        }
      ],
      "stateMutability": "nonpayable",
      "type": "function"
    },
    {
      "inputs": [
        {
          "internalType": "address",
          "name": "spender",
          "type": "address"
        },
        {
          "internalType": "uint256",
          "name": "addedValue",
          "type": "uint256"
        }
      ],
      "name": "increaseAllowance",
      "outputs": [
        {
          "internalType": "bool",
          "name": "",
          "type": "bool"
        }
      ],
      "stateMutability": "nonpayable",
      "type": "function"
    },
    {
      "inputs": [
        {
          "internalType": "address",
          "name": "_agent",
          "type": "address"
        }
      ],
      "name": "isAgent",
      "outputs": [
        {
          "internalType": "bool",
          "name": "",
          "type": "bool"
        }
      ],
      "stateMutability": "view",
      "type": "function"
    },
    {
      "inputs": [
        {
          "internalType": "address",
          "name": "_reader",
          "type": "address"
        }
      ],
      "name": "isReader",
      "outputs": [
        {
          "internalType": "bool",
          "name": "",
          "type": "bool"
        }
      ],
      "stateMutability": "view",
      "type": "function"
    },
    {
      "inputs": [],
      "name": "name",
      "outputs": [
        {
          "internalType": "string",
          "name": "",
          "type": "string"
        }
      ],
      "stateMutability": "view",
      "type": "function"
    },
    {
      "inputs": [
        {
          "internalType": "address",
          "name": "_agent",
          "type": "address"
        }
      ],
      "name": "removeAgent",
      "outputs": [],
      "stateMutability": "nonpayable",
      "type": "function"
    },
    {
      "inputs": [
        {
          "internalType": "address",
          "name": "_reader",
          "type": "address"
        }
      ],
      "name": "removeReader",
      "outputs": [],
      "stateMutability": "nonpayable",
      "type": "function"
    },
    {
      "inputs": [],
      "name": "renounceOwnership",
      "outputs": [],
      "stateMutability": "nonpayable",
      "type": "function"
    },
    {
      "inputs": [],
      "name": "symbol",
      "outputs": [
        {
          "internalType": "string",
          "name": "",
          "type": "string"
        }
      ],
      "stateMutability": "view",
      "type": "function"
    },
    {
      "inputs": [],
      "name": "_now",
      "outputs": [
        {
          "internalType": "uint256",
          "name": "",
          "type": "uint256"
        }
      ],
      "stateMutability": "view",
      "type": "function"
    },
    {
      "inputs": [
        {
          "internalType": "address",
          "name": "_addressProxy",
          "type": "address"
        }
      ],
      "name": "setAddressProxy",
      "outputs": [],
      "stateMutability": "nonpayable",
      "type": "function"
    },
    {
      "inputs": [],
      "name": "getAddressProxy",
      "outputs": [
        {
          "internalType": "address",
          "name": "",
          "type": "address"
        }
      ],
      "stateMutability": "view",
      "type": "function"
    },
    {
      "inputs": [
        {
          "internalType": "uint256",
          "name": "startFundraising",
          "type": "uint256"
        },
        {
          "internalType": "uint256",
          "name": "endFundraising",
          "type": "uint256"
        },
        {
          "internalType": "uint256",
          "name": "maxSupply",
          "type": "uint256"
        }
      ],
      "name": "setFundraising",
      "outputs": [],
      "stateMutability": "nonpayable",
      "type": "function"
    },
    {
      "inputs": [
        {
          "components": [
            {
              "internalType": "bool",
              "name": "freezableAddress",
              "type": "bool"
            },
            {
              "internalType": "bool",
              "name": "freezablePartial",
              "type": "bool"
            },
            {
              "internalType": "bool",
              "name": "freezablePartialTime",
              "type": "bool"
            },
            {
              "internalType": "bool",
              "name": "pausable",
              "type": "bool"
            },
            {
              "internalType": "bool",
              "name": "forcableTransfer",
              "type": "bool"
            },
            {
              "internalType": "bool",
              "name": "rulesModifiable",
              "type": "bool"
            },
            {
              "internalType": "bool",
              "name": "soulBoundSecurityToken",
              "type": "bool"
            },
            {
              "internalType": "uint256",
              "name": "dayToWithdraw",
              "type": "uint256"
            },
            {
              "internalType": "uint256",
              "name": "startFundraising",
              "type": "uint256"
            },
            {
              "internalType": "uint256",
              "name": "endFundraising",
              "type": "uint256"
            },
            {
              "internalType": "uint256",
              "name": "maxSupply",
              "type": "uint256"
            }
          ],
          "internalType": "struct TokenLibrary.Rules",
          "name": "_rules",
          "type": "tuple"
        }
      ],
      "name": "setRules",
      "outputs": [],
      "stateMutability": "nonpayable",
      "type": "function"
    },
    {
      "inputs": [],
      "name": "getRules",
      "outputs": [
        {
          "components": [
            {
              "internalType": "bool",
              "name": "freezableAddress",
              "type": "bool"
            },
            {
              "internalType": "bool",
              "name": "freezablePartial",
              "type": "bool"
            },
            {
              "internalType": "bool",
              "name": "freezablePartialTime",
              "type": "bool"
            },
            {
              "internalType": "bool",
              "name": "pausable",
              "type": "bool"
            },
            {
              "internalType": "bool",
              "name": "forcableTransfer",
              "type": "bool"
            },
            {
              "internalType": "bool",
              "name": "rulesModifiable",
              "type": "bool"
            },
            {
              "internalType": "bool",
              "name": "soulBoundSecurityToken",
              "type": "bool"
            },
            {
              "internalType": "uint256",
              "name": "dayToWithdraw",
              "type": "uint256"
            },
            {
              "internalType": "uint256",
              "name": "startFundraising",
              "type": "uint256"
            },
            {
              "internalType": "uint256",
              "name": "endFundraising",
              "type": "uint256"
            },
            {
              "internalType": "uint256",
              "name": "maxSupply",
              "type": "uint256"
            }
          ],
          "internalType": "struct TokenLibrary.Rules",
          "name": "",
          "type": "tuple"
        }
      ],
      "stateMutability": "view",
      "type": "function"
    },
    {
      "inputs": [],
      "name": "version",
      "outputs": [
        {
          "internalType": "string",
          "name": "",
          "type": "string"
        }
      ],
      "stateMutability": "pure",
      "type": "function"
    },
    {
      "inputs": [],
      "name": "owner",
      "outputs": [
        {
          "internalType": "address",
          "name": "",
          "type": "address"
        }
      ],
      "stateMutability": "view",
      "type": "function"
    },
    {
      "inputs": [],
      "name": "transfers",
      "outputs": [
        {
          "components": [
            {
              "internalType": "string",
              "name": "transferType",
              "type": "string"
            },
            {
              "internalType": "address",
              "name": "from",
              "type": "address"
            },
            {
              "internalType": "address",
              "name": "to",
              "type": "address"
            },
            {
              "internalType": "uint256",
              "name": "amount",
              "type": "uint256"
            },
            {
              "internalType": "uint256",
              "name": "date",
              "type": "uint256"
            }
          ],
          "internalType": "struct TokenLibrary.Transfer[]",
          "name": "",
          "type": "tuple[]"
        }
      ],
      "stateMutability": "view",
      "type": "function"
    },
    {
      "inputs": [
        {
          "internalType": "address",
          "name": "account",
          "type": "address"
        }
      ],
      "name": "transferOwnership",
      "outputs": [],
      "stateMutability": "nonpayable",
      "type": "function"
    },
    {
      "inputs": [
        {
          "internalType": "address",
          "name": "to",
          "type": "address"
        },
        {
          "internalType": "uint256",
          "name": "amount",
          "type": "uint256"
        }
      ],
      "name": "mint",
      "outputs": [
        {
          "internalType": "bool",
          "name": "",
          "type": "bool"
        }
      ],
      "stateMutability": "payable",
      "type": "function"
    },
    {
      "inputs": [
        {
          "internalType": "address",
          "name": "account",
          "type": "address"
        },
        {
          "internalType": "uint256",
          "name": "amount",
          "type": "uint256"
        },
        {
          "internalType": "uint256",
          "name": "refoundable",
          "type": "uint256"
        }
      ],
      "name": "burn",
      "outputs": [
        {
          "internalType": "bool",
          "name": "",
          "type": "bool"
        }
      ],
      "stateMutability": "nonpayable",
      "type": "function"
    },
    {
      "inputs": [
        {
          "internalType": "address",
          "name": "to",
          "type": "address"
        },
        {
          "internalType": "uint256",
          "name": "amount",
          "type": "uint256"
        }
      ],
      "name": "transfer",
      "outputs": [
        {
          "internalType": "bool",
          "name": "",
          "type": "bool"
        }
      ],
      "stateMutability": "nonpayable",
      "type": "function"
    },
    {
      "inputs": [
        {
          "internalType": "address",
          "name": "from",
          "type": "address"
        },
        {
          "internalType": "address",
          "name": "to",
          "type": "address"
        },
        {
          "internalType": "uint256",
          "name": "amount",
          "type": "uint256"
        }
      ],
      "name": "transferFrom",
      "outputs": [
        {
          "internalType": "bool",
          "name": "",
          "type": "bool"
        }
      ],
      "stateMutability": "nonpayable",
      "type": "function"
    },
    {
      "inputs": [],
      "name": "totalSupply",
      "outputs": [
        {
          "internalType": "uint256",
          "name": "",
          "type": "uint256"
        }
      ],
      "stateMutability": "view",
      "type": "function"
    },
    {
      "inputs": [
        {
          "internalType": "address",
          "name": "account",
          "type": "address"
        }
      ],
      "name": "balanceOf",
      "outputs": [
        {
          "internalType": "uint256",
          "name": "",
          "type": "uint256"
        }
      ],
      "stateMutability": "view",
      "type": "function"
    },
    {
      "inputs": [
        {
          "internalType": "uint256",
          "name": "_paused",
          "type": "uint256"
        }
      ],
      "name": "pause",
      "outputs": [],
      "stateMutability": "nonpayable",
      "type": "function"
    },
    {
      "inputs": [],
      "name": "unpause",
      "outputs": [],
      "stateMutability": "nonpayable",
      "type": "function"
    },
    {
      "inputs": [],
      "name": "isPaused",
      "outputs": [
        {
          "internalType": "uint256",
          "name": "",
          "type": "uint256"
        }
      ],
      "stateMutability": "view",
      "type": "function"
    },
    {
      "inputs": [
        {
          "internalType": "uint256",
          "name": "amount",
          "type": "uint256"
        },
        {
          "internalType": "address",
          "name": "receiver",
          "type": "address"
        }
      ],
      "name": "withdraw",
      "outputs": [
        {
          "internalType": "bool",
          "name": "",
          "type": "bool"
        }
      ],
      "stateMutability": "nonpayable",
      "type": "function"
    },
    {
      "inputs": [
        {
          "internalType": "address",
          "name": "senderAddress",
          "type": "address"
        }
      ],
      "name": "handlePayment",
      "outputs": [
        {
          "internalType": "bool",
          "name": "",
          "type": "bool"
        }
      ],
      "stateMutability": "payable",
      "type": "function"
    },
    {
      "inputs": [],
      "name": "injectCapital",
      "outputs": [
        {
          "internalType": "bool",
          "name": "",
          "type": "bool"
        }
      ],
      "stateMutability": "payable",
      "type": "function"
    }
  ],
  "bytecode": "0x60806040523480156200001157600080fd5b506040516200293538038062002935833981016040819052620000349162000397565b8251839083906200004d906003906020850190620001d1565b50805162000063906004906020840190620001d1565b505050620000806200007a6200017b60201b60201c565b6200017f565b33600980546001600160a01b0319166001600160a01b03929092169190911790558051600c8054602084015160408501516060860151608087015160a088015160c089015161ffff1990961697151561ff0019169790971761010094151585021763ffff00001916620100009315159390930263ff0000001916929092176301000000911515919091021761ffff60201b19166401000000009115159190910260ff60281b19161765010000000000941515949094029390931760ff60301b191666010000000000009115159190910217905560e0820151600d55810151600e55610120810151600f55610140015160105550620005189050565b3390565b600580546001600160a01b038381166001600160a01b0319831681179093556040519116919082907f8be0079c531659141344cd1fd0a4f28419497f9722a3daafe3b4186f6b6457e090600090a35050565b828054620001df90620004db565b90600052602060002090601f0160209004810192826200020357600085556200024e565b82601f106200021e57805160ff19168380011785556200024e565b828001600101855582156200024e579182015b828111156200024e57825182559160200191906001019062000231565b506200025c92915062000260565b5090565b5b808211156200025c576000815560010162000261565b634e487b7160e01b600052604160045260246000fd5b60405161016081016001600160401b0381118282101715620002b357620002b362000277565b60405290565b604051601f8201601f191681016001600160401b0381118282101715620002e457620002e462000277565b604052919050565b600082601f830112620002fe57600080fd5b81516001600160401b038111156200031a576200031a62000277565b602062000330601f8301601f19168201620002b9565b82815285828487010111156200034557600080fd5b60005b838110156200036557858101830151828201840152820162000348565b83811115620003775760008385840101525b5095945050505050565b805180151581146200039257600080fd5b919050565b60008060008385036101a0811215620003af57600080fd5b84516001600160401b0380821115620003c757600080fd5b620003d588838901620002ec565b95506020870151915080821115620003ec57600080fd5b50620003fb87828801620002ec565b93505061016080603f19830112156200041357600080fd5b6200041d6200028d565b91506200042d6040870162000381565b82526200043d6060870162000381565b6020830152620004506080870162000381565b60408301526200046360a0870162000381565b60608301526200047660c0870162000381565b60808301526200048960e0870162000381565b60a08301526101006200049e81880162000381565b60c08401526101208088015160e0850152610140808901518386015283890151828601526101808901518186015250505050809150509250925092565b600181811c90821680620004f057607f821691505b602082108114156200051257634e487b7160e01b600052602260045260246000fd5b50919050565b61240d80620005286000396000f3fe60806040526004361061020e5760003560e01c806370a0823111610118578063afd8b1d1116100a0578063dd62ed3e1161006f578063dd62ed3e146105da578063f2fde38b146105fa578063f3c7b6a71461061a578063f5298aca14610622578063ff18889c1461064257600080fd5b8063afd8b1d114610574578063b187bd2614610594578063b3bb8cd4146105a9578063cd0aa36d146105bc57600080fd5b806395d89b41116100e757806395d89b41146104dd57806397a6278e146104f2578063a457c2d714610512578063a9059cbb14610532578063ab5e28c51461055257600080fd5b806370a0823114610456578063715018a61461047657806384e798421461048b5780638da5cb5b146104ab57600080fd5b806338d65d111161019b57806341bb26d31161016a57806341bb26d3146103b357806345e2984a146103c657806354fd4d50146103e85780636866f9211461041657806369a7ddf71461043657600080fd5b806338d65d111461034b578063395093511461036b5780633f4ba83a1461038b57806340c10f19146103a057600080fd5b806318160ddd116101e257806318160ddd146102ac5780631ffbb064146102cf57806323b872dd146102ef5780632a87e1d21461030f578063313ce5671461032f57600080fd5b8062f714ce1461021357806306fdde0314610248578063095ea7b31461026a578063136439dd1461028a575b600080fd5b34801561021f57600080fd5b5061023361022e366004611e8c565b610662565b60405190151581526020015b60405180910390f35b34801561025457600080fd5b5061025d61074b565b60405161023f9190611f09565b34801561027657600080fd5b50610233610285366004611f1c565b6107dd565b34801561029657600080fd5b506102aa6102a5366004611f48565b6107f5565b005b3480156102b857600080fd5b506102c1610910565b60405190815260200161023f565b3480156102db57600080fd5b506102336102ea366004611f61565b610920565b3480156102fb57600080fd5b5061023361030a366004611f7e565b610933565b34801561031b57600080fd5b506102aa61032a366004611fbf565b610974565b34801561033b57600080fd5b506040516012815260200161023f565b34801561035757600080fd5b506102aa610366366004611f61565b61098a565b34801561037757600080fd5b50610233610386366004611f1c565b6109d4565b34801561039757600080fd5b506102aa6109f6565b6102336103ae366004611f1c565b610acc565b6102336103c1366004611f61565b610b15565b3480156103d257600080fd5b506103db610b68565b60405161023f9190611feb565b3480156103f457600080fd5b50604080518082019091526005815264302e302e3160d81b602082015261025d565b34801561042257600080fd5b506102aa610431366004612103565b610c96565b34801561044257600080fd5b50610233610451366004611f61565b610dd4565b34801561046257600080fd5b506102c1610471366004611f61565b610de1565b34801561048257600080fd5b506102aa610dff565b34801561049757600080fd5b506102aa6104a6366004611f61565b610e13565b3480156104b757600080fd5b506009546001600160a01b03165b6040516001600160a01b03909116815260200161023f565b3480156104e957600080fd5b5061025d610e5d565b3480156104fe57600080fd5b506102aa61050d366004611f61565b610e6c565b34801561051e57600080fd5b5061023361052d366004611f1c565b610eb6565b34801561053e57600080fd5b5061023361054d366004611f1c565b610f3c565b34801561055e57600080fd5b50610567610f99565b60405161023f91906121c3565b34801561058057600080fd5b506102aa61058f366004611f61565b6111c1565b3480156105a057600080fd5b50600b546102c1565b3480156105b557600080fd5b50426102c1565b3480156105c857600080fd5b506008546001600160a01b03166104c5565b3480156105e657600080fd5b506102c16105f5366004612264565b61120b565b34801561060657600080fd5b506102aa610615366004611f61565b611236565b61023361129a565b34801561062e57600080fd5b5061023361063d366004612292565b6112ec565b34801561064e57600080fd5b506102aa61065d366004611f61565b6113c6565b6008546000906001600160a01b0316336001600160a01b0316146106a15760405162461bcd60e51b8152600401610698906122c7565b60405180910390fd5b6000826001600160a01b03168460405160006040518083038185875af1925050503d80600081146106ee576040519150601f19603f3d011682016040523d82523d6000602084013e6106f3565b606091505b50509050806107445760405162461bcd60e51b815260206004820152601760248201527f5769746864726177206e6f74207375636365737366756c0000000000000000006044820152606401610698565b9392505050565b60606003805461075a906122f5565b80601f0160208091040260200160405190810160405280929190818152602001828054610786906122f5565b80156107d35780601f106107a8576101008083540402835291602001916107d3565b820191906000526020600020905b8154815290600101906020018083116107b657829003601f168201915b5050505050905090565b6000336107eb8185856114b5565b5060019392505050565b6107fe33610920565b15801561081657506009546001600160a01b03163314155b1561084257335b6040516352f49c9560e01b81526001600160a01b039091166004820152602401610698565b600b5442116108865760405162461bcd60e51b815260206004820152601060248201526f14185d5cd8589b194e881c185d5cd95960821b6044820152606401610698565b600c546301000000900460ff1615156001146108db5760405162461bcd60e51b815260206004820152601460248201527314185d5cd9481a5cc81b9bdd08185b1b1bddd95960621b6044820152606401610698565b600b819055604051819033907fab40a374bc51de372200a8bc981af8c9ecdc08dfdaef0bb6e09f88f3c616ef3d90600090a350565b600061091b60025490565b905090565b600061092d6006836115d9565b92915050565b6008546000906001600160a01b0316336001600160a01b0316146109695760405162461bcd60e51b8152600401610698906122c7565b6107eb84848461165c565b61097c611698565b600e92909255600f55601055565b610992611698565b61099d6007826116f2565b6040516001600160a01b038216907fe933431644458f1217f9e93d3e000e03c9bbbe55761046d0985c2e4d157bcbaa90600090a250565b6000336107eb8185856109e7838361120b565b6109f19190612346565b6114b5565b6109ff33610920565b158015610a1757506009546001600160a01b03163314155b15610a22573361081d565b600b54421115610a445760405162461bcd60e51b8152600401610698906122c7565b600c546301000000900460ff161515600114610a995760405162461bcd60e51b815260206004820152601460248201527314185d5cd9481a5cc81b9bdd08185b1b1bddd95960621b6044820152606401610698565b6000600b81905560405133907fab40a374bc51de372200a8bc981af8c9ecdc08dfdaef0bb6e09f88f3c616ef3d908390a3565b6008546000906001600160a01b0316336001600160a01b031614610b025760405162461bcd60e51b8152600401610698906122c7565b610b0c8383611774565b50600192915050565b604080513381526001600160a01b0383166020820152348183015290516000917f224f3111e0124d402f6469ecc4f4fb8cec5013a2ccaac80d1e9434525eceef3f919081900360600190a1506001919050565b6040805161016081018252600080825260208201819052918101829052606081018290526080810182905260a0810182905260c0810182905260e08101829052610100810182905261012081018290526101408101919091526008546001600160a01b0316336001600160a01b031614610bf45760405162461bcd60e51b8152600401610698906122c7565b506040805161016081018252600c5460ff8082161515835261010080830482161515602085015262010000830482161515948401949094526301000000820481161515606084015264010000000082048116151560808401526501000000000082048116151560a0840152600160301b90910416151560c0820152600d5460e0820152600e5491810191909152600f5461012082015260105461014082015290565b610c9e611698565b600c5465010000000000900460ff161515600114610cfe5760405162461bcd60e51b815260206004820152601760248201527f52756c6573206973206e6f74206d6f6469666961626c650000000000000000006044820152606401610698565b8051600c8054602084015160408501516060860151608087015160a088015160c089015161ffff1990961697151561ff0019169790971761010094151585021763ffff00001916620100009315159390930263ff0000001916929092176301000000911515919091021765ffff0000000019166401000000009115159190910265ff000000000019161765010000000000941515949094029390931766ff0000000000001916600160301b9115159190910217905560e0820151600d55810151600e55610120810151600f556101400151601055565b600061092d6007836115d9565b6001600160a01b03811660009081526020819052604081205461092d565b610e07611698565b610e1160006117ab565b565b610e1b611698565b610e266006826117fd565b6040516001600160a01b038216907ff68e73cec97f2d70aa641fb26e87a4383686e2efacb648f2165aeb02ac562ec590600090a250565b60606004805461075a906122f5565b610e74611698565b610e7f6006826116f2565b6040516001600160a01b038216907fed9c8ad8d5a0a66898ea49d2956929c93ae2e8bd50281b2ed897c5d1a6737e0b90600090a250565b60003381610ec4828661120b565b905083811015610f245760405162461bcd60e51b815260206004820152602560248201527f45524332303a2064656372656173656420616c6c6f77616e63652062656c6f77604482015264207a65726f60d81b6064820152608401610698565b610f3182868684036114b5565b506001949350505050565b600c54600090600160301b900460ff1615610f8e5760405162461bcd60e51b8152602060048201526012602482015271151bdad95b881a5cc81cdbdd5b189bdd5b9960721b6044820152606401610698565b610b0c33848461165c565b6060610fa433610dd4565b158015610fbc57506009546001600160a01b03163314155b15610fdc576040516325bfed0960e11b8152336004820152602401610698565b600954600090600160a01b900463ffffffff1667ffffffffffffffff811115611007576110076120a0565b60405190808252806020026020018201604052801561107c57816020015b6110696040518060a001604052806060815260200160006001600160a01b0316815260200160006001600160a01b0316815260200160008152602001600081525090565b8152602001906001900390816110255790505b50905060005b60095463ffffffff600160a01b909104811690821610156111bb5763ffffffff81166000908152600a602052604090819020815160a081019092528054829082906110cc906122f5565b80601f01602080910402602001604051908101604052809291908181526020018280546110f8906122f5565b80156111455780601f1061111a57610100808354040283529160200191611145565b820191906000526020600020905b81548152906001019060200180831161112857829003601f168201915b505050918352505060018201546001600160a01b0390811660208301526002830154166040820152600382015460608201526004909101546080909101528251839063ffffffff841690811061119d5761119d61235e565b602002602001018190525080806111b390612374565b915050611082565b50905090565b6111c9611698565b6111d46007826117fd565b6040516001600160a01b038216907fb7724d890d2888af5a3fc456edb667e2c82c4441449ebcac301c618759e4f86d90600090a250565b6001600160a01b03918216600090815260016020908152604080832093909416825291909152205490565b61123e611698565b6009546040516001600160a01b038084169216907f5c486528ec3e3f0ea91181cff8116f02bfa350e03b8b6f12e00765adbb5af85c90600090a3600980546001600160a01b0319166001600160a01b0392909216919091179055565b60006112a4611698565b7f5fd7e473e4c9f40f9aee4bcca944d0a219b4139712b081b8c95edfd2e9bd438733604080516001600160a01b0390921682523460208301520160405180910390a150600190565b6008546000906001600160a01b0316336001600160a01b0316146113225760405162461bcd60e51b8152600401610698906122c7565b61132c8484611879565b6000846001600160a01b03168360405160006040518083038185875af1925050503d8060008114611379576040519150601f19603f3d011682016040523d82523d6000602084013e61137e565b606091505b5050905080610f315760405162461bcd60e51b81526020600482015260146024820152732330b4b632b2103a379039b2b7321022ba3432b960611b6044820152606401610698565b6009546001600160a01b03166001600160a01b0316816001600160a01b0316638da5cb5b6040518163ffffffff1660e01b8152600401602060405180830381865afa158015611419573d6000803e3d6000fd5b505050506040513d601f19601f8201168201806040525081019061143d9190612398565b6001600160a01b0316146114935760405162461bcd60e51b815260206004820152601860248201527f496e76616c696420636f6e74726163742026204f776e657200000000000000006044820152606401610698565b600880546001600160a01b0319166001600160a01b0392909216919091179055565b6001600160a01b0383166115175760405162461bcd60e51b8152602060048201526024808201527f45524332303a20617070726f76652066726f6d20746865207a65726f206164646044820152637265737360e01b6064820152608401610698565b6001600160a01b0382166115785760405162461bcd60e51b815260206004820152602260248201527f45524332303a20617070726f766520746f20746865207a65726f206164647265604482015261737360f01b6064820152608401610698565b6001600160a01b0383811660008181526001602090815260408083209487168084529482529182902085905590518481527f8c5be1e5ebec7d5bd14f71427d1e84f3dd0314c0f7b2291e5b200ac8c7c3b925910160405180910390a3505050565b60006001600160a01b03821661163c5760405162461bcd60e51b815260206004820152602260248201527f526f6c65733a206163636f756e7420697320746865207a65726f206164647265604482015261737360f01b6064820152608401610698565b506001600160a01b03166000908152602091909152604090205460ff1690565b6116678383836118ac565b611693604051806040016040528060088152602001673a3930b739b332b960c11b815250848484611a51565b505050565b6009546001600160a01b03163314610e115760405162461bcd60e51b815260206004820181905260248201527f4f776e61626c653a2063616c6c6572206973206e6f7420746865206f776e65726044820152606401610698565b6116fc82826115d9565b6117525760405162461bcd60e51b815260206004820152602160248201527f526f6c65733a206163636f756e7420646f6573206e6f74206861766520726f6c6044820152606560f81b6064820152608401610698565b6001600160a01b0316600090815260209190915260409020805460ff19169055565b61177e8282611bea565b6117a7604051806040016040528060048152602001631b5a5b9d60e21b81525060008484611a51565b5050565b600580546001600160a01b038381166001600160a01b0319831681179093556040519116919082907f8be0079c531659141344cd1fd0a4f28419497f9722a3daafe3b4186f6b6457e090600090a35050565b61180782826115d9565b156118545760405162461bcd60e51b815260206004820152601f60248201527f526f6c65733a206163636f756e7420616c72656164792068617320726f6c65006044820152606401610698565b6001600160a01b0316600090815260209190915260409020805460ff19166001179055565b6118838282611ca9565b6117a760405180604001604052806004815260200163313ab93760e11b81525083600084611a51565b6001600160a01b0383166119105760405162461bcd60e51b815260206004820152602560248201527f45524332303a207472616e736665722066726f6d20746865207a65726f206164604482015264647265737360d81b6064820152608401610698565b6001600160a01b0382166119725760405162461bcd60e51b815260206004820152602360248201527f45524332303a207472616e7366657220746f20746865207a65726f206164647260448201526265737360e81b6064820152608401610698565b6001600160a01b038316600090815260208190526040902054818110156119ea5760405162461bcd60e51b815260206004820152602660248201527f45524332303a207472616e7366657220616d6f756e7420657863656564732062604482015265616c616e636560d01b6064820152608401610698565b6001600160a01b03848116600081815260208181526040808320878703905593871680835291849020805487019055925185815290927fddf252ad1be2c89b69c2b068fc378daa952ba7f163c4a11628f55a4df523b3ef910160405180910390a350505050565b600b544211611a955760405162461bcd60e51b815260206004820152601060248201526f14185d5cd8589b194e881c185d5cd95960821b6044820152606401610698565b816001600160a01b0316836001600160a01b03167f54c25aa230f7ee0c1e146d3416a3a4972d9fa34640b86e84383b461a585593de8684604051611ada9291906123b5565b60405180910390a36040518060a00160405280858152602001846001600160a01b03168152602001836001600160a01b03168152602001828152602001611b1e4290565b9052600954600160a01b900463ffffffff166000908152600a60209081526040909120825180519192611b5692849290910190611ddb565b5060208201516001820180546001600160a01b039283166001600160a01b0319918216179091556040840151600284018054919093169116179055606082015160038201556080909101516004909101556009805463ffffffff600160a01b90910416906014611bc583612374565b91906101000a81548163ffffffff021916908363ffffffff1602179055505050505050565b6001600160a01b038216611c405760405162461bcd60e51b815260206004820152601f60248201527f45524332303a206d696e7420746f20746865207a65726f2061646472657373006044820152606401610698565b8060026000828254611c529190612346565b90915550506001600160a01b038216600081815260208181526040808320805486019055518481527fddf252ad1be2c89b69c2b068fc378daa952ba7f163c4a11628f55a4df523b3ef910160405180910390a35050565b6001600160a01b038216611d095760405162461bcd60e51b815260206004820152602160248201527f45524332303a206275726e2066726f6d20746865207a65726f206164647265736044820152607360f81b6064820152608401610698565b6001600160a01b03821660009081526020819052604090205481811015611d7d5760405162461bcd60e51b815260206004820152602260248201527f45524332303a206275726e20616d6f756e7420657863656564732062616c616e604482015261636560f01b6064820152608401610698565b6001600160a01b0383166000818152602081815260408083208686039055600280548790039055518581529192917fddf252ad1be2c89b69c2b068fc378daa952ba7f163c4a11628f55a4df523b3ef910160405180910390a3505050565b828054611de7906122f5565b90600052602060002090601f016020900481019282611e095760008555611e4f565b82601f10611e2257805160ff1916838001178555611e4f565b82800160010185558215611e4f579182015b82811115611e4f578251825591602001919060010190611e34565b50611e5b929150611e5f565b5090565b5b80821115611e5b5760008155600101611e60565b6001600160a01b0381168114611e8957600080fd5b50565b60008060408385031215611e9f57600080fd5b823591506020830135611eb181611e74565b809150509250929050565b6000815180845260005b81811015611ee257602081850181015186830182015201611ec6565b81811115611ef4576000602083870101525b50601f01601f19169290920160200192915050565b6020815260006107446020830184611ebc565b60008060408385031215611f2f57600080fd5b8235611f3a81611e74565b946020939093013593505050565b600060208284031215611f5a57600080fd5b5035919050565b600060208284031215611f7357600080fd5b813561074481611e74565b600080600060608486031215611f9357600080fd5b8335611f9e81611e74565b92506020840135611fae81611e74565b929592945050506040919091013590565b600080600060608486031215611fd457600080fd5b505081359360208301359350604090920135919050565b81511515815261016081016020830151612009602084018215159052565b50604083015161201d604084018215159052565b506060830151612031606084018215159052565b506080830151612045608084018215159052565b5060a083015161205960a084018215159052565b5060c083015161206d60c084018215159052565b5060e083810151908301526101008084015190830152610120808401519083015261014092830151929091019190915290565b634e487b7160e01b600052604160045260246000fd5b604051610160810167ffffffffffffffff811182821017156120e857634e487b7160e01b600052604160045260246000fd5b60405290565b803580151581146120fe57600080fd5b919050565b6000610160828403121561211657600080fd5b61211e6120b6565b612127836120ee565b8152612135602084016120ee565b6020820152612146604084016120ee565b6040820152612157606084016120ee565b6060820152612168608084016120ee565b608082015261217960a084016120ee565b60a082015261218a60c084016120ee565b60c082015260e0838101359082015261010080840135908201526101208084013590820152610140928301359281019290925250919050565b60006020808301818452808551808352604092508286019150828160051b87010184880160005b8381101561225657603f19898403018552815160a0815181865261221082870182611ebc565b838b01516001600160a01b03908116888d01528a850151168a880152606080850151908801526080938401519390960192909252505093860193908601906001016121ea565b509098975050505050505050565b6000806040838503121561227757600080fd5b823561228281611e74565b91506020830135611eb181611e74565b6000806000606084860312156122a757600080fd5b83356122b281611e74565b95602085013595506040909401359392505050565b60208082526014908201527314185d5cd8589b194e881b9bdd081c185d5cd95960621b604082015260600190565b600181811c9082168061230957607f821691505b6020821081141561232a57634e487b7160e01b600052602260045260246000fd5b50919050565b634e487b7160e01b600052601160045260246000fd5b6000821982111561235957612359612330565b500190565b634e487b7160e01b600052603260045260246000fd5b600063ffffffff8083168181141561238e5761238e612330565b6001019392505050565b6000602082840312156123aa57600080fd5b815161074481611e74565b6040815260006123c86040830185611ebc565b9050826020830152939250505056fea26469706673582212201dc7bce07441942eccf3cb7fd70701f9e9474a0825ba84718baf4a80ee3a2a0164736f6c634300080b0033",
  "immutableReferences": {},
  "source": "// SPDX-License-Identifier: MIT\n\npragma solidity ^0.8.0;\n\n\nimport \"../library/TokenLibrary.sol\";\nimport \"../interfaces/IProxySecurityToken.sol\";\nimport \"../interfaces/ISecurityTokenImmutable.sol\";\nimport \"../roles/AgentRole.sol\";\nimport \"../roles/ReaderRole.sol\";\nimport \"@openzeppelin/contracts/access/Ownable.sol\";\nimport \"@openzeppelin/contracts/token/ERC20/ERC20.sol\";\nimport \"@openzeppelin/contracts/utils/math/SafeMath.sol\";\n\ncontract SecurityTokenImmutable is ERC20, AgentRole, ReaderRole, ISecurityTokenImmutable {\n    using SafeMath for uint;\n\n    address internal addressProxy;\n    address internal OWNER;\n    uint32 internal _transfersCount;\n    mapping(uint256 => TokenLibrary.Transfer) internal _transfers;\n    uint256 internal paused;\n    string internal constant TOKEN_VERSION = \"0.0.1\";\n    TokenLibrary.Rules internal rules;\n\n    event TransferOwnership(address indexed oldAccount, address indexed newAccount);\n    event Paused(address indexed sender, uint256 indexed paused);\n    event Transfer(string eventType, address indexed from, address indexed to, uint256 value);\n    event HandlePaiement(address operator, address sender, uint256 value);\n    event InjectCapital(address operator, uint256 value);\n\n    function _now() public view returns (uint256) {\n        return block.timestamp;\n    }\n\n    /**\n     */\n    constructor(\n        string memory _name,\n        string memory _code,\n        TokenLibrary.Rules memory _rules\n    ) ERC20(_name, _code) {\n        OWNER = _msgSender();\n        rules = _rules;\n    }\n\n    /// @dev Modifier to make a function callable only when the contract is not paused.\n    modifier whenNotPaused() {\n        require(_now() > paused, \"Pausable: paused\");\n        _;\n    }\n\n    /// @dev Modifier to make a function callable only when the contract is paused.\n    modifier whenPaused() {\n        require(_now() <= paused, \"Pausable: not paused\");\n        _;\n    }\n\n    /// @dev Modifier to make a function callable only when the contract is paused.\n    modifier onlyProxy() {\n        require(_msgSender() == addressProxy, \"Pausable: not paused\");\n        _;\n    }\n\n    modifier soulBound() {\n        require(rules.soulBoundSecurityToken == false, \"Token is soulbound\");\n        _;\n    }\n\n    /**\n     * @notice Set address of proxy contract to accept only proxy requests\n     * @param _addressProxy {address} address of contract proxy\n     */\n    function setAddressProxy(address _addressProxy) external {\n        require(IProxySecurityToken(_addressProxy).owner() == owner(),\"Invalid contract & Owner\");\n        addressProxy = _addressProxy;\n    }\n\n    /**\n     * @notice Get address of proxy contract\n     * @return addressProxy {address} address of contract proxy\n     */\n    function getAddressProxy() external view returns(address){\n        return addressProxy;\n    }\n\n    /**\n     * @notice Set fundraising parameters to mint tokens in conditions\n     * @param startFundraising {uint256} start timestamp of the fundraising\n     * @param endFundraising {uint256} end timestamp of the fundraising\n     * @param maxSupply {uint256} max supply tokens of contract\n     */\n    function setFundraising(\n        uint256 startFundraising,\n        uint256 endFundraising,\n        uint256 maxSupply\n    ) external onlyOwner {\n        rules.startFundraising = startFundraising;\n        rules.endFundraising = endFundraising;\n        rules.maxSupply = maxSupply;\n    }\n\n    /**\n     * @notice Set parameters rules of contract only if at start rules is setted modifiable\n     * @param _rules {TokenLibrary.Rules} struct of rules\n     */\n    function setRules(TokenLibrary.Rules memory _rules) external onlyOwner {\n        require(rules.rulesModifiable == true, \"Rules is not modifiable\");\n        rules = _rules;\n\n    }\n\n    /**\n     * @notice Get parameters rules of contract\n     * @return rules {TokenLibrary.Rules} struct of rules setted on smart contract\n     */\n    function getRules() external view onlyProxy returns(TokenLibrary.Rules memory) {\n        return rules;\n    }\n\n    /**\n     * @notice Returns the version of the token contract\n     * @return TOKEN_VERSION {string} version of the smart contract\n     */\n    function version() external pure returns (string memory) {\n        return TOKEN_VERSION;\n    }\n\n    /**\n     * @notice Returns the address wallet of the smart contract owner.\n     * @return owner {address} wallet addres from owner\n     */\n    function owner() public view override(Ownable, ISecurityTokenImmutable) returns (address) {\n        return OWNER;\n    }\n\n    /**\n     * @notice Get movements of the assets\n     * @return result {TokenLibrary.Transfer[]} array of register transfers movements\n     */\n    function transfers() public view onlyReader() returns (TokenLibrary.Transfer[] memory) {\n        TokenLibrary.Transfer[] memory result = new TokenLibrary.Transfer[](_transfersCount);\n        for (uint32 i = 0; i < _transfersCount; i++) {\n            result[i] = _transfers[i];\n        }\n        return result;\n    }\n\n    /**\n     * @notice Transfer ownership of the smart contract\n     * @param account {address} address of the new owner\n     */\n    function transferOwnership(address account) public virtual override(Ownable, ISecurityTokenImmutable) onlyOwner {\n        emit TransferOwnership(OWNER, account);\n        OWNER = account;\n    }\n\n    /**\n     * @notice Mint and send `amount` tokens to `to`\n     *\n     * Returns a boolean value indicating whether the operation succeeded.\n     *\n     * Emits a {Transfer} event.\n     * @param to {address} wallet to send the token\n     * @param amount {uint256} amount to mint\n     * @return result {boolean} success or failure\n     */\n    function mint(address to, uint256 amount) external payable onlyProxy returns (bool) {\n        _mint(to, amount);\n        return true;\n    }\n\n    /**\n     * @notice Remove `amount` tokens from `account`\n     *\n     * Returns a boolean value indicating whether the operation succeeded.\n     *\n     * Emits a {Transfer} event.\n     * @param account {address} wallet to burn the token\n     * @param amount {uint256} amount to burn\n     */\n    function burn(address account, uint256 amount, uint256 refoundable)\n        external onlyProxy\n        returns (bool)\n    {\n        _burn(account, amount);\n\n        (bool sent, ) = account.call{value: refoundable}(\"\");\n        require(sent, \"Failed to send Ether\");\n        return true;\n    }\n\n    /**\n     * @dev Transfer and send `amount` tokens from `_msgSender()` to `to`\n     *\n     * Returns a boolean value indicating whether the operation succeeded.\n     *\n     * Emits a {Transfer} event.\n     * @param to {address} wallet to transfer the token\n     * @param amount {uint256[]} amount to transfer\n     */\n    function transfer(address to, uint256 amount) public virtual override(ERC20, ISecurityTokenImmutable) soulBound returns (bool) {\n        _transfer(_msgSender(), to, amount);\n        return true;\n    }\n\n    /**\n     * @dev Transfer and send `amount` tokens from `from` to `to`\n     *\n     * Returns a boolean value indicating whether the operation succeeded.\n     *\n     * Emits a {Transfer} event.\n     * @param from {address} wallet from transfer the token\n     * @param to {address} wallet to transfer the token\n     * @param amount {uint256[]} amount to transfer\n     */\n    function transferFrom(address from, address to, uint256 amount) public virtual override(ERC20, ISecurityTokenImmutable) onlyProxy returns (bool) {\n        _transfer(from, to, amount);\n        return true;\n    }\n\n    /**\n     * @notice Moves `amount` of tokens from `from` to `to`.\n     * @param from {address} the origin of the token transfer\n     * @param to {address} the recipient of the token transfer\n     * @param amount {uint256} the number of tokens transferred\n     */\n    function _transfer(\n        address from,\n        address to,\n        uint256 amount\n    ) internal override virtual {\n        super._transfer(from, to, amount);\n        _afterTokenTransfer(\"transfer\", from, to, amount);\n    }\n\n    /**\n     * @notice Creates `amount` tokens and assigns them to `account`, increasing\n     * the total supply.\n     * @param account {address} the recipient of the token transfer\n     * @param amount {uint256} the number of tokens destroyed\n     */\n    function _mint(address account, uint256 amount) internal virtual override {\n        super._mint(account, amount);\n        _afterTokenTransfer(\"mint\", address(0), account, amount);\n    }\n\n    /**\n     * @notice Destroys `amount` tokens from `account`, reducing the\n     * total supply.\n     * @param account {address} the origin of the token destroyed\n     * @param amount {uint256} the number of tokens destroyed\n     */\n    function _burn(address account, uint256 amount) internal virtual override {\n        super._burn(account, amount);\n        _afterTokenTransfer(\"burn\", account, address(0), amount);\n    }\n\n    /**\n     * @dev Returns the amount of tokens in existence.\n     */\n    function totalSupply() public view virtual override(ERC20, ISecurityTokenImmutable) returns (uint256) {\n        return super.totalSupply();\n    }\n\n    /**\n     * @dev Returns the amount of tokens in existence.\n     */\n    function balanceOf(address account) public view virtual override(ERC20, ISecurityTokenImmutable) returns (uint256) {\n        return super.balanceOf(account);\n    }\n\n    /**\n     *  @notice Pause transfer tokens of smart contract\n     *  @param _paused {uint256} represents date when transfer restart\n     */\n    function pause(uint256 _paused) external onlyAgent whenNotPaused {\n        require(rules.pausable == true, \"Pause is not allowed\");\n        paused = _paused;\n        emit Paused(_msgSender(), paused);\n    }\n\n    /**\n     *  @notice Unpause transfer tokens of smart contract\n     */\n    function unpause() external onlyAgent whenPaused {\n        require(rules.pausable == true, \"Pause is not allowed\");\n        paused = 0;\n        emit Paused(_msgSender(), paused);\n    }\n\n    /**\n     *  @notice Check if contract is paused or not\n     */\n    function isPaused() external view returns(uint256){\n        return paused;\n    }\n\n    /**\n     * @notice Withdraw tokens amount of contract balance\n     * @param amount {uint256} the number of tokens transferred\n     * @param receiver {address} the recipient of the token transfer\n     */\n    function withdraw(uint256 amount, address receiver) external onlyProxy returns(bool) {\n        (bool success, ) = payable(receiver).call{ value: amount}(\"\");\n        require(success, \"Withdraw not successful\");\n        return success;\n    }\n\n    /**\n     * @notice handle payment receive by everyone, everywhere, all at once\n     * @param senderAddress {address} address of sender\n     */\n    function handlePayment(address senderAddress) payable public returns(bool) {\n        emit HandlePaiement(_msgSender(), senderAddress, msg.value);\n        return true;\n    }\n\n    /**\n     * @notice Inject wei into smart contract\n     */\n    function injectCapital() external payable onlyOwner returns(bool) {\n        ///maybe todo reduce lastWithdraw ??\n        emit InjectCapital(_msgSender(), msg.value);\n        return true;\n    }\n\n    /**\n     * @notice Hook that is called after any transfer of tokens. This includes\n     * minting and burning.\n     * @param transferType {string} the type of transfer\n     * @param from {address} the origin of the token transfer\n     * @param to {address} the recipient of the token transfer\n     * @param amount {uint256} the number of tokens transferred\n     */\n    function _afterTokenTransfer(\n        string memory transferType,\n        address from,\n        address to,\n        uint256 amount\n    ) internal virtual whenNotPaused {\n        emit Transfer(transferType, from, to, amount);\n        _transfers[_transfersCount] = TokenLibrary.Transfer(\n            transferType,\n            from,\n            to,\n            amount,\n            _now()\n        );\n        _transfersCount++;\n    }\n}",
  "sourcePath": "/home/solid-solution/Bureau/HOMEWORK/Smart-Starter/smart-contract/contracts/immutable/SecurityTokenImmutable.sol",
  "compiler": {
    "name": "solc",
    "version": "0.8.11+commit.d7f03943.Emscripten.clang"
  },
  "schemaVersion": "3.4.10",
  "updatedAt": "2023-02-22T12:34:32.971Z",
  "devdoc": {
    "kind": "dev",
    "methods": {
      "allowance(address,address)": {
        "details": "See {IERC20-allowance}."
      },
      "approve(address,uint256)": {
        "details": "See {IERC20-approve}. NOTE: If `amount` is the maximum `uint256`, the allowance is not updated on `transferFrom`. This is semantically equivalent to an infinite approval. Requirements: - `spender` cannot be the zero address."
      },
      "balanceOf(address)": {
        "details": "Returns the amount of tokens in existence."
      },
      "burn(address,uint256,uint256)": {
        "params": {
          "account": "{address} wallet to burn the token",
          "amount": "{uint256} amount to burn"
        }
      },
      "decimals()": {
        "details": "Returns the number of decimals used to get its user representation. For example, if `decimals` equals `2`, a balance of `505` tokens should be displayed to a user as `5.05` (`505 / 10 ** 2`). Tokens usually opt for a value of 18, imitating the relationship between Ether and Wei. This is the value {ERC20} uses, unless this function is overridden; NOTE: This information is only used for _display_ purposes: it in no way affects any of the arithmetic of the contract, including {IERC20-balanceOf} and {IERC20-transfer}."
      },
      "decreaseAllowance(address,uint256)": {
        "details": "Atomically decreases the allowance granted to `spender` by the caller. This is an alternative to {approve} that can be used as a mitigation for problems described in {IERC20-approve}. Emits an {Approval} event indicating the updated allowance. Requirements: - `spender` cannot be the zero address. - `spender` must have allowance for the caller of at least `subtractedValue`."
      },
      "getAddressProxy()": {
        "returns": {
          "_0": "addressProxy {address} address of contract proxy"
        }
      },
      "getRules()": {
        "returns": {
          "_0": "rules {TokenLibrary.Rules} struct of rules setted on smart contract"
        }
      },
      "handlePayment(address)": {
        "params": {
          "senderAddress": "{address} address of sender"
        }
      },
      "increaseAllowance(address,uint256)": {
        "details": "Atomically increases the allowance granted to `spender` by the caller. This is an alternative to {approve} that can be used as a mitigation for problems described in {IERC20-approve}. Emits an {Approval} event indicating the updated allowance. Requirements: - `spender` cannot be the zero address."
      },
      "mint(address,uint256)": {
        "params": {
          "amount": "{uint256} amount to mint",
          "to": "{address} wallet to send the token"
        },
        "returns": {
          "_0": "result {boolean} success or failure"
        }
      },
      "name()": {
        "details": "Returns the name of the token."
      },
      "owner()": {
        "returns": {
          "_0": "owner {address} wallet addres from owner"
        }
      },
      "pause(uint256)": {
        "params": {
          "_paused": "{uint256} represents date when transfer restart"
        }
      },
      "renounceOwnership()": {
        "details": "Leaves the contract without owner. It will not be possible to call `onlyOwner` functions anymore. Can only be called by the current owner. NOTE: Renouncing ownership will leave the contract without an owner, thereby removing any functionality that is only available to the owner."
      },
      "setAddressProxy(address)": {
        "params": {
          "_addressProxy": "{address} address of contract proxy"
        }
      },
      "setFundraising(uint256,uint256,uint256)": {
        "params": {
          "endFundraising": "{uint256} end timestamp of the fundraising",
          "maxSupply": "{uint256} max supply tokens of contract",
          "startFundraising": "{uint256} start timestamp of the fundraising"
        }
      },
      "setRules((bool,bool,bool,bool,bool,bool,bool,uint256,uint256,uint256,uint256))": {
        "params": {
          "_rules": "{TokenLibrary.Rules} struct of rules"
        }
      },
      "symbol()": {
        "details": "Returns the symbol of the token, usually a shorter version of the name."
      },
      "totalSupply()": {
        "details": "Returns the amount of tokens in existence."
      },
      "transfer(address,uint256)": {
        "details": "Transfer and send `amount` tokens from `_msgSender()` to `to` Returns a boolean value indicating whether the operation succeeded. Emits a {Transfer} event.",
        "params": {
          "amount": "{uint256[]} amount to transfer",
          "to": "{address} wallet to transfer the token"
        }
      },
      "transferFrom(address,address,uint256)": {
        "details": "Transfer and send `amount` tokens from `from` to `to` Returns a boolean value indicating whether the operation succeeded. Emits a {Transfer} event.",
        "params": {
          "amount": "{uint256[]} amount to transfer",
          "from": "{address} wallet from transfer the token",
          "to": "{address} wallet to transfer the token"
        }
      },
      "transferOwnership(address)": {
        "params": {
          "account": "{address} address of the new owner"
        }
      },
      "transfers()": {
        "returns": {
          "_0": "result {TokenLibrary.Transfer[]} array of register transfers movements"
        }
      },
      "version()": {
        "returns": {
          "_0": "TOKEN_VERSION {string} version of the smart contract"
        }
      },
      "withdraw(uint256,address)": {
        "params": {
          "amount": "{uint256} the number of tokens transferred",
          "receiver": "{address} the recipient of the token transfer"
        }
      }
    },
    "version": 1
  },
  "userdoc": {
    "kind": "user",
    "methods": {
      "burn(address,uint256,uint256)": {
        "notice": "Remove `amount` tokens from `account` Returns a boolean value indicating whether the operation succeeded. Emits a {Transfer} event."
      },
      "getAddressProxy()": {
        "notice": "Get address of proxy contract"
      },
      "getRules()": {
        "notice": "Get parameters rules of contract"
      },
      "handlePayment(address)": {
        "notice": "handle payment receive by everyone, everywhere, all at once"
      },
      "injectCapital()": {
        "notice": "Inject wei into smart contract"
      },
      "isPaused()": {
        "notice": "Check if contract is paused or not"
      },
      "mint(address,uint256)": {
        "notice": "Mint and send `amount` tokens to `to` Returns a boolean value indicating whether the operation succeeded. Emits a {Transfer} event."
      },
      "owner()": {
        "notice": "Returns the address wallet of the smart contract owner."
      },
      "pause(uint256)": {
        "notice": "Pause transfer tokens of smart contract"
      },
      "setAddressProxy(address)": {
        "notice": "Set address of proxy contract to accept only proxy requests"
      },
      "setFundraising(uint256,uint256,uint256)": {
        "notice": "Set fundraising parameters to mint tokens in conditions"
      },
      "setRules((bool,bool,bool,bool,bool,bool,bool,uint256,uint256,uint256,uint256))": {
        "notice": "Set parameters rules of contract only if at start rules is setted modifiable"
      },
      "transferOwnership(address)": {
        "notice": "Transfer ownership of the smart contract"
      },
      "transfers()": {
        "notice": "Get movements of the assets"
      },
      "unpause()": {
        "notice": "Unpause transfer tokens of smart contract"
      },
      "version()": {
        "notice": "Returns the version of the token contract"
      },
      "withdraw(uint256,address)": {
        "notice": "Withdraw tokens amount of contract balance"
      }
    },
    "version": 1
  }
}