{
  "contractName": "SecurityTokenImmutable",
  "abi": [
    {
      "inputs": [
        {
          "internalType": "string",
          "name": "_name",
          "type": "string"
        },
        {
          "internalType": "string",
          "name": "_code",
          "type": "string"
        },
        {
          "components": [
            {
              "internalType": "bool",
              "name": "freezableAddress",
              "type": "bool"
            },
            {
              "internalType": "bool",
              "name": "freezablePartial",
              "type": "bool"
            },
            {
              "internalType": "bool",
              "name": "freezablePartialTime",
              "type": "bool"
            },
            {
              "internalType": "bool",
              "name": "pausable",
              "type": "bool"
            },
            {
              "internalType": "bool",
              "name": "forcableTransfer",
              "type": "bool"
            },
            {
              "internalType": "bool",
              "name": "rulesModifiable",
              "type": "bool"
            },
            {
              "internalType": "bool",
              "name": "soulBoundSecurityToken",
              "type": "bool"
            },
            {
              "internalType": "bool",
              "name": "voteToWithdraw",
              "type": "bool"
            },
            {
              "internalType": "uint256",
              "name": "dayToWithdraw",
              "type": "uint256"
            },
            {
              "internalType": "uint256",
              "name": "startFundraising",
              "type": "uint256"
            },
            {
              "internalType": "uint256",
              "name": "endFundraising",
              "type": "uint256"
            },
            {
              "internalType": "uint256",
              "name": "maxSupply",
              "type": "uint256"
            }
          ],
          "internalType": "struct TokenLibrary.Rules",
          "name": "_rules",
          "type": "tuple"
        }
      ],
      "stateMutability": "nonpayable",
      "type": "constructor"
    },
    {
      "inputs": [
        {
          "internalType": "address",
          "name": "sender",
          "type": "address"
        }
      ],
      "name": "NotAgent",
      "type": "error"
    },
    {
      "inputs": [
        {
          "internalType": "address",
          "name": "sender",
          "type": "address"
        }
      ],
      "name": "NotReader",
      "type": "error"
    },
    {
      "anonymous": false,
      "inputs": [
        {
          "indexed": true,
          "internalType": "address",
          "name": "_agent",
          "type": "address"
        }
      ],
      "name": "AgentAdded",
      "type": "event"
    },
    {
      "anonymous": false,
      "inputs": [
        {
          "indexed": true,
          "internalType": "address",
          "name": "_agent",
          "type": "address"
        }
      ],
      "name": "AgentRemoved",
      "type": "event"
    },
    {
      "anonymous": false,
      "inputs": [
        {
          "indexed": true,
          "internalType": "address",
          "name": "owner",
          "type": "address"
        },
        {
          "indexed": true,
          "internalType": "address",
          "name": "spender",
          "type": "address"
        },
        {
          "indexed": false,
          "internalType": "uint256",
          "name": "value",
          "type": "uint256"
        }
      ],
      "name": "Approval",
      "type": "event"
    },
    {
      "anonymous": false,
      "inputs": [
        {
          "indexed": false,
          "internalType": "address",
          "name": "operator",
          "type": "address"
        },
        {
          "indexed": false,
          "internalType": "address",
          "name": "sender",
          "type": "address"
        },
        {
          "indexed": false,
          "internalType": "uint256",
          "name": "value",
          "type": "uint256"
        }
      ],
      "name": "HandlePaiement",
      "type": "event"
    },
    {
      "anonymous": false,
      "inputs": [
        {
          "indexed": false,
          "internalType": "address",
          "name": "operator",
          "type": "address"
        },
        {
          "indexed": false,
          "internalType": "uint256",
          "name": "value",
          "type": "uint256"
        }
      ],
      "name": "InjectCapital",
      "type": "event"
    },
    {
      "anonymous": false,
      "inputs": [
        {
          "indexed": true,
          "internalType": "address",
          "name": "previousOwner",
          "type": "address"
        },
        {
          "indexed": true,
          "internalType": "address",
          "name": "newOwner",
          "type": "address"
        }
      ],
      "name": "OwnershipTransferred",
      "type": "event"
    },
    {
      "anonymous": false,
      "inputs": [
        {
          "indexed": true,
          "internalType": "address",
          "name": "sender",
          "type": "address"
        },
        {
          "indexed": true,
          "internalType": "uint256",
          "name": "paused",
          "type": "uint256"
        }
      ],
      "name": "Paused",
      "type": "event"
    },
    {
      "anonymous": false,
      "inputs": [
        {
          "indexed": true,
          "internalType": "address",
          "name": "_reader",
          "type": "address"
        }
      ],
      "name": "ReaderAdded",
      "type": "event"
    },
    {
      "anonymous": false,
      "inputs": [
        {
          "indexed": true,
          "internalType": "address",
          "name": "_reader",
          "type": "address"
        }
      ],
      "name": "ReaderRemoved",
      "type": "event"
    },
    {
      "anonymous": false,
      "inputs": [
        {
          "indexed": false,
          "internalType": "string",
          "name": "eventType",
          "type": "string"
        },
        {
          "indexed": true,
          "internalType": "address",
          "name": "from",
          "type": "address"
        },
        {
          "indexed": true,
          "internalType": "address",
          "name": "to",
          "type": "address"
        },
        {
          "indexed": false,
          "internalType": "uint256",
          "name": "value",
          "type": "uint256"
        }
      ],
      "name": "Transfer",
      "type": "event"
    },
    {
      "anonymous": false,
      "inputs": [
        {
          "indexed": true,
          "internalType": "address",
          "name": "from",
          "type": "address"
        },
        {
          "indexed": true,
          "internalType": "address",
          "name": "to",
          "type": "address"
        },
        {
          "indexed": false,
          "internalType": "uint256",
          "name": "value",
          "type": "uint256"
        }
      ],
      "name": "Transfer",
      "type": "event"
    },
    {
      "anonymous": false,
      "inputs": [
        {
          "indexed": true,
          "internalType": "address",
          "name": "oldAccount",
          "type": "address"
        },
        {
          "indexed": true,
          "internalType": "address",
          "name": "newAccount",
          "type": "address"
        }
      ],
      "name": "TransferOwnership",
      "type": "event"
    },
    {
      "inputs": [
        {
          "internalType": "address",
          "name": "_agent",
          "type": "address"
        }
      ],
      "name": "addAgent",
      "outputs": [],
      "stateMutability": "nonpayable",
      "type": "function"
    },
    {
      "inputs": [
        {
          "internalType": "address",
          "name": "_reader",
          "type": "address"
        }
      ],
      "name": "addReader",
      "outputs": [],
      "stateMutability": "nonpayable",
      "type": "function"
    },
    {
      "inputs": [
        {
          "internalType": "address",
          "name": "owner",
          "type": "address"
        },
        {
          "internalType": "address",
          "name": "spender",
          "type": "address"
        }
      ],
      "name": "allowance",
      "outputs": [
        {
          "internalType": "uint256",
          "name": "",
          "type": "uint256"
        }
      ],
      "stateMutability": "view",
      "type": "function"
    },
    {
      "inputs": [
        {
          "internalType": "address",
          "name": "spender",
          "type": "address"
        },
        {
          "internalType": "uint256",
          "name": "amount",
          "type": "uint256"
        }
      ],
      "name": "approve",
      "outputs": [
        {
          "internalType": "bool",
          "name": "",
          "type": "bool"
        }
      ],
      "stateMutability": "nonpayable",
      "type": "function"
    },
    {
      "inputs": [],
      "name": "decimals",
      "outputs": [
        {
          "internalType": "uint8",
          "name": "",
          "type": "uint8"
        }
      ],
      "stateMutability": "view",
      "type": "function"
    },
    {
      "inputs": [
        {
          "internalType": "address",
          "name": "spender",
          "type": "address"
        },
        {
          "internalType": "uint256",
          "name": "subtractedValue",
          "type": "uint256"
        }
      ],
      "name": "decreaseAllowance",
      "outputs": [
        {
          "internalType": "bool",
          "name": "",
          "type": "bool"
        }
      ],
      "stateMutability": "nonpayable",
      "type": "function"
    },
    {
      "inputs": [
        {
          "internalType": "address",
          "name": "spender",
          "type": "address"
        },
        {
          "internalType": "uint256",
          "name": "addedValue",
          "type": "uint256"
        }
      ],
      "name": "increaseAllowance",
      "outputs": [
        {
          "internalType": "bool",
          "name": "",
          "type": "bool"
        }
      ],
      "stateMutability": "nonpayable",
      "type": "function"
    },
    {
      "inputs": [
        {
          "internalType": "address",
          "name": "_agent",
          "type": "address"
        }
      ],
      "name": "isAgent",
      "outputs": [
        {
          "internalType": "bool",
          "name": "",
          "type": "bool"
        }
      ],
      "stateMutability": "view",
      "type": "function"
    },
    {
      "inputs": [
        {
          "internalType": "address",
          "name": "_reader",
          "type": "address"
        }
      ],
      "name": "isReader",
      "outputs": [
        {
          "internalType": "bool",
          "name": "",
          "type": "bool"
        }
      ],
      "stateMutability": "view",
      "type": "function"
    },
    {
      "inputs": [],
      "name": "name",
      "outputs": [
        {
          "internalType": "string",
          "name": "",
          "type": "string"
        }
      ],
      "stateMutability": "view",
      "type": "function"
    },
    {
      "inputs": [
        {
          "internalType": "address",
          "name": "_agent",
          "type": "address"
        }
      ],
      "name": "removeAgent",
      "outputs": [],
      "stateMutability": "nonpayable",
      "type": "function"
    },
    {
      "inputs": [
        {
          "internalType": "address",
          "name": "_reader",
          "type": "address"
        }
      ],
      "name": "removeReader",
      "outputs": [],
      "stateMutability": "nonpayable",
      "type": "function"
    },
    {
      "inputs": [],
      "name": "renounceOwnership",
      "outputs": [],
      "stateMutability": "nonpayable",
      "type": "function"
    },
    {
      "inputs": [],
      "name": "symbol",
      "outputs": [
        {
          "internalType": "string",
          "name": "",
          "type": "string"
        }
      ],
      "stateMutability": "view",
      "type": "function"
    },
    {
      "inputs": [],
      "name": "_now",
      "outputs": [
        {
          "internalType": "uint256",
          "name": "",
          "type": "uint256"
        }
      ],
      "stateMutability": "view",
      "type": "function"
    },
    {
      "inputs": [
        {
          "internalType": "address",
          "name": "_addressProxy",
          "type": "address"
        }
      ],
      "name": "setAddressProxy",
      "outputs": [],
      "stateMutability": "nonpayable",
      "type": "function"
    },
    {
      "inputs": [],
      "name": "getAddressProxy",
      "outputs": [
        {
          "internalType": "address",
          "name": "",
          "type": "address"
        }
      ],
      "stateMutability": "view",
      "type": "function"
    },
    {
      "inputs": [
        {
          "internalType": "uint256",
          "name": "startFundraising",
          "type": "uint256"
        },
        {
          "internalType": "uint256",
          "name": "endFundraising",
          "type": "uint256"
        },
        {
          "internalType": "uint256",
          "name": "maxSupply",
          "type": "uint256"
        }
      ],
      "name": "setFundraising",
      "outputs": [],
      "stateMutability": "nonpayable",
      "type": "function"
    },
    {
      "inputs": [
        {
          "components": [
            {
              "internalType": "bool",
              "name": "freezableAddress",
              "type": "bool"
            },
            {
              "internalType": "bool",
              "name": "freezablePartial",
              "type": "bool"
            },
            {
              "internalType": "bool",
              "name": "freezablePartialTime",
              "type": "bool"
            },
            {
              "internalType": "bool",
              "name": "pausable",
              "type": "bool"
            },
            {
              "internalType": "bool",
              "name": "forcableTransfer",
              "type": "bool"
            },
            {
              "internalType": "bool",
              "name": "rulesModifiable",
              "type": "bool"
            },
            {
              "internalType": "bool",
              "name": "soulBoundSecurityToken",
              "type": "bool"
            },
            {
              "internalType": "bool",
              "name": "voteToWithdraw",
              "type": "bool"
            },
            {
              "internalType": "uint256",
              "name": "dayToWithdraw",
              "type": "uint256"
            },
            {
              "internalType": "uint256",
              "name": "startFundraising",
              "type": "uint256"
            },
            {
              "internalType": "uint256",
              "name": "endFundraising",
              "type": "uint256"
            },
            {
              "internalType": "uint256",
              "name": "maxSupply",
              "type": "uint256"
            }
          ],
          "internalType": "struct TokenLibrary.Rules",
          "name": "_rules",
          "type": "tuple"
        }
      ],
      "name": "setRules",
      "outputs": [],
      "stateMutability": "nonpayable",
      "type": "function"
    },
    {
      "inputs": [],
      "name": "getRules",
      "outputs": [
        {
          "components": [
            {
              "internalType": "bool",
              "name": "freezableAddress",
              "type": "bool"
            },
            {
              "internalType": "bool",
              "name": "freezablePartial",
              "type": "bool"
            },
            {
              "internalType": "bool",
              "name": "freezablePartialTime",
              "type": "bool"
            },
            {
              "internalType": "bool",
              "name": "pausable",
              "type": "bool"
            },
            {
              "internalType": "bool",
              "name": "forcableTransfer",
              "type": "bool"
            },
            {
              "internalType": "bool",
              "name": "rulesModifiable",
              "type": "bool"
            },
            {
              "internalType": "bool",
              "name": "soulBoundSecurityToken",
              "type": "bool"
            },
            {
              "internalType": "bool",
              "name": "voteToWithdraw",
              "type": "bool"
            },
            {
              "internalType": "uint256",
              "name": "dayToWithdraw",
              "type": "uint256"
            },
            {
              "internalType": "uint256",
              "name": "startFundraising",
              "type": "uint256"
            },
            {
              "internalType": "uint256",
              "name": "endFundraising",
              "type": "uint256"
            },
            {
              "internalType": "uint256",
              "name": "maxSupply",
              "type": "uint256"
            }
          ],
          "internalType": "struct TokenLibrary.Rules",
          "name": "",
          "type": "tuple"
        }
      ],
      "stateMutability": "view",
      "type": "function"
    },
    {
      "inputs": [],
      "name": "version",
      "outputs": [
        {
          "internalType": "string",
          "name": "",
          "type": "string"
        }
      ],
      "stateMutability": "pure",
      "type": "function"
    },
    {
      "inputs": [],
      "name": "owner",
      "outputs": [
        {
          "internalType": "address",
          "name": "",
          "type": "address"
        }
      ],
      "stateMutability": "view",
      "type": "function"
    },
    {
      "inputs": [],
      "name": "transfers",
      "outputs": [
        {
          "components": [
            {
              "internalType": "string",
              "name": "transferType",
              "type": "string"
            },
            {
              "internalType": "address",
              "name": "from",
              "type": "address"
            },
            {
              "internalType": "address",
              "name": "to",
              "type": "address"
            },
            {
              "internalType": "uint256",
              "name": "amount",
              "type": "uint256"
            },
            {
              "internalType": "uint256",
              "name": "date",
              "type": "uint256"
            }
          ],
          "internalType": "struct TokenLibrary.Transfer[]",
          "name": "",
          "type": "tuple[]"
        }
      ],
      "stateMutability": "view",
      "type": "function"
    },
    {
      "inputs": [
        {
          "internalType": "address",
          "name": "account",
          "type": "address"
        }
      ],
      "name": "transferOwnership",
      "outputs": [],
      "stateMutability": "nonpayable",
      "type": "function"
    },
    {
      "inputs": [
        {
          "internalType": "address",
          "name": "to",
          "type": "address"
        },
        {
          "internalType": "uint256",
          "name": "amount",
          "type": "uint256"
        }
      ],
      "name": "mint",
      "outputs": [
        {
          "internalType": "bool",
          "name": "",
          "type": "bool"
        }
      ],
      "stateMutability": "payable",
      "type": "function"
    },
    {
      "inputs": [
        {
          "internalType": "address",
          "name": "account",
          "type": "address"
        },
        {
          "internalType": "uint256",
          "name": "amount",
          "type": "uint256"
        },
        {
          "internalType": "uint256",
          "name": "refoundable",
          "type": "uint256"
        }
      ],
      "name": "burn",
      "outputs": [
        {
          "internalType": "bool",
          "name": "",
          "type": "bool"
        }
      ],
      "stateMutability": "nonpayable",
      "type": "function"
    },
    {
      "inputs": [
        {
          "internalType": "address",
          "name": "to",
          "type": "address"
        },
        {
          "internalType": "uint256",
          "name": "amount",
          "type": "uint256"
        }
      ],
      "name": "transfer",
      "outputs": [
        {
          "internalType": "bool",
          "name": "",
          "type": "bool"
        }
      ],
      "stateMutability": "nonpayable",
      "type": "function"
    },
    {
      "inputs": [
        {
          "internalType": "address",
          "name": "from",
          "type": "address"
        },
        {
          "internalType": "address",
          "name": "to",
          "type": "address"
        },
        {
          "internalType": "uint256",
          "name": "amount",
          "type": "uint256"
        }
      ],
      "name": "transferFrom",
      "outputs": [
        {
          "internalType": "bool",
          "name": "",
          "type": "bool"
        }
      ],
      "stateMutability": "nonpayable",
      "type": "function"
    },
    {
      "inputs": [],
      "name": "totalSupply",
      "outputs": [
        {
          "internalType": "uint256",
          "name": "",
          "type": "uint256"
        }
      ],
      "stateMutability": "view",
      "type": "function"
    },
    {
      "inputs": [
        {
          "internalType": "address",
          "name": "account",
          "type": "address"
        }
      ],
      "name": "balanceOf",
      "outputs": [
        {
          "internalType": "uint256",
          "name": "",
          "type": "uint256"
        }
      ],
      "stateMutability": "view",
      "type": "function"
    },
    {
      "inputs": [
        {
          "internalType": "uint256",
          "name": "_paused",
          "type": "uint256"
        }
      ],
      "name": "pause",
      "outputs": [],
      "stateMutability": "nonpayable",
      "type": "function"
    },
    {
      "inputs": [],
      "name": "unpause",
      "outputs": [],
      "stateMutability": "nonpayable",
      "type": "function"
    },
    {
      "inputs": [],
      "name": "isPaused",
      "outputs": [
        {
          "internalType": "uint256",
          "name": "",
          "type": "uint256"
        }
      ],
      "stateMutability": "view",
      "type": "function"
    },
    {
      "inputs": [
        {
          "internalType": "uint256",
          "name": "amount",
          "type": "uint256"
        },
        {
          "internalType": "address",
          "name": "receiver",
          "type": "address"
        }
      ],
      "name": "withdraw",
      "outputs": [
        {
          "internalType": "bool",
          "name": "",
          "type": "bool"
        }
      ],
      "stateMutability": "nonpayable",
      "type": "function"
    },
    {
      "inputs": [
        {
          "internalType": "address",
          "name": "senderAddress",
          "type": "address"
        }
      ],
      "name": "handlePayment",
      "outputs": [
        {
          "internalType": "bool",
          "name": "",
          "type": "bool"
        }
      ],
      "stateMutability": "payable",
      "type": "function"
    },
    {
      "inputs": [],
      "name": "injectCapital",
      "outputs": [
        {
          "internalType": "bool",
          "name": "",
          "type": "bool"
        }
      ],
      "stateMutability": "payable",
      "type": "function"
    }
  ],
  "bytecode": "0x60806040523480156200001157600080fd5b5060405162002a4d38038062002a4d8339810160408190526200003491620003b9565b8251839083906200004d906003906020850190620001f3565b50805162000063906004906020840190620001f3565b505050620000806200007a6200019d60201b60201c565b620001a1565b33600980546001600160a01b0319166001600160a01b03929092169190911790558051600c8054602084015160408501516060860151608087015160a088015160c089015160e08a015161ffff1990971698151561ff0019169890981761010095151586021763ffff00001916620100009415159490940263ff0000001916939093176301000000921515929092029190911761ffff60201b19166401000000009115159190910260ff60281b19161765010000000000911515919091021761ffff60301b191666010000000000009415159490940260ff60381b19169390931767010000000000000091151591909102179055810151600d55610120810151600e55610140810151600f55610160015160105550620005509050565b3390565b600580546001600160a01b038381166001600160a01b0319831681179093556040519116919082907f8be0079c531659141344cd1fd0a4f28419497f9722a3daafe3b4186f6b6457e090600090a35050565b828054620002019062000513565b90600052602060002090601f01602090048101928262000225576000855562000270565b82601f106200024057805160ff191683800117855562000270565b8280016001018555821562000270579182015b828111156200027057825182559160200191906001019062000253565b506200027e92915062000282565b5090565b5b808211156200027e576000815560010162000283565b634e487b7160e01b600052604160045260246000fd5b60405161018081016001600160401b0381118282101715620002d557620002d562000299565b60405290565b604051601f8201601f191681016001600160401b038111828210171562000306576200030662000299565b604052919050565b600082601f8301126200032057600080fd5b81516001600160401b038111156200033c576200033c62000299565b602062000352601f8301601f19168201620002db565b82815285828487010111156200036757600080fd5b60005b83811015620003875785810183015182820184015282016200036a565b83811115620003995760008385840101525b5095945050505050565b80518015158114620003b457600080fd5b919050565b60008060008385036101c0811215620003d157600080fd5b84516001600160401b0380821115620003e957600080fd5b620003f7888389016200030e565b955060208701519150808211156200040e57600080fd5b506200041d878288016200030e565b93505061018080603f19830112156200043557600080fd5b6200043f620002af565b91506200044f60408701620003a3565b82526200045f60608701620003a3565b60208301526200047260808701620003a3565b60408301526200048560a08701620003a3565b60608301526200049860c08701620003a3565b6080830152620004ab60e08701620003a3565b60a0830152610100620004c0818801620003a3565b60c0840152610120620004d5818901620003a3565b60e0850152610140808901518386015261016092508289015182860152838901518186015250506101a0870151818401525050809150509250925092565b600181811c908216806200052857607f821691505b602082108114156200054a57634e487b7160e01b600052602260045260246000fd5b50919050565b6124ed80620005606000396000f3fe60806040526004361061020e5760003560e01c8063715018a611610118578063afd8b1d1116100a0578063dd62ed3e1161006f578063dd62ed3e146105da578063f2fde38b146105fa578063f3c7b6a71461061a578063f5298aca14610622578063ff18889c1461064257600080fd5b8063afd8b1d114610574578063b187bd2614610594578063b3bb8cd4146105a9578063cd0aa36d146105bc57600080fd5b806395d89b41116100e757806395d89b41146104dd57806397a6278e146104f2578063a457c2d714610512578063a9059cbb14610532578063ab5e28c51461055257600080fd5b8063715018a61461045657806384e798421461046b57806386590add1461048b5780638da5cb5b146104ab57600080fd5b806338d65d111161019b57806341bb26d31161016a57806341bb26d3146103b357806345e2984a146103c657806354fd4d50146103e857806369a7ddf71461041657806370a082311461043657600080fd5b806338d65d111461034b578063395093511461036b5780633f4ba83a1461038b57806340c10f19146103a057600080fd5b806318160ddd116101e257806318160ddd146102ac5780631ffbb064146102cf57806323b872dd146102ef5780632a87e1d21461030f578063313ce5671461032f57600080fd5b8062f714ce1461021357806306fdde0314610248578063095ea7b31461026a578063136439dd1461028a575b600080fd5b34801561021f57600080fd5b5061023361022e366004611f3c565b610662565b60405190151581526020015b60405180910390f35b34801561025457600080fd5b5061025d61074b565b60405161023f9190611fb9565b34801561027657600080fd5b50610233610285366004611fcc565b6107dd565b34801561029657600080fd5b506102aa6102a5366004611ff8565b6107f5565b005b3480156102b857600080fd5b506102c1610910565b60405190815260200161023f565b3480156102db57600080fd5b506102336102ea366004612011565b610920565b3480156102fb57600080fd5b5061023361030a36600461202e565b610933565b34801561031b57600080fd5b506102aa61032a36600461206f565b610974565b34801561033b57600080fd5b506040516012815260200161023f565b34801561035757600080fd5b506102aa610366366004612011565b61098a565b34801561037757600080fd5b50610233610386366004611fcc565b6109d4565b34801561039757600080fd5b506102aa6109f6565b6102336103ae366004611fcc565b610af3565b6102336103c1366004612011565b610b3c565b3480156103d257600080fd5b506103db610b8f565b60405161023f919061209b565b3480156103f457600080fd5b50604080518082019091526005815264302e302e3160d81b602082015261025d565b34801561042257600080fd5b50610233610431366004612011565b610d24565b34801561044257600080fd5b506102c1610451366004612011565b610d31565b34801561046257600080fd5b506102aa610d4f565b34801561047757600080fd5b506102aa610486366004612011565b610d63565b34801561049757600080fd5b506102aa6104a63660046121c8565b610dad565b3480156104b757600080fd5b506009546001600160a01b03165b6040516001600160a01b03909116815260200161023f565b3480156104e957600080fd5b5061025d610f0d565b3480156104fe57600080fd5b506102aa61050d366004612011565b610f1c565b34801561051e57600080fd5b5061023361052d366004611fcc565b610f66565b34801561053e57600080fd5b5061023361054d366004611fcc565b610fec565b34801561055e57600080fd5b50610567611049565b60405161023f919061229a565b34801561058057600080fd5b506102aa61058f366004612011565b611271565b3480156105a057600080fd5b50600b546102c1565b3480156105b557600080fd5b50426102c1565b3480156105c857600080fd5b506008546001600160a01b03166104c5565b3480156105e657600080fd5b506102c16105f536600461233b565b6112bb565b34801561060657600080fd5b506102aa610615366004612011565b6112e6565b61023361134a565b34801561062e57600080fd5b5061023361063d366004612369565b61139c565b34801561064e57600080fd5b506102aa61065d366004612011565b611476565b6008546000906001600160a01b0316336001600160a01b0316146106a15760405162461bcd60e51b81526004016106989061239e565b60405180910390fd5b6000826001600160a01b03168460405160006040518083038185875af1925050503d80600081146106ee576040519150601f19603f3d011682016040523d82523d6000602084013e6106f3565b606091505b50509050806107445760405162461bcd60e51b815260206004820152601760248201527f5769746864726177206e6f74207375636365737366756c0000000000000000006044820152606401610698565b9392505050565b60606003805461075a906123d5565b80601f0160208091040260200160405190810160405280929190818152602001828054610786906123d5565b80156107d35780601f106107a8576101008083540402835291602001916107d3565b820191906000526020600020905b8154815290600101906020018083116107b657829003601f168201915b5050505050905090565b6000336107eb818585611565565b5060019392505050565b6107fe33610920565b15801561081657506009546001600160a01b03163314155b1561084257335b6040516352f49c9560e01b81526001600160a01b039091166004820152602401610698565b600b5442116108865760405162461bcd60e51b815260206004820152601060248201526f14185d5cd8589b194e881c185d5cd95960821b6044820152606401610698565b600c546301000000900460ff1615156001146108db5760405162461bcd60e51b815260206004820152601460248201527314185d5cd9481a5cc81b9bdd08185b1b1bddd95960621b6044820152606401610698565b600b819055604051819033907fab40a374bc51de372200a8bc981af8c9ecdc08dfdaef0bb6e09f88f3c616ef3d90600090a350565b600061091b60025490565b905090565b600061092d600683611689565b92915050565b6008546000906001600160a01b0316336001600160a01b0316146109695760405162461bcd60e51b81526004016106989061239e565b6107eb84848461170c565b61097c611748565b600e92909255600f55601055565b610992611748565b61099d6007826117a2565b6040516001600160a01b038216907fe933431644458f1217f9e93d3e000e03c9bbbe55761046d0985c2e4d157bcbaa90600090a250565b6000336107eb8185856109e783836112bb565b6109f19190612426565b611565565b6109ff33610920565b158015610a1757506009546001600160a01b03163314155b15610a22573361081d565b600b54421115610a6b5760405162461bcd60e51b815260206004820152601460248201527314185d5cd8589b194e881b9bdd081c185d5cd95960621b6044820152606401610698565b600c546301000000900460ff161515600114610ac05760405162461bcd60e51b815260206004820152601460248201527314185d5cd9481a5cc81b9bdd08185b1b1bddd95960621b6044820152606401610698565b6000600b81905560405133907fab40a374bc51de372200a8bc981af8c9ecdc08dfdaef0bb6e09f88f3c616ef3d908390a3565b6008546000906001600160a01b0316336001600160a01b031614610b295760405162461bcd60e51b81526004016106989061239e565b610b338383611824565b50600192915050565b604080513381526001600160a01b0383166020820152348183015290516000917f224f3111e0124d402f6469ecc4f4fb8cec5013a2ccaac80d1e9434525eceef3f919081900360600190a1506001919050565b6040805161018081018252600080825260208201819052918101829052606081018290526080810182905260a0810182905260c0810182905260e081018290526101008101829052610120810182905261014081018290526101608101919091526008546001600160a01b0316336001600160a01b03161480610c2557506009546001600160a01b0316336001600160a01b0316145b610c715760405162461bcd60e51b815260206004820152601c60248201527f43616c6c6572206973206e6f74206f776e6572206f722070726f7879000000006044820152606401610698565b506040805161018081018252600c5460ff8082161515835261010080830482161515602085015262010000830482161515948401949094526301000000820481161515606084015264010000000082048116151560808401526501000000000082048116151560a0840152600160301b82048116151560c0840152600160381b90910416151560e0820152600d5491810191909152600e54610120820152600f5461014082015260105461016082015290565b600061092d600783611689565b6001600160a01b03811660009081526020819052604081205461092d565b610d57611748565b610d61600061185b565b565b610d6b611748565b610d766006826118ad565b6040516001600160a01b038216907ff68e73cec97f2d70aa641fb26e87a4383686e2efacb648f2165aeb02ac562ec590600090a250565b610db5611748565b600c5465010000000000900460ff161515600114610e155760405162461bcd60e51b815260206004820152601760248201527f52756c6573206973206e6f74206d6f6469666961626c650000000000000000006044820152606401610698565b8051600c8054602084015160408501516060860151608087015160a088015160c089015160e08a015161ffff1990971698151561ff0019169890981761010095151586021763ffff00001916620100009415159490940263ff0000001916939093176301000000921515929092029190911765ffff0000000019166401000000009115159190910265ff000000000019161765010000000000911515919091021767ffff0000000000001916600160301b9415159490940267ff00000000000000191693909317600160381b91151591909102179055810151600d55610120810151600e55610140810151600f556101600151601055565b60606004805461075a906123d5565b610f24611748565b610f2f6006826117a2565b6040516001600160a01b038216907fed9c8ad8d5a0a66898ea49d2956929c93ae2e8bd50281b2ed897c5d1a6737e0b90600090a250565b60003381610f7482866112bb565b905083811015610fd45760405162461bcd60e51b815260206004820152602560248201527f45524332303a2064656372656173656420616c6c6f77616e63652062656c6f77604482015264207a65726f60d81b6064820152608401610698565b610fe18286868403611565565b506001949350505050565b600c54600090600160301b900460ff161561103e5760405162461bcd60e51b8152602060048201526012602482015271151bdad95b881a5cc81cdbdd5b189bdd5b9960721b6044820152606401610698565b610b3333848461170c565b606061105433610d24565b15801561106c57506009546001600160a01b03163314155b1561108c576040516325bfed0960e11b8152336004820152602401610698565b600954600090600160a01b900463ffffffff1667ffffffffffffffff8111156110b7576110b7612165565b60405190808252806020026020018201604052801561112c57816020015b6111196040518060a001604052806060815260200160006001600160a01b0316815260200160006001600160a01b0316815260200160008152602001600081525090565b8152602001906001900390816110d55790505b50905060005b60095463ffffffff600160a01b9091048116908216101561126b5763ffffffff81166000908152600a602052604090819020815160a0810190925280548290829061117c906123d5565b80601f01602080910402602001604051908101604052809291908181526020018280546111a8906123d5565b80156111f55780601f106111ca576101008083540402835291602001916111f5565b820191906000526020600020905b8154815290600101906020018083116111d857829003601f168201915b505050918352505060018201546001600160a01b0390811660208301526002830154166040820152600382015460608201526004909101546080909101528251839063ffffffff841690811061124d5761124d61243e565b6020026020010181905250808061126390612454565b915050611132565b50905090565b611279611748565b6112846007826118ad565b6040516001600160a01b038216907fb7724d890d2888af5a3fc456edb667e2c82c4441449ebcac301c618759e4f86d90600090a250565b6001600160a01b03918216600090815260016020908152604080832093909416825291909152205490565b6112ee611748565b6009546040516001600160a01b038084169216907f5c486528ec3e3f0ea91181cff8116f02bfa350e03b8b6f12e00765adbb5af85c90600090a3600980546001600160a01b0319166001600160a01b0392909216919091179055565b6000611354611748565b7f5fd7e473e4c9f40f9aee4bcca944d0a219b4139712b081b8c95edfd2e9bd438733604080516001600160a01b0390921682523460208301520160405180910390a150600190565b6008546000906001600160a01b0316336001600160a01b0316146113d25760405162461bcd60e51b81526004016106989061239e565b6113dc8484611929565b6000846001600160a01b03168360405160006040518083038185875af1925050503d8060008114611429576040519150601f19603f3d011682016040523d82523d6000602084013e61142e565b606091505b5050905080610fe15760405162461bcd60e51b81526020600482015260146024820152732330b4b632b2103a379039b2b7321022ba3432b960611b6044820152606401610698565b6009546001600160a01b03166001600160a01b0316816001600160a01b0316638da5cb5b6040518163ffffffff1660e01b8152600401602060405180830381865afa1580156114c9573d6000803e3d6000fd5b505050506040513d601f19601f820116820180604052508101906114ed9190612478565b6001600160a01b0316146115435760405162461bcd60e51b815260206004820152601860248201527f496e76616c696420636f6e74726163742026204f776e657200000000000000006044820152606401610698565b600880546001600160a01b0319166001600160a01b0392909216919091179055565b6001600160a01b0383166115c75760405162461bcd60e51b8152602060048201526024808201527f45524332303a20617070726f76652066726f6d20746865207a65726f206164646044820152637265737360e01b6064820152608401610698565b6001600160a01b0382166116285760405162461bcd60e51b815260206004820152602260248201527f45524332303a20617070726f766520746f20746865207a65726f206164647265604482015261737360f01b6064820152608401610698565b6001600160a01b0383811660008181526001602090815260408083209487168084529482529182902085905590518481527f8c5be1e5ebec7d5bd14f71427d1e84f3dd0314c0f7b2291e5b200ac8c7c3b925910160405180910390a3505050565b60006001600160a01b0382166116ec5760405162461bcd60e51b815260206004820152602260248201527f526f6c65733a206163636f756e7420697320746865207a65726f206164647265604482015261737360f01b6064820152608401610698565b506001600160a01b03166000908152602091909152604090205460ff1690565b61171783838361195c565b611743604051806040016040528060088152602001673a3930b739b332b960c11b815250848484611b01565b505050565b6009546001600160a01b03163314610d615760405162461bcd60e51b815260206004820181905260248201527f4f776e61626c653a2063616c6c6572206973206e6f7420746865206f776e65726044820152606401610698565b6117ac8282611689565b6118025760405162461bcd60e51b815260206004820152602160248201527f526f6c65733a206163636f756e7420646f6573206e6f74206861766520726f6c6044820152606560f81b6064820152608401610698565b6001600160a01b0316600090815260209190915260409020805460ff19169055565b61182e8282611c9a565b611857604051806040016040528060048152602001631b5a5b9d60e21b81525060008484611b01565b5050565b600580546001600160a01b038381166001600160a01b0319831681179093556040519116919082907f8be0079c531659141344cd1fd0a4f28419497f9722a3daafe3b4186f6b6457e090600090a35050565b6118b78282611689565b156119045760405162461bcd60e51b815260206004820152601f60248201527f526f6c65733a206163636f756e7420616c72656164792068617320726f6c65006044820152606401610698565b6001600160a01b0316600090815260209190915260409020805460ff19166001179055565b6119338282611d59565b61185760405180604001604052806004815260200163313ab93760e11b81525083600084611b01565b6001600160a01b0383166119c05760405162461bcd60e51b815260206004820152602560248201527f45524332303a207472616e736665722066726f6d20746865207a65726f206164604482015264647265737360d81b6064820152608401610698565b6001600160a01b038216611a225760405162461bcd60e51b815260206004820152602360248201527f45524332303a207472616e7366657220746f20746865207a65726f206164647260448201526265737360e81b6064820152608401610698565b6001600160a01b03831660009081526020819052604090205481811015611a9a5760405162461bcd60e51b815260206004820152602660248201527f45524332303a207472616e7366657220616d6f756e7420657863656564732062604482015265616c616e636560d01b6064820152608401610698565b6001600160a01b03848116600081815260208181526040808320878703905593871680835291849020805487019055925185815290927fddf252ad1be2c89b69c2b068fc378daa952ba7f163c4a11628f55a4df523b3ef910160405180910390a350505050565b600b544211611b455760405162461bcd60e51b815260206004820152601060248201526f14185d5cd8589b194e881c185d5cd95960821b6044820152606401610698565b816001600160a01b0316836001600160a01b03167f54c25aa230f7ee0c1e146d3416a3a4972d9fa34640b86e84383b461a585593de8684604051611b8a929190612495565b60405180910390a36040518060a00160405280858152602001846001600160a01b03168152602001836001600160a01b03168152602001828152602001611bce4290565b9052600954600160a01b900463ffffffff166000908152600a60209081526040909120825180519192611c0692849290910190611e8b565b5060208201516001820180546001600160a01b039283166001600160a01b0319918216179091556040840151600284018054919093169116179055606082015160038201556080909101516004909101556009805463ffffffff600160a01b90910416906014611c7583612454565b91906101000a81548163ffffffff021916908363ffffffff1602179055505050505050565b6001600160a01b038216611cf05760405162461bcd60e51b815260206004820152601f60248201527f45524332303a206d696e7420746f20746865207a65726f2061646472657373006044820152606401610698565b8060026000828254611d029190612426565b90915550506001600160a01b038216600081815260208181526040808320805486019055518481527fddf252ad1be2c89b69c2b068fc378daa952ba7f163c4a11628f55a4df523b3ef910160405180910390a35050565b6001600160a01b038216611db95760405162461bcd60e51b815260206004820152602160248201527f45524332303a206275726e2066726f6d20746865207a65726f206164647265736044820152607360f81b6064820152608401610698565b6001600160a01b03821660009081526020819052604090205481811015611e2d5760405162461bcd60e51b815260206004820152602260248201527f45524332303a206275726e20616d6f756e7420657863656564732062616c616e604482015261636560f01b6064820152608401610698565b6001600160a01b0383166000818152602081815260408083208686039055600280548790039055518581529192917fddf252ad1be2c89b69c2b068fc378daa952ba7f163c4a11628f55a4df523b3ef910160405180910390a3505050565b828054611e97906123d5565b90600052602060002090601f016020900481019282611eb95760008555611eff565b82601f10611ed257805160ff1916838001178555611eff565b82800160010185558215611eff579182015b82811115611eff578251825591602001919060010190611ee4565b50611f0b929150611f0f565b5090565b5b80821115611f0b5760008155600101611f10565b6001600160a01b0381168114611f3957600080fd5b50565b60008060408385031215611f4f57600080fd5b823591506020830135611f6181611f24565b809150509250929050565b6000815180845260005b81811015611f9257602081850181015186830182015201611f76565b81811115611fa4576000602083870101525b50601f01601f19169290920160200192915050565b6020815260006107446020830184611f6c565b60008060408385031215611fdf57600080fd5b8235611fea81611f24565b946020939093013593505050565b60006020828403121561200a57600080fd5b5035919050565b60006020828403121561202357600080fd5b813561074481611f24565b60008060006060848603121561204357600080fd5b833561204e81611f24565b9250602084013561205e81611f24565b929592945050506040919091013590565b60008060006060848603121561208457600080fd5b505081359360208301359350604090920135919050565b815115158152610180810160208301516120b9602084018215159052565b5060408301516120cd604084018215159052565b5060608301516120e1606084018215159052565b5060808301516120f5608084018215159052565b5060a083015161210960a084018215159052565b5060c083015161211d60c084018215159052565b5060e083015161213160e084018215159052565b5061010083810151908301526101208084015190830152610140808401519083015261016092830151929091019190915290565b634e487b7160e01b600052604160045260246000fd5b604051610180810167ffffffffffffffff811182821017156121ad57634e487b7160e01b600052604160045260246000fd5b60405290565b803580151581146121c357600080fd5b919050565b600061018082840312156121db57600080fd5b6121e361217b565b6121ec836121b3565b81526121fa602084016121b3565b602082015261220b604084016121b3565b604082015261221c606084016121b3565b606082015261222d608084016121b3565b608082015261223e60a084016121b3565b60a082015261224f60c084016121b3565b60c082015261226060e084016121b3565b60e0820152610100838101359082015261012080840135908201526101408084013590820152610160928301359281019290925250919050565b60006020808301818452808551808352604092508286019150828160051b87010184880160005b8381101561232d57603f19898403018552815160a081518186526122e782870182611f6c565b838b01516001600160a01b03908116888d01528a850151168a880152606080850151908801526080938401519390960192909252505093860193908601906001016122c1565b509098975050505050505050565b6000806040838503121561234e57600080fd5b823561235981611f24565b91506020830135611f6181611f24565b60008060006060848603121561237e57600080fd5b833561238981611f24565b95602085013595506040909401359392505050565b6020808252601c908201527f4e6f742063616c6c65642062792070726f787920636f6e747261637400000000604082015260600190565b600181811c908216806123e957607f821691505b6020821081141561240a57634e487b7160e01b600052602260045260246000fd5b50919050565b634e487b7160e01b600052601160045260246000fd5b6000821982111561243957612439612410565b500190565b634e487b7160e01b600052603260045260246000fd5b600063ffffffff8083168181141561246e5761246e612410565b6001019392505050565b60006020828403121561248a57600080fd5b815161074481611f24565b6040815260006124a86040830185611f6c565b9050826020830152939250505056fea26469706673582212201aefe9029ef24b41337977defaf5ceb75776c154d4005bef6d11bd6eff2003fc64736f6c634300080b0033",
  "immutableReferences": {},
  "source": "// SPDX-License-Identifier: MIT\n\npragma solidity ^0.8.0;\n\n\nimport \"../library/TokenLibrary.sol\";\nimport \"../interfaces/IProxySecurityToken.sol\";\nimport \"../interfaces/ISecurityTokenImmutable.sol\";\nimport \"../roles/AgentRole.sol\";\nimport \"../roles/ReaderRole.sol\";\nimport \"@openzeppelin/contracts/access/Ownable.sol\";\nimport \"@openzeppelin/contracts/token/ERC20/ERC20.sol\";\nimport \"@openzeppelin/contracts/utils/math/SafeMath.sol\";\n\ncontract SecurityTokenImmutable is ERC20, AgentRole, ReaderRole, ISecurityTokenImmutable {\n    using SafeMath for uint;\n\n    address internal addressProxy;\n    address internal OWNER;\n    uint32 internal _transfersCount;\n    mapping(uint256 => TokenLibrary.Transfer) internal _transfers;\n    uint256 internal paused;\n    string internal constant TOKEN_VERSION = \"0.0.1\";\n    TokenLibrary.Rules internal rules;\n\n    event TransferOwnership(address indexed oldAccount, address indexed newAccount);\n    event Paused(address indexed sender, uint256 indexed paused);\n    event Transfer(string eventType, address indexed from, address indexed to, uint256 value);\n    event HandlePaiement(address operator, address sender, uint256 value);\n    event InjectCapital(address operator, uint256 value);\n\n    function _now() public view returns (uint256) {\n        return block.timestamp;\n    }\n\n    /**\n     */\n    constructor(\n        string memory _name,\n        string memory _code,\n        TokenLibrary.Rules memory _rules\n    ) ERC20(_name, _code) {\n        OWNER = _msgSender();\n        rules = _rules;\n    }\n\n    /// @dev Modifier to make a function callable only when the contract is not paused.\n    modifier whenNotPaused() {\n        require(_now() > paused, \"Pausable: paused\");\n        _;\n    }\n\n    /// @dev Modifier to make a function callable only when the contract is paused.\n    modifier whenPaused() {\n        require(_now() <= paused, \"Pausable: not paused\");\n        _;\n    }\n\n    /// @dev Modifier to make a function callable only when the contract is paused.\n    modifier onlyProxy() {\n        require(_msgSender() == addressProxy, \"Not called by proxy contract\");\n        _;\n    }\n\n    modifier soulBound() {\n        require(rules.soulBoundSecurityToken == false, \"Token is soulbound\");\n        _;\n    }\n\n    /**\n     * @notice Set address of proxy contract to accept only proxy requests\n     * @param _addressProxy {address} address of contract proxy\n     */\n    function setAddressProxy(address _addressProxy) external {\n        require(IProxySecurityToken(_addressProxy).owner() == owner(),\"Invalid contract & Owner\");\n        addressProxy = _addressProxy;\n    }\n\n    /**\n     * @notice Get address of proxy contract\n     * @return addressProxy {address} address of contract proxy\n     */\n    function getAddressProxy() external view returns(address){\n        return addressProxy;\n    }\n\n    /**\n     * @notice Set fundraising parameters to mint tokens in conditions\n     * @param startFundraising {uint256} start timestamp of the fundraising\n     * @param endFundraising {uint256} end timestamp of the fundraising\n     * @param maxSupply {uint256} max supply tokens of contract\n     */\n    function setFundraising(\n        uint256 startFundraising,\n        uint256 endFundraising,\n        uint256 maxSupply\n    ) external onlyOwner {\n        rules.startFundraising = startFundraising;\n        rules.endFundraising = endFundraising;\n        rules.maxSupply = maxSupply;\n    }\n\n    /**\n     * @notice Set parameters rules of contract only if at start rules is setted modifiable\n     * @param _rules {TokenLibrary.Rules} struct of rules\n     */\n    function setRules(TokenLibrary.Rules memory _rules) external onlyOwner {\n        require(rules.rulesModifiable == true, \"Rules is not modifiable\");\n        rules = _rules;\n\n    }\n\n    /**\n     * @notice Get parameters rules of contract\n     * @return rules {TokenLibrary.Rules} struct of rules setted on smart contract\n     */\n    function getRules() external view returns(TokenLibrary.Rules memory) {\n        require(_msgSender() == addressProxy || _msgSender() == OWNER, \"Caller is not owner or proxy\");\n        return rules;\n    }\n\n    /**\n     * @notice Returns the version of the token contract\n     * @return TOKEN_VERSION {string} version of the smart contract\n     */\n    function version() external pure returns (string memory) {\n        return TOKEN_VERSION;\n    }\n\n    /**\n     * @notice Returns the address wallet of the smart contract owner.\n     * @return owner {address} wallet addres from owner\n     */\n    function owner() public view override(Ownable, ISecurityTokenImmutable) returns (address) {\n        return OWNER;\n    }\n\n    /**\n     * @notice Get movements of the assets\n     * @return result {TokenLibrary.Transfer[]} array of register transfers movements\n     */\n    function transfers() public view onlyReader() returns (TokenLibrary.Transfer[] memory) {\n        TokenLibrary.Transfer[] memory result = new TokenLibrary.Transfer[](_transfersCount);\n        for (uint32 i = 0; i < _transfersCount; i++) {\n            result[i] = _transfers[i];\n        }\n        return result;\n    }\n\n    /**\n     * @notice Transfer ownership of the smart contract\n     * @param account {address} address of the new owner\n     */\n    function transferOwnership(address account) public virtual override(Ownable, ISecurityTokenImmutable) onlyOwner {\n        emit TransferOwnership(OWNER, account);\n        OWNER = account;\n    }\n\n    /**\n     * @notice Mint and send `amount` tokens to `to`\n     *\n     * Returns a boolean value indicating whether the operation succeeded.\n     *\n     * Emits a {Transfer} event.\n     * @param to {address} wallet to send the token\n     * @param amount {uint256} amount to mint\n     * @return result {boolean} success or failure\n     */\n    function mint(address to, uint256 amount) external payable onlyProxy returns (bool) {\n        _mint(to, amount);\n        return true;\n    }\n\n    /**\n     * @notice Remove `amount` tokens from `account`\n     *\n     * Returns a boolean value indicating whether the operation succeeded.\n     *\n     * Emits a {Transfer} event.\n     * @param account {address} wallet to burn the token\n     * @param amount {uint256} amount to burn\n     */\n    function burn(address account, uint256 amount, uint256 refoundable)\n        external onlyProxy\n        returns (bool)\n    {\n        _burn(account, amount);\n\n        (bool sent, ) = account.call{value: refoundable}(\"\");\n        require(sent, \"Failed to send Ether\");\n        return true;\n    }\n\n    /**\n     * @dev Transfer and send `amount` tokens from `_msgSender()` to `to`\n     *\n     * Returns a boolean value indicating whether the operation succeeded.\n     *\n     * Emits a {Transfer} event.\n     * @param to {address} wallet to transfer the token\n     * @param amount {uint256[]} amount to transfer\n     */\n    function transfer(address to, uint256 amount) public virtual override(ERC20, ISecurityTokenImmutable) soulBound returns (bool) {\n        _transfer(_msgSender(), to, amount);\n        return true;\n    }\n\n    /**\n     * @dev Transfer and send `amount` tokens from `from` to `to`\n     *\n     * Returns a boolean value indicating whether the operation succeeded.\n     *\n     * Emits a {Transfer} event.\n     * @param from {address} wallet from transfer the token\n     * @param to {address} wallet to transfer the token\n     * @param amount {uint256[]} amount to transfer\n     */\n    function transferFrom(address from, address to, uint256 amount) public virtual override(ERC20, ISecurityTokenImmutable) onlyProxy returns (bool) {\n        _transfer(from, to, amount);\n        return true;\n    }\n\n    /**\n     * @notice Moves `amount` of tokens from `from` to `to`.\n     * @param from {address} the origin of the token transfer\n     * @param to {address} the recipient of the token transfer\n     * @param amount {uint256} the number of tokens transferred\n     */\n    function _transfer(\n        address from,\n        address to,\n        uint256 amount\n    ) internal override virtual {\n        super._transfer(from, to, amount);\n        _afterTokenTransfer(\"transfer\", from, to, amount);\n    }\n\n    /**\n     * @notice Creates `amount` tokens and assigns them to `account`, increasing\n     * the total supply.\n     * @param account {address} the recipient of the token transfer\n     * @param amount {uint256} the number of tokens destroyed\n     */\n    function _mint(address account, uint256 amount) internal virtual override {\n        super._mint(account, amount);\n        _afterTokenTransfer(\"mint\", address(0), account, amount);\n    }\n\n    /**\n     * @notice Destroys `amount` tokens from `account`, reducing the\n     * total supply.\n     * @param account {address} the origin of the token destroyed\n     * @param amount {uint256} the number of tokens destroyed\n     */\n    function _burn(address account, uint256 amount) internal virtual override {\n        super._burn(account, amount);\n        _afterTokenTransfer(\"burn\", account, address(0), amount);\n    }\n\n    /**\n     * @dev Returns the amount of tokens in existence.\n     */\n    function totalSupply() public view virtual override(ERC20, ISecurityTokenImmutable) returns (uint256) {\n        return super.totalSupply();\n    }\n\n    /**\n     * @dev Returns the amount of tokens in existence.\n     */\n    function balanceOf(address account) public view virtual override(ERC20, ISecurityTokenImmutable) returns (uint256) {\n        return super.balanceOf(account);\n    }\n\n    /**\n     *  @notice Pause transfer tokens of smart contract\n     *  @param _paused {uint256} represents date when transfer restart\n     */\n    function pause(uint256 _paused) external onlyAgent whenNotPaused {\n        require(rules.pausable == true, \"Pause is not allowed\");\n        paused = _paused;\n        emit Paused(_msgSender(), paused);\n    }\n\n    /**\n     *  @notice Unpause transfer tokens of smart contract\n     */\n    function unpause() external onlyAgent whenPaused {\n        require(rules.pausable == true, \"Pause is not allowed\");\n        paused = 0;\n        emit Paused(_msgSender(), paused);\n    }\n\n    /**\n     *  @notice Check if contract is paused or not\n     */\n    function isPaused() external view returns(uint256){\n        return paused;\n    }\n\n    /**\n     * @notice Withdraw tokens amount of contract balance\n     * @param amount {uint256} the number of tokens transferred\n     * @param receiver {address} the recipient of the token transfer\n     */\n    function withdraw(uint256 amount, address receiver) external onlyProxy returns(bool) {\n        (bool success, ) = payable(receiver).call{ value: amount}(\"\");\n        require(success, \"Withdraw not successful\");\n        return success;\n    }\n\n    /**\n     * @notice handle payment receive by everyone, everywhere, all at once\n     * @param senderAddress {address} address of sender\n     */\n    function handlePayment(address senderAddress) payable public returns(bool) {\n        emit HandlePaiement(_msgSender(), senderAddress, msg.value);\n        return true;\n    }\n\n    /**\n     * @notice Inject wei into smart contract\n     */\n    function injectCapital() external payable onlyOwner returns(bool) {\n        ///maybe todo reduce lastWithdraw ??\n        emit InjectCapital(_msgSender(), msg.value);\n        return true;\n    }\n\n    /**\n     * @notice Hook that is called after any transfer of tokens. This includes\n     * minting and burning.\n     * @param transferType {string} the type of transfer\n     * @param from {address} the origin of the token transfer\n     * @param to {address} the recipient of the token transfer\n     * @param amount {uint256} the number of tokens transferred\n     */\n    function _afterTokenTransfer(\n        string memory transferType,\n        address from,\n        address to,\n        uint256 amount\n    ) internal virtual whenNotPaused {\n        emit Transfer(transferType, from, to, amount);\n        _transfers[_transfersCount] = TokenLibrary.Transfer(\n            transferType,\n            from,\n            to,\n            amount,\n            _now()\n        );\n        _transfersCount++;\n    }\n}",
  "sourcePath": "/home/solid-solution/Bureau/HOMEWORK/Smart-Starter/smart-contract/contracts/immutable/SecurityTokenImmutable.sol",
  "compiler": {
    "name": "solc",
    "version": "0.8.11+commit.d7f03943.Emscripten.clang"
  },
  "schemaVersion": "3.4.10",
  "updatedAt": "2023-02-22T22:44:44.410Z",
  "devdoc": {
    "kind": "dev",
    "methods": {
      "allowance(address,address)": {
        "details": "See {IERC20-allowance}."
      },
      "approve(address,uint256)": {
        "details": "See {IERC20-approve}. NOTE: If `amount` is the maximum `uint256`, the allowance is not updated on `transferFrom`. This is semantically equivalent to an infinite approval. Requirements: - `spender` cannot be the zero address."
      },
      "balanceOf(address)": {
        "details": "Returns the amount of tokens in existence."
      },
      "burn(address,uint256,uint256)": {
        "params": {
          "account": "{address} wallet to burn the token",
          "amount": "{uint256} amount to burn"
        }
      },
      "decimals()": {
        "details": "Returns the number of decimals used to get its user representation. For example, if `decimals` equals `2`, a balance of `505` tokens should be displayed to a user as `5.05` (`505 / 10 ** 2`). Tokens usually opt for a value of 18, imitating the relationship between Ether and Wei. This is the value {ERC20} uses, unless this function is overridden; NOTE: This information is only used for _display_ purposes: it in no way affects any of the arithmetic of the contract, including {IERC20-balanceOf} and {IERC20-transfer}."
      },
      "decreaseAllowance(address,uint256)": {
        "details": "Atomically decreases the allowance granted to `spender` by the caller. This is an alternative to {approve} that can be used as a mitigation for problems described in {IERC20-approve}. Emits an {Approval} event indicating the updated allowance. Requirements: - `spender` cannot be the zero address. - `spender` must have allowance for the caller of at least `subtractedValue`."
      },
      "getAddressProxy()": {
        "returns": {
          "_0": "addressProxy {address} address of contract proxy"
        }
      },
      "getRules()": {
        "returns": {
          "_0": "rules {TokenLibrary.Rules} struct of rules setted on smart contract"
        }
      },
      "handlePayment(address)": {
        "params": {
          "senderAddress": "{address} address of sender"
        }
      },
      "increaseAllowance(address,uint256)": {
        "details": "Atomically increases the allowance granted to `spender` by the caller. This is an alternative to {approve} that can be used as a mitigation for problems described in {IERC20-approve}. Emits an {Approval} event indicating the updated allowance. Requirements: - `spender` cannot be the zero address."
      },
      "mint(address,uint256)": {
        "params": {
          "amount": "{uint256} amount to mint",
          "to": "{address} wallet to send the token"
        },
        "returns": {
          "_0": "result {boolean} success or failure"
        }
      },
      "name()": {
        "details": "Returns the name of the token."
      },
      "owner()": {
        "returns": {
          "_0": "owner {address} wallet addres from owner"
        }
      },
      "pause(uint256)": {
        "params": {
          "_paused": "{uint256} represents date when transfer restart"
        }
      },
      "renounceOwnership()": {
        "details": "Leaves the contract without owner. It will not be possible to call `onlyOwner` functions anymore. Can only be called by the current owner. NOTE: Renouncing ownership will leave the contract without an owner, thereby removing any functionality that is only available to the owner."
      },
      "setAddressProxy(address)": {
        "params": {
          "_addressProxy": "{address} address of contract proxy"
        }
      },
      "setFundraising(uint256,uint256,uint256)": {
        "params": {
          "endFundraising": "{uint256} end timestamp of the fundraising",
          "maxSupply": "{uint256} max supply tokens of contract",
          "startFundraising": "{uint256} start timestamp of the fundraising"
        }
      },
      "setRules((bool,bool,bool,bool,bool,bool,bool,bool,uint256,uint256,uint256,uint256))": {
        "params": {
          "_rules": "{TokenLibrary.Rules} struct of rules"
        }
      },
      "symbol()": {
        "details": "Returns the symbol of the token, usually a shorter version of the name."
      },
      "totalSupply()": {
        "details": "Returns the amount of tokens in existence."
      },
      "transfer(address,uint256)": {
        "details": "Transfer and send `amount` tokens from `_msgSender()` to `to` Returns a boolean value indicating whether the operation succeeded. Emits a {Transfer} event.",
        "params": {
          "amount": "{uint256[]} amount to transfer",
          "to": "{address} wallet to transfer the token"
        }
      },
      "transferFrom(address,address,uint256)": {
        "details": "Transfer and send `amount` tokens from `from` to `to` Returns a boolean value indicating whether the operation succeeded. Emits a {Transfer} event.",
        "params": {
          "amount": "{uint256[]} amount to transfer",
          "from": "{address} wallet from transfer the token",
          "to": "{address} wallet to transfer the token"
        }
      },
      "transferOwnership(address)": {
        "params": {
          "account": "{address} address of the new owner"
        }
      },
      "transfers()": {
        "returns": {
          "_0": "result {TokenLibrary.Transfer[]} array of register transfers movements"
        }
      },
      "version()": {
        "returns": {
          "_0": "TOKEN_VERSION {string} version of the smart contract"
        }
      },
      "withdraw(uint256,address)": {
        "params": {
          "amount": "{uint256} the number of tokens transferred",
          "receiver": "{address} the recipient of the token transfer"
        }
      }
    },
    "version": 1
  },
  "userdoc": {
    "kind": "user",
    "methods": {
      "burn(address,uint256,uint256)": {
        "notice": "Remove `amount` tokens from `account` Returns a boolean value indicating whether the operation succeeded. Emits a {Transfer} event."
      },
      "getAddressProxy()": {
        "notice": "Get address of proxy contract"
      },
      "getRules()": {
        "notice": "Get parameters rules of contract"
      },
      "handlePayment(address)": {
        "notice": "handle payment receive by everyone, everywhere, all at once"
      },
      "injectCapital()": {
        "notice": "Inject wei into smart contract"
      },
      "isPaused()": {
        "notice": "Check if contract is paused or not"
      },
      "mint(address,uint256)": {
        "notice": "Mint and send `amount` tokens to `to` Returns a boolean value indicating whether the operation succeeded. Emits a {Transfer} event."
      },
      "owner()": {
        "notice": "Returns the address wallet of the smart contract owner."
      },
      "pause(uint256)": {
        "notice": "Pause transfer tokens of smart contract"
      },
      "setAddressProxy(address)": {
        "notice": "Set address of proxy contract to accept only proxy requests"
      },
      "setFundraising(uint256,uint256,uint256)": {
        "notice": "Set fundraising parameters to mint tokens in conditions"
      },
      "setRules((bool,bool,bool,bool,bool,bool,bool,bool,uint256,uint256,uint256,uint256))": {
        "notice": "Set parameters rules of contract only if at start rules is setted modifiable"
      },
      "transferOwnership(address)": {
        "notice": "Transfer ownership of the smart contract"
      },
      "transfers()": {
        "notice": "Get movements of the assets"
      },
      "unpause()": {
        "notice": "Unpause transfer tokens of smart contract"
      },
      "version()": {
        "notice": "Returns the version of the token contract"
      },
      "withdraw(uint256,address)": {
        "notice": "Withdraw tokens amount of contract balance"
      }
    },
    "version": 1
  }
}