{
  "contractName": "StorageToken",
  "abi": [
    {
      "inputs": [
        {
          "internalType": "uint256",
          "name": "_pricePerToken",
          "type": "uint256"
        }
      ],
      "stateMutability": "nonpayable",
      "type": "constructor"
    },
    {
      "inputs": [
        {
          "internalType": "address",
          "name": "account",
          "type": "address"
        },
        {
          "internalType": "uint256",
          "name": "accountBalance",
          "type": "uint256"
        },
        {
          "internalType": "uint256",
          "name": "amount",
          "type": "uint256"
        }
      ],
      "name": "BurnAmountExceedsBalance",
      "type": "error"
    },
    {
      "inputs": [
        {
          "internalType": "address",
          "name": "account",
          "type": "address"
        }
      ],
      "name": "BurnFromZeroAddress",
      "type": "error"
    },
    {
      "inputs": [
        {
          "internalType": "address",
          "name": "account",
          "type": "address"
        },
        {
          "internalType": "uint256",
          "name": "previousBalance",
          "type": "uint256"
        },
        {
          "internalType": "uint256",
          "name": "currentBalance",
          "type": "uint256"
        },
        {
          "internalType": "uint256",
          "name": "amount",
          "type": "uint256"
        }
      ],
      "name": "MintDoesNotWork",
      "type": "error"
    },
    {
      "inputs": [
        {
          "internalType": "address",
          "name": "account",
          "type": "address"
        }
      ],
      "name": "MintFromZeroAddress",
      "type": "error"
    },
    {
      "inputs": [
        {
          "internalType": "address",
          "name": "sender",
          "type": "address"
        },
        {
          "internalType": "bytes32",
          "name": "role",
          "type": "bytes32"
        }
      ],
      "name": "NotTheOwner",
      "type": "error"
    },
    {
      "inputs": [
        {
          "internalType": "uint256",
          "name": "fromBalance",
          "type": "uint256"
        },
        {
          "internalType": "address",
          "name": "from",
          "type": "address"
        },
        {
          "internalType": "uint256",
          "name": "amount",
          "type": "uint256"
        }
      ],
      "name": "TransferAmountExceedsBalance",
      "type": "error"
    },
    {
      "inputs": [
        {
          "internalType": "address",
          "name": "from",
          "type": "address"
        }
      ],
      "name": "TransferFromZeroAddress",
      "type": "error"
    },
    {
      "inputs": [
        {
          "internalType": "address",
          "name": "to",
          "type": "address"
        }
      ],
      "name": "TransferToZeroAddress",
      "type": "error"
    },
    {
      "anonymous": false,
      "inputs": [
        {
          "indexed": true,
          "internalType": "address",
          "name": "userAddress",
          "type": "address"
        },
        {
          "indexed": true,
          "internalType": "bool",
          "name": "freeze",
          "type": "bool"
        },
        {
          "indexed": true,
          "internalType": "address",
          "name": "sender",
          "type": "address"
        }
      ],
      "name": "AddressFrozen",
      "type": "event"
    },
    {
      "anonymous": false,
      "inputs": [
        {
          "indexed": true,
          "internalType": "address",
          "name": "sender",
          "type": "address"
        },
        {
          "indexed": true,
          "internalType": "uint256",
          "name": "paused",
          "type": "uint256"
        }
      ],
      "name": "Paused",
      "type": "event"
    },
    {
      "anonymous": false,
      "inputs": [
        {
          "indexed": true,
          "internalType": "address",
          "name": "userAddress",
          "type": "address"
        },
        {
          "indexed": true,
          "internalType": "uint256",
          "name": "amount",
          "type": "uint256"
        }
      ],
      "name": "TokensFrozen",
      "type": "event"
    },
    {
      "anonymous": false,
      "inputs": [
        {
          "indexed": true,
          "internalType": "address",
          "name": "userAddress",
          "type": "address"
        },
        {
          "indexed": true,
          "internalType": "uint256",
          "name": "startTime",
          "type": "uint256"
        },
        {
          "indexed": true,
          "internalType": "uint256",
          "name": "endTime",
          "type": "uint256"
        },
        {
          "indexed": false,
          "internalType": "uint256",
          "name": "amount",
          "type": "uint256"
        },
        {
          "indexed": false,
          "internalType": "address",
          "name": "signer",
          "type": "address"
        }
      ],
      "name": "TokensFrozenPeriod",
      "type": "event"
    },
    {
      "anonymous": false,
      "inputs": [
        {
          "indexed": true,
          "internalType": "address",
          "name": "userAddress",
          "type": "address"
        },
        {
          "indexed": true,
          "internalType": "uint256",
          "name": "amount",
          "type": "uint256"
        }
      ],
      "name": "TokensUnfrozen",
      "type": "event"
    },
    {
      "anonymous": false,
      "inputs": [
        {
          "indexed": true,
          "internalType": "address",
          "name": "userAddress",
          "type": "address"
        },
        {
          "indexed": true,
          "internalType": "uint256",
          "name": "amount",
          "type": "uint256"
        }
      ],
      "name": "TokensUnfrozenPeriod",
      "type": "event"
    },
    {
      "anonymous": false,
      "inputs": [
        {
          "indexed": false,
          "internalType": "string",
          "name": "eventType",
          "type": "string"
        },
        {
          "indexed": true,
          "internalType": "address",
          "name": "from",
          "type": "address"
        },
        {
          "indexed": true,
          "internalType": "address",
          "name": "to",
          "type": "address"
        },
        {
          "indexed": false,
          "internalType": "uint256",
          "name": "value",
          "type": "uint256"
        }
      ],
      "name": "Transfer",
      "type": "event"
    },
    {
      "anonymous": false,
      "inputs": [
        {
          "indexed": true,
          "internalType": "address",
          "name": "oldAccount",
          "type": "address"
        },
        {
          "indexed": true,
          "internalType": "address",
          "name": "newAccount",
          "type": "address"
        }
      ],
      "name": "TransferOwnership",
      "type": "event"
    },
    {
      "inputs": [],
      "name": "_now",
      "outputs": [
        {
          "internalType": "uint256",
          "name": "",
          "type": "uint256"
        }
      ],
      "stateMutability": "view",
      "type": "function"
    },
    {
      "inputs": [
        {
          "internalType": "string",
          "name": "str1",
          "type": "string"
        },
        {
          "internalType": "string",
          "name": "str2",
          "type": "string"
        }
      ],
      "name": "compare",
      "outputs": [
        {
          "internalType": "bool",
          "name": "",
          "type": "bool"
        }
      ],
      "stateMutability": "pure",
      "type": "function"
    }
  ],
  "bytecode": "0x60a060405234801561001057600080fd5b506040516102bc3803806102bc83398101604081905261002f91610037565b608052610050565b60006020828403121561004957600080fd5b5051919050565b608051610254610068600039600050506102546000f3fe608060405234801561001057600080fd5b50600436106100365760003560e01c80633a96fdd71461003b578063b3bb8cd414610063575b600080fd5b61004e61004936600461017f565b610071565b60405190151581526020015b60405180910390f35b60405142815260200161005a565b60008151835114610084575060006100d6565b8160405160200161009591906101e3565b60405160208183030381529060405280519060200120836040516020016100bc91906101e3565b604051602081830303815290604052805190602001201490505b92915050565b634e487b7160e01b600052604160045260246000fd5b600082601f83011261010357600080fd5b813567ffffffffffffffff8082111561011e5761011e6100dc565b604051601f8301601f19908116603f01168101908282118183101715610146576101466100dc565b8160405283815286602085880101111561015f57600080fd5b836020870160208301376000602085830101528094505050505092915050565b6000806040838503121561019257600080fd5b823567ffffffffffffffff808211156101aa57600080fd5b6101b6868387016100f2565b935060208501359150808211156101cc57600080fd5b506101d9858286016100f2565b9150509250929050565b6000825160005b8181101561020457602081860181015185830152016101ea565b81811115610213576000828501525b50919091019291505056fea26469706673582212201a2b542979d29afbc79c7ffb680fc97c092292590615327fd7bc68b557985e5b64736f6c634300080b0033",
  "immutableReferences": {},
  "source": "// SPDX-License-Identifier: MIT\n\npragma solidity ^0.8.0;\n\nimport \"../library/TokenLibrary.sol\";\n\ncontract StorageToken {\n\n    uint256 internal constant oneDay = 86400;\n    uint256 internal immutable pricePerToken;\n    uint256 internal paused;\n    uint256 internal lastWithdraw;\n\n    uint256 internal amountRequest;\n    uint256 internal acceptedRequest;\n    uint256 internal refusedRequest;\n\n    address internal OWNER;\n\n    TokenLibrary.Rules internal rules;\n\n    mapping(uint256 => TokenLibrary.Transfer) internal _transfers;\n    mapping(address => TokenLibrary.FreezePeriod) internal freezedPeriod;\n\n    mapping(address => uint256) internal frozenTokens;\n\n    mapping(address => string) internal hasVoted;\n\n    mapping(address => bool) internal frozen;\n\n    uint32 internal _transfersCount;\n\n    string internal constant TOKEN_VERSION = \"0.0.1\";\n    string internal messageRequest;\n    \n    error NotTheOwner(address sender, bytes32 role);\n    error TransferFromZeroAddress(address from);\n    error TransferToZeroAddress(address to);\n    error TransferAmountExceedsBalance( uint256 fromBalance, address from, uint256 amount);\n    error MintFromZeroAddress(address account);\n    error MintDoesNotWork(address account, uint256 previousBalance, uint256 currentBalance, uint256 amount);\n    error BurnFromZeroAddress(address account);\n    error BurnAmountExceedsBalance(address account, uint256 accountBalance, uint256 amount);\n\n    event TransferOwnership(address indexed oldAccount, address indexed newAccount);\n    event Transfer(string eventType, address indexed from, address indexed to, uint256 value);\n    event Paused(address indexed sender, uint256 indexed paused);\n    event AddressFrozen(address indexed userAddress, bool indexed freeze, address indexed sender);\n    event TokensFrozen(address indexed userAddress, uint256 indexed amount);\n    event TokensFrozenPeriod(\n        address indexed userAddress,\n        uint256 indexed startTime,\n        uint256 indexed endTime,\n        uint256 amount,\n        address signer\n    );\n    event TokensUnfrozen(address indexed userAddress, uint256 indexed amount);\n    event TokensUnfrozenPeriod(address indexed userAddress, uint256 indexed amount);\n    \n    function _now() public view returns (uint256) {\n        return block.timestamp;\n    }\n\n    function compare(string memory str1, string memory str2) public pure returns (bool) {\n        if (bytes(str1).length != bytes(str2).length) {\n            return false;\n        }\n        return keccak256(abi.encodePacked(str1)) == keccak256(abi.encodePacked(str2));\n    }\n\n    constructor(\n        uint256 _pricePerToken\n    ) {\n        pricePerToken = _pricePerToken;\n    }\n}",
  "sourcePath": "/home/solid-solution/Bureau/HOMEWORK/Smart-Starter/smart-contract/contracts/immutable/StorageToken.sol",
  "compiler": {
    "name": "solc",
    "version": "0.8.11+commit.d7f03943.Emscripten.clang"
  },
  "schemaVersion": "3.4.10",
  "updatedAt": "2023-02-22T22:44:44.419Z",
  "devdoc": {
    "kind": "dev",
    "methods": {},
    "version": 1
  },
  "userdoc": {
    "kind": "user",
    "methods": {},
    "version": 1
  }
}