{
  "contractName": "factory",
  "abi": [
    {
      "inputs": [],
      "stateMutability": "nonpayable",
      "type": "constructor"
    },
    {
      "inputs": [
        {
          "internalType": "address",
          "name": "_securityToken",
          "type": "address"
        }
      ],
      "name": "addSecurityToken",
      "outputs": [],
      "stateMutability": "nonpayable",
      "type": "function"
    },
    {
      "inputs": [
        {
          "internalType": "uint256",
          "name": "limit",
          "type": "uint256"
        }
      ],
      "name": "listSecurityTokensByBalances",
      "outputs": [
        {
          "internalType": "address[]",
          "name": "",
          "type": "address[]"
        }
      ],
      "stateMutability": "view",
      "type": "function"
    },
    {
      "inputs": [],
      "name": "getCountSecurityToken",
      "outputs": [
        {
          "internalType": "uint256",
          "name": "",
          "type": "uint256"
        }
      ],
      "stateMutability": "view",
      "type": "function"
    }
  ],
  "bytecode": "0x60a060405234801561001057600080fd5b503360805260805161032a61002f60003960006093015261032a6000f3fe608060405234801561001057600080fd5b50600436106100415760003560e01c80630fe78ee414610046578063598862af1461005c5780638668e53714610071575b600080fd5b6001546040519081526020015b60405180910390f35b61006f61006a366004610209565b610091565b005b61008461007f366004610239565b61013d565b6040516100539190610252565b7f00000000000000000000000000000000000000000000000000000000000000006001600160a01b031633146100fd5760405162461bcd60e51b815260206004820152600d60248201526c2737ba102a34329027bbb732b960991b604482015260640160405180910390fd5b60018054600090815260208190526040812080546001600160a01b0319166001600160a01b038516179055815491906101358361029f565b919050555050565b6060600060015483116101505782610154565b6001545b905060008167ffffffffffffffff811115610171576101716102c8565b60405190808252806020026020018201604052801561019a578160200160208202803683370190505b50905060005b828110156102015760008181526020819052604090205482516001600160a01b03909116908390839081106101d7576101d76102de565b6001600160a01b0390921660209283029190910190910152806101f98161029f565b9150506101a0565b509392505050565b60006020828403121561021b57600080fd5b81356001600160a01b038116811461023257600080fd5b9392505050565b60006020828403121561024b57600080fd5b5035919050565b6020808252825182820181905260009190848201906040850190845b818110156102935783516001600160a01b03168352928401929184019160010161026e565b50909695505050505050565b60006000198214156102c157634e487b7160e01b600052601160045260246000fd5b5060010190565b634e487b7160e01b600052604160045260246000fd5b634e487b7160e01b600052603260045260246000fdfea264697066735822122004a04f13d10435d8d0ec8b955bb6d409fb8e5b3c7ac3cc10501520d41603a7b464736f6c634300080b0033",
  "immutableReferences": {
    "1147": [
      {
        "length": 32,
        "start": 147
      }
    ]
  },
  "source": "// SPDX-License-Identifier: MIT\n\npragma solidity ^0.8.0;\n\n\nimport \"../immutable/SecurityToken.sol\";\n\ncontract factory {\n\n    mapping(uint256 => address) securityToken;\n    uint256 internal countSecurityToken;\n    address immutable OWNER;\n\n    constructor() {\n        OWNER = msg.sender;\n    }\n\n    function addSecurityToken(address _securityToken) external {\n        require(OWNER == msg.sender,\"Not The Owner\");\n        securityToken[countSecurityToken] = _securityToken;\n        countSecurityToken++;\n    }\n\n    function listSecurityTokensByBalances(uint256 limit) external view returns(address[] memory){\n        uint256 count = limit > countSecurityToken ? countSecurityToken : limit;\n        address[] memory result = new address[](count);\n        for (uint256 i = 0; i < count; i++) {\n            result[i] = securityToken[i];\n        }\n        return result;\n    }\n\n    function getCountSecurityToken() external view returns(uint256){\n        return countSecurityToken;\n    }\n}",
  "sourcePath": "/home/solid-solution/Bureau/HOMEWORK/Smart-Starter/contracts/factory/factory.sol",
  "compiler": {
    "name": "solc",
    "version": "0.8.11+commit.d7f03943.Emscripten.clang"
  },
  "schemaVersion": "3.4.10",
  "updatedAt": "2023-02-15T23:01:37.943Z",
  "devdoc": {
    "kind": "dev",
    "methods": {},
    "version": 1
  },
  "userdoc": {
    "kind": "user",
    "methods": {},
    "version": 1
  }
}