{
  "contractName": "SecurityToken",
  "abi": [
    {
      "inputs": [
        {
          "components": [
            {
              "internalType": "string",
              "name": "name",
              "type": "string"
            },
            {
              "internalType": "string",
              "name": "code",
              "type": "string"
            },
            {
              "internalType": "string",
              "name": "assetType",
              "type": "string"
            }
          ],
          "internalType": "struct TokenLibrary.TokenInput",
          "name": "tokenInput",
          "type": "tuple"
        }
      ],
      "stateMutability": "nonpayable",
      "type": "constructor"
    },
    {
      "inputs": [
        {
          "internalType": "address",
          "name": "account",
          "type": "address"
        },
        {
          "internalType": "uint256",
          "name": "accountBalance",
          "type": "uint256"
        },
        {
          "internalType": "uint256",
          "name": "amount",
          "type": "uint256"
        }
      ],
      "name": "BurnAmountExceedsBalance",
      "type": "error"
    },
    {
      "inputs": [
        {
          "internalType": "address",
          "name": "account",
          "type": "address"
        }
      ],
      "name": "BurnFromZeroAddress",
      "type": "error"
    },
    {
      "inputs": [
        {
          "internalType": "address",
          "name": "account",
          "type": "address"
        },
        {
          "internalType": "uint256",
          "name": "previousBalance",
          "type": "uint256"
        },
        {
          "internalType": "uint256",
          "name": "currentBalance",
          "type": "uint256"
        },
        {
          "internalType": "uint256",
          "name": "amount",
          "type": "uint256"
        }
      ],
      "name": "MintDoesNotWork",
      "type": "error"
    },
    {
      "inputs": [
        {
          "internalType": "address",
          "name": "account",
          "type": "address"
        }
      ],
      "name": "MintFromZeroAddress",
      "type": "error"
    },
    {
      "inputs": [
        {
          "internalType": "address",
          "name": "sender",
          "type": "address"
        }
      ],
      "name": "NotAgent",
      "type": "error"
    },
    {
      "inputs": [
        {
          "internalType": "address",
          "name": "sender",
          "type": "address"
        }
      ],
      "name": "NotInRecovery",
      "type": "error"
    },
    {
      "inputs": [
        {
          "internalType": "address",
          "name": "sender",
          "type": "address"
        }
      ],
      "name": "NotReader",
      "type": "error"
    },
    {
      "inputs": [
        {
          "internalType": "address",
          "name": "sender",
          "type": "address"
        },
        {
          "internalType": "bytes32",
          "name": "role",
          "type": "bytes32"
        }
      ],
      "name": "NotTheOwner",
      "type": "error"
    },
    {
      "inputs": [
        {
          "internalType": "address",
          "name": "sender",
          "type": "address"
        }
      ],
      "name": "NotWriter",
      "type": "error"
    },
    {
      "inputs": [
        {
          "internalType": "uint256",
          "name": "fromBalance",
          "type": "uint256"
        },
        {
          "internalType": "address",
          "name": "from",
          "type": "address"
        },
        {
          "internalType": "uint256",
          "name": "amount",
          "type": "uint256"
        }
      ],
      "name": "TransferAmountExceedsBalance",
      "type": "error"
    },
    {
      "inputs": [
        {
          "internalType": "address",
          "name": "from",
          "type": "address"
        }
      ],
      "name": "TransferFromZeroAddress",
      "type": "error"
    },
    {
      "inputs": [
        {
          "internalType": "address",
          "name": "to",
          "type": "address"
        }
      ],
      "name": "TransferToZeroAddress",
      "type": "error"
    },
    {
      "anonymous": false,
      "inputs": [
        {
          "indexed": true,
          "internalType": "address",
          "name": "userAddress",
          "type": "address"
        },
        {
          "indexed": true,
          "internalType": "bool",
          "name": "freeze",
          "type": "bool"
        },
        {
          "indexed": true,
          "internalType": "address",
          "name": "sender",
          "type": "address"
        }
      ],
      "name": "AddressFrozen",
      "type": "event"
    },
    {
      "anonymous": false,
      "inputs": [
        {
          "indexed": true,
          "internalType": "address",
          "name": "_agent",
          "type": "address"
        }
      ],
      "name": "AgentAdded",
      "type": "event"
    },
    {
      "anonymous": false,
      "inputs": [
        {
          "indexed": true,
          "internalType": "address",
          "name": "_agent",
          "type": "address"
        }
      ],
      "name": "AgentRemoved",
      "type": "event"
    },
    {
      "anonymous": false,
      "inputs": [
        {
          "indexed": true,
          "internalType": "address",
          "name": "owner",
          "type": "address"
        },
        {
          "indexed": true,
          "internalType": "address",
          "name": "spender",
          "type": "address"
        },
        {
          "indexed": false,
          "internalType": "uint256",
          "name": "value",
          "type": "uint256"
        }
      ],
      "name": "Approval",
      "type": "event"
    },
    {
      "anonymous": false,
      "inputs": [
        {
          "indexed": true,
          "internalType": "address",
          "name": "_identityRegistry",
          "type": "address"
        }
      ],
      "name": "IdentityRegistryAdded",
      "type": "event"
    },
    {
      "anonymous": false,
      "inputs": [
        {
          "indexed": true,
          "internalType": "address",
          "name": "previousOwner",
          "type": "address"
        },
        {
          "indexed": true,
          "internalType": "address",
          "name": "newOwner",
          "type": "address"
        }
      ],
      "name": "OwnershipTransferred",
      "type": "event"
    },
    {
      "anonymous": false,
      "inputs": [
        {
          "indexed": true,
          "internalType": "address",
          "name": "sender",
          "type": "address"
        },
        {
          "indexed": true,
          "internalType": "uint256",
          "name": "paused",
          "type": "uint256"
        }
      ],
      "name": "Paused",
      "type": "event"
    },
    {
      "anonymous": false,
      "inputs": [
        {
          "indexed": true,
          "internalType": "address",
          "name": "_reader",
          "type": "address"
        }
      ],
      "name": "ReaderAdded",
      "type": "event"
    },
    {
      "anonymous": false,
      "inputs": [
        {
          "indexed": true,
          "internalType": "address",
          "name": "_reader",
          "type": "address"
        }
      ],
      "name": "ReaderRemoved",
      "type": "event"
    },
    {
      "anonymous": false,
      "inputs": [
        {
          "indexed": false,
          "internalType": "address[]",
          "name": "addresses",
          "type": "address[]"
        },
        {
          "indexed": false,
          "internalType": "uint256[]",
          "name": "balances",
          "type": "uint256[]"
        },
        {
          "indexed": false,
          "internalType": "address",
          "name": "owner",
          "type": "address"
        }
      ],
      "name": "RecoveryOldBalances",
      "type": "event"
    },
    {
      "anonymous": false,
      "inputs": [
        {
          "components": [
            {
              "internalType": "string",
              "name": "transferType",
              "type": "string"
            },
            {
              "internalType": "address",
              "name": "from",
              "type": "address"
            },
            {
              "internalType": "address",
              "name": "to",
              "type": "address"
            },
            {
              "internalType": "uint256",
              "name": "amount",
              "type": "uint256"
            },
            {
              "internalType": "uint256",
              "name": "date",
              "type": "uint256"
            }
          ],
          "indexed": false,
          "internalType": "struct TokenLibrary.Transfer[]",
          "name": "oldTransfers",
          "type": "tuple[]"
        },
        {
          "indexed": false,
          "internalType": "address",
          "name": "owner",
          "type": "address"
        }
      ],
      "name": "RecoveryOldTransfers",
      "type": "event"
    },
    {
      "anonymous": false,
      "inputs": [
        {
          "indexed": true,
          "internalType": "address",
          "name": "userAddress",
          "type": "address"
        },
        {
          "indexed": true,
          "internalType": "uint256",
          "name": "amount",
          "type": "uint256"
        }
      ],
      "name": "TokensFrozen",
      "type": "event"
    },
    {
      "anonymous": false,
      "inputs": [
        {
          "indexed": true,
          "internalType": "address",
          "name": "userAddress",
          "type": "address"
        },
        {
          "indexed": true,
          "internalType": "uint256",
          "name": "startTime",
          "type": "uint256"
        },
        {
          "indexed": true,
          "internalType": "uint256",
          "name": "endTime",
          "type": "uint256"
        },
        {
          "indexed": false,
          "internalType": "uint256",
          "name": "amount",
          "type": "uint256"
        },
        {
          "indexed": false,
          "internalType": "address",
          "name": "signer",
          "type": "address"
        }
      ],
      "name": "TokensFrozenPeriod",
      "type": "event"
    },
    {
      "anonymous": false,
      "inputs": [
        {
          "indexed": true,
          "internalType": "address",
          "name": "userAddress",
          "type": "address"
        },
        {
          "indexed": true,
          "internalType": "uint256",
          "name": "amount",
          "type": "uint256"
        }
      ],
      "name": "TokensUnfrozen",
      "type": "event"
    },
    {
      "anonymous": false,
      "inputs": [
        {
          "indexed": true,
          "internalType": "address",
          "name": "userAddress",
          "type": "address"
        },
        {
          "indexed": true,
          "internalType": "uint256",
          "name": "amount",
          "type": "uint256"
        }
      ],
      "name": "TokensUnfrozenPeriod",
      "type": "event"
    },
    {
      "anonymous": false,
      "inputs": [
        {
          "indexed": false,
          "internalType": "string",
          "name": "eventType",
          "type": "string"
        },
        {
          "indexed": true,
          "internalType": "address",
          "name": "from",
          "type": "address"
        },
        {
          "indexed": true,
          "internalType": "address",
          "name": "to",
          "type": "address"
        },
        {
          "indexed": false,
          "internalType": "uint256",
          "name": "value",
          "type": "uint256"
        }
      ],
      "name": "Transfer",
      "type": "event"
    },
    {
      "anonymous": false,
      "inputs": [
        {
          "indexed": true,
          "internalType": "address",
          "name": "from",
          "type": "address"
        },
        {
          "indexed": true,
          "internalType": "address",
          "name": "to",
          "type": "address"
        },
        {
          "indexed": false,
          "internalType": "uint256",
          "name": "value",
          "type": "uint256"
        }
      ],
      "name": "Transfer",
      "type": "event"
    },
    {
      "anonymous": false,
      "inputs": [
        {
          "indexed": true,
          "internalType": "address",
          "name": "oldAccount",
          "type": "address"
        },
        {
          "indexed": true,
          "internalType": "address",
          "name": "newAccount",
          "type": "address"
        }
      ],
      "name": "TransferOwnership",
      "type": "event"
    },
    {
      "anonymous": false,
      "inputs": [
        {
          "indexed": true,
          "internalType": "address",
          "name": "_writer",
          "type": "address"
        }
      ],
      "name": "WriterAdded",
      "type": "event"
    },
    {
      "anonymous": false,
      "inputs": [
        {
          "indexed": true,
          "internalType": "address",
          "name": "_writer",
          "type": "address"
        }
      ],
      "name": "WriterRemoved",
      "type": "event"
    },
    {
      "inputs": [],
      "name": "_now",
      "outputs": [
        {
          "internalType": "uint256",
          "name": "",
          "type": "uint256"
        }
      ],
      "stateMutability": "view",
      "type": "function"
    },
    {
      "inputs": [
        {
          "internalType": "address",
          "name": "_agent",
          "type": "address"
        }
      ],
      "name": "addAgent",
      "outputs": [],
      "stateMutability": "nonpayable",
      "type": "function"
    },
    {
      "inputs": [
        {
          "internalType": "address",
          "name": "_reader",
          "type": "address"
        }
      ],
      "name": "addReader",
      "outputs": [],
      "stateMutability": "nonpayable",
      "type": "function"
    },
    {
      "inputs": [
        {
          "internalType": "address",
          "name": "_writer",
          "type": "address"
        }
      ],
      "name": "addWriter",
      "outputs": [],
      "stateMutability": "nonpayable",
      "type": "function"
    },
    {
      "inputs": [
        {
          "internalType": "address",
          "name": "owner",
          "type": "address"
        },
        {
          "internalType": "address",
          "name": "spender",
          "type": "address"
        }
      ],
      "name": "allowance",
      "outputs": [
        {
          "internalType": "uint256",
          "name": "",
          "type": "uint256"
        }
      ],
      "stateMutability": "view",
      "type": "function"
    },
    {
      "inputs": [
        {
          "internalType": "address",
          "name": "spender",
          "type": "address"
        },
        {
          "internalType": "uint256",
          "name": "amount",
          "type": "uint256"
        }
      ],
      "name": "approve",
      "outputs": [
        {
          "internalType": "bool",
          "name": "",
          "type": "bool"
        }
      ],
      "stateMutability": "nonpayable",
      "type": "function"
    },
    {
      "inputs": [
        {
          "internalType": "address",
          "name": "account",
          "type": "address"
        }
      ],
      "name": "balanceOf",
      "outputs": [
        {
          "internalType": "uint256",
          "name": "",
          "type": "uint256"
        }
      ],
      "stateMutability": "view",
      "type": "function"
    },
    {
      "inputs": [],
      "name": "decimals",
      "outputs": [
        {
          "internalType": "uint8",
          "name": "",
          "type": "uint8"
        }
      ],
      "stateMutability": "view",
      "type": "function"
    },
    {
      "inputs": [
        {
          "internalType": "address",
          "name": "spender",
          "type": "address"
        },
        {
          "internalType": "uint256",
          "name": "subtractedValue",
          "type": "uint256"
        }
      ],
      "name": "decreaseAllowance",
      "outputs": [
        {
          "internalType": "bool",
          "name": "",
          "type": "bool"
        }
      ],
      "stateMutability": "nonpayable",
      "type": "function"
    },
    {
      "inputs": [
        {
          "internalType": "address",
          "name": "spender",
          "type": "address"
        },
        {
          "internalType": "uint256",
          "name": "addedValue",
          "type": "uint256"
        }
      ],
      "name": "increaseAllowance",
      "outputs": [
        {
          "internalType": "bool",
          "name": "",
          "type": "bool"
        }
      ],
      "stateMutability": "nonpayable",
      "type": "function"
    },
    {
      "inputs": [
        {
          "internalType": "address",
          "name": "_agent",
          "type": "address"
        }
      ],
      "name": "isAgent",
      "outputs": [
        {
          "internalType": "bool",
          "name": "",
          "type": "bool"
        }
      ],
      "stateMutability": "view",
      "type": "function"
    },
    {
      "inputs": [
        {
          "internalType": "address",
          "name": "_reader",
          "type": "address"
        }
      ],
      "name": "isReader",
      "outputs": [
        {
          "internalType": "bool",
          "name": "",
          "type": "bool"
        }
      ],
      "stateMutability": "view",
      "type": "function"
    },
    {
      "inputs": [
        {
          "internalType": "address",
          "name": "_writer",
          "type": "address"
        }
      ],
      "name": "isWriter",
      "outputs": [
        {
          "internalType": "bool",
          "name": "",
          "type": "bool"
        }
      ],
      "stateMutability": "view",
      "type": "function"
    },
    {
      "inputs": [],
      "name": "name",
      "outputs": [
        {
          "internalType": "string",
          "name": "",
          "type": "string"
        }
      ],
      "stateMutability": "view",
      "type": "function"
    },
    {
      "inputs": [
        {
          "internalType": "address",
          "name": "_agent",
          "type": "address"
        }
      ],
      "name": "removeAgent",
      "outputs": [],
      "stateMutability": "nonpayable",
      "type": "function"
    },
    {
      "inputs": [
        {
          "internalType": "address",
          "name": "_reader",
          "type": "address"
        }
      ],
      "name": "removeReader",
      "outputs": [],
      "stateMutability": "nonpayable",
      "type": "function"
    },
    {
      "inputs": [
        {
          "internalType": "address",
          "name": "_writer",
          "type": "address"
        }
      ],
      "name": "removeWriter",
      "outputs": [],
      "stateMutability": "nonpayable",
      "type": "function"
    },
    {
      "inputs": [],
      "name": "renounceOwnership",
      "outputs": [],
      "stateMutability": "nonpayable",
      "type": "function"
    },
    {
      "inputs": [],
      "name": "symbol",
      "outputs": [
        {
          "internalType": "string",
          "name": "",
          "type": "string"
        }
      ],
      "stateMutability": "view",
      "type": "function"
    },
    {
      "inputs": [],
      "name": "totalSupply",
      "outputs": [
        {
          "internalType": "uint256",
          "name": "",
          "type": "uint256"
        }
      ],
      "stateMutability": "view",
      "type": "function"
    },
    {
      "inputs": [],
      "name": "code",
      "outputs": [
        {
          "internalType": "string",
          "name": "",
          "type": "string"
        }
      ],
      "stateMutability": "view",
      "type": "function"
    },
    {
      "inputs": [],
      "name": "version",
      "outputs": [
        {
          "internalType": "string",
          "name": "",
          "type": "string"
        }
      ],
      "stateMutability": "pure",
      "type": "function"
    },
    {
      "inputs": [],
      "name": "assetType",
      "outputs": [
        {
          "internalType": "string",
          "name": "",
          "type": "string"
        }
      ],
      "stateMutability": "view",
      "type": "function"
    },
    {
      "inputs": [],
      "name": "owner",
      "outputs": [
        {
          "internalType": "address",
          "name": "",
          "type": "address"
        }
      ],
      "stateMutability": "view",
      "type": "function"
    },
    {
      "inputs": [],
      "name": "transfers",
      "outputs": [
        {
          "components": [
            {
              "internalType": "string",
              "name": "transferType",
              "type": "string"
            },
            {
              "internalType": "address",
              "name": "from",
              "type": "address"
            },
            {
              "internalType": "address",
              "name": "to",
              "type": "address"
            },
            {
              "internalType": "uint256",
              "name": "amount",
              "type": "uint256"
            },
            {
              "internalType": "uint256",
              "name": "date",
              "type": "uint256"
            }
          ],
          "internalType": "struct TokenLibrary.Transfer[]",
          "name": "",
          "type": "tuple[]"
        }
      ],
      "stateMutability": "view",
      "type": "function"
    },
    {
      "inputs": [
        {
          "internalType": "address",
          "name": "account",
          "type": "address"
        }
      ],
      "name": "transferOwnership",
      "outputs": [],
      "stateMutability": "nonpayable",
      "type": "function"
    },
    {
      "inputs": [
        {
          "internalType": "address",
          "name": "account",
          "type": "address"
        }
      ],
      "name": "eligibleBalanceOf",
      "outputs": [
        {
          "internalType": "uint256",
          "name": "",
          "type": "uint256"
        }
      ],
      "stateMutability": "view",
      "type": "function"
    },
    {
      "inputs": [
        {
          "internalType": "address",
          "name": "to",
          "type": "address"
        },
        {
          "internalType": "uint256",
          "name": "amount",
          "type": "uint256"
        }
      ],
      "name": "mint",
      "outputs": [
        {
          "internalType": "bool",
          "name": "",
          "type": "bool"
        }
      ],
      "stateMutability": "nonpayable",
      "type": "function"
    },
    {
      "inputs": [
        {
          "internalType": "address[]",
          "name": "toList",
          "type": "address[]"
        },
        {
          "internalType": "uint256[]",
          "name": "amounts",
          "type": "uint256[]"
        }
      ],
      "name": "batchMint",
      "outputs": [
        {
          "internalType": "bool",
          "name": "",
          "type": "bool"
        }
      ],
      "stateMutability": "nonpayable",
      "type": "function"
    },
    {
      "inputs": [
        {
          "internalType": "address",
          "name": "account",
          "type": "address"
        },
        {
          "internalType": "uint256",
          "name": "amount",
          "type": "uint256"
        }
      ],
      "name": "burn",
      "outputs": [
        {
          "internalType": "bool",
          "name": "",
          "type": "bool"
        }
      ],
      "stateMutability": "nonpayable",
      "type": "function"
    },
    {
      "inputs": [
        {
          "internalType": "address[]",
          "name": "accounts",
          "type": "address[]"
        },
        {
          "internalType": "uint256[]",
          "name": "amounts",
          "type": "uint256[]"
        }
      ],
      "name": "batchBurn",
      "outputs": [],
      "stateMutability": "nonpayable",
      "type": "function"
    },
    {
      "inputs": [
        {
          "internalType": "address",
          "name": "to",
          "type": "address"
        },
        {
          "internalType": "uint256",
          "name": "amount",
          "type": "uint256"
        }
      ],
      "name": "transfer",
      "outputs": [
        {
          "internalType": "bool",
          "name": "",
          "type": "bool"
        }
      ],
      "stateMutability": "nonpayable",
      "type": "function"
    },
    {
      "inputs": [
        {
          "internalType": "address[]",
          "name": "toList",
          "type": "address[]"
        },
        {
          "internalType": "uint256[]",
          "name": "amounts",
          "type": "uint256[]"
        }
      ],
      "name": "batchTransfer",
      "outputs": [],
      "stateMutability": "nonpayable",
      "type": "function"
    },
    {
      "inputs": [
        {
          "internalType": "address",
          "name": "from",
          "type": "address"
        },
        {
          "internalType": "address",
          "name": "to",
          "type": "address"
        },
        {
          "internalType": "uint256",
          "name": "amount",
          "type": "uint256"
        }
      ],
      "name": "transferFrom",
      "outputs": [
        {
          "internalType": "bool",
          "name": "",
          "type": "bool"
        }
      ],
      "stateMutability": "nonpayable",
      "type": "function"
    },
    {
      "inputs": [
        {
          "internalType": "address",
          "name": "operator",
          "type": "address"
        },
        {
          "internalType": "address",
          "name": "from",
          "type": "address"
        },
        {
          "internalType": "address",
          "name": "to",
          "type": "address"
        },
        {
          "internalType": "uint256",
          "name": "value",
          "type": "uint256"
        }
      ],
      "name": "canTransfer",
      "outputs": [
        {
          "internalType": "bytes1",
          "name": "",
          "type": "bytes1"
        }
      ],
      "stateMutability": "view",
      "type": "function"
    },
    {
      "inputs": [
        {
          "internalType": "address",
          "name": "from",
          "type": "address"
        },
        {
          "internalType": "address",
          "name": "to",
          "type": "address"
        },
        {
          "internalType": "uint256",
          "name": "amount",
          "type": "uint256"
        }
      ],
      "name": "forcedTransfer",
      "outputs": [
        {
          "internalType": "bool",
          "name": "",
          "type": "bool"
        }
      ],
      "stateMutability": "nonpayable",
      "type": "function"
    },
    {
      "inputs": [
        {
          "internalType": "address[]",
          "name": "fromList",
          "type": "address[]"
        },
        {
          "internalType": "address[]",
          "name": "toList",
          "type": "address[]"
        },
        {
          "internalType": "uint256[]",
          "name": "amounts",
          "type": "uint256[]"
        }
      ],
      "name": "batchForcedTransfer",
      "outputs": [],
      "stateMutability": "nonpayable",
      "type": "function"
    },
    {
      "inputs": [
        {
          "components": [
            {
              "internalType": "string",
              "name": "transferType",
              "type": "string"
            },
            {
              "internalType": "address",
              "name": "from",
              "type": "address"
            },
            {
              "internalType": "address",
              "name": "to",
              "type": "address"
            },
            {
              "internalType": "uint256",
              "name": "amount",
              "type": "uint256"
            },
            {
              "internalType": "uint256",
              "name": "date",
              "type": "uint256"
            }
          ],
          "internalType": "struct TokenLibrary.Transfer[]",
          "name": "oldTransfers",
          "type": "tuple[]"
        }
      ],
      "name": "recoveryOldTransfers",
      "outputs": [],
      "stateMutability": "nonpayable",
      "type": "function"
    },
    {
      "inputs": [
        {
          "internalType": "address[]",
          "name": "addresses",
          "type": "address[]"
        },
        {
          "internalType": "uint256[]",
          "name": "balances",
          "type": "uint256[]"
        }
      ],
      "name": "recoveryOldBalances",
      "outputs": [],
      "stateMutability": "nonpayable",
      "type": "function"
    },
    {
      "inputs": [],
      "name": "stopRecovery",
      "outputs": [],
      "stateMutability": "nonpayable",
      "type": "function"
    },
    {
      "inputs": [
        {
          "internalType": "uint256",
          "name": "_paused",
          "type": "uint256"
        }
      ],
      "name": "pause",
      "outputs": [],
      "stateMutability": "nonpayable",
      "type": "function"
    },
    {
      "inputs": [],
      "name": "unpause",
      "outputs": [],
      "stateMutability": "nonpayable",
      "type": "function"
    },
    {
      "inputs": [
        {
          "internalType": "address",
          "name": "userAddress",
          "type": "address"
        }
      ],
      "name": "isFrozen",
      "outputs": [
        {
          "internalType": "bool",
          "name": "",
          "type": "bool"
        }
      ],
      "stateMutability": "view",
      "type": "function"
    },
    {
      "inputs": [
        {
          "internalType": "address",
          "name": "userAddress",
          "type": "address"
        }
      ],
      "name": "getFrozenTokens",
      "outputs": [
        {
          "internalType": "uint256",
          "name": "",
          "type": "uint256"
        }
      ],
      "stateMutability": "view",
      "type": "function"
    },
    {
      "inputs": [
        {
          "internalType": "address",
          "name": "userAddress",
          "type": "address"
        },
        {
          "internalType": "bool",
          "name": "freeze",
          "type": "bool"
        }
      ],
      "name": "setAddressFrozen",
      "outputs": [],
      "stateMutability": "nonpayable",
      "type": "function"
    },
    {
      "inputs": [
        {
          "internalType": "address[]",
          "name": "userAddresses",
          "type": "address[]"
        },
        {
          "internalType": "bool[]",
          "name": "freeze",
          "type": "bool[]"
        }
      ],
      "name": "batchSetAddressFrozen",
      "outputs": [],
      "stateMutability": "nonpayable",
      "type": "function"
    },
    {
      "inputs": [
        {
          "internalType": "address",
          "name": "userAddress",
          "type": "address"
        },
        {
          "internalType": "uint256",
          "name": "amount",
          "type": "uint256"
        }
      ],
      "name": "freezePartialTokens",
      "outputs": [],
      "stateMutability": "nonpayable",
      "type": "function"
    },
    {
      "inputs": [
        {
          "internalType": "address[]",
          "name": "userAddresses",
          "type": "address[]"
        },
        {
          "internalType": "uint256[]",
          "name": "amounts",
          "type": "uint256[]"
        }
      ],
      "name": "batchFreezePartialTokens",
      "outputs": [],
      "stateMutability": "nonpayable",
      "type": "function"
    },
    {
      "inputs": [
        {
          "internalType": "address",
          "name": "userAddress",
          "type": "address"
        },
        {
          "internalType": "uint256",
          "name": "amount",
          "type": "uint256"
        }
      ],
      "name": "unfreezePartialTokens",
      "outputs": [],
      "stateMutability": "nonpayable",
      "type": "function"
    },
    {
      "inputs": [
        {
          "internalType": "address[]",
          "name": "userAddresses",
          "type": "address[]"
        },
        {
          "internalType": "uint256[]",
          "name": "amounts",
          "type": "uint256[]"
        }
      ],
      "name": "batchUnfreezePartialTokens",
      "outputs": [],
      "stateMutability": "nonpayable",
      "type": "function"
    },
    {
      "inputs": [
        {
          "internalType": "uint256",
          "name": "startTime",
          "type": "uint256"
        },
        {
          "internalType": "uint256",
          "name": "endTime",
          "type": "uint256"
        },
        {
          "internalType": "uint256",
          "name": "amountFreezed",
          "type": "uint256"
        },
        {
          "internalType": "address",
          "name": "userAddress",
          "type": "address"
        }
      ],
      "name": "setFreezedTokensPeriod",
      "outputs": [],
      "stateMutability": "nonpayable",
      "type": "function"
    },
    {
      "inputs": [],
      "name": "myFreezedTokensPeriod",
      "outputs": [
        {
          "components": [
            {
              "internalType": "uint256",
              "name": "startTime",
              "type": "uint256"
            },
            {
              "internalType": "uint256",
              "name": "endTime",
              "type": "uint256"
            },
            {
              "internalType": "uint256",
              "name": "amountFreezed",
              "type": "uint256"
            }
          ],
          "internalType": "struct TokenLibrary.FreezePeriod",
          "name": "",
          "type": "tuple"
        }
      ],
      "stateMutability": "view",
      "type": "function"
    },
    {
      "inputs": [
        {
          "internalType": "address",
          "name": "userAddress",
          "type": "address"
        }
      ],
      "name": "getFreezedTokensPeriod",
      "outputs": [
        {
          "components": [
            {
              "internalType": "uint256",
              "name": "startTime",
              "type": "uint256"
            },
            {
              "internalType": "uint256",
              "name": "endTime",
              "type": "uint256"
            },
            {
              "internalType": "uint256",
              "name": "amountFreezed",
              "type": "uint256"
            }
          ],
          "internalType": "struct TokenLibrary.FreezePeriod",
          "name": "",
          "type": "tuple"
        }
      ],
      "stateMutability": "view",
      "type": "function"
    },
    {
      "inputs": [],
      "name": "unlockableTokensPeriod",
      "outputs": [
        {
          "internalType": "uint256",
          "name": "",
          "type": "uint256"
        }
      ],
      "stateMutability": "view",
      "type": "function"
    },
    {
      "inputs": [],
      "name": "redeemFreezedTokens",
      "outputs": [
        {
          "internalType": "bool",
          "name": "",
          "type": "bool"
        }
      ],
      "stateMutability": "nonpayable",
      "type": "function"
    }
  ],
  "bytecode": "0x60806040523480156200001157600080fd5b5060405162003bd638038062003bd6833981016040819052620000349162000303565b805160208083015182519091620000519160039185019062000154565b5080516200006790600490602084019062000154565b505050620000846200007e620000fe60201b60201c565b62000102565b805180516200009c91600d9160209091019062000154565b506020808201518051620000b592600e92019062000154565b5060408101518051620000d191600f9160209091019062000154565b50600c80546001600160a01b0319163317905542620000f49062015180620003c5565b600a555062000429565b3390565b600580546001600160a01b038381166001600160a01b0319831681179093556040519116919082907f8be0079c531659141344cd1fd0a4f28419497f9722a3daafe3b4186f6b6457e090600090a35050565b8280546200016290620003ec565b90600052602060002090601f016020900481019282620001865760008555620001d1565b82601f10620001a157805160ff1916838001178555620001d1565b82800160010185558215620001d1579182015b82811115620001d1578251825591602001919060010190620001b4565b50620001df929150620001e3565b5090565b5b80821115620001df5760008155600101620001e4565b634e487b7160e01b600052604160045260246000fd5b604051606081016001600160401b0381118282101715620002355762000235620001fa565b60405290565b604051601f8201601f191681016001600160401b0381118282101715620002665762000266620001fa565b604052919050565b600082601f8301126200028057600080fd5b81516001600160401b038111156200029c576200029c620001fa565b6020620002b2601f8301601f191682016200023b565b8281528582848701011115620002c757600080fd5b60005b83811015620002e7578581018301518282018401528201620002ca565b83811115620002f95760008385840101525b5095945050505050565b6000602082840312156200031657600080fd5b81516001600160401b03808211156200032e57600080fd5b90830190606082860312156200034357600080fd5b6200034d62000210565b8251828111156200035d57600080fd5b6200036b878286016200026e565b8252506020830151828111156200038157600080fd5b6200038f878286016200026e565b602083015250604083015182811115620003a857600080fd5b620003b6878286016200026e565b60408301525095945050505050565b60008219821115620003e757634e487b7160e01b600052601160045260246000fd5b500190565b600181811c908216806200040157607f821691505b602082108114156200042357634e487b7160e01b600052602260045260246000fd5b50919050565b61379d80620004396000396000f3fe608060405234801561001057600080fd5b506004361061035d5760003560e01c80636df68630116101d3578063a9059cbb11610104578063c7464bf1116100a2578063dd62ed3e1161007c578063dd62ed3e14610740578063e583983614610753578063f2fde38b14610766578063fc7e5fa81461077957600080fd5b8063c7464bf11461071d578063c7b0d8b714610725578063da2824a81461072d57600080fd5b8063afde442a116100de578063afde442a146106e9578063b3bb8cd4146106fc578063bbd855f814610702578063c69c09cf1461070a57600080fd5b8063a9059cbb146106ae578063ab5e28c5146106c1578063afd8b1d1146106d657600080fd5b80638da5cb5b116101715780639d200d1f1161014b5780639d200d1f1461066d5780639dc29fac146106755780639fc1d0e714610688578063a457c2d71461069b57600080fd5b80638da5cb5b1461063757806395d89b411461065257806397a6278e1461065a57600080fd5b806384e79842116101ad57806384e79842146105eb57806385269dcb146105fe57806388d695b2146106115780638959427d1461062457600080fd5b80636df686301461059b57806370a08231146105d0578063715018a6146105e357600080fd5b806338d65d11116102ad5780634710362d1161024b57806354fd4d501161022557806354fd4d5014610528578063685731071461054957806369a7ddf71461055c5780636d62a4fe1461056f57600080fd5b80634710362d146104ef5780634a6cc677146105025780635356dddc1461051557600080fd5b80633f4ba83a116102875780633f4ba83a146104b95780633fe3347a146104c157806340c10f19146104c957806342a47abc146104dc57600080fd5b806338d65d1114610480578063394506d81461049357806339509351146104a657600080fd5b80631a7af3791161031a57806323b872dd116102f457806323b872dd1461044357806324c12bf6146104565780632b29ba231461045e578063313ce5671461047157600080fd5b80631a7af3791461040a5780631fe56f7d1461041d5780631ffbb0641461043057600080fd5b806306fdde0314610362578063095ea7b314610380578063125c4a33146103a3578063136439dd146103b8578063158b1a57146103cb57806318160ddd14610402575b600080fd5b61036a61078c565b6040516103779190612d82565b60405180910390f35b61039361038e366004612db8565b61081e565b6040519015158152602001610377565b6103b66103b1366004612db8565b610836565b005b6103b66103c6366004612de4565b610976565b6103f46103d9366004612dfd565b6001600160a01b031660009081526013602052604090205490565b604051908152602001610377565b6002546103f4565b6103b6610418366004612e66565b610a1b565b6103b661042b366004612db8565b610a90565b61039361043e366004612dfd565b610bad565b610393610451366004612ed2565b610bc0565b61036a610be4565b61039361046c366004612dfd565b610bf6565b60405160128152602001610377565b6103b661048e366004612dfd565b610c03565b6103b66104a1366004612e66565b610c4d565b6103936104b4366004612db8565b610d30565b6103b6610d52565b61036a610dfa565b6103936104d7366004612db8565b610e0c565b6103b66104ea366004612f13565b610e6e565b6103b66104fd366004612e66565b610f04565b6103b6610510366004612e66565b610f69565b6103b6610523366004612dfd565b610fcf565b604080518082019091526005815264302e302e3160d81b602082015261036a565b610393610557366004612e66565b611019565b61039361056a366004612dfd565b61108e565b61058261057d366004612fad565b61109b565b6040516001600160f81b03199091168152602001610377565b6105ae6105a9366004612dfd565b611225565b6040805182518152602080840151908201529181015190820152606001610377565b6103f46105de366004612dfd565b6112bb565b6103b66112d6565b6103b66105f9366004612dfd565b6112ea565b6103b661060c366004612ffe565b611334565b6103b661061f366004612e66565b611455565b6103b661063236600461303f565b6114bb565b600c546040516001600160a01b039091168152602001610377565b61036a6116d1565b6103b6610668366004612dfd565b6116e0565b6103f461172a565b610393610683366004612db8565b61185d565b610393610696366004612ed2565b611a76565b6103936106a9366004612db8565b611c8f565b6103936106bc366004612db8565b611d0a565b6106c9611d17565b6040516103779190613081565b6103b66106e4366004612dfd565b611f3d565b6103f46106f7366004612dfd565b611f87565b426103f4565b6103b6611fcb565b6103b6610718366004613132565b611fda565b6105ae61205b565b6103936120b9565b6103b661073b366004612dfd565b61213d565b6103f461074e366004613167565b612187565b610393610761366004612dfd565b6121b2565b6103b6610774366004612dfd565b6121ff565b6103b6610787366004612e66565b612263565b60606003805461079b906131a0565b80601f01602080910402602001604051908101604052809291908181526020018280546107c7906131a0565b80156108145780601f106107e957610100808354040283529160200191610814565b820191906000526020600020905b8154815290600101906020018083116107f757829003601f168201915b5050505050905090565b60003361082c8185856122c8565b5060019392505050565b61083f33610bad565b1580156108575750600c546001600160a01b03163314155b1561088857335b6040516352f49c9560e01b81526001600160a01b0390911660048201526024015b60405180910390fd5b6000610893836112bb565b6001600160a01b0384166000908152601360205260409020549091506108ba9083906131f1565b8110156109095760405162461bcd60e51b815260206004820181905260248201527f416d6f756e74206578636565647320617661696c61626c652062616c616e6365604482015260640161087f565b6001600160a01b03831660009081526013602052604090205461092d9083906131f1565b6001600160a01b03841660008181526013602052604080822093909355915184927fa065e63c631c86f1b9f66a4a2f63f2093bf1c2168d23290259dbd969e0222a4591a3505050565b61097f33610bad565b1580156109975750600c546001600160a01b03163314155b156109a2573361085e565b60095442116109e65760405162461bcd60e51b815260206004820152601060248201526f14185d5cd8589b194e881c185d5cd95960821b604482015260640161087f565b6009819055604051819033907fab40a374bc51de372200a8bc981af8c9ecdc08dfdaef0bb6e09f88f3c616ef3d90600090a350565b60005b83811015610a8957610a77858583818110610a3b57610a3b613209565b9050602002016020810190610a509190612dfd565b848484818110610a6257610a62613209565b9050602002016020810190610718919061321f565b80610a818161323a565b915050610a1e565b5050505050565b610a9933610bad565b158015610ab15750600c546001600160a01b03163314155b15610abc573361085e565b6001600160a01b038216600090815260136020526040902054811115610b415760405162461bcd60e51b815260206004820152603460248201527f416d6f756e742073686f756c64206265206c657373207468616e206f7220657160448201527375616c20746f2066726f7a656e20746f6b656e7360601b606482015260840161087f565b6001600160a01b038216600090815260136020526040902054610b65908290613255565b6001600160a01b03831660008181526013602052604080822093909355915183927f9bed35cb62ad0dba04f9d5bfee4b5bc91443e77da8a65c4c84834c51bb08b0d691a35050565b6000610bba6006836123ec565b92915050565b600033610bce85828561246f565b610bd98585856124e9565b506001949350505050565b6060600c600201805461079b906131a0565b6000610bba6008836123ec565b610c0b61254a565b610c166007826125a4565b6040516001600160a01b038216907fe933431644458f1217f9e93d3e000e03c9bbbe55761046d0985c2e4d157bcbaa90600090a250565b600a544210610c7d57335b604051635a5bfe8b60e11b81526001600160a01b03909116600482015260240161087f565b610c8561254a565b60005b83811015610cea57610cd8858583818110610ca557610ca5613209565b9050602002016020810190610cba9190612dfd565b848484818110610ccc57610ccc613209565b90506020020135612626565b80610ce28161323a565b915050610c88565b507f66f1bd958ed26256fbebc50dffdf3d71d245f8f202b473d4c4a0e95504bd0edf8484848433604051610d2295949392919061326c565b60405180910390a150505050565b60003361082c818585610d438383612187565b610d4d91906131f1565b6122c8565b610d5b33610bad565b158015610d735750600c546001600160a01b03163314155b15610d7e573361085e565b600954421115610dc75760405162461bcd60e51b815260206004820152601460248201527314185d5cd8589b194e881b9bdd081c185d5cd95960621b604482015260640161087f565b6000600981905560405133907fab40a374bc51de372200a8bc981af8c9ecdc08dfdaef0bb6e09f88f3c616ef3d908390a3565b6060600c600301805461079b906131a0565b6000610e1733610bf6565b158015610e2f5750600c546001600160a01b03163314155b15610e5b57335b604051631765348f60e21b81526001600160a01b03909116600482015260240161087f565b610e658383612626565b50600192915050565b60005b85811015610efb57610ee8878783818110610e8e57610e8e613209565b9050602002016020810190610ea39190612dfd565b868684818110610eb557610eb5613209565b9050602002016020810190610eca9190612dfd565b858585818110610edc57610edc613209565b90506020020135611a76565b5080610ef38161323a565b915050610e71565b50505050505050565b60005b83811015610a8957610f57858583818110610f2457610f24613209565b9050602002016020810190610f399190612dfd565b848484818110610f4b57610f4b613209565b90506020020135610a90565b80610f618161323a565b915050610f07565b60005b83811015610a8957610fbc858583818110610f8957610f89613209565b9050602002016020810190610f9e9190612dfd565b848484818110610fb057610fb0613209565b9050602002013561185d565b5080610fc78161323a565b915050610f6c565b610fd761254a565b610fe26008826125a4565b6040516001600160a01b038216907f86e5bbceda94081c32220d685f37cc4e3ea7bb0be2dfbf0cb703579505a5390e90600090a250565b6000805b848110156110805761106d86868381811061103a5761103a613209565b905060200201602081019061104f9190612dfd565b85858481811061106157611061613209565b90506020020135610e0c565b50806110788161323a565b91505061101d565b50600190505b949350505050565b6000610bba6007836123ec565b6000816110a7856112bb565b10156110b85750602960f91b611086565b6009544210156110cd5750601560fa1b611086565b6001600160a01b038416600090815260116020908152604080832060020154601390925290912054839190611101876112bb565b61110b9190613255565b6111159190613255565b10156111265750605560f81b611086565b6001600160a01b03841661113f5750602b60f91b611086565b6001600160a01b0383166111585750605760f81b611086565b61116185610bad565b1580156111915750846001600160a01b0316611185600c546001600160a01b031690565b6001600160a01b031614155b80156111af5750846001600160a01b0316846001600160a01b031614155b156111bf5750600b60fb1b611086565b6001600160a01b03841660009081526014602052604090205460ff16156111eb5750602d60f91b611086565b6001600160a01b03831660009081526014602052604090205460ff16156112175750605b60f81b611086565b50605160f81b949350505050565b61124960405180606001604052806000815260200160008152602001600081525090565b61125233610bad565b15801561126a5750600c546001600160a01b03163314155b15611275573361085e565b506001600160a01b03811660009081526011602090815260409182902082516060810184528154815260018201549281019290925260020154918101919091525b919050565b6001600160a01b031660009081526020819052604090205490565b6112de61254a565b6112e8600061265d565b565b6112f261254a565b6112fd6006826126af565b6040516001600160a01b038216907ff68e73cec97f2d70aa641fb26e87a4383686e2efacb648f2165aeb02ac562ec590600090a250565b61133d33610bad565b1580156113555750600c546001600160a01b03163314155b15611360573361085e565b611369816112bb565b8211156113c45760405162461bcd60e51b8152602060048201526024808201527f416d6f756e74206973207570706572207468616e2062616c616e6365206f66206044820152633ab9b2b960e11b606482015260840161087f565b6040805160608101825285815260208082018681528284018681526001600160a01b03861660008181526011909452949092209251835551600183015551600290910155839085907fe73f01da0d1ab22feed9447b4801c099a6ebe22122e907da28300e12381a67068533604080519283526001600160a01b0390911660208301520160405180910390a450505050565b60005b83811015610a89576114a885858381811061147557611475613209565b905060200201602081019061148a9190612dfd565b84848481811061149c5761149c613209565b90506020020135611d0a565b50806114b38161323a565b915050611458565b600a5442106114ca5733610c58565b6114d261254a565b60155463ffffffff1660005b82811015611651578383828181106114f8576114f8613209565b905060200281019061150a9190613307565b6010600061151884866131f1565b8152602001908152602001600020818161153291906134bf565b90505083838281811061154757611547613209565b90506020028101906115599190613307565b61156a906060810190604001612dfd565b6001600160a01b031684848381811061158557611585613209565b90506020028101906115979190613307565b6115a8906040810190602001612dfd565b6001600160a01b03167f54c25aa230f7ee0c1e146d3416a3a4972d9fa34640b86e84383b461a585593de8686858181106115e4576115e4613209565b90506020028101906115f69190613307565b6116009080613327565b88888781811061161257611612613209565b90506020028101906116249190613307565b606001356040516116379392919061357f565b60405180910390a3806116498161323a565b9150506114de565b506015805483919060009061166d90849063ffffffff166135a3565b92506101000a81548163ffffffff021916908363ffffffff1602179055507f0ac98680761f9cae753faf9755b7f7462a6d7f7428f827ac8a43f4897dc3137983836116b53390565b6040516116c4939291906135cb565b60405180910390a1505050565b60606004805461079b906131a0565b6116e861254a565b6116f36006826125a4565b6040516001600160a01b038216907fed9c8ad8d5a0a66898ea49d2956929c93ae2e8bd50281b2ed897c5d1a6737e0b90600090a250565b336000908152601160209081526040808320815160608101835281548152600182015493810193909352600201549082018190526117a15760405162461bcd60e51b81526020600482015260146024820152734e6f20746f6b656e20746f20756e667265657a6560601b604482015260640161087f565b8051601e906117b09042613255565b116117fd5760405162461bcd60e51b815260206004820152601c60248201527f54696d6520666f722072656465656d20697320746f6f2073686f727400000000604482015260640161087f565b8051602082015160009161181091613255565b82519091506000906118229042613255565b90506118556064611849856040015161184f8661184960648861272b90919063ffffffff16565b9061273e565b9061272b565b935050505090565b600061186833610bf6565b1580156118805750600c546001600160a01b03163314155b1561188b5733610e36565b600061189684611f87565b905080831115611a6c576001600160a01b0384166000908152601360205260408120546118c2866112bb565b6118cc9190613255565b6118d69085613255565b6001600160a01b0386166000908152601360205260409020549091506118fb866112bb565b6119059190613255565b841115611975576001600160a01b038516600090815260136020526040902054611930908290613255565b6001600160a01b03861660008181526013602052604080822093909355915183927f9bed35cb62ad0dba04f9d5bfee4b5bc91443e77da8a65c4c84834c51bb08b0d691a35b6001600160a01b03851660009081526011602052604090206002015461199a866112bb565b6119a49190613255565b6119ae8286613255565b1115611a6a576001600160a01b0385166000908152601160205260408120600201546119d9876112bb565b6119e39190613255565b6119ed8387613255565b6119f79190613255565b6001600160a01b038716600090815260116020526040902060020154909150611a21908290613255565b6001600160a01b03871660008181526011602052604080822060020193909355915184927f86fc01e32674e4237a61b84eece63ddaf61eb7a3034e3cc7f8ca90558431f68e91a3505b505b61082c848461274a565b6000611a8133610bad565b158015611a995750600c546001600160a01b03163314155b15611aa4573361085e565b6000611aaf85611f87565b905080831115610bce576001600160a01b038516600090815260136020526040812054611adb876112bb565b611ae59190613255565b611aef9085613255565b6001600160a01b038716600090815260136020526040902054909150611b14876112bb565b611b1e9190613255565b841115611b8e576001600160a01b038616600090815260136020526040902054611b49908290613255565b6001600160a01b03871660008181526013602052604080822093909355915183927f9bed35cb62ad0dba04f9d5bfee4b5bc91443e77da8a65c4c84834c51bb08b0d691a35b6001600160a01b038616600090815260116020526040902060020154611bb3876112bb565b611bbd9190613255565b611bc78286613255565b1115611c83576001600160a01b038616600090815260116020526040812060020154611bf2886112bb565b611bfc9190613255565b611c068387613255565b611c109190613255565b6001600160a01b038816600090815260116020526040902060020154909150611c3a908290613255565b6001600160a01b03881660008181526011602052604080822060020193909355915184927f86fc01e32674e4237a61b84eece63ddaf61eb7a3034e3cc7f8ca90558431f68e91a3505b50610bd98585856124e9565b60003381611c9d8286612187565b905083811015611cfd5760405162461bcd60e51b815260206004820152602560248201527f45524332303a2064656372656173656420616c6c6f77616e63652062656c6f77604482015264207a65726f60d81b606482015260840161087f565b610bd982868684036122c8565b6000610e653384846124e9565b6060611d223361108e565b158015611d3a5750600c546001600160a01b03163314155b15611d6657335b6040516325bfed0960e11b81526001600160a01b03909116600482015260240161087f565b60155460009063ffffffff1667ffffffffffffffff811115611d8a57611d8a61336e565b604051908082528060200260200182016040528015611dff57816020015b611dec6040518060a001604052806060815260200160006001600160a01b0316815260200160006001600160a01b0316815260200160008152602001600081525090565b815260200190600190039081611da85790505b50905060005b60155463ffffffff9081169082161015611f375763ffffffff811660009081526010602052604090819020815160a08101909252805482908290611e48906131a0565b80601f0160208091040260200160405190810160405280929190818152602001828054611e74906131a0565b8015611ec15780601f10611e9657610100808354040283529160200191611ec1565b820191906000526020600020905b815481529060010190602001808311611ea457829003601f168201915b505050918352505060018201546001600160a01b0390811660208301526002830154166040820152600382015460608201526004909101546080909101528251839063ffffffff8416908110611f1957611f19613209565b60200260200101819052508080611f2f906136e0565b915050611e05565b50905090565b611f4561254a565b611f506007826126af565b6040516001600160a01b038216907fb7724d890d2888af5a3fc456edb667e2c82c4441449ebcac301c618759e4f86d90600090a250565b6001600160a01b0381166000908152601160209081526040808320600201546013909252822054611fb7846112bb565b611fc19190613255565b610bba9190613255565b611fd361254a565b6000600a55565b611fe333610bad565b158015611ffb5750600c546001600160a01b03163314155b15612006573361085e565b6001600160a01b038216600081815260146020526040808220805460ff19168515159081179091559051339391927f7fa523c84ab8d7fc5b72f08b9e46dbbf10c39e119a075b3e317002d14bc9f43691a45050565b61207f60405180606001604052806000815260200160008152602001600081525090565b5033600090815260116020908152604091829020825160608101845281548152600182015492810192909252600201549181019190915290565b6000806120c461172a565b9050600081116120d657600091505090565b336000908152601160205260409020428155600201546120f7908290613255565b3360008181526011602052604080822060020193909355915183927f86fc01e32674e4237a61b84eece63ddaf61eb7a3034e3cc7f8ca90558431f68e91a3600191505090565b61214561254a565b6121506008826126af565b6040516001600160a01b038216907f6ff3aa2ea7b53070f6d9d07a445d338d89e8edef44250ffa8be19f53910d4a2e90600090a250565b6001600160a01b03918216600090815260016020908152604080832093909416825291909152205490565b60006121bd3361108e565b1580156121d55750600c546001600160a01b03163314155b156121e05733611d41565b506001600160a01b031660009081526014602052604090205460ff1690565b61220761254a565b600c546040516001600160a01b038084169216907f5c486528ec3e3f0ea91181cff8116f02bfa350e03b8b6f12e00765adbb5af85c90600090a3600c80546001600160a01b0319166001600160a01b0392909216919091179055565b60005b83811015610a89576122b685858381811061228357612283613209565b90506020020160208101906122989190612dfd565b8484848181106122aa576122aa613209565b90506020020135610836565b806122c08161323a565b915050612266565b6001600160a01b03831661232a5760405162461bcd60e51b8152602060048201526024808201527f45524332303a20617070726f76652066726f6d20746865207a65726f206164646044820152637265737360e01b606482015260840161087f565b6001600160a01b03821661238b5760405162461bcd60e51b815260206004820152602260248201527f45524332303a20617070726f766520746f20746865207a65726f206164647265604482015261737360f01b606482015260840161087f565b6001600160a01b0383811660008181526001602090815260408083209487168084529482529182902085905590518481527f8c5be1e5ebec7d5bd14f71427d1e84f3dd0314c0f7b2291e5b200ac8c7c3b925910160405180910390a3505050565b60006001600160a01b03821661244f5760405162461bcd60e51b815260206004820152602260248201527f526f6c65733a206163636f756e7420697320746865207a65726f206164647265604482015261737360f01b606482015260840161087f565b506001600160a01b03166000908152602091909152604090205460ff1690565b600061247b8484612187565b905060001981146124e357818110156124d65760405162461bcd60e51b815260206004820152601d60248201527f45524332303a20696e73756666696369656e7420616c6c6f77616e6365000000604482015260640161087f565b6124e384848484036122c8565b50505050565b605160f81b6124fa3385858561109b565b6001600160f81b0319161461250e57600080fd5b61251983838361277d565b612545604051806040016040528060088152602001673a3930b739b332b960c11b815250848484612921565b505050565b600c546001600160a01b031633146112e85760405162461bcd60e51b815260206004820181905260248201527f4f776e61626c653a2063616c6c6572206973206e6f7420746865206f776e6572604482015260640161087f565b6125ae82826123ec565b6126045760405162461bcd60e51b815260206004820152602160248201527f526f6c65733a206163636f756e7420646f6573206e6f74206861766520726f6c6044820152606560f81b606482015260840161087f565b6001600160a01b0316600090815260209190915260409020805460ff19169055565b6126308282612aab565b612659604051806040016040528060048152602001631b5a5b9d60e21b81525060008484612921565b5050565b600580546001600160a01b038381166001600160a01b0319831681179093556040519116919082907f8be0079c531659141344cd1fd0a4f28419497f9722a3daafe3b4186f6b6457e090600090a35050565b6126b982826123ec565b156127065760405162461bcd60e51b815260206004820152601f60248201527f526f6c65733a206163636f756e7420616c72656164792068617320726f6c6500604482015260640161087f565b6001600160a01b0316600090815260209190915260409020805460ff19166001179055565b60006127378284613704565b9392505050565b60006127378284613723565b6127548282612b6a565b61265960405180604001604052806004815260200163313ab93760e11b81525083600084612921565b6001600160a01b0383166127e15760405162461bcd60e51b815260206004820152602560248201527f45524332303a207472616e736665722066726f6d20746865207a65726f206164604482015264647265737360d81b606482015260840161087f565b6001600160a01b0382166128435760405162461bcd60e51b815260206004820152602360248201527f45524332303a207472616e7366657220746f20746865207a65726f206164647260448201526265737360e81b606482015260840161087f565b6001600160a01b038316600090815260208190526040902054818110156128bb5760405162461bcd60e51b815260206004820152602660248201527f45524332303a207472616e7366657220616d6f756e7420657863656564732062604482015265616c616e636560d01b606482015260840161087f565b6001600160a01b03848116600081815260208181526040808320878703905593871680835291849020805487019055925185815290927fddf252ad1be2c89b69c2b068fc378daa952ba7f163c4a11628f55a4df523b3ef910160405180910390a36124e3565b60095442116129655760405162461bcd60e51b815260206004820152601060248201526f14185d5cd8589b194e881c185d5cd95960821b604482015260640161087f565b816001600160a01b0316836001600160a01b03167f54c25aa230f7ee0c1e146d3416a3a4972d9fa34640b86e84383b461a585593de86846040516129aa929190613745565b60405180910390a36040518060a00160405280858152602001846001600160a01b03168152602001836001600160a01b031681526020018281526020016129ee4290565b905260155463ffffffff166000908152601060209081526040909120825180519192612a1f92849290910190612c9c565b5060208201516001820180546001600160a01b039283166001600160a01b0319918216179091556040840151600284018054919093169116179055606082015160038201556080909101516004909101556015805463ffffffff16906000612a86836136e0565b91906101000a81548163ffffffff021916908363ffffffff1602179055505050505050565b6001600160a01b038216612b015760405162461bcd60e51b815260206004820152601f60248201527f45524332303a206d696e7420746f20746865207a65726f206164647265737300604482015260640161087f565b8060026000828254612b1391906131f1565b90915550506001600160a01b038216600081815260208181526040808320805486019055518481527fddf252ad1be2c89b69c2b068fc378daa952ba7f163c4a11628f55a4df523b3ef910160405180910390a35050565b6001600160a01b038216612bca5760405162461bcd60e51b815260206004820152602160248201527f45524332303a206275726e2066726f6d20746865207a65726f206164647265736044820152607360f81b606482015260840161087f565b6001600160a01b03821660009081526020819052604090205481811015612c3e5760405162461bcd60e51b815260206004820152602260248201527f45524332303a206275726e20616d6f756e7420657863656564732062616c616e604482015261636560f01b606482015260840161087f565b6001600160a01b0383166000818152602081815260408083208686039055600280548790039055518581529192917fddf252ad1be2c89b69c2b068fc378daa952ba7f163c4a11628f55a4df523b3ef910160405180910390a3505050565b828054612ca8906131a0565b90600052602060002090601f016020900481019282612cca5760008555612d10565b82601f10612ce357805160ff1916838001178555612d10565b82800160010185558215612d10579182015b82811115612d10578251825591602001919060010190612cf5565b50612d1c929150612d20565b5090565b5b80821115612d1c5760008155600101612d21565b6000815180845260005b81811015612d5b57602081850181015186830182015201612d3f565b81811115612d6d576000602083870101525b50601f01601f19169290920160200192915050565b6020815260006127376020830184612d35565b6001600160a01b0381168114612daa57600080fd5b50565b80356112b681612d95565b60008060408385031215612dcb57600080fd5b8235612dd681612d95565b946020939093013593505050565b600060208284031215612df657600080fd5b5035919050565b600060208284031215612e0f57600080fd5b813561273781612d95565b60008083601f840112612e2c57600080fd5b50813567ffffffffffffffff811115612e4457600080fd5b6020830191508360208260051b8501011115612e5f57600080fd5b9250929050565b60008060008060408587031215612e7c57600080fd5b843567ffffffffffffffff80821115612e9457600080fd5b612ea088838901612e1a565b90965094506020870135915080821115612eb957600080fd5b50612ec687828801612e1a565b95989497509550505050565b600080600060608486031215612ee757600080fd5b8335612ef281612d95565b92506020840135612f0281612d95565b929592945050506040919091013590565b60008060008060008060608789031215612f2c57600080fd5b863567ffffffffffffffff80821115612f4457600080fd5b612f508a838b01612e1a565b90985096506020890135915080821115612f6957600080fd5b612f758a838b01612e1a565b90965094506040890135915080821115612f8e57600080fd5b50612f9b89828a01612e1a565b979a9699509497509295939492505050565b60008060008060808587031215612fc357600080fd5b8435612fce81612d95565b93506020850135612fde81612d95565b92506040850135612fee81612d95565b9396929550929360600135925050565b6000806000806080858703121561301457600080fd5b843593506020850135925060408501359150606085013561303481612d95565b939692955090935050565b6000806020838503121561305257600080fd5b823567ffffffffffffffff81111561306957600080fd5b61307585828601612e1a565b90969095509350505050565b60006020808301818452808551808352604092508286019150828160051b87010184880160005b8381101561311457603f19898403018552815160a081518186526130ce82870182612d35565b838b01516001600160a01b03908116888d01528a850151168a880152606080850151908801526080938401519390960192909252505093860193908601906001016130a8565b509098975050505050505050565b803580151581146112b657600080fd5b6000806040838503121561314557600080fd5b823561315081612d95565b915061315e60208401613122565b90509250929050565b6000806040838503121561317a57600080fd5b823561318581612d95565b9150602083013561319581612d95565b809150509250929050565b600181811c908216806131b457607f821691505b602082108114156131d557634e487b7160e01b600052602260045260246000fd5b50919050565b634e487b7160e01b600052601160045260246000fd5b60008219821115613204576132046131db565b500190565b634e487b7160e01b600052603260045260246000fd5b60006020828403121561323157600080fd5b61273782613122565b600060001982141561324e5761324e6131db565b5060010190565b600082821015613267576132676131db565b500390565b6060808252810185905260008660808301825b888110156132af57823561329281612d95565b6001600160a01b031682526020928301929091019060010161327f565b5083810360208501528581526001600160fb1b038611156132cf57600080fd5b8560051b9150818760208301376000910160200190815290506132fd60408301846001600160a01b03169052565b9695505050505050565b60008235609e1983360301811261331d57600080fd5b9190910192915050565b6000808335601e1984360301811261333e57600080fd5b83018035915067ffffffffffffffff82111561335957600080fd5b602001915036819003821315612e5f57600080fd5b634e487b7160e01b600052604160045260246000fd5b601f82111561254557600081815260208120601f850160051c810160208610156133ab5750805b601f850160051c820191505b818110156133ca578281556001016133b7565b505050505050565b67ffffffffffffffff8311156133ea576133ea61336e565b6133fe836133f883546131a0565b83613384565b6000601f841160018114613432576000851561341a5750838201355b600019600387901b1c1916600186901b178355610a89565b600083815260209020601f19861690835b828110156134635786850135825560209485019460019092019101613443565b50868210156134805760001960f88860031b161c19848701351681555b505060018560011b0183555050505050565b60008135610bba81612d95565b80546001600160a01b0319166001600160a01b0392909216919091179055565b8135601e198336030181126134d357600080fd5b8201803567ffffffffffffffff8111156134ec57600080fd5b60208201915080360382131561350157600080fd5b61350c8183856133d2565b505061352661351d60208401613492565b6001830161349f565b61353e61353560408401613492565b6002830161349f565b60608201356003820155608082013560048201555050565b81835281816020850137506000828201602090810191909152601f909101601f19169091010190565b604081526000613593604083018587613556565b9050826020830152949350505050565b600063ffffffff8083168185168083038211156135c2576135c26131db565b01949350505050565b60408082528181018490526000906060808401600587901b8501820188855b898110156136c457878303605f190184528135368c9003609e1901811261361057600080fd5b8b0160a0813536839003601e1901811261362957600080fd5b82018035602067ffffffffffffffff82111561364457600080fd5b81360385131561365357600080fd5b83885261366584890183838601613556565b9350613672818601612dad565b6001600160a01b03811689830152925061368d8b8601612dad565b6001600160a01b03168b890152898501358a89015260809485013594909701939093525094840194939290920191506001016135ea565b50506001600160a01b0387166020870152935061108692505050565b600063ffffffff808316818114156136fa576136fa6131db565b6001019392505050565b600081600019048311821515161561371e5761371e6131db565b500290565b60008261374057634e487b7160e01b600052601260045260246000fd5b500490565b6040815260006137586040830185612d35565b9050826020830152939250505056fea2646970667358221220aa809f4ea1cb22a49f4435478d38de137a85772c58bbfde2dbeb63605f25076964736f6c634300080b0033",
  "immutableReferences": {},
  "source": "// SPDX-License-Identifier: MIT\n\npragma solidity ^0.8.0;\n\n\nimport \"./StorageToken.sol\";\nimport \"../library/TokenLibrary.sol\";\nimport \"../roles/AgentRole.sol\";\nimport \"../roles/ReaderRole.sol\";\nimport \"../roles/WriterRole.sol\";\nimport \"@openzeppelin/contracts/access/Ownable.sol\";\nimport \"@openzeppelin/contracts/token/ERC20/ERC20.sol\";\nimport \"@openzeppelin/contracts/utils/math/SafeMath.sol\";\n\ncontract SecurityToken is ERC20, AgentRole, ReaderRole, WriterRole, StorageToken {\n    using SafeMath for uint;\n\n    /**\n     * @param tokenInput {TokenLibrary.TokenInput} the input token containing the name, code, assetType\n     */\n    constructor(\n        TokenLibrary.TokenInput memory tokenInput\n    ) ERC20(tokenInput.name, tokenInput.code) {\n        _token.name = tokenInput.name;\n        _token.code = tokenInput.code;\n        _token.assetType = tokenInput.assetType;\n        _token.owner = _msgSender();\n        recovery = _now() + (1 days);\n    }\n\n    /// @dev Modifier to make a function callable only when the contract is not paused.\n    modifier whenNotPaused() {\n        require(_now() > paused, \"Pausable: paused\");\n        _;\n    }\n\n    /// @dev Modifier to make a function callable only when the contract is paused.\n    modifier whenPaused() {\n        require(_now() <= paused, \"Pausable: not paused\");\n        _;\n    }\n\n    modifier onlyRecovery() {\n        if (_now() >= recovery)\n            revert NotInRecovery({ sender: _msgSender() });\n        _;\n    }\n\n    /**\n     * @notice Returns the symbol of the token, usually a shorter version of the\n     * name.\n     * @return code {string} code of the token\n     */\n    function code() external view returns (string memory) {\n        return _token.code;\n    }\n\n    /**\n     * @notice Returns the version of the token contract\n     * @return TOKEN_VERSION {string} version of the smart contract\n     */\n    function version() external pure returns (string memory) {\n        return TOKEN_VERSION;\n    }\n\n    /**\n     * @notice Returns the type of the token.\n     * @return assetType {string} type of the asset\n     */\n    function assetType() public view returns (string memory) {\n        return _token.assetType;\n    }\n\n    /**\n     * @notice Returns the address wallet of the smart contract owner.\n     * @return owner {address} wallet addres from owner\n     */\n    function owner() public view override(Ownable) returns (address) {\n        return _token.owner;\n    }\n\n    /**\n     * @notice Get movements of the assets\n     * @return result {TokenLibrary.Transfer[]} array of register transfers movements\n     */\n    function transfers() public view onlyReader() returns (TokenLibrary.Transfer[] memory) {\n        TokenLibrary.Transfer[] memory result = new TokenLibrary.Transfer[](_transfersCount);\n        for (uint32 i = 0; i < _transfersCount; i++) {\n            result[i] = _transfers[i];\n        }\n        return result;\n    }\n\n    /**\n     * @notice Transfer ownership of the smart contract\n     * @param account {address} address of the new owner\n     */\n    function transferOwnership(address account) public virtual override(Ownable) onlyOwner {\n        emit TransferOwnership(_token.owner, account);\n        _token.owner = account;\n    }\n\n    /**\n     * @notice return not freezed tokens from an address wallet\n     * @param account {address} wallet address of account you want to get not freezed balance\n     * @return balance {uint256} balance of wallet address totaly open\n     */\n    function eligibleBalanceOf(address account) public view returns(uint256) {\n        return balanceOf(account) - frozenTokens[account] - (freezedPeriod[account].amountFreezed);\n    }\n\n\n    /**\n     * @notice Mint and send `amount` tokens to `to`\n     *\n     * Returns a boolean value indicating whether the operation succeeded.\n     *\n     * Emits a {Transfer} event.\n     * @param to {address} wallet to send the token\n     * @param amount {uint256} amount to mint\n     * @return result {boolean} success or failure\n     */\n    function mint(address to, uint256 amount) public onlyWriter returns (bool) {\n        _mint(to, amount);\n        return true;\n    }\n\n    /**\n     * @notice Mint and send `amounts` tokens to `toList`\n     *\n     * Returns a boolean value indicating whether the operation succeeded.\n     *\n     * Emits a {Transfer} event by {to}.\n     * @param toList {address[]} wallets to send the tokens\n     * @param amounts {uint256[]} amount to mint\n     * @return result {boolean} success or failure\n     */\n    function batchMint(address[] calldata toList, uint256[] calldata amounts) external returns (bool) {\n        for (uint256 i = 0; i < toList.length; i++) {\n            mint(toList[i], amounts[i]);\n        }\n        return true;\n    }\n\n    /**\n     * @notice Remove `amount` tokens from `account`\n     *\n     * Returns a boolean value indicating whether the operation succeeded.\n     *\n     * Emits a {Transfer} event.\n     * @param account {address} wallet to burn the token\n     * @param amount {uint256} amount to burn\n     */\n    function burn(address account, uint256 amount)\n        public\n        onlyWriter\n        returns (bool)\n    {\n        uint256 freeBalance = eligibleBalanceOf(account);\n        if (amount > freeBalance) {\n            uint256 tokensToUnfreeze = amount - (balanceOf(account) - frozenTokens[account]);\n            if (amount > balanceOf(account) - frozenTokens[account]) {\n                frozenTokens[account] = frozenTokens[account] - (tokensToUnfreeze);\n                emit TokensUnfrozen(account, tokensToUnfreeze);\n            }\n            if (amount - tokensToUnfreeze > balanceOf(account) - (freezedPeriod[account].amountFreezed)) {\n                uint256 tokensToUnfreezePeriod =\n                amount - tokensToUnfreeze - (balanceOf(account) - freezedPeriod[account].amountFreezed);\n                freezedPeriod[account].amountFreezed = freezedPeriod[account].amountFreezed - (tokensToUnfreezePeriod);\n                emit TokensUnfrozenPeriod(account, tokensToUnfreeze);\n            }\n        }\n        _burn(account, amount);\n        return true;\n    }\n\n    /**\n     * @notice Remove `amounts` tokens from `accounts`\n     *\n     * Returns a boolean value indicating whether the operation succeeded.\n     *\n     * Emits a {Transfer} event.\n     * @param accounts {address[]} wallets to burn the tokens\n     * @param amounts {uint256[]} amounts to burn\n     */\n    function batchBurn(address[] calldata accounts, uint256[] calldata amounts) external {\n        for (uint256 i = 0; i < accounts.length; i++) {\n            burn(accounts[i], amounts[i]);\n        }\n    }\n\n    /**\n     * @dev Transfer and send `amount` tokens from `_msgSender()` to `to`\n     *\n     * Returns a boolean value indicating whether the operation succeeded.\n     *\n     * Emits a {Transfer} event.\n     * @param to {address} wallet to transfer the token\n     * @param amount {uint256[]} amount to transfer\n     */\n    function transfer(address to, uint256 amount) public virtual override returns (bool) {\n        _transfer(_msgSender(), to, amount);\n        return true;\n    }\n\n    /**\n     *  @dev Transfers and send `amount` tokens from `_msgSender()` to `toList`\n     *\n     * Returns a boolean value indicating whether the operation succeeded.\n     *\n     * Emits a {Transfer} event.\n     * @param toList {address[]} wallets to transfer the tokens\n     * @param amounts {uint256[]} amounts to transfer\n     */\n    function batchTransfer(address[] calldata toList, uint256[] calldata amounts) external {\n        for (uint256 i = 0; i < toList.length; i++) {\n            transfer(toList[i], amounts[i]);\n        }\n    }\n\n    /**\n     * @dev See {IERC20-transferFrom}.\n     */\n    function transferFrom(\n        address from,\n        address to,\n        uint256 amount\n    ) public virtual override returns (bool) {\n        address spender = _msgSender();\n        _spendAllowance(from, spender, amount);\n        _transfer(from, to, amount);\n        return true;\n    }\n\n    /**\n     * @notice Moves `amount` of tokens from `from` to `to`.\n     * @param from {address} the origin of the token transfer\n     * @param to {address} the recipient of the token transfer\n     * @param amount {uint256} the number of tokens transferred\n     */\n    function _transfer(\n        address from,\n        address to,\n        uint256 amount\n    ) internal override virtual {\n        require(canTransfer(_msgSender(), from, to, amount) == (hex\"51\"));\n        super._transfer(from, to, amount);\n        _afterTokenTransfer(\"transfer\", from, to, amount);\n    }\n\n    function canTransfer(address operator, address from, address to, uint256 value) public view returns (bytes1) {\n        if (balanceOf(from) < value){\n            return(hex\"52\"); // 0x52 insufficient balance\n        // } else if(allowance(from, operator) <= value) {\n        //     return(hex\"53\"); // 0x53 insufficient allowance\n        } else if(_now() < paused) {\n            return(hex\"54\"); // 0x54 transfers halted (contract paused)\n        } else if(balanceOf(from) - frozenTokens[from] - (freezedPeriod[from].amountFreezed) < value) {\n            return(hex\"55\"); // 0x55 funds locked (lockup period)\n        } else if (from == address(0)){\n            return(hex\"56\"); // 0x56 invalid sender\n        } else if (to == address(0)){\n            return(hex\"57\"); // 0x57 invalid receiver\n        } else if (!isAgent(operator) && owner() != operator && from != operator ){\n            return(hex\"58\"); // 0x58 invalid operator\n        } else if (frozen[from]){\n            return(hex\"5a\"); // 0x5a frozen sender\n        }  else if (frozen[to]){\n            return(hex\"5b\"); // 0x5b frozen receiver\n        }\n        return (hex\"51\"); // 0x51 success\n    }\n\n    /**\n     *  @notice Force an address wallet to transfer by agent\n     *  @param from {address} from wallet to transfer\n     *  @param to {address} to wallet to transfer\n     *  @param amount {uint256} amounts of tokens to be transfered\n     */\n    function forcedTransfer(\n        address from,\n        address to,\n        uint256 amount\n    ) public onlyAgent returns (bool) {\n        uint256 freeBalance = eligibleBalanceOf(from);\n\n        if (amount > freeBalance) {\n            uint256 tokensToUnfreeze = amount - (balanceOf(from) - frozenTokens[from]);\n            if (amount > balanceOf(from) - frozenTokens[from]) {\n                frozenTokens[from] = frozenTokens[from] - (tokensToUnfreeze);\n                emit TokensUnfrozen(from, tokensToUnfreeze);\n            }\n            if (amount - tokensToUnfreeze > balanceOf(from) - (freezedPeriod[from].amountFreezed)) {\n                uint256 tokensToUnfreezePeriod = \n                amount - tokensToUnfreeze - (balanceOf(from) - freezedPeriod[from].amountFreezed);\n                freezedPeriod[from].amountFreezed = freezedPeriod[from].amountFreezed - (tokensToUnfreezePeriod);\n                emit TokensUnfrozenPeriod(from, tokensToUnfreeze);\n            }\n        }\n\n        _transfer(from, to, amount);\n        return true;\n    }\n\n    /**\n     *  @notice Force an array of transfer by agent\n     *  @param fromList {address[]} from wallet to transfer\n     *  @param toList {address[]} to wallet to transfer\n     *  @param amounts {uint256[]} amounts of tokens to be transfered\n     */\n    function batchForcedTransfer(\n        address[] calldata fromList,\n        address[] calldata toList,\n        uint256[] calldata amounts\n    ) external {\n        for (uint256 i = 0; i < fromList.length; i++) {\n            forcedTransfer(fromList[i], toList[i], amounts[i]);\n        }\n    }\n\n    /**\n     * @notice Creates `amount` tokens and assigns them to `account`, increasing\n     * the total supply.\n     * @param account {address} the recipient of the token transfer\n     * @param amount {uint256} the number of tokens destroyed\n     */\n    function _mint(address account, uint256 amount) internal virtual override {\n        super._mint(account, amount);\n        _afterTokenTransfer(\"mint\", address(0), account, amount);\n    }\n\n    /**\n     * @notice Destroys `amount` tokens from `account`, reducing the\n     * total supply.\n     * @param account {address} the origin of the token destroyed\n     * @param amount {uint256} the number of tokens destroyed\n     */\n    function _burn(address account, uint256 amount) internal virtual override {\n        super._burn(account, amount);\n        _afterTokenTransfer(\"burn\", account, address(0), amount);\n    }\n\n    /**\n     * @notice Recovers all transfers from a previous asset that were not issued on the blockchain\n     * @param oldTransfers {TokenLibrary.Transfer[]} Stuct of the old transfers we recovery\n     */\n    function recoveryOldTransfers(\n        TokenLibrary.Transfer[] calldata oldTransfers\n    ) external onlyRecovery onlyOwner {\n        uint256 transfersCount = _transfersCount;\n        for (uint256 index = 0; index < oldTransfers.length; index++) {\n            _transfers[transfersCount+index] = oldTransfers[index];\n            emit Transfer(\n                oldTransfers[index].transferType,\n                oldTransfers[index].from,\n                oldTransfers[index].to,\n                oldTransfers[index].amount\n            );\n        }\n        _transfersCount += uint32(oldTransfers.length);\n        emit RecoveryOldTransfers(oldTransfers, _msgSender());\n    }\n\n    /**\n     * @notice Recovers all balances from a previous asset that were not issued on the blockchain\n     * @param addresses {address[]} of the owners of the securities\n     * @param balances {uint256[]} amout of tokens\n     */\n    function recoveryOldBalances(\n        address[] calldata addresses,\n        uint256[] calldata balances\n    ) external onlyRecovery onlyOwner {\n        for (uint256 index = 0; index < addresses.length; index++) {\n            _mint(addresses[index], balances[index]);\n        }\n        emit RecoveryOldBalances(addresses, balances, _msgSender());\n    }\n\n    /**\n     * @notice Definitely stop the recovery of old transfers\n     */\n    function stopRecovery() external onlyOwner {\n        recovery = 0;\n    }\n\n    /**\n     *  @notice Pause transfer tokens of smart contract\n     *  @param _paused {uint256} represents date when transfer restart\n     */\n    function pause(uint256 _paused) external onlyAgent whenNotPaused {\n        paused = _paused;\n        emit Paused(_msgSender(), paused);\n    }\n\n    /**\n     *  @notice Unpause transfer tokens of smart contract\n     */\n    function unpause() external onlyAgent whenPaused {\n        paused = 0;\n        emit Paused(_msgSender(), paused);\n    }\n\n    /**\n     *  @notice Return freezed or not wallet address tokens\n     *  @param userAddress {address} of the user\n     *  @return frozen {bool} represents freezed wallet address\n     */\n    function isFrozen(address userAddress) external view onlyReader returns (bool) {\n        return frozen[userAddress];\n    }\n\n    /**\n     *  @notice Return freezed tokens amount of wallet address\n     *  @param userAddress {address} of the user\n     *  @return frozenTokens {uint256} amount of freezed tokens\n     */\n    function getFrozenTokens(address userAddress) external view returns (uint256) {\n        return frozenTokens[userAddress];\n    }\n\n    /**\n     *  @notice Freeze totality tokens of single wallet address\n     *  @param userAddress {address} of the user\n     *  @param freeze {boolean} representing freezing\n     */\n    function setAddressFrozen(address userAddress, bool freeze) public onlyAgent {\n        frozen[userAddress] = freeze;\n        emit AddressFrozen(userAddress, freeze, _msgSender());\n    }\n\n    /**\n     *  @notice Freeze totality tokens of multiples wallet addresses\n     *  @param userAddresses {address[]} of user addresses\n     *  @param freeze {bool[]} representing freezing\n     */\n    function batchSetAddressFrozen(address[] calldata userAddresses, bool[] calldata freeze) external {\n        for (uint256 i = 0; i < userAddresses.length; i++) {\n            setAddressFrozen(userAddresses[i], freeze[i]);\n        }\n    }\n\n\n    /**\n     *  @notice Freeze patial tokens of single wallet\n     *  @param userAddress {address} of the user\n     *  @param amount {uint256} of token to be unfreezed\n     */\n    function freezePartialTokens(address userAddress, uint256 amount) public onlyAgent {\n        uint256 balance = balanceOf(userAddress);\n        require(balance >= frozenTokens[userAddress] + amount, \"Amount exceeds available balance\");\n        frozenTokens[userAddress] = frozenTokens[userAddress] + (amount);\n        emit TokensFrozen(userAddress, amount);\n    }\n\n    /**\n     *  @notice Freeze patial tokens of multiples wallets\n     *  @param userAddresses {address[]} of user addresses\n     *  @param amounts {uint256[]} of amounts of token to be unfreezed\n     */\n    function batchFreezePartialTokens(address[] calldata userAddresses, uint256[] calldata amounts) external {\n        for (uint256 i = 0; i < userAddresses.length; i++) {\n            freezePartialTokens(userAddresses[i], amounts[i]);\n        }\n    }\n\n    /**\n     *  @notice Unfreeze patial tokens of single wallet\n     *  @param userAddress {address} of the user\n     *  @param amount {uint256} of token to be unfreezed\n     */\n    function unfreezePartialTokens(address userAddress, uint256 amount) public onlyAgent {\n        require(frozenTokens[userAddress] >= amount, \"Amount should be less than or equal to frozen tokens\");\n        frozenTokens[userAddress] = frozenTokens[userAddress] - (amount);\n        emit TokensUnfrozen(userAddress, amount);\n    }\n\n    /**\n     *  @notice Unfreeze patial tokens of multiples wallets\n     *  @param userAddresses {address[]} of user addresses\n     *  @param amounts {uint256[]} of amounts of token to be unfreezed\n     */\n    function batchUnfreezePartialTokens(address[] calldata userAddresses, uint256[] calldata amounts) external {\n        for (uint256 i = 0; i < userAddresses.length; i++) {\n            unfreezePartialTokens(userAddresses[i], amounts[i]);\n        }\n    }\n\n    /**\n     * @notice Freeze token of one address wallet periodically\n     * @param startTime {uint256} Start time of freezing partial token\n     * @param endTime {uint256} End time of freezing partial token\n     * @param amountFreezed {uint256} Amount of frozen token\n     * @param userAddress {address} Address wallet of the user frozen token\n     */\n    function setFreezedTokensPeriod(\n        uint256 startTime,\n        uint256 endTime,\n        uint256 amountFreezed,\n        address userAddress\n    ) external onlyAgent {\n        ///need to verify is valid identity user ?\n        require(amountFreezed <= balanceOf(userAddress), \"Amount is upper than balance of user\");\n        freezedPeriod[userAddress] = TokenLibrary.FreezePeriod(\n            startTime,\n            endTime,\n            amountFreezed\n        );\n        emit TokensFrozenPeriod(userAddress, startTime, endTime, amountFreezed, _msgSender());\n    }\n\n    /**\n     * @notice Retrieve struct of freezed tokens in period of msg.sender\n     * @return freezedPeriod {TokenLibrary.FreezePeriod} struct of freezed tokens in period\n     */\n    function myFreezedTokensPeriod() external view returns (TokenLibrary.FreezePeriod memory) {\n        return freezedPeriod[_msgSender()];\n    }\n\n    /**\n     * @notice Retrieve struct of freezed tokens in period of one wallet address by agent\n     * @param userAddress {address} of the user freezed tokens\n     * @return freezedPeriod {TokenLibrary.FreezePeriod} struct of freezed tokens in period\n     */\n    function getFreezedTokensPeriod(address userAddress) external view onlyAgent returns (TokenLibrary.FreezePeriod memory) {\n        return freezedPeriod[userAddress];\n    }\n\n    /**\n     * @notice Get unlockable tokens freezed in period for msg.sender\n     * @return unlockable {uint256} of unlockable tokens freezed in period \n     */\n    function unlockableTokensPeriod() public view returns (uint256) {\n        TokenLibrary.FreezePeriod memory freezedPeriodTemp = freezedPeriod[_msgSender()];\n\n        require(freezedPeriodTemp.amountFreezed > 0, \"No token to unfreeze\");\n        require(_now() - freezedPeriodTemp.startTime > 30, \"Time for redeem is too short\");\n\n        uint256 diff = freezedPeriodTemp.endTime - freezedPeriodTemp.startTime;\n        uint256 timeBehind = _now() - freezedPeriodTemp.startTime;\n\n        return timeBehind.mul(100).div(diff).mul(freezedPeriodTemp.amountFreezed).div(100);\n    }\n\n    /**\n     * @notice Redeem unlockable freezed tokens periodically\n     * @return success {bool} success of redeeming tokens\n     */\n    function redeemFreezedTokens() external returns (bool) {\n        uint256 unlockable = unlockableTokensPeriod();\n        if(unlockable <= 0) return false;\n\n        freezedPeriod[_msgSender()].startTime = _now();\n        freezedPeriod[_msgSender()].amountFreezed = freezedPeriod[_msgSender()].amountFreezed - unlockable;\n\n        emit TokensUnfrozenPeriod(_msgSender(), unlockable);\n\n        return true;\n    }\n\n    /**\n     * @notice Hook that is called after any transfer of tokens. This includes\n     * minting and burning.\n     * @param transferType {string} the type of transfer\n     * @param from {address} the origin of the token transfer\n     * @param to {address} the recipient of the token transfer\n     * @param amount {uint256} the number of tokens transferred\n     */\n    function _afterTokenTransfer(\n        string memory transferType,\n        address from,\n        address to,\n        uint256 amount\n    ) internal virtual whenNotPaused {\n        emit Transfer(transferType, from, to, amount);\n        _transfers[_transfersCount] = TokenLibrary.Transfer(\n            transferType,\n            from,\n            to,\n            amount,\n            _now()\n        );\n        _transfersCount++;\n    }\n}\n",
  "sourcePath": "/home/solid-solution/Bureau/HOMEWORK/Smart-Starter/contracts/immutable/SecurityToken.sol",
  "compiler": {
    "name": "solc",
    "version": "0.8.11+commit.d7f03943.Emscripten.clang"
  },
  "schemaVersion": "3.4.10",
  "updatedAt": "2023-02-15T09:08:32.938Z",
  "devdoc": {
    "kind": "dev",
    "methods": {
      "allowance(address,address)": {
        "details": "See {IERC20-allowance}."
      },
      "approve(address,uint256)": {
        "details": "See {IERC20-approve}. NOTE: If `amount` is the maximum `uint256`, the allowance is not updated on `transferFrom`. This is semantically equivalent to an infinite approval. Requirements: - `spender` cannot be the zero address."
      },
      "assetType()": {
        "returns": {
          "_0": "assetType {string} type of the asset"
        }
      },
      "balanceOf(address)": {
        "details": "See {IERC20-balanceOf}."
      },
      "batchBurn(address[],uint256[])": {
        "params": {
          "accounts": "{address[]} wallets to burn the tokens",
          "amounts": "{uint256[]} amounts to burn"
        }
      },
      "batchForcedTransfer(address[],address[],uint256[])": {
        "params": {
          "amounts": "{uint256[]} amounts of tokens to be transfered",
          "fromList": "{address[]} from wallet to transfer",
          "toList": "{address[]} to wallet to transfer"
        }
      },
      "batchFreezePartialTokens(address[],uint256[])": {
        "params": {
          "amounts": "{uint256[]} of amounts of token to be unfreezed",
          "userAddresses": "{address[]} of user addresses"
        }
      },
      "batchMint(address[],uint256[])": {
        "params": {
          "amounts": "{uint256[]} amount to mint",
          "toList": "{address[]} wallets to send the tokens"
        },
        "returns": {
          "_0": "result {boolean} success or failure"
        }
      },
      "batchSetAddressFrozen(address[],bool[])": {
        "params": {
          "freeze": "{bool[]} representing freezing",
          "userAddresses": "{address[]} of user addresses"
        }
      },
      "batchTransfer(address[],uint256[])": {
        "details": "Transfers and send `amount` tokens from `_msgSender()` to `toList` Returns a boolean value indicating whether the operation succeeded. Emits a {Transfer} event.",
        "params": {
          "amounts": "{uint256[]} amounts to transfer",
          "toList": "{address[]} wallets to transfer the tokens"
        }
      },
      "batchUnfreezePartialTokens(address[],uint256[])": {
        "params": {
          "amounts": "{uint256[]} of amounts of token to be unfreezed",
          "userAddresses": "{address[]} of user addresses"
        }
      },
      "burn(address,uint256)": {
        "params": {
          "account": "{address} wallet to burn the token",
          "amount": "{uint256} amount to burn"
        }
      },
      "code()": {
        "returns": {
          "_0": "code {string} code of the token"
        }
      },
      "constructor": {
        "params": {
          "tokenInput": "{TokenLibrary.TokenInput} the input token containing the name, code, assetType"
        }
      },
      "decimals()": {
        "details": "Returns the number of decimals used to get its user representation. For example, if `decimals` equals `2`, a balance of `505` tokens should be displayed to a user as `5.05` (`505 / 10 ** 2`). Tokens usually opt for a value of 18, imitating the relationship between Ether and Wei. This is the value {ERC20} uses, unless this function is overridden; NOTE: This information is only used for _display_ purposes: it in no way affects any of the arithmetic of the contract, including {IERC20-balanceOf} and {IERC20-transfer}."
      },
      "decreaseAllowance(address,uint256)": {
        "details": "Atomically decreases the allowance granted to `spender` by the caller. This is an alternative to {approve} that can be used as a mitigation for problems described in {IERC20-approve}. Emits an {Approval} event indicating the updated allowance. Requirements: - `spender` cannot be the zero address. - `spender` must have allowance for the caller of at least `subtractedValue`."
      },
      "eligibleBalanceOf(address)": {
        "params": {
          "account": "{address} wallet address of account you want to get not freezed balance"
        },
        "returns": {
          "_0": "balance {uint256} balance of wallet address totaly open"
        }
      },
      "forcedTransfer(address,address,uint256)": {
        "params": {
          "amount": "{uint256} amounts of tokens to be transfered",
          "from": "{address} from wallet to transfer",
          "to": "{address} to wallet to transfer"
        }
      },
      "freezePartialTokens(address,uint256)": {
        "params": {
          "amount": "{uint256} of token to be unfreezed",
          "userAddress": "{address} of the user"
        }
      },
      "getFreezedTokensPeriod(address)": {
        "params": {
          "userAddress": "{address} of the user freezed tokens"
        },
        "returns": {
          "_0": "freezedPeriod {TokenLibrary.FreezePeriod} struct of freezed tokens in period"
        }
      },
      "getFrozenTokens(address)": {
        "params": {
          "userAddress": "{address} of the user"
        },
        "returns": {
          "_0": "frozenTokens {uint256} amount of freezed tokens"
        }
      },
      "increaseAllowance(address,uint256)": {
        "details": "Atomically increases the allowance granted to `spender` by the caller. This is an alternative to {approve} that can be used as a mitigation for problems described in {IERC20-approve}. Emits an {Approval} event indicating the updated allowance. Requirements: - `spender` cannot be the zero address."
      },
      "isFrozen(address)": {
        "params": {
          "userAddress": "{address} of the user"
        },
        "returns": {
          "_0": "frozen {bool} represents freezed wallet address"
        }
      },
      "mint(address,uint256)": {
        "params": {
          "amount": "{uint256} amount to mint",
          "to": "{address} wallet to send the token"
        },
        "returns": {
          "_0": "result {boolean} success or failure"
        }
      },
      "myFreezedTokensPeriod()": {
        "returns": {
          "_0": "freezedPeriod {TokenLibrary.FreezePeriod} struct of freezed tokens in period"
        }
      },
      "name()": {
        "details": "Returns the name of the token."
      },
      "owner()": {
        "returns": {
          "_0": "owner {address} wallet addres from owner"
        }
      },
      "pause(uint256)": {
        "params": {
          "_paused": "{uint256} represents date when transfer restart"
        }
      },
      "recoveryOldBalances(address[],uint256[])": {
        "params": {
          "addresses": "{address[]} of the owners of the securities",
          "balances": "{uint256[]} amout of tokens"
        }
      },
      "recoveryOldTransfers((string,address,address,uint256,uint256)[])": {
        "params": {
          "oldTransfers": "{TokenLibrary.Transfer[]} Stuct of the old transfers we recovery"
        }
      },
      "redeemFreezedTokens()": {
        "returns": {
          "_0": "success {bool} success of redeeming tokens"
        }
      },
      "renounceOwnership()": {
        "details": "Leaves the contract without owner. It will not be possible to call `onlyOwner` functions anymore. Can only be called by the current owner. NOTE: Renouncing ownership will leave the contract without an owner, thereby removing any functionality that is only available to the owner."
      },
      "setAddressFrozen(address,bool)": {
        "params": {
          "freeze": "{boolean} representing freezing",
          "userAddress": "{address} of the user"
        }
      },
      "setFreezedTokensPeriod(uint256,uint256,uint256,address)": {
        "params": {
          "amountFreezed": "{uint256} Amount of frozen token",
          "endTime": "{uint256} End time of freezing partial token",
          "startTime": "{uint256} Start time of freezing partial token",
          "userAddress": "{address} Address wallet of the user frozen token"
        }
      },
      "symbol()": {
        "details": "Returns the symbol of the token, usually a shorter version of the name."
      },
      "totalSupply()": {
        "details": "See {IERC20-totalSupply}."
      },
      "transfer(address,uint256)": {
        "details": "Transfer and send `amount` tokens from `_msgSender()` to `to` Returns a boolean value indicating whether the operation succeeded. Emits a {Transfer} event.",
        "params": {
          "amount": "{uint256[]} amount to transfer",
          "to": "{address} wallet to transfer the token"
        }
      },
      "transferFrom(address,address,uint256)": {
        "details": "See {IERC20-transferFrom}."
      },
      "transferOwnership(address)": {
        "params": {
          "account": "{address} address of the new owner"
        }
      },
      "transfers()": {
        "returns": {
          "_0": "result {TokenLibrary.Transfer[]} array of register transfers movements"
        }
      },
      "unfreezePartialTokens(address,uint256)": {
        "params": {
          "amount": "{uint256} of token to be unfreezed",
          "userAddress": "{address} of the user"
        }
      },
      "unlockableTokensPeriod()": {
        "returns": {
          "_0": "unlockable {uint256} of unlockable tokens freezed in period "
        }
      },
      "version()": {
        "returns": {
          "_0": "TOKEN_VERSION {string} version of the smart contract"
        }
      }
    },
    "version": 1
  },
  "userdoc": {
    "kind": "user",
    "methods": {
      "assetType()": {
        "notice": "Returns the type of the token."
      },
      "batchBurn(address[],uint256[])": {
        "notice": "Remove `amounts` tokens from `accounts` Returns a boolean value indicating whether the operation succeeded. Emits a {Transfer} event."
      },
      "batchForcedTransfer(address[],address[],uint256[])": {
        "notice": "Force an array of transfer by agent"
      },
      "batchFreezePartialTokens(address[],uint256[])": {
        "notice": "Freeze patial tokens of multiples wallets"
      },
      "batchMint(address[],uint256[])": {
        "notice": "Mint and send `amounts` tokens to `toList` Returns a boolean value indicating whether the operation succeeded. Emits a {Transfer} event by {to}."
      },
      "batchSetAddressFrozen(address[],bool[])": {
        "notice": "Freeze totality tokens of multiples wallet addresses"
      },
      "batchUnfreezePartialTokens(address[],uint256[])": {
        "notice": "Unfreeze patial tokens of multiples wallets"
      },
      "burn(address,uint256)": {
        "notice": "Remove `amount` tokens from `account` Returns a boolean value indicating whether the operation succeeded. Emits a {Transfer} event."
      },
      "code()": {
        "notice": "Returns the symbol of the token, usually a shorter version of the name."
      },
      "eligibleBalanceOf(address)": {
        "notice": "return not freezed tokens from an address wallet"
      },
      "forcedTransfer(address,address,uint256)": {
        "notice": "Force an address wallet to transfer by agent"
      },
      "freezePartialTokens(address,uint256)": {
        "notice": "Freeze patial tokens of single wallet"
      },
      "getFreezedTokensPeriod(address)": {
        "notice": "Retrieve struct of freezed tokens in period of one wallet address by agent"
      },
      "getFrozenTokens(address)": {
        "notice": "Return freezed tokens amount of wallet address"
      },
      "isFrozen(address)": {
        "notice": "Return freezed or not wallet address tokens"
      },
      "mint(address,uint256)": {
        "notice": "Mint and send `amount` tokens to `to` Returns a boolean value indicating whether the operation succeeded. Emits a {Transfer} event."
      },
      "myFreezedTokensPeriod()": {
        "notice": "Retrieve struct of freezed tokens in period of msg.sender"
      },
      "owner()": {
        "notice": "Returns the address wallet of the smart contract owner."
      },
      "pause(uint256)": {
        "notice": "Pause transfer tokens of smart contract"
      },
      "recoveryOldBalances(address[],uint256[])": {
        "notice": "Recovers all balances from a previous asset that were not issued on the blockchain"
      },
      "recoveryOldTransfers((string,address,address,uint256,uint256)[])": {
        "notice": "Recovers all transfers from a previous asset that were not issued on the blockchain"
      },
      "redeemFreezedTokens()": {
        "notice": "Redeem unlockable freezed tokens periodically"
      },
      "setAddressFrozen(address,bool)": {
        "notice": "Freeze totality tokens of single wallet address"
      },
      "setFreezedTokensPeriod(uint256,uint256,uint256,address)": {
        "notice": "Freeze token of one address wallet periodically"
      },
      "stopRecovery()": {
        "notice": "Definitely stop the recovery of old transfers"
      },
      "transferOwnership(address)": {
        "notice": "Transfer ownership of the smart contract"
      },
      "transfers()": {
        "notice": "Get movements of the assets"
      },
      "unfreezePartialTokens(address,uint256)": {
        "notice": "Unfreeze patial tokens of single wallet"
      },
      "unlockableTokensPeriod()": {
        "notice": "Get unlockable tokens freezed in period for msg.sender"
      },
      "unpause()": {
        "notice": "Unpause transfer tokens of smart contract"
      },
      "version()": {
        "notice": "Returns the version of the token contract"
      }
    },
    "version": 1
  }
}