{
  "contractName": "SecurityToken",
  "abi": [
    {
      "inputs": [
        {
          "internalType": "string",
          "name": "_name",
          "type": "string"
        },
        {
          "internalType": "string",
          "name": "_code",
          "type": "string"
        }
      ],
      "stateMutability": "nonpayable",
      "type": "constructor"
    },
    {
      "inputs": [
        {
          "internalType": "address",
          "name": "account",
          "type": "address"
        },
        {
          "internalType": "uint256",
          "name": "accountBalance",
          "type": "uint256"
        },
        {
          "internalType": "uint256",
          "name": "amount",
          "type": "uint256"
        }
      ],
      "name": "BurnAmountExceedsBalance",
      "type": "error"
    },
    {
      "inputs": [
        {
          "internalType": "address",
          "name": "account",
          "type": "address"
        }
      ],
      "name": "BurnFromZeroAddress",
      "type": "error"
    },
    {
      "inputs": [
        {
          "internalType": "address",
          "name": "account",
          "type": "address"
        },
        {
          "internalType": "uint256",
          "name": "previousBalance",
          "type": "uint256"
        },
        {
          "internalType": "uint256",
          "name": "currentBalance",
          "type": "uint256"
        },
        {
          "internalType": "uint256",
          "name": "amount",
          "type": "uint256"
        }
      ],
      "name": "MintDoesNotWork",
      "type": "error"
    },
    {
      "inputs": [
        {
          "internalType": "address",
          "name": "account",
          "type": "address"
        }
      ],
      "name": "MintFromZeroAddress",
      "type": "error"
    },
    {
      "inputs": [
        {
          "internalType": "address",
          "name": "sender",
          "type": "address"
        }
      ],
      "name": "NotAgent",
      "type": "error"
    },
    {
      "inputs": [
        {
          "internalType": "address",
          "name": "sender",
          "type": "address"
        }
      ],
      "name": "NotReader",
      "type": "error"
    },
    {
      "inputs": [
        {
          "internalType": "address",
          "name": "sender",
          "type": "address"
        },
        {
          "internalType": "bytes32",
          "name": "role",
          "type": "bytes32"
        }
      ],
      "name": "NotTheOwner",
      "type": "error"
    },
    {
      "inputs": [
        {
          "internalType": "address",
          "name": "sender",
          "type": "address"
        }
      ],
      "name": "NotWriter",
      "type": "error"
    },
    {
      "inputs": [
        {
          "internalType": "uint256",
          "name": "fromBalance",
          "type": "uint256"
        },
        {
          "internalType": "address",
          "name": "from",
          "type": "address"
        },
        {
          "internalType": "uint256",
          "name": "amount",
          "type": "uint256"
        }
      ],
      "name": "TransferAmountExceedsBalance",
      "type": "error"
    },
    {
      "inputs": [
        {
          "internalType": "address",
          "name": "from",
          "type": "address"
        }
      ],
      "name": "TransferFromZeroAddress",
      "type": "error"
    },
    {
      "inputs": [
        {
          "internalType": "address",
          "name": "to",
          "type": "address"
        }
      ],
      "name": "TransferToZeroAddress",
      "type": "error"
    },
    {
      "anonymous": false,
      "inputs": [
        {
          "indexed": true,
          "internalType": "address",
          "name": "userAddress",
          "type": "address"
        },
        {
          "indexed": true,
          "internalType": "bool",
          "name": "freeze",
          "type": "bool"
        },
        {
          "indexed": true,
          "internalType": "address",
          "name": "sender",
          "type": "address"
        }
      ],
      "name": "AddressFrozen",
      "type": "event"
    },
    {
      "anonymous": false,
      "inputs": [
        {
          "indexed": true,
          "internalType": "address",
          "name": "_agent",
          "type": "address"
        }
      ],
      "name": "AgentAdded",
      "type": "event"
    },
    {
      "anonymous": false,
      "inputs": [
        {
          "indexed": true,
          "internalType": "address",
          "name": "_agent",
          "type": "address"
        }
      ],
      "name": "AgentRemoved",
      "type": "event"
    },
    {
      "anonymous": false,
      "inputs": [
        {
          "indexed": true,
          "internalType": "address",
          "name": "owner",
          "type": "address"
        },
        {
          "indexed": true,
          "internalType": "address",
          "name": "spender",
          "type": "address"
        },
        {
          "indexed": false,
          "internalType": "uint256",
          "name": "value",
          "type": "uint256"
        }
      ],
      "name": "Approval",
      "type": "event"
    },
    {
      "anonymous": false,
      "inputs": [
        {
          "indexed": true,
          "internalType": "address",
          "name": "previousOwner",
          "type": "address"
        },
        {
          "indexed": true,
          "internalType": "address",
          "name": "newOwner",
          "type": "address"
        }
      ],
      "name": "OwnershipTransferred",
      "type": "event"
    },
    {
      "anonymous": false,
      "inputs": [
        {
          "indexed": true,
          "internalType": "address",
          "name": "sender",
          "type": "address"
        },
        {
          "indexed": true,
          "internalType": "uint256",
          "name": "paused",
          "type": "uint256"
        }
      ],
      "name": "Paused",
      "type": "event"
    },
    {
      "anonymous": false,
      "inputs": [
        {
          "indexed": true,
          "internalType": "address",
          "name": "_reader",
          "type": "address"
        }
      ],
      "name": "ReaderAdded",
      "type": "event"
    },
    {
      "anonymous": false,
      "inputs": [
        {
          "indexed": true,
          "internalType": "address",
          "name": "_reader",
          "type": "address"
        }
      ],
      "name": "ReaderRemoved",
      "type": "event"
    },
    {
      "anonymous": false,
      "inputs": [
        {
          "indexed": true,
          "internalType": "address",
          "name": "userAddress",
          "type": "address"
        },
        {
          "indexed": true,
          "internalType": "uint256",
          "name": "amount",
          "type": "uint256"
        }
      ],
      "name": "TokensFrozen",
      "type": "event"
    },
    {
      "anonymous": false,
      "inputs": [
        {
          "indexed": true,
          "internalType": "address",
          "name": "userAddress",
          "type": "address"
        },
        {
          "indexed": true,
          "internalType": "uint256",
          "name": "startTime",
          "type": "uint256"
        },
        {
          "indexed": true,
          "internalType": "uint256",
          "name": "endTime",
          "type": "uint256"
        },
        {
          "indexed": false,
          "internalType": "uint256",
          "name": "amount",
          "type": "uint256"
        },
        {
          "indexed": false,
          "internalType": "address",
          "name": "signer",
          "type": "address"
        }
      ],
      "name": "TokensFrozenPeriod",
      "type": "event"
    },
    {
      "anonymous": false,
      "inputs": [
        {
          "indexed": true,
          "internalType": "address",
          "name": "userAddress",
          "type": "address"
        },
        {
          "indexed": true,
          "internalType": "uint256",
          "name": "amount",
          "type": "uint256"
        }
      ],
      "name": "TokensUnfrozen",
      "type": "event"
    },
    {
      "anonymous": false,
      "inputs": [
        {
          "indexed": true,
          "internalType": "address",
          "name": "userAddress",
          "type": "address"
        },
        {
          "indexed": true,
          "internalType": "uint256",
          "name": "amount",
          "type": "uint256"
        }
      ],
      "name": "TokensUnfrozenPeriod",
      "type": "event"
    },
    {
      "anonymous": false,
      "inputs": [
        {
          "indexed": false,
          "internalType": "string",
          "name": "eventType",
          "type": "string"
        },
        {
          "indexed": true,
          "internalType": "address",
          "name": "from",
          "type": "address"
        },
        {
          "indexed": true,
          "internalType": "address",
          "name": "to",
          "type": "address"
        },
        {
          "indexed": false,
          "internalType": "uint256",
          "name": "value",
          "type": "uint256"
        }
      ],
      "name": "Transfer",
      "type": "event"
    },
    {
      "anonymous": false,
      "inputs": [
        {
          "indexed": true,
          "internalType": "address",
          "name": "from",
          "type": "address"
        },
        {
          "indexed": true,
          "internalType": "address",
          "name": "to",
          "type": "address"
        },
        {
          "indexed": false,
          "internalType": "uint256",
          "name": "value",
          "type": "uint256"
        }
      ],
      "name": "Transfer",
      "type": "event"
    },
    {
      "anonymous": false,
      "inputs": [
        {
          "indexed": true,
          "internalType": "address",
          "name": "oldAccount",
          "type": "address"
        },
        {
          "indexed": true,
          "internalType": "address",
          "name": "newAccount",
          "type": "address"
        }
      ],
      "name": "TransferOwnership",
      "type": "event"
    },
    {
      "anonymous": false,
      "inputs": [
        {
          "indexed": true,
          "internalType": "address",
          "name": "_writer",
          "type": "address"
        }
      ],
      "name": "WriterAdded",
      "type": "event"
    },
    {
      "anonymous": false,
      "inputs": [
        {
          "indexed": true,
          "internalType": "address",
          "name": "_writer",
          "type": "address"
        }
      ],
      "name": "WriterRemoved",
      "type": "event"
    },
    {
      "inputs": [],
      "name": "_now",
      "outputs": [
        {
          "internalType": "uint256",
          "name": "",
          "type": "uint256"
        }
      ],
      "stateMutability": "view",
      "type": "function"
    },
    {
      "inputs": [
        {
          "internalType": "address",
          "name": "_agent",
          "type": "address"
        }
      ],
      "name": "addAgent",
      "outputs": [],
      "stateMutability": "nonpayable",
      "type": "function"
    },
    {
      "inputs": [
        {
          "internalType": "address",
          "name": "_reader",
          "type": "address"
        }
      ],
      "name": "addReader",
      "outputs": [],
      "stateMutability": "nonpayable",
      "type": "function"
    },
    {
      "inputs": [
        {
          "internalType": "address",
          "name": "_writer",
          "type": "address"
        }
      ],
      "name": "addWriter",
      "outputs": [],
      "stateMutability": "nonpayable",
      "type": "function"
    },
    {
      "inputs": [
        {
          "internalType": "address",
          "name": "owner",
          "type": "address"
        },
        {
          "internalType": "address",
          "name": "spender",
          "type": "address"
        }
      ],
      "name": "allowance",
      "outputs": [
        {
          "internalType": "uint256",
          "name": "",
          "type": "uint256"
        }
      ],
      "stateMutability": "view",
      "type": "function"
    },
    {
      "inputs": [
        {
          "internalType": "address",
          "name": "spender",
          "type": "address"
        },
        {
          "internalType": "uint256",
          "name": "amount",
          "type": "uint256"
        }
      ],
      "name": "approve",
      "outputs": [
        {
          "internalType": "bool",
          "name": "",
          "type": "bool"
        }
      ],
      "stateMutability": "nonpayable",
      "type": "function"
    },
    {
      "inputs": [
        {
          "internalType": "address",
          "name": "account",
          "type": "address"
        }
      ],
      "name": "balanceOf",
      "outputs": [
        {
          "internalType": "uint256",
          "name": "",
          "type": "uint256"
        }
      ],
      "stateMutability": "view",
      "type": "function"
    },
    {
      "inputs": [],
      "name": "decimals",
      "outputs": [
        {
          "internalType": "uint8",
          "name": "",
          "type": "uint8"
        }
      ],
      "stateMutability": "view",
      "type": "function"
    },
    {
      "inputs": [
        {
          "internalType": "address",
          "name": "spender",
          "type": "address"
        },
        {
          "internalType": "uint256",
          "name": "subtractedValue",
          "type": "uint256"
        }
      ],
      "name": "decreaseAllowance",
      "outputs": [
        {
          "internalType": "bool",
          "name": "",
          "type": "bool"
        }
      ],
      "stateMutability": "nonpayable",
      "type": "function"
    },
    {
      "inputs": [
        {
          "internalType": "address",
          "name": "spender",
          "type": "address"
        },
        {
          "internalType": "uint256",
          "name": "addedValue",
          "type": "uint256"
        }
      ],
      "name": "increaseAllowance",
      "outputs": [
        {
          "internalType": "bool",
          "name": "",
          "type": "bool"
        }
      ],
      "stateMutability": "nonpayable",
      "type": "function"
    },
    {
      "inputs": [
        {
          "internalType": "address",
          "name": "_agent",
          "type": "address"
        }
      ],
      "name": "isAgent",
      "outputs": [
        {
          "internalType": "bool",
          "name": "",
          "type": "bool"
        }
      ],
      "stateMutability": "view",
      "type": "function"
    },
    {
      "inputs": [
        {
          "internalType": "address",
          "name": "_reader",
          "type": "address"
        }
      ],
      "name": "isReader",
      "outputs": [
        {
          "internalType": "bool",
          "name": "",
          "type": "bool"
        }
      ],
      "stateMutability": "view",
      "type": "function"
    },
    {
      "inputs": [
        {
          "internalType": "address",
          "name": "_writer",
          "type": "address"
        }
      ],
      "name": "isWriter",
      "outputs": [
        {
          "internalType": "bool",
          "name": "",
          "type": "bool"
        }
      ],
      "stateMutability": "view",
      "type": "function"
    },
    {
      "inputs": [],
      "name": "name",
      "outputs": [
        {
          "internalType": "string",
          "name": "",
          "type": "string"
        }
      ],
      "stateMutability": "view",
      "type": "function"
    },
    {
      "inputs": [
        {
          "internalType": "address",
          "name": "_agent",
          "type": "address"
        }
      ],
      "name": "removeAgent",
      "outputs": [],
      "stateMutability": "nonpayable",
      "type": "function"
    },
    {
      "inputs": [
        {
          "internalType": "address",
          "name": "_reader",
          "type": "address"
        }
      ],
      "name": "removeReader",
      "outputs": [],
      "stateMutability": "nonpayable",
      "type": "function"
    },
    {
      "inputs": [
        {
          "internalType": "address",
          "name": "_writer",
          "type": "address"
        }
      ],
      "name": "removeWriter",
      "outputs": [],
      "stateMutability": "nonpayable",
      "type": "function"
    },
    {
      "inputs": [],
      "name": "renounceOwnership",
      "outputs": [],
      "stateMutability": "nonpayable",
      "type": "function"
    },
    {
      "inputs": [],
      "name": "symbol",
      "outputs": [
        {
          "internalType": "string",
          "name": "",
          "type": "string"
        }
      ],
      "stateMutability": "view",
      "type": "function"
    },
    {
      "inputs": [],
      "name": "totalSupply",
      "outputs": [
        {
          "internalType": "uint256",
          "name": "",
          "type": "uint256"
        }
      ],
      "stateMutability": "view",
      "type": "function"
    },
    {
      "inputs": [],
      "name": "version",
      "outputs": [
        {
          "internalType": "string",
          "name": "",
          "type": "string"
        }
      ],
      "stateMutability": "pure",
      "type": "function"
    },
    {
      "inputs": [],
      "name": "owner",
      "outputs": [
        {
          "internalType": "address",
          "name": "",
          "type": "address"
        }
      ],
      "stateMutability": "view",
      "type": "function"
    },
    {
      "inputs": [],
      "name": "transfers",
      "outputs": [
        {
          "components": [
            {
              "internalType": "string",
              "name": "transferType",
              "type": "string"
            },
            {
              "internalType": "address",
              "name": "from",
              "type": "address"
            },
            {
              "internalType": "address",
              "name": "to",
              "type": "address"
            },
            {
              "internalType": "uint256",
              "name": "amount",
              "type": "uint256"
            },
            {
              "internalType": "uint256",
              "name": "date",
              "type": "uint256"
            }
          ],
          "internalType": "struct TokenLibrary.Transfer[]",
          "name": "",
          "type": "tuple[]"
        }
      ],
      "stateMutability": "view",
      "type": "function"
    },
    {
      "inputs": [
        {
          "internalType": "address",
          "name": "account",
          "type": "address"
        }
      ],
      "name": "transferOwnership",
      "outputs": [],
      "stateMutability": "nonpayable",
      "type": "function"
    },
    {
      "inputs": [
        {
          "internalType": "address",
          "name": "account",
          "type": "address"
        }
      ],
      "name": "eligibleBalanceOf",
      "outputs": [
        {
          "internalType": "uint256",
          "name": "",
          "type": "uint256"
        }
      ],
      "stateMutability": "view",
      "type": "function"
    },
    {
      "inputs": [
        {
          "internalType": "address",
          "name": "to",
          "type": "address"
        },
        {
          "internalType": "uint256",
          "name": "amount",
          "type": "uint256"
        }
      ],
      "name": "mint",
      "outputs": [
        {
          "internalType": "bool",
          "name": "",
          "type": "bool"
        }
      ],
      "stateMutability": "nonpayable",
      "type": "function"
    },
    {
      "inputs": [
        {
          "internalType": "address[]",
          "name": "toList",
          "type": "address[]"
        },
        {
          "internalType": "uint256[]",
          "name": "amounts",
          "type": "uint256[]"
        }
      ],
      "name": "batchMint",
      "outputs": [
        {
          "internalType": "bool",
          "name": "",
          "type": "bool"
        }
      ],
      "stateMutability": "nonpayable",
      "type": "function"
    },
    {
      "inputs": [
        {
          "internalType": "address",
          "name": "account",
          "type": "address"
        },
        {
          "internalType": "uint256",
          "name": "amount",
          "type": "uint256"
        }
      ],
      "name": "burn",
      "outputs": [
        {
          "internalType": "bool",
          "name": "",
          "type": "bool"
        }
      ],
      "stateMutability": "nonpayable",
      "type": "function"
    },
    {
      "inputs": [
        {
          "internalType": "address[]",
          "name": "accounts",
          "type": "address[]"
        },
        {
          "internalType": "uint256[]",
          "name": "amounts",
          "type": "uint256[]"
        }
      ],
      "name": "batchBurn",
      "outputs": [],
      "stateMutability": "nonpayable",
      "type": "function"
    },
    {
      "inputs": [
        {
          "internalType": "address",
          "name": "to",
          "type": "address"
        },
        {
          "internalType": "uint256",
          "name": "amount",
          "type": "uint256"
        }
      ],
      "name": "transfer",
      "outputs": [
        {
          "internalType": "bool",
          "name": "",
          "type": "bool"
        }
      ],
      "stateMutability": "nonpayable",
      "type": "function"
    },
    {
      "inputs": [
        {
          "internalType": "address[]",
          "name": "toList",
          "type": "address[]"
        },
        {
          "internalType": "uint256[]",
          "name": "amounts",
          "type": "uint256[]"
        }
      ],
      "name": "batchTransfer",
      "outputs": [],
      "stateMutability": "nonpayable",
      "type": "function"
    },
    {
      "inputs": [
        {
          "internalType": "address",
          "name": "from",
          "type": "address"
        },
        {
          "internalType": "address",
          "name": "to",
          "type": "address"
        },
        {
          "internalType": "uint256",
          "name": "amount",
          "type": "uint256"
        }
      ],
      "name": "transferFrom",
      "outputs": [
        {
          "internalType": "bool",
          "name": "",
          "type": "bool"
        }
      ],
      "stateMutability": "nonpayable",
      "type": "function"
    },
    {
      "inputs": [
        {
          "internalType": "address",
          "name": "operator",
          "type": "address"
        },
        {
          "internalType": "address",
          "name": "from",
          "type": "address"
        },
        {
          "internalType": "address",
          "name": "to",
          "type": "address"
        },
        {
          "internalType": "uint256",
          "name": "value",
          "type": "uint256"
        }
      ],
      "name": "canTransfer",
      "outputs": [
        {
          "internalType": "bytes1",
          "name": "",
          "type": "bytes1"
        }
      ],
      "stateMutability": "view",
      "type": "function"
    },
    {
      "inputs": [
        {
          "internalType": "address",
          "name": "from",
          "type": "address"
        },
        {
          "internalType": "address",
          "name": "to",
          "type": "address"
        },
        {
          "internalType": "uint256",
          "name": "amount",
          "type": "uint256"
        }
      ],
      "name": "forcedTransfer",
      "outputs": [
        {
          "internalType": "bool",
          "name": "",
          "type": "bool"
        }
      ],
      "stateMutability": "nonpayable",
      "type": "function"
    },
    {
      "inputs": [
        {
          "internalType": "address[]",
          "name": "fromList",
          "type": "address[]"
        },
        {
          "internalType": "address[]",
          "name": "toList",
          "type": "address[]"
        },
        {
          "internalType": "uint256[]",
          "name": "amounts",
          "type": "uint256[]"
        }
      ],
      "name": "batchForcedTransfer",
      "outputs": [],
      "stateMutability": "nonpayable",
      "type": "function"
    },
    {
      "inputs": [
        {
          "internalType": "uint256",
          "name": "_paused",
          "type": "uint256"
        }
      ],
      "name": "pause",
      "outputs": [],
      "stateMutability": "nonpayable",
      "type": "function"
    },
    {
      "inputs": [],
      "name": "unpause",
      "outputs": [],
      "stateMutability": "nonpayable",
      "type": "function"
    },
    {
      "inputs": [
        {
          "internalType": "address",
          "name": "userAddress",
          "type": "address"
        }
      ],
      "name": "isFrozen",
      "outputs": [
        {
          "internalType": "bool",
          "name": "",
          "type": "bool"
        }
      ],
      "stateMutability": "view",
      "type": "function"
    },
    {
      "inputs": [
        {
          "internalType": "address",
          "name": "userAddress",
          "type": "address"
        }
      ],
      "name": "getFrozenTokens",
      "outputs": [
        {
          "internalType": "uint256",
          "name": "",
          "type": "uint256"
        }
      ],
      "stateMutability": "view",
      "type": "function"
    },
    {
      "inputs": [
        {
          "internalType": "address",
          "name": "userAddress",
          "type": "address"
        },
        {
          "internalType": "bool",
          "name": "freeze",
          "type": "bool"
        }
      ],
      "name": "setAddressFrozen",
      "outputs": [],
      "stateMutability": "nonpayable",
      "type": "function"
    },
    {
      "inputs": [
        {
          "internalType": "address[]",
          "name": "userAddresses",
          "type": "address[]"
        },
        {
          "internalType": "bool[]",
          "name": "freeze",
          "type": "bool[]"
        }
      ],
      "name": "batchSetAddressFrozen",
      "outputs": [],
      "stateMutability": "nonpayable",
      "type": "function"
    },
    {
      "inputs": [
        {
          "internalType": "address",
          "name": "userAddress",
          "type": "address"
        },
        {
          "internalType": "uint256",
          "name": "amount",
          "type": "uint256"
        }
      ],
      "name": "freezePartialTokens",
      "outputs": [],
      "stateMutability": "nonpayable",
      "type": "function"
    },
    {
      "inputs": [
        {
          "internalType": "address[]",
          "name": "userAddresses",
          "type": "address[]"
        },
        {
          "internalType": "uint256[]",
          "name": "amounts",
          "type": "uint256[]"
        }
      ],
      "name": "batchFreezePartialTokens",
      "outputs": [],
      "stateMutability": "nonpayable",
      "type": "function"
    },
    {
      "inputs": [
        {
          "internalType": "address",
          "name": "userAddress",
          "type": "address"
        },
        {
          "internalType": "uint256",
          "name": "amount",
          "type": "uint256"
        }
      ],
      "name": "unfreezePartialTokens",
      "outputs": [],
      "stateMutability": "nonpayable",
      "type": "function"
    },
    {
      "inputs": [
        {
          "internalType": "address[]",
          "name": "userAddresses",
          "type": "address[]"
        },
        {
          "internalType": "uint256[]",
          "name": "amounts",
          "type": "uint256[]"
        }
      ],
      "name": "batchUnfreezePartialTokens",
      "outputs": [],
      "stateMutability": "nonpayable",
      "type": "function"
    },
    {
      "inputs": [
        {
          "internalType": "uint256",
          "name": "startTime",
          "type": "uint256"
        },
        {
          "internalType": "uint256",
          "name": "endTime",
          "type": "uint256"
        },
        {
          "internalType": "uint256",
          "name": "amountFreezed",
          "type": "uint256"
        },
        {
          "internalType": "address",
          "name": "userAddress",
          "type": "address"
        }
      ],
      "name": "setFreezedTokensPeriod",
      "outputs": [],
      "stateMutability": "nonpayable",
      "type": "function"
    },
    {
      "inputs": [],
      "name": "myFreezedTokensPeriod",
      "outputs": [
        {
          "components": [
            {
              "internalType": "uint256",
              "name": "startTime",
              "type": "uint256"
            },
            {
              "internalType": "uint256",
              "name": "endTime",
              "type": "uint256"
            },
            {
              "internalType": "uint256",
              "name": "amountFreezed",
              "type": "uint256"
            }
          ],
          "internalType": "struct TokenLibrary.FreezePeriod",
          "name": "",
          "type": "tuple"
        }
      ],
      "stateMutability": "view",
      "type": "function"
    },
    {
      "inputs": [
        {
          "internalType": "address",
          "name": "userAddress",
          "type": "address"
        }
      ],
      "name": "getFreezedTokensPeriod",
      "outputs": [
        {
          "components": [
            {
              "internalType": "uint256",
              "name": "startTime",
              "type": "uint256"
            },
            {
              "internalType": "uint256",
              "name": "endTime",
              "type": "uint256"
            },
            {
              "internalType": "uint256",
              "name": "amountFreezed",
              "type": "uint256"
            }
          ],
          "internalType": "struct TokenLibrary.FreezePeriod",
          "name": "",
          "type": "tuple"
        }
      ],
      "stateMutability": "view",
      "type": "function"
    },
    {
      "inputs": [],
      "name": "unlockableTokensPeriod",
      "outputs": [
        {
          "internalType": "uint256",
          "name": "",
          "type": "uint256"
        }
      ],
      "stateMutability": "view",
      "type": "function"
    },
    {
      "inputs": [],
      "name": "redeemFreezedTokens",
      "outputs": [
        {
          "internalType": "bool",
          "name": "",
          "type": "bool"
        }
      ],
      "stateMutability": "nonpayable",
      "type": "function"
    }
  ],
  "bytecode": "0x60806040523480156200001157600080fd5b50604051620031f8380380620031f8833981016040819052620000349162000263565b8151829082906200004d906003906020850190620000f0565b50805162000063906004906020840190620000f0565b505050620000806200007a6200009a60201b60201c565b6200009e565b5050600b80546001600160a01b031916331790556200030a565b3390565b600580546001600160a01b038381166001600160a01b0319831681179093556040519116919082907f8be0079c531659141344cd1fd0a4f28419497f9722a3daafe3b4186f6b6457e090600090a35050565b828054620000fe90620002cd565b90600052602060002090601f0160209004810192826200012257600085556200016d565b82601f106200013d57805160ff19168380011785556200016d565b828001600101855582156200016d579182015b828111156200016d57825182559160200191906001019062000150565b506200017b9291506200017f565b5090565b5b808211156200017b576000815560010162000180565b634e487b7160e01b600052604160045260246000fd5b600082601f830112620001be57600080fd5b81516001600160401b0380821115620001db57620001db62000196565b604051601f8301601f19908116603f0116810190828211818310171562000206576200020662000196565b816040528381526020925086838588010111156200022357600080fd5b600091505b8382101562000247578582018301518183018401529082019062000228565b83821115620002595760008385830101525b9695505050505050565b600080604083850312156200027757600080fd5b82516001600160401b03808211156200028f57600080fd5b6200029d86838701620001ac565b93506020850151915080821115620002b457600080fd5b50620002c385828601620001ac565b9150509250929050565b600181811c90821680620002e257607f821691505b602082108114156200030457634e487b7160e01b600052602260045260246000fd5b50919050565b612ede806200031a6000396000f3fe608060405234801561001057600080fd5b50600436106102d65760003560e01c806370a0823111610182578063a9059cbb116100e9578063c7464bf1116100a2578063dd62ed3e1161007c578063dd62ed3e1461067b578063e58398361461068e578063f2fde38b146106a1578063fc7e5fa8146106b457600080fd5b8063c7464bf114610658578063c7b0d8b714610660578063da2824a81461066857600080fd5b8063a9059cbb146105f1578063ab5e28c514610604578063afd8b1d114610619578063afde442a1461062c578063b3bb8cd41461063f578063c69c09cf1461064557600080fd5b806395d89b411161013b57806395d89b411461059557806397a6278e1461059d5780639d200d1f146105b05780639dc29fac146105b85780639fc1d0e7146105cb578063a457c2d7146105de57600080fd5b806370a0823114610526578063715018a61461053957806384e798421461054157806385269dcb1461055457806388d695b2146105675780638da5cb5b1461057a57600080fd5b806338d65d11116102415780634a6cc677116101fa57806368573107116101d4578063685731071461049f57806369a7ddf7146104b25780636d62a4fe146104c55780636df68630146104f157600080fd5b80634a6cc677146104585780635356dddc1461046b57806354fd4d501461047e57600080fd5b806338d65d11146103f157806339509351146104045780633f4ba83a1461041757806340c10f191461041f57806342a47abc146104325780634710362d1461044557600080fd5b80631a7af379116102935780631a7af379146103835780631fe56f7d146103965780631ffbb064146103a957806323b872dd146103bc5780632b29ba23146103cf578063313ce567146103e257600080fd5b806306fdde03146102db578063095ea7b3146102f9578063125c4a331461031c578063136439dd14610331578063158b1a571461034457806318160ddd1461037b575b600080fd5b6102e36106c7565b6040516102f09190612991565b60405180910390f35b61030c6103073660046129bb565b610759565b60405190151581526020016102f0565b61032f61032a3660046129bb565b610771565b005b61032f61033f3660046129e5565b6108b1565b61036d6103523660046129fe565b6001600160a01b03166000908152600f602052604090205490565b6040519081526020016102f0565b60025461036d565b61032f610391366004612a65565b610956565b61032f6103a43660046129bb565b6109cb565b61030c6103b73660046129fe565b610ae8565b61030c6103ca366004612ad1565b610afb565b61030c6103dd3660046129fe565b610b1f565b604051601281526020016102f0565b61032f6103ff3660046129fe565b610b2c565b61030c6104123660046129bb565b610b76565b61032f610b98565b61030c61042d3660046129bb565b610c40565b61032f610440366004612b0d565b610ca2565b61032f610453366004612a65565b610d38565b61032f610466366004612a65565b610d9d565b61032f6104793660046129fe565b610e03565b604080518082019091526005815264302e302e3160d81b60208201526102e3565b61030c6104ad366004612a65565b610e4d565b61030c6104c03660046129fe565b610ec2565b6104d86104d3366004612ba7565b610ecf565b6040516001600160f81b031990911681526020016102f0565b6105046104ff3660046129fe565b611059565b60408051825181526020808401519082015291810151908201526060016102f0565b61036d6105343660046129fe565b6110ef565b61032f61110a565b61032f61054f3660046129fe565b61111e565b61032f610562366004612bf2565b611168565b61032f610575366004612a65565b611289565b600b546040516001600160a01b0390911681526020016102f0565b6102e36112ef565b61032f6105ab3660046129fe565b6112fe565b61036d611348565b61030c6105c63660046129bb565b61147b565b61030c6105d9366004612ad1565b611694565b61030c6105ec3660046129bb565b6118ad565b61030c6105ff3660046129bb565b611928565b61060c611935565b6040516102f09190612c31565b61032f6106273660046129fe565b611b5b565b61036d61063a3660046129fe565b611ba5565b4261036d565b61032f610653366004612ce2565b611be9565b610504611c6a565b61030c611cc8565b61032f6106763660046129fe565b611d4c565b61036d610689366004612d15565b611d96565b61030c61069c3660046129fe565b611dc1565b61032f6106af3660046129fe565b611e0e565b61032f6106c2366004612a65565b611e72565b6060600380546106d690612d3f565b80601f016020809104026020016040519081016040528092919081815260200182805461070290612d3f565b801561074f5780601f106107245761010080835404028352916020019161074f565b820191906000526020600020905b81548152906001019060200180831161073257829003601f168201915b5050505050905090565b600033610767818585611ed7565b5060019392505050565b61077a33610ae8565b1580156107925750600b546001600160a01b03163314155b156107c357335b6040516352f49c9560e01b81526001600160a01b0390911660048201526024015b60405180910390fd5b60006107ce836110ef565b6001600160a01b0384166000908152600f60205260409020549091506107f5908390612d90565b8110156108445760405162461bcd60e51b815260206004820181905260248201527f416d6f756e74206578636565647320617661696c61626c652062616c616e636560448201526064016107ba565b6001600160a01b0383166000908152600f6020526040902054610868908390612d90565b6001600160a01b0384166000818152600f602052604080822093909355915184927fa065e63c631c86f1b9f66a4a2f63f2093bf1c2168d23290259dbd969e0222a4591a3505050565b6108ba33610ae8565b1580156108d25750600b546001600160a01b03163314155b156108dd5733610799565b60095442116109215760405162461bcd60e51b815260206004820152601060248201526f14185d5cd8589b194e881c185d5cd95960821b60448201526064016107ba565b6009819055604051819033907fab40a374bc51de372200a8bc981af8c9ecdc08dfdaef0bb6e09f88f3c616ef3d90600090a350565b60005b838110156109c4576109b285858381811061097657610976612da8565b905060200201602081019061098b91906129fe565b84848481811061099d5761099d612da8565b90506020020160208101906106539190612dbe565b806109bc81612dd9565b915050610959565b5050505050565b6109d433610ae8565b1580156109ec5750600b546001600160a01b03163314155b156109f75733610799565b6001600160a01b0382166000908152600f6020526040902054811115610a7c5760405162461bcd60e51b815260206004820152603460248201527f416d6f756e742073686f756c64206265206c657373207468616e206f7220657160448201527375616c20746f2066726f7a656e20746f6b656e7360601b60648201526084016107ba565b6001600160a01b0382166000908152600f6020526040902054610aa0908290612df4565b6001600160a01b0383166000818152600f602052604080822093909355915183927f9bed35cb62ad0dba04f9d5bfee4b5bc91443e77da8a65c4c84834c51bb08b0d691a35050565b6000610af5600683611ffb565b92915050565b600033610b0985828561207e565b610b148585856120f8565b506001949350505050565b6000610af5600883611ffb565b610b34612159565b610b3f6007826121b3565b6040516001600160a01b038216907fe933431644458f1217f9e93d3e000e03c9bbbe55761046d0985c2e4d157bcbaa90600090a250565b600033610767818585610b898383611d96565b610b939190612d90565b611ed7565b610ba133610ae8565b158015610bb95750600b546001600160a01b03163314155b15610bc45733610799565b600954421115610c0d5760405162461bcd60e51b815260206004820152601460248201527314185d5cd8589b194e881b9bdd081c185d5cd95960621b60448201526064016107ba565b6000600981905560405133907fab40a374bc51de372200a8bc981af8c9ecdc08dfdaef0bb6e09f88f3c616ef3d908390a3565b6000610c4b33610b1f565b158015610c635750600b546001600160a01b03163314155b15610c8f57335b604051631765348f60e21b81526001600160a01b0390911660048201526024016107ba565b610c998383612235565b50600192915050565b60005b85811015610d2f57610d1c878783818110610cc257610cc2612da8565b9050602002016020810190610cd791906129fe565b868684818110610ce957610ce9612da8565b9050602002016020810190610cfe91906129fe565b858585818110610d1057610d10612da8565b90506020020135611694565b5080610d2781612dd9565b915050610ca5565b50505050505050565b60005b838110156109c457610d8b858583818110610d5857610d58612da8565b9050602002016020810190610d6d91906129fe565b848484818110610d7f57610d7f612da8565b905060200201356109cb565b80610d9581612dd9565b915050610d3b565b60005b838110156109c457610df0858583818110610dbd57610dbd612da8565b9050602002016020810190610dd291906129fe565b848484818110610de457610de4612da8565b9050602002013561147b565b5080610dfb81612dd9565b915050610da0565b610e0b612159565b610e166008826121b3565b6040516001600160a01b038216907f86e5bbceda94081c32220d685f37cc4e3ea7bb0be2dfbf0cb703579505a5390e90600090a250565b6000805b84811015610eb457610ea1868683818110610e6e57610e6e612da8565b9050602002016020810190610e8391906129fe565b858584818110610e9557610e95612da8565b90506020020135610c40565b5080610eac81612dd9565b915050610e51565b50600190505b949350505050565b6000610af5600783611ffb565b600081610edb856110ef565b1015610eec5750602960f91b610eba565b600954421015610f015750601560fa1b610eba565b6001600160a01b0384166000908152600d6020908152604080832060020154600f90925290912054839190610f35876110ef565b610f3f9190612df4565b610f499190612df4565b1015610f5a5750605560f81b610eba565b6001600160a01b038416610f735750602b60f91b610eba565b6001600160a01b038316610f8c5750605760f81b610eba565b610f9585610ae8565b158015610fc55750846001600160a01b0316610fb9600b546001600160a01b031690565b6001600160a01b031614155b8015610fe35750846001600160a01b0316846001600160a01b031614155b15610ff35750600b60fb1b610eba565b6001600160a01b03841660009081526010602052604090205460ff161561101f5750602d60f91b610eba565b6001600160a01b03831660009081526010602052604090205460ff161561104b5750605b60f81b610eba565b50605160f81b949350505050565b61107d60405180606001604052806000815260200160008152602001600081525090565b61108633610ae8565b15801561109e5750600b546001600160a01b03163314155b156110a95733610799565b506001600160a01b0381166000908152600d602090815260409182902082516060810184528154815260018201549281019290925260020154918101919091525b919050565b6001600160a01b031660009081526020819052604090205490565b611112612159565b61111c600061226c565b565b611126612159565b6111316006826122be565b6040516001600160a01b038216907ff68e73cec97f2d70aa641fb26e87a4383686e2efacb648f2165aeb02ac562ec590600090a250565b61117133610ae8565b1580156111895750600b546001600160a01b03163314155b156111945733610799565b61119d816110ef565b8211156111f85760405162461bcd60e51b8152602060048201526024808201527f416d6f756e74206973207570706572207468616e2062616c616e6365206f66206044820152633ab9b2b960e11b60648201526084016107ba565b6040805160608101825285815260208082018681528284018681526001600160a01b0386166000818152600d909452949092209251835551600183015551600290910155839085907fe73f01da0d1ab22feed9447b4801c099a6ebe22122e907da28300e12381a67068533604080519283526001600160a01b0390911660208301520160405180910390a450505050565b60005b838110156109c4576112dc8585838181106112a9576112a9612da8565b90506020020160208101906112be91906129fe565b8484848181106112d0576112d0612da8565b90506020020135611928565b50806112e781612dd9565b91505061128c565b6060600480546106d690612d3f565b611306612159565b6113116006826121b3565b6040516001600160a01b038216907fed9c8ad8d5a0a66898ea49d2956929c93ae2e8bd50281b2ed897c5d1a6737e0b90600090a250565b336000908152600d60209081526040808320815160608101835281548152600182015493810193909352600201549082018190526113bf5760405162461bcd60e51b81526020600482015260146024820152734e6f20746f6b656e20746f20756e667265657a6560601b60448201526064016107ba565b8051601e906113ce9042612df4565b1161141b5760405162461bcd60e51b815260206004820152601c60248201527f54696d6520666f722072656465656d20697320746f6f2073686f72740000000060448201526064016107ba565b8051602082015160009161142e91612df4565b82519091506000906114409042612df4565b90506114736064611467856040015161146d8661146760648861233a90919063ffffffff16565b9061234d565b9061233a565b935050505090565b600061148633610b1f565b15801561149e5750600b546001600160a01b03163314155b156114a95733610c6a565b60006114b484611ba5565b90508083111561168a576001600160a01b0384166000908152600f60205260408120546114e0866110ef565b6114ea9190612df4565b6114f49085612df4565b6001600160a01b0386166000908152600f6020526040902054909150611519866110ef565b6115239190612df4565b841115611593576001600160a01b0385166000908152600f602052604090205461154e908290612df4565b6001600160a01b0386166000818152600f602052604080822093909355915183927f9bed35cb62ad0dba04f9d5bfee4b5bc91443e77da8a65c4c84834c51bb08b0d691a35b6001600160a01b0385166000908152600d60205260409020600201546115b8866110ef565b6115c29190612df4565b6115cc8286612df4565b1115611688576001600160a01b0385166000908152600d60205260408120600201546115f7876110ef565b6116019190612df4565b61160b8387612df4565b6116159190612df4565b6001600160a01b0387166000908152600d602052604090206002015490915061163f908290612df4565b6001600160a01b0387166000818152600d602052604080822060020193909355915184927f86fc01e32674e4237a61b84eece63ddaf61eb7a3034e3cc7f8ca90558431f68e91a3505b505b6107678484612359565b600061169f33610ae8565b1580156116b75750600b546001600160a01b03163314155b156116c25733610799565b60006116cd85611ba5565b905080831115610b09576001600160a01b0385166000908152600f60205260408120546116f9876110ef565b6117039190612df4565b61170d9085612df4565b6001600160a01b0387166000908152600f6020526040902054909150611732876110ef565b61173c9190612df4565b8411156117ac576001600160a01b0386166000908152600f6020526040902054611767908290612df4565b6001600160a01b0387166000818152600f602052604080822093909355915183927f9bed35cb62ad0dba04f9d5bfee4b5bc91443e77da8a65c4c84834c51bb08b0d691a35b6001600160a01b0386166000908152600d60205260409020600201546117d1876110ef565b6117db9190612df4565b6117e58286612df4565b11156118a1576001600160a01b0386166000908152600d6020526040812060020154611810886110ef565b61181a9190612df4565b6118248387612df4565b61182e9190612df4565b6001600160a01b0388166000908152600d6020526040902060020154909150611858908290612df4565b6001600160a01b0388166000818152600d602052604080822060020193909355915184927f86fc01e32674e4237a61b84eece63ddaf61eb7a3034e3cc7f8ca90558431f68e91a3505b50610b148585856120f8565b600033816118bb8286611d96565b90508381101561191b5760405162461bcd60e51b815260206004820152602560248201527f45524332303a2064656372656173656420616c6c6f77616e63652062656c6f77604482015264207a65726f60d81b60648201526084016107ba565b610b148286868403611ed7565b6000610c993384846120f8565b606061194033610ec2565b1580156119585750600b546001600160a01b03163314155b1561198457335b6040516325bfed0960e11b81526001600160a01b0390911660048201526024016107ba565b60115460009063ffffffff1667ffffffffffffffff8111156119a8576119a8612e0b565b604051908082528060200260200182016040528015611a1d57816020015b611a0a6040518060a001604052806060815260200160006001600160a01b0316815260200160006001600160a01b0316815260200160008152602001600081525090565b8152602001906001900390816119c65790505b50905060005b60115463ffffffff9081169082161015611b555763ffffffff81166000908152600c602052604090819020815160a08101909252805482908290611a6690612d3f565b80601f0160208091040260200160405190810160405280929190818152602001828054611a9290612d3f565b8015611adf5780601f10611ab457610100808354040283529160200191611adf565b820191906000526020600020905b815481529060010190602001808311611ac257829003601f168201915b505050918352505060018201546001600160a01b0390811660208301526002830154166040820152600382015460608201526004909101546080909101528251839063ffffffff8416908110611b3757611b37612da8565b60200260200101819052508080611b4d90612e21565b915050611a23565b50905090565b611b63612159565b611b6e6007826122be565b6040516001600160a01b038216907fb7724d890d2888af5a3fc456edb667e2c82c4441449ebcac301c618759e4f86d90600090a250565b6001600160a01b0381166000908152600d6020908152604080832060020154600f909252822054611bd5846110ef565b611bdf9190612df4565b610af59190612df4565b611bf233610ae8565b158015611c0a5750600b546001600160a01b03163314155b15611c155733610799565b6001600160a01b038216600081815260106020526040808220805460ff19168515159081179091559051339391927f7fa523c84ab8d7fc5b72f08b9e46dbbf10c39e119a075b3e317002d14bc9f43691a45050565b611c8e60405180606001604052806000815260200160008152602001600081525090565b50336000908152600d6020908152604091829020825160608101845281548152600182015492810192909252600201549181019190915290565b600080611cd3611348565b905060008111611ce557600091505090565b336000908152600d6020526040902042815560020154611d06908290612df4565b336000818152600d602052604080822060020193909355915183927f86fc01e32674e4237a61b84eece63ddaf61eb7a3034e3cc7f8ca90558431f68e91a3600191505090565b611d54612159565b611d5f6008826122be565b6040516001600160a01b038216907f6ff3aa2ea7b53070f6d9d07a445d338d89e8edef44250ffa8be19f53910d4a2e90600090a250565b6001600160a01b03918216600090815260016020908152604080832093909416825291909152205490565b6000611dcc33610ec2565b158015611de45750600b546001600160a01b03163314155b15611def573361195f565b506001600160a01b031660009081526010602052604090205460ff1690565b611e16612159565b600b546040516001600160a01b038084169216907f5c486528ec3e3f0ea91181cff8116f02bfa350e03b8b6f12e00765adbb5af85c90600090a3600b80546001600160a01b0319166001600160a01b0392909216919091179055565b60005b838110156109c457611ec5858583818110611e9257611e92612da8565b9050602002016020810190611ea791906129fe565b848484818110611eb957611eb9612da8565b90506020020135610771565b80611ecf81612dd9565b915050611e75565b6001600160a01b038316611f395760405162461bcd60e51b8152602060048201526024808201527f45524332303a20617070726f76652066726f6d20746865207a65726f206164646044820152637265737360e01b60648201526084016107ba565b6001600160a01b038216611f9a5760405162461bcd60e51b815260206004820152602260248201527f45524332303a20617070726f766520746f20746865207a65726f206164647265604482015261737360f01b60648201526084016107ba565b6001600160a01b0383811660008181526001602090815260408083209487168084529482529182902085905590518481527f8c5be1e5ebec7d5bd14f71427d1e84f3dd0314c0f7b2291e5b200ac8c7c3b925910160405180910390a3505050565b60006001600160a01b03821661205e5760405162461bcd60e51b815260206004820152602260248201527f526f6c65733a206163636f756e7420697320746865207a65726f206164647265604482015261737360f01b60648201526084016107ba565b506001600160a01b03166000908152602091909152604090205460ff1690565b600061208a8484611d96565b905060001981146120f257818110156120e55760405162461bcd60e51b815260206004820152601d60248201527f45524332303a20696e73756666696369656e7420616c6c6f77616e636500000060448201526064016107ba565b6120f28484848403611ed7565b50505050565b605160f81b61210933858585610ecf565b6001600160f81b0319161461211d57600080fd5b61212883838361238c565b612154604051806040016040528060088152602001673a3930b739b332b960c11b815250848484612530565b505050565b600b546001600160a01b0316331461111c5760405162461bcd60e51b815260206004820181905260248201527f4f776e61626c653a2063616c6c6572206973206e6f7420746865206f776e657260448201526064016107ba565b6121bd8282611ffb565b6122135760405162461bcd60e51b815260206004820152602160248201527f526f6c65733a206163636f756e7420646f6573206e6f74206861766520726f6c6044820152606560f81b60648201526084016107ba565b6001600160a01b0316600090815260209190915260409020805460ff19169055565b61223f82826126ba565b612268604051806040016040528060048152602001631b5a5b9d60e21b81525060008484612530565b5050565b600580546001600160a01b038381166001600160a01b0319831681179093556040519116919082907f8be0079c531659141344cd1fd0a4f28419497f9722a3daafe3b4186f6b6457e090600090a35050565b6122c88282611ffb565b156123155760405162461bcd60e51b815260206004820152601f60248201527f526f6c65733a206163636f756e7420616c72656164792068617320726f6c650060448201526064016107ba565b6001600160a01b0316600090815260209190915260409020805460ff19166001179055565b60006123468284612e45565b9392505050565b60006123468284612e64565b6123638282612779565b61226860405180604001604052806004815260200163313ab93760e11b81525083600084612530565b6001600160a01b0383166123f05760405162461bcd60e51b815260206004820152602560248201527f45524332303a207472616e736665722066726f6d20746865207a65726f206164604482015264647265737360d81b60648201526084016107ba565b6001600160a01b0382166124525760405162461bcd60e51b815260206004820152602360248201527f45524332303a207472616e7366657220746f20746865207a65726f206164647260448201526265737360e81b60648201526084016107ba565b6001600160a01b038316600090815260208190526040902054818110156124ca5760405162461bcd60e51b815260206004820152602660248201527f45524332303a207472616e7366657220616d6f756e7420657863656564732062604482015265616c616e636560d01b60648201526084016107ba565b6001600160a01b03848116600081815260208181526040808320878703905593871680835291849020805487019055925185815290927fddf252ad1be2c89b69c2b068fc378daa952ba7f163c4a11628f55a4df523b3ef910160405180910390a36120f2565b60095442116125745760405162461bcd60e51b815260206004820152601060248201526f14185d5cd8589b194e881c185d5cd95960821b60448201526064016107ba565b816001600160a01b0316836001600160a01b03167f54c25aa230f7ee0c1e146d3416a3a4972d9fa34640b86e84383b461a585593de86846040516125b9929190612e86565b60405180910390a36040518060a00160405280858152602001846001600160a01b03168152602001836001600160a01b031681526020018281526020016125fd4290565b905260115463ffffffff166000908152600c6020908152604090912082518051919261262e928492909101906128ab565b5060208201516001820180546001600160a01b039283166001600160a01b0319918216179091556040840151600284018054919093169116179055606082015160038201556080909101516004909101556011805463ffffffff1690600061269583612e21565b91906101000a81548163ffffffff021916908363ffffffff1602179055505050505050565b6001600160a01b0382166127105760405162461bcd60e51b815260206004820152601f60248201527f45524332303a206d696e7420746f20746865207a65726f20616464726573730060448201526064016107ba565b80600260008282546127229190612d90565b90915550506001600160a01b038216600081815260208181526040808320805486019055518481527fddf252ad1be2c89b69c2b068fc378daa952ba7f163c4a11628f55a4df523b3ef910160405180910390a35050565b6001600160a01b0382166127d95760405162461bcd60e51b815260206004820152602160248201527f45524332303a206275726e2066726f6d20746865207a65726f206164647265736044820152607360f81b60648201526084016107ba565b6001600160a01b0382166000908152602081905260409020548181101561284d5760405162461bcd60e51b815260206004820152602260248201527f45524332303a206275726e20616d6f756e7420657863656564732062616c616e604482015261636560f01b60648201526084016107ba565b6001600160a01b0383166000818152602081815260408083208686039055600280548790039055518581529192917fddf252ad1be2c89b69c2b068fc378daa952ba7f163c4a11628f55a4df523b3ef910160405180910390a3505050565b8280546128b790612d3f565b90600052602060002090601f0160209004810192826128d9576000855561291f565b82601f106128f257805160ff191683800117855561291f565b8280016001018555821561291f579182015b8281111561291f578251825591602001919060010190612904565b5061292b92915061292f565b5090565b5b8082111561292b5760008155600101612930565b6000815180845260005b8181101561296a5760208185018101518683018201520161294e565b8181111561297c576000602083870101525b50601f01601f19169290920160200192915050565b6020815260006123466020830184612944565b80356001600160a01b03811681146110ea57600080fd5b600080604083850312156129ce57600080fd5b6129d7836129a4565b946020939093013593505050565b6000602082840312156129f757600080fd5b5035919050565b600060208284031215612a1057600080fd5b612346826129a4565b60008083601f840112612a2b57600080fd5b50813567ffffffffffffffff811115612a4357600080fd5b6020830191508360208260051b8501011115612a5e57600080fd5b9250929050565b60008060008060408587031215612a7b57600080fd5b843567ffffffffffffffff80821115612a9357600080fd5b612a9f88838901612a19565b90965094506020870135915080821115612ab857600080fd5b50612ac587828801612a19565b95989497509550505050565b600080600060608486031215612ae657600080fd5b612aef846129a4565b9250612afd602085016129a4565b9150604084013590509250925092565b60008060008060008060608789031215612b2657600080fd5b863567ffffffffffffffff80821115612b3e57600080fd5b612b4a8a838b01612a19565b90985096506020890135915080821115612b6357600080fd5b612b6f8a838b01612a19565b90965094506040890135915080821115612b8857600080fd5b50612b9589828a01612a19565b979a9699509497509295939492505050565b60008060008060808587031215612bbd57600080fd5b612bc6856129a4565b9350612bd4602086016129a4565b9250612be2604086016129a4565b9396929550929360600135925050565b60008060008060808587031215612c0857600080fd5b843593506020850135925060408501359150612c26606086016129a4565b905092959194509250565b60006020808301818452808551808352604092508286019150828160051b87010184880160005b83811015612cc457603f19898403018552815160a08151818652612c7e82870182612944565b838b01516001600160a01b03908116888d01528a850151168a88015260608085015190880152608093840151939096019290925250509386019390860190600101612c58565b509098975050505050505050565b803580151581146110ea57600080fd5b60008060408385031215612cf557600080fd5b612cfe836129a4565b9150612d0c60208401612cd2565b90509250929050565b60008060408385031215612d2857600080fd5b612d31836129a4565b9150612d0c602084016129a4565b600181811c90821680612d5357607f821691505b60208210811415612d7457634e487b7160e01b600052602260045260246000fd5b50919050565b634e487b7160e01b600052601160045260246000fd5b60008219821115612da357612da3612d7a565b500190565b634e487b7160e01b600052603260045260246000fd5b600060208284031215612dd057600080fd5b61234682612cd2565b6000600019821415612ded57612ded612d7a565b5060010190565b600082821015612e0657612e06612d7a565b500390565b634e487b7160e01b600052604160045260246000fd5b600063ffffffff80831681811415612e3b57612e3b612d7a565b6001019392505050565b6000816000190483118215151615612e5f57612e5f612d7a565b500290565b600082612e8157634e487b7160e01b600052601260045260246000fd5b500490565b604081526000612e996040830185612944565b9050826020830152939250505056fea2646970667358221220668f815cf54f3ac045efd127de71af1f56d49e53901dd1a9d4eef7bed0a3de7164736f6c634300080b0033",
  "immutableReferences": {},
  "source": "// SPDX-License-Identifier: MIT\n\npragma solidity ^0.8.0;\n\n\nimport \"./StorageToken.sol\";\nimport \"../library/TokenLibrary.sol\";\nimport \"../roles/AgentRole.sol\";\nimport \"../roles/ReaderRole.sol\";\nimport \"../roles/WriterRole.sol\";\nimport \"@openzeppelin/contracts/access/Ownable.sol\";\nimport \"@openzeppelin/contracts/token/ERC20/ERC20.sol\";\nimport \"@openzeppelin/contracts/utils/math/SafeMath.sol\";\n\ncontract SecurityToken is ERC20, AgentRole, ReaderRole, WriterRole, StorageToken {\n    using SafeMath for uint;\n\n    /**\n     */\n    constructor(\n        string memory _name,\n        string memory _code\n    ) ERC20(_name, _code) {\n        OWNER = _msgSender();\n    }\n\n    /// @dev Modifier to make a function callable only when the contract is not paused.\n    modifier whenNotPaused() {\n        require(_now() > paused, \"Pausable: paused\");\n        _;\n    }\n\n    /// @dev Modifier to make a function callable only when the contract is paused.\n    modifier whenPaused() {\n        require(_now() <= paused, \"Pausable: not paused\");\n        _;\n    }\n\n    /**\n     * @notice Returns the version of the token contract\n     * @return TOKEN_VERSION {string} version of the smart contract\n     */\n    function version() external pure returns (string memory) {\n        return TOKEN_VERSION;\n    }\n\n    /**\n     * @notice Returns the address wallet of the smart contract owner.\n     * @return owner {address} wallet addres from owner\n     */\n    function owner() public view override(Ownable) returns (address) {\n        return OWNER;\n    }\n\n    /**\n     * @notice Get movements of the assets\n     * @return result {TokenLibrary.Transfer[]} array of register transfers movements\n     */\n    function transfers() public view onlyReader() returns (TokenLibrary.Transfer[] memory) {\n        TokenLibrary.Transfer[] memory result = new TokenLibrary.Transfer[](_transfersCount);\n        for (uint32 i = 0; i < _transfersCount; i++) {\n            result[i] = _transfers[i];\n        }\n        return result;\n    }\n\n    /**\n     * @notice Transfer ownership of the smart contract\n     * @param account {address} address of the new owner\n     */\n    function transferOwnership(address account) public virtual override(Ownable) onlyOwner {\n        emit TransferOwnership(OWNER, account);\n        OWNER = account;\n    }\n\n    /**\n     * @notice return not freezed tokens from an address wallet\n     * @param account {address} wallet address of account you want to get not freezed balance\n     * @return balance {uint256} balance of wallet address totaly open\n     */\n    function eligibleBalanceOf(address account) public view returns(uint256) {\n        return balanceOf(account) - frozenTokens[account] - (freezedPeriod[account].amountFreezed);\n    }\n\n\n    /**\n     * @notice Mint and send `amount` tokens to `to`\n     *\n     * Returns a boolean value indicating whether the operation succeeded.\n     *\n     * Emits a {Transfer} event.\n     * @param to {address} wallet to send the token\n     * @param amount {uint256} amount to mint\n     * @return result {boolean} success or failure\n     */\n    function mint(address to, uint256 amount) public onlyWriter returns (bool) {\n        _mint(to, amount);\n        return true;\n    }\n\n    /**\n     * @notice Mint and send `amounts` tokens to `toList`\n     *\n     * Returns a boolean value indicating whether the operation succeeded.\n     *\n     * Emits a {Transfer} event by {to}.\n     * @param toList {address[]} wallets to send the tokens\n     * @param amounts {uint256[]} amount to mint\n     * @return result {boolean} success or failure\n     */\n    function batchMint(address[] calldata toList, uint256[] calldata amounts) external returns (bool) {\n        for (uint256 i = 0; i < toList.length; i++) {\n            mint(toList[i], amounts[i]);\n        }\n        return true;\n    }\n\n    /**\n     * @notice Remove `amount` tokens from `account`\n     *\n     * Returns a boolean value indicating whether the operation succeeded.\n     *\n     * Emits a {Transfer} event.\n     * @param account {address} wallet to burn the token\n     * @param amount {uint256} amount to burn\n     */\n    function burn(address account, uint256 amount)\n        public\n        onlyWriter\n        returns (bool)\n    {\n        uint256 freeBalance = eligibleBalanceOf(account);\n        if (amount > freeBalance) {\n            uint256 tokensToUnfreeze = amount - (balanceOf(account) - frozenTokens[account]);\n            if (amount > balanceOf(account) - frozenTokens[account]) {\n                frozenTokens[account] = frozenTokens[account] - (tokensToUnfreeze);\n                emit TokensUnfrozen(account, tokensToUnfreeze);\n            }\n            if (amount - tokensToUnfreeze > balanceOf(account) - (freezedPeriod[account].amountFreezed)) {\n                uint256 tokensToUnfreezePeriod =\n                amount - tokensToUnfreeze - (balanceOf(account) - freezedPeriod[account].amountFreezed);\n                freezedPeriod[account].amountFreezed = freezedPeriod[account].amountFreezed - (tokensToUnfreezePeriod);\n                emit TokensUnfrozenPeriod(account, tokensToUnfreeze);\n            }\n        }\n        _burn(account, amount);\n        return true;\n    }\n\n    /**\n     * @notice Remove `amounts` tokens from `accounts`\n     *\n     * Returns a boolean value indicating whether the operation succeeded.\n     *\n     * Emits a {Transfer} event.\n     * @param accounts {address[]} wallets to burn the tokens\n     * @param amounts {uint256[]} amounts to burn\n     */\n    function batchBurn(address[] calldata accounts, uint256[] calldata amounts) external {\n        for (uint256 i = 0; i < accounts.length; i++) {\n            burn(accounts[i], amounts[i]);\n        }\n    }\n\n    /**\n     * @dev Transfer and send `amount` tokens from `_msgSender()` to `to`\n     *\n     * Returns a boolean value indicating whether the operation succeeded.\n     *\n     * Emits a {Transfer} event.\n     * @param to {address} wallet to transfer the token\n     * @param amount {uint256[]} amount to transfer\n     */\n    function transfer(address to, uint256 amount) public virtual override returns (bool) {\n        _transfer(_msgSender(), to, amount);\n        return true;\n    }\n\n    /**\n     *  @dev Transfers and send `amount` tokens from `_msgSender()` to `toList`\n     *\n     * Returns a boolean value indicating whether the operation succeeded.\n     *\n     * Emits a {Transfer} event.\n     * @param toList {address[]} wallets to transfer the tokens\n     * @param amounts {uint256[]} amounts to transfer\n     */\n    function batchTransfer(address[] calldata toList, uint256[] calldata amounts) external {\n        for (uint256 i = 0; i < toList.length; i++) {\n            transfer(toList[i], amounts[i]);\n        }\n    }\n\n    /**\n     * @dev See {IERC20-transferFrom}.\n     */\n    function transferFrom(\n        address from,\n        address to,\n        uint256 amount\n    ) public virtual override returns (bool) {\n        address spender = _msgSender();\n        _spendAllowance(from, spender, amount);\n        _transfer(from, to, amount);\n        return true;\n    }\n\n    /**\n     * @notice Moves `amount` of tokens from `from` to `to`.\n     * @param from {address} the origin of the token transfer\n     * @param to {address} the recipient of the token transfer\n     * @param amount {uint256} the number of tokens transferred\n     */\n    function _transfer(\n        address from,\n        address to,\n        uint256 amount\n    ) internal override virtual {\n        require(canTransfer(_msgSender(), from, to, amount) == (hex\"51\"));\n        super._transfer(from, to, amount);\n        _afterTokenTransfer(\"transfer\", from, to, amount);\n    }\n\n    function canTransfer(address operator, address from, address to, uint256 value) public view returns (bytes1) {\n        if (balanceOf(from) < value){\n            return(hex\"52\"); // 0x52 insufficient balance\n        // } else if(allowance(from, operator) <= value) {\n        //     return(hex\"53\"); // 0x53 insufficient allowance\n        } else if(_now() < paused) {\n            return(hex\"54\"); // 0x54 transfers halted (contract paused)\n        } else if(balanceOf(from) - frozenTokens[from] - (freezedPeriod[from].amountFreezed) < value) {\n            return(hex\"55\"); // 0x55 funds locked (lockup period)\n        } else if (from == address(0)){\n            return(hex\"56\"); // 0x56 invalid sender\n        } else if (to == address(0)){\n            return(hex\"57\"); // 0x57 invalid receiver\n        } else if (!isAgent(operator) && owner() != operator && from != operator ){\n            return(hex\"58\"); // 0x58 invalid operator\n        } else if (frozen[from]){\n            return(hex\"5a\"); // 0x5a frozen sender\n        }  else if (frozen[to]){\n            return(hex\"5b\"); // 0x5b frozen receiver\n        }\n        return (hex\"51\"); // 0x51 success\n    }\n\n    /**\n     *  @notice Force an address wallet to transfer by agent\n     *  @param from {address} from wallet to transfer\n     *  @param to {address} to wallet to transfer\n     *  @param amount {uint256} amounts of tokens to be transfered\n     */\n    function forcedTransfer(\n        address from,\n        address to,\n        uint256 amount\n    ) public onlyAgent returns (bool) {\n        uint256 freeBalance = eligibleBalanceOf(from);\n\n        if (amount > freeBalance) {\n            uint256 tokensToUnfreeze = amount - (balanceOf(from) - frozenTokens[from]);\n            if (amount > balanceOf(from) - frozenTokens[from]) {\n                frozenTokens[from] = frozenTokens[from] - (tokensToUnfreeze);\n                emit TokensUnfrozen(from, tokensToUnfreeze);\n            }\n            if (amount - tokensToUnfreeze > balanceOf(from) - (freezedPeriod[from].amountFreezed)) {\n                uint256 tokensToUnfreezePeriod = \n                amount - tokensToUnfreeze - (balanceOf(from) - freezedPeriod[from].amountFreezed);\n                freezedPeriod[from].amountFreezed = freezedPeriod[from].amountFreezed - (tokensToUnfreezePeriod);\n                emit TokensUnfrozenPeriod(from, tokensToUnfreeze);\n            }\n        }\n\n        _transfer(from, to, amount);\n        return true;\n    }\n\n    /**\n     *  @notice Force an array of transfer by agent\n     *  @param fromList {address[]} from wallet to transfer\n     *  @param toList {address[]} to wallet to transfer\n     *  @param amounts {uint256[]} amounts of tokens to be transfered\n     */\n    function batchForcedTransfer(\n        address[] calldata fromList,\n        address[] calldata toList,\n        uint256[] calldata amounts\n    ) external {\n        for (uint256 i = 0; i < fromList.length; i++) {\n            forcedTransfer(fromList[i], toList[i], amounts[i]);\n        }\n    }\n\n    /**\n     * @notice Creates `amount` tokens and assigns them to `account`, increasing\n     * the total supply.\n     * @param account {address} the recipient of the token transfer\n     * @param amount {uint256} the number of tokens destroyed\n     */\n    function _mint(address account, uint256 amount) internal virtual override {\n        super._mint(account, amount);\n        _afterTokenTransfer(\"mint\", address(0), account, amount);\n    }\n\n    /**\n     * @notice Destroys `amount` tokens from `account`, reducing the\n     * total supply.\n     * @param account {address} the origin of the token destroyed\n     * @param amount {uint256} the number of tokens destroyed\n     */\n    function _burn(address account, uint256 amount) internal virtual override {\n        super._burn(account, amount);\n        _afterTokenTransfer(\"burn\", account, address(0), amount);\n    }\n\n    /**\n     *  @notice Pause transfer tokens of smart contract\n     *  @param _paused {uint256} represents date when transfer restart\n     */\n    function pause(uint256 _paused) external onlyAgent whenNotPaused {\n        paused = _paused;\n        emit Paused(_msgSender(), paused);\n    }\n\n    /**\n     *  @notice Unpause transfer tokens of smart contract\n     */\n    function unpause() external onlyAgent whenPaused {\n        paused = 0;\n        emit Paused(_msgSender(), paused);\n    }\n\n    /**\n     *  @notice Return freezed or not wallet address tokens\n     *  @param userAddress {address} of the user\n     *  @return frozen {bool} represents freezed wallet address\n     */\n    function isFrozen(address userAddress) external view onlyReader returns (bool) {\n        return frozen[userAddress];\n    }\n\n    /**\n     *  @notice Return freezed tokens amount of wallet address\n     *  @param userAddress {address} of the user\n     *  @return frozenTokens {uint256} amount of freezed tokens\n     */\n    function getFrozenTokens(address userAddress) external view returns (uint256) {\n        return frozenTokens[userAddress];\n    }\n\n    /**\n     *  @notice Freeze totality tokens of single wallet address\n     *  @param userAddress {address} of the user\n     *  @param freeze {boolean} representing freezing\n     */\n    function setAddressFrozen(address userAddress, bool freeze) public onlyAgent {\n        frozen[userAddress] = freeze;\n        emit AddressFrozen(userAddress, freeze, _msgSender());\n    }\n\n    /**\n     *  @notice Freeze totality tokens of multiples wallet addresses\n     *  @param userAddresses {address[]} of user addresses\n     *  @param freeze {bool[]} representing freezing\n     */\n    function batchSetAddressFrozen(address[] calldata userAddresses, bool[] calldata freeze) external {\n        for (uint256 i = 0; i < userAddresses.length; i++) {\n            setAddressFrozen(userAddresses[i], freeze[i]);\n        }\n    }\n\n\n    /**\n     *  @notice Freeze patial tokens of single wallet\n     *  @param userAddress {address} of the user\n     *  @param amount {uint256} of token to be unfreezed\n     */\n    function freezePartialTokens(address userAddress, uint256 amount) public onlyAgent {\n        uint256 balance = balanceOf(userAddress);\n        require(balance >= frozenTokens[userAddress] + amount, \"Amount exceeds available balance\");\n        frozenTokens[userAddress] = frozenTokens[userAddress] + (amount);\n        emit TokensFrozen(userAddress, amount);\n    }\n\n    /**\n     *  @notice Freeze patial tokens of multiples wallets\n     *  @param userAddresses {address[]} of user addresses\n     *  @param amounts {uint256[]} of amounts of token to be unfreezed\n     */\n    function batchFreezePartialTokens(address[] calldata userAddresses, uint256[] calldata amounts) external {\n        for (uint256 i = 0; i < userAddresses.length; i++) {\n            freezePartialTokens(userAddresses[i], amounts[i]);\n        }\n    }\n\n    /**\n     *  @notice Unfreeze patial tokens of single wallet\n     *  @param userAddress {address} of the user\n     *  @param amount {uint256} of token to be unfreezed\n     */\n    function unfreezePartialTokens(address userAddress, uint256 amount) public onlyAgent {\n        require(frozenTokens[userAddress] >= amount, \"Amount should be less than or equal to frozen tokens\");\n        frozenTokens[userAddress] = frozenTokens[userAddress] - (amount);\n        emit TokensUnfrozen(userAddress, amount);\n    }\n\n    /**\n     *  @notice Unfreeze patial tokens of multiples wallets\n     *  @param userAddresses {address[]} of user addresses\n     *  @param amounts {uint256[]} of amounts of token to be unfreezed\n     */\n    function batchUnfreezePartialTokens(address[] calldata userAddresses, uint256[] calldata amounts) external {\n        for (uint256 i = 0; i < userAddresses.length; i++) {\n            unfreezePartialTokens(userAddresses[i], amounts[i]);\n        }\n    }\n\n    /**\n     * @notice Freeze token of one address wallet periodically\n     * @param startTime {uint256} Start time of freezing partial token\n     * @param endTime {uint256} End time of freezing partial token\n     * @param amountFreezed {uint256} Amount of frozen token\n     * @param userAddress {address} Address wallet of the user frozen token\n     */\n    function setFreezedTokensPeriod(\n        uint256 startTime,\n        uint256 endTime,\n        uint256 amountFreezed,\n        address userAddress\n    ) external onlyAgent {\n        ///need to verify is valid identity user ?\n        require(amountFreezed <= balanceOf(userAddress), \"Amount is upper than balance of user\");\n        freezedPeriod[userAddress] = TokenLibrary.FreezePeriod(\n            startTime,\n            endTime,\n            amountFreezed\n        );\n        emit TokensFrozenPeriod(userAddress, startTime, endTime, amountFreezed, _msgSender());\n    }\n\n    /**\n     * @notice Retrieve struct of freezed tokens in period of msg.sender\n     * @return freezedPeriod {TokenLibrary.FreezePeriod} struct of freezed tokens in period\n     */\n    function myFreezedTokensPeriod() external view returns (TokenLibrary.FreezePeriod memory) {\n        return freezedPeriod[_msgSender()];\n    }\n\n    /**\n     * @notice Retrieve struct of freezed tokens in period of one wallet address by agent\n     * @param userAddress {address} of the user freezed tokens\n     * @return freezedPeriod {TokenLibrary.FreezePeriod} struct of freezed tokens in period\n     */\n    function getFreezedTokensPeriod(address userAddress) external view onlyAgent returns (TokenLibrary.FreezePeriod memory) {\n        return freezedPeriod[userAddress];\n    }\n\n    /**\n     * @notice Get unlockable tokens freezed in period for msg.sender\n     * @return unlockable {uint256} of unlockable tokens freezed in period\n     */\n    function unlockableTokensPeriod() public view returns (uint256) {\n        TokenLibrary.FreezePeriod memory freezedPeriodTemp = freezedPeriod[_msgSender()];\n\n        require(freezedPeriodTemp.amountFreezed > 0, \"No token to unfreeze\");\n        require(_now() - freezedPeriodTemp.startTime > 30, \"Time for redeem is too short\");\n\n        uint256 diff = freezedPeriodTemp.endTime - freezedPeriodTemp.startTime;\n        uint256 timeBehind = _now() - freezedPeriodTemp.startTime;\n\n        return timeBehind.mul(100).div(diff).mul(freezedPeriodTemp.amountFreezed).div(100);\n    }\n\n    /**\n     * @notice Redeem unlockable freezed tokens periodically\n     * @return success {bool} success of redeeming tokens\n     */\n    function redeemFreezedTokens() external returns (bool) {\n        uint256 unlockable = unlockableTokensPeriod();\n        if(unlockable <= 0) return false;\n\n        freezedPeriod[_msgSender()].startTime = _now();\n        freezedPeriod[_msgSender()].amountFreezed = freezedPeriod[_msgSender()].amountFreezed - unlockable;\n\n        emit TokensUnfrozenPeriod(_msgSender(), unlockable);\n\n        return true;\n    }\n\n    /**\n     * @notice Hook that is called after any transfer of tokens. This includes\n     * minting and burning.\n     * @param transferType {string} the type of transfer\n     * @param from {address} the origin of the token transfer\n     * @param to {address} the recipient of the token transfer\n     * @param amount {uint256} the number of tokens transferred\n     */\n    function _afterTokenTransfer(\n        string memory transferType,\n        address from,\n        address to,\n        uint256 amount\n    ) internal virtual whenNotPaused {\n        emit Transfer(transferType, from, to, amount);\n        _transfers[_transfersCount] = TokenLibrary.Transfer(\n            transferType,\n            from,\n            to,\n            amount,\n            _now()\n        );\n        _transfersCount++;\n    }\n}\n",
  "sourcePath": "/home/solid-solution/Bureau/HOMEWORK/Smart-Starter/contracts/immutable/SecurityToken.sol",
  "compiler": {
    "name": "solc",
    "version": "0.8.11+commit.d7f03943.Emscripten.clang"
  },
  "schemaVersion": "3.4.10",
  "updatedAt": "2023-02-15T09:33:46.568Z",
  "devdoc": {
    "kind": "dev",
    "methods": {
      "allowance(address,address)": {
        "details": "See {IERC20-allowance}."
      },
      "approve(address,uint256)": {
        "details": "See {IERC20-approve}. NOTE: If `amount` is the maximum `uint256`, the allowance is not updated on `transferFrom`. This is semantically equivalent to an infinite approval. Requirements: - `spender` cannot be the zero address."
      },
      "balanceOf(address)": {
        "details": "See {IERC20-balanceOf}."
      },
      "batchBurn(address[],uint256[])": {
        "params": {
          "accounts": "{address[]} wallets to burn the tokens",
          "amounts": "{uint256[]} amounts to burn"
        }
      },
      "batchForcedTransfer(address[],address[],uint256[])": {
        "params": {
          "amounts": "{uint256[]} amounts of tokens to be transfered",
          "fromList": "{address[]} from wallet to transfer",
          "toList": "{address[]} to wallet to transfer"
        }
      },
      "batchFreezePartialTokens(address[],uint256[])": {
        "params": {
          "amounts": "{uint256[]} of amounts of token to be unfreezed",
          "userAddresses": "{address[]} of user addresses"
        }
      },
      "batchMint(address[],uint256[])": {
        "params": {
          "amounts": "{uint256[]} amount to mint",
          "toList": "{address[]} wallets to send the tokens"
        },
        "returns": {
          "_0": "result {boolean} success or failure"
        }
      },
      "batchSetAddressFrozen(address[],bool[])": {
        "params": {
          "freeze": "{bool[]} representing freezing",
          "userAddresses": "{address[]} of user addresses"
        }
      },
      "batchTransfer(address[],uint256[])": {
        "details": "Transfers and send `amount` tokens from `_msgSender()` to `toList` Returns a boolean value indicating whether the operation succeeded. Emits a {Transfer} event.",
        "params": {
          "amounts": "{uint256[]} amounts to transfer",
          "toList": "{address[]} wallets to transfer the tokens"
        }
      },
      "batchUnfreezePartialTokens(address[],uint256[])": {
        "params": {
          "amounts": "{uint256[]} of amounts of token to be unfreezed",
          "userAddresses": "{address[]} of user addresses"
        }
      },
      "burn(address,uint256)": {
        "params": {
          "account": "{address} wallet to burn the token",
          "amount": "{uint256} amount to burn"
        }
      },
      "decimals()": {
        "details": "Returns the number of decimals used to get its user representation. For example, if `decimals` equals `2`, a balance of `505` tokens should be displayed to a user as `5.05` (`505 / 10 ** 2`). Tokens usually opt for a value of 18, imitating the relationship between Ether and Wei. This is the value {ERC20} uses, unless this function is overridden; NOTE: This information is only used for _display_ purposes: it in no way affects any of the arithmetic of the contract, including {IERC20-balanceOf} and {IERC20-transfer}."
      },
      "decreaseAllowance(address,uint256)": {
        "details": "Atomically decreases the allowance granted to `spender` by the caller. This is an alternative to {approve} that can be used as a mitigation for problems described in {IERC20-approve}. Emits an {Approval} event indicating the updated allowance. Requirements: - `spender` cannot be the zero address. - `spender` must have allowance for the caller of at least `subtractedValue`."
      },
      "eligibleBalanceOf(address)": {
        "params": {
          "account": "{address} wallet address of account you want to get not freezed balance"
        },
        "returns": {
          "_0": "balance {uint256} balance of wallet address totaly open"
        }
      },
      "forcedTransfer(address,address,uint256)": {
        "params": {
          "amount": "{uint256} amounts of tokens to be transfered",
          "from": "{address} from wallet to transfer",
          "to": "{address} to wallet to transfer"
        }
      },
      "freezePartialTokens(address,uint256)": {
        "params": {
          "amount": "{uint256} of token to be unfreezed",
          "userAddress": "{address} of the user"
        }
      },
      "getFreezedTokensPeriod(address)": {
        "params": {
          "userAddress": "{address} of the user freezed tokens"
        },
        "returns": {
          "_0": "freezedPeriod {TokenLibrary.FreezePeriod} struct of freezed tokens in period"
        }
      },
      "getFrozenTokens(address)": {
        "params": {
          "userAddress": "{address} of the user"
        },
        "returns": {
          "_0": "frozenTokens {uint256} amount of freezed tokens"
        }
      },
      "increaseAllowance(address,uint256)": {
        "details": "Atomically increases the allowance granted to `spender` by the caller. This is an alternative to {approve} that can be used as a mitigation for problems described in {IERC20-approve}. Emits an {Approval} event indicating the updated allowance. Requirements: - `spender` cannot be the zero address."
      },
      "isFrozen(address)": {
        "params": {
          "userAddress": "{address} of the user"
        },
        "returns": {
          "_0": "frozen {bool} represents freezed wallet address"
        }
      },
      "mint(address,uint256)": {
        "params": {
          "amount": "{uint256} amount to mint",
          "to": "{address} wallet to send the token"
        },
        "returns": {
          "_0": "result {boolean} success or failure"
        }
      },
      "myFreezedTokensPeriod()": {
        "returns": {
          "_0": "freezedPeriod {TokenLibrary.FreezePeriod} struct of freezed tokens in period"
        }
      },
      "name()": {
        "details": "Returns the name of the token."
      },
      "owner()": {
        "returns": {
          "_0": "owner {address} wallet addres from owner"
        }
      },
      "pause(uint256)": {
        "params": {
          "_paused": "{uint256} represents date when transfer restart"
        }
      },
      "redeemFreezedTokens()": {
        "returns": {
          "_0": "success {bool} success of redeeming tokens"
        }
      },
      "renounceOwnership()": {
        "details": "Leaves the contract without owner. It will not be possible to call `onlyOwner` functions anymore. Can only be called by the current owner. NOTE: Renouncing ownership will leave the contract without an owner, thereby removing any functionality that is only available to the owner."
      },
      "setAddressFrozen(address,bool)": {
        "params": {
          "freeze": "{boolean} representing freezing",
          "userAddress": "{address} of the user"
        }
      },
      "setFreezedTokensPeriod(uint256,uint256,uint256,address)": {
        "params": {
          "amountFreezed": "{uint256} Amount of frozen token",
          "endTime": "{uint256} End time of freezing partial token",
          "startTime": "{uint256} Start time of freezing partial token",
          "userAddress": "{address} Address wallet of the user frozen token"
        }
      },
      "symbol()": {
        "details": "Returns the symbol of the token, usually a shorter version of the name."
      },
      "totalSupply()": {
        "details": "See {IERC20-totalSupply}."
      },
      "transfer(address,uint256)": {
        "details": "Transfer and send `amount` tokens from `_msgSender()` to `to` Returns a boolean value indicating whether the operation succeeded. Emits a {Transfer} event.",
        "params": {
          "amount": "{uint256[]} amount to transfer",
          "to": "{address} wallet to transfer the token"
        }
      },
      "transferFrom(address,address,uint256)": {
        "details": "See {IERC20-transferFrom}."
      },
      "transferOwnership(address)": {
        "params": {
          "account": "{address} address of the new owner"
        }
      },
      "transfers()": {
        "returns": {
          "_0": "result {TokenLibrary.Transfer[]} array of register transfers movements"
        }
      },
      "unfreezePartialTokens(address,uint256)": {
        "params": {
          "amount": "{uint256} of token to be unfreezed",
          "userAddress": "{address} of the user"
        }
      },
      "unlockableTokensPeriod()": {
        "returns": {
          "_0": "unlockable {uint256} of unlockable tokens freezed in period"
        }
      },
      "version()": {
        "returns": {
          "_0": "TOKEN_VERSION {string} version of the smart contract"
        }
      }
    },
    "version": 1
  },
  "userdoc": {
    "kind": "user",
    "methods": {
      "batchBurn(address[],uint256[])": {
        "notice": "Remove `amounts` tokens from `accounts` Returns a boolean value indicating whether the operation succeeded. Emits a {Transfer} event."
      },
      "batchForcedTransfer(address[],address[],uint256[])": {
        "notice": "Force an array of transfer by agent"
      },
      "batchFreezePartialTokens(address[],uint256[])": {
        "notice": "Freeze patial tokens of multiples wallets"
      },
      "batchMint(address[],uint256[])": {
        "notice": "Mint and send `amounts` tokens to `toList` Returns a boolean value indicating whether the operation succeeded. Emits a {Transfer} event by {to}."
      },
      "batchSetAddressFrozen(address[],bool[])": {
        "notice": "Freeze totality tokens of multiples wallet addresses"
      },
      "batchUnfreezePartialTokens(address[],uint256[])": {
        "notice": "Unfreeze patial tokens of multiples wallets"
      },
      "burn(address,uint256)": {
        "notice": "Remove `amount` tokens from `account` Returns a boolean value indicating whether the operation succeeded. Emits a {Transfer} event."
      },
      "eligibleBalanceOf(address)": {
        "notice": "return not freezed tokens from an address wallet"
      },
      "forcedTransfer(address,address,uint256)": {
        "notice": "Force an address wallet to transfer by agent"
      },
      "freezePartialTokens(address,uint256)": {
        "notice": "Freeze patial tokens of single wallet"
      },
      "getFreezedTokensPeriod(address)": {
        "notice": "Retrieve struct of freezed tokens in period of one wallet address by agent"
      },
      "getFrozenTokens(address)": {
        "notice": "Return freezed tokens amount of wallet address"
      },
      "isFrozen(address)": {
        "notice": "Return freezed or not wallet address tokens"
      },
      "mint(address,uint256)": {
        "notice": "Mint and send `amount` tokens to `to` Returns a boolean value indicating whether the operation succeeded. Emits a {Transfer} event."
      },
      "myFreezedTokensPeriod()": {
        "notice": "Retrieve struct of freezed tokens in period of msg.sender"
      },
      "owner()": {
        "notice": "Returns the address wallet of the smart contract owner."
      },
      "pause(uint256)": {
        "notice": "Pause transfer tokens of smart contract"
      },
      "redeemFreezedTokens()": {
        "notice": "Redeem unlockable freezed tokens periodically"
      },
      "setAddressFrozen(address,bool)": {
        "notice": "Freeze totality tokens of single wallet address"
      },
      "setFreezedTokensPeriod(uint256,uint256,uint256,address)": {
        "notice": "Freeze token of one address wallet periodically"
      },
      "transferOwnership(address)": {
        "notice": "Transfer ownership of the smart contract"
      },
      "transfers()": {
        "notice": "Get movements of the assets"
      },
      "unfreezePartialTokens(address,uint256)": {
        "notice": "Unfreeze patial tokens of single wallet"
      },
      "unlockableTokensPeriod()": {
        "notice": "Get unlockable tokens freezed in period for msg.sender"
      },
      "unpause()": {
        "notice": "Unpause transfer tokens of smart contract"
      },
      "version()": {
        "notice": "Returns the version of the token contract"
      }
    },
    "version": 1
  }
}