{
  "contractName": "SecurityToken",
  "abi": [
    {
      "inputs": [
        {
          "internalType": "string",
          "name": "_name",
          "type": "string"
        },
        {
          "internalType": "string",
          "name": "_code",
          "type": "string"
        },
        {
          "internalType": "uint256",
          "name": "_pricePerToken",
          "type": "uint256"
        },
        {
          "components": [
            {
              "internalType": "bool",
              "name": "freezableAddress",
              "type": "bool"
            },
            {
              "internalType": "bool",
              "name": "freezablePartial",
              "type": "bool"
            },
            {
              "internalType": "bool",
              "name": "freezablePartialTime",
              "type": "bool"
            },
            {
              "internalType": "bool",
              "name": "pausable",
              "type": "bool"
            },
            {
              "internalType": "bool",
              "name": "forcableTransfer",
              "type": "bool"
            },
            {
              "internalType": "bool",
              "name": "rulesModifiable",
              "type": "bool"
            },
            {
              "internalType": "uint256",
              "name": "dayToWithdraw",
              "type": "uint256"
            },
            {
              "internalType": "uint256",
              "name": "startFundraising",
              "type": "uint256"
            },
            {
              "internalType": "uint256",
              "name": "endFundraising",
              "type": "uint256"
            },
            {
              "internalType": "uint256",
              "name": "maxSupply",
              "type": "uint256"
            }
          ],
          "internalType": "struct TokenLibrary.Rules",
          "name": "_rules",
          "type": "tuple"
        }
      ],
      "stateMutability": "nonpayable",
      "type": "constructor"
    },
    {
      "inputs": [
        {
          "internalType": "address",
          "name": "account",
          "type": "address"
        },
        {
          "internalType": "uint256",
          "name": "accountBalance",
          "type": "uint256"
        },
        {
          "internalType": "uint256",
          "name": "amount",
          "type": "uint256"
        }
      ],
      "name": "BurnAmountExceedsBalance",
      "type": "error"
    },
    {
      "inputs": [
        {
          "internalType": "address",
          "name": "account",
          "type": "address"
        }
      ],
      "name": "BurnFromZeroAddress",
      "type": "error"
    },
    {
      "inputs": [
        {
          "internalType": "address",
          "name": "account",
          "type": "address"
        },
        {
          "internalType": "uint256",
          "name": "previousBalance",
          "type": "uint256"
        },
        {
          "internalType": "uint256",
          "name": "currentBalance",
          "type": "uint256"
        },
        {
          "internalType": "uint256",
          "name": "amount",
          "type": "uint256"
        }
      ],
      "name": "MintDoesNotWork",
      "type": "error"
    },
    {
      "inputs": [
        {
          "internalType": "address",
          "name": "account",
          "type": "address"
        }
      ],
      "name": "MintFromZeroAddress",
      "type": "error"
    },
    {
      "inputs": [
        {
          "internalType": "address",
          "name": "sender",
          "type": "address"
        }
      ],
      "name": "NotAgent",
      "type": "error"
    },
    {
      "inputs": [
        {
          "internalType": "address",
          "name": "sender",
          "type": "address"
        }
      ],
      "name": "NotReader",
      "type": "error"
    },
    {
      "inputs": [
        {
          "internalType": "address",
          "name": "sender",
          "type": "address"
        },
        {
          "internalType": "bytes32",
          "name": "role",
          "type": "bytes32"
        }
      ],
      "name": "NotTheOwner",
      "type": "error"
    },
    {
      "inputs": [
        {
          "internalType": "uint256",
          "name": "fromBalance",
          "type": "uint256"
        },
        {
          "internalType": "address",
          "name": "from",
          "type": "address"
        },
        {
          "internalType": "uint256",
          "name": "amount",
          "type": "uint256"
        }
      ],
      "name": "TransferAmountExceedsBalance",
      "type": "error"
    },
    {
      "inputs": [
        {
          "internalType": "address",
          "name": "from",
          "type": "address"
        }
      ],
      "name": "TransferFromZeroAddress",
      "type": "error"
    },
    {
      "inputs": [
        {
          "internalType": "address",
          "name": "to",
          "type": "address"
        }
      ],
      "name": "TransferToZeroAddress",
      "type": "error"
    },
    {
      "anonymous": false,
      "inputs": [
        {
          "indexed": true,
          "internalType": "address",
          "name": "userAddress",
          "type": "address"
        },
        {
          "indexed": true,
          "internalType": "bool",
          "name": "freeze",
          "type": "bool"
        },
        {
          "indexed": true,
          "internalType": "address",
          "name": "sender",
          "type": "address"
        }
      ],
      "name": "AddressFrozen",
      "type": "event"
    },
    {
      "anonymous": false,
      "inputs": [
        {
          "indexed": true,
          "internalType": "address",
          "name": "_agent",
          "type": "address"
        }
      ],
      "name": "AgentAdded",
      "type": "event"
    },
    {
      "anonymous": false,
      "inputs": [
        {
          "indexed": true,
          "internalType": "address",
          "name": "_agent",
          "type": "address"
        }
      ],
      "name": "AgentRemoved",
      "type": "event"
    },
    {
      "anonymous": false,
      "inputs": [
        {
          "indexed": true,
          "internalType": "address",
          "name": "owner",
          "type": "address"
        },
        {
          "indexed": true,
          "internalType": "address",
          "name": "spender",
          "type": "address"
        },
        {
          "indexed": false,
          "internalType": "uint256",
          "name": "value",
          "type": "uint256"
        }
      ],
      "name": "Approval",
      "type": "event"
    },
    {
      "anonymous": false,
      "inputs": [
        {
          "indexed": true,
          "internalType": "address",
          "name": "previousOwner",
          "type": "address"
        },
        {
          "indexed": true,
          "internalType": "address",
          "name": "newOwner",
          "type": "address"
        }
      ],
      "name": "OwnershipTransferred",
      "type": "event"
    },
    {
      "anonymous": false,
      "inputs": [
        {
          "indexed": true,
          "internalType": "address",
          "name": "sender",
          "type": "address"
        },
        {
          "indexed": true,
          "internalType": "uint256",
          "name": "paused",
          "type": "uint256"
        }
      ],
      "name": "Paused",
      "type": "event"
    },
    {
      "anonymous": false,
      "inputs": [
        {
          "indexed": true,
          "internalType": "address",
          "name": "_reader",
          "type": "address"
        }
      ],
      "name": "ReaderAdded",
      "type": "event"
    },
    {
      "anonymous": false,
      "inputs": [
        {
          "indexed": true,
          "internalType": "address",
          "name": "_reader",
          "type": "address"
        }
      ],
      "name": "ReaderRemoved",
      "type": "event"
    },
    {
      "anonymous": false,
      "inputs": [
        {
          "indexed": true,
          "internalType": "address",
          "name": "userAddress",
          "type": "address"
        },
        {
          "indexed": true,
          "internalType": "uint256",
          "name": "amount",
          "type": "uint256"
        }
      ],
      "name": "TokensFrozen",
      "type": "event"
    },
    {
      "anonymous": false,
      "inputs": [
        {
          "indexed": true,
          "internalType": "address",
          "name": "userAddress",
          "type": "address"
        },
        {
          "indexed": true,
          "internalType": "uint256",
          "name": "startTime",
          "type": "uint256"
        },
        {
          "indexed": true,
          "internalType": "uint256",
          "name": "endTime",
          "type": "uint256"
        },
        {
          "indexed": false,
          "internalType": "uint256",
          "name": "amount",
          "type": "uint256"
        },
        {
          "indexed": false,
          "internalType": "address",
          "name": "signer",
          "type": "address"
        }
      ],
      "name": "TokensFrozenPeriod",
      "type": "event"
    },
    {
      "anonymous": false,
      "inputs": [
        {
          "indexed": true,
          "internalType": "address",
          "name": "userAddress",
          "type": "address"
        },
        {
          "indexed": true,
          "internalType": "uint256",
          "name": "amount",
          "type": "uint256"
        }
      ],
      "name": "TokensUnfrozen",
      "type": "event"
    },
    {
      "anonymous": false,
      "inputs": [
        {
          "indexed": true,
          "internalType": "address",
          "name": "userAddress",
          "type": "address"
        },
        {
          "indexed": true,
          "internalType": "uint256",
          "name": "amount",
          "type": "uint256"
        }
      ],
      "name": "TokensUnfrozenPeriod",
      "type": "event"
    },
    {
      "anonymous": false,
      "inputs": [
        {
          "indexed": false,
          "internalType": "string",
          "name": "eventType",
          "type": "string"
        },
        {
          "indexed": true,
          "internalType": "address",
          "name": "from",
          "type": "address"
        },
        {
          "indexed": true,
          "internalType": "address",
          "name": "to",
          "type": "address"
        },
        {
          "indexed": false,
          "internalType": "uint256",
          "name": "value",
          "type": "uint256"
        }
      ],
      "name": "Transfer",
      "type": "event"
    },
    {
      "anonymous": false,
      "inputs": [
        {
          "indexed": true,
          "internalType": "address",
          "name": "from",
          "type": "address"
        },
        {
          "indexed": true,
          "internalType": "address",
          "name": "to",
          "type": "address"
        },
        {
          "indexed": false,
          "internalType": "uint256",
          "name": "value",
          "type": "uint256"
        }
      ],
      "name": "Transfer",
      "type": "event"
    },
    {
      "anonymous": false,
      "inputs": [
        {
          "indexed": true,
          "internalType": "address",
          "name": "oldAccount",
          "type": "address"
        },
        {
          "indexed": true,
          "internalType": "address",
          "name": "newAccount",
          "type": "address"
        }
      ],
      "name": "TransferOwnership",
      "type": "event"
    },
    {
      "inputs": [],
      "name": "_now",
      "outputs": [
        {
          "internalType": "uint256",
          "name": "",
          "type": "uint256"
        }
      ],
      "stateMutability": "view",
      "type": "function"
    },
    {
      "inputs": [
        {
          "internalType": "address",
          "name": "_agent",
          "type": "address"
        }
      ],
      "name": "addAgent",
      "outputs": [],
      "stateMutability": "nonpayable",
      "type": "function"
    },
    {
      "inputs": [
        {
          "internalType": "address",
          "name": "_reader",
          "type": "address"
        }
      ],
      "name": "addReader",
      "outputs": [],
      "stateMutability": "nonpayable",
      "type": "function"
    },
    {
      "inputs": [
        {
          "internalType": "address",
          "name": "owner",
          "type": "address"
        },
        {
          "internalType": "address",
          "name": "spender",
          "type": "address"
        }
      ],
      "name": "allowance",
      "outputs": [
        {
          "internalType": "uint256",
          "name": "",
          "type": "uint256"
        }
      ],
      "stateMutability": "view",
      "type": "function"
    },
    {
      "inputs": [
        {
          "internalType": "address",
          "name": "spender",
          "type": "address"
        },
        {
          "internalType": "uint256",
          "name": "amount",
          "type": "uint256"
        }
      ],
      "name": "approve",
      "outputs": [
        {
          "internalType": "bool",
          "name": "",
          "type": "bool"
        }
      ],
      "stateMutability": "nonpayable",
      "type": "function"
    },
    {
      "inputs": [
        {
          "internalType": "address",
          "name": "account",
          "type": "address"
        }
      ],
      "name": "balanceOf",
      "outputs": [
        {
          "internalType": "uint256",
          "name": "",
          "type": "uint256"
        }
      ],
      "stateMutability": "view",
      "type": "function"
    },
    {
      "inputs": [],
      "name": "decimals",
      "outputs": [
        {
          "internalType": "uint8",
          "name": "",
          "type": "uint8"
        }
      ],
      "stateMutability": "view",
      "type": "function"
    },
    {
      "inputs": [
        {
          "internalType": "address",
          "name": "spender",
          "type": "address"
        },
        {
          "internalType": "uint256",
          "name": "subtractedValue",
          "type": "uint256"
        }
      ],
      "name": "decreaseAllowance",
      "outputs": [
        {
          "internalType": "bool",
          "name": "",
          "type": "bool"
        }
      ],
      "stateMutability": "nonpayable",
      "type": "function"
    },
    {
      "inputs": [
        {
          "internalType": "address",
          "name": "spender",
          "type": "address"
        },
        {
          "internalType": "uint256",
          "name": "addedValue",
          "type": "uint256"
        }
      ],
      "name": "increaseAllowance",
      "outputs": [
        {
          "internalType": "bool",
          "name": "",
          "type": "bool"
        }
      ],
      "stateMutability": "nonpayable",
      "type": "function"
    },
    {
      "inputs": [
        {
          "internalType": "address",
          "name": "_agent",
          "type": "address"
        }
      ],
      "name": "isAgent",
      "outputs": [
        {
          "internalType": "bool",
          "name": "",
          "type": "bool"
        }
      ],
      "stateMutability": "view",
      "type": "function"
    },
    {
      "inputs": [
        {
          "internalType": "address",
          "name": "_reader",
          "type": "address"
        }
      ],
      "name": "isReader",
      "outputs": [
        {
          "internalType": "bool",
          "name": "",
          "type": "bool"
        }
      ],
      "stateMutability": "view",
      "type": "function"
    },
    {
      "inputs": [],
      "name": "name",
      "outputs": [
        {
          "internalType": "string",
          "name": "",
          "type": "string"
        }
      ],
      "stateMutability": "view",
      "type": "function"
    },
    {
      "inputs": [
        {
          "internalType": "address",
          "name": "_agent",
          "type": "address"
        }
      ],
      "name": "removeAgent",
      "outputs": [],
      "stateMutability": "nonpayable",
      "type": "function"
    },
    {
      "inputs": [
        {
          "internalType": "address",
          "name": "_reader",
          "type": "address"
        }
      ],
      "name": "removeReader",
      "outputs": [],
      "stateMutability": "nonpayable",
      "type": "function"
    },
    {
      "inputs": [],
      "name": "renounceOwnership",
      "outputs": [],
      "stateMutability": "nonpayable",
      "type": "function"
    },
    {
      "inputs": [],
      "name": "symbol",
      "outputs": [
        {
          "internalType": "string",
          "name": "",
          "type": "string"
        }
      ],
      "stateMutability": "view",
      "type": "function"
    },
    {
      "inputs": [],
      "name": "totalSupply",
      "outputs": [
        {
          "internalType": "uint256",
          "name": "",
          "type": "uint256"
        }
      ],
      "stateMutability": "view",
      "type": "function"
    },
    {
      "inputs": [
        {
          "internalType": "address",
          "name": "from",
          "type": "address"
        },
        {
          "internalType": "address",
          "name": "to",
          "type": "address"
        },
        {
          "internalType": "uint256",
          "name": "amount",
          "type": "uint256"
        }
      ],
      "name": "transferFrom",
      "outputs": [
        {
          "internalType": "bool",
          "name": "",
          "type": "bool"
        }
      ],
      "stateMutability": "nonpayable",
      "type": "function"
    },
    {
      "inputs": [],
      "name": "version",
      "outputs": [
        {
          "internalType": "string",
          "name": "",
          "type": "string"
        }
      ],
      "stateMutability": "pure",
      "type": "function"
    },
    {
      "inputs": [],
      "name": "owner",
      "outputs": [
        {
          "internalType": "address",
          "name": "",
          "type": "address"
        }
      ],
      "stateMutability": "view",
      "type": "function"
    },
    {
      "inputs": [],
      "name": "transfers",
      "outputs": [
        {
          "components": [
            {
              "internalType": "string",
              "name": "transferType",
              "type": "string"
            },
            {
              "internalType": "address",
              "name": "from",
              "type": "address"
            },
            {
              "internalType": "address",
              "name": "to",
              "type": "address"
            },
            {
              "internalType": "uint256",
              "name": "amount",
              "type": "uint256"
            },
            {
              "internalType": "uint256",
              "name": "date",
              "type": "uint256"
            }
          ],
          "internalType": "struct TokenLibrary.Transfer[]",
          "name": "",
          "type": "tuple[]"
        }
      ],
      "stateMutability": "view",
      "type": "function"
    },
    {
      "inputs": [
        {
          "internalType": "address",
          "name": "account",
          "type": "address"
        }
      ],
      "name": "transferOwnership",
      "outputs": [],
      "stateMutability": "nonpayable",
      "type": "function"
    },
    {
      "inputs": [
        {
          "internalType": "address",
          "name": "account",
          "type": "address"
        }
      ],
      "name": "eligibleBalanceOf",
      "outputs": [
        {
          "internalType": "uint256",
          "name": "",
          "type": "uint256"
        }
      ],
      "stateMutability": "view",
      "type": "function"
    },
    {
      "inputs": [
        {
          "internalType": "uint256",
          "name": "startFundraising",
          "type": "uint256"
        },
        {
          "internalType": "uint256",
          "name": "endFundraising",
          "type": "uint256"
        },
        {
          "internalType": "uint256",
          "name": "maxSupply",
          "type": "uint256"
        }
      ],
      "name": "setFundraising",
      "outputs": [],
      "stateMutability": "nonpayable",
      "type": "function"
    },
    {
      "inputs": [
        {
          "internalType": "address",
          "name": "to",
          "type": "address"
        },
        {
          "internalType": "uint256",
          "name": "amount",
          "type": "uint256"
        }
      ],
      "name": "mint",
      "outputs": [
        {
          "internalType": "bool",
          "name": "",
          "type": "bool"
        }
      ],
      "stateMutability": "payable",
      "type": "function"
    },
    {
      "inputs": [
        {
          "internalType": "address",
          "name": "account",
          "type": "address"
        },
        {
          "internalType": "uint256",
          "name": "amount",
          "type": "uint256"
        }
      ],
      "name": "burn",
      "outputs": [
        {
          "internalType": "bool",
          "name": "",
          "type": "bool"
        }
      ],
      "stateMutability": "nonpayable",
      "type": "function"
    },
    {
      "inputs": [
        {
          "internalType": "uint256",
          "name": "amount",
          "type": "uint256"
        }
      ],
      "name": "refoundable",
      "outputs": [
        {
          "internalType": "uint256",
          "name": "",
          "type": "uint256"
        }
      ],
      "stateMutability": "view",
      "type": "function"
    },
    {
      "inputs": [
        {
          "internalType": "address",
          "name": "to",
          "type": "address"
        },
        {
          "internalType": "uint256",
          "name": "amount",
          "type": "uint256"
        }
      ],
      "name": "transfer",
      "outputs": [
        {
          "internalType": "bool",
          "name": "",
          "type": "bool"
        }
      ],
      "stateMutability": "nonpayable",
      "type": "function"
    },
    {
      "inputs": [
        {
          "internalType": "address",
          "name": "operator",
          "type": "address"
        },
        {
          "internalType": "address",
          "name": "from",
          "type": "address"
        },
        {
          "internalType": "address",
          "name": "to",
          "type": "address"
        },
        {
          "internalType": "uint256",
          "name": "value",
          "type": "uint256"
        }
      ],
      "name": "canTransfer",
      "outputs": [
        {
          "internalType": "bytes1",
          "name": "",
          "type": "bytes1"
        }
      ],
      "stateMutability": "view",
      "type": "function"
    },
    {
      "inputs": [
        {
          "internalType": "address",
          "name": "from",
          "type": "address"
        },
        {
          "internalType": "address",
          "name": "to",
          "type": "address"
        },
        {
          "internalType": "uint256",
          "name": "amount",
          "type": "uint256"
        }
      ],
      "name": "forceTransfer",
      "outputs": [
        {
          "internalType": "bool",
          "name": "",
          "type": "bool"
        }
      ],
      "stateMutability": "nonpayable",
      "type": "function"
    },
    {
      "inputs": [
        {
          "internalType": "uint256",
          "name": "_paused",
          "type": "uint256"
        }
      ],
      "name": "pause",
      "outputs": [],
      "stateMutability": "nonpayable",
      "type": "function"
    },
    {
      "inputs": [],
      "name": "unpause",
      "outputs": [],
      "stateMutability": "nonpayable",
      "type": "function"
    },
    {
      "inputs": [
        {
          "internalType": "address",
          "name": "userAddress",
          "type": "address"
        }
      ],
      "name": "isFrozen",
      "outputs": [
        {
          "internalType": "bool",
          "name": "",
          "type": "bool"
        }
      ],
      "stateMutability": "view",
      "type": "function"
    },
    {
      "inputs": [
        {
          "internalType": "address",
          "name": "userAddress",
          "type": "address"
        }
      ],
      "name": "getFrozenTokens",
      "outputs": [
        {
          "internalType": "uint256",
          "name": "",
          "type": "uint256"
        }
      ],
      "stateMutability": "view",
      "type": "function"
    },
    {
      "inputs": [
        {
          "internalType": "address",
          "name": "userAddress",
          "type": "address"
        },
        {
          "internalType": "bool",
          "name": "freeze",
          "type": "bool"
        }
      ],
      "name": "setAddressFrozen",
      "outputs": [],
      "stateMutability": "nonpayable",
      "type": "function"
    },
    {
      "inputs": [
        {
          "internalType": "address[]",
          "name": "userAddresses",
          "type": "address[]"
        },
        {
          "internalType": "bool[]",
          "name": "freeze",
          "type": "bool[]"
        }
      ],
      "name": "batchSetAddressFrozen",
      "outputs": [],
      "stateMutability": "nonpayable",
      "type": "function"
    },
    {
      "inputs": [
        {
          "internalType": "address",
          "name": "userAddress",
          "type": "address"
        },
        {
          "internalType": "uint256",
          "name": "amount",
          "type": "uint256"
        }
      ],
      "name": "freezePartialTokens",
      "outputs": [],
      "stateMutability": "nonpayable",
      "type": "function"
    },
    {
      "inputs": [
        {
          "internalType": "address[]",
          "name": "userAddresses",
          "type": "address[]"
        },
        {
          "internalType": "uint256[]",
          "name": "amounts",
          "type": "uint256[]"
        }
      ],
      "name": "batchFreezePartialTokens",
      "outputs": [],
      "stateMutability": "nonpayable",
      "type": "function"
    },
    {
      "inputs": [
        {
          "internalType": "address",
          "name": "userAddress",
          "type": "address"
        },
        {
          "internalType": "uint256",
          "name": "amount",
          "type": "uint256"
        }
      ],
      "name": "unfreezePartialTokens",
      "outputs": [],
      "stateMutability": "nonpayable",
      "type": "function"
    },
    {
      "inputs": [
        {
          "internalType": "address[]",
          "name": "userAddresses",
          "type": "address[]"
        },
        {
          "internalType": "uint256[]",
          "name": "amounts",
          "type": "uint256[]"
        }
      ],
      "name": "batchUnfreezePartialTokens",
      "outputs": [],
      "stateMutability": "nonpayable",
      "type": "function"
    },
    {
      "inputs": [
        {
          "internalType": "uint256",
          "name": "startTime",
          "type": "uint256"
        },
        {
          "internalType": "uint256",
          "name": "endTime",
          "type": "uint256"
        },
        {
          "internalType": "uint256",
          "name": "amountFreezed",
          "type": "uint256"
        },
        {
          "internalType": "address",
          "name": "userAddress",
          "type": "address"
        }
      ],
      "name": "setFreezedTokensPeriod",
      "outputs": [],
      "stateMutability": "nonpayable",
      "type": "function"
    },
    {
      "inputs": [],
      "name": "myFreezedTokensPeriod",
      "outputs": [
        {
          "components": [
            {
              "internalType": "uint256",
              "name": "startTime",
              "type": "uint256"
            },
            {
              "internalType": "uint256",
              "name": "endTime",
              "type": "uint256"
            },
            {
              "internalType": "uint256",
              "name": "amountFreezed",
              "type": "uint256"
            }
          ],
          "internalType": "struct TokenLibrary.FreezePeriod",
          "name": "",
          "type": "tuple"
        }
      ],
      "stateMutability": "view",
      "type": "function"
    },
    {
      "inputs": [
        {
          "internalType": "address",
          "name": "userAddress",
          "type": "address"
        }
      ],
      "name": "getFreezedTokensPeriod",
      "outputs": [
        {
          "components": [
            {
              "internalType": "uint256",
              "name": "startTime",
              "type": "uint256"
            },
            {
              "internalType": "uint256",
              "name": "endTime",
              "type": "uint256"
            },
            {
              "internalType": "uint256",
              "name": "amountFreezed",
              "type": "uint256"
            }
          ],
          "internalType": "struct TokenLibrary.FreezePeriod",
          "name": "",
          "type": "tuple"
        }
      ],
      "stateMutability": "view",
      "type": "function"
    },
    {
      "inputs": [],
      "name": "unlockableTokensPeriod",
      "outputs": [
        {
          "internalType": "uint256",
          "name": "",
          "type": "uint256"
        }
      ],
      "stateMutability": "view",
      "type": "function"
    },
    {
      "inputs": [],
      "name": "redeemFreezedTokens",
      "outputs": [
        {
          "internalType": "bool",
          "name": "",
          "type": "bool"
        }
      ],
      "stateMutability": "nonpayable",
      "type": "function"
    },
    {
      "inputs": [
        {
          "internalType": "uint256",
          "name": "amount",
          "type": "uint256"
        },
        {
          "internalType": "address",
          "name": "receiver",
          "type": "address"
        }
      ],
      "name": "withdraw",
      "outputs": [],
      "stateMutability": "nonpayable",
      "type": "function"
    },
    {
      "inputs": [
        {
          "internalType": "uint256",
          "name": "amount",
          "type": "uint256"
        }
      ],
      "name": "withdrawable",
      "outputs": [
        {
          "internalType": "uint256",
          "name": "weiWithdrawable",
          "type": "uint256"
        }
      ],
      "stateMutability": "view",
      "type": "function"
    },
    {
      "inputs": [],
      "name": "injectCapital",
      "outputs": [
        {
          "internalType": "bool",
          "name": "",
          "type": "bool"
        }
      ],
      "stateMutability": "payable",
      "type": "function"
    }
  ],
  "bytecode": "0x60a06040523480156200001157600080fd5b50604051620039813803806200398183398101604081905262000034916200038d565b81848481600390805190602001906200004f929190620001c7565b50805162000065906004906020840190620001c7565b505050620000826200007c6200017160201b60201c565b62000175565b60805233600a80546001600160a01b0319166001600160a01b03929092169190911790558051600b8054602084015160408501516060860151608087015160a088015161ffff1990951696151561ff0019169690961761010093151584021763ffff00001916620100009215159290920263ff0000001916919091176301000000911515919091021761ffff60201b19166401000000009415159490940260ff60281b191693909317650100000000009115159190910217905560c0820151600c5560e0820151600d55810151600e55610120810151600f55620001634290565b600955506200050392505050565b3390565b600580546001600160a01b038381166001600160a01b0319831681179093556040519116919082907f8be0079c531659141344cd1fd0a4f28419497f9722a3daafe3b4186f6b6457e090600090a35050565b828054620001d590620004c6565b90600052602060002090601f016020900481019282620001f9576000855562000244565b82601f106200021457805160ff191683800117855562000244565b8280016001018555821562000244579182015b828111156200024457825182559160200191906001019062000227565b506200025292915062000256565b5090565b5b8082111562000252576000815560010162000257565b634e487b7160e01b600052604160045260246000fd5b60405161014081016001600160401b0381118282101715620002a957620002a96200026d565b60405290565b604051601f8201601f191681016001600160401b0381118282101715620002da57620002da6200026d565b604052919050565b600082601f830112620002f457600080fd5b81516001600160401b038111156200031057620003106200026d565b602062000326601f8301601f19168201620002af565b82815285828487010111156200033b57600080fd5b60005b838110156200035b5785810183015182820184015282016200033e565b838111156200036d5760008385840101525b5095945050505050565b805180151581146200038857600080fd5b919050565b6000806000808486036101a0811215620003a657600080fd5b85516001600160401b0380821115620003be57600080fd5b620003cc89838a01620002e2565b96506020880151915080821115620003e357600080fd5b50620003f288828901620002e2565b9450506040860151925061014080605f19830112156200041157600080fd5b6200041b62000283565b91506200042b6060880162000377565b82526200043b6080880162000377565b60208301526200044e60a0880162000377565b60408301526200046160c0880162000377565b60608301526200047460e0880162000377565b60808301526101006200048981890162000377565b60a08401526101208881015160c08501529188015160e0840152610160880151908301526101809096015195810195909552509194909350909190565b600181811c90821680620004db57607f821691505b60208210811415620004fd57634e487b7160e01b600052602260045260246000fd5b50919050565b6080516134626200051f60003960006113c801526134626000f3fe6080604052600436106102925760003560e01c806370a082311161015a578063afd8b1d1116100c1578063dd62ed3e1161007a578063dd62ed3e14610800578063e583983614610820578063f11988e014610840578063f2fde38b14610860578063f3c7b6a714610880578063fc7e5fa81461088857600080fd5b8063afd8b1d114610763578063afde442a14610783578063b3bb8cd4146107a3578063c69c09cf146107b6578063c7464bf1146107d6578063c7b0d8b7146107eb57600080fd5b806397a6278e1161011357806397a6278e146106ac5780639d200d1f146106cc5780639dc29fac146106e1578063a457c2d714610701578063a9059cbb14610721578063ab5e28c51461074157600080fd5b806370a08231146105fa578063715018a61461061a57806384e798421461062f57806385269dcb1461064f5780638da5cb5b1461066f57806395d89b411461069757600080fd5b8063313ce567116101fe5780634710362d116101b75780634710362d146104f157806354fd4d5014610511578063586abfbd1461053f57806369a7ddf71461055f5780636d62a4fe1461057f5780636df68630146105b857600080fd5b8063313ce5671461044d57806333bebb771461046957806338d65d111461048957806339509351146104a95780633f4ba83a146104c957806340c10f19146104de57600080fd5b806318160ddd1161025057806318160ddd146103985780631a7af379146103ad5780631fe56f7d146103cd5780631ffbb064146103ed57806323b872dd1461040d5780632a87e1d21461042d57600080fd5b8062f714ce1461029757806306fdde03146102b9578063095ea7b3146102e4578063125c4a3314610314578063136439dd14610334578063158b1a5714610354575b600080fd5b3480156102a357600080fd5b506102b76102b2366004612ee5565b6108a8565b005b3480156102c557600080fd5b506102ce6109a3565b6040516102db9190612f5e565b60405180910390f35b3480156102f057600080fd5b506103046102ff366004612f71565b610a35565b60405190151581526020016102db565b34801561032057600080fd5b506102b761032f366004612f71565b610a4d565b34801561034057600080fd5b506102b761034f366004612f9b565b610bb5565b34801561036057600080fd5b5061038a61036f366004612fb4565b6001600160a01b031660009081526013602052604090205490565b6040519081526020016102db565b3480156103a457600080fd5b5060025461038a565b3480156103b957600080fd5b506102b76103c836600461301b565b610caf565b3480156103d957600080fd5b506102b76103e8366004612f71565b610d24565b3480156103f957600080fd5b50610304610408366004612fb4565b610e6e565b34801561041957600080fd5b50610304610428366004613087565b610e81565b34801561043957600080fd5b506102b76104483660046130c3565b610ea5565b34801561045957600080fd5b50604051601281526020016102db565b34801561047557600080fd5b50610304610484366004613087565b610ebb565b34801561049557600080fd5b506102b76104a4366004612fb4565b61114c565b3480156104b557600080fd5b506103046104c4366004612f71565b611196565b3480156104d557600080fd5b506102b76111b8565b6103046104ec366004612f71565b6112b5565b3480156104fd57600080fd5b506102b761050c36600461301b565b611436565b34801561051d57600080fd5b50604080518082019091526005815264302e302e3160d81b60208201526102ce565b34801561054b57600080fd5b5061038a61055a366004612f9b565b61149b565b34801561056b57600080fd5b5061030461057a366004612fb4565b6114c3565b34801561058b57600080fd5b5061059f61059a3660046130ef565b6114d0565b6040516001600160f81b031990911681526020016102db565b3480156105c457600080fd5b506105d86105d3366004612fb4565b61165b565b60408051825181526020808401519082015291810151908201526060016102db565b34801561060657600080fd5b5061038a610615366004612fb4565b6116f1565b34801561062657600080fd5b506102b761170c565b34801561063b57600080fd5b506102b761064a366004612fb4565b611720565b34801561065b57600080fd5b506102b761066a36600461313a565b61176a565b34801561067b57600080fd5b50600a546040516001600160a01b0390911681526020016102db565b3480156106a357600080fd5b506102ce6118fd565b3480156106b857600080fd5b506102b76106c7366004612fb4565b61190c565b3480156106d857600080fd5b5061038a611956565b3480156106ed57600080fd5b506103046106fc366004612f71565b611a7d565b34801561070d57600080fd5b5061030461071c366004612f71565b611d1c565b34801561072d57600080fd5b5061030461073c366004612f71565b611d97565b34801561074d57600080fd5b50610756611dad565b6040516102db9190613179565b34801561076f57600080fd5b506102b761077e366004612fb4565b611fd3565b34801561078f57600080fd5b5061038a61079e366004612fb4565b61201d565b3480156107af57600080fd5b504261038a565b3480156107c257600080fd5b506102b76107d136600461322a565b612061565b3480156107e257600080fd5b506105d8612139565b3480156107f757600080fd5b50610304612197565b34801561080c57600080fd5b5061038a61081b366004613254565b61221b565b34801561082c57600080fd5b5061030461083b366004612fb4565b612246565b34801561084c57600080fd5b5061038a61085b366004612f9b565b612293565b34801561086c57600080fd5b506102b761087b366004612fb4565b61238d565b6103046123f1565b34801561089457600080fd5b506102b76108a336600461301b565b612401565b6108b0612466565b6108b982612293565b50600c54156108f657600c546108df9083906108d99062015180906124c0565b906124c0565b600960008282546108f09190613294565b90915550505b6000816001600160a01b03168360405160006040518083038185875af1925050503d8060008114610943576040519150601f19603f3d011682016040523d82523d6000602084013e610948565b606091505b505090508061099e5760405162461bcd60e51b815260206004820152601760248201527f5769746864726177206e6f74207375636365737366756c00000000000000000060448201526064015b60405180910390fd5b505050565b6060600380546109b2906132ac565b80601f01602080910402602001604051908101604052809291908181526020018280546109de906132ac565b8015610a2b5780601f10610a0057610100808354040283529160200191610a2b565b820191906000526020600020905b815481529060010190602001808311610a0e57829003601f168201915b5050505050905090565b600033610a438185856124d3565b5060019392505050565b610a5633610e6e565b158015610a6e5750600a546001600160a01b03163314155b15610a9a57335b6040516352f49c9560e01b81526001600160a01b039091166004820152602401610995565b600b5460ff610100909104161515600114610ac75760405162461bcd60e51b8152600401610995906132e7565b6000610ad2836116f1565b6001600160a01b038416600090815260136020526040902054909150610af9908390613294565b811015610b485760405162461bcd60e51b815260206004820181905260248201527f416d6f756e74206578636565647320617661696c61626c652062616c616e63656044820152606401610995565b6001600160a01b038316600090815260136020526040902054610b6c908390613294565b6001600160a01b03841660008181526013602052604080822093909355915184927fa065e63c631c86f1b9f66a4a2f63f2093bf1c2168d23290259dbd969e0222a4591a3505050565b610bbe33610e6e565b158015610bd65750600a546001600160a01b03163314155b15610be15733610a75565b6008544211610c255760405162461bcd60e51b815260206004820152601060248201526f14185d5cd8589b194e881c185d5cd95960821b6044820152606401610995565b600b546301000000900460ff161515600114610c7a5760405162461bcd60e51b815260206004820152601460248201527314185d5cd9481a5cc81b9bdd08185b1b1bddd95960621b6044820152606401610995565b6008819055604051819033907fab40a374bc51de372200a8bc981af8c9ecdc08dfdaef0bb6e09f88f3c616ef3d90600090a350565b60005b83811015610d1d57610d0b858583818110610ccf57610ccf61332c565b9050602002016020810190610ce49190612fb4565b848484818110610cf657610cf661332c565b90506020020160208101906107d19190613342565b80610d158161335d565b915050610cb2565b5050505050565b610d2d33610e6e565b158015610d455750600a546001600160a01b03163314155b15610d505733610a75565b600b5460ff610100909104161515600114610d7d5760405162461bcd60e51b8152600401610995906132e7565b6001600160a01b038216600090815260136020526040902054811115610e025760405162461bcd60e51b815260206004820152603460248201527f416d6f756e742073686f756c64206265206c657373207468616e206f7220657160448201527375616c20746f2066726f7a656e20746f6b656e7360601b6064820152608401610995565b6001600160a01b038216600090815260136020526040902054610e26908290613378565b6001600160a01b03831660008181526013602052604080822093909355915183927f9bed35cb62ad0dba04f9d5bfee4b5bc91443e77da8a65c4c84834c51bb08b0d691a35050565b6000610e7b6006836125f7565b92915050565b600033610e8f85828561267a565b610e9a8585856126f4565b506001949350505050565b610ead612466565b600d92909255600e55600f55565b6000610ec633610e6e565b158015610ede5750600a546001600160a01b03163314155b15610ee95733610a75565b600b54640100000000900460ff161515600114610f615760405162461bcd60e51b815260206004820152603060248201527f666f7263655472616e73666572206973206e6f7420617574686f72697a65642060448201526f1bdb881d1a1a5cc818dbdb9d1c9858dd60821b6064820152608401610995565b6000610f6c8561201d565b905080831115610e8f576001600160a01b038516600090815260136020526040812054610f98876116f1565b610fa29190613378565b610fac9085613378565b6001600160a01b038716600090815260136020526040902054909150610fd1876116f1565b610fdb9190613378565b84111561104b576001600160a01b038616600090815260136020526040902054611006908290613378565b6001600160a01b03871660008181526013602052604080822093909355915183927f9bed35cb62ad0dba04f9d5bfee4b5bc91443e77da8a65c4c84834c51bb08b0d691a35b6001600160a01b038616600090815260116020526040902060020154611070876116f1565b61107a9190613378565b6110848286613378565b1115611140576001600160a01b0386166000908152601160205260408120600201546110af886116f1565b6110b99190613378565b6110c38387613378565b6110cd9190613378565b6001600160a01b0388166000908152601160205260409020600201549091506110f7908290613378565b6001600160a01b03881660008181526011602052604080822060020193909355915184927f86fc01e32674e4237a61b84eece63ddaf61eb7a3034e3cc7f8ca90558431f68e91a3505b50610e9a8585856126f4565b611154612466565b61115f600782612750565b6040516001600160a01b038216907fe933431644458f1217f9e93d3e000e03c9bbbe55761046d0985c2e4d157bcbaa90600090a250565b600033610a438185856111a9838361221b565b6111b39190613294565b6124d3565b6111c133610e6e565b1580156111d95750600a546001600160a01b03163314155b156111e45733610a75565b60085442111561122d5760405162461bcd60e51b815260206004820152601460248201527314185d5cd8589b194e881b9bdd081c185d5cd95960621b6044820152606401610995565b600b546301000000900460ff1615156001146112825760405162461bcd60e51b815260206004820152601460248201527314185d5cd9481a5cc81b9bdd08185b1b1bddd95960621b6044820152606401610995565b6000600881905560405133907fab40a374bc51de372200a8bc981af8c9ecdc08dfdaef0bb6e09f88f3c616ef3d908390a3565b600d54600090829042101561130c5760405162461bcd60e51b815260206004820152601760248201527f46756e6472616973696e67206e6f7420737461727465640000000000000000006044820152606401610995565b600e544211158061131d5750600e54155b61135d5760405162461bcd60e51b8152602060048201526011602482015270119d5b991c985a5cda5b99c8195b991959607a1b6044820152606401610995565b600f548161136a60025490565b6113749190613294565b1115806113815750600f54155b6113c25760405162461bcd60e51b815260206004820152601260248201527113585e081cdd5c1c1b1e481c995858da195960721b6044820152606401610995565b6113ec837f000000000000000000000000000000000000000000000000000000000000000061338f565b34101561142c5760405162461bcd60e51b815260206004820152600e60248201526d09cdee840cadcdeeaced040cae8d60931b6044820152606401610995565b610a4384846127d2565b60005b83811015610d1d576114898585838181106114565761145661332c565b905060200201602081019061146b9190612fb4565b84848481811061147d5761147d61332c565b90506020020135610d24565b806114938161335d565b915050611439565b6000610e7b826108d96114b260646108d960025490565b6114bd4760646124c0565b90612809565b6000610e7b6007836125f7565b6000816114dc856116f1565b10156114ed5750602960f91b611653565b6008544210156115025750601560fa1b611653565b6001600160a01b038416600090815260116020908152604080832060020154601390925290912054839190611536876116f1565b6115409190613378565b61154a9190613378565b101561155b5750605560f81b611653565b6001600160a01b0384166115745750602b60f91b611653565b6001600160a01b03831661158d5750605760f81b611653565b61159685610e6e565b1580156115c65750846001600160a01b03166115ba600a546001600160a01b031690565b6001600160a01b031614155b80156115e45750846001600160a01b0316846001600160a01b031614155b156115f45750600b60fb1b611653565b6001600160a01b03841660009081526014602052604090205460ff16156116205750602d60f91b611653565b6001600160a01b03831660009081526014602052604090205460ff161561164c5750605b60f81b611653565b50605160f81b5b949350505050565b61167f60405180606001604052806000815260200160008152602001600081525090565b61168833610e6e565b1580156116a05750600a546001600160a01b03163314155b156116ab5733610a75565b506001600160a01b03811660009081526011602090815260409182902082516060810184528154815260018201549281019290925260020154918101919091525b919050565b6001600160a01b031660009081526020819052604090205490565b611714612466565b61171e6000612815565b565b611728612466565b611733600682612867565b6040516001600160a01b038216907ff68e73cec97f2d70aa641fb26e87a4383686e2efacb648f2165aeb02ac562ec590600090a250565b61177333610e6e565b15801561178b5750600a546001600160a01b03163314155b156117965733610a75565b600b5462010000900460ff1615156001146118085760405162461bcd60e51b815260206004820152602c60248201527f467265657a65207061727469616c20706572696f64206164647265737320697360448201526b081b9bdd08185b1b1bddd95960a21b6064820152608401610995565b611811816116f1565b82111561186c5760405162461bcd60e51b8152602060048201526024808201527f416d6f756e74206973207570706572207468616e2062616c616e6365206f66206044820152633ab9b2b960e11b6064820152608401610995565b6040805160608101825285815260208082018681528284018681526001600160a01b03861660008181526011909452949092209251835551600183015551600290910155839085907fe73f01da0d1ab22feed9447b4801c099a6ebe22122e907da28300e12381a67068533604080519283526001600160a01b0390911660208301520160405180910390a450505050565b6060600480546109b2906132ac565b611914612466565b61191f600682612750565b6040516001600160a01b038216907fed9c8ad8d5a0a66898ea49d2956929c93ae2e8bd50281b2ed897c5d1a6737e0b90600090a250565b336000908152601160209081526040808320815160608101835281548152600182015493810193909352600201549082018190526119cd5760405162461bcd60e51b81526020600482015260146024820152734e6f20746f6b656e20746f20756e667265657a6560601b6044820152606401610995565b8051601e906119dc9042613378565b11611a295760405162461bcd60e51b815260206004820152601c60248201527f54696d6520666f722072656465656d20697320746f6f2073686f7274000000006044820152606401610995565b80516020820151600091611a3c91613378565b8251909150600090611a4e9042613378565b9050611a7560646114bd85604001516108d9866114bd6064886124c090919063ffffffff16565b935050505090565b600080611a898461201d565b905080831115611c5f576001600160a01b038416600090815260136020526040812054611ab5866116f1565b611abf9190613378565b611ac99085613378565b6001600160a01b038616600090815260136020526040902054909150611aee866116f1565b611af89190613378565b841115611b68576001600160a01b038516600090815260136020526040902054611b23908290613378565b6001600160a01b03861660008181526013602052604080822093909355915183927f9bed35cb62ad0dba04f9d5bfee4b5bc91443e77da8a65c4c84834c51bb08b0d691a35b6001600160a01b038516600090815260116020526040902060020154611b8d866116f1565b611b979190613378565b611ba18286613378565b1115611c5d576001600160a01b038516600090815260116020526040812060020154611bcc876116f1565b611bd69190613378565b611be08387613378565b611bea9190613378565b6001600160a01b038716600090815260116020526040902060020154909150611c14908290613378565b6001600160a01b03871660008181526011602052604080822060020193909355915184927f86fc01e32674e4237a61b84eece63ddaf61eb7a3034e3cc7f8ca90558431f68e91a3505b505b6000611c6a8461149b565b9050611c7685856128e3565b6000856001600160a01b03168260405160006040518083038185875af1925050503d8060008114611cc3576040519150601f19603f3d011682016040523d82523d6000602084013e611cc8565b606091505b5050905080611d105760405162461bcd60e51b81526020600482015260146024820152732330b4b632b2103a379039b2b7321022ba3432b960611b6044820152606401610995565b50600195945050505050565b60003381611d2a828661221b565b905083811015611d8a5760405162461bcd60e51b815260206004820152602560248201527f45524332303a2064656372656173656420616c6c6f77616e63652062656c6f77604482015264207a65726f60d81b6064820152608401610995565b610e9a82868684036124d3565b6000611da43384846126f4565b50600192915050565b6060611db8336114c3565b158015611dd05750600a546001600160a01b03163314155b15611dfc57335b6040516325bfed0960e11b81526001600160a01b039091166004820152602401610995565b60155460009063ffffffff1667ffffffffffffffff811115611e2057611e206133ae565b604051908082528060200260200182016040528015611e9557816020015b611e826040518060a001604052806060815260200160006001600160a01b0316815260200160006001600160a01b0316815260200160008152602001600081525090565b815260200190600190039081611e3e5790505b50905060005b60155463ffffffff9081169082161015611fcd5763ffffffff811660009081526010602052604090819020815160a08101909252805482908290611ede906132ac565b80601f0160208091040260200160405190810160405280929190818152602001828054611f0a906132ac565b8015611f575780601f10611f2c57610100808354040283529160200191611f57565b820191906000526020600020905b815481529060010190602001808311611f3a57829003601f168201915b505050918352505060018201546001600160a01b0390811660208301526002830154166040820152600382015460608201526004909101546080909101528251839063ffffffff8416908110611faf57611faf61332c565b60200260200101819052508080611fc5906133c4565b915050611e9b565b50905090565b611fdb612466565b611fe6600782612867565b6040516001600160a01b038216907fb7724d890d2888af5a3fc456edb667e2c82c4441449ebcac301c618759e4f86d90600090a250565b6001600160a01b038116600090815260116020908152604080832060020154601390925282205461204d846116f1565b6120579190613378565b610e7b9190613378565b61206a33610e6e565b1580156120825750600a546001600160a01b03163314155b1561208d5733610a75565b600b5460ff1615156001146120e45760405162461bcd60e51b815260206004820152601d60248201527f467265657a652061646472657373206973206e6f7420616c6c6f7765640000006044820152606401610995565b6001600160a01b038216600081815260146020526040808220805460ff19168515159081179091559051339391927f7fa523c84ab8d7fc5b72f08b9e46dbbf10c39e119a075b3e317002d14bc9f43691a45050565b61215d60405180606001604052806000815260200160008152602001600081525090565b5033600090815260116020908152604091829020825160608101845281548152600182015492810192909252600201549181019190915290565b6000806121a2611956565b9050600081116121b457600091505090565b336000908152601160205260409020428155600201546121d5908290613378565b3360008181526011602052604080822060020193909355915183927f86fc01e32674e4237a61b84eece63ddaf61eb7a3034e3cc7f8ca90558431f68e91a3600191505090565b6001600160a01b03918216600090815260016020908152604080832093909416825291909152205490565b6000612251336114c3565b1580156122695750600a546001600160a01b03163314155b156122745733611dd7565b506001600160a01b031660009081526014602052604090205460ff1690565b600c54600090156122c357600c546122c0906122b39062015180906124c0565b6009546114bd9042613378565b90505b81811015806122d25750600c54155b61231e5760405162461bcd60e51b815260206004820152601c60248201527f4e6f7420656e6f7567682066756e647320746f207769746864726177000000006044820152606401610995565b42600c546123369084906108d99062015180906124c0565b6009546123439190613294565b1115806123505750600c54155b6116ec5760405162461bcd60e51b815260206004820152600e60248201526d151a5b59481a5b98dbdc9c9958dd60921b6044820152606401610995565b612395612466565b600a546040516001600160a01b038084169216907f5c486528ec3e3f0ea91181cff8116f02bfa350e03b8b6f12e00765adbb5af85c90600090a3600a80546001600160a01b0319166001600160a01b0392909216919091179055565b60006123fb612466565b50600190565b60005b83811015610d1d576124548585838181106124215761242161332c565b90506020020160208101906124369190612fb4565b8484848181106124485761244861332c565b90506020020135610a4d565b8061245e8161335d565b915050612404565b600a546001600160a01b0316331461171e5760405162461bcd60e51b815260206004820181905260248201527f4f776e61626c653a2063616c6c6572206973206e6f7420746865206f776e65726044820152606401610995565b60006124cc828461338f565b9392505050565b6001600160a01b0383166125355760405162461bcd60e51b8152602060048201526024808201527f45524332303a20617070726f76652066726f6d20746865207a65726f206164646044820152637265737360e01b6064820152608401610995565b6001600160a01b0382166125965760405162461bcd60e51b815260206004820152602260248201527f45524332303a20617070726f766520746f20746865207a65726f206164647265604482015261737360f01b6064820152608401610995565b6001600160a01b0383811660008181526001602090815260408083209487168084529482529182902085905590518481527f8c5be1e5ebec7d5bd14f71427d1e84f3dd0314c0f7b2291e5b200ac8c7c3b925910160405180910390a3505050565b60006001600160a01b03821661265a5760405162461bcd60e51b815260206004820152602260248201527f526f6c65733a206163636f756e7420697320746865207a65726f206164647265604482015261737360f01b6064820152608401610995565b506001600160a01b03166000908152602091909152604090205460ff1690565b6000612686848461221b565b905060001981146126ee57818110156126e15760405162461bcd60e51b815260206004820152601d60248201527f45524332303a20696e73756666696369656e7420616c6c6f77616e63650000006044820152606401610995565b6126ee84848484036124d3565b50505050565b605160f81b612705338585856114d0565b6001600160f81b0319161461271957600080fd5b612724838383612916565b61099e604051806040016040528060088152602001673a3930b739b332b960c11b815250848484612aba565b61275a82826125f7565b6127b05760405162461bcd60e51b815260206004820152602160248201527f526f6c65733a206163636f756e7420646f6573206e6f74206861766520726f6c6044820152606560f81b6064820152608401610995565b6001600160a01b0316600090815260209190915260409020805460ff19169055565b6127dc8282612c44565b612805604051806040016040528060048152602001631b5a5b9d60e21b81525060008484612aba565b5050565b60006124cc82846133e8565b600580546001600160a01b038381166001600160a01b0319831681179093556040519116919082907f8be0079c531659141344cd1fd0a4f28419497f9722a3daafe3b4186f6b6457e090600090a35050565b61287182826125f7565b156128be5760405162461bcd60e51b815260206004820152601f60248201527f526f6c65733a206163636f756e7420616c72656164792068617320726f6c65006044820152606401610995565b6001600160a01b0316600090815260209190915260409020805460ff19166001179055565b6128ed8282612d03565b61280560405180604001604052806004815260200163313ab93760e11b81525083600084612aba565b6001600160a01b03831661297a5760405162461bcd60e51b815260206004820152602560248201527f45524332303a207472616e736665722066726f6d20746865207a65726f206164604482015264647265737360d81b6064820152608401610995565b6001600160a01b0382166129dc5760405162461bcd60e51b815260206004820152602360248201527f45524332303a207472616e7366657220746f20746865207a65726f206164647260448201526265737360e81b6064820152608401610995565b6001600160a01b03831660009081526020819052604090205481811015612a545760405162461bcd60e51b815260206004820152602660248201527f45524332303a207472616e7366657220616d6f756e7420657863656564732062604482015265616c616e636560d01b6064820152608401610995565b6001600160a01b03848116600081815260208181526040808320878703905593871680835291849020805487019055925185815290927fddf252ad1be2c89b69c2b068fc378daa952ba7f163c4a11628f55a4df523b3ef910160405180910390a36126ee565b6008544211612afe5760405162461bcd60e51b815260206004820152601060248201526f14185d5cd8589b194e881c185d5cd95960821b6044820152606401610995565b816001600160a01b0316836001600160a01b03167f54c25aa230f7ee0c1e146d3416a3a4972d9fa34640b86e84383b461a585593de8684604051612b4392919061340a565b60405180910390a36040518060a00160405280858152602001846001600160a01b03168152602001836001600160a01b03168152602001828152602001612b874290565b905260155463ffffffff166000908152601060209081526040909120825180519192612bb892849290910190612e35565b5060208201516001820180546001600160a01b039283166001600160a01b0319918216179091556040840151600284018054919093169116179055606082015160038201556080909101516004909101556015805463ffffffff16906000612c1f836133c4565b91906101000a81548163ffffffff021916908363ffffffff1602179055505050505050565b6001600160a01b038216612c9a5760405162461bcd60e51b815260206004820152601f60248201527f45524332303a206d696e7420746f20746865207a65726f2061646472657373006044820152606401610995565b8060026000828254612cac9190613294565b90915550506001600160a01b038216600081815260208181526040808320805486019055518481527fddf252ad1be2c89b69c2b068fc378daa952ba7f163c4a11628f55a4df523b3ef910160405180910390a35050565b6001600160a01b038216612d635760405162461bcd60e51b815260206004820152602160248201527f45524332303a206275726e2066726f6d20746865207a65726f206164647265736044820152607360f81b6064820152608401610995565b6001600160a01b03821660009081526020819052604090205481811015612dd75760405162461bcd60e51b815260206004820152602260248201527f45524332303a206275726e20616d6f756e7420657863656564732062616c616e604482015261636560f01b6064820152608401610995565b6001600160a01b0383166000818152602081815260408083208686039055600280548790039055518581529192917fddf252ad1be2c89b69c2b068fc378daa952ba7f163c4a11628f55a4df523b3ef910160405180910390a3505050565b828054612e41906132ac565b90600052602060002090601f016020900481019282612e635760008555612ea9565b82601f10612e7c57805160ff1916838001178555612ea9565b82800160010185558215612ea9579182015b82811115612ea9578251825591602001919060010190612e8e565b50612eb5929150612eb9565b5090565b5b80821115612eb55760008155600101612eba565b80356001600160a01b03811681146116ec57600080fd5b60008060408385031215612ef857600080fd5b82359150612f0860208401612ece565b90509250929050565b6000815180845260005b81811015612f3757602081850181015186830182015201612f1b565b81811115612f49576000602083870101525b50601f01601f19169290920160200192915050565b6020815260006124cc6020830184612f11565b60008060408385031215612f8457600080fd5b612f8d83612ece565b946020939093013593505050565b600060208284031215612fad57600080fd5b5035919050565b600060208284031215612fc657600080fd5b6124cc82612ece565b60008083601f840112612fe157600080fd5b50813567ffffffffffffffff811115612ff957600080fd5b6020830191508360208260051b850101111561301457600080fd5b9250929050565b6000806000806040858703121561303157600080fd5b843567ffffffffffffffff8082111561304957600080fd5b61305588838901612fcf565b9096509450602087013591508082111561306e57600080fd5b5061307b87828801612fcf565b95989497509550505050565b60008060006060848603121561309c57600080fd5b6130a584612ece565b92506130b360208501612ece565b9150604084013590509250925092565b6000806000606084860312156130d857600080fd5b505081359360208301359350604090920135919050565b6000806000806080858703121561310557600080fd5b61310e85612ece565b935061311c60208601612ece565b925061312a60408601612ece565b9396929550929360600135925050565b6000806000806080858703121561315057600080fd5b84359350602085013592506040850135915061316e60608601612ece565b905092959194509250565b60006020808301818452808551808352604092508286019150828160051b87010184880160005b8381101561320c57603f19898403018552815160a081518186526131c682870182612f11565b838b01516001600160a01b03908116888d01528a850151168a880152606080850151908801526080938401519390960192909252505093860193908601906001016131a0565b509098975050505050505050565b803580151581146116ec57600080fd5b6000806040838503121561323d57600080fd5b61324683612ece565b9150612f086020840161321a565b6000806040838503121561326757600080fd5b61327083612ece565b9150612f0860208401612ece565b634e487b7160e01b600052601160045260246000fd5b600082198211156132a7576132a761327e565b500190565b600181811c908216806132c057607f821691505b602082108114156132e157634e487b7160e01b600052602260045260246000fd5b50919050565b60208082526025908201527f467265657a65207061727469616c2061646472657373206973206e6f7420616c6040820152641b1bddd95960da1b606082015260800190565b634e487b7160e01b600052603260045260246000fd5b60006020828403121561335457600080fd5b6124cc8261321a565b60006000198214156133715761337161327e565b5060010190565b60008282101561338a5761338a61327e565b500390565b60008160001904831182151516156133a9576133a961327e565b500290565b634e487b7160e01b600052604160045260246000fd5b600063ffffffff808316818114156133de576133de61327e565b6001019392505050565b60008261340557634e487b7160e01b600052601260045260246000fd5b500490565b60408152600061341d6040830185612f11565b9050826020830152939250505056fea26469706673582212205228f026e08968c0c729c7d739218170e1c0b8ccdc22e7613db2d2a26b6cba5764736f6c634300080b0033",
  "immutableReferences": {
    "3456": [
      {
        "length": 32,
        "start": 5064
      }
    ]
  },
  "source": "// SPDX-License-Identifier: MIT\n\npragma solidity ^0.8.0;\n\n\nimport \"./StorageToken.sol\";\nimport \"../library/TokenLibrary.sol\";\nimport \"../roles/AgentRole.sol\";\nimport \"../roles/ReaderRole.sol\";\nimport \"@openzeppelin/contracts/access/Ownable.sol\";\nimport \"@openzeppelin/contracts/token/ERC20/ERC20.sol\";\nimport \"@openzeppelin/contracts/utils/math/SafeMath.sol\";\n\ncontract SecurityToken is ERC20, AgentRole, ReaderRole, StorageToken {\n    using SafeMath for uint;\n\n    /**\n     */\n    constructor(\n        string memory _name,\n        string memory _code,\n        uint256 _pricePerToken,\n        TokenLibrary.Rules memory _rules\n    ) ERC20(_name, _code) StorageToken(_pricePerToken) {\n        OWNER = _msgSender();\n        rules = _rules;\n        lastWithdraw = _now();\n    }\n\n    /// @dev Modifier to make a function callable only when the contract is not paused.\n    modifier whenNotPaused() {\n        require(_now() > paused, \"Pausable: paused\");\n        _;\n    }\n\n    /// @dev Modifier to make a function callable only when the contract is paused.\n    modifier whenPaused() {\n        require(_now() <= paused, \"Pausable: not paused\");\n        _;\n    }\n\n    /// @dev Modifier to check if fundraising is open and max supply not reached.\n    modifier fundraisable(uint256 amount) {\n        require(_now() >= rules.startFundraising, \"Fundraising not started\");\n        require(_now() <= rules.endFundraising || rules.endFundraising == 0, \"Fundraising ended\");\n        require(totalSupply() + amount <= rules.maxSupply || rules.maxSupply == 0, \"Max supply reached\");\n        _;\n    }\n\n    /**\n     * @notice Returns the version of the token contract\n     * @return TOKEN_VERSION {string} version of the smart contract\n     */\n    function version() external pure returns (string memory) {\n        return TOKEN_VERSION;\n    }\n\n    /**\n     * @notice Returns the address wallet of the smart contract owner.\n     * @return owner {address} wallet addres from owner\n     */\n    function owner() public view override(Ownable) returns (address) {\n        return OWNER;\n    }\n\n    /**\n     * @notice Get movements of the assets\n     * @return result {TokenLibrary.Transfer[]} array of register transfers movements\n     */\n    function transfers() public view onlyReader() returns (TokenLibrary.Transfer[] memory) {\n        TokenLibrary.Transfer[] memory result = new TokenLibrary.Transfer[](_transfersCount);\n        for (uint32 i = 0; i < _transfersCount; i++) {\n            result[i] = _transfers[i];\n        }\n        return result;\n    }\n\n    /**\n     * @notice Transfer ownership of the smart contract\n     * @param account {address} address of the new owner\n     */\n    function transferOwnership(address account) public virtual override(Ownable) onlyOwner {\n        emit TransferOwnership(OWNER, account);\n        OWNER = account;\n    }\n\n    /**\n     * @notice Return not freezed tokens from an address wallet\n     * @param account {address} wallet address of account you want to get not freezed balance\n     * @return balance {uint256} balance of wallet address totaly open\n     */\n    function eligibleBalanceOf(address account) public view returns(uint256) {\n        return balanceOf(account) - frozenTokens[account] - (freezedPeriod[account].amountFreezed);\n    }\n\n    /**\n     * @notice Set fundraising parameters to mint tokens in conditions\n     * @param startFundraising {uint256} start timestamp of the fundraising\n     * @param endFundraising {uint256} end timestamp of the fundraising\n     * @param maxSupply {uint256} max supply tokens of contract\n     */\n    function setFundraising(\n        uint256 startFundraising,\n        uint256 endFundraising,\n        uint256 maxSupply\n    ) external onlyOwner {\n        rules.startFundraising = startFundraising;\n        rules.endFundraising = endFundraising;\n        rules.maxSupply = maxSupply;\n    }\n\n    /**\n     * @notice Mint and send `amount` tokens to `to`\n     *\n     * Returns a boolean value indicating whether the operation succeeded.\n     *\n     * Emits a {Transfer} event.\n     * @param to {address} wallet to send the token\n     * @param amount {uint256} amount to mint\n     * @return result {boolean} success or failure\n     */\n    function mint(address to, uint256 amount) external payable fundraisable(amount) returns (bool) {\n        require(msg.value >= pricePerToken * amount, \"Not enough eth\");\n        _mint(to, amount);\n        return true;\n    }\n\n    /**\n     * @notice Remove `amount` tokens from `account`\n     *\n     * Returns a boolean value indicating whether the operation succeeded.\n     *\n     * Emits a {Transfer} event.\n     * @param account {address} wallet to burn the token\n     * @param amount {uint256} amount to burn\n     */\n    function burn(address account, uint256 amount)\n        public\n        returns (bool)\n    {\n        uint256 freeBalance = eligibleBalanceOf(account);\n        if (amount > freeBalance) {\n            uint256 tokensToUnfreeze = amount - (balanceOf(account) - frozenTokens[account]);\n            if (amount > balanceOf(account) - frozenTokens[account]) {\n                frozenTokens[account] = frozenTokens[account] - (tokensToUnfreeze);\n                emit TokensUnfrozen(account, tokensToUnfreeze);\n            }\n            if (amount - tokensToUnfreeze > balanceOf(account) - (freezedPeriod[account].amountFreezed)) {\n                uint256 tokensToUnfreezePeriod =\n                amount - tokensToUnfreeze - (balanceOf(account) - freezedPeriod[account].amountFreezed);\n                freezedPeriod[account].amountFreezed = freezedPeriod[account].amountFreezed - (tokensToUnfreezePeriod);\n                emit TokensUnfrozenPeriod(account, tokensToUnfreeze);\n            }\n        }\n\n        uint256 _refoundable = refoundable(amount);\n\n        _burn(account, amount);\n\n        (bool sent, ) = account.call{value: _refoundable}(\"\");\n        require(sent, \"Failed to send Ether\");\n        return true;\n    }\n\n    /**\n     * @notice Return amount of refoundable for amount of tokens burned\n     * @param amount {uint256} amout of tokens burn\n     * @return wei {uint256} amount of wei refoundable\n     */\n    function refoundable(uint256 amount) public view returns(uint256){\n        return (address(this).balance.mul(100).div(totalSupply().mul(100))).mul(amount);\n    }\n\n    /**\n     * @dev Transfer and send `amount` tokens from `_msgSender()` to `to`\n     *\n     * Returns a boolean value indicating whether the operation succeeded.\n     *\n     * Emits a {Transfer} event.\n     * @param to {address} wallet to transfer the token\n     * @param amount {uint256[]} amount to transfer\n     */\n    function transfer(address to, uint256 amount) public virtual override returns (bool) {\n        _transfer(_msgSender(), to, amount);\n        return true;\n    }\n\n    /**\n     * @notice Moves `amount` of tokens from `from` to `to`.\n     * @param from {address} the origin of the token transfer\n     * @param to {address} the recipient of the token transfer\n     * @param amount {uint256} the number of tokens transferred\n     */\n    function _transfer(\n        address from,\n        address to,\n        uint256 amount\n    ) internal override virtual {\n        require(canTransfer(_msgSender(), from, to, amount) == (hex\"51\"));\n        super._transfer(from, to, amount);\n        _afterTokenTransfer(\"transfer\", from, to, amount);\n    }\n\n    /**\n     * @notice Interface of transfer method, return hex code error message\n     * @param operator {address} operator of transaction (sender)\n     * @param from {address} the origin of the token transfer\n     * @param to {address} the recipient of the token transfer\n     * @param value {uint256} the number of tokens transferred\n     * @return hex {bytes1} code error message\n     */\n    function canTransfer(\n        address operator,\n        address from,\n        address to,\n        uint256 value\n    ) public view returns (bytes1) {\n        if (balanceOf(from) < value) return(hex\"52\");\n        if(_now() < paused) return(hex\"54\");\n        if(balanceOf(from) - frozenTokens[from] - (freezedPeriod[from].amountFreezed) < value) return(hex\"55\");\n        if(from == address(0)) return(hex\"56\");\n        if(to == address(0)) return(hex\"57\");\n        if(!isAgent(operator) && owner() != operator && from != operator ) return(hex\"58\");\n        if(frozen[from]) return(hex\"5a\");\n        if(frozen[to]) return(hex\"5b\");\n        return (hex\"51\");\n    }\n\n    /**\n     *  @notice Force an address wallet to transfer by agent\n     *  @param from {address} from wallet to transfer\n     *  @param to {address} to wallet to transfer\n     *  @param amount {uint256} amounts of tokens to be transfered\n     */\n    function forceTransfer(\n        address from,\n        address to,\n        uint256 amount\n    ) public onlyAgent returns (bool) {\n        require(rules.forcableTransfer == true, \"forceTransfer is not authorized on this contract\");\n        uint256 freeBalance = eligibleBalanceOf(from);\n\n        if (amount > freeBalance) {\n            uint256 tokensToUnfreeze = amount - (balanceOf(from) - frozenTokens[from]);\n            if (amount > balanceOf(from) - frozenTokens[from]) {\n                frozenTokens[from] = frozenTokens[from] - (tokensToUnfreeze);\n                emit TokensUnfrozen(from, tokensToUnfreeze);\n            }\n            if (amount - tokensToUnfreeze > balanceOf(from) - (freezedPeriod[from].amountFreezed)) {\n                uint256 tokensToUnfreezePeriod = \n                amount - tokensToUnfreeze - (balanceOf(from) - freezedPeriod[from].amountFreezed);\n                freezedPeriod[from].amountFreezed = freezedPeriod[from].amountFreezed - (tokensToUnfreezePeriod);\n                emit TokensUnfrozenPeriod(from, tokensToUnfreeze);\n            }\n        }\n\n        _transfer(from, to, amount);\n        return true;\n    }\n\n    /**\n     * @notice Creates `amount` tokens and assigns them to `account`, increasing\n     * the total supply.\n     * @param account {address} the recipient of the token transfer\n     * @param amount {uint256} the number of tokens destroyed\n     */\n    function _mint(address account, uint256 amount) internal virtual override {\n        super._mint(account, amount);\n        _afterTokenTransfer(\"mint\", address(0), account, amount);\n    }\n\n    /**\n     * @notice Destroys `amount` tokens from `account`, reducing the\n     * total supply.\n     * @param account {address} the origin of the token destroyed\n     * @param amount {uint256} the number of tokens destroyed\n     */\n    function _burn(address account, uint256 amount) internal virtual override {\n        super._burn(account, amount);\n        _afterTokenTransfer(\"burn\", account, address(0), amount);\n    }\n\n    /**\n     *  @notice Pause transfer tokens of smart contract\n     *  @param _paused {uint256} represents date when transfer restart\n     */\n    function pause(uint256 _paused) external onlyAgent whenNotPaused {\n        require(rules.pausable == true, \"Pause is not allowed\");\n        paused = _paused;\n        emit Paused(_msgSender(), paused);\n    }\n\n    /**\n     *  @notice Unpause transfer tokens of smart contract\n     */\n    function unpause() external onlyAgent whenPaused {\n        require(rules.pausable == true, \"Pause is not allowed\");\n        paused = 0;\n        emit Paused(_msgSender(), paused);\n    }\n\n    /**\n     *  @notice Return freezed or not wallet address tokens\n     *  @param userAddress {address} of the user\n     *  @return frozen {bool} represents freezed wallet address\n     */\n    function isFrozen(address userAddress) external view onlyReader returns (bool) {\n        return frozen[userAddress];\n    }\n\n    /**\n     *  @notice Return freezed tokens amount of wallet address\n     *  @param userAddress {address} of the user\n     *  @return frozenTokens {uint256} amount of freezed tokens\n     */\n    function getFrozenTokens(address userAddress) external view returns (uint256) {\n        return frozenTokens[userAddress];\n    }\n\n    /**\n     *  @notice Freeze totality tokens of single wallet address\n     *  @param userAddress {address} of the user\n     *  @param freeze {boolean} representing freezing\n     */\n    function setAddressFrozen(address userAddress, bool freeze) public onlyAgent {\n        require(rules.freezableAddress == true, \"Freeze address is not allowed\");\n        frozen[userAddress] = freeze;\n        emit AddressFrozen(userAddress, freeze, _msgSender());\n    }\n\n    /**\n     *  @notice Freeze totality tokens of multiples wallet addresses\n     *  @param userAddresses {address[]} of user addresses\n     *  @param freeze {bool[]} representing freezing\n     */\n    function batchSetAddressFrozen(address[] calldata userAddresses, bool[] calldata freeze) external {\n        for (uint256 i = 0; i < userAddresses.length; i++) {\n            setAddressFrozen(userAddresses[i], freeze[i]);\n        }\n    }\n\n\n    /**\n     *  @notice Freeze patial tokens of single wallet\n     *  @param userAddress {address} of the user\n     *  @param amount {uint256} of token to be unfreezed\n     */\n    function freezePartialTokens(address userAddress, uint256 amount) public onlyAgent {\n        require(rules.freezablePartial == true, \"Freeze partial address is not allowed\");\n        uint256 balance = balanceOf(userAddress);\n        require(balance >= frozenTokens[userAddress] + amount, \"Amount exceeds available balance\");\n        frozenTokens[userAddress] = frozenTokens[userAddress] + (amount);\n        emit TokensFrozen(userAddress, amount);\n    }\n\n    /**\n     *  @notice Freeze patial tokens of multiples wallets\n     *  @param userAddresses {address[]} of user addresses\n     *  @param amounts {uint256[]} of amounts of token to be unfreezed\n     */\n    function batchFreezePartialTokens(address[] calldata userAddresses, uint256[] calldata amounts) external {\n        for (uint256 i = 0; i < userAddresses.length; i++) {\n            freezePartialTokens(userAddresses[i], amounts[i]);\n        }\n    }\n\n    /**\n     *  @notice Unfreeze patial tokens of single wallet\n     *  @param userAddress {address} of the user\n     *  @param amount {uint256} of token to be unfreezed\n     */\n    function unfreezePartialTokens(address userAddress, uint256 amount) public onlyAgent {\n        require(rules.freezablePartial == true, \"Freeze partial address is not allowed\");\n        require(frozenTokens[userAddress] >= amount, \"Amount should be less than or equal to frozen tokens\");\n        frozenTokens[userAddress] = frozenTokens[userAddress] - (amount);\n        emit TokensUnfrozen(userAddress, amount);\n    }\n\n    /**\n     *  @notice Unfreeze patial tokens of multiples wallets\n     *  @param userAddresses {address[]} of user addresses\n     *  @param amounts {uint256[]} of amounts of token to be unfreezed\n     */\n    function batchUnfreezePartialTokens(address[] calldata userAddresses, uint256[] calldata amounts) external {\n        for (uint256 i = 0; i < userAddresses.length; i++) {\n            unfreezePartialTokens(userAddresses[i], amounts[i]);\n        }\n    }\n\n    /**\n     * @notice Freeze token of one address wallet periodically\n     * @param startTime {uint256} Start time of freezing partial token\n     * @param endTime {uint256} End time of freezing partial token\n     * @param amountFreezed {uint256} Amount of frozen token\n     * @param userAddress {address} Address wallet of the user frozen token\n     */\n    function setFreezedTokensPeriod(\n        uint256 startTime,\n        uint256 endTime,\n        uint256 amountFreezed,\n        address userAddress\n    ) external onlyAgent {\n        require(rules.freezablePartialTime == true, \"Freeze partial period address is not allowed\");\n        require(amountFreezed <= balanceOf(userAddress), \"Amount is upper than balance of user\");\n        freezedPeriod[userAddress] = TokenLibrary.FreezePeriod(\n            startTime,\n            endTime,\n            amountFreezed\n        );\n        emit TokensFrozenPeriod(userAddress, startTime, endTime, amountFreezed, _msgSender());\n    }\n\n    /**\n     * @notice Retrieve struct of freezed tokens in period of msg.sender\n     * @return freezedPeriod {TokenLibrary.FreezePeriod} struct of freezed tokens in period\n     */\n    function myFreezedTokensPeriod() external view returns (TokenLibrary.FreezePeriod memory) {\n        return freezedPeriod[_msgSender()];\n    }\n\n    /**\n     * @notice Retrieve struct of freezed tokens in period of one wallet address by agent\n     * @param userAddress {address} of the user freezed tokens\n     * @return freezedPeriod {TokenLibrary.FreezePeriod} struct of freezed tokens in period\n     */\n    function getFreezedTokensPeriod(address userAddress) external view onlyAgent returns (TokenLibrary.FreezePeriod memory) {\n        return freezedPeriod[userAddress];\n    }\n\n    /**\n     * @notice Get unlockable tokens freezed in period for msg.sender\n     * @return unlockable {uint256} of unlockable tokens freezed in period\n     */\n    function unlockableTokensPeriod() public view returns (uint256) {\n        TokenLibrary.FreezePeriod memory freezedPeriodTemp = freezedPeriod[_msgSender()];\n\n        require(freezedPeriodTemp.amountFreezed > 0, \"No token to unfreeze\");\n        require(_now() - freezedPeriodTemp.startTime > 30, \"Time for redeem is too short\");\n\n        uint256 diff = freezedPeriodTemp.endTime - freezedPeriodTemp.startTime;\n        uint256 timeBehind = _now() - freezedPeriodTemp.startTime;\n\n        return timeBehind.mul(100).div(diff).mul(freezedPeriodTemp.amountFreezed).div(100);\n    }\n\n    /**\n     * @notice Redeem unlockable freezed tokens periodically\n     * @return success {bool} success of redeeming tokens\n     */\n    function redeemFreezedTokens() external returns (bool) {\n        uint256 unlockable = unlockableTokensPeriod();\n        if(unlockable <= 0) return false;\n\n        freezedPeriod[_msgSender()].startTime = _now();\n        freezedPeriod[_msgSender()].amountFreezed = freezedPeriod[_msgSender()].amountFreezed - unlockable;\n\n        emit TokensUnfrozenPeriod(_msgSender(), unlockable);\n\n        return true;\n    }\n\n    /**\n     * @notice Withdraw tokens amount of contract balance\n     * @param amount {uint256} the number of tokens transferred\n     * @param receiver {address} the recipient of the token transfer\n     */\n    function withdraw(uint256 amount, address receiver) external onlyOwner {\n        withdrawable(amount);\n        if(rules.dayToWithdraw != 0)\n            lastWithdraw += oneDay.mul(rules.dayToWithdraw).mul(amount);\n        (bool success, ) = payable(receiver).call{ value: amount}(\"\");\n        require(success, \"Withdraw not successful\");\n    }\n\n    /**\n     * @notice Check amount of withdrawable \n     * @param amount {uint256} the number of tokens withdraw\n     * @return weiWithdrawable {uint256} the number of wei transferrable\n     */\n    function withdrawable(uint256 amount) public view returns(uint256 weiWithdrawable){\n        if(rules.dayToWithdraw != 0)\n            weiWithdrawable = ((_now() - lastWithdraw).div(oneDay.mul(rules.dayToWithdraw)));\n        require(weiWithdrawable >= amount || rules.dayToWithdraw == 0, \"Not enough funds to withdraw\");\n        require(lastWithdraw + oneDay.mul(rules.dayToWithdraw).mul(amount) <= _now() || rules.dayToWithdraw == 0, \"Time incorrect\");\n    }\n\n    /**\n     * @notice Inject wei into smart contract\n     */\n    function injectCapital() external payable onlyOwner returns(bool) {\n        ///maybe todo reduce lastWithdraw ??\n        return true;\n    }\n\n    /**\n     * @notice Hook that is called after any transfer of tokens. This includes\n     * minting and burning.\n     * @param transferType {string} the type of transfer\n     * @param from {address} the origin of the token transfer\n     * @param to {address} the recipient of the token transfer\n     * @param amount {uint256} the number of tokens transferred\n     */\n    function _afterTokenTransfer(\n        string memory transferType,\n        address from,\n        address to,\n        uint256 amount\n    ) internal virtual whenNotPaused {\n        emit Transfer(transferType, from, to, amount);\n        _transfers[_transfersCount] = TokenLibrary.Transfer(\n            transferType,\n            from,\n            to,\n            amount,\n            _now()\n        );\n        _transfersCount++;\n    }\n}\n",
  "sourcePath": "/home/solid-solution/Bureau/HOMEWORK/Smart-Starter/contracts/immutable/SecurityToken.sol",
  "compiler": {
    "name": "solc",
    "version": "0.8.11+commit.d7f03943.Emscripten.clang"
  },
  "schemaVersion": "3.4.10",
  "updatedAt": "2023-02-16T14:57:27.406Z",
  "devdoc": {
    "kind": "dev",
    "methods": {
      "allowance(address,address)": {
        "details": "See {IERC20-allowance}."
      },
      "approve(address,uint256)": {
        "details": "See {IERC20-approve}. NOTE: If `amount` is the maximum `uint256`, the allowance is not updated on `transferFrom`. This is semantically equivalent to an infinite approval. Requirements: - `spender` cannot be the zero address."
      },
      "balanceOf(address)": {
        "details": "See {IERC20-balanceOf}."
      },
      "batchFreezePartialTokens(address[],uint256[])": {
        "params": {
          "amounts": "{uint256[]} of amounts of token to be unfreezed",
          "userAddresses": "{address[]} of user addresses"
        }
      },
      "batchSetAddressFrozen(address[],bool[])": {
        "params": {
          "freeze": "{bool[]} representing freezing",
          "userAddresses": "{address[]} of user addresses"
        }
      },
      "batchUnfreezePartialTokens(address[],uint256[])": {
        "params": {
          "amounts": "{uint256[]} of amounts of token to be unfreezed",
          "userAddresses": "{address[]} of user addresses"
        }
      },
      "burn(address,uint256)": {
        "params": {
          "account": "{address} wallet to burn the token",
          "amount": "{uint256} amount to burn"
        }
      },
      "canTransfer(address,address,address,uint256)": {
        "params": {
          "from": "{address} the origin of the token transfer",
          "operator": "{address} operator of transaction (sender)",
          "to": "{address} the recipient of the token transfer",
          "value": "{uint256} the number of tokens transferred"
        },
        "returns": {
          "_0": "hex {bytes1} code error message"
        }
      },
      "decimals()": {
        "details": "Returns the number of decimals used to get its user representation. For example, if `decimals` equals `2`, a balance of `505` tokens should be displayed to a user as `5.05` (`505 / 10 ** 2`). Tokens usually opt for a value of 18, imitating the relationship between Ether and Wei. This is the value {ERC20} uses, unless this function is overridden; NOTE: This information is only used for _display_ purposes: it in no way affects any of the arithmetic of the contract, including {IERC20-balanceOf} and {IERC20-transfer}."
      },
      "decreaseAllowance(address,uint256)": {
        "details": "Atomically decreases the allowance granted to `spender` by the caller. This is an alternative to {approve} that can be used as a mitigation for problems described in {IERC20-approve}. Emits an {Approval} event indicating the updated allowance. Requirements: - `spender` cannot be the zero address. - `spender` must have allowance for the caller of at least `subtractedValue`."
      },
      "eligibleBalanceOf(address)": {
        "params": {
          "account": "{address} wallet address of account you want to get not freezed balance"
        },
        "returns": {
          "_0": "balance {uint256} balance of wallet address totaly open"
        }
      },
      "forceTransfer(address,address,uint256)": {
        "params": {
          "amount": "{uint256} amounts of tokens to be transfered",
          "from": "{address} from wallet to transfer",
          "to": "{address} to wallet to transfer"
        }
      },
      "freezePartialTokens(address,uint256)": {
        "params": {
          "amount": "{uint256} of token to be unfreezed",
          "userAddress": "{address} of the user"
        }
      },
      "getFreezedTokensPeriod(address)": {
        "params": {
          "userAddress": "{address} of the user freezed tokens"
        },
        "returns": {
          "_0": "freezedPeriod {TokenLibrary.FreezePeriod} struct of freezed tokens in period"
        }
      },
      "getFrozenTokens(address)": {
        "params": {
          "userAddress": "{address} of the user"
        },
        "returns": {
          "_0": "frozenTokens {uint256} amount of freezed tokens"
        }
      },
      "increaseAllowance(address,uint256)": {
        "details": "Atomically increases the allowance granted to `spender` by the caller. This is an alternative to {approve} that can be used as a mitigation for problems described in {IERC20-approve}. Emits an {Approval} event indicating the updated allowance. Requirements: - `spender` cannot be the zero address."
      },
      "isFrozen(address)": {
        "params": {
          "userAddress": "{address} of the user"
        },
        "returns": {
          "_0": "frozen {bool} represents freezed wallet address"
        }
      },
      "mint(address,uint256)": {
        "params": {
          "amount": "{uint256} amount to mint",
          "to": "{address} wallet to send the token"
        },
        "returns": {
          "_0": "result {boolean} success or failure"
        }
      },
      "myFreezedTokensPeriod()": {
        "returns": {
          "_0": "freezedPeriod {TokenLibrary.FreezePeriod} struct of freezed tokens in period"
        }
      },
      "name()": {
        "details": "Returns the name of the token."
      },
      "owner()": {
        "returns": {
          "_0": "owner {address} wallet addres from owner"
        }
      },
      "pause(uint256)": {
        "params": {
          "_paused": "{uint256} represents date when transfer restart"
        }
      },
      "redeemFreezedTokens()": {
        "returns": {
          "_0": "success {bool} success of redeeming tokens"
        }
      },
      "refoundable(uint256)": {
        "params": {
          "amount": "{uint256} amout of tokens burn"
        },
        "returns": {
          "_0": "wei {uint256} amount of wei refoundable"
        }
      },
      "renounceOwnership()": {
        "details": "Leaves the contract without owner. It will not be possible to call `onlyOwner` functions anymore. Can only be called by the current owner. NOTE: Renouncing ownership will leave the contract without an owner, thereby removing any functionality that is only available to the owner."
      },
      "setAddressFrozen(address,bool)": {
        "params": {
          "freeze": "{boolean} representing freezing",
          "userAddress": "{address} of the user"
        }
      },
      "setFreezedTokensPeriod(uint256,uint256,uint256,address)": {
        "params": {
          "amountFreezed": "{uint256} Amount of frozen token",
          "endTime": "{uint256} End time of freezing partial token",
          "startTime": "{uint256} Start time of freezing partial token",
          "userAddress": "{address} Address wallet of the user frozen token"
        }
      },
      "setFundraising(uint256,uint256,uint256)": {
        "params": {
          "endFundraising": "{uint256} end timestamp of the fundraising",
          "maxSupply": "{uint256} max supply tokens of contract",
          "startFundraising": "{uint256} start timestamp of the fundraising"
        }
      },
      "symbol()": {
        "details": "Returns the symbol of the token, usually a shorter version of the name."
      },
      "totalSupply()": {
        "details": "See {IERC20-totalSupply}."
      },
      "transfer(address,uint256)": {
        "details": "Transfer and send `amount` tokens from `_msgSender()` to `to` Returns a boolean value indicating whether the operation succeeded. Emits a {Transfer} event.",
        "params": {
          "amount": "{uint256[]} amount to transfer",
          "to": "{address} wallet to transfer the token"
        }
      },
      "transferFrom(address,address,uint256)": {
        "details": "See {IERC20-transferFrom}. Emits an {Approval} event indicating the updated allowance. This is not required by the EIP. See the note at the beginning of {ERC20}. NOTE: Does not update the allowance if the current allowance is the maximum `uint256`. Requirements: - `from` and `to` cannot be the zero address. - `from` must have a balance of at least `amount`. - the caller must have allowance for ``from``'s tokens of at least `amount`."
      },
      "transferOwnership(address)": {
        "params": {
          "account": "{address} address of the new owner"
        }
      },
      "transfers()": {
        "returns": {
          "_0": "result {TokenLibrary.Transfer[]} array of register transfers movements"
        }
      },
      "unfreezePartialTokens(address,uint256)": {
        "params": {
          "amount": "{uint256} of token to be unfreezed",
          "userAddress": "{address} of the user"
        }
      },
      "unlockableTokensPeriod()": {
        "returns": {
          "_0": "unlockable {uint256} of unlockable tokens freezed in period"
        }
      },
      "version()": {
        "returns": {
          "_0": "TOKEN_VERSION {string} version of the smart contract"
        }
      },
      "withdraw(uint256,address)": {
        "params": {
          "amount": "{uint256} the number of tokens transferred",
          "receiver": "{address} the recipient of the token transfer"
        }
      },
      "withdrawable(uint256)": {
        "params": {
          "amount": "{uint256} the number of tokens withdraw"
        },
        "returns": {
          "weiWithdrawable": "{uint256} the number of wei transferrable"
        }
      }
    },
    "version": 1
  },
  "userdoc": {
    "kind": "user",
    "methods": {
      "batchFreezePartialTokens(address[],uint256[])": {
        "notice": "Freeze patial tokens of multiples wallets"
      },
      "batchSetAddressFrozen(address[],bool[])": {
        "notice": "Freeze totality tokens of multiples wallet addresses"
      },
      "batchUnfreezePartialTokens(address[],uint256[])": {
        "notice": "Unfreeze patial tokens of multiples wallets"
      },
      "burn(address,uint256)": {
        "notice": "Remove `amount` tokens from `account` Returns a boolean value indicating whether the operation succeeded. Emits a {Transfer} event."
      },
      "canTransfer(address,address,address,uint256)": {
        "notice": "Interface of transfer method, return hex code error message"
      },
      "eligibleBalanceOf(address)": {
        "notice": "Return not freezed tokens from an address wallet"
      },
      "forceTransfer(address,address,uint256)": {
        "notice": "Force an address wallet to transfer by agent"
      },
      "freezePartialTokens(address,uint256)": {
        "notice": "Freeze patial tokens of single wallet"
      },
      "getFreezedTokensPeriod(address)": {
        "notice": "Retrieve struct of freezed tokens in period of one wallet address by agent"
      },
      "getFrozenTokens(address)": {
        "notice": "Return freezed tokens amount of wallet address"
      },
      "injectCapital()": {
        "notice": "Inject wei into smart contract"
      },
      "isFrozen(address)": {
        "notice": "Return freezed or not wallet address tokens"
      },
      "mint(address,uint256)": {
        "notice": "Mint and send `amount` tokens to `to` Returns a boolean value indicating whether the operation succeeded. Emits a {Transfer} event."
      },
      "myFreezedTokensPeriod()": {
        "notice": "Retrieve struct of freezed tokens in period of msg.sender"
      },
      "owner()": {
        "notice": "Returns the address wallet of the smart contract owner."
      },
      "pause(uint256)": {
        "notice": "Pause transfer tokens of smart contract"
      },
      "redeemFreezedTokens()": {
        "notice": "Redeem unlockable freezed tokens periodically"
      },
      "refoundable(uint256)": {
        "notice": "Return amount of refoundable for amount of tokens burned"
      },
      "setAddressFrozen(address,bool)": {
        "notice": "Freeze totality tokens of single wallet address"
      },
      "setFreezedTokensPeriod(uint256,uint256,uint256,address)": {
        "notice": "Freeze token of one address wallet periodically"
      },
      "setFundraising(uint256,uint256,uint256)": {
        "notice": "Set fundraising parameters to mint tokens in conditions"
      },
      "transferOwnership(address)": {
        "notice": "Transfer ownership of the smart contract"
      },
      "transfers()": {
        "notice": "Get movements of the assets"
      },
      "unfreezePartialTokens(address,uint256)": {
        "notice": "Unfreeze patial tokens of single wallet"
      },
      "unlockableTokensPeriod()": {
        "notice": "Get unlockable tokens freezed in period for msg.sender"
      },
      "unpause()": {
        "notice": "Unpause transfer tokens of smart contract"
      },
      "version()": {
        "notice": "Returns the version of the token contract"
      },
      "withdraw(uint256,address)": {
        "notice": "Withdraw tokens amount of contract balance"
      },
      "withdrawable(uint256)": {
        "notice": "Check amount of withdrawable "
      }
    },
    "version": 1
  }
}