{
  "contractName": "SecurityToken",
  "abi": [
    {
      "inputs": [
        {
          "internalType": "string",
          "name": "_name",
          "type": "string"
        },
        {
          "internalType": "string",
          "name": "_code",
          "type": "string"
        },
        {
          "components": [
            {
              "internalType": "bool",
              "name": "freezableAddress",
              "type": "bool"
            },
            {
              "internalType": "bool",
              "name": "freezablePartial",
              "type": "bool"
            },
            {
              "internalType": "bool",
              "name": "pausable",
              "type": "bool"
            },
            {
              "internalType": "bool",
              "name": "forcableTransfer",
              "type": "bool"
            }
          ],
          "internalType": "struct TokenLibrary.Rules",
          "name": "_rules",
          "type": "tuple"
        }
      ],
      "stateMutability": "nonpayable",
      "type": "constructor"
    },
    {
      "inputs": [
        {
          "internalType": "address",
          "name": "account",
          "type": "address"
        },
        {
          "internalType": "uint256",
          "name": "accountBalance",
          "type": "uint256"
        },
        {
          "internalType": "uint256",
          "name": "amount",
          "type": "uint256"
        }
      ],
      "name": "BurnAmountExceedsBalance",
      "type": "error"
    },
    {
      "inputs": [
        {
          "internalType": "address",
          "name": "account",
          "type": "address"
        }
      ],
      "name": "BurnFromZeroAddress",
      "type": "error"
    },
    {
      "inputs": [
        {
          "internalType": "address",
          "name": "account",
          "type": "address"
        },
        {
          "internalType": "uint256",
          "name": "previousBalance",
          "type": "uint256"
        },
        {
          "internalType": "uint256",
          "name": "currentBalance",
          "type": "uint256"
        },
        {
          "internalType": "uint256",
          "name": "amount",
          "type": "uint256"
        }
      ],
      "name": "MintDoesNotWork",
      "type": "error"
    },
    {
      "inputs": [
        {
          "internalType": "address",
          "name": "account",
          "type": "address"
        }
      ],
      "name": "MintFromZeroAddress",
      "type": "error"
    },
    {
      "inputs": [
        {
          "internalType": "address",
          "name": "sender",
          "type": "address"
        }
      ],
      "name": "NotAgent",
      "type": "error"
    },
    {
      "inputs": [
        {
          "internalType": "address",
          "name": "sender",
          "type": "address"
        }
      ],
      "name": "NotReader",
      "type": "error"
    },
    {
      "inputs": [
        {
          "internalType": "address",
          "name": "sender",
          "type": "address"
        },
        {
          "internalType": "bytes32",
          "name": "role",
          "type": "bytes32"
        }
      ],
      "name": "NotTheOwner",
      "type": "error"
    },
    {
      "inputs": [
        {
          "internalType": "address",
          "name": "sender",
          "type": "address"
        }
      ],
      "name": "NotWriter",
      "type": "error"
    },
    {
      "inputs": [
        {
          "internalType": "uint256",
          "name": "fromBalance",
          "type": "uint256"
        },
        {
          "internalType": "address",
          "name": "from",
          "type": "address"
        },
        {
          "internalType": "uint256",
          "name": "amount",
          "type": "uint256"
        }
      ],
      "name": "TransferAmountExceedsBalance",
      "type": "error"
    },
    {
      "inputs": [
        {
          "internalType": "address",
          "name": "from",
          "type": "address"
        }
      ],
      "name": "TransferFromZeroAddress",
      "type": "error"
    },
    {
      "inputs": [
        {
          "internalType": "address",
          "name": "to",
          "type": "address"
        }
      ],
      "name": "TransferToZeroAddress",
      "type": "error"
    },
    {
      "anonymous": false,
      "inputs": [
        {
          "indexed": true,
          "internalType": "address",
          "name": "userAddress",
          "type": "address"
        },
        {
          "indexed": true,
          "internalType": "bool",
          "name": "freeze",
          "type": "bool"
        },
        {
          "indexed": true,
          "internalType": "address",
          "name": "sender",
          "type": "address"
        }
      ],
      "name": "AddressFrozen",
      "type": "event"
    },
    {
      "anonymous": false,
      "inputs": [
        {
          "indexed": true,
          "internalType": "address",
          "name": "_agent",
          "type": "address"
        }
      ],
      "name": "AgentAdded",
      "type": "event"
    },
    {
      "anonymous": false,
      "inputs": [
        {
          "indexed": true,
          "internalType": "address",
          "name": "_agent",
          "type": "address"
        }
      ],
      "name": "AgentRemoved",
      "type": "event"
    },
    {
      "anonymous": false,
      "inputs": [
        {
          "indexed": true,
          "internalType": "address",
          "name": "owner",
          "type": "address"
        },
        {
          "indexed": true,
          "internalType": "address",
          "name": "spender",
          "type": "address"
        },
        {
          "indexed": false,
          "internalType": "uint256",
          "name": "value",
          "type": "uint256"
        }
      ],
      "name": "Approval",
      "type": "event"
    },
    {
      "anonymous": false,
      "inputs": [
        {
          "indexed": true,
          "internalType": "address",
          "name": "previousOwner",
          "type": "address"
        },
        {
          "indexed": true,
          "internalType": "address",
          "name": "newOwner",
          "type": "address"
        }
      ],
      "name": "OwnershipTransferred",
      "type": "event"
    },
    {
      "anonymous": false,
      "inputs": [
        {
          "indexed": true,
          "internalType": "address",
          "name": "sender",
          "type": "address"
        },
        {
          "indexed": true,
          "internalType": "uint256",
          "name": "paused",
          "type": "uint256"
        }
      ],
      "name": "Paused",
      "type": "event"
    },
    {
      "anonymous": false,
      "inputs": [
        {
          "indexed": true,
          "internalType": "address",
          "name": "_reader",
          "type": "address"
        }
      ],
      "name": "ReaderAdded",
      "type": "event"
    },
    {
      "anonymous": false,
      "inputs": [
        {
          "indexed": true,
          "internalType": "address",
          "name": "_reader",
          "type": "address"
        }
      ],
      "name": "ReaderRemoved",
      "type": "event"
    },
    {
      "anonymous": false,
      "inputs": [
        {
          "indexed": true,
          "internalType": "address",
          "name": "userAddress",
          "type": "address"
        },
        {
          "indexed": true,
          "internalType": "uint256",
          "name": "amount",
          "type": "uint256"
        }
      ],
      "name": "TokensFrozen",
      "type": "event"
    },
    {
      "anonymous": false,
      "inputs": [
        {
          "indexed": true,
          "internalType": "address",
          "name": "userAddress",
          "type": "address"
        },
        {
          "indexed": true,
          "internalType": "uint256",
          "name": "startTime",
          "type": "uint256"
        },
        {
          "indexed": true,
          "internalType": "uint256",
          "name": "endTime",
          "type": "uint256"
        },
        {
          "indexed": false,
          "internalType": "uint256",
          "name": "amount",
          "type": "uint256"
        },
        {
          "indexed": false,
          "internalType": "address",
          "name": "signer",
          "type": "address"
        }
      ],
      "name": "TokensFrozenPeriod",
      "type": "event"
    },
    {
      "anonymous": false,
      "inputs": [
        {
          "indexed": true,
          "internalType": "address",
          "name": "userAddress",
          "type": "address"
        },
        {
          "indexed": true,
          "internalType": "uint256",
          "name": "amount",
          "type": "uint256"
        }
      ],
      "name": "TokensUnfrozen",
      "type": "event"
    },
    {
      "anonymous": false,
      "inputs": [
        {
          "indexed": true,
          "internalType": "address",
          "name": "userAddress",
          "type": "address"
        },
        {
          "indexed": true,
          "internalType": "uint256",
          "name": "amount",
          "type": "uint256"
        }
      ],
      "name": "TokensUnfrozenPeriod",
      "type": "event"
    },
    {
      "anonymous": false,
      "inputs": [
        {
          "indexed": false,
          "internalType": "string",
          "name": "eventType",
          "type": "string"
        },
        {
          "indexed": true,
          "internalType": "address",
          "name": "from",
          "type": "address"
        },
        {
          "indexed": true,
          "internalType": "address",
          "name": "to",
          "type": "address"
        },
        {
          "indexed": false,
          "internalType": "uint256",
          "name": "value",
          "type": "uint256"
        }
      ],
      "name": "Transfer",
      "type": "event"
    },
    {
      "anonymous": false,
      "inputs": [
        {
          "indexed": true,
          "internalType": "address",
          "name": "from",
          "type": "address"
        },
        {
          "indexed": true,
          "internalType": "address",
          "name": "to",
          "type": "address"
        },
        {
          "indexed": false,
          "internalType": "uint256",
          "name": "value",
          "type": "uint256"
        }
      ],
      "name": "Transfer",
      "type": "event"
    },
    {
      "anonymous": false,
      "inputs": [
        {
          "indexed": true,
          "internalType": "address",
          "name": "oldAccount",
          "type": "address"
        },
        {
          "indexed": true,
          "internalType": "address",
          "name": "newAccount",
          "type": "address"
        }
      ],
      "name": "TransferOwnership",
      "type": "event"
    },
    {
      "anonymous": false,
      "inputs": [
        {
          "indexed": true,
          "internalType": "address",
          "name": "_writer",
          "type": "address"
        }
      ],
      "name": "WriterAdded",
      "type": "event"
    },
    {
      "anonymous": false,
      "inputs": [
        {
          "indexed": true,
          "internalType": "address",
          "name": "_writer",
          "type": "address"
        }
      ],
      "name": "WriterRemoved",
      "type": "event"
    },
    {
      "inputs": [],
      "name": "_now",
      "outputs": [
        {
          "internalType": "uint256",
          "name": "",
          "type": "uint256"
        }
      ],
      "stateMutability": "view",
      "type": "function"
    },
    {
      "inputs": [
        {
          "internalType": "address",
          "name": "_agent",
          "type": "address"
        }
      ],
      "name": "addAgent",
      "outputs": [],
      "stateMutability": "nonpayable",
      "type": "function"
    },
    {
      "inputs": [
        {
          "internalType": "address",
          "name": "_reader",
          "type": "address"
        }
      ],
      "name": "addReader",
      "outputs": [],
      "stateMutability": "nonpayable",
      "type": "function"
    },
    {
      "inputs": [
        {
          "internalType": "address",
          "name": "_writer",
          "type": "address"
        }
      ],
      "name": "addWriter",
      "outputs": [],
      "stateMutability": "nonpayable",
      "type": "function"
    },
    {
      "inputs": [
        {
          "internalType": "address",
          "name": "owner",
          "type": "address"
        },
        {
          "internalType": "address",
          "name": "spender",
          "type": "address"
        }
      ],
      "name": "allowance",
      "outputs": [
        {
          "internalType": "uint256",
          "name": "",
          "type": "uint256"
        }
      ],
      "stateMutability": "view",
      "type": "function"
    },
    {
      "inputs": [
        {
          "internalType": "address",
          "name": "spender",
          "type": "address"
        },
        {
          "internalType": "uint256",
          "name": "amount",
          "type": "uint256"
        }
      ],
      "name": "approve",
      "outputs": [
        {
          "internalType": "bool",
          "name": "",
          "type": "bool"
        }
      ],
      "stateMutability": "nonpayable",
      "type": "function"
    },
    {
      "inputs": [
        {
          "internalType": "address",
          "name": "account",
          "type": "address"
        }
      ],
      "name": "balanceOf",
      "outputs": [
        {
          "internalType": "uint256",
          "name": "",
          "type": "uint256"
        }
      ],
      "stateMutability": "view",
      "type": "function"
    },
    {
      "inputs": [],
      "name": "decimals",
      "outputs": [
        {
          "internalType": "uint8",
          "name": "",
          "type": "uint8"
        }
      ],
      "stateMutability": "view",
      "type": "function"
    },
    {
      "inputs": [
        {
          "internalType": "address",
          "name": "spender",
          "type": "address"
        },
        {
          "internalType": "uint256",
          "name": "subtractedValue",
          "type": "uint256"
        }
      ],
      "name": "decreaseAllowance",
      "outputs": [
        {
          "internalType": "bool",
          "name": "",
          "type": "bool"
        }
      ],
      "stateMutability": "nonpayable",
      "type": "function"
    },
    {
      "inputs": [
        {
          "internalType": "address",
          "name": "spender",
          "type": "address"
        },
        {
          "internalType": "uint256",
          "name": "addedValue",
          "type": "uint256"
        }
      ],
      "name": "increaseAllowance",
      "outputs": [
        {
          "internalType": "bool",
          "name": "",
          "type": "bool"
        }
      ],
      "stateMutability": "nonpayable",
      "type": "function"
    },
    {
      "inputs": [
        {
          "internalType": "address",
          "name": "_agent",
          "type": "address"
        }
      ],
      "name": "isAgent",
      "outputs": [
        {
          "internalType": "bool",
          "name": "",
          "type": "bool"
        }
      ],
      "stateMutability": "view",
      "type": "function"
    },
    {
      "inputs": [
        {
          "internalType": "address",
          "name": "_reader",
          "type": "address"
        }
      ],
      "name": "isReader",
      "outputs": [
        {
          "internalType": "bool",
          "name": "",
          "type": "bool"
        }
      ],
      "stateMutability": "view",
      "type": "function"
    },
    {
      "inputs": [
        {
          "internalType": "address",
          "name": "_writer",
          "type": "address"
        }
      ],
      "name": "isWriter",
      "outputs": [
        {
          "internalType": "bool",
          "name": "",
          "type": "bool"
        }
      ],
      "stateMutability": "view",
      "type": "function"
    },
    {
      "inputs": [],
      "name": "name",
      "outputs": [
        {
          "internalType": "string",
          "name": "",
          "type": "string"
        }
      ],
      "stateMutability": "view",
      "type": "function"
    },
    {
      "inputs": [
        {
          "internalType": "address",
          "name": "_agent",
          "type": "address"
        }
      ],
      "name": "removeAgent",
      "outputs": [],
      "stateMutability": "nonpayable",
      "type": "function"
    },
    {
      "inputs": [
        {
          "internalType": "address",
          "name": "_reader",
          "type": "address"
        }
      ],
      "name": "removeReader",
      "outputs": [],
      "stateMutability": "nonpayable",
      "type": "function"
    },
    {
      "inputs": [
        {
          "internalType": "address",
          "name": "_writer",
          "type": "address"
        }
      ],
      "name": "removeWriter",
      "outputs": [],
      "stateMutability": "nonpayable",
      "type": "function"
    },
    {
      "inputs": [],
      "name": "renounceOwnership",
      "outputs": [],
      "stateMutability": "nonpayable",
      "type": "function"
    },
    {
      "inputs": [],
      "name": "symbol",
      "outputs": [
        {
          "internalType": "string",
          "name": "",
          "type": "string"
        }
      ],
      "stateMutability": "view",
      "type": "function"
    },
    {
      "inputs": [],
      "name": "totalSupply",
      "outputs": [
        {
          "internalType": "uint256",
          "name": "",
          "type": "uint256"
        }
      ],
      "stateMutability": "view",
      "type": "function"
    },
    {
      "inputs": [],
      "name": "version",
      "outputs": [
        {
          "internalType": "string",
          "name": "",
          "type": "string"
        }
      ],
      "stateMutability": "pure",
      "type": "function"
    },
    {
      "inputs": [],
      "name": "owner",
      "outputs": [
        {
          "internalType": "address",
          "name": "",
          "type": "address"
        }
      ],
      "stateMutability": "view",
      "type": "function"
    },
    {
      "inputs": [],
      "name": "transfers",
      "outputs": [
        {
          "components": [
            {
              "internalType": "string",
              "name": "transferType",
              "type": "string"
            },
            {
              "internalType": "address",
              "name": "from",
              "type": "address"
            },
            {
              "internalType": "address",
              "name": "to",
              "type": "address"
            },
            {
              "internalType": "uint256",
              "name": "amount",
              "type": "uint256"
            },
            {
              "internalType": "uint256",
              "name": "date",
              "type": "uint256"
            }
          ],
          "internalType": "struct TokenLibrary.Transfer[]",
          "name": "",
          "type": "tuple[]"
        }
      ],
      "stateMutability": "view",
      "type": "function"
    },
    {
      "inputs": [
        {
          "internalType": "address",
          "name": "account",
          "type": "address"
        }
      ],
      "name": "transferOwnership",
      "outputs": [],
      "stateMutability": "nonpayable",
      "type": "function"
    },
    {
      "inputs": [
        {
          "internalType": "address",
          "name": "account",
          "type": "address"
        }
      ],
      "name": "eligibleBalanceOf",
      "outputs": [
        {
          "internalType": "uint256",
          "name": "",
          "type": "uint256"
        }
      ],
      "stateMutability": "view",
      "type": "function"
    },
    {
      "inputs": [
        {
          "internalType": "address",
          "name": "to",
          "type": "address"
        },
        {
          "internalType": "uint256",
          "name": "amount",
          "type": "uint256"
        }
      ],
      "name": "mint",
      "outputs": [
        {
          "internalType": "bool",
          "name": "",
          "type": "bool"
        }
      ],
      "stateMutability": "nonpayable",
      "type": "function"
    },
    {
      "inputs": [
        {
          "internalType": "address[]",
          "name": "toList",
          "type": "address[]"
        },
        {
          "internalType": "uint256[]",
          "name": "amounts",
          "type": "uint256[]"
        }
      ],
      "name": "batchMint",
      "outputs": [
        {
          "internalType": "bool",
          "name": "",
          "type": "bool"
        }
      ],
      "stateMutability": "nonpayable",
      "type": "function"
    },
    {
      "inputs": [
        {
          "internalType": "address",
          "name": "account",
          "type": "address"
        },
        {
          "internalType": "uint256",
          "name": "amount",
          "type": "uint256"
        }
      ],
      "name": "burn",
      "outputs": [
        {
          "internalType": "bool",
          "name": "",
          "type": "bool"
        }
      ],
      "stateMutability": "nonpayable",
      "type": "function"
    },
    {
      "inputs": [
        {
          "internalType": "address[]",
          "name": "accounts",
          "type": "address[]"
        },
        {
          "internalType": "uint256[]",
          "name": "amounts",
          "type": "uint256[]"
        }
      ],
      "name": "batchBurn",
      "outputs": [],
      "stateMutability": "nonpayable",
      "type": "function"
    },
    {
      "inputs": [
        {
          "internalType": "address",
          "name": "to",
          "type": "address"
        },
        {
          "internalType": "uint256",
          "name": "amount",
          "type": "uint256"
        }
      ],
      "name": "transfer",
      "outputs": [
        {
          "internalType": "bool",
          "name": "",
          "type": "bool"
        }
      ],
      "stateMutability": "nonpayable",
      "type": "function"
    },
    {
      "inputs": [
        {
          "internalType": "address[]",
          "name": "toList",
          "type": "address[]"
        },
        {
          "internalType": "uint256[]",
          "name": "amounts",
          "type": "uint256[]"
        }
      ],
      "name": "batchTransfer",
      "outputs": [],
      "stateMutability": "nonpayable",
      "type": "function"
    },
    {
      "inputs": [
        {
          "internalType": "address",
          "name": "from",
          "type": "address"
        },
        {
          "internalType": "address",
          "name": "to",
          "type": "address"
        },
        {
          "internalType": "uint256",
          "name": "amount",
          "type": "uint256"
        }
      ],
      "name": "transferFrom",
      "outputs": [
        {
          "internalType": "bool",
          "name": "",
          "type": "bool"
        }
      ],
      "stateMutability": "nonpayable",
      "type": "function"
    },
    {
      "inputs": [
        {
          "internalType": "address",
          "name": "operator",
          "type": "address"
        },
        {
          "internalType": "address",
          "name": "from",
          "type": "address"
        },
        {
          "internalType": "address",
          "name": "to",
          "type": "address"
        },
        {
          "internalType": "uint256",
          "name": "value",
          "type": "uint256"
        }
      ],
      "name": "canTransfer",
      "outputs": [
        {
          "internalType": "bytes1",
          "name": "",
          "type": "bytes1"
        }
      ],
      "stateMutability": "view",
      "type": "function"
    },
    {
      "inputs": [
        {
          "internalType": "address",
          "name": "from",
          "type": "address"
        },
        {
          "internalType": "address",
          "name": "to",
          "type": "address"
        },
        {
          "internalType": "uint256",
          "name": "amount",
          "type": "uint256"
        }
      ],
      "name": "forcedTransfer",
      "outputs": [
        {
          "internalType": "bool",
          "name": "",
          "type": "bool"
        }
      ],
      "stateMutability": "nonpayable",
      "type": "function"
    },
    {
      "inputs": [
        {
          "internalType": "address[]",
          "name": "fromList",
          "type": "address[]"
        },
        {
          "internalType": "address[]",
          "name": "toList",
          "type": "address[]"
        },
        {
          "internalType": "uint256[]",
          "name": "amounts",
          "type": "uint256[]"
        }
      ],
      "name": "batchForcedTransfer",
      "outputs": [],
      "stateMutability": "nonpayable",
      "type": "function"
    },
    {
      "inputs": [
        {
          "internalType": "uint256",
          "name": "_paused",
          "type": "uint256"
        }
      ],
      "name": "pause",
      "outputs": [],
      "stateMutability": "nonpayable",
      "type": "function"
    },
    {
      "inputs": [],
      "name": "unpause",
      "outputs": [],
      "stateMutability": "nonpayable",
      "type": "function"
    },
    {
      "inputs": [
        {
          "internalType": "address",
          "name": "userAddress",
          "type": "address"
        }
      ],
      "name": "isFrozen",
      "outputs": [
        {
          "internalType": "bool",
          "name": "",
          "type": "bool"
        }
      ],
      "stateMutability": "view",
      "type": "function"
    },
    {
      "inputs": [
        {
          "internalType": "address",
          "name": "userAddress",
          "type": "address"
        }
      ],
      "name": "getFrozenTokens",
      "outputs": [
        {
          "internalType": "uint256",
          "name": "",
          "type": "uint256"
        }
      ],
      "stateMutability": "view",
      "type": "function"
    },
    {
      "inputs": [
        {
          "internalType": "address",
          "name": "userAddress",
          "type": "address"
        },
        {
          "internalType": "bool",
          "name": "freeze",
          "type": "bool"
        }
      ],
      "name": "setAddressFrozen",
      "outputs": [],
      "stateMutability": "nonpayable",
      "type": "function"
    },
    {
      "inputs": [
        {
          "internalType": "address[]",
          "name": "userAddresses",
          "type": "address[]"
        },
        {
          "internalType": "bool[]",
          "name": "freeze",
          "type": "bool[]"
        }
      ],
      "name": "batchSetAddressFrozen",
      "outputs": [],
      "stateMutability": "nonpayable",
      "type": "function"
    },
    {
      "inputs": [
        {
          "internalType": "address",
          "name": "userAddress",
          "type": "address"
        },
        {
          "internalType": "uint256",
          "name": "amount",
          "type": "uint256"
        }
      ],
      "name": "freezePartialTokens",
      "outputs": [],
      "stateMutability": "nonpayable",
      "type": "function"
    },
    {
      "inputs": [
        {
          "internalType": "address[]",
          "name": "userAddresses",
          "type": "address[]"
        },
        {
          "internalType": "uint256[]",
          "name": "amounts",
          "type": "uint256[]"
        }
      ],
      "name": "batchFreezePartialTokens",
      "outputs": [],
      "stateMutability": "nonpayable",
      "type": "function"
    },
    {
      "inputs": [
        {
          "internalType": "address",
          "name": "userAddress",
          "type": "address"
        },
        {
          "internalType": "uint256",
          "name": "amount",
          "type": "uint256"
        }
      ],
      "name": "unfreezePartialTokens",
      "outputs": [],
      "stateMutability": "nonpayable",
      "type": "function"
    },
    {
      "inputs": [
        {
          "internalType": "address[]",
          "name": "userAddresses",
          "type": "address[]"
        },
        {
          "internalType": "uint256[]",
          "name": "amounts",
          "type": "uint256[]"
        }
      ],
      "name": "batchUnfreezePartialTokens",
      "outputs": [],
      "stateMutability": "nonpayable",
      "type": "function"
    },
    {
      "inputs": [
        {
          "internalType": "uint256",
          "name": "startTime",
          "type": "uint256"
        },
        {
          "internalType": "uint256",
          "name": "endTime",
          "type": "uint256"
        },
        {
          "internalType": "uint256",
          "name": "amountFreezed",
          "type": "uint256"
        },
        {
          "internalType": "address",
          "name": "userAddress",
          "type": "address"
        }
      ],
      "name": "setFreezedTokensPeriod",
      "outputs": [],
      "stateMutability": "nonpayable",
      "type": "function"
    },
    {
      "inputs": [],
      "name": "myFreezedTokensPeriod",
      "outputs": [
        {
          "components": [
            {
              "internalType": "uint256",
              "name": "startTime",
              "type": "uint256"
            },
            {
              "internalType": "uint256",
              "name": "endTime",
              "type": "uint256"
            },
            {
              "internalType": "uint256",
              "name": "amountFreezed",
              "type": "uint256"
            }
          ],
          "internalType": "struct TokenLibrary.FreezePeriod",
          "name": "",
          "type": "tuple"
        }
      ],
      "stateMutability": "view",
      "type": "function"
    },
    {
      "inputs": [
        {
          "internalType": "address",
          "name": "userAddress",
          "type": "address"
        }
      ],
      "name": "getFreezedTokensPeriod",
      "outputs": [
        {
          "components": [
            {
              "internalType": "uint256",
              "name": "startTime",
              "type": "uint256"
            },
            {
              "internalType": "uint256",
              "name": "endTime",
              "type": "uint256"
            },
            {
              "internalType": "uint256",
              "name": "amountFreezed",
              "type": "uint256"
            }
          ],
          "internalType": "struct TokenLibrary.FreezePeriod",
          "name": "",
          "type": "tuple"
        }
      ],
      "stateMutability": "view",
      "type": "function"
    },
    {
      "inputs": [],
      "name": "unlockableTokensPeriod",
      "outputs": [
        {
          "internalType": "uint256",
          "name": "",
          "type": "uint256"
        }
      ],
      "stateMutability": "view",
      "type": "function"
    },
    {
      "inputs": [],
      "name": "redeemFreezedTokens",
      "outputs": [
        {
          "internalType": "bool",
          "name": "",
          "type": "bool"
        }
      ],
      "stateMutability": "nonpayable",
      "type": "function"
    }
  ],
  "bytecode": "0x60806040523480156200001157600080fd5b506040516200335f3803806200335f83398101604081905262000034916200031b565b8251839083906200004d90600390602085019062000156565b5080516200006390600490602084019062000156565b505050620000806200007a6200010060201b60201c565b62000104565b600b80546001600160a01b031916331790558051600c805460208401516040850151606090950151151563010000000263ff0000001995151562010000029590951663ffff0000199115156101000261ff00199515159590951661ffff199093169290921793909317929092169190911791909117905550620004309050565b3390565b600580546001600160a01b038381166001600160a01b0319831681179093556040519116919082907f8be0079c531659141344cd1fd0a4f28419497f9722a3daafe3b4186f6b6457e090600090a35050565b8280546200016490620003f3565b90600052602060002090601f016020900481019282620001885760008555620001d3565b82601f10620001a357805160ff1916838001178555620001d3565b82800160010185558215620001d3579182015b82811115620001d3578251825591602001919060010190620001b6565b50620001e1929150620001e5565b5090565b5b80821115620001e15760008155600101620001e6565b634e487b7160e01b600052604160045260246000fd5b604051608081016001600160401b0381118282101715620002375762000237620001fc565b60405290565b604051601f8201601f191681016001600160401b0381118282101715620002685762000268620001fc565b604052919050565b600082601f8301126200028257600080fd5b81516001600160401b038111156200029e576200029e620001fc565b6020620002b4601f8301601f191682016200023d565b8281528582848701011115620002c957600080fd5b60005b83811015620002e9578581018301518282018401528201620002cc565b83811115620002fb5760008385840101525b5095945050505050565b805180151581146200031657600080fd5b919050565b600080600083850360c08112156200033257600080fd5b84516001600160401b03808211156200034a57600080fd5b620003588883890162000270565b955060208701519150808211156200036f57600080fd5b506200037e8782880162000270565b9350506080603f19820112156200039457600080fd5b506200039f62000212565b620003ad6040860162000305565b8152620003bd6060860162000305565b6020820152620003d06080860162000305565b6040820152620003e360a0860162000305565b6060820152809150509250925092565b600181811c908216806200040857607f821691505b602082108114156200042a57634e487b7160e01b600052602260045260246000fd5b50919050565b612f1f80620004406000396000f3fe608060405234801561001057600080fd5b50600436106102d65760003560e01c806370a0823111610182578063a9059cbb116100e9578063c7464bf1116100a2578063dd62ed3e1161007c578063dd62ed3e1461067b578063e58398361461068e578063f2fde38b146106a1578063fc7e5fa8146106b457600080fd5b8063c7464bf114610658578063c7b0d8b714610660578063da2824a81461066857600080fd5b8063a9059cbb146105f1578063ab5e28c514610604578063afd8b1d114610619578063afde442a1461062c578063b3bb8cd41461063f578063c69c09cf1461064557600080fd5b806395d89b411161013b57806395d89b411461059557806397a6278e1461059d5780639d200d1f146105b05780639dc29fac146105b85780639fc1d0e7146105cb578063a457c2d7146105de57600080fd5b806370a0823114610526578063715018a61461053957806384e798421461054157806385269dcb1461055457806388d695b2146105675780638da5cb5b1461057a57600080fd5b806338d65d11116102415780634a6cc677116101fa57806368573107116101d4578063685731071461049f57806369a7ddf7146104b25780636d62a4fe146104c55780636df68630146104f157600080fd5b80634a6cc677146104585780635356dddc1461046b57806354fd4d501461047e57600080fd5b806338d65d11146103f157806339509351146104045780633f4ba83a1461041757806340c10f191461041f57806342a47abc146104325780634710362d1461044557600080fd5b80631a7af379116102935780631a7af379146103835780631fe56f7d146103965780631ffbb064146103a957806323b872dd146103bc5780632b29ba23146103cf578063313ce567146103e257600080fd5b806306fdde03146102db578063095ea7b3146102f9578063125c4a331461031c578063136439dd14610331578063158b1a571461034457806318160ddd1461037b575b600080fd5b6102e36106c7565b6040516102f091906129d2565b60405180910390f35b61030c6103073660046129fc565b610759565b60405190151581526020016102f0565b61032f61032a3660046129fc565b610771565b005b61032f61033f366004612a26565b6108b1565b61036d610352366004612a3f565b6001600160a01b031660009081526010602052604090205490565b6040519081526020016102f0565b60025461036d565b61032f610391366004612aa6565b61096a565b61032f6103a43660046129fc565b6109df565b61030c6103b7366004612a3f565b610afc565b61030c6103ca366004612b12565b610b0f565b61030c6103dd366004612a3f565b610b33565b604051601281526020016102f0565b61032f6103ff366004612a3f565b610b40565b61030c6104123660046129fc565b610b8a565b61032f610bac565b61030c61042d3660046129fc565b610c6d565b61032f610440366004612b4e565b610ccf565b61032f610453366004612aa6565b610d65565b61032f610466366004612aa6565b610dca565b61032f610479366004612a3f565b610e30565b604080518082019091526005815264302e302e3160d81b60208201526102e3565b61030c6104ad366004612aa6565b610e7a565b61030c6104c0366004612a3f565b610eef565b6104d86104d3366004612be8565b610efc565b6040516001600160f81b031990911681526020016102f0565b6105046104ff366004612a3f565b611086565b60408051825181526020808401519082015291810151908201526060016102f0565b61036d610534366004612a3f565b61111c565b61032f611137565b61032f61054f366004612a3f565b61114b565b61032f610562366004612c33565b611195565b61032f610575366004612aa6565b6112b6565b600b546040516001600160a01b0390911681526020016102f0565b6102e361131c565b61032f6105ab366004612a3f565b61132b565b61036d611375565b61030c6105c63660046129fc565b6114a8565b61030c6105d9366004612b12565b6116c1565b61030c6105ec3660046129fc565b6118da565b61030c6105ff3660046129fc565b611955565b61060c611962565b6040516102f09190612c72565b61032f610627366004612a3f565b611b88565b61036d61063a366004612a3f565b611bd2565b4261036d565b61032f610653366004612d23565b611c16565b610504611c97565b61030c611cf5565b61032f610676366004612a3f565b611d79565b61036d610689366004612d56565b611dc3565b61030c61069c366004612a3f565b611dee565b61032f6106af366004612a3f565b611e3b565b61032f6106c2366004612aa6565b611e9f565b6060600380546106d690612d80565b80601f016020809104026020016040519081016040528092919081815260200182805461070290612d80565b801561074f5780601f106107245761010080835404028352916020019161074f565b820191906000526020600020905b81548152906001019060200180831161073257829003601f168201915b5050505050905090565b600033610767818585611f04565b5060019392505050565b61077a33610afc565b1580156107925750600b546001600160a01b03163314155b156107c357335b6040516352f49c9560e01b81526001600160a01b0390911660048201526024015b60405180910390fd5b60006107ce8361111c565b6001600160a01b0384166000908152601060205260409020549091506107f5908390612dd1565b8110156108445760405162461bcd60e51b815260206004820181905260248201527f416d6f756e74206578636565647320617661696c61626c652062616c616e636560448201526064016107ba565b6001600160a01b038316600090815260106020526040902054610868908390612dd1565b6001600160a01b03841660008181526010602052604080822093909355915184927fa065e63c631c86f1b9f66a4a2f63f2093bf1c2168d23290259dbd969e0222a4591a3505050565b6108ba33610afc565b1580156108d25750600b546001600160a01b03163314155b156108dd5733610799565b6009544211806108f65750600c5462010000900460ff16155b6109355760405162461bcd60e51b815260206004820152601060248201526f14185d5cd8589b194e881c185d5cd95960821b60448201526064016107ba565b6009819055604051819033907fab40a374bc51de372200a8bc981af8c9ecdc08dfdaef0bb6e09f88f3c616ef3d90600090a350565b60005b838110156109d8576109c685858381811061098a5761098a612de9565b905060200201602081019061099f9190612a3f565b8484848181106109b1576109b1612de9565b90506020020160208101906106539190612dff565b806109d081612e1a565b91505061096d565b5050505050565b6109e833610afc565b158015610a005750600b546001600160a01b03163314155b15610a0b5733610799565b6001600160a01b038216600090815260106020526040902054811115610a905760405162461bcd60e51b815260206004820152603460248201527f416d6f756e742073686f756c64206265206c657373207468616e206f7220657160448201527375616c20746f2066726f7a656e20746f6b656e7360601b60648201526084016107ba565b6001600160a01b038216600090815260106020526040902054610ab4908290612e35565b6001600160a01b03831660008181526010602052604080822093909355915183927f9bed35cb62ad0dba04f9d5bfee4b5bc91443e77da8a65c4c84834c51bb08b0d691a35050565b6000610b09600683612028565b92915050565b600033610b1d8582856120ab565b610b28858585612125565b506001949350505050565b6000610b09600883612028565b610b48612186565b610b536007826121e0565b6040516001600160a01b038216907fe933431644458f1217f9e93d3e000e03c9bbbe55761046d0985c2e4d157bcbaa90600090a250565b600033610767818585610b9d8383611dc3565b610ba79190612dd1565b611f04565b610bb533610afc565b158015610bcd5750600b546001600160a01b03163314155b15610bd85733610799565b6009544211158015610bf75750600c5462010000900460ff1615156001145b610c3a5760405162461bcd60e51b815260206004820152601460248201527314185d5cd8589b194e881b9bdd081c185d5cd95960621b60448201526064016107ba565b6000600981905560405133907fab40a374bc51de372200a8bc981af8c9ecdc08dfdaef0bb6e09f88f3c616ef3d908390a3565b6000610c7833610b33565b158015610c905750600b546001600160a01b03163314155b15610cbc57335b604051631765348f60e21b81526001600160a01b0390911660048201526024016107ba565b610cc68383612262565b50600192915050565b60005b85811015610d5c57610d49878783818110610cef57610cef612de9565b9050602002016020810190610d049190612a3f565b868684818110610d1657610d16612de9565b9050602002016020810190610d2b9190612a3f565b858585818110610d3d57610d3d612de9565b905060200201356116c1565b5080610d5481612e1a565b915050610cd2565b50505050505050565b60005b838110156109d857610db8858583818110610d8557610d85612de9565b9050602002016020810190610d9a9190612a3f565b848484818110610dac57610dac612de9565b905060200201356109df565b80610dc281612e1a565b915050610d68565b60005b838110156109d857610e1d858583818110610dea57610dea612de9565b9050602002016020810190610dff9190612a3f565b848484818110610e1157610e11612de9565b905060200201356114a8565b5080610e2881612e1a565b915050610dcd565b610e38612186565b610e436008826121e0565b6040516001600160a01b038216907f86e5bbceda94081c32220d685f37cc4e3ea7bb0be2dfbf0cb703579505a5390e90600090a250565b6000805b84811015610ee157610ece868683818110610e9b57610e9b612de9565b9050602002016020810190610eb09190612a3f565b858584818110610ec257610ec2612de9565b90506020020135610c6d565b5080610ed981612e1a565b915050610e7e565b50600190505b949350505050565b6000610b09600783612028565b600081610f088561111c565b1015610f195750602960f91b610ee7565b600954421015610f2e5750601560fa1b610ee7565b6001600160a01b0384166000908152600e6020908152604080832060020154601090925290912054839190610f628761111c565b610f6c9190612e35565b610f769190612e35565b1015610f875750605560f81b610ee7565b6001600160a01b038416610fa05750602b60f91b610ee7565b6001600160a01b038316610fb95750605760f81b610ee7565b610fc285610afc565b158015610ff25750846001600160a01b0316610fe6600b546001600160a01b031690565b6001600160a01b031614155b80156110105750846001600160a01b0316846001600160a01b031614155b156110205750600b60fb1b610ee7565b6001600160a01b03841660009081526011602052604090205460ff161561104c5750602d60f91b610ee7565b6001600160a01b03831660009081526011602052604090205460ff16156110785750605b60f81b610ee7565b50605160f81b949350505050565b6110aa60405180606001604052806000815260200160008152602001600081525090565b6110b333610afc565b1580156110cb5750600b546001600160a01b03163314155b156110d65733610799565b506001600160a01b0381166000908152600e602090815260409182902082516060810184528154815260018201549281019290925260020154918101919091525b919050565b6001600160a01b031660009081526020819052604090205490565b61113f612186565b6111496000612299565b565b611153612186565b61115e6006826122eb565b6040516001600160a01b038216907ff68e73cec97f2d70aa641fb26e87a4383686e2efacb648f2165aeb02ac562ec590600090a250565b61119e33610afc565b1580156111b65750600b546001600160a01b03163314155b156111c15733610799565b6111ca8161111c565b8211156112255760405162461bcd60e51b8152602060048201526024808201527f416d6f756e74206973207570706572207468616e2062616c616e6365206f66206044820152633ab9b2b960e11b60648201526084016107ba565b6040805160608101825285815260208082018681528284018681526001600160a01b0386166000818152600e909452949092209251835551600183015551600290910155839085907fe73f01da0d1ab22feed9447b4801c099a6ebe22122e907da28300e12381a67068533604080519283526001600160a01b0390911660208301520160405180910390a450505050565b60005b838110156109d8576113098585838181106112d6576112d6612de9565b90506020020160208101906112eb9190612a3f565b8484848181106112fd576112fd612de9565b90506020020135611955565b508061131481612e1a565b9150506112b9565b6060600480546106d690612d80565b611333612186565b61133e6006826121e0565b6040516001600160a01b038216907fed9c8ad8d5a0a66898ea49d2956929c93ae2e8bd50281b2ed897c5d1a6737e0b90600090a250565b336000908152600e60209081526040808320815160608101835281548152600182015493810193909352600201549082018190526113ec5760405162461bcd60e51b81526020600482015260146024820152734e6f20746f6b656e20746f20756e667265657a6560601b60448201526064016107ba565b8051601e906113fb9042612e35565b116114485760405162461bcd60e51b815260206004820152601c60248201527f54696d6520666f722072656465656d20697320746f6f2073686f72740000000060448201526064016107ba565b8051602082015160009161145b91612e35565b825190915060009061146d9042612e35565b90506114a06064611494856040015161149a8661149460648861236790919063ffffffff16565b9061237a565b90612367565b935050505090565b60006114b333610b33565b1580156114cb5750600b546001600160a01b03163314155b156114d65733610c97565b60006114e184611bd2565b9050808311156116b7576001600160a01b03841660009081526010602052604081205461150d8661111c565b6115179190612e35565b6115219085612e35565b6001600160a01b0386166000908152601060205260409020549091506115468661111c565b6115509190612e35565b8411156115c0576001600160a01b03851660009081526010602052604090205461157b908290612e35565b6001600160a01b03861660008181526010602052604080822093909355915183927f9bed35cb62ad0dba04f9d5bfee4b5bc91443e77da8a65c4c84834c51bb08b0d691a35b6001600160a01b0385166000908152600e60205260409020600201546115e58661111c565b6115ef9190612e35565b6115f98286612e35565b11156116b5576001600160a01b0385166000908152600e60205260408120600201546116248761111c565b61162e9190612e35565b6116388387612e35565b6116429190612e35565b6001600160a01b0387166000908152600e602052604090206002015490915061166c908290612e35565b6001600160a01b0387166000818152600e602052604080822060020193909355915184927f86fc01e32674e4237a61b84eece63ddaf61eb7a3034e3cc7f8ca90558431f68e91a3505b505b6107678484612386565b60006116cc33610afc565b1580156116e45750600b546001600160a01b03163314155b156116ef5733610799565b60006116fa85611bd2565b905080831115610b1d576001600160a01b0385166000908152601060205260408120546117268761111c565b6117309190612e35565b61173a9085612e35565b6001600160a01b03871660009081526010602052604090205490915061175f8761111c565b6117699190612e35565b8411156117d9576001600160a01b038616600090815260106020526040902054611794908290612e35565b6001600160a01b03871660008181526010602052604080822093909355915183927f9bed35cb62ad0dba04f9d5bfee4b5bc91443e77da8a65c4c84834c51bb08b0d691a35b6001600160a01b0386166000908152600e60205260409020600201546117fe8761111c565b6118089190612e35565b6118128286612e35565b11156118ce576001600160a01b0386166000908152600e602052604081206002015461183d8861111c565b6118479190612e35565b6118518387612e35565b61185b9190612e35565b6001600160a01b0388166000908152600e6020526040902060020154909150611885908290612e35565b6001600160a01b0388166000818152600e602052604080822060020193909355915184927f86fc01e32674e4237a61b84eece63ddaf61eb7a3034e3cc7f8ca90558431f68e91a3505b50610b28858585612125565b600033816118e88286611dc3565b9050838110156119485760405162461bcd60e51b815260206004820152602560248201527f45524332303a2064656372656173656420616c6c6f77616e63652062656c6f77604482015264207a65726f60d81b60648201526084016107ba565b610b288286868403611f04565b6000610cc6338484612125565b606061196d33610eef565b1580156119855750600b546001600160a01b03163314155b156119b157335b6040516325bfed0960e11b81526001600160a01b0390911660048201526024016107ba565b60125460009063ffffffff1667ffffffffffffffff8111156119d5576119d5612e4c565b604051908082528060200260200182016040528015611a4a57816020015b611a376040518060a001604052806060815260200160006001600160a01b0316815260200160006001600160a01b0316815260200160008152602001600081525090565b8152602001906001900390816119f35790505b50905060005b60125463ffffffff9081169082161015611b825763ffffffff81166000908152600d602052604090819020815160a08101909252805482908290611a9390612d80565b80601f0160208091040260200160405190810160405280929190818152602001828054611abf90612d80565b8015611b0c5780601f10611ae157610100808354040283529160200191611b0c565b820191906000526020600020905b815481529060010190602001808311611aef57829003601f168201915b505050918352505060018201546001600160a01b0390811660208301526002830154166040820152600382015460608201526004909101546080909101528251839063ffffffff8416908110611b6457611b64612de9565b60200260200101819052508080611b7a90612e62565b915050611a50565b50905090565b611b90612186565b611b9b6007826122eb565b6040516001600160a01b038216907fb7724d890d2888af5a3fc456edb667e2c82c4441449ebcac301c618759e4f86d90600090a250565b6001600160a01b0381166000908152600e60209081526040808320600201546010909252822054611c028461111c565b611c0c9190612e35565b610b099190612e35565b611c1f33610afc565b158015611c375750600b546001600160a01b03163314155b15611c425733610799565b6001600160a01b038216600081815260116020526040808220805460ff19168515159081179091559051339391927f7fa523c84ab8d7fc5b72f08b9e46dbbf10c39e119a075b3e317002d14bc9f43691a45050565b611cbb60405180606001604052806000815260200160008152602001600081525090565b50336000908152600e6020908152604091829020825160608101845281548152600182015492810192909252600201549181019190915290565b600080611d00611375565b905060008111611d1257600091505090565b336000908152600e6020526040902042815560020154611d33908290612e35565b336000818152600e602052604080822060020193909355915183927f86fc01e32674e4237a61b84eece63ddaf61eb7a3034e3cc7f8ca90558431f68e91a3600191505090565b611d81612186565b611d8c6008826122eb565b6040516001600160a01b038216907f6ff3aa2ea7b53070f6d9d07a445d338d89e8edef44250ffa8be19f53910d4a2e90600090a250565b6001600160a01b03918216600090815260016020908152604080832093909416825291909152205490565b6000611df933610eef565b158015611e115750600b546001600160a01b03163314155b15611e1c573361198c565b506001600160a01b031660009081526011602052604090205460ff1690565b611e43612186565b600b546040516001600160a01b038084169216907f5c486528ec3e3f0ea91181cff8116f02bfa350e03b8b6f12e00765adbb5af85c90600090a3600b80546001600160a01b0319166001600160a01b0392909216919091179055565b60005b838110156109d857611ef2858583818110611ebf57611ebf612de9565b9050602002016020810190611ed49190612a3f565b848484818110611ee657611ee6612de9565b90506020020135610771565b80611efc81612e1a565b915050611ea2565b6001600160a01b038316611f665760405162461bcd60e51b8152602060048201526024808201527f45524332303a20617070726f76652066726f6d20746865207a65726f206164646044820152637265737360e01b60648201526084016107ba565b6001600160a01b038216611fc75760405162461bcd60e51b815260206004820152602260248201527f45524332303a20617070726f766520746f20746865207a65726f206164647265604482015261737360f01b60648201526084016107ba565b6001600160a01b0383811660008181526001602090815260408083209487168084529482529182902085905590518481527f8c5be1e5ebec7d5bd14f71427d1e84f3dd0314c0f7b2291e5b200ac8c7c3b925910160405180910390a3505050565b60006001600160a01b03821661208b5760405162461bcd60e51b815260206004820152602260248201527f526f6c65733a206163636f756e7420697320746865207a65726f206164647265604482015261737360f01b60648201526084016107ba565b506001600160a01b03166000908152602091909152604090205460ff1690565b60006120b78484611dc3565b9050600019811461211f57818110156121125760405162461bcd60e51b815260206004820152601d60248201527f45524332303a20696e73756666696369656e7420616c6c6f77616e636500000060448201526064016107ba565b61211f8484848403611f04565b50505050565b605160f81b61213633858585610efc565b6001600160f81b0319161461214a57600080fd5b6121558383836123b9565b612181604051806040016040528060088152602001673a3930b739b332b960c11b81525084848461255d565b505050565b600b546001600160a01b031633146111495760405162461bcd60e51b815260206004820181905260248201527f4f776e61626c653a2063616c6c6572206973206e6f7420746865206f776e657260448201526064016107ba565b6121ea8282612028565b6122405760405162461bcd60e51b815260206004820152602160248201527f526f6c65733a206163636f756e7420646f6573206e6f74206861766520726f6c6044820152606560f81b60648201526084016107ba565b6001600160a01b0316600090815260209190915260409020805460ff19169055565b61226c82826126fb565b612295604051806040016040528060048152602001631b5a5b9d60e21b8152506000848461255d565b5050565b600580546001600160a01b038381166001600160a01b0319831681179093556040519116919082907f8be0079c531659141344cd1fd0a4f28419497f9722a3daafe3b4186f6b6457e090600090a35050565b6122f58282612028565b156123425760405162461bcd60e51b815260206004820152601f60248201527f526f6c65733a206163636f756e7420616c72656164792068617320726f6c650060448201526064016107ba565b6001600160a01b0316600090815260209190915260409020805460ff19166001179055565b60006123738284612e86565b9392505050565b60006123738284612ea5565b61239082826127ba565b61229560405180604001604052806004815260200163313ab93760e11b8152508360008461255d565b6001600160a01b03831661241d5760405162461bcd60e51b815260206004820152602560248201527f45524332303a207472616e736665722066726f6d20746865207a65726f206164604482015264647265737360d81b60648201526084016107ba565b6001600160a01b03821661247f5760405162461bcd60e51b815260206004820152602360248201527f45524332303a207472616e7366657220746f20746865207a65726f206164647260448201526265737360e81b60648201526084016107ba565b6001600160a01b038316600090815260208190526040902054818110156124f75760405162461bcd60e51b815260206004820152602660248201527f45524332303a207472616e7366657220616d6f756e7420657863656564732062604482015265616c616e636560d01b60648201526084016107ba565b6001600160a01b03848116600081815260208181526040808320878703905593871680835291849020805487019055925185815290927fddf252ad1be2c89b69c2b068fc378daa952ba7f163c4a11628f55a4df523b3ef910160405180910390a361211f565b6009544211806125765750600c5462010000900460ff16155b6125b55760405162461bcd60e51b815260206004820152601060248201526f14185d5cd8589b194e881c185d5cd95960821b60448201526064016107ba565b816001600160a01b0316836001600160a01b03167f54c25aa230f7ee0c1e146d3416a3a4972d9fa34640b86e84383b461a585593de86846040516125fa929190612ec7565b60405180910390a36040518060a00160405280858152602001846001600160a01b03168152602001836001600160a01b0316815260200182815260200161263e4290565b905260125463ffffffff166000908152600d6020908152604090912082518051919261266f928492909101906128ec565b5060208201516001820180546001600160a01b039283166001600160a01b0319918216179091556040840151600284018054919093169116179055606082015160038201556080909101516004909101556012805463ffffffff169060006126d683612e62565b91906101000a81548163ffffffff021916908363ffffffff1602179055505050505050565b6001600160a01b0382166127515760405162461bcd60e51b815260206004820152601f60248201527f45524332303a206d696e7420746f20746865207a65726f20616464726573730060448201526064016107ba565b80600260008282546127639190612dd1565b90915550506001600160a01b038216600081815260208181526040808320805486019055518481527fddf252ad1be2c89b69c2b068fc378daa952ba7f163c4a11628f55a4df523b3ef910160405180910390a35050565b6001600160a01b03821661281a5760405162461bcd60e51b815260206004820152602160248201527f45524332303a206275726e2066726f6d20746865207a65726f206164647265736044820152607360f81b60648201526084016107ba565b6001600160a01b0382166000908152602081905260409020548181101561288e5760405162461bcd60e51b815260206004820152602260248201527f45524332303a206275726e20616d6f756e7420657863656564732062616c616e604482015261636560f01b60648201526084016107ba565b6001600160a01b0383166000818152602081815260408083208686039055600280548790039055518581529192917fddf252ad1be2c89b69c2b068fc378daa952ba7f163c4a11628f55a4df523b3ef910160405180910390a3505050565b8280546128f890612d80565b90600052602060002090601f01602090048101928261291a5760008555612960565b82601f1061293357805160ff1916838001178555612960565b82800160010185558215612960579182015b82811115612960578251825591602001919060010190612945565b5061296c929150612970565b5090565b5b8082111561296c5760008155600101612971565b6000815180845260005b818110156129ab5760208185018101518683018201520161298f565b818111156129bd576000602083870101525b50601f01601f19169290920160200192915050565b6020815260006123736020830184612985565b80356001600160a01b038116811461111757600080fd5b60008060408385031215612a0f57600080fd5b612a18836129e5565b946020939093013593505050565b600060208284031215612a3857600080fd5b5035919050565b600060208284031215612a5157600080fd5b612373826129e5565b60008083601f840112612a6c57600080fd5b50813567ffffffffffffffff811115612a8457600080fd5b6020830191508360208260051b8501011115612a9f57600080fd5b9250929050565b60008060008060408587031215612abc57600080fd5b843567ffffffffffffffff80821115612ad457600080fd5b612ae088838901612a5a565b90965094506020870135915080821115612af957600080fd5b50612b0687828801612a5a565b95989497509550505050565b600080600060608486031215612b2757600080fd5b612b30846129e5565b9250612b3e602085016129e5565b9150604084013590509250925092565b60008060008060008060608789031215612b6757600080fd5b863567ffffffffffffffff80821115612b7f57600080fd5b612b8b8a838b01612a5a565b90985096506020890135915080821115612ba457600080fd5b612bb08a838b01612a5a565b90965094506040890135915080821115612bc957600080fd5b50612bd689828a01612a5a565b979a9699509497509295939492505050565b60008060008060808587031215612bfe57600080fd5b612c07856129e5565b9350612c15602086016129e5565b9250612c23604086016129e5565b9396929550929360600135925050565b60008060008060808587031215612c4957600080fd5b843593506020850135925060408501359150612c67606086016129e5565b905092959194509250565b60006020808301818452808551808352604092508286019150828160051b87010184880160005b83811015612d0557603f19898403018552815160a08151818652612cbf82870182612985565b838b01516001600160a01b03908116888d01528a850151168a88015260608085015190880152608093840151939096019290925250509386019390860190600101612c99565b509098975050505050505050565b8035801515811461111757600080fd5b60008060408385031215612d3657600080fd5b612d3f836129e5565b9150612d4d60208401612d13565b90509250929050565b60008060408385031215612d6957600080fd5b612d72836129e5565b9150612d4d602084016129e5565b600181811c90821680612d9457607f821691505b60208210811415612db557634e487b7160e01b600052602260045260246000fd5b50919050565b634e487b7160e01b600052601160045260246000fd5b60008219821115612de457612de4612dbb565b500190565b634e487b7160e01b600052603260045260246000fd5b600060208284031215612e1157600080fd5b61237382612d13565b6000600019821415612e2e57612e2e612dbb565b5060010190565b600082821015612e4757612e47612dbb565b500390565b634e487b7160e01b600052604160045260246000fd5b600063ffffffff80831681811415612e7c57612e7c612dbb565b6001019392505050565b6000816000190483118215151615612ea057612ea0612dbb565b500290565b600082612ec257634e487b7160e01b600052601260045260246000fd5b500490565b604081526000612eda6040830185612985565b9050826020830152939250505056fea2646970667358221220272eea52f368d93697e2214762ee8ec82ec5d5361bd2dc42872503982081466a64736f6c634300080b0033",
  "immutableReferences": {},
  "source": "// SPDX-License-Identifier: MIT\n\npragma solidity ^0.8.0;\n\n\nimport \"./StorageToken.sol\";\nimport \"../library/TokenLibrary.sol\";\nimport \"../roles/AgentRole.sol\";\nimport \"../roles/ReaderRole.sol\";\nimport \"../roles/WriterRole.sol\";\nimport \"@openzeppelin/contracts/access/Ownable.sol\";\nimport \"@openzeppelin/contracts/token/ERC20/ERC20.sol\";\nimport \"@openzeppelin/contracts/utils/math/SafeMath.sol\";\n\ncontract SecurityToken is ERC20, AgentRole, ReaderRole, WriterRole, StorageToken {\n    using SafeMath for uint;\n\n    /**\n     */\n    constructor(\n        string memory _name,\n        string memory _code,\n        TokenLibrary.Rules memory _rules\n    ) ERC20(_name, _code) {\n        OWNER = _msgSender();\n        rules = _rules;\n    }\n\n    /// @dev Modifier to make a function callable only when the contract is not paused.\n    modifier whenNotPaused() {\n        require(_now() > paused || rules.pausable == false, \"Pausable: paused\");\n        _;\n    }\n\n    /// @dev Modifier to make a function callable only when the contract is paused.\n    modifier whenPaused() {\n        require(_now() <= paused && rules.pausable == true, \"Pausable: not paused\");\n        _;\n    }\n\n    /**\n     * @notice Returns the version of the token contract\n     * @return TOKEN_VERSION {string} version of the smart contract\n     */\n    function version() external pure returns (string memory) {\n        return TOKEN_VERSION;\n    }\n\n    /**\n     * @notice Returns the address wallet of the smart contract owner.\n     * @return owner {address} wallet addres from owner\n     */\n    function owner() public view override(Ownable) returns (address) {\n        return OWNER;\n    }\n\n    /**\n     * @notice Get movements of the assets\n     * @return result {TokenLibrary.Transfer[]} array of register transfers movements\n     */\n    function transfers() public view onlyReader() returns (TokenLibrary.Transfer[] memory) {\n        TokenLibrary.Transfer[] memory result = new TokenLibrary.Transfer[](_transfersCount);\n        for (uint32 i = 0; i < _transfersCount; i++) {\n            result[i] = _transfers[i];\n        }\n        return result;\n    }\n\n    /**\n     * @notice Transfer ownership of the smart contract\n     * @param account {address} address of the new owner\n     */\n    function transferOwnership(address account) public virtual override(Ownable) onlyOwner {\n        emit TransferOwnership(OWNER, account);\n        OWNER = account;\n    }\n\n    /**\n     * @notice return not freezed tokens from an address wallet\n     * @param account {address} wallet address of account you want to get not freezed balance\n     * @return balance {uint256} balance of wallet address totaly open\n     */\n    function eligibleBalanceOf(address account) public view returns(uint256) {\n        return balanceOf(account) - frozenTokens[account] - (freezedPeriod[account].amountFreezed);\n    }\n\n    /**\n     * @notice Mint and send `amount` tokens to `to`\n     *\n     * Returns a boolean value indicating whether the operation succeeded.\n     *\n     * Emits a {Transfer} event.\n     * @param to {address} wallet to send the token\n     * @param amount {uint256} amount to mint\n     * @return result {boolean} success or failure\n     */\n    function mint(address to, uint256 amount) public onlyWriter returns (bool) {\n        _mint(to, amount);\n        return true;\n    }\n\n    /**\n     * @notice Mint and send `amounts` tokens to `toList`\n     *\n     * Returns a boolean value indicating whether the operation succeeded.\n     *\n     * Emits a {Transfer} event by {to}.\n     * @param toList {address[]} wallets to send the tokens\n     * @param amounts {uint256[]} amount to mint\n     * @return result {boolean} success or failure\n     */\n    function batchMint(address[] calldata toList, uint256[] calldata amounts) external returns (bool) {\n        for (uint256 i = 0; i < toList.length; i++) {\n            mint(toList[i], amounts[i]);\n        }\n        return true;\n    }\n\n    /**\n     * @notice Remove `amount` tokens from `account`\n     *\n     * Returns a boolean value indicating whether the operation succeeded.\n     *\n     * Emits a {Transfer} event.\n     * @param account {address} wallet to burn the token\n     * @param amount {uint256} amount to burn\n     */\n    function burn(address account, uint256 amount)\n        public\n        onlyWriter\n        returns (bool)\n    {\n        uint256 freeBalance = eligibleBalanceOf(account);\n        if (amount > freeBalance) {\n            uint256 tokensToUnfreeze = amount - (balanceOf(account) - frozenTokens[account]);\n            if (amount > balanceOf(account) - frozenTokens[account]) {\n                frozenTokens[account] = frozenTokens[account] - (tokensToUnfreeze);\n                emit TokensUnfrozen(account, tokensToUnfreeze);\n            }\n            if (amount - tokensToUnfreeze > balanceOf(account) - (freezedPeriod[account].amountFreezed)) {\n                uint256 tokensToUnfreezePeriod =\n                amount - tokensToUnfreeze - (balanceOf(account) - freezedPeriod[account].amountFreezed);\n                freezedPeriod[account].amountFreezed = freezedPeriod[account].amountFreezed - (tokensToUnfreezePeriod);\n                emit TokensUnfrozenPeriod(account, tokensToUnfreeze);\n            }\n        }\n        _burn(account, amount);\n        return true;\n    }\n\n    /**\n     * @notice Remove `amounts` tokens from `accounts`\n     *\n     * Returns a boolean value indicating whether the operation succeeded.\n     *\n     * Emits a {Transfer} event.\n     * @param accounts {address[]} wallets to burn the tokens\n     * @param amounts {uint256[]} amounts to burn\n     */\n    function batchBurn(address[] calldata accounts, uint256[] calldata amounts) external {\n        for (uint256 i = 0; i < accounts.length; i++) {\n            burn(accounts[i], amounts[i]);\n        }\n    }\n\n    /**\n     * @dev Transfer and send `amount` tokens from `_msgSender()` to `to`\n     *\n     * Returns a boolean value indicating whether the operation succeeded.\n     *\n     * Emits a {Transfer} event.\n     * @param to {address} wallet to transfer the token\n     * @param amount {uint256[]} amount to transfer\n     */\n    function transfer(address to, uint256 amount) public virtual override returns (bool) {\n        _transfer(_msgSender(), to, amount);\n        return true;\n    }\n\n    /**\n     *  @dev Transfers and send `amount` tokens from `_msgSender()` to `toList`\n     *\n     * Returns a boolean value indicating whether the operation succeeded.\n     *\n     * Emits a {Transfer} event.\n     * @param toList {address[]} wallets to transfer the tokens\n     * @param amounts {uint256[]} amounts to transfer\n     */\n    function batchTransfer(address[] calldata toList, uint256[] calldata amounts) external {\n        for (uint256 i = 0; i < toList.length; i++) {\n            transfer(toList[i], amounts[i]);\n        }\n    }\n\n    /**\n     * @dev See {IERC20-transferFrom}.\n     */\n    function transferFrom(\n        address from,\n        address to,\n        uint256 amount\n    ) public virtual override returns (bool) {\n        address spender = _msgSender();\n        _spendAllowance(from, spender, amount);\n        _transfer(from, to, amount);\n        return true;\n    }\n\n    /**\n     * @notice Moves `amount` of tokens from `from` to `to`.\n     * @param from {address} the origin of the token transfer\n     * @param to {address} the recipient of the token transfer\n     * @param amount {uint256} the number of tokens transferred\n     */\n    function _transfer(\n        address from,\n        address to,\n        uint256 amount\n    ) internal override virtual {\n        require(canTransfer(_msgSender(), from, to, amount) == (hex\"51\"));\n        super._transfer(from, to, amount);\n        _afterTokenTransfer(\"transfer\", from, to, amount);\n    }\n\n    function canTransfer(address operator, address from, address to, uint256 value) public view returns (bytes1) {\n        if (balanceOf(from) < value){\n            return(hex\"52\"); // 0x52 insufficient balance\n        // } else if(allowance(from, operator) <= value) {\n        //     return(hex\"53\"); // 0x53 insufficient allowance\n        } else if(_now() < paused) {\n            return(hex\"54\"); // 0x54 transfers halted (contract paused)\n        } else if(balanceOf(from) - frozenTokens[from] - (freezedPeriod[from].amountFreezed) < value) {\n            return(hex\"55\"); // 0x55 funds locked (lockup period)\n        } else if (from == address(0)){\n            return(hex\"56\"); // 0x56 invalid sender\n        } else if (to == address(0)){\n            return(hex\"57\"); // 0x57 invalid receiver\n        } else if (!isAgent(operator) && owner() != operator && from != operator ){\n            return(hex\"58\"); // 0x58 invalid operator\n        } else if (frozen[from]){\n            return(hex\"5a\"); // 0x5a frozen sender\n        }  else if (frozen[to]){\n            return(hex\"5b\"); // 0x5b frozen receiver\n        }\n        return (hex\"51\"); // 0x51 success\n    }\n\n    /**\n     *  @notice Force an address wallet to transfer by agent\n     *  @param from {address} from wallet to transfer\n     *  @param to {address} to wallet to transfer\n     *  @param amount {uint256} amounts of tokens to be transfered\n     */\n    function forcedTransfer(\n        address from,\n        address to,\n        uint256 amount\n    ) public onlyAgent returns (bool) {\n        uint256 freeBalance = eligibleBalanceOf(from);\n\n        if (amount > freeBalance) {\n            uint256 tokensToUnfreeze = amount - (balanceOf(from) - frozenTokens[from]);\n            if (amount > balanceOf(from) - frozenTokens[from]) {\n                frozenTokens[from] = frozenTokens[from] - (tokensToUnfreeze);\n                emit TokensUnfrozen(from, tokensToUnfreeze);\n            }\n            if (amount - tokensToUnfreeze > balanceOf(from) - (freezedPeriod[from].amountFreezed)) {\n                uint256 tokensToUnfreezePeriod = \n                amount - tokensToUnfreeze - (balanceOf(from) - freezedPeriod[from].amountFreezed);\n                freezedPeriod[from].amountFreezed = freezedPeriod[from].amountFreezed - (tokensToUnfreezePeriod);\n                emit TokensUnfrozenPeriod(from, tokensToUnfreeze);\n            }\n        }\n\n        _transfer(from, to, amount);\n        return true;\n    }\n\n    /**\n     *  @notice Force an array of transfer by agent\n     *  @param fromList {address[]} from wallet to transfer\n     *  @param toList {address[]} to wallet to transfer\n     *  @param amounts {uint256[]} amounts of tokens to be transfered\n     */\n    function batchForcedTransfer(\n        address[] calldata fromList,\n        address[] calldata toList,\n        uint256[] calldata amounts\n    ) external {\n        for (uint256 i = 0; i < fromList.length; i++) {\n            forcedTransfer(fromList[i], toList[i], amounts[i]);\n        }\n    }\n\n    /**\n     * @notice Creates `amount` tokens and assigns them to `account`, increasing\n     * the total supply.\n     * @param account {address} the recipient of the token transfer\n     * @param amount {uint256} the number of tokens destroyed\n     */\n    function _mint(address account, uint256 amount) internal virtual override {\n        super._mint(account, amount);\n        _afterTokenTransfer(\"mint\", address(0), account, amount);\n    }\n\n    /**\n     * @notice Destroys `amount` tokens from `account`, reducing the\n     * total supply.\n     * @param account {address} the origin of the token destroyed\n     * @param amount {uint256} the number of tokens destroyed\n     */\n    function _burn(address account, uint256 amount) internal virtual override {\n        super._burn(account, amount);\n        _afterTokenTransfer(\"burn\", account, address(0), amount);\n    }\n\n    /**\n     *  @notice Pause transfer tokens of smart contract\n     *  @param _paused {uint256} represents date when transfer restart\n     */\n    function pause(uint256 _paused) external onlyAgent whenNotPaused {\n        paused = _paused;\n        emit Paused(_msgSender(), paused);\n    }\n\n    /**\n     *  @notice Unpause transfer tokens of smart contract\n     */\n    function unpause() external onlyAgent whenPaused {\n        paused = 0;\n        emit Paused(_msgSender(), paused);\n    }\n\n    /**\n     *  @notice Return freezed or not wallet address tokens\n     *  @param userAddress {address} of the user\n     *  @return frozen {bool} represents freezed wallet address\n     */\n    function isFrozen(address userAddress) external view onlyReader returns (bool) {\n        return frozen[userAddress];\n    }\n\n    /**\n     *  @notice Return freezed tokens amount of wallet address\n     *  @param userAddress {address} of the user\n     *  @return frozenTokens {uint256} amount of freezed tokens\n     */\n    function getFrozenTokens(address userAddress) external view returns (uint256) {\n        return frozenTokens[userAddress];\n    }\n\n    /**\n     *  @notice Freeze totality tokens of single wallet address\n     *  @param userAddress {address} of the user\n     *  @param freeze {boolean} representing freezing\n     */\n    function setAddressFrozen(address userAddress, bool freeze) public onlyAgent {\n        frozen[userAddress] = freeze;\n        emit AddressFrozen(userAddress, freeze, _msgSender());\n    }\n\n    /**\n     *  @notice Freeze totality tokens of multiples wallet addresses\n     *  @param userAddresses {address[]} of user addresses\n     *  @param freeze {bool[]} representing freezing\n     */\n    function batchSetAddressFrozen(address[] calldata userAddresses, bool[] calldata freeze) external {\n        for (uint256 i = 0; i < userAddresses.length; i++) {\n            setAddressFrozen(userAddresses[i], freeze[i]);\n        }\n    }\n\n\n    /**\n     *  @notice Freeze patial tokens of single wallet\n     *  @param userAddress {address} of the user\n     *  @param amount {uint256} of token to be unfreezed\n     */\n    function freezePartialTokens(address userAddress, uint256 amount) public onlyAgent {\n        uint256 balance = balanceOf(userAddress);\n        require(balance >= frozenTokens[userAddress] + amount, \"Amount exceeds available balance\");\n        frozenTokens[userAddress] = frozenTokens[userAddress] + (amount);\n        emit TokensFrozen(userAddress, amount);\n    }\n\n    /**\n     *  @notice Freeze patial tokens of multiples wallets\n     *  @param userAddresses {address[]} of user addresses\n     *  @param amounts {uint256[]} of amounts of token to be unfreezed\n     */\n    function batchFreezePartialTokens(address[] calldata userAddresses, uint256[] calldata amounts) external {\n        for (uint256 i = 0; i < userAddresses.length; i++) {\n            freezePartialTokens(userAddresses[i], amounts[i]);\n        }\n    }\n\n    /**\n     *  @notice Unfreeze patial tokens of single wallet\n     *  @param userAddress {address} of the user\n     *  @param amount {uint256} of token to be unfreezed\n     */\n    function unfreezePartialTokens(address userAddress, uint256 amount) public onlyAgent {\n        require(frozenTokens[userAddress] >= amount, \"Amount should be less than or equal to frozen tokens\");\n        frozenTokens[userAddress] = frozenTokens[userAddress] - (amount);\n        emit TokensUnfrozen(userAddress, amount);\n    }\n\n    /**\n     *  @notice Unfreeze patial tokens of multiples wallets\n     *  @param userAddresses {address[]} of user addresses\n     *  @param amounts {uint256[]} of amounts of token to be unfreezed\n     */\n    function batchUnfreezePartialTokens(address[] calldata userAddresses, uint256[] calldata amounts) external {\n        for (uint256 i = 0; i < userAddresses.length; i++) {\n            unfreezePartialTokens(userAddresses[i], amounts[i]);\n        }\n    }\n\n    /**\n     * @notice Freeze token of one address wallet periodically\n     * @param startTime {uint256} Start time of freezing partial token\n     * @param endTime {uint256} End time of freezing partial token\n     * @param amountFreezed {uint256} Amount of frozen token\n     * @param userAddress {address} Address wallet of the user frozen token\n     */\n    function setFreezedTokensPeriod(\n        uint256 startTime,\n        uint256 endTime,\n        uint256 amountFreezed,\n        address userAddress\n    ) external onlyAgent {\n        ///need to verify is valid identity user ?\n        require(amountFreezed <= balanceOf(userAddress), \"Amount is upper than balance of user\");\n        freezedPeriod[userAddress] = TokenLibrary.FreezePeriod(\n            startTime,\n            endTime,\n            amountFreezed\n        );\n        emit TokensFrozenPeriod(userAddress, startTime, endTime, amountFreezed, _msgSender());\n    }\n\n    /**\n     * @notice Retrieve struct of freezed tokens in period of msg.sender\n     * @return freezedPeriod {TokenLibrary.FreezePeriod} struct of freezed tokens in period\n     */\n    function myFreezedTokensPeriod() external view returns (TokenLibrary.FreezePeriod memory) {\n        return freezedPeriod[_msgSender()];\n    }\n\n    /**\n     * @notice Retrieve struct of freezed tokens in period of one wallet address by agent\n     * @param userAddress {address} of the user freezed tokens\n     * @return freezedPeriod {TokenLibrary.FreezePeriod} struct of freezed tokens in period\n     */\n    function getFreezedTokensPeriod(address userAddress) external view onlyAgent returns (TokenLibrary.FreezePeriod memory) {\n        return freezedPeriod[userAddress];\n    }\n\n    /**\n     * @notice Get unlockable tokens freezed in period for msg.sender\n     * @return unlockable {uint256} of unlockable tokens freezed in period\n     */\n    function unlockableTokensPeriod() public view returns (uint256) {\n        TokenLibrary.FreezePeriod memory freezedPeriodTemp = freezedPeriod[_msgSender()];\n\n        require(freezedPeriodTemp.amountFreezed > 0, \"No token to unfreeze\");\n        require(_now() - freezedPeriodTemp.startTime > 30, \"Time for redeem is too short\");\n\n        uint256 diff = freezedPeriodTemp.endTime - freezedPeriodTemp.startTime;\n        uint256 timeBehind = _now() - freezedPeriodTemp.startTime;\n\n        return timeBehind.mul(100).div(diff).mul(freezedPeriodTemp.amountFreezed).div(100);\n    }\n\n    /**\n     * @notice Redeem unlockable freezed tokens periodically\n     * @return success {bool} success of redeeming tokens\n     */\n    function redeemFreezedTokens() external returns (bool) {\n        uint256 unlockable = unlockableTokensPeriod();\n        if(unlockable <= 0) return false;\n\n        freezedPeriod[_msgSender()].startTime = _now();\n        freezedPeriod[_msgSender()].amountFreezed = freezedPeriod[_msgSender()].amountFreezed - unlockable;\n\n        emit TokensUnfrozenPeriod(_msgSender(), unlockable);\n\n        return true;\n    }\n\n    /**\n     * @notice Hook that is called after any transfer of tokens. This includes\n     * minting and burning.\n     * @param transferType {string} the type of transfer\n     * @param from {address} the origin of the token transfer\n     * @param to {address} the recipient of the token transfer\n     * @param amount {uint256} the number of tokens transferred\n     */\n    function _afterTokenTransfer(\n        string memory transferType,\n        address from,\n        address to,\n        uint256 amount\n    ) internal virtual whenNotPaused {\n        emit Transfer(transferType, from, to, amount);\n        _transfers[_transfersCount] = TokenLibrary.Transfer(\n            transferType,\n            from,\n            to,\n            amount,\n            _now()\n        );\n        _transfersCount++;\n    }\n}\n",
  "sourcePath": "/home/solid-solution/Bureau/HOMEWORK/Smart-Starter/contracts/immutable/SecurityToken.sol",
  "compiler": {
    "name": "solc",
    "version": "0.8.11+commit.d7f03943.Emscripten.clang"
  },
  "schemaVersion": "3.4.10",
  "updatedAt": "2023-02-15T09:57:27.679Z",
  "devdoc": {
    "kind": "dev",
    "methods": {
      "allowance(address,address)": {
        "details": "See {IERC20-allowance}."
      },
      "approve(address,uint256)": {
        "details": "See {IERC20-approve}. NOTE: If `amount` is the maximum `uint256`, the allowance is not updated on `transferFrom`. This is semantically equivalent to an infinite approval. Requirements: - `spender` cannot be the zero address."
      },
      "balanceOf(address)": {
        "details": "See {IERC20-balanceOf}."
      },
      "batchBurn(address[],uint256[])": {
        "params": {
          "accounts": "{address[]} wallets to burn the tokens",
          "amounts": "{uint256[]} amounts to burn"
        }
      },
      "batchForcedTransfer(address[],address[],uint256[])": {
        "params": {
          "amounts": "{uint256[]} amounts of tokens to be transfered",
          "fromList": "{address[]} from wallet to transfer",
          "toList": "{address[]} to wallet to transfer"
        }
      },
      "batchFreezePartialTokens(address[],uint256[])": {
        "params": {
          "amounts": "{uint256[]} of amounts of token to be unfreezed",
          "userAddresses": "{address[]} of user addresses"
        }
      },
      "batchMint(address[],uint256[])": {
        "params": {
          "amounts": "{uint256[]} amount to mint",
          "toList": "{address[]} wallets to send the tokens"
        },
        "returns": {
          "_0": "result {boolean} success or failure"
        }
      },
      "batchSetAddressFrozen(address[],bool[])": {
        "params": {
          "freeze": "{bool[]} representing freezing",
          "userAddresses": "{address[]} of user addresses"
        }
      },
      "batchTransfer(address[],uint256[])": {
        "details": "Transfers and send `amount` tokens from `_msgSender()` to `toList` Returns a boolean value indicating whether the operation succeeded. Emits a {Transfer} event.",
        "params": {
          "amounts": "{uint256[]} amounts to transfer",
          "toList": "{address[]} wallets to transfer the tokens"
        }
      },
      "batchUnfreezePartialTokens(address[],uint256[])": {
        "params": {
          "amounts": "{uint256[]} of amounts of token to be unfreezed",
          "userAddresses": "{address[]} of user addresses"
        }
      },
      "burn(address,uint256)": {
        "params": {
          "account": "{address} wallet to burn the token",
          "amount": "{uint256} amount to burn"
        }
      },
      "decimals()": {
        "details": "Returns the number of decimals used to get its user representation. For example, if `decimals` equals `2`, a balance of `505` tokens should be displayed to a user as `5.05` (`505 / 10 ** 2`). Tokens usually opt for a value of 18, imitating the relationship between Ether and Wei. This is the value {ERC20} uses, unless this function is overridden; NOTE: This information is only used for _display_ purposes: it in no way affects any of the arithmetic of the contract, including {IERC20-balanceOf} and {IERC20-transfer}."
      },
      "decreaseAllowance(address,uint256)": {
        "details": "Atomically decreases the allowance granted to `spender` by the caller. This is an alternative to {approve} that can be used as a mitigation for problems described in {IERC20-approve}. Emits an {Approval} event indicating the updated allowance. Requirements: - `spender` cannot be the zero address. - `spender` must have allowance for the caller of at least `subtractedValue`."
      },
      "eligibleBalanceOf(address)": {
        "params": {
          "account": "{address} wallet address of account you want to get not freezed balance"
        },
        "returns": {
          "_0": "balance {uint256} balance of wallet address totaly open"
        }
      },
      "forcedTransfer(address,address,uint256)": {
        "params": {
          "amount": "{uint256} amounts of tokens to be transfered",
          "from": "{address} from wallet to transfer",
          "to": "{address} to wallet to transfer"
        }
      },
      "freezePartialTokens(address,uint256)": {
        "params": {
          "amount": "{uint256} of token to be unfreezed",
          "userAddress": "{address} of the user"
        }
      },
      "getFreezedTokensPeriod(address)": {
        "params": {
          "userAddress": "{address} of the user freezed tokens"
        },
        "returns": {
          "_0": "freezedPeriod {TokenLibrary.FreezePeriod} struct of freezed tokens in period"
        }
      },
      "getFrozenTokens(address)": {
        "params": {
          "userAddress": "{address} of the user"
        },
        "returns": {
          "_0": "frozenTokens {uint256} amount of freezed tokens"
        }
      },
      "increaseAllowance(address,uint256)": {
        "details": "Atomically increases the allowance granted to `spender` by the caller. This is an alternative to {approve} that can be used as a mitigation for problems described in {IERC20-approve}. Emits an {Approval} event indicating the updated allowance. Requirements: - `spender` cannot be the zero address."
      },
      "isFrozen(address)": {
        "params": {
          "userAddress": "{address} of the user"
        },
        "returns": {
          "_0": "frozen {bool} represents freezed wallet address"
        }
      },
      "mint(address,uint256)": {
        "params": {
          "amount": "{uint256} amount to mint",
          "to": "{address} wallet to send the token"
        },
        "returns": {
          "_0": "result {boolean} success or failure"
        }
      },
      "myFreezedTokensPeriod()": {
        "returns": {
          "_0": "freezedPeriod {TokenLibrary.FreezePeriod} struct of freezed tokens in period"
        }
      },
      "name()": {
        "details": "Returns the name of the token."
      },
      "owner()": {
        "returns": {
          "_0": "owner {address} wallet addres from owner"
        }
      },
      "pause(uint256)": {
        "params": {
          "_paused": "{uint256} represents date when transfer restart"
        }
      },
      "redeemFreezedTokens()": {
        "returns": {
          "_0": "success {bool} success of redeeming tokens"
        }
      },
      "renounceOwnership()": {
        "details": "Leaves the contract without owner. It will not be possible to call `onlyOwner` functions anymore. Can only be called by the current owner. NOTE: Renouncing ownership will leave the contract without an owner, thereby removing any functionality that is only available to the owner."
      },
      "setAddressFrozen(address,bool)": {
        "params": {
          "freeze": "{boolean} representing freezing",
          "userAddress": "{address} of the user"
        }
      },
      "setFreezedTokensPeriod(uint256,uint256,uint256,address)": {
        "params": {
          "amountFreezed": "{uint256} Amount of frozen token",
          "endTime": "{uint256} End time of freezing partial token",
          "startTime": "{uint256} Start time of freezing partial token",
          "userAddress": "{address} Address wallet of the user frozen token"
        }
      },
      "symbol()": {
        "details": "Returns the symbol of the token, usually a shorter version of the name."
      },
      "totalSupply()": {
        "details": "See {IERC20-totalSupply}."
      },
      "transfer(address,uint256)": {
        "details": "Transfer and send `amount` tokens from `_msgSender()` to `to` Returns a boolean value indicating whether the operation succeeded. Emits a {Transfer} event.",
        "params": {
          "amount": "{uint256[]} amount to transfer",
          "to": "{address} wallet to transfer the token"
        }
      },
      "transferFrom(address,address,uint256)": {
        "details": "See {IERC20-transferFrom}."
      },
      "transferOwnership(address)": {
        "params": {
          "account": "{address} address of the new owner"
        }
      },
      "transfers()": {
        "returns": {
          "_0": "result {TokenLibrary.Transfer[]} array of register transfers movements"
        }
      },
      "unfreezePartialTokens(address,uint256)": {
        "params": {
          "amount": "{uint256} of token to be unfreezed",
          "userAddress": "{address} of the user"
        }
      },
      "unlockableTokensPeriod()": {
        "returns": {
          "_0": "unlockable {uint256} of unlockable tokens freezed in period"
        }
      },
      "version()": {
        "returns": {
          "_0": "TOKEN_VERSION {string} version of the smart contract"
        }
      }
    },
    "version": 1
  },
  "userdoc": {
    "kind": "user",
    "methods": {
      "batchBurn(address[],uint256[])": {
        "notice": "Remove `amounts` tokens from `accounts` Returns a boolean value indicating whether the operation succeeded. Emits a {Transfer} event."
      },
      "batchForcedTransfer(address[],address[],uint256[])": {
        "notice": "Force an array of transfer by agent"
      },
      "batchFreezePartialTokens(address[],uint256[])": {
        "notice": "Freeze patial tokens of multiples wallets"
      },
      "batchMint(address[],uint256[])": {
        "notice": "Mint and send `amounts` tokens to `toList` Returns a boolean value indicating whether the operation succeeded. Emits a {Transfer} event by {to}."
      },
      "batchSetAddressFrozen(address[],bool[])": {
        "notice": "Freeze totality tokens of multiples wallet addresses"
      },
      "batchUnfreezePartialTokens(address[],uint256[])": {
        "notice": "Unfreeze patial tokens of multiples wallets"
      },
      "burn(address,uint256)": {
        "notice": "Remove `amount` tokens from `account` Returns a boolean value indicating whether the operation succeeded. Emits a {Transfer} event."
      },
      "eligibleBalanceOf(address)": {
        "notice": "return not freezed tokens from an address wallet"
      },
      "forcedTransfer(address,address,uint256)": {
        "notice": "Force an address wallet to transfer by agent"
      },
      "freezePartialTokens(address,uint256)": {
        "notice": "Freeze patial tokens of single wallet"
      },
      "getFreezedTokensPeriod(address)": {
        "notice": "Retrieve struct of freezed tokens in period of one wallet address by agent"
      },
      "getFrozenTokens(address)": {
        "notice": "Return freezed tokens amount of wallet address"
      },
      "isFrozen(address)": {
        "notice": "Return freezed or not wallet address tokens"
      },
      "mint(address,uint256)": {
        "notice": "Mint and send `amount` tokens to `to` Returns a boolean value indicating whether the operation succeeded. Emits a {Transfer} event."
      },
      "myFreezedTokensPeriod()": {
        "notice": "Retrieve struct of freezed tokens in period of msg.sender"
      },
      "owner()": {
        "notice": "Returns the address wallet of the smart contract owner."
      },
      "pause(uint256)": {
        "notice": "Pause transfer tokens of smart contract"
      },
      "redeemFreezedTokens()": {
        "notice": "Redeem unlockable freezed tokens periodically"
      },
      "setAddressFrozen(address,bool)": {
        "notice": "Freeze totality tokens of single wallet address"
      },
      "setFreezedTokensPeriod(uint256,uint256,uint256,address)": {
        "notice": "Freeze token of one address wallet periodically"
      },
      "transferOwnership(address)": {
        "notice": "Transfer ownership of the smart contract"
      },
      "transfers()": {
        "notice": "Get movements of the assets"
      },
      "unfreezePartialTokens(address,uint256)": {
        "notice": "Unfreeze patial tokens of single wallet"
      },
      "unlockableTokensPeriod()": {
        "notice": "Get unlockable tokens freezed in period for msg.sender"
      },
      "unpause()": {
        "notice": "Unpause transfer tokens of smart contract"
      },
      "version()": {
        "notice": "Returns the version of the token contract"
      }
    },
    "version": 1
  }
}